{
	"contracts/election2.sol": {
		"ElectionVoting": {
			"abi": [
				{
					"inputs": [
						{
							"internalType": "string",
							"name": "_electionCommissionName",
							"type": "string"
						},
						{
							"internalType": "string",
							"name": "_proposal",
							"type": "string"
						}
					],
					"stateMutability": "nonpayable",
					"type": "constructor"
				},
				{
					"inputs": [
						{
							"internalType": "address",
							"name": "_voterAddress",
							"type": "address"
						},
						{
							"internalType": "string",
							"name": "_voterName",
							"type": "string"
						}
					],
					"name": "addVoter",
					"outputs": [],
					"stateMutability": "nonpayable",
					"type": "function"
				},
				{
					"inputs": [
						{
							"internalType": "bool",
							"name": "_choice",
							"type": "bool"
						}
					],
					"name": "doVote",
					"outputs": [
						{
							"internalType": "bool",
							"name": "voted",
							"type": "bool"
						}
					],
					"stateMutability": "nonpayable",
					"type": "function"
				},
				{
					"inputs": [],
					"name": "electionCommission",
					"outputs": [
						{
							"internalType": "address",
							"name": "",
							"type": "address"
						}
					],
					"stateMutability": "view",
					"type": "function"
				},
				{
					"inputs": [],
					"name": "electionCommissionName",
					"outputs": [
						{
							"internalType": "string",
							"name": "",
							"type": "string"
						}
					],
					"stateMutability": "view",
					"type": "function"
				},
				{
					"inputs": [],
					"name": "endVote",
					"outputs": [],
					"stateMutability": "nonpayable",
					"type": "function"
				},
				{
					"inputs": [],
					"name": "finalResult",
					"outputs": [
						{
							"internalType": "uint256",
							"name": "",
							"type": "uint256"
						}
					],
					"stateMutability": "view",
					"type": "function"
				},
				{
					"inputs": [],
					"name": "proposal",
					"outputs": [
						{
							"internalType": "string",
							"name": "",
							"type": "string"
						}
					],
					"stateMutability": "view",
					"type": "function"
				},
				{
					"inputs": [],
					"name": "startVote",
					"outputs": [],
					"stateMutability": "nonpayable",
					"type": "function"
				},
				{
					"inputs": [],
					"name": "state",
					"outputs": [
						{
							"internalType": "enum ElectionVoting.State",
							"name": "",
							"type": "uint8"
						}
					],
					"stateMutability": "view",
					"type": "function"
				},
				{
					"inputs": [],
					"name": "totalVote",
					"outputs": [
						{
							"internalType": "uint256",
							"name": "",
							"type": "uint256"
						}
					],
					"stateMutability": "view",
					"type": "function"
				},
				{
					"inputs": [],
					"name": "totalVoter",
					"outputs": [
						{
							"internalType": "uint256",
							"name": "",
							"type": "uint256"
						}
					],
					"stateMutability": "view",
					"type": "function"
				},
				{
					"inputs": [
						{
							"internalType": "address",
							"name": "",
							"type": "address"
						}
					],
					"name": "voterRegister",
					"outputs": [
						{
							"internalType": "string",
							"name": "voterName",
							"type": "string"
						},
						{
							"internalType": "bool",
							"name": "voted",
							"type": "bool"
						}
					],
					"stateMutability": "view",
					"type": "function"
				}
			],
			"devdoc": {
				"kind": "dev",
				"methods": {},
				"version": 1
			},
			"evm": {
				"assembly": "    /* \"contracts/election2.sol\":64:2354  contract ElectionVoting {... */\n  mstore(0x40, 0x80)\n    /* \"contracts/election2.sol\":289:290  0 */\n  0x00\n    /* \"contracts/election2.sol\":264:290  uint private countResult=0 */\n  dup1\n  sstore\n    /* \"contracts/election2.sol\":321:322  0 */\n  0x00\n    /* \"contracts/election2.sol\":297:322  uint public finalResult=0 */\n  0x01\n  sstore\n    /* \"contracts/election2.sol\":352:353  0 */\n  0x00\n    /* \"contracts/election2.sol\":329:353  uint public totalVoter=0 */\n  0x02\n  sstore\n    /* \"contracts/election2.sol\":382:383  0 */\n  0x00\n    /* \"contracts/election2.sol\":360:383  uint public totalVote=0 */\n  0x03\n  sstore\n    /* \"contracts/election2.sol\":987:1256  constructor(... */\n  callvalue\n  dup1\n  iszero\n  tag_1\n  jumpi\n  0x00\n  dup1\n  revert\ntag_1:\n  pop\n  mload(0x40)\n  sub(codesize, bytecodeSize)\n  dup1\n  bytecodeSize\n  dup4\n  codecopy\n  dup2\n  dup2\n  add\n  0x40\n  mstore\n  dup2\n  add\n  swap1\n  tag_2\n  swap2\n  swap1\n  tag_3\n  jump\t// in\ntag_2:\n    /* \"contracts/election2.sol\":1122:1132  msg.sender */\n  caller\n    /* \"contracts/election2.sol\":1103:1121  electionCommission */\n  0x04\n  0x00\n    /* \"contracts/election2.sol\":1103:1132  electionCommission=msg.sender */\n  0x0100\n  exp\n  dup2\n  sload\n  dup2\n  0xffffffffffffffffffffffffffffffffffffffff\n  mul\n  not\n  and\n  swap1\n  dup4\n  0xffffffffffffffffffffffffffffffffffffffff\n  and\n  mul\n  or\n  swap1\n  sstore\n  pop\n    /* \"contracts/election2.sol\":1166:1189  _electionCommissionName */\n  dup2\n    /* \"contracts/election2.sol\":1143:1165  electionCommissionName */\n  0x05\n    /* \"contracts/election2.sol\":1143:1189  electionCommissionName=_electionCommissionName */\n  swap1\n  dup2\n  tag_6\n  swap2\n  swap1\n  tag_7\n  jump\t// in\ntag_6:\n  pop\n    /* \"contracts/election2.sol\":1209:1218  _proposal */\n  dup1\n    /* \"contracts/election2.sol\":1200:1208  proposal */\n  0x06\n    /* \"contracts/election2.sol\":1200:1218  proposal=_proposal */\n  swap1\n  dup2\n  tag_8\n  swap2\n  swap1\n  tag_7\n  jump\t// in\ntag_8:\n  pop\n    /* \"contracts/election2.sol\":1235:1248  State.Created */\n  0x00\n    /* \"contracts/election2.sol\":1229:1234  state */\n  0x09\n  0x00\n    /* \"contracts/election2.sol\":1229:1248  state=State.Created */\n  0x0100\n  exp\n  dup2\n  sload\n  dup2\n  0xff\n  mul\n  not\n  and\n  swap1\n  dup4\n  0x02\n  dup2\n  gt\n  iszero\n  tag_9\n  jumpi\n  tag_10\n  tag_11\n  jump\t// in\ntag_10:\ntag_9:\n  mul\n  or\n  swap1\n  sstore\n  pop\n    /* \"contracts/election2.sol\":987:1256  constructor(... */\n  pop\n  pop\n    /* \"contracts/election2.sol\":64:2354  contract ElectionVoting {... */\n  jump(tag_12)\n    /* \"#utility.yul\":7:82   */\ntag_13:\n    /* \"#utility.yul\":40:46   */\n  0x00\n    /* \"#utility.yul\":73:75   */\n  0x40\n    /* \"#utility.yul\":67:76   */\n  mload\n    /* \"#utility.yul\":57:76   */\n  swap1\n  pop\n    /* \"#utility.yul\":7:82   */\n  swap1\n  jump\t// out\n    /* \"#utility.yul\":88:205   */\ntag_14:\n    /* \"#utility.yul\":197:198   */\n  0x00\n    /* \"#utility.yul\":194:195   */\n  dup1\n    /* \"#utility.yul\":187:199   */\n  revert\n    /* \"#utility.yul\":211:328   */\ntag_15:\n    /* \"#utility.yul\":320:321   */\n  0x00\n    /* \"#utility.yul\":317:318   */\n  dup1\n    /* \"#utility.yul\":310:322   */\n  revert\n    /* \"#utility.yul\":334:451   */\ntag_16:\n    /* \"#utility.yul\":443:444   */\n  0x00\n    /* \"#utility.yul\":440:441   */\n  dup1\n    /* \"#utility.yul\":433:445   */\n  revert\n    /* \"#utility.yul\":457:574   */\ntag_17:\n    /* \"#utility.yul\":566:567   */\n  0x00\n    /* \"#utility.yul\":563:564   */\n  dup1\n    /* \"#utility.yul\":556:568   */\n  revert\n    /* \"#utility.yul\":580:682   */\ntag_18:\n    /* \"#utility.yul\":621:627   */\n  0x00\n    /* \"#utility.yul\":672:674   */\n  0x1f\n    /* \"#utility.yul\":668:675   */\n  not\n    /* \"#utility.yul\":663:665   */\n  0x1f\n    /* \"#utility.yul\":656:661   */\n  dup4\n    /* \"#utility.yul\":652:666   */\n  add\n    /* \"#utility.yul\":648:676   */\n  and\n    /* \"#utility.yul\":638:676   */\n  swap1\n  pop\n    /* \"#utility.yul\":580:682   */\n  swap2\n  swap1\n  pop\n  jump\t// out\n    /* \"#utility.yul\":688:868   */\ntag_19:\n    /* \"#utility.yul\":736:813   */\n  0x4e487b7100000000000000000000000000000000000000000000000000000000\n    /* \"#utility.yul\":733:734   */\n  0x00\n    /* \"#utility.yul\":726:814   */\n  mstore\n    /* \"#utility.yul\":833:837   */\n  0x41\n    /* \"#utility.yul\":830:831   */\n  0x04\n    /* \"#utility.yul\":823:838   */\n  mstore\n    /* \"#utility.yul\":857:861   */\n  0x24\n    /* \"#utility.yul\":854:855   */\n  0x00\n    /* \"#utility.yul\":847:862   */\n  revert\n    /* \"#utility.yul\":874:1155   */\ntag_20:\n    /* \"#utility.yul\":957:984   */\n  tag_54\n    /* \"#utility.yul\":979:983   */\n  dup3\n    /* \"#utility.yul\":957:984   */\n  tag_18\n  jump\t// in\ntag_54:\n    /* \"#utility.yul\":949:955   */\n  dup2\n    /* \"#utility.yul\":945:985   */\n  add\n    /* \"#utility.yul\":1087:1093   */\n  dup2\n    /* \"#utility.yul\":1075:1085   */\n  dup2\n    /* \"#utility.yul\":1072:1094   */\n  lt\n    /* \"#utility.yul\":1051:1069   */\n  0xffffffffffffffff\n    /* \"#utility.yul\":1039:1049   */\n  dup3\n    /* \"#utility.yul\":1036:1070   */\n  gt\n    /* \"#utility.yul\":1033:1095   */\n  or\n    /* \"#utility.yul\":1030:1118   */\n  iszero\n  tag_55\n  jumpi\n    /* \"#utility.yul\":1098:1116   */\n  tag_56\n  tag_19\n  jump\t// in\ntag_56:\n    /* \"#utility.yul\":1030:1118   */\ntag_55:\n    /* \"#utility.yul\":1138:1148   */\n  dup1\n    /* \"#utility.yul\":1134:1136   */\n  0x40\n    /* \"#utility.yul\":1127:1149   */\n  mstore\n    /* \"#utility.yul\":917:1155   */\n  pop\n    /* \"#utility.yul\":874:1155   */\n  pop\n  pop\n  jump\t// out\n    /* \"#utility.yul\":1161:1290   */\ntag_21:\n    /* \"#utility.yul\":1195:1201   */\n  0x00\n    /* \"#utility.yul\":1222:1242   */\n  tag_58\n  tag_13\n  jump\t// in\ntag_58:\n    /* \"#utility.yul\":1212:1242   */\n  swap1\n  pop\n    /* \"#utility.yul\":1251:1284   */\n  tag_59\n    /* \"#utility.yul\":1279:1283   */\n  dup3\n    /* \"#utility.yul\":1271:1277   */\n  dup3\n    /* \"#utility.yul\":1251:1284   */\n  tag_20\n  jump\t// in\ntag_59:\n    /* \"#utility.yul\":1161:1290   */\n  swap2\n  swap1\n  pop\n  jump\t// out\n    /* \"#utility.yul\":1296:1604   */\ntag_22:\n    /* \"#utility.yul\":1358:1362   */\n  0x00\n    /* \"#utility.yul\":1448:1466   */\n  0xffffffffffffffff\n    /* \"#utility.yul\":1440:1446   */\n  dup3\n    /* \"#utility.yul\":1437:1467   */\n  gt\n    /* \"#utility.yul\":1434:1490   */\n  iszero\n  tag_61\n  jumpi\n    /* \"#utility.yul\":1470:1488   */\n  tag_62\n  tag_19\n  jump\t// in\ntag_62:\n    /* \"#utility.yul\":1434:1490   */\ntag_61:\n    /* \"#utility.yul\":1508:1537   */\n  tag_63\n    /* \"#utility.yul\":1530:1536   */\n  dup3\n    /* \"#utility.yul\":1508:1537   */\n  tag_18\n  jump\t// in\ntag_63:\n    /* \"#utility.yul\":1500:1537   */\n  swap1\n  pop\n    /* \"#utility.yul\":1592:1596   */\n  0x20\n    /* \"#utility.yul\":1586:1590   */\n  dup2\n    /* \"#utility.yul\":1582:1597   */\n  add\n    /* \"#utility.yul\":1574:1597   */\n  swap1\n  pop\n    /* \"#utility.yul\":1296:1604   */\n  swap2\n  swap1\n  pop\n  jump\t// out\n    /* \"#utility.yul\":1610:1856   */\ntag_23:\n    /* \"#utility.yul\":1691:1692   */\n  0x00\n    /* \"#utility.yul\":1701:1814   */\ntag_65:\n    /* \"#utility.yul\":1715:1721   */\n  dup4\n    /* \"#utility.yul\":1712:1713   */\n  dup2\n    /* \"#utility.yul\":1709:1722   */\n  lt\n    /* \"#utility.yul\":1701:1814   */\n  iszero\n  tag_67\n  jumpi\n    /* \"#utility.yul\":1800:1801   */\n  dup1\n    /* \"#utility.yul\":1795:1798   */\n  dup3\n    /* \"#utility.yul\":1791:1802   */\n  add\n    /* \"#utility.yul\":1785:1803   */\n  mload\n    /* \"#utility.yul\":1781:1782   */\n  dup2\n    /* \"#utility.yul\":1776:1779   */\n  dup5\n    /* \"#utility.yul\":1772:1783   */\n  add\n    /* \"#utility.yul\":1765:1804   */\n  mstore\n    /* \"#utility.yul\":1737:1739   */\n  0x20\n    /* \"#utility.yul\":1734:1735   */\n  dup2\n    /* \"#utility.yul\":1730:1740   */\n  add\n    /* \"#utility.yul\":1725:1740   */\n  swap1\n  pop\n    /* \"#utility.yul\":1701:1814   */\n  jump(tag_65)\ntag_67:\n    /* \"#utility.yul\":1848:1849   */\n  0x00\n    /* \"#utility.yul\":1839:1845   */\n  dup5\n    /* \"#utility.yul\":1834:1837   */\n  dup5\n    /* \"#utility.yul\":1830:1846   */\n  add\n    /* \"#utility.yul\":1823:1850   */\n  mstore\n    /* \"#utility.yul\":1672:1856   */\n  pop\n    /* \"#utility.yul\":1610:1856   */\n  pop\n  pop\n  pop\n  jump\t// out\n    /* \"#utility.yul\":1862:2296   */\ntag_24:\n    /* \"#utility.yul\":1951:1956   */\n  0x00\n    /* \"#utility.yul\":1976:2042   */\n  tag_69\n    /* \"#utility.yul\":1992:2041   */\n  tag_70\n    /* \"#utility.yul\":2034:2040   */\n  dup5\n    /* \"#utility.yul\":1992:2041   */\n  tag_22\n  jump\t// in\ntag_70:\n    /* \"#utility.yul\":1976:2042   */\n  tag_21\n  jump\t// in\ntag_69:\n    /* \"#utility.yul\":1967:2042   */\n  swap1\n  pop\n    /* \"#utility.yul\":2065:2071   */\n  dup3\n    /* \"#utility.yul\":2058:2063   */\n  dup2\n    /* \"#utility.yul\":2051:2072   */\n  mstore\n    /* \"#utility.yul\":2103:2107   */\n  0x20\n    /* \"#utility.yul\":2096:2101   */\n  dup2\n    /* \"#utility.yul\":2092:2108   */\n  add\n    /* \"#utility.yul\":2141:2144   */\n  dup5\n    /* \"#utility.yul\":2132:2138   */\n  dup5\n    /* \"#utility.yul\":2127:2130   */\n  dup5\n    /* \"#utility.yul\":2123:2139   */\n  add\n    /* \"#utility.yul\":2120:2145   */\n  gt\n    /* \"#utility.yul\":2117:2229   */\n  iszero\n  tag_71\n  jumpi\n    /* \"#utility.yul\":2148:2227   */\n  tag_72\n  tag_17\n  jump\t// in\ntag_72:\n    /* \"#utility.yul\":2117:2229   */\ntag_71:\n    /* \"#utility.yul\":2238:2290   */\n  tag_73\n    /* \"#utility.yul\":2283:2289   */\n  dup5\n    /* \"#utility.yul\":2278:2281   */\n  dup3\n    /* \"#utility.yul\":2273:2276   */\n  dup6\n    /* \"#utility.yul\":2238:2290   */\n  tag_23\n  jump\t// in\ntag_73:\n    /* \"#utility.yul\":1957:2296   */\n  pop\n    /* \"#utility.yul\":1862:2296   */\n  swap4\n  swap3\n  pop\n  pop\n  pop\n  jump\t// out\n    /* \"#utility.yul\":2316:2671   */\ntag_25:\n    /* \"#utility.yul\":2383:2388   */\n  0x00\n    /* \"#utility.yul\":2432:2435   */\n  dup3\n    /* \"#utility.yul\":2425:2429   */\n  0x1f\n    /* \"#utility.yul\":2417:2423   */\n  dup4\n    /* \"#utility.yul\":2413:2430   */\n  add\n    /* \"#utility.yul\":2409:2436   */\n  slt\n    /* \"#utility.yul\":2399:2521   */\n  tag_75\n  jumpi\n    /* \"#utility.yul\":2440:2519   */\n  tag_76\n  tag_16\n  jump\t// in\ntag_76:\n    /* \"#utility.yul\":2399:2521   */\ntag_75:\n    /* \"#utility.yul\":2550:2556   */\n  dup2\n    /* \"#utility.yul\":2544:2557   */\n  mload\n    /* \"#utility.yul\":2575:2665   */\n  tag_77\n    /* \"#utility.yul\":2661:2664   */\n  dup5\n    /* \"#utility.yul\":2653:2659   */\n  dup3\n    /* \"#utility.yul\":2646:2650   */\n  0x20\n    /* \"#utility.yul\":2638:2644   */\n  dup7\n    /* \"#utility.yul\":2634:2651   */\n  add\n    /* \"#utility.yul\":2575:2665   */\n  tag_24\n  jump\t// in\ntag_77:\n    /* \"#utility.yul\":2566:2665   */\n  swap2\n  pop\n    /* \"#utility.yul\":2389:2671   */\n  pop\n    /* \"#utility.yul\":2316:2671   */\n  swap3\n  swap2\n  pop\n  pop\n  jump\t// out\n    /* \"#utility.yul\":2677:3530   */\ntag_3:\n    /* \"#utility.yul\":2776:2782   */\n  0x00\n    /* \"#utility.yul\":2784:2790   */\n  dup1\n    /* \"#utility.yul\":2833:2835   */\n  0x40\n    /* \"#utility.yul\":2821:2830   */\n  dup4\n    /* \"#utility.yul\":2812:2819   */\n  dup6\n    /* \"#utility.yul\":2808:2831   */\n  sub\n    /* \"#utility.yul\":2804:2836   */\n  slt\n    /* \"#utility.yul\":2801:2920   */\n  iszero\n  tag_79\n  jumpi\n    /* \"#utility.yul\":2839:2918   */\n  tag_80\n  tag_14\n  jump\t// in\ntag_80:\n    /* \"#utility.yul\":2801:2920   */\ntag_79:\n    /* \"#utility.yul\":2980:2981   */\n  0x00\n    /* \"#utility.yul\":2969:2978   */\n  dup4\n    /* \"#utility.yul\":2965:2982   */\n  add\n    /* \"#utility.yul\":2959:2983   */\n  mload\n    /* \"#utility.yul\":3010:3028   */\n  0xffffffffffffffff\n    /* \"#utility.yul\":3002:3008   */\n  dup2\n    /* \"#utility.yul\":2999:3029   */\n  gt\n    /* \"#utility.yul\":2996:3113   */\n  iszero\n  tag_81\n  jumpi\n    /* \"#utility.yul\":3032:3111   */\n  tag_82\n  tag_15\n  jump\t// in\ntag_82:\n    /* \"#utility.yul\":2996:3113   */\ntag_81:\n    /* \"#utility.yul\":3137:3211   */\n  tag_83\n    /* \"#utility.yul\":3203:3210   */\n  dup6\n    /* \"#utility.yul\":3194:3200   */\n  dup3\n    /* \"#utility.yul\":3183:3192   */\n  dup7\n    /* \"#utility.yul\":3179:3201   */\n  add\n    /* \"#utility.yul\":3137:3211   */\n  tag_25\n  jump\t// in\ntag_83:\n    /* \"#utility.yul\":3127:3211   */\n  swap3\n  pop\n    /* \"#utility.yul\":2930:3221   */\n  pop\n    /* \"#utility.yul\":3281:3283   */\n  0x20\n    /* \"#utility.yul\":3270:3279   */\n  dup4\n    /* \"#utility.yul\":3266:3284   */\n  add\n    /* \"#utility.yul\":3260:3285   */\n  mload\n    /* \"#utility.yul\":3312:3330   */\n  0xffffffffffffffff\n    /* \"#utility.yul\":3304:3310   */\n  dup2\n    /* \"#utility.yul\":3301:3331   */\n  gt\n    /* \"#utility.yul\":3298:3415   */\n  iszero\n  tag_84\n  jumpi\n    /* \"#utility.yul\":3334:3413   */\n  tag_85\n  tag_15\n  jump\t// in\ntag_85:\n    /* \"#utility.yul\":3298:3415   */\ntag_84:\n    /* \"#utility.yul\":3439:3513   */\n  tag_86\n    /* \"#utility.yul\":3505:3512   */\n  dup6\n    /* \"#utility.yul\":3496:3502   */\n  dup3\n    /* \"#utility.yul\":3485:3494   */\n  dup7\n    /* \"#utility.yul\":3481:3503   */\n  add\n    /* \"#utility.yul\":3439:3513   */\n  tag_25\n  jump\t// in\ntag_86:\n    /* \"#utility.yul\":3429:3513   */\n  swap2\n  pop\n    /* \"#utility.yul\":3231:3523   */\n  pop\n    /* \"#utility.yul\":2677:3530   */\n  swap3\n  pop\n  swap3\n  swap1\n  pop\n  jump\t// out\n    /* \"#utility.yul\":3536:3635   */\ntag_26:\n    /* \"#utility.yul\":3588:3594   */\n  0x00\n    /* \"#utility.yul\":3622:3627   */\n  dup2\n    /* \"#utility.yul\":3616:3628   */\n  mload\n    /* \"#utility.yul\":3606:3628   */\n  swap1\n  pop\n    /* \"#utility.yul\":3536:3635   */\n  swap2\n  swap1\n  pop\n  jump\t// out\n    /* \"#utility.yul\":3641:3821   */\ntag_27:\n    /* \"#utility.yul\":3689:3766   */\n  0x4e487b7100000000000000000000000000000000000000000000000000000000\n    /* \"#utility.yul\":3686:3687   */\n  0x00\n    /* \"#utility.yul\":3679:3767   */\n  mstore\n    /* \"#utility.yul\":3786:3790   */\n  0x22\n    /* \"#utility.yul\":3783:3784   */\n  0x04\n    /* \"#utility.yul\":3776:3791   */\n  mstore\n    /* \"#utility.yul\":3810:3814   */\n  0x24\n    /* \"#utility.yul\":3807:3808   */\n  0x00\n    /* \"#utility.yul\":3800:3815   */\n  revert\n    /* \"#utility.yul\":3827:4147   */\ntag_28:\n    /* \"#utility.yul\":3871:3877   */\n  0x00\n    /* \"#utility.yul\":3908:3909   */\n  0x02\n    /* \"#utility.yul\":3902:3906   */\n  dup3\n    /* \"#utility.yul\":3898:3910   */\n  div\n    /* \"#utility.yul\":3888:3910   */\n  swap1\n  pop\n    /* \"#utility.yul\":3955:3956   */\n  0x01\n    /* \"#utility.yul\":3949:3953   */\n  dup3\n    /* \"#utility.yul\":3945:3957   */\n  and\n    /* \"#utility.yul\":3976:3994   */\n  dup1\n    /* \"#utility.yul\":3966:4047   */\n  tag_90\n  jumpi\n    /* \"#utility.yul\":4032:4036   */\n  0x7f\n    /* \"#utility.yul\":4024:4030   */\n  dup3\n    /* \"#utility.yul\":4020:4037   */\n  and\n    /* \"#utility.yul\":4010:4037   */\n  swap2\n  pop\n    /* \"#utility.yul\":3966:4047   */\ntag_90:\n    /* \"#utility.yul\":4094:4096   */\n  0x20\n    /* \"#utility.yul\":4086:4092   */\n  dup3\n    /* \"#utility.yul\":4083:4097   */\n  lt\n    /* \"#utility.yul\":4063:4081   */\n  dup2\n    /* \"#utility.yul\":4060:4098   */\n  sub\n    /* \"#utility.yul\":4057:4141   */\n  tag_91\n  jumpi\n    /* \"#utility.yul\":4113:4131   */\n  tag_92\n  tag_27\n  jump\t// in\ntag_92:\n    /* \"#utility.yul\":4057:4141   */\ntag_91:\n    /* \"#utility.yul\":3878:4147   */\n  pop\n    /* \"#utility.yul\":3827:4147   */\n  swap2\n  swap1\n  pop\n  jump\t// out\n    /* \"#utility.yul\":4153:4294   */\ntag_29:\n    /* \"#utility.yul\":4202:4206   */\n  0x00\n    /* \"#utility.yul\":4225:4228   */\n  dup2\n    /* \"#utility.yul\":4217:4228   */\n  swap1\n  pop\n    /* \"#utility.yul\":4248:4251   */\n  dup2\n    /* \"#utility.yul\":4245:4246   */\n  0x00\n    /* \"#utility.yul\":4238:4252   */\n  mstore\n    /* \"#utility.yul\":4282:4286   */\n  0x20\n    /* \"#utility.yul\":4279:4280   */\n  0x00\n    /* \"#utility.yul\":4269:4287   */\n  keccak256\n    /* \"#utility.yul\":4261:4287   */\n  swap1\n  pop\n    /* \"#utility.yul\":4153:4294   */\n  swap2\n  swap1\n  pop\n  jump\t// out\n    /* \"#utility.yul\":4300:4393   */\ntag_30:\n    /* \"#utility.yul\":4337:4343   */\n  0x00\n    /* \"#utility.yul\":4384:4386   */\n  0x20\n    /* \"#utility.yul\":4379:4381   */\n  0x1f\n    /* \"#utility.yul\":4372:4377   */\n  dup4\n    /* \"#utility.yul\":4368:4382   */\n  add\n    /* \"#utility.yul\":4364:4387   */\n  div\n    /* \"#utility.yul\":4354:4387   */\n  swap1\n  pop\n    /* \"#utility.yul\":4300:4393   */\n  swap2\n  swap1\n  pop\n  jump\t// out\n    /* \"#utility.yul\":4399:4506   */\ntag_31:\n    /* \"#utility.yul\":4443:4451   */\n  0x00\n    /* \"#utility.yul\":4493:4498   */\n  dup3\n    /* \"#utility.yul\":4487:4491   */\n  dup3\n    /* \"#utility.yul\":4483:4499   */\n  shl\n    /* \"#utility.yul\":4462:4499   */\n  swap1\n  pop\n    /* \"#utility.yul\":4399:4506   */\n  swap3\n  swap2\n  pop\n  pop\n  jump\t// out\n    /* \"#utility.yul\":4512:4905   */\ntag_32:\n    /* \"#utility.yul\":4581:4587   */\n  0x00\n    /* \"#utility.yul\":4631:4632   */\n  0x08\n    /* \"#utility.yul\":4619:4629   */\n  dup4\n    /* \"#utility.yul\":4615:4633   */\n  mul\n    /* \"#utility.yul\":4654:4751   */\n  tag_97\n    /* \"#utility.yul\":4684:4750   */\n  0xffffffffffffffffffffffffffffffffffffffffffffffffffffffffffffffff\n    /* \"#utility.yul\":4673:4682   */\n  dup3\n    /* \"#utility.yul\":4654:4751   */\n  tag_31\n  jump\t// in\ntag_97:\n    /* \"#utility.yul\":4772:4811   */\n  tag_98\n    /* \"#utility.yul\":4802:4810   */\n  dup7\n    /* \"#utility.yul\":4791:4800   */\n  dup4\n    /* \"#utility.yul\":4772:4811   */\n  tag_31\n  jump\t// in\ntag_98:\n    /* \"#utility.yul\":4760:4811   */\n  swap6\n  pop\n    /* \"#utility.yul\":4844:4848   */\n  dup1\n    /* \"#utility.yul\":4840:4849   */\n  not\n    /* \"#utility.yul\":4833:4838   */\n  dup5\n    /* \"#utility.yul\":4829:4850   */\n  and\n    /* \"#utility.yul\":4820:4850   */\n  swap4\n  pop\n    /* \"#utility.yul\":4893:4897   */\n  dup1\n    /* \"#utility.yul\":4883:4891   */\n  dup7\n    /* \"#utility.yul\":4879:4898   */\n  and\n    /* \"#utility.yul\":4872:4877   */\n  dup5\n    /* \"#utility.yul\":4869:4899   */\n  or\n    /* \"#utility.yul\":4859:4899   */\n  swap3\n  pop\n    /* \"#utility.yul\":4588:4905   */\n  pop\n  pop\n    /* \"#utility.yul\":4512:4905   */\n  swap4\n  swap3\n  pop\n  pop\n  pop\n  jump\t// out\n    /* \"#utility.yul\":4911:4988   */\ntag_33:\n    /* \"#utility.yul\":4948:4955   */\n  0x00\n    /* \"#utility.yul\":4977:4982   */\n  dup2\n    /* \"#utility.yul\":4966:4982   */\n  swap1\n  pop\n    /* \"#utility.yul\":4911:4988   */\n  swap2\n  swap1\n  pop\n  jump\t// out\n    /* \"#utility.yul\":4994:5054   */\ntag_34:\n    /* \"#utility.yul\":5022:5025   */\n  0x00\n    /* \"#utility.yul\":5043:5048   */\n  dup2\n    /* \"#utility.yul\":5036:5048   */\n  swap1\n  pop\n    /* \"#utility.yul\":4994:5054   */\n  swap2\n  swap1\n  pop\n  jump\t// out\n    /* \"#utility.yul\":5060:5202   */\ntag_35:\n    /* \"#utility.yul\":5110:5119   */\n  0x00\n    /* \"#utility.yul\":5143:5196   */\n  tag_102\n    /* \"#utility.yul\":5161:5195   */\n  tag_103\n    /* \"#utility.yul\":5170:5194   */\n  tag_104\n    /* \"#utility.yul\":5188:5193   */\n  dup5\n    /* \"#utility.yul\":5170:5194   */\n  tag_33\n  jump\t// in\ntag_104:\n    /* \"#utility.yul\":5161:5195   */\n  tag_34\n  jump\t// in\ntag_103:\n    /* \"#utility.yul\":5143:5196   */\n  tag_33\n  jump\t// in\ntag_102:\n    /* \"#utility.yul\":5130:5196   */\n  swap1\n  pop\n    /* \"#utility.yul\":5060:5202   */\n  swap2\n  swap1\n  pop\n  jump\t// out\n    /* \"#utility.yul\":5208:5283   */\ntag_36:\n    /* \"#utility.yul\":5251:5254   */\n  0x00\n    /* \"#utility.yul\":5272:5277   */\n  dup2\n    /* \"#utility.yul\":5265:5277   */\n  swap1\n  pop\n    /* \"#utility.yul\":5208:5283   */\n  swap2\n  swap1\n  pop\n  jump\t// out\n    /* \"#utility.yul\":5289:5558   */\ntag_37:\n    /* \"#utility.yul\":5399:5438   */\n  tag_107\n    /* \"#utility.yul\":5430:5437   */\n  dup4\n    /* \"#utility.yul\":5399:5438   */\n  tag_35\n  jump\t// in\ntag_107:\n    /* \"#utility.yul\":5460:5551   */\n  tag_108\n    /* \"#utility.yul\":5509:5550   */\n  tag_109\n    /* \"#utility.yul\":5533:5549   */\n  dup3\n    /* \"#utility.yul\":5509:5550   */\n  tag_36\n  jump\t// in\ntag_109:\n    /* \"#utility.yul\":5501:5507   */\n  dup5\n    /* \"#utility.yul\":5494:5498   */\n  dup5\n    /* \"#utility.yul\":5488:5499   */\n  sload\n    /* \"#utility.yul\":5460:5551   */\n  tag_32\n  jump\t// in\ntag_108:\n    /* \"#utility.yul\":5454:5458   */\n  dup3\n    /* \"#utility.yul\":5447:5552   */\n  sstore\n    /* \"#utility.yul\":5365:5558   */\n  pop\n    /* \"#utility.yul\":5289:5558   */\n  pop\n  pop\n  pop\n  jump\t// out\n    /* \"#utility.yul\":5564:5637   */\ntag_38:\n    /* \"#utility.yul\":5609:5612   */\n  0x00\n    /* \"#utility.yul\":5564:5637   */\n  swap1\n  jump\t// out\n    /* \"#utility.yul\":5643:5832   */\ntag_39:\n    /* \"#utility.yul\":5720:5752   */\n  tag_112\n  tag_38\n  jump\t// in\ntag_112:\n    /* \"#utility.yul\":5761:5826   */\n  tag_113\n    /* \"#utility.yul\":5819:5825   */\n  dup2\n    /* \"#utility.yul\":5811:5817   */\n  dup5\n    /* \"#utility.yul\":5805:5809   */\n  dup5\n    /* \"#utility.yul\":5761:5826   */\n  tag_37\n  jump\t// in\ntag_113:\n    /* \"#utility.yul\":5696:5832   */\n  pop\n    /* \"#utility.yul\":5643:5832   */\n  pop\n  pop\n  jump\t// out\n    /* \"#utility.yul\":5838:6024   */\ntag_40:\n    /* \"#utility.yul\":5898:6018   */\ntag_115:\n    /* \"#utility.yul\":5915:5918   */\n  dup2\n    /* \"#utility.yul\":5908:5913   */\n  dup2\n    /* \"#utility.yul\":5905:5919   */\n  lt\n    /* \"#utility.yul\":5898:6018   */\n  iszero\n  tag_117\n  jumpi\n    /* \"#utility.yul\":5969:6008   */\n  tag_118\n    /* \"#utility.yul\":6006:6007   */\n  0x00\n    /* \"#utility.yul\":5999:6004   */\n  dup3\n    /* \"#utility.yul\":5969:6008   */\n  tag_39\n  jump\t// in\ntag_118:\n    /* \"#utility.yul\":5942:5943   */\n  0x01\n    /* \"#utility.yul\":5935:5940   */\n  dup2\n    /* \"#utility.yul\":5931:5944   */\n  add\n    /* \"#utility.yul\":5922:5944   */\n  swap1\n  pop\n    /* \"#utility.yul\":5898:6018   */\n  jump(tag_115)\ntag_117:\n    /* \"#utility.yul\":5838:6024   */\n  pop\n  pop\n  jump\t// out\n    /* \"#utility.yul\":6030:6573   */\ntag_41:\n    /* \"#utility.yul\":6131:6133   */\n  0x1f\n    /* \"#utility.yul\":6126:6129   */\n  dup3\n    /* \"#utility.yul\":6123:6134   */\n  gt\n    /* \"#utility.yul\":6120:6566   */\n  iszero\n  tag_120\n  jumpi\n    /* \"#utility.yul\":6165:6203   */\n  tag_121\n    /* \"#utility.yul\":6197:6202   */\n  dup2\n    /* \"#utility.yul\":6165:6203   */\n  tag_29\n  jump\t// in\ntag_121:\n    /* \"#utility.yul\":6249:6278   */\n  tag_122\n    /* \"#utility.yul\":6267:6277   */\n  dup5\n    /* \"#utility.yul\":6249:6278   */\n  tag_30\n  jump\t// in\ntag_122:\n    /* \"#utility.yul\":6239:6247   */\n  dup2\n    /* \"#utility.yul\":6235:6279   */\n  add\n    /* \"#utility.yul\":6432:6434   */\n  0x20\n    /* \"#utility.yul\":6420:6430   */\n  dup6\n    /* \"#utility.yul\":6417:6435   */\n  lt\n    /* \"#utility.yul\":6414:6463   */\n  iszero\n  tag_123\n  jumpi\n    /* \"#utility.yul\":6453:6461   */\n  dup2\n    /* \"#utility.yul\":6438:6461   */\n  swap1\n  pop\n    /* \"#utility.yul\":6414:6463   */\ntag_123:\n    /* \"#utility.yul\":6476:6556   */\n  tag_124\n    /* \"#utility.yul\":6532:6554   */\n  tag_125\n    /* \"#utility.yul\":6550:6553   */\n  dup6\n    /* \"#utility.yul\":6532:6554   */\n  tag_30\n  jump\t// in\ntag_125:\n    /* \"#utility.yul\":6522:6530   */\n  dup4\n    /* \"#utility.yul\":6518:6555   */\n  add\n    /* \"#utility.yul\":6505:6516   */\n  dup3\n    /* \"#utility.yul\":6476:6556   */\n  tag_40\n  jump\t// in\ntag_124:\n    /* \"#utility.yul\":6135:6566   */\n  pop\n  pop\n    /* \"#utility.yul\":6120:6566   */\ntag_120:\n    /* \"#utility.yul\":6030:6573   */\n  pop\n  pop\n  pop\n  jump\t// out\n    /* \"#utility.yul\":6579:6696   */\ntag_42:\n    /* \"#utility.yul\":6633:6641   */\n  0x00\n    /* \"#utility.yul\":6683:6688   */\n  dup3\n    /* \"#utility.yul\":6677:6681   */\n  dup3\n    /* \"#utility.yul\":6673:6689   */\n  shr\n    /* \"#utility.yul\":6652:6689   */\n  swap1\n  pop\n    /* \"#utility.yul\":6579:6696   */\n  swap3\n  swap2\n  pop\n  pop\n  jump\t// out\n    /* \"#utility.yul\":6702:6871   */\ntag_43:\n    /* \"#utility.yul\":6746:6752   */\n  0x00\n    /* \"#utility.yul\":6779:6830   */\n  tag_128\n    /* \"#utility.yul\":6827:6828   */\n  0x00\n    /* \"#utility.yul\":6823:6829   */\n  not\n    /* \"#utility.yul\":6815:6820   */\n  dup5\n    /* \"#utility.yul\":6812:6813   */\n  0x08\n    /* \"#utility.yul\":6808:6821   */\n  mul\n    /* \"#utility.yul\":6779:6830   */\n  tag_42\n  jump\t// in\ntag_128:\n    /* \"#utility.yul\":6775:6831   */\n  not\n    /* \"#utility.yul\":6860:6864   */\n  dup1\n    /* \"#utility.yul\":6854:6858   */\n  dup4\n    /* \"#utility.yul\":6850:6865   */\n  and\n    /* \"#utility.yul\":6840:6865   */\n  swap2\n  pop\n    /* \"#utility.yul\":6753:6871   */\n  pop\n    /* \"#utility.yul\":6702:6871   */\n  swap3\n  swap2\n  pop\n  pop\n  jump\t// out\n    /* \"#utility.yul\":6876:7171   */\ntag_44:\n    /* \"#utility.yul\":6952:6956   */\n  0x00\n    /* \"#utility.yul\":7098:7127   */\n  tag_130\n    /* \"#utility.yul\":7123:7126   */\n  dup4\n    /* \"#utility.yul\":7117:7121   */\n  dup4\n    /* \"#utility.yul\":7098:7127   */\n  tag_43\n  jump\t// in\ntag_130:\n    /* \"#utility.yul\":7090:7127   */\n  swap2\n  pop\n    /* \"#utility.yul\":7160:7163   */\n  dup3\n    /* \"#utility.yul\":7157:7158   */\n  0x02\n    /* \"#utility.yul\":7153:7164   */\n  mul\n    /* \"#utility.yul\":7147:7151   */\n  dup3\n    /* \"#utility.yul\":7144:7165   */\n  or\n    /* \"#utility.yul\":7136:7165   */\n  swap1\n  pop\n    /* \"#utility.yul\":6876:7171   */\n  swap3\n  swap2\n  pop\n  pop\n  jump\t// out\n    /* \"#utility.yul\":7176:8571   */\ntag_7:\n    /* \"#utility.yul\":7293:7330   */\n  tag_132\n    /* \"#utility.yul\":7326:7329   */\n  dup3\n    /* \"#utility.yul\":7293:7330   */\n  tag_26\n  jump\t// in\ntag_132:\n    /* \"#utility.yul\":7395:7413   */\n  0xffffffffffffffff\n    /* \"#utility.yul\":7387:7393   */\n  dup2\n    /* \"#utility.yul\":7384:7414   */\n  gt\n    /* \"#utility.yul\":7381:7437   */\n  iszero\n  tag_133\n  jumpi\n    /* \"#utility.yul\":7417:7435   */\n  tag_134\n  tag_19\n  jump\t// in\ntag_134:\n    /* \"#utility.yul\":7381:7437   */\ntag_133:\n    /* \"#utility.yul\":7461:7499   */\n  tag_135\n    /* \"#utility.yul\":7493:7497   */\n  dup3\n    /* \"#utility.yul\":7487:7498   */\n  sload\n    /* \"#utility.yul\":7461:7499   */\n  tag_28\n  jump\t// in\ntag_135:\n    /* \"#utility.yul\":7546:7613   */\n  tag_136\n    /* \"#utility.yul\":7606:7612   */\n  dup3\n    /* \"#utility.yul\":7598:7604   */\n  dup3\n    /* \"#utility.yul\":7592:7596   */\n  dup6\n    /* \"#utility.yul\":7546:7613   */\n  tag_41\n  jump\t// in\ntag_136:\n    /* \"#utility.yul\":7640:7641   */\n  0x00\n    /* \"#utility.yul\":7664:7668   */\n  0x20\n    /* \"#utility.yul\":7651:7668   */\n  swap1\n  pop\n    /* \"#utility.yul\":7696:7698   */\n  0x1f\n    /* \"#utility.yul\":7688:7694   */\n  dup4\n    /* \"#utility.yul\":7685:7699   */\n  gt\n    /* \"#utility.yul\":7713:7714   */\n  0x01\n    /* \"#utility.yul\":7708:8326   */\n  dup2\n  eq\n  tag_138\n  jumpi\n    /* \"#utility.yul\":8370:8371   */\n  0x00\n    /* \"#utility.yul\":8387:8393   */\n  dup5\n    /* \"#utility.yul\":8384:8461   */\n  iszero\n  tag_139\n  jumpi\n    /* \"#utility.yul\":8436:8445   */\n  dup3\n    /* \"#utility.yul\":8431:8434   */\n  dup8\n    /* \"#utility.yul\":8427:8446   */\n  add\n    /* \"#utility.yul\":8421:8447   */\n  mload\n    /* \"#utility.yul\":8412:8447   */\n  swap1\n  pop\n    /* \"#utility.yul\":8384:8461   */\ntag_139:\n    /* \"#utility.yul\":8487:8554   */\n  tag_140\n    /* \"#utility.yul\":8547:8553   */\n  dup6\n    /* \"#utility.yul\":8540:8545   */\n  dup3\n    /* \"#utility.yul\":8487:8554   */\n  tag_44\n  jump\t// in\ntag_140:\n    /* \"#utility.yul\":8481:8485   */\n  dup7\n    /* \"#utility.yul\":8474:8555   */\n  sstore\n    /* \"#utility.yul\":8343:8565   */\n  pop\n    /* \"#utility.yul\":7678:8565   */\n  jump(tag_137)\n    /* \"#utility.yul\":7708:8326   */\ntag_138:\n    /* \"#utility.yul\":7760:7764   */\n  0x1f\n    /* \"#utility.yul\":7756:7765   */\n  not\n    /* \"#utility.yul\":7748:7754   */\n  dup5\n    /* \"#utility.yul\":7744:7766   */\n  and\n    /* \"#utility.yul\":7794:7831   */\n  tag_141\n    /* \"#utility.yul\":7826:7830   */\n  dup7\n    /* \"#utility.yul\":7794:7831   */\n  tag_29\n  jump\t// in\ntag_141:\n    /* \"#utility.yul\":7853:7854   */\n  0x00\n    /* \"#utility.yul\":7867:8075   */\ntag_142:\n    /* \"#utility.yul\":7881:7888   */\n  dup3\n    /* \"#utility.yul\":7878:7879   */\n  dup2\n    /* \"#utility.yul\":7875:7889   */\n  lt\n    /* \"#utility.yul\":7867:8075   */\n  iszero\n  tag_144\n  jumpi\n    /* \"#utility.yul\":7960:7969   */\n  dup5\n    /* \"#utility.yul\":7955:7958   */\n  dup10\n    /* \"#utility.yul\":7951:7970   */\n  add\n    /* \"#utility.yul\":7945:7971   */\n  mload\n    /* \"#utility.yul\":7937:7943   */\n  dup3\n    /* \"#utility.yul\":7930:7972   */\n  sstore\n    /* \"#utility.yul\":8011:8012   */\n  0x01\n    /* \"#utility.yul\":8003:8009   */\n  dup3\n    /* \"#utility.yul\":7999:8013   */\n  add\n    /* \"#utility.yul\":7989:8013   */\n  swap2\n  pop\n    /* \"#utility.yul\":8058:8060   */\n  0x20\n    /* \"#utility.yul\":8047:8056   */\n  dup6\n    /* \"#utility.yul\":8043:8061   */\n  add\n    /* \"#utility.yul\":8030:8061   */\n  swap5\n  pop\n    /* \"#utility.yul\":7904:7908   */\n  0x20\n    /* \"#utility.yul\":7901:7902   */\n  dup2\n    /* \"#utility.yul\":7897:7909   */\n  add\n    /* \"#utility.yul\":7892:7909   */\n  swap1\n  pop\n    /* \"#utility.yul\":7867:8075   */\n  jump(tag_142)\ntag_144:\n    /* \"#utility.yul\":8103:8109   */\n  dup7\n    /* \"#utility.yul\":8094:8101   */\n  dup4\n    /* \"#utility.yul\":8091:8110   */\n  lt\n    /* \"#utility.yul\":8088:8267   */\n  iszero\n  tag_145\n  jumpi\n    /* \"#utility.yul\":8161:8170   */\n  dup5\n    /* \"#utility.yul\":8156:8159   */\n  dup10\n    /* \"#utility.yul\":8152:8171   */\n  add\n    /* \"#utility.yul\":8146:8172   */\n  mload\n    /* \"#utility.yul\":8204:8252   */\n  tag_146\n    /* \"#utility.yul\":8246:8250   */\n  0x1f\n    /* \"#utility.yul\":8238:8244   */\n  dup10\n    /* \"#utility.yul\":8234:8251   */\n  and\n    /* \"#utility.yul\":8223:8232   */\n  dup3\n    /* \"#utility.yul\":8204:8252   */\n  tag_43\n  jump\t// in\ntag_146:\n    /* \"#utility.yul\":8196:8202   */\n  dup4\n    /* \"#utility.yul\":8189:8253   */\n  sstore\n    /* \"#utility.yul\":8111:8267   */\n  pop\n    /* \"#utility.yul\":8088:8267   */\ntag_145:\n    /* \"#utility.yul\":8313:8314   */\n  0x01\n    /* \"#utility.yul\":8309:8310   */\n  0x02\n    /* \"#utility.yul\":8301:8307   */\n  dup9\n    /* \"#utility.yul\":8297:8311   */\n  mul\n    /* \"#utility.yul\":8293:8315   */\n  add\n    /* \"#utility.yul\":8287:8291   */\n  dup9\n    /* \"#utility.yul\":8280:8316   */\n  sstore\n    /* \"#utility.yul\":7715:8326   */\n  pop\n  pop\n  pop\n    /* \"#utility.yul\":7678:8565   */\ntag_137:\n  pop\n    /* \"#utility.yul\":7268:8571   */\n  pop\n  pop\n  pop\n    /* \"#utility.yul\":7176:8571   */\n  pop\n  pop\n  jump\t// out\n    /* \"#utility.yul\":8577:8757   */\ntag_11:\n    /* \"#utility.yul\":8625:8702   */\n  0x4e487b7100000000000000000000000000000000000000000000000000000000\n    /* \"#utility.yul\":8622:8623   */\n  0x00\n    /* \"#utility.yul\":8615:8703   */\n  mstore\n    /* \"#utility.yul\":8722:8726   */\n  0x21\n    /* \"#utility.yul\":8719:8720   */\n  0x04\n    /* \"#utility.yul\":8712:8727   */\n  mstore\n    /* \"#utility.yul\":8746:8750   */\n  0x24\n    /* \"#utility.yul\":8743:8744   */\n  0x00\n    /* \"#utility.yul\":8736:8751   */\n  revert\n    /* \"contracts/election2.sol\":64:2354  contract ElectionVoting {... */\ntag_12:\n  dataSize(sub_0)\n  dup1\n  dataOffset(sub_0)\n  0x00\n  codecopy\n  0x00\n  return\nstop\n\nsub_0: assembly {\n        /* \"contracts/election2.sol\":64:2354  contract ElectionVoting {... */\n      mstore(0x40, 0x80)\n      callvalue\n      dup1\n      iszero\n      tag_1\n      jumpi\n      0x00\n      dup1\n      revert\n    tag_1:\n      pop\n      jumpi(tag_2, lt(calldatasize, 0x04))\n      shr(0xe0, calldataload(0x00))\n      dup1\n      0xb765cb44\n      gt\n      tag_15\n      jumpi\n      dup1\n      0xb765cb44\n      eq\n      tag_9\n      jumpi\n      dup1\n      0xb9223946\n      eq\n      tag_10\n      jumpi\n      dup1\n      0xc19d93fb\n      eq\n      tag_11\n      jumpi\n      dup1\n      0xd9e95a98\n      eq\n      tag_12\n      jumpi\n      dup1\n      0xf1cea4c7\n      eq\n      tag_13\n      jumpi\n      dup1\n      0xf3a8286f\n      eq\n      tag_14\n      jumpi\n      jump(tag_2)\n    tag_15:\n      dup1\n      0x4c0a6af0\n      eq\n      tag_3\n      jumpi\n      dup1\n      0x6332abc9\n      eq\n      tag_4\n      jumpi\n      dup1\n      0x753ec103\n      eq\n      tag_5\n      jumpi\n      dup1\n      0x87caea78\n      eq\n      tag_6\n      jumpi\n      dup1\n      0xaab46b7f\n      eq\n      tag_7\n      jumpi\n      dup1\n      0xaf154087\n      eq\n      tag_8\n      jumpi\n    tag_2:\n      0x00\n      dup1\n      revert\n        /* \"contracts/election2.sol\":1529:1628  function startVote()public inState(State.Created) onlyOfficial{... */\n    tag_3:\n      tag_16\n      tag_17\n      jump\t// in\n    tag_16:\n      stop\n        /* \"contracts/election2.sol\":329:353  uint public totalVoter=0 */\n    tag_4:\n      tag_18\n      tag_19\n      jump\t// in\n    tag_18:\n      mload(0x40)\n      tag_20\n      swap2\n      swap1\n      tag_21\n      jump\t// in\n    tag_20:\n      mload(0x40)\n      dup1\n      swap2\n      sub\n      swap1\n      return\n        /* \"contracts/election2.sol\":475:497  string public proposal */\n    tag_5:\n      tag_22\n      tag_23\n      jump\t// in\n    tag_22:\n      mload(0x40)\n      tag_24\n      swap2\n      swap1\n      tag_25\n      jump\t// in\n    tag_24:\n      mload(0x40)\n      dup1\n      swap2\n      sub\n      swap1\n      return\n        /* \"contracts/election2.sol\":1634:2216  function doVote(bool _choice)public inState(State.Voting) onlyOfficial returns(bool voted){... */\n    tag_6:\n      tag_26\n      0x04\n      dup1\n      calldatasize\n      sub\n      dup2\n      add\n      swap1\n      tag_27\n      swap2\n      swap1\n      tag_28\n      jump\t// in\n    tag_27:\n      tag_29\n      jump\t// in\n    tag_26:\n      mload(0x40)\n      tag_30\n      swap2\n      swap1\n      tag_31\n      jump\t// in\n    tag_30:\n      mload(0x40)\n      dup1\n      swap2\n      sub\n      swap1\n      return\n        /* \"contracts/election2.sol\":392:425  address public electionCommission */\n    tag_7:\n      tag_32\n      tag_33\n      jump\t// in\n    tag_32:\n      mload(0x40)\n      tag_34\n      swap2\n      swap1\n      tag_35\n      jump\t// in\n    tag_34:\n      mload(0x40)\n      dup1\n      swap2\n      sub\n      swap1\n      return\n        /* \"contracts/election2.sol\":547:592  mapping (address=>voter) public voterRegister */\n    tag_8:\n      tag_36\n      0x04\n      dup1\n      calldatasize\n      sub\n      dup2\n      add\n      swap1\n      tag_37\n      swap2\n      swap1\n      tag_38\n      jump\t// in\n    tag_37:\n      tag_39\n      jump\t// in\n    tag_36:\n      mload(0x40)\n      tag_40\n      swap3\n      swap2\n      swap1\n      tag_41\n      jump\t// in\n    tag_40:\n      mload(0x40)\n      dup1\n      swap2\n      sub\n      swap1\n      return\n        /* \"contracts/election2.sol\":432:468  string public electionCommissionName */\n    tag_9:\n      tag_42\n      tag_43\n      jump\t// in\n    tag_42:\n      mload(0x40)\n      tag_44\n      swap2\n      swap1\n      tag_25\n      jump\t// in\n    tag_44:\n      mload(0x40)\n      dup1\n      swap2\n      sub\n      swap1\n      return\n        /* \"contracts/election2.sol\":2222:2351  function endVote()public inState(State.Voting) onlyOfficial{... */\n    tag_10:\n      tag_45\n      tag_46\n      jump\t// in\n    tag_45:\n      stop\n        /* \"contracts/election2.sol\":641:659  State public state */\n    tag_11:\n      tag_47\n      tag_48\n      jump\t// in\n    tag_47:\n      mload(0x40)\n      tag_49\n      swap2\n      swap1\n      tag_50\n      jump\t// in\n    tag_49:\n      mload(0x40)\n      dup1\n      swap2\n      sub\n      swap1\n      return\n        /* \"contracts/election2.sol\":1262:1523  function addVoter(address _voterAddress,string memory _voterName)public inState(State.Created) onlyOfficial{... */\n    tag_12:\n      tag_51\n      0x04\n      dup1\n      calldatasize\n      sub\n      dup2\n      add\n      swap1\n      tag_52\n      swap2\n      swap1\n      tag_53\n      jump\t// in\n    tag_52:\n      tag_54\n      jump\t// in\n    tag_51:\n      stop\n        /* \"contracts/election2.sol\":360:383  uint public totalVote=0 */\n    tag_13:\n      tag_55\n      tag_56\n      jump\t// in\n    tag_55:\n      mload(0x40)\n      tag_57\n      swap2\n      swap1\n      tag_21\n      jump\t// in\n    tag_57:\n      mload(0x40)\n      dup1\n      swap2\n      sub\n      swap1\n      return\n        /* \"contracts/election2.sol\":297:322  uint public finalResult=0 */\n    tag_14:\n      tag_58\n      tag_59\n      jump\t// in\n    tag_58:\n      mload(0x40)\n      tag_60\n      swap2\n      swap1\n      tag_21\n      jump\t// in\n    tag_60:\n      mload(0x40)\n      dup1\n      swap2\n      sub\n      swap1\n      return\n        /* \"contracts/election2.sol\":1529:1628  function startVote()public inState(State.Created) onlyOfficial{... */\n    tag_17:\n        /* \"contracts/election2.sol\":1564:1577  State.Created */\n      0x00\n        /* \"contracts/election2.sol\":934:940  _state */\n      dup1\n        /* \"contracts/election2.sol\":927:940  state==_state */\n      0x02\n      dup2\n      gt\n      iszero\n      tag_62\n      jumpi\n      tag_63\n      tag_64\n      jump\t// in\n    tag_63:\n    tag_62:\n        /* \"contracts/election2.sol\":927:932  state */\n      0x09\n      0x00\n      swap1\n      sload\n      swap1\n      0x0100\n      exp\n      swap1\n      div\n      0xff\n      and\n        /* \"contracts/election2.sol\":927:940  state==_state */\n      0x02\n      dup2\n      gt\n      iszero\n      tag_65\n      jumpi\n      tag_66\n      tag_64\n      jump\t// in\n    tag_66:\n    tag_65:\n      eq\n        /* \"contracts/election2.sol\":919:941  require(state==_state) */\n      tag_67\n      jumpi\n      0x00\n      dup1\n      revert\n    tag_67:\n        /* \"contracts/election2.sol\":833:851  electionCommission */\n      0x04\n      0x00\n      swap1\n      sload\n      swap1\n      0x0100\n      exp\n      swap1\n      div\n      0xffffffffffffffffffffffffffffffffffffffff\n      and\n        /* \"contracts/election2.sol\":821:851  msg.sender==electionCommission */\n      0xffffffffffffffffffffffffffffffffffffffff\n      and\n        /* \"contracts/election2.sol\":821:831  msg.sender */\n      caller\n        /* \"contracts/election2.sol\":821:851  msg.sender==electionCommission */\n      0xffffffffffffffffffffffffffffffffffffffff\n      and\n      eq\n        /* \"contracts/election2.sol\":813:852  require(msg.sender==electionCommission) */\n      tag_69\n      jumpi\n      0x00\n      dup1\n      revert\n    tag_69:\n        /* \"contracts/election2.sol\":1608:1620  State.Voting */\n      0x01\n        /* \"contracts/election2.sol\":1602:1607  state */\n      0x09\n      0x00\n        /* \"contracts/election2.sol\":1602:1620  state=State.Voting */\n      0x0100\n      exp\n      dup2\n      sload\n      dup2\n      0xff\n      mul\n      not\n      and\n      swap1\n      dup4\n      0x02\n      dup2\n      gt\n      iszero\n      tag_71\n      jumpi\n      tag_72\n      tag_64\n      jump\t// in\n    tag_72:\n    tag_71:\n      mul\n      or\n      swap1\n      sstore\n      pop\n        /* \"contracts/election2.sol\":1529:1628  function startVote()public inState(State.Created) onlyOfficial{... */\n      pop\n      jump\t// out\n        /* \"contracts/election2.sol\":329:353  uint public totalVoter=0 */\n    tag_19:\n      sload(0x02)\n      dup2\n      jump\t// out\n        /* \"contracts/election2.sol\":475:497  string public proposal */\n    tag_23:\n      0x06\n      dup1\n      sload\n      tag_73\n      swap1\n      tag_74\n      jump\t// in\n    tag_73:\n      dup1\n      0x1f\n      add\n      0x20\n      dup1\n      swap2\n      div\n      mul\n      0x20\n      add\n      mload(0x40)\n      swap1\n      dup2\n      add\n      0x40\n      mstore\n      dup1\n      swap3\n      swap2\n      swap1\n      dup2\n      dup2\n      mstore\n      0x20\n      add\n      dup3\n      dup1\n      sload\n      tag_75\n      swap1\n      tag_74\n      jump\t// in\n    tag_75:\n      dup1\n      iszero\n      tag_76\n      jumpi\n      dup1\n      0x1f\n      lt\n      tag_77\n      jumpi\n      0x0100\n      dup1\n      dup4\n      sload\n      div\n      mul\n      dup4\n      mstore\n      swap2\n      0x20\n      add\n      swap2\n      jump(tag_76)\n    tag_77:\n      dup3\n      add\n      swap2\n      swap1\n      0x00\n      mstore\n      keccak256(0x00, 0x20)\n      swap1\n    tag_78:\n      dup2\n      sload\n      dup2\n      mstore\n      swap1\n      0x01\n      add\n      swap1\n      0x20\n      add\n      dup1\n      dup4\n      gt\n      tag_78\n      jumpi\n      dup3\n      swap1\n      sub\n      0x1f\n      and\n      dup3\n      add\n      swap2\n    tag_76:\n      pop\n      pop\n      pop\n      pop\n      pop\n      dup2\n      jump\t// out\n        /* \"contracts/election2.sol\":1634:2216  function doVote(bool _choice)public inState(State.Voting) onlyOfficial returns(bool voted){... */\n    tag_29:\n        /* \"contracts/election2.sol\":1713:1723  bool voted */\n      0x00\n        /* \"contracts/election2.sol\":1678:1690  State.Voting */\n      0x01\n        /* \"contracts/election2.sol\":934:940  _state */\n      dup1\n        /* \"contracts/election2.sol\":927:940  state==_state */\n      0x02\n      dup2\n      gt\n      iszero\n      tag_80\n      jumpi\n      tag_81\n      tag_64\n      jump\t// in\n    tag_81:\n    tag_80:\n        /* \"contracts/election2.sol\":927:932  state */\n      0x09\n      0x00\n      swap1\n      sload\n      swap1\n      0x0100\n      exp\n      swap1\n      div\n      0xff\n      and\n        /* \"contracts/election2.sol\":927:940  state==_state */\n      0x02\n      dup2\n      gt\n      iszero\n      tag_82\n      jumpi\n      tag_83\n      tag_64\n      jump\t// in\n    tag_83:\n    tag_82:\n      eq\n        /* \"contracts/election2.sol\":919:941  require(state==_state) */\n      tag_84\n      jumpi\n      0x00\n      dup1\n      revert\n    tag_84:\n        /* \"contracts/election2.sol\":833:851  electionCommission */\n      0x04\n      0x00\n      swap1\n      sload\n      swap1\n      0x0100\n      exp\n      swap1\n      div\n      0xffffffffffffffffffffffffffffffffffffffff\n      and\n        /* \"contracts/election2.sol\":821:851  msg.sender==electionCommission */\n      0xffffffffffffffffffffffffffffffffffffffff\n      and\n        /* \"contracts/election2.sol\":821:831  msg.sender */\n      caller\n        /* \"contracts/election2.sol\":821:851  msg.sender==electionCommission */\n      0xffffffffffffffffffffffffffffffffffffffff\n      and\n      eq\n        /* \"contracts/election2.sol\":813:852  require(msg.sender==electionCommission) */\n      tag_86\n      jumpi\n      0x00\n      dup1\n      revert\n    tag_86:\n        /* \"contracts/election2.sol\":1735:1747  bool isFound */\n      0x00\n        /* \"contracts/election2.sol\":1819:1820  0 */\n      dup1\n        /* \"contracts/election2.sol\":1773:1786  voterRegister */\n      0x08\n        /* \"contracts/election2.sol\":1773:1798  voterRegister[msg.sender] */\n      0x00\n        /* \"contracts/election2.sol\":1787:1797  msg.sender */\n      caller\n        /* \"contracts/election2.sol\":1773:1798  voterRegister[msg.sender] */\n      0xffffffffffffffffffffffffffffffffffffffff\n      and\n      0xffffffffffffffffffffffffffffffffffffffff\n      and\n      dup2\n      mstore\n      0x20\n      add\n      swap1\n      dup2\n      mstore\n      0x20\n      add\n      0x00\n      keccak256\n        /* \"contracts/election2.sol\":1773:1808  voterRegister[msg.sender].voterName */\n      0x00\n      add\n        /* \"contracts/election2.sol\":1767:1816  bytes(voterRegister[msg.sender].voterName).length */\n      dup1\n      sload\n      tag_88\n      swap1\n      tag_74\n      jump\t// in\n    tag_88:\n      swap1\n      pop\n        /* \"contracts/election2.sol\":1767:1820  bytes(voterRegister[msg.sender].voterName).length !=0 */\n      eq\n      iszero\n        /* \"contracts/election2.sol\":1767:1861  bytes(voterRegister[msg.sender].voterName).length !=0&& voterRegister[msg.sender].voted==false */\n      dup1\n      iszero\n      tag_89\n      jumpi\n      pop\n        /* \"contracts/election2.sol\":1856:1861  false */\n      0x00\n        /* \"contracts/election2.sol\":1823:1861  voterRegister[msg.sender].voted==false */\n      iszero\n      iszero\n        /* \"contracts/election2.sol\":1823:1836  voterRegister */\n      0x08\n        /* \"contracts/election2.sol\":1823:1848  voterRegister[msg.sender] */\n      0x00\n        /* \"contracts/election2.sol\":1837:1847  msg.sender */\n      caller\n        /* \"contracts/election2.sol\":1823:1848  voterRegister[msg.sender] */\n      0xffffffffffffffffffffffffffffffffffffffff\n      and\n      0xffffffffffffffffffffffffffffffffffffffff\n      and\n      dup2\n      mstore\n      0x20\n      add\n      swap1\n      dup2\n      mstore\n      0x20\n      add\n      0x00\n      keccak256\n        /* \"contracts/election2.sol\":1823:1854  voterRegister[msg.sender].voted */\n      0x01\n      add\n      0x00\n      swap1\n      sload\n      swap1\n      0x0100\n      exp\n      swap1\n      div\n      0xff\n      and\n        /* \"contracts/election2.sol\":1823:1861  voterRegister[msg.sender].voted==false */\n      iszero\n      iszero\n      eq\n        /* \"contracts/election2.sol\":1767:1861  bytes(voterRegister[msg.sender].voterName).length !=0&& voterRegister[msg.sender].voted==false */\n    tag_89:\n        /* \"contracts/election2.sol\":1764:2184  if(bytes(voterRegister[msg.sender].voterName).length !=0&& voterRegister[msg.sender].voted==false){... */\n      iszero\n      tag_90\n      jumpi\n        /* \"contracts/election2.sol\":1909:1913  true */\n      0x01\n        /* \"contracts/election2.sol\":1877:1890  voterRegister */\n      0x08\n        /* \"contracts/election2.sol\":1877:1902  voterRegister[msg.sender] */\n      0x00\n        /* \"contracts/election2.sol\":1891:1901  msg.sender */\n      caller\n        /* \"contracts/election2.sol\":1877:1902  voterRegister[msg.sender] */\n      0xffffffffffffffffffffffffffffffffffffffff\n      and\n      0xffffffffffffffffffffffffffffffffffffffff\n      and\n      dup2\n      mstore\n      0x20\n      add\n      swap1\n      dup2\n      mstore\n      0x20\n      add\n      0x00\n      keccak256\n        /* \"contracts/election2.sol\":1877:1908  voterRegister[msg.sender].voted */\n      0x01\n      add\n      0x00\n        /* \"contracts/election2.sol\":1877:1913  voterRegister[msg.sender].voted=true */\n      0x0100\n      exp\n      dup2\n      sload\n      dup2\n      0xff\n      mul\n      not\n      and\n      swap1\n      dup4\n      iszero\n      iszero\n      mul\n      or\n      swap1\n      sstore\n      pop\n        /* \"contracts/election2.sol\":1928:1941  vote memory v */\n      tag_91\n      tag_92\n      jump\t// in\n    tag_91:\n        /* \"contracts/election2.sol\":1971:1981  msg.sender */\n      caller\n        /* \"contracts/election2.sol\":1956:1957  v */\n      dup2\n        /* \"contracts/election2.sol\":1956:1970  v.voterAddress */\n      0x00\n      add\n        /* \"contracts/election2.sol\":1956:1981  v.voterAddress=msg.sender */\n      swap1\n      0xffffffffffffffffffffffffffffffffffffffff\n      and\n      swap1\n      dup2\n      0xffffffffffffffffffffffffffffffffffffffff\n      and\n      dup2\n      mstore\n      pop\n      pop\n        /* \"contracts/election2.sol\":2005:2012  _choice */\n      dup5\n        /* \"contracts/election2.sol\":1996:1997  v */\n      dup2\n        /* \"contracts/election2.sol\":1996:2004  v.choice */\n      0x20\n      add\n        /* \"contracts/election2.sol\":1996:2012  v.choice=_choice */\n      swap1\n      iszero\n      iszero\n      swap1\n      dup2\n      iszero\n      iszero\n      dup2\n      mstore\n      pop\n      pop\n        /* \"contracts/election2.sol\":2030:2037  _choice */\n      dup5\n        /* \"contracts/election2.sol\":2027:2086  if(_choice){... */\n      iszero\n      tag_93\n      jumpi\n        /* \"contracts/election2.sol\":2057:2068  countResult */\n      0x00\n      dup1\n        /* \"contracts/election2.sol\":2057:2070  countResult++ */\n      dup2\n      sload\n      dup1\n      swap3\n      swap2\n      swap1\n      tag_94\n      swap1\n      tag_95\n      jump\t// in\n    tag_94:\n      swap2\n      swap1\n      pop\n      sstore\n      pop\n        /* \"contracts/election2.sol\":2027:2086  if(_choice){... */\n    tag_93:\n        /* \"contracts/election2.sol\":2118:2119  v */\n      dup1\n        /* \"contracts/election2.sol\":2100:2105  votes */\n      0x07\n        /* \"contracts/election2.sol\":2100:2117  votes[totalVoter] */\n      0x00\n        /* \"contracts/election2.sol\":2106:2116  totalVoter */\n      sload(0x02)\n        /* \"contracts/election2.sol\":2100:2117  votes[totalVoter] */\n      dup2\n      mstore\n      0x20\n      add\n      swap1\n      dup2\n      mstore\n      0x20\n      add\n      0x00\n      keccak256\n        /* \"contracts/election2.sol\":2100:2119  votes[totalVoter]=v */\n      0x00\n      dup3\n      add\n      mload\n      dup2\n      0x00\n      add\n      exp(0x0100, 0x00)\n      dup2\n      sload\n      dup2\n      0xffffffffffffffffffffffffffffffffffffffff\n      mul\n      not\n      and\n      swap1\n      dup4\n      0xffffffffffffffffffffffffffffffffffffffff\n      and\n      mul\n      or\n      swap1\n      sstore\n      pop\n      0x20\n      dup3\n      add\n      mload\n      dup2\n      0x00\n      add\n      exp(0x0100, 0x14)\n      dup2\n      sload\n      dup2\n      0xff\n      mul\n      not\n      and\n      swap1\n      dup4\n      iszero\n      iszero\n      mul\n      or\n      swap1\n      sstore\n      pop\n      swap1\n      pop\n      pop\n        /* \"contracts/election2.sol\":2134:2143  totalVote */\n      0x03\n      0x00\n        /* \"contracts/election2.sol\":2134:2145  totalVote++ */\n      dup2\n      sload\n      dup1\n      swap3\n      swap2\n      swap1\n      tag_96\n      swap1\n      tag_95\n      jump\t// in\n    tag_96:\n      swap2\n      swap1\n      pop\n      sstore\n      pop\n        /* \"contracts/election2.sol\":2168:2172  true */\n      0x01\n        /* \"contracts/election2.sol\":2160:2172  isFound=true */\n      swap2\n      pop\n        /* \"contracts/election2.sol\":1862:2184  {... */\n      pop\n        /* \"contracts/election2.sol\":1764:2184  if(bytes(voterRegister[msg.sender].voterName).length !=0&& voterRegister[msg.sender].voted==false){... */\n    tag_90:\n        /* \"contracts/election2.sol\":2201:2208  isFound */\n      dup1\n        /* \"contracts/election2.sol\":2194:2208  return isFound */\n      swap3\n      pop\n      pop\n        /* \"contracts/election2.sol\":1634:2216  function doVote(bool _choice)public inState(State.Voting) onlyOfficial returns(bool voted){... */\n      pop\n      swap2\n      swap1\n      pop\n      jump\t// out\n        /* \"contracts/election2.sol\":392:425  address public electionCommission */\n    tag_33:\n      0x04\n      0x00\n      swap1\n      sload\n      swap1\n      0x0100\n      exp\n      swap1\n      div\n      0xffffffffffffffffffffffffffffffffffffffff\n      and\n      dup2\n      jump\t// out\n        /* \"contracts/election2.sol\":547:592  mapping (address=>voter) public voterRegister */\n    tag_39:\n      mstore(0x20, 0x08)\n      dup1\n      0x00\n      mstore\n      keccak256(0x00, 0x40)\n      0x00\n      swap2\n      pop\n      swap1\n      pop\n      dup1\n      0x00\n      add\n      dup1\n      sload\n      tag_97\n      swap1\n      tag_74\n      jump\t// in\n    tag_97:\n      dup1\n      0x1f\n      add\n      0x20\n      dup1\n      swap2\n      div\n      mul\n      0x20\n      add\n      mload(0x40)\n      swap1\n      dup2\n      add\n      0x40\n      mstore\n      dup1\n      swap3\n      swap2\n      swap1\n      dup2\n      dup2\n      mstore\n      0x20\n      add\n      dup3\n      dup1\n      sload\n      tag_98\n      swap1\n      tag_74\n      jump\t// in\n    tag_98:\n      dup1\n      iszero\n      tag_99\n      jumpi\n      dup1\n      0x1f\n      lt\n      tag_100\n      jumpi\n      0x0100\n      dup1\n      dup4\n      sload\n      div\n      mul\n      dup4\n      mstore\n      swap2\n      0x20\n      add\n      swap2\n      jump(tag_99)\n    tag_100:\n      dup3\n      add\n      swap2\n      swap1\n      0x00\n      mstore\n      keccak256(0x00, 0x20)\n      swap1\n    tag_101:\n      dup2\n      sload\n      dup2\n      mstore\n      swap1\n      0x01\n      add\n      swap1\n      0x20\n      add\n      dup1\n      dup4\n      gt\n      tag_101\n      jumpi\n      dup3\n      swap1\n      sub\n      0x1f\n      and\n      dup3\n      add\n      swap2\n    tag_99:\n      pop\n      pop\n      pop\n      pop\n      pop\n      swap1\n      dup1\n      0x01\n      add\n      0x00\n      swap1\n      sload\n      swap1\n      0x0100\n      exp\n      swap1\n      div\n      0xff\n      and\n      swap1\n      pop\n      dup3\n      jump\t// out\n        /* \"contracts/election2.sol\":432:468  string public electionCommissionName */\n    tag_43:\n      0x05\n      dup1\n      sload\n      tag_102\n      swap1\n      tag_74\n      jump\t// in\n    tag_102:\n      dup1\n      0x1f\n      add\n      0x20\n      dup1\n      swap2\n      div\n      mul\n      0x20\n      add\n      mload(0x40)\n      swap1\n      dup2\n      add\n      0x40\n      mstore\n      dup1\n      swap3\n      swap2\n      swap1\n      dup2\n      dup2\n      mstore\n      0x20\n      add\n      dup3\n      dup1\n      sload\n      tag_103\n      swap1\n      tag_74\n      jump\t// in\n    tag_103:\n      dup1\n      iszero\n      tag_104\n      jumpi\n      dup1\n      0x1f\n      lt\n      tag_105\n      jumpi\n      0x0100\n      dup1\n      dup4\n      sload\n      div\n      mul\n      dup4\n      mstore\n      swap2\n      0x20\n      add\n      swap2\n      jump(tag_104)\n    tag_105:\n      dup3\n      add\n      swap2\n      swap1\n      0x00\n      mstore\n      keccak256(0x00, 0x20)\n      swap1\n    tag_106:\n      dup2\n      sload\n      dup2\n      mstore\n      swap1\n      0x01\n      add\n      swap1\n      0x20\n      add\n      dup1\n      dup4\n      gt\n      tag_106\n      jumpi\n      dup3\n      swap1\n      sub\n      0x1f\n      and\n      dup3\n      add\n      swap2\n    tag_104:\n      pop\n      pop\n      pop\n      pop\n      pop\n      dup2\n      jump\t// out\n        /* \"contracts/election2.sol\":2222:2351  function endVote()public inState(State.Voting) onlyOfficial{... */\n    tag_46:\n        /* \"contracts/election2.sol\":2255:2267  State.Voting */\n      0x01\n        /* \"contracts/election2.sol\":934:940  _state */\n      dup1\n        /* \"contracts/election2.sol\":927:940  state==_state */\n      0x02\n      dup2\n      gt\n      iszero\n      tag_108\n      jumpi\n      tag_109\n      tag_64\n      jump\t// in\n    tag_109:\n    tag_108:\n        /* \"contracts/election2.sol\":927:932  state */\n      0x09\n      0x00\n      swap1\n      sload\n      swap1\n      0x0100\n      exp\n      swap1\n      div\n      0xff\n      and\n        /* \"contracts/election2.sol\":927:940  state==_state */\n      0x02\n      dup2\n      gt\n      iszero\n      tag_110\n      jumpi\n      tag_111\n      tag_64\n      jump\t// in\n    tag_111:\n    tag_110:\n      eq\n        /* \"contracts/election2.sol\":919:941  require(state==_state) */\n      tag_112\n      jumpi\n      0x00\n      dup1\n      revert\n    tag_112:\n        /* \"contracts/election2.sol\":833:851  electionCommission */\n      0x04\n      0x00\n      swap1\n      sload\n      swap1\n      0x0100\n      exp\n      swap1\n      div\n      0xffffffffffffffffffffffffffffffffffffffff\n      and\n        /* \"contracts/election2.sol\":821:851  msg.sender==electionCommission */\n      0xffffffffffffffffffffffffffffffffffffffff\n      and\n        /* \"contracts/election2.sol\":821:831  msg.sender */\n      caller\n        /* \"contracts/election2.sol\":821:851  msg.sender==electionCommission */\n      0xffffffffffffffffffffffffffffffffffffffff\n      and\n      eq\n        /* \"contracts/election2.sol\":813:852  require(msg.sender==electionCommission) */\n      tag_114\n      jumpi\n      0x00\n      dup1\n      revert\n    tag_114:\n        /* \"contracts/election2.sol\":2298:2309  State.ended */\n      0x02\n        /* \"contracts/election2.sol\":2292:2297  state */\n      0x09\n      0x00\n        /* \"contracts/election2.sol\":2292:2309  state=State.ended */\n      0x0100\n      exp\n      dup2\n      sload\n      dup2\n      0xff\n      mul\n      not\n      and\n      swap1\n      dup4\n      0x02\n      dup2\n      gt\n      iszero\n      tag_116\n      jumpi\n      tag_117\n      tag_64\n      jump\t// in\n    tag_117:\n    tag_116:\n      mul\n      or\n      swap1\n      sstore\n      pop\n        /* \"contracts/election2.sol\":2332:2343  countResult */\n      sload(0x00)\n        /* \"contracts/election2.sol\":2320:2331  finalResult */\n      0x01\n        /* \"contracts/election2.sol\":2320:2343  finalResult=countResult */\n      dup2\n      swap1\n      sstore\n      pop\n        /* \"contracts/election2.sol\":2222:2351  function endVote()public inState(State.Voting) onlyOfficial{... */\n      pop\n      jump\t// out\n        /* \"contracts/election2.sol\":641:659  State public state */\n    tag_48:\n      0x09\n      0x00\n      swap1\n      sload\n      swap1\n      0x0100\n      exp\n      swap1\n      div\n      0xff\n      and\n      dup2\n      jump\t// out\n        /* \"contracts/election2.sol\":1262:1523  function addVoter(address _voterAddress,string memory _voterName)public inState(State.Created) onlyOfficial{... */\n    tag_54:\n        /* \"contracts/election2.sol\":1342:1355  State.Created */\n      0x00\n        /* \"contracts/election2.sol\":934:940  _state */\n      dup1\n        /* \"contracts/election2.sol\":927:940  state==_state */\n      0x02\n      dup2\n      gt\n      iszero\n      tag_119\n      jumpi\n      tag_120\n      tag_64\n      jump\t// in\n    tag_120:\n    tag_119:\n        /* \"contracts/election2.sol\":927:932  state */\n      0x09\n      0x00\n      swap1\n      sload\n      swap1\n      0x0100\n      exp\n      swap1\n      div\n      0xff\n      and\n        /* \"contracts/election2.sol\":927:940  state==_state */\n      0x02\n      dup2\n      gt\n      iszero\n      tag_121\n      jumpi\n      tag_122\n      tag_64\n      jump\t// in\n    tag_122:\n    tag_121:\n      eq\n        /* \"contracts/election2.sol\":919:941  require(state==_state) */\n      tag_123\n      jumpi\n      0x00\n      dup1\n      revert\n    tag_123:\n        /* \"contracts/election2.sol\":833:851  electionCommission */\n      0x04\n      0x00\n      swap1\n      sload\n      swap1\n      0x0100\n      exp\n      swap1\n      div\n      0xffffffffffffffffffffffffffffffffffffffff\n      and\n        /* \"contracts/election2.sol\":821:851  msg.sender==electionCommission */\n      0xffffffffffffffffffffffffffffffffffffffff\n      and\n        /* \"contracts/election2.sol\":821:831  msg.sender */\n      caller\n        /* \"contracts/election2.sol\":821:851  msg.sender==electionCommission */\n      0xffffffffffffffffffffffffffffffffffffffff\n      and\n      eq\n        /* \"contracts/election2.sol\":813:852  require(msg.sender==electionCommission) */\n      tag_125\n      jumpi\n      0x00\n      dup1\n      revert\n    tag_125:\n        /* \"contracts/election2.sol\":1380:1394  voter memory v */\n      tag_127\n      tag_128\n      jump\t// in\n    tag_127:\n        /* \"contracts/election2.sol\":1417:1427  _voterName */\n      dup3\n        /* \"contracts/election2.sol\":1405:1406  v */\n      dup2\n        /* \"contracts/election2.sol\":1405:1416  v.voterName */\n      0x00\n      add\n        /* \"contracts/election2.sol\":1405:1427  v.voterName=_voterName */\n      dup2\n      swap1\n      mstore\n      pop\n        /* \"contracts/election2.sol\":1446:1451  false */\n      0x00\n        /* \"contracts/election2.sol\":1438:1439  v */\n      dup2\n        /* \"contracts/election2.sol\":1438:1445  v.voted */\n      0x20\n      add\n        /* \"contracts/election2.sol\":1438:1451  v.voted=false */\n      swap1\n      iszero\n      iszero\n      swap1\n      dup2\n      iszero\n      iszero\n      dup2\n      mstore\n      pop\n      pop\n        /* \"contracts/election2.sol\":1491:1492  v */\n      dup1\n        /* \"contracts/election2.sol\":1462:1475  voterRegister */\n      0x08\n        /* \"contracts/election2.sol\":1462:1490  voterRegister[_voterAddress] */\n      0x00\n        /* \"contracts/election2.sol\":1476:1489  _voterAddress */\n      dup7\n        /* \"contracts/election2.sol\":1462:1490  voterRegister[_voterAddress] */\n      0xffffffffffffffffffffffffffffffffffffffff\n      and\n      0xffffffffffffffffffffffffffffffffffffffff\n      and\n      dup2\n      mstore\n      0x20\n      add\n      swap1\n      dup2\n      mstore\n      0x20\n      add\n      0x00\n      keccak256\n        /* \"contracts/election2.sol\":1462:1492  voterRegister[_voterAddress]=v */\n      0x00\n      dup3\n      add\n      mload\n      dup2\n      0x00\n      add\n      swap1\n      dup2\n      tag_129\n      swap2\n      swap1\n      tag_130\n      jump\t// in\n    tag_129:\n      pop\n      0x20\n      dup3\n      add\n      mload\n      dup2\n      0x01\n      add\n      exp(0x0100, 0x00)\n      dup2\n      sload\n      dup2\n      0xff\n      mul\n      not\n      and\n      swap1\n      dup4\n      iszero\n      iszero\n      mul\n      or\n      swap1\n      sstore\n      pop\n      swap1\n      pop\n      pop\n        /* \"contracts/election2.sol\":1503:1513  totalVoter */\n      0x02\n      0x00\n        /* \"contracts/election2.sol\":1503:1515  totalVoter++ */\n      dup2\n      sload\n      dup1\n      swap3\n      swap2\n      swap1\n      tag_131\n      swap1\n      tag_95\n      jump\t// in\n    tag_131:\n      swap2\n      swap1\n      pop\n      sstore\n      pop\n        /* \"contracts/election2.sol\":1369:1523  {... */\n      pop\n        /* \"contracts/election2.sol\":1262:1523  function addVoter(address _voterAddress,string memory _voterName)public inState(State.Created) onlyOfficial{... */\n      pop\n      pop\n      pop\n      jump\t// out\n        /* \"contracts/election2.sol\":360:383  uint public totalVote=0 */\n    tag_56:\n      sload(0x03)\n      dup2\n      jump\t// out\n        /* \"contracts/election2.sol\":297:322  uint public finalResult=0 */\n    tag_59:\n      sload(0x01)\n      dup2\n      jump\t// out\n    tag_92:\n      mload(0x40)\n      dup1\n      0x40\n      add\n      0x40\n      mstore\n      dup1\n      and(0xffffffffffffffffffffffffffffffffffffffff, 0x00)\n      dup2\n      mstore\n      0x20\n      add\n      iszero(iszero(0x00))\n      dup2\n      mstore\n      pop\n      swap1\n      jump\t// out\n    tag_128:\n      mload(0x40)\n      dup1\n      0x40\n      add\n      0x40\n      mstore\n      dup1\n      0x60\n      dup2\n      mstore\n      0x20\n      add\n      iszero(iszero(0x00))\n      dup2\n      mstore\n      pop\n      swap1\n      jump\t// out\n        /* \"#utility.yul\":7:84   */\n    tag_132:\n        /* \"#utility.yul\":44:51   */\n      0x00\n        /* \"#utility.yul\":73:78   */\n      dup2\n        /* \"#utility.yul\":62:78   */\n      swap1\n      pop\n        /* \"#utility.yul\":7:84   */\n      swap2\n      swap1\n      pop\n      jump\t// out\n        /* \"#utility.yul\":90:208   */\n    tag_133:\n        /* \"#utility.yul\":177:201   */\n      tag_184\n        /* \"#utility.yul\":195:200   */\n      dup2\n        /* \"#utility.yul\":177:201   */\n      tag_132\n      jump\t// in\n    tag_184:\n        /* \"#utility.yul\":172:175   */\n      dup3\n        /* \"#utility.yul\":165:202   */\n      mstore\n        /* \"#utility.yul\":90:208   */\n      pop\n      pop\n      jump\t// out\n        /* \"#utility.yul\":214:436   */\n    tag_21:\n        /* \"#utility.yul\":307:311   */\n      0x00\n        /* \"#utility.yul\":345:347   */\n      0x20\n        /* \"#utility.yul\":334:343   */\n      dup3\n        /* \"#utility.yul\":330:348   */\n      add\n        /* \"#utility.yul\":322:348   */\n      swap1\n      pop\n        /* \"#utility.yul\":358:429   */\n      tag_186\n        /* \"#utility.yul\":426:427   */\n      0x00\n        /* \"#utility.yul\":415:424   */\n      dup4\n        /* \"#utility.yul\":411:428   */\n      add\n        /* \"#utility.yul\":402:408   */\n      dup5\n        /* \"#utility.yul\":358:429   */\n      tag_133\n      jump\t// in\n    tag_186:\n        /* \"#utility.yul\":214:436   */\n      swap3\n      swap2\n      pop\n      pop\n      jump\t// out\n        /* \"#utility.yul\":442:541   */\n    tag_134:\n        /* \"#utility.yul\":494:500   */\n      0x00\n        /* \"#utility.yul\":528:533   */\n      dup2\n        /* \"#utility.yul\":522:534   */\n      mload\n        /* \"#utility.yul\":512:534   */\n      swap1\n      pop\n        /* \"#utility.yul\":442:541   */\n      swap2\n      swap1\n      pop\n      jump\t// out\n        /* \"#utility.yul\":547:716   */\n    tag_135:\n        /* \"#utility.yul\":631:642   */\n      0x00\n        /* \"#utility.yul\":665:671   */\n      dup3\n        /* \"#utility.yul\":660:663   */\n      dup3\n        /* \"#utility.yul\":653:672   */\n      mstore\n        /* \"#utility.yul\":705:709   */\n      0x20\n        /* \"#utility.yul\":700:703   */\n      dup3\n        /* \"#utility.yul\":696:710   */\n      add\n        /* \"#utility.yul\":681:710   */\n      swap1\n      pop\n        /* \"#utility.yul\":547:716   */\n      swap3\n      swap2\n      pop\n      pop\n      jump\t// out\n        /* \"#utility.yul\":722:968   */\n    tag_136:\n        /* \"#utility.yul\":803:804   */\n      0x00\n        /* \"#utility.yul\":813:926   */\n    tag_190:\n        /* \"#utility.yul\":827:833   */\n      dup4\n        /* \"#utility.yul\":824:825   */\n      dup2\n        /* \"#utility.yul\":821:834   */\n      lt\n        /* \"#utility.yul\":813:926   */\n      iszero\n      tag_192\n      jumpi\n        /* \"#utility.yul\":912:913   */\n      dup1\n        /* \"#utility.yul\":907:910   */\n      dup3\n        /* \"#utility.yul\":903:914   */\n      add\n        /* \"#utility.yul\":897:915   */\n      mload\n        /* \"#utility.yul\":893:894   */\n      dup2\n        /* \"#utility.yul\":888:891   */\n      dup5\n        /* \"#utility.yul\":884:895   */\n      add\n        /* \"#utility.yul\":877:916   */\n      mstore\n        /* \"#utility.yul\":849:851   */\n      0x20\n        /* \"#utility.yul\":846:847   */\n      dup2\n        /* \"#utility.yul\":842:852   */\n      add\n        /* \"#utility.yul\":837:852   */\n      swap1\n      pop\n        /* \"#utility.yul\":813:926   */\n      jump(tag_190)\n    tag_192:\n        /* \"#utility.yul\":960:961   */\n      0x00\n        /* \"#utility.yul\":951:957   */\n      dup5\n        /* \"#utility.yul\":946:949   */\n      dup5\n        /* \"#utility.yul\":942:958   */\n      add\n        /* \"#utility.yul\":935:962   */\n      mstore\n        /* \"#utility.yul\":784:968   */\n      pop\n        /* \"#utility.yul\":722:968   */\n      pop\n      pop\n      pop\n      jump\t// out\n        /* \"#utility.yul\":974:1076   */\n    tag_137:\n        /* \"#utility.yul\":1015:1021   */\n      0x00\n        /* \"#utility.yul\":1066:1068   */\n      0x1f\n        /* \"#utility.yul\":1062:1069   */\n      not\n        /* \"#utility.yul\":1057:1059   */\n      0x1f\n        /* \"#utility.yul\":1050:1055   */\n      dup4\n        /* \"#utility.yul\":1046:1060   */\n      add\n        /* \"#utility.yul\":1042:1070   */\n      and\n        /* \"#utility.yul\":1032:1070   */\n      swap1\n      pop\n        /* \"#utility.yul\":974:1076   */\n      swap2\n      swap1\n      pop\n      jump\t// out\n        /* \"#utility.yul\":1082:1459   */\n    tag_138:\n        /* \"#utility.yul\":1170:1173   */\n      0x00\n        /* \"#utility.yul\":1198:1237   */\n      tag_195\n        /* \"#utility.yul\":1231:1236   */\n      dup3\n        /* \"#utility.yul\":1198:1237   */\n      tag_134\n      jump\t// in\n    tag_195:\n        /* \"#utility.yul\":1253:1324   */\n      tag_196\n        /* \"#utility.yul\":1317:1323   */\n      dup2\n        /* \"#utility.yul\":1312:1315   */\n      dup6\n        /* \"#utility.yul\":1253:1324   */\n      tag_135\n      jump\t// in\n    tag_196:\n        /* \"#utility.yul\":1246:1324   */\n      swap4\n      pop\n        /* \"#utility.yul\":1333:1398   */\n      tag_197\n        /* \"#utility.yul\":1391:1397   */\n      dup2\n        /* \"#utility.yul\":1386:1389   */\n      dup6\n        /* \"#utility.yul\":1379:1383   */\n      0x20\n        /* \"#utility.yul\":1372:1377   */\n      dup7\n        /* \"#utility.yul\":1368:1384   */\n      add\n        /* \"#utility.yul\":1333:1398   */\n      tag_136\n      jump\t// in\n    tag_197:\n        /* \"#utility.yul\":1423:1452   */\n      tag_198\n        /* \"#utility.yul\":1445:1451   */\n      dup2\n        /* \"#utility.yul\":1423:1452   */\n      tag_137\n      jump\t// in\n    tag_198:\n        /* \"#utility.yul\":1418:1421   */\n      dup5\n        /* \"#utility.yul\":1414:1453   */\n      add\n        /* \"#utility.yul\":1407:1453   */\n      swap2\n      pop\n        /* \"#utility.yul\":1174:1459   */\n      pop\n        /* \"#utility.yul\":1082:1459   */\n      swap3\n      swap2\n      pop\n      pop\n      jump\t// out\n        /* \"#utility.yul\":1465:1778   */\n    tag_25:\n        /* \"#utility.yul\":1578:1582   */\n      0x00\n        /* \"#utility.yul\":1616:1618   */\n      0x20\n        /* \"#utility.yul\":1605:1614   */\n      dup3\n        /* \"#utility.yul\":1601:1619   */\n      add\n        /* \"#utility.yul\":1593:1619   */\n      swap1\n      pop\n        /* \"#utility.yul\":1665:1674   */\n      dup2\n        /* \"#utility.yul\":1659:1663   */\n      dup2\n        /* \"#utility.yul\":1655:1675   */\n      sub\n        /* \"#utility.yul\":1651:1652   */\n      0x00\n        /* \"#utility.yul\":1640:1649   */\n      dup4\n        /* \"#utility.yul\":1636:1653   */\n      add\n        /* \"#utility.yul\":1629:1676   */\n      mstore\n        /* \"#utility.yul\":1693:1771   */\n      tag_200\n        /* \"#utility.yul\":1766:1770   */\n      dup2\n        /* \"#utility.yul\":1757:1763   */\n      dup5\n        /* \"#utility.yul\":1693:1771   */\n      tag_138\n      jump\t// in\n    tag_200:\n        /* \"#utility.yul\":1685:1771   */\n      swap1\n      pop\n        /* \"#utility.yul\":1465:1778   */\n      swap3\n      swap2\n      pop\n      pop\n      jump\t// out\n        /* \"#utility.yul\":1784:1859   */\n    tag_139:\n        /* \"#utility.yul\":1817:1823   */\n      0x00\n        /* \"#utility.yul\":1850:1852   */\n      0x40\n        /* \"#utility.yul\":1844:1853   */\n      mload\n        /* \"#utility.yul\":1834:1853   */\n      swap1\n      pop\n        /* \"#utility.yul\":1784:1859   */\n      swap1\n      jump\t// out\n        /* \"#utility.yul\":1865:1982   */\n    tag_140:\n        /* \"#utility.yul\":1974:1975   */\n      0x00\n        /* \"#utility.yul\":1971:1972   */\n      dup1\n        /* \"#utility.yul\":1964:1976   */\n      revert\n        /* \"#utility.yul\":1988:2105   */\n    tag_141:\n        /* \"#utility.yul\":2097:2098   */\n      0x00\n        /* \"#utility.yul\":2094:2095   */\n      dup1\n        /* \"#utility.yul\":2087:2099   */\n      revert\n        /* \"#utility.yul\":2111:2201   */\n    tag_142:\n        /* \"#utility.yul\":2145:2152   */\n      0x00\n        /* \"#utility.yul\":2188:2193   */\n      dup2\n        /* \"#utility.yul\":2181:2194   */\n      iszero\n        /* \"#utility.yul\":2174:2195   */\n      iszero\n        /* \"#utility.yul\":2163:2195   */\n      swap1\n      pop\n        /* \"#utility.yul\":2111:2201   */\n      swap2\n      swap1\n      pop\n      jump\t// out\n        /* \"#utility.yul\":2207:2323   */\n    tag_143:\n        /* \"#utility.yul\":2277:2298   */\n      tag_206\n        /* \"#utility.yul\":2292:2297   */\n      dup2\n        /* \"#utility.yul\":2277:2298   */\n      tag_142\n      jump\t// in\n    tag_206:\n        /* \"#utility.yul\":2270:2275   */\n      dup2\n        /* \"#utility.yul\":2267:2299   */\n      eq\n        /* \"#utility.yul\":2257:2317   */\n      tag_207\n      jumpi\n        /* \"#utility.yul\":2313:2314   */\n      0x00\n        /* \"#utility.yul\":2310:2311   */\n      dup1\n        /* \"#utility.yul\":2303:2315   */\n      revert\n        /* \"#utility.yul\":2257:2317   */\n    tag_207:\n        /* \"#utility.yul\":2207:2323   */\n      pop\n      jump\t// out\n        /* \"#utility.yul\":2329:2462   */\n    tag_144:\n        /* \"#utility.yul\":2372:2377   */\n      0x00\n        /* \"#utility.yul\":2410:2416   */\n      dup2\n        /* \"#utility.yul\":2397:2417   */\n      calldataload\n        /* \"#utility.yul\":2388:2417   */\n      swap1\n      pop\n        /* \"#utility.yul\":2426:2456   */\n      tag_209\n        /* \"#utility.yul\":2450:2455   */\n      dup2\n        /* \"#utility.yul\":2426:2456   */\n      tag_143\n      jump\t// in\n    tag_209:\n        /* \"#utility.yul\":2329:2462   */\n      swap3\n      swap2\n      pop\n      pop\n      jump\t// out\n        /* \"#utility.yul\":2468:2791   */\n    tag_28:\n        /* \"#utility.yul\":2524:2530   */\n      0x00\n        /* \"#utility.yul\":2573:2575   */\n      0x20\n        /* \"#utility.yul\":2561:2570   */\n      dup3\n        /* \"#utility.yul\":2552:2559   */\n      dup5\n        /* \"#utility.yul\":2548:2571   */\n      sub\n        /* \"#utility.yul\":2544:2576   */\n      slt\n        /* \"#utility.yul\":2541:2660   */\n      iszero\n      tag_211\n      jumpi\n        /* \"#utility.yul\":2579:2658   */\n      tag_212\n      tag_140\n      jump\t// in\n    tag_212:\n        /* \"#utility.yul\":2541:2660   */\n    tag_211:\n        /* \"#utility.yul\":2699:2700   */\n      0x00\n        /* \"#utility.yul\":2724:2774   */\n      tag_213\n        /* \"#utility.yul\":2766:2773   */\n      dup5\n        /* \"#utility.yul\":2757:2763   */\n      dup3\n        /* \"#utility.yul\":2746:2755   */\n      dup6\n        /* \"#utility.yul\":2742:2764   */\n      add\n        /* \"#utility.yul\":2724:2774   */\n      tag_144\n      jump\t// in\n    tag_213:\n        /* \"#utility.yul\":2714:2774   */\n      swap2\n      pop\n        /* \"#utility.yul\":2670:2784   */\n      pop\n        /* \"#utility.yul\":2468:2791   */\n      swap3\n      swap2\n      pop\n      pop\n      jump\t// out\n        /* \"#utility.yul\":2797:2906   */\n    tag_145:\n        /* \"#utility.yul\":2878:2899   */\n      tag_215\n        /* \"#utility.yul\":2893:2898   */\n      dup2\n        /* \"#utility.yul\":2878:2899   */\n      tag_142\n      jump\t// in\n    tag_215:\n        /* \"#utility.yul\":2873:2876   */\n      dup3\n        /* \"#utility.yul\":2866:2900   */\n      mstore\n        /* \"#utility.yul\":2797:2906   */\n      pop\n      pop\n      jump\t// out\n        /* \"#utility.yul\":2912:3122   */\n    tag_31:\n        /* \"#utility.yul\":2999:3003   */\n      0x00\n        /* \"#utility.yul\":3037:3039   */\n      0x20\n        /* \"#utility.yul\":3026:3035   */\n      dup3\n        /* \"#utility.yul\":3022:3040   */\n      add\n        /* \"#utility.yul\":3014:3040   */\n      swap1\n      pop\n        /* \"#utility.yul\":3050:3115   */\n      tag_217\n        /* \"#utility.yul\":3112:3113   */\n      0x00\n        /* \"#utility.yul\":3101:3110   */\n      dup4\n        /* \"#utility.yul\":3097:3114   */\n      add\n        /* \"#utility.yul\":3088:3094   */\n      dup5\n        /* \"#utility.yul\":3050:3115   */\n      tag_145\n      jump\t// in\n    tag_217:\n        /* \"#utility.yul\":2912:3122   */\n      swap3\n      swap2\n      pop\n      pop\n      jump\t// out\n        /* \"#utility.yul\":3128:3254   */\n    tag_146:\n        /* \"#utility.yul\":3165:3172   */\n      0x00\n        /* \"#utility.yul\":3205:3247   */\n      0xffffffffffffffffffffffffffffffffffffffff\n        /* \"#utility.yul\":3198:3203   */\n      dup3\n        /* \"#utility.yul\":3194:3248   */\n      and\n        /* \"#utility.yul\":3183:3248   */\n      swap1\n      pop\n        /* \"#utility.yul\":3128:3254   */\n      swap2\n      swap1\n      pop\n      jump\t// out\n        /* \"#utility.yul\":3260:3356   */\n    tag_147:\n        /* \"#utility.yul\":3297:3304   */\n      0x00\n        /* \"#utility.yul\":3326:3350   */\n      tag_220\n        /* \"#utility.yul\":3344:3349   */\n      dup3\n        /* \"#utility.yul\":3326:3350   */\n      tag_146\n      jump\t// in\n    tag_220:\n        /* \"#utility.yul\":3315:3350   */\n      swap1\n      pop\n        /* \"#utility.yul\":3260:3356   */\n      swap2\n      swap1\n      pop\n      jump\t// out\n        /* \"#utility.yul\":3362:3480   */\n    tag_148:\n        /* \"#utility.yul\":3449:3473   */\n      tag_222\n        /* \"#utility.yul\":3467:3472   */\n      dup2\n        /* \"#utility.yul\":3449:3473   */\n      tag_147\n      jump\t// in\n    tag_222:\n        /* \"#utility.yul\":3444:3447   */\n      dup3\n        /* \"#utility.yul\":3437:3474   */\n      mstore\n        /* \"#utility.yul\":3362:3480   */\n      pop\n      pop\n      jump\t// out\n        /* \"#utility.yul\":3486:3708   */\n    tag_35:\n        /* \"#utility.yul\":3579:3583   */\n      0x00\n        /* \"#utility.yul\":3617:3619   */\n      0x20\n        /* \"#utility.yul\":3606:3615   */\n      dup3\n        /* \"#utility.yul\":3602:3620   */\n      add\n        /* \"#utility.yul\":3594:3620   */\n      swap1\n      pop\n        /* \"#utility.yul\":3630:3701   */\n      tag_224\n        /* \"#utility.yul\":3698:3699   */\n      0x00\n        /* \"#utility.yul\":3687:3696   */\n      dup4\n        /* \"#utility.yul\":3683:3700   */\n      add\n        /* \"#utility.yul\":3674:3680   */\n      dup5\n        /* \"#utility.yul\":3630:3701   */\n      tag_148\n      jump\t// in\n    tag_224:\n        /* \"#utility.yul\":3486:3708   */\n      swap3\n      swap2\n      pop\n      pop\n      jump\t// out\n        /* \"#utility.yul\":3714:3836   */\n    tag_149:\n        /* \"#utility.yul\":3787:3811   */\n      tag_226\n        /* \"#utility.yul\":3805:3810   */\n      dup2\n        /* \"#utility.yul\":3787:3811   */\n      tag_147\n      jump\t// in\n    tag_226:\n        /* \"#utility.yul\":3780:3785   */\n      dup2\n        /* \"#utility.yul\":3777:3812   */\n      eq\n        /* \"#utility.yul\":3767:3830   */\n      tag_227\n      jumpi\n        /* \"#utility.yul\":3826:3827   */\n      0x00\n        /* \"#utility.yul\":3823:3824   */\n      dup1\n        /* \"#utility.yul\":3816:3828   */\n      revert\n        /* \"#utility.yul\":3767:3830   */\n    tag_227:\n        /* \"#utility.yul\":3714:3836   */\n      pop\n      jump\t// out\n        /* \"#utility.yul\":3842:3981   */\n    tag_150:\n        /* \"#utility.yul\":3888:3893   */\n      0x00\n        /* \"#utility.yul\":3926:3932   */\n      dup2\n        /* \"#utility.yul\":3913:3933   */\n      calldataload\n        /* \"#utility.yul\":3904:3933   */\n      swap1\n      pop\n        /* \"#utility.yul\":3942:3975   */\n      tag_229\n        /* \"#utility.yul\":3969:3974   */\n      dup2\n        /* \"#utility.yul\":3942:3975   */\n      tag_149\n      jump\t// in\n    tag_229:\n        /* \"#utility.yul\":3842:3981   */\n      swap3\n      swap2\n      pop\n      pop\n      jump\t// out\n        /* \"#utility.yul\":3987:4316   */\n    tag_38:\n        /* \"#utility.yul\":4046:4052   */\n      0x00\n        /* \"#utility.yul\":4095:4097   */\n      0x20\n        /* \"#utility.yul\":4083:4092   */\n      dup3\n        /* \"#utility.yul\":4074:4081   */\n      dup5\n        /* \"#utility.yul\":4070:4093   */\n      sub\n        /* \"#utility.yul\":4066:4098   */\n      slt\n        /* \"#utility.yul\":4063:4182   */\n      iszero\n      tag_231\n      jumpi\n        /* \"#utility.yul\":4101:4180   */\n      tag_232\n      tag_140\n      jump\t// in\n    tag_232:\n        /* \"#utility.yul\":4063:4182   */\n    tag_231:\n        /* \"#utility.yul\":4221:4222   */\n      0x00\n        /* \"#utility.yul\":4246:4299   */\n      tag_233\n        /* \"#utility.yul\":4291:4298   */\n      dup5\n        /* \"#utility.yul\":4282:4288   */\n      dup3\n        /* \"#utility.yul\":4271:4280   */\n      dup6\n        /* \"#utility.yul\":4267:4289   */\n      add\n        /* \"#utility.yul\":4246:4299   */\n      tag_150\n      jump\t// in\n    tag_233:\n        /* \"#utility.yul\":4236:4299   */\n      swap2\n      pop\n        /* \"#utility.yul\":4192:4309   */\n      pop\n        /* \"#utility.yul\":3987:4316   */\n      swap3\n      swap2\n      pop\n      pop\n      jump\t// out\n        /* \"#utility.yul\":4322:4733   */\n    tag_41:\n        /* \"#utility.yul\":4457:4461   */\n      0x00\n        /* \"#utility.yul\":4495:4497   */\n      0x40\n        /* \"#utility.yul\":4484:4493   */\n      dup3\n        /* \"#utility.yul\":4480:4498   */\n      add\n        /* \"#utility.yul\":4472:4498   */\n      swap1\n      pop\n        /* \"#utility.yul\":4544:4553   */\n      dup2\n        /* \"#utility.yul\":4538:4542   */\n      dup2\n        /* \"#utility.yul\":4534:4554   */\n      sub\n        /* \"#utility.yul\":4530:4531   */\n      0x00\n        /* \"#utility.yul\":4519:4528   */\n      dup4\n        /* \"#utility.yul\":4515:4532   */\n      add\n        /* \"#utility.yul\":4508:4555   */\n      mstore\n        /* \"#utility.yul\":4572:4650   */\n      tag_235\n        /* \"#utility.yul\":4645:4649   */\n      dup2\n        /* \"#utility.yul\":4636:4642   */\n      dup6\n        /* \"#utility.yul\":4572:4650   */\n      tag_138\n      jump\t// in\n    tag_235:\n        /* \"#utility.yul\":4564:4650   */\n      swap1\n      pop\n        /* \"#utility.yul\":4660:4726   */\n      tag_236\n        /* \"#utility.yul\":4722:4724   */\n      0x20\n        /* \"#utility.yul\":4711:4720   */\n      dup4\n        /* \"#utility.yul\":4707:4725   */\n      add\n        /* \"#utility.yul\":4698:4704   */\n      dup5\n        /* \"#utility.yul\":4660:4726   */\n      tag_145\n      jump\t// in\n    tag_236:\n        /* \"#utility.yul\":4322:4733   */\n      swap4\n      swap3\n      pop\n      pop\n      pop\n      jump\t// out\n        /* \"#utility.yul\":4739:4919   */\n    tag_64:\n        /* \"#utility.yul\":4787:4864   */\n      0x4e487b7100000000000000000000000000000000000000000000000000000000\n        /* \"#utility.yul\":4784:4785   */\n      0x00\n        /* \"#utility.yul\":4777:4865   */\n      mstore\n        /* \"#utility.yul\":4884:4888   */\n      0x21\n        /* \"#utility.yul\":4881:4882   */\n      0x04\n        /* \"#utility.yul\":4874:4889   */\n      mstore\n        /* \"#utility.yul\":4908:4912   */\n      0x24\n        /* \"#utility.yul\":4905:4906   */\n      0x00\n        /* \"#utility.yul\":4898:4913   */\n      revert\n        /* \"#utility.yul\":4925:5038   */\n    tag_151:\n        /* \"#utility.yul\":5006:5007   */\n      0x03\n        /* \"#utility.yul\":4999:5004   */\n      dup2\n        /* \"#utility.yul\":4996:5008   */\n      lt\n        /* \"#utility.yul\":4986:5032   */\n      tag_239\n      jumpi\n        /* \"#utility.yul\":5012:5030   */\n      tag_240\n      tag_64\n      jump\t// in\n    tag_240:\n        /* \"#utility.yul\":4986:5032   */\n    tag_239:\n        /* \"#utility.yul\":4925:5038   */\n      pop\n      jump\t// out\n        /* \"#utility.yul\":5044:5171   */\n    tag_152:\n        /* \"#utility.yul\":5089:5096   */\n      0x00\n        /* \"#utility.yul\":5118:5123   */\n      dup2\n        /* \"#utility.yul\":5107:5123   */\n      swap1\n      pop\n        /* \"#utility.yul\":5124:5165   */\n      tag_242\n        /* \"#utility.yul\":5159:5164   */\n      dup3\n        /* \"#utility.yul\":5124:5165   */\n      tag_151\n      jump\t// in\n    tag_242:\n        /* \"#utility.yul\":5044:5171   */\n      swap2\n      swap1\n      pop\n      jump\t// out\n        /* \"#utility.yul\":5177:5304   */\n    tag_153:\n        /* \"#utility.yul\":5233:5242   */\n      0x00\n        /* \"#utility.yul\":5266:5298   */\n      tag_244\n        /* \"#utility.yul\":5292:5297   */\n      dup3\n        /* \"#utility.yul\":5266:5298   */\n      tag_152\n      jump\t// in\n    tag_244:\n        /* \"#utility.yul\":5253:5298   */\n      swap1\n      pop\n        /* \"#utility.yul\":5177:5304   */\n      swap2\n      swap1\n      pop\n      jump\t// out\n        /* \"#utility.yul\":5310:5453   */\n    tag_154:\n        /* \"#utility.yul\":5403:5446   */\n      tag_246\n        /* \"#utility.yul\":5440:5445   */\n      dup2\n        /* \"#utility.yul\":5403:5446   */\n      tag_153\n      jump\t// in\n    tag_246:\n        /* \"#utility.yul\":5398:5401   */\n      dup3\n        /* \"#utility.yul\":5391:5447   */\n      mstore\n        /* \"#utility.yul\":5310:5453   */\n      pop\n      pop\n      jump\t// out\n        /* \"#utility.yul\":5459:5693   */\n    tag_50:\n        /* \"#utility.yul\":5558:5562   */\n      0x00\n        /* \"#utility.yul\":5596:5598   */\n      0x20\n        /* \"#utility.yul\":5585:5594   */\n      dup3\n        /* \"#utility.yul\":5581:5599   */\n      add\n        /* \"#utility.yul\":5573:5599   */\n      swap1\n      pop\n        /* \"#utility.yul\":5609:5686   */\n      tag_248\n        /* \"#utility.yul\":5683:5684   */\n      0x00\n        /* \"#utility.yul\":5672:5681   */\n      dup4\n        /* \"#utility.yul\":5668:5685   */\n      add\n        /* \"#utility.yul\":5659:5665   */\n      dup5\n        /* \"#utility.yul\":5609:5686   */\n      tag_154\n      jump\t// in\n    tag_248:\n        /* \"#utility.yul\":5459:5693   */\n      swap3\n      swap2\n      pop\n      pop\n      jump\t// out\n        /* \"#utility.yul\":5699:5816   */\n    tag_155:\n        /* \"#utility.yul\":5808:5809   */\n      0x00\n        /* \"#utility.yul\":5805:5806   */\n      dup1\n        /* \"#utility.yul\":5798:5810   */\n      revert\n        /* \"#utility.yul\":5822:5939   */\n    tag_156:\n        /* \"#utility.yul\":5931:5932   */\n      0x00\n        /* \"#utility.yul\":5928:5929   */\n      dup1\n        /* \"#utility.yul\":5921:5933   */\n      revert\n        /* \"#utility.yul\":5945:6125   */\n    tag_157:\n        /* \"#utility.yul\":5993:6070   */\n      0x4e487b7100000000000000000000000000000000000000000000000000000000\n        /* \"#utility.yul\":5990:5991   */\n      0x00\n        /* \"#utility.yul\":5983:6071   */\n      mstore\n        /* \"#utility.yul\":6090:6094   */\n      0x41\n        /* \"#utility.yul\":6087:6088   */\n      0x04\n        /* \"#utility.yul\":6080:6095   */\n      mstore\n        /* \"#utility.yul\":6114:6118   */\n      0x24\n        /* \"#utility.yul\":6111:6112   */\n      0x00\n        /* \"#utility.yul\":6104:6119   */\n      revert\n        /* \"#utility.yul\":6131:6412   */\n    tag_158:\n        /* \"#utility.yul\":6214:6241   */\n      tag_253\n        /* \"#utility.yul\":6236:6240   */\n      dup3\n        /* \"#utility.yul\":6214:6241   */\n      tag_137\n      jump\t// in\n    tag_253:\n        /* \"#utility.yul\":6206:6212   */\n      dup2\n        /* \"#utility.yul\":6202:6242   */\n      add\n        /* \"#utility.yul\":6344:6350   */\n      dup2\n        /* \"#utility.yul\":6332:6342   */\n      dup2\n        /* \"#utility.yul\":6329:6351   */\n      lt\n        /* \"#utility.yul\":6308:6326   */\n      0xffffffffffffffff\n        /* \"#utility.yul\":6296:6306   */\n      dup3\n        /* \"#utility.yul\":6293:6327   */\n      gt\n        /* \"#utility.yul\":6290:6352   */\n      or\n        /* \"#utility.yul\":6287:6375   */\n      iszero\n      tag_254\n      jumpi\n        /* \"#utility.yul\":6355:6373   */\n      tag_255\n      tag_157\n      jump\t// in\n    tag_255:\n        /* \"#utility.yul\":6287:6375   */\n    tag_254:\n        /* \"#utility.yul\":6395:6405   */\n      dup1\n        /* \"#utility.yul\":6391:6393   */\n      0x40\n        /* \"#utility.yul\":6384:6406   */\n      mstore\n        /* \"#utility.yul\":6174:6412   */\n      pop\n        /* \"#utility.yul\":6131:6412   */\n      pop\n      pop\n      jump\t// out\n        /* \"#utility.yul\":6418:6547   */\n    tag_159:\n        /* \"#utility.yul\":6452:6458   */\n      0x00\n        /* \"#utility.yul\":6479:6499   */\n      tag_257\n      tag_139\n      jump\t// in\n    tag_257:\n        /* \"#utility.yul\":6469:6499   */\n      swap1\n      pop\n        /* \"#utility.yul\":6508:6541   */\n      tag_258\n        /* \"#utility.yul\":6536:6540   */\n      dup3\n        /* \"#utility.yul\":6528:6534   */\n      dup3\n        /* \"#utility.yul\":6508:6541   */\n      tag_158\n      jump\t// in\n    tag_258:\n        /* \"#utility.yul\":6418:6547   */\n      swap2\n      swap1\n      pop\n      jump\t// out\n        /* \"#utility.yul\":6553:6861   */\n    tag_160:\n        /* \"#utility.yul\":6615:6619   */\n      0x00\n        /* \"#utility.yul\":6705:6723   */\n      0xffffffffffffffff\n        /* \"#utility.yul\":6697:6703   */\n      dup3\n        /* \"#utility.yul\":6694:6724   */\n      gt\n        /* \"#utility.yul\":6691:6747   */\n      iszero\n      tag_260\n      jumpi\n        /* \"#utility.yul\":6727:6745   */\n      tag_261\n      tag_157\n      jump\t// in\n    tag_261:\n        /* \"#utility.yul\":6691:6747   */\n    tag_260:\n        /* \"#utility.yul\":6765:6794   */\n      tag_262\n        /* \"#utility.yul\":6787:6793   */\n      dup3\n        /* \"#utility.yul\":6765:6794   */\n      tag_137\n      jump\t// in\n    tag_262:\n        /* \"#utility.yul\":6757:6794   */\n      swap1\n      pop\n        /* \"#utility.yul\":6849:6853   */\n      0x20\n        /* \"#utility.yul\":6843:6847   */\n      dup2\n        /* \"#utility.yul\":6839:6854   */\n      add\n        /* \"#utility.yul\":6831:6854   */\n      swap1\n      pop\n        /* \"#utility.yul\":6553:6861   */\n      swap2\n      swap1\n      pop\n      jump\t// out\n        /* \"#utility.yul\":6867:7013   */\n    tag_161:\n        /* \"#utility.yul\":6964:6970   */\n      dup3\n        /* \"#utility.yul\":6959:6962   */\n      dup2\n        /* \"#utility.yul\":6954:6957   */\n      dup4\n        /* \"#utility.yul\":6941:6971   */\n      calldatacopy\n        /* \"#utility.yul\":7005:7006   */\n      0x00\n        /* \"#utility.yul\":6996:7002   */\n      dup4\n        /* \"#utility.yul\":6991:6994   */\n      dup4\n        /* \"#utility.yul\":6987:7003   */\n      add\n        /* \"#utility.yul\":6980:7007   */\n      mstore\n        /* \"#utility.yul\":6867:7013   */\n      pop\n      pop\n      pop\n      jump\t// out\n        /* \"#utility.yul\":7019:7444   */\n    tag_162:\n        /* \"#utility.yul\":7097:7102   */\n      0x00\n        /* \"#utility.yul\":7122:7188   */\n      tag_265\n        /* \"#utility.yul\":7138:7187   */\n      tag_266\n        /* \"#utility.yul\":7180:7186   */\n      dup5\n        /* \"#utility.yul\":7138:7187   */\n      tag_160\n      jump\t// in\n    tag_266:\n        /* \"#utility.yul\":7122:7188   */\n      tag_159\n      jump\t// in\n    tag_265:\n        /* \"#utility.yul\":7113:7188   */\n      swap1\n      pop\n        /* \"#utility.yul\":7211:7217   */\n      dup3\n        /* \"#utility.yul\":7204:7209   */\n      dup2\n        /* \"#utility.yul\":7197:7218   */\n      mstore\n        /* \"#utility.yul\":7249:7253   */\n      0x20\n        /* \"#utility.yul\":7242:7247   */\n      dup2\n        /* \"#utility.yul\":7238:7254   */\n      add\n        /* \"#utility.yul\":7287:7290   */\n      dup5\n        /* \"#utility.yul\":7278:7284   */\n      dup5\n        /* \"#utility.yul\":7273:7276   */\n      dup5\n        /* \"#utility.yul\":7269:7285   */\n      add\n        /* \"#utility.yul\":7266:7291   */\n      gt\n        /* \"#utility.yul\":7263:7375   */\n      iszero\n      tag_267\n      jumpi\n        /* \"#utility.yul\":7294:7373   */\n      tag_268\n      tag_156\n      jump\t// in\n    tag_268:\n        /* \"#utility.yul\":7263:7375   */\n    tag_267:\n        /* \"#utility.yul\":7384:7438   */\n      tag_269\n        /* \"#utility.yul\":7431:7437   */\n      dup5\n        /* \"#utility.yul\":7426:7429   */\n      dup3\n        /* \"#utility.yul\":7421:7424   */\n      dup6\n        /* \"#utility.yul\":7384:7438   */\n      tag_161\n      jump\t// in\n    tag_269:\n        /* \"#utility.yul\":7103:7444   */\n      pop\n        /* \"#utility.yul\":7019:7444   */\n      swap4\n      swap3\n      pop\n      pop\n      pop\n      jump\t// out\n        /* \"#utility.yul\":7464:7804   */\n    tag_163:\n        /* \"#utility.yul\":7520:7525   */\n      0x00\n        /* \"#utility.yul\":7569:7572   */\n      dup3\n        /* \"#utility.yul\":7562:7566   */\n      0x1f\n        /* \"#utility.yul\":7554:7560   */\n      dup4\n        /* \"#utility.yul\":7550:7567   */\n      add\n        /* \"#utility.yul\":7546:7573   */\n      slt\n        /* \"#utility.yul\":7536:7658   */\n      tag_271\n      jumpi\n        /* \"#utility.yul\":7577:7656   */\n      tag_272\n      tag_155\n      jump\t// in\n    tag_272:\n        /* \"#utility.yul\":7536:7658   */\n    tag_271:\n        /* \"#utility.yul\":7694:7700   */\n      dup2\n        /* \"#utility.yul\":7681:7701   */\n      calldataload\n        /* \"#utility.yul\":7719:7798   */\n      tag_273\n        /* \"#utility.yul\":7794:7797   */\n      dup5\n        /* \"#utility.yul\":7786:7792   */\n      dup3\n        /* \"#utility.yul\":7779:7783   */\n      0x20\n        /* \"#utility.yul\":7771:7777   */\n      dup7\n        /* \"#utility.yul\":7767:7784   */\n      add\n        /* \"#utility.yul\":7719:7798   */\n      tag_162\n      jump\t// in\n    tag_273:\n        /* \"#utility.yul\":7710:7798   */\n      swap2\n      pop\n        /* \"#utility.yul\":7526:7804   */\n      pop\n        /* \"#utility.yul\":7464:7804   */\n      swap3\n      swap2\n      pop\n      pop\n      jump\t// out\n        /* \"#utility.yul\":7810:8464   */\n    tag_53:\n        /* \"#utility.yul\":7888:7894   */\n      0x00\n        /* \"#utility.yul\":7896:7902   */\n      dup1\n        /* \"#utility.yul\":7945:7947   */\n      0x40\n        /* \"#utility.yul\":7933:7942   */\n      dup4\n        /* \"#utility.yul\":7924:7931   */\n      dup6\n        /* \"#utility.yul\":7920:7943   */\n      sub\n        /* \"#utility.yul\":7916:7948   */\n      slt\n        /* \"#utility.yul\":7913:8032   */\n      iszero\n      tag_275\n      jumpi\n        /* \"#utility.yul\":7951:8030   */\n      tag_276\n      tag_140\n      jump\t// in\n    tag_276:\n        /* \"#utility.yul\":7913:8032   */\n    tag_275:\n        /* \"#utility.yul\":8071:8072   */\n      0x00\n        /* \"#utility.yul\":8096:8149   */\n      tag_277\n        /* \"#utility.yul\":8141:8148   */\n      dup6\n        /* \"#utility.yul\":8132:8138   */\n      dup3\n        /* \"#utility.yul\":8121:8130   */\n      dup7\n        /* \"#utility.yul\":8117:8139   */\n      add\n        /* \"#utility.yul\":8096:8149   */\n      tag_150\n      jump\t// in\n    tag_277:\n        /* \"#utility.yul\":8086:8149   */\n      swap3\n      pop\n        /* \"#utility.yul\":8042:8159   */\n      pop\n        /* \"#utility.yul\":8226:8228   */\n      0x20\n        /* \"#utility.yul\":8215:8224   */\n      dup4\n        /* \"#utility.yul\":8211:8229   */\n      add\n        /* \"#utility.yul\":8198:8230   */\n      calldataload\n        /* \"#utility.yul\":8257:8275   */\n      0xffffffffffffffff\n        /* \"#utility.yul\":8249:8255   */\n      dup2\n        /* \"#utility.yul\":8246:8276   */\n      gt\n        /* \"#utility.yul\":8243:8360   */\n      iszero\n      tag_278\n      jumpi\n        /* \"#utility.yul\":8279:8358   */\n      tag_279\n      tag_141\n      jump\t// in\n    tag_279:\n        /* \"#utility.yul\":8243:8360   */\n    tag_278:\n        /* \"#utility.yul\":8384:8447   */\n      tag_280\n        /* \"#utility.yul\":8439:8446   */\n      dup6\n        /* \"#utility.yul\":8430:8436   */\n      dup3\n        /* \"#utility.yul\":8419:8428   */\n      dup7\n        /* \"#utility.yul\":8415:8437   */\n      add\n        /* \"#utility.yul\":8384:8447   */\n      tag_163\n      jump\t// in\n    tag_280:\n        /* \"#utility.yul\":8374:8447   */\n      swap2\n      pop\n        /* \"#utility.yul\":8169:8457   */\n      pop\n        /* \"#utility.yul\":7810:8464   */\n      swap3\n      pop\n      swap3\n      swap1\n      pop\n      jump\t// out\n        /* \"#utility.yul\":8470:8650   */\n    tag_164:\n        /* \"#utility.yul\":8518:8595   */\n      0x4e487b7100000000000000000000000000000000000000000000000000000000\n        /* \"#utility.yul\":8515:8516   */\n      0x00\n        /* \"#utility.yul\":8508:8596   */\n      mstore\n        /* \"#utility.yul\":8615:8619   */\n      0x22\n        /* \"#utility.yul\":8612:8613   */\n      0x04\n        /* \"#utility.yul\":8605:8620   */\n      mstore\n        /* \"#utility.yul\":8639:8643   */\n      0x24\n        /* \"#utility.yul\":8636:8637   */\n      0x00\n        /* \"#utility.yul\":8629:8644   */\n      revert\n        /* \"#utility.yul\":8656:8976   */\n    tag_74:\n        /* \"#utility.yul\":8700:8706   */\n      0x00\n        /* \"#utility.yul\":8737:8738   */\n      0x02\n        /* \"#utility.yul\":8731:8735   */\n      dup3\n        /* \"#utility.yul\":8727:8739   */\n      div\n        /* \"#utility.yul\":8717:8739   */\n      swap1\n      pop\n        /* \"#utility.yul\":8784:8785   */\n      0x01\n        /* \"#utility.yul\":8778:8782   */\n      dup3\n        /* \"#utility.yul\":8774:8786   */\n      and\n        /* \"#utility.yul\":8805:8823   */\n      dup1\n        /* \"#utility.yul\":8795:8876   */\n      tag_283\n      jumpi\n        /* \"#utility.yul\":8861:8865   */\n      0x7f\n        /* \"#utility.yul\":8853:8859   */\n      dup3\n        /* \"#utility.yul\":8849:8866   */\n      and\n        /* \"#utility.yul\":8839:8866   */\n      swap2\n      pop\n        /* \"#utility.yul\":8795:8876   */\n    tag_283:\n        /* \"#utility.yul\":8923:8925   */\n      0x20\n        /* \"#utility.yul\":8915:8921   */\n      dup3\n        /* \"#utility.yul\":8912:8926   */\n      lt\n        /* \"#utility.yul\":8892:8910   */\n      dup2\n        /* \"#utility.yul\":8889:8927   */\n      sub\n        /* \"#utility.yul\":8886:8970   */\n      tag_284\n      jumpi\n        /* \"#utility.yul\":8942:8960   */\n      tag_285\n      tag_164\n      jump\t// in\n    tag_285:\n        /* \"#utility.yul\":8886:8970   */\n    tag_284:\n        /* \"#utility.yul\":8707:8976   */\n      pop\n        /* \"#utility.yul\":8656:8976   */\n      swap2\n      swap1\n      pop\n      jump\t// out\n        /* \"#utility.yul\":8982:9162   */\n    tag_165:\n        /* \"#utility.yul\":9030:9107   */\n      0x4e487b7100000000000000000000000000000000000000000000000000000000\n        /* \"#utility.yul\":9027:9028   */\n      0x00\n        /* \"#utility.yul\":9020:9108   */\n      mstore\n        /* \"#utility.yul\":9127:9131   */\n      0x11\n        /* \"#utility.yul\":9124:9125   */\n      0x04\n        /* \"#utility.yul\":9117:9132   */\n      mstore\n        /* \"#utility.yul\":9151:9155   */\n      0x24\n        /* \"#utility.yul\":9148:9149   */\n      0x00\n        /* \"#utility.yul\":9141:9156   */\n      revert\n        /* \"#utility.yul\":9168:9401   */\n    tag_95:\n        /* \"#utility.yul\":9207:9210   */\n      0x00\n        /* \"#utility.yul\":9230:9254   */\n      tag_288\n        /* \"#utility.yul\":9248:9253   */\n      dup3\n        /* \"#utility.yul\":9230:9254   */\n      tag_132\n      jump\t// in\n    tag_288:\n        /* \"#utility.yul\":9221:9254   */\n      swap2\n      pop\n        /* \"#utility.yul\":9276:9342   */\n      0xffffffffffffffffffffffffffffffffffffffffffffffffffffffffffffffff\n        /* \"#utility.yul\":9269:9274   */\n      dup3\n        /* \"#utility.yul\":9266:9343   */\n      sub\n        /* \"#utility.yul\":9263:9366   */\n      tag_289\n      jumpi\n        /* \"#utility.yul\":9346:9364   */\n      tag_290\n      tag_165\n      jump\t// in\n    tag_290:\n        /* \"#utility.yul\":9263:9366   */\n    tag_289:\n        /* \"#utility.yul\":9393:9394   */\n      0x01\n        /* \"#utility.yul\":9386:9391   */\n      dup3\n        /* \"#utility.yul\":9382:9395   */\n      add\n        /* \"#utility.yul\":9375:9395   */\n      swap1\n      pop\n        /* \"#utility.yul\":9168:9401   */\n      swap2\n      swap1\n      pop\n      jump\t// out\n        /* \"#utility.yul\":9407:9548   */\n    tag_166:\n        /* \"#utility.yul\":9456:9460   */\n      0x00\n        /* \"#utility.yul\":9479:9482   */\n      dup2\n        /* \"#utility.yul\":9471:9482   */\n      swap1\n      pop\n        /* \"#utility.yul\":9502:9505   */\n      dup2\n        /* \"#utility.yul\":9499:9500   */\n      0x00\n        /* \"#utility.yul\":9492:9506   */\n      mstore\n        /* \"#utility.yul\":9536:9540   */\n      0x20\n        /* \"#utility.yul\":9533:9534   */\n      0x00\n        /* \"#utility.yul\":9523:9541   */\n      keccak256\n        /* \"#utility.yul\":9515:9541   */\n      swap1\n      pop\n        /* \"#utility.yul\":9407:9548   */\n      swap2\n      swap1\n      pop\n      jump\t// out\n        /* \"#utility.yul\":9554:9647   */\n    tag_167:\n        /* \"#utility.yul\":9591:9597   */\n      0x00\n        /* \"#utility.yul\":9638:9640   */\n      0x20\n        /* \"#utility.yul\":9633:9635   */\n      0x1f\n        /* \"#utility.yul\":9626:9631   */\n      dup4\n        /* \"#utility.yul\":9622:9636   */\n      add\n        /* \"#utility.yul\":9618:9641   */\n      div\n        /* \"#utility.yul\":9608:9641   */\n      swap1\n      pop\n        /* \"#utility.yul\":9554:9647   */\n      swap2\n      swap1\n      pop\n      jump\t// out\n        /* \"#utility.yul\":9653:9760   */\n    tag_168:\n        /* \"#utility.yul\":9697:9705   */\n      0x00\n        /* \"#utility.yul\":9747:9752   */\n      dup3\n        /* \"#utility.yul\":9741:9745   */\n      dup3\n        /* \"#utility.yul\":9737:9753   */\n      shl\n        /* \"#utility.yul\":9716:9753   */\n      swap1\n      pop\n        /* \"#utility.yul\":9653:9760   */\n      swap3\n      swap2\n      pop\n      pop\n      jump\t// out\n        /* \"#utility.yul\":9766:10159   */\n    tag_169:\n        /* \"#utility.yul\":9835:9841   */\n      0x00\n        /* \"#utility.yul\":9885:9886   */\n      0x08\n        /* \"#utility.yul\":9873:9883   */\n      dup4\n        /* \"#utility.yul\":9869:9887   */\n      mul\n        /* \"#utility.yul\":9908:10005   */\n      tag_295\n        /* \"#utility.yul\":9938:10004   */\n      0xffffffffffffffffffffffffffffffffffffffffffffffffffffffffffffffff\n        /* \"#utility.yul\":9927:9936   */\n      dup3\n        /* \"#utility.yul\":9908:10005   */\n      tag_168\n      jump\t// in\n    tag_295:\n        /* \"#utility.yul\":10026:10065   */\n      tag_296\n        /* \"#utility.yul\":10056:10064   */\n      dup7\n        /* \"#utility.yul\":10045:10054   */\n      dup4\n        /* \"#utility.yul\":10026:10065   */\n      tag_168\n      jump\t// in\n    tag_296:\n        /* \"#utility.yul\":10014:10065   */\n      swap6\n      pop\n        /* \"#utility.yul\":10098:10102   */\n      dup1\n        /* \"#utility.yul\":10094:10103   */\n      not\n        /* \"#utility.yul\":10087:10092   */\n      dup5\n        /* \"#utility.yul\":10083:10104   */\n      and\n        /* \"#utility.yul\":10074:10104   */\n      swap4\n      pop\n        /* \"#utility.yul\":10147:10151   */\n      dup1\n        /* \"#utility.yul\":10137:10145   */\n      dup7\n        /* \"#utility.yul\":10133:10152   */\n      and\n        /* \"#utility.yul\":10126:10131   */\n      dup5\n        /* \"#utility.yul\":10123:10153   */\n      or\n        /* \"#utility.yul\":10113:10153   */\n      swap3\n      pop\n        /* \"#utility.yul\":9842:10159   */\n      pop\n      pop\n        /* \"#utility.yul\":9766:10159   */\n      swap4\n      swap3\n      pop\n      pop\n      pop\n      jump\t// out\n        /* \"#utility.yul\":10165:10225   */\n    tag_170:\n        /* \"#utility.yul\":10193:10196   */\n      0x00\n        /* \"#utility.yul\":10214:10219   */\n      dup2\n        /* \"#utility.yul\":10207:10219   */\n      swap1\n      pop\n        /* \"#utility.yul\":10165:10225   */\n      swap2\n      swap1\n      pop\n      jump\t// out\n        /* \"#utility.yul\":10231:10373   */\n    tag_171:\n        /* \"#utility.yul\":10281:10290   */\n      0x00\n        /* \"#utility.yul\":10314:10367   */\n      tag_299\n        /* \"#utility.yul\":10332:10366   */\n      tag_300\n        /* \"#utility.yul\":10341:10365   */\n      tag_301\n        /* \"#utility.yul\":10359:10364   */\n      dup5\n        /* \"#utility.yul\":10341:10365   */\n      tag_132\n      jump\t// in\n    tag_301:\n        /* \"#utility.yul\":10332:10366   */\n      tag_170\n      jump\t// in\n    tag_300:\n        /* \"#utility.yul\":10314:10367   */\n      tag_132\n      jump\t// in\n    tag_299:\n        /* \"#utility.yul\":10301:10367   */\n      swap1\n      pop\n        /* \"#utility.yul\":10231:10373   */\n      swap2\n      swap1\n      pop\n      jump\t// out\n        /* \"#utility.yul\":10379:10454   */\n    tag_172:\n        /* \"#utility.yul\":10422:10425   */\n      0x00\n        /* \"#utility.yul\":10443:10448   */\n      dup2\n        /* \"#utility.yul\":10436:10448   */\n      swap1\n      pop\n        /* \"#utility.yul\":10379:10454   */\n      swap2\n      swap1\n      pop\n      jump\t// out\n        /* \"#utility.yul\":10460:10729   */\n    tag_173:\n        /* \"#utility.yul\":10570:10609   */\n      tag_304\n        /* \"#utility.yul\":10601:10608   */\n      dup4\n        /* \"#utility.yul\":10570:10609   */\n      tag_171\n      jump\t// in\n    tag_304:\n        /* \"#utility.yul\":10631:10722   */\n      tag_305\n        /* \"#utility.yul\":10680:10721   */\n      tag_306\n        /* \"#utility.yul\":10704:10720   */\n      dup3\n        /* \"#utility.yul\":10680:10721   */\n      tag_172\n      jump\t// in\n    tag_306:\n        /* \"#utility.yul\":10672:10678   */\n      dup5\n        /* \"#utility.yul\":10665:10669   */\n      dup5\n        /* \"#utility.yul\":10659:10670   */\n      sload\n        /* \"#utility.yul\":10631:10722   */\n      tag_169\n      jump\t// in\n    tag_305:\n        /* \"#utility.yul\":10625:10629   */\n      dup3\n        /* \"#utility.yul\":10618:10723   */\n      sstore\n        /* \"#utility.yul\":10536:10729   */\n      pop\n        /* \"#utility.yul\":10460:10729   */\n      pop\n      pop\n      pop\n      jump\t// out\n        /* \"#utility.yul\":10735:10808   */\n    tag_174:\n        /* \"#utility.yul\":10780:10783   */\n      0x00\n        /* \"#utility.yul\":10735:10808   */\n      swap1\n      jump\t// out\n        /* \"#utility.yul\":10814:11003   */\n    tag_175:\n        /* \"#utility.yul\":10891:10923   */\n      tag_309\n      tag_174\n      jump\t// in\n    tag_309:\n        /* \"#utility.yul\":10932:10997   */\n      tag_310\n        /* \"#utility.yul\":10990:10996   */\n      dup2\n        /* \"#utility.yul\":10982:10988   */\n      dup5\n        /* \"#utility.yul\":10976:10980   */\n      dup5\n        /* \"#utility.yul\":10932:10997   */\n      tag_173\n      jump\t// in\n    tag_310:\n        /* \"#utility.yul\":10867:11003   */\n      pop\n        /* \"#utility.yul\":10814:11003   */\n      pop\n      pop\n      jump\t// out\n        /* \"#utility.yul\":11009:11195   */\n    tag_176:\n        /* \"#utility.yul\":11069:11189   */\n    tag_312:\n        /* \"#utility.yul\":11086:11089   */\n      dup2\n        /* \"#utility.yul\":11079:11084   */\n      dup2\n        /* \"#utility.yul\":11076:11090   */\n      lt\n        /* \"#utility.yul\":11069:11189   */\n      iszero\n      tag_314\n      jumpi\n        /* \"#utility.yul\":11140:11179   */\n      tag_315\n        /* \"#utility.yul\":11177:11178   */\n      0x00\n        /* \"#utility.yul\":11170:11175   */\n      dup3\n        /* \"#utility.yul\":11140:11179   */\n      tag_175\n      jump\t// in\n    tag_315:\n        /* \"#utility.yul\":11113:11114   */\n      0x01\n        /* \"#utility.yul\":11106:11111   */\n      dup2\n        /* \"#utility.yul\":11102:11115   */\n      add\n        /* \"#utility.yul\":11093:11115   */\n      swap1\n      pop\n        /* \"#utility.yul\":11069:11189   */\n      jump(tag_312)\n    tag_314:\n        /* \"#utility.yul\":11009:11195   */\n      pop\n      pop\n      jump\t// out\n        /* \"#utility.yul\":11201:11744   */\n    tag_177:\n        /* \"#utility.yul\":11302:11304   */\n      0x1f\n        /* \"#utility.yul\":11297:11300   */\n      dup3\n        /* \"#utility.yul\":11294:11305   */\n      gt\n        /* \"#utility.yul\":11291:11737   */\n      iszero\n      tag_317\n      jumpi\n        /* \"#utility.yul\":11336:11374   */\n      tag_318\n        /* \"#utility.yul\":11368:11373   */\n      dup2\n        /* \"#utility.yul\":11336:11374   */\n      tag_166\n      jump\t// in\n    tag_318:\n        /* \"#utility.yul\":11420:11449   */\n      tag_319\n        /* \"#utility.yul\":11438:11448   */\n      dup5\n        /* \"#utility.yul\":11420:11449   */\n      tag_167\n      jump\t// in\n    tag_319:\n        /* \"#utility.yul\":11410:11418   */\n      dup2\n        /* \"#utility.yul\":11406:11450   */\n      add\n        /* \"#utility.yul\":11603:11605   */\n      0x20\n        /* \"#utility.yul\":11591:11601   */\n      dup6\n        /* \"#utility.yul\":11588:11606   */\n      lt\n        /* \"#utility.yul\":11585:11634   */\n      iszero\n      tag_320\n      jumpi\n        /* \"#utility.yul\":11624:11632   */\n      dup2\n        /* \"#utility.yul\":11609:11632   */\n      swap1\n      pop\n        /* \"#utility.yul\":11585:11634   */\n    tag_320:\n        /* \"#utility.yul\":11647:11727   */\n      tag_321\n        /* \"#utility.yul\":11703:11725   */\n      tag_322\n        /* \"#utility.yul\":11721:11724   */\n      dup6\n        /* \"#utility.yul\":11703:11725   */\n      tag_167\n      jump\t// in\n    tag_322:\n        /* \"#utility.yul\":11693:11701   */\n      dup4\n        /* \"#utility.yul\":11689:11726   */\n      add\n        /* \"#utility.yul\":11676:11687   */\n      dup3\n        /* \"#utility.yul\":11647:11727   */\n      tag_176\n      jump\t// in\n    tag_321:\n        /* \"#utility.yul\":11306:11737   */\n      pop\n      pop\n        /* \"#utility.yul\":11291:11737   */\n    tag_317:\n        /* \"#utility.yul\":11201:11744   */\n      pop\n      pop\n      pop\n      jump\t// out\n        /* \"#utility.yul\":11750:11867   */\n    tag_178:\n        /* \"#utility.yul\":11804:11812   */\n      0x00\n        /* \"#utility.yul\":11854:11859   */\n      dup3\n        /* \"#utility.yul\":11848:11852   */\n      dup3\n        /* \"#utility.yul\":11844:11860   */\n      shr\n        /* \"#utility.yul\":11823:11860   */\n      swap1\n      pop\n        /* \"#utility.yul\":11750:11867   */\n      swap3\n      swap2\n      pop\n      pop\n      jump\t// out\n        /* \"#utility.yul\":11873:12042   */\n    tag_179:\n        /* \"#utility.yul\":11917:11923   */\n      0x00\n        /* \"#utility.yul\":11950:12001   */\n      tag_325\n        /* \"#utility.yul\":11998:11999   */\n      0x00\n        /* \"#utility.yul\":11994:12000   */\n      not\n        /* \"#utility.yul\":11986:11991   */\n      dup5\n        /* \"#utility.yul\":11983:11984   */\n      0x08\n        /* \"#utility.yul\":11979:11992   */\n      mul\n        /* \"#utility.yul\":11950:12001   */\n      tag_178\n      jump\t// in\n    tag_325:\n        /* \"#utility.yul\":11946:12002   */\n      not\n        /* \"#utility.yul\":12031:12035   */\n      dup1\n        /* \"#utility.yul\":12025:12029   */\n      dup4\n        /* \"#utility.yul\":12021:12036   */\n      and\n        /* \"#utility.yul\":12011:12036   */\n      swap2\n      pop\n        /* \"#utility.yul\":11924:12042   */\n      pop\n        /* \"#utility.yul\":11873:12042   */\n      swap3\n      swap2\n      pop\n      pop\n      jump\t// out\n        /* \"#utility.yul\":12047:12342   */\n    tag_180:\n        /* \"#utility.yul\":12123:12127   */\n      0x00\n        /* \"#utility.yul\":12269:12298   */\n      tag_327\n        /* \"#utility.yul\":12294:12297   */\n      dup4\n        /* \"#utility.yul\":12288:12292   */\n      dup4\n        /* \"#utility.yul\":12269:12298   */\n      tag_179\n      jump\t// in\n    tag_327:\n        /* \"#utility.yul\":12261:12298   */\n      swap2\n      pop\n        /* \"#utility.yul\":12331:12334   */\n      dup3\n        /* \"#utility.yul\":12328:12329   */\n      0x02\n        /* \"#utility.yul\":12324:12335   */\n      mul\n        /* \"#utility.yul\":12318:12322   */\n      dup3\n        /* \"#utility.yul\":12315:12336   */\n      or\n        /* \"#utility.yul\":12307:12336   */\n      swap1\n      pop\n        /* \"#utility.yul\":12047:12342   */\n      swap3\n      swap2\n      pop\n      pop\n      jump\t// out\n        /* \"#utility.yul\":12347:13742   */\n    tag_130:\n        /* \"#utility.yul\":12464:12501   */\n      tag_329\n        /* \"#utility.yul\":12497:12500   */\n      dup3\n        /* \"#utility.yul\":12464:12501   */\n      tag_134\n      jump\t// in\n    tag_329:\n        /* \"#utility.yul\":12566:12584   */\n      0xffffffffffffffff\n        /* \"#utility.yul\":12558:12564   */\n      dup2\n        /* \"#utility.yul\":12555:12585   */\n      gt\n        /* \"#utility.yul\":12552:12608   */\n      iszero\n      tag_330\n      jumpi\n        /* \"#utility.yul\":12588:12606   */\n      tag_331\n      tag_157\n      jump\t// in\n    tag_331:\n        /* \"#utility.yul\":12552:12608   */\n    tag_330:\n        /* \"#utility.yul\":12632:12670   */\n      tag_332\n        /* \"#utility.yul\":12664:12668   */\n      dup3\n        /* \"#utility.yul\":12658:12669   */\n      sload\n        /* \"#utility.yul\":12632:12670   */\n      tag_74\n      jump\t// in\n    tag_332:\n        /* \"#utility.yul\":12717:12784   */\n      tag_333\n        /* \"#utility.yul\":12777:12783   */\n      dup3\n        /* \"#utility.yul\":12769:12775   */\n      dup3\n        /* \"#utility.yul\":12763:12767   */\n      dup6\n        /* \"#utility.yul\":12717:12784   */\n      tag_177\n      jump\t// in\n    tag_333:\n        /* \"#utility.yul\":12811:12812   */\n      0x00\n        /* \"#utility.yul\":12835:12839   */\n      0x20\n        /* \"#utility.yul\":12822:12839   */\n      swap1\n      pop\n        /* \"#utility.yul\":12867:12869   */\n      0x1f\n        /* \"#utility.yul\":12859:12865   */\n      dup4\n        /* \"#utility.yul\":12856:12870   */\n      gt\n        /* \"#utility.yul\":12884:12885   */\n      0x01\n        /* \"#utility.yul\":12879:13497   */\n      dup2\n      eq\n      tag_335\n      jumpi\n        /* \"#utility.yul\":13541:13542   */\n      0x00\n        /* \"#utility.yul\":13558:13564   */\n      dup5\n        /* \"#utility.yul\":13555:13632   */\n      iszero\n      tag_336\n      jumpi\n        /* \"#utility.yul\":13607:13616   */\n      dup3\n        /* \"#utility.yul\":13602:13605   */\n      dup8\n        /* \"#utility.yul\":13598:13617   */\n      add\n        /* \"#utility.yul\":13592:13618   */\n      mload\n        /* \"#utility.yul\":13583:13618   */\n      swap1\n      pop\n        /* \"#utility.yul\":13555:13632   */\n    tag_336:\n        /* \"#utility.yul\":13658:13725   */\n      tag_337\n        /* \"#utility.yul\":13718:13724   */\n      dup6\n        /* \"#utility.yul\":13711:13716   */\n      dup3\n        /* \"#utility.yul\":13658:13725   */\n      tag_180\n      jump\t// in\n    tag_337:\n        /* \"#utility.yul\":13652:13656   */\n      dup7\n        /* \"#utility.yul\":13645:13726   */\n      sstore\n        /* \"#utility.yul\":13514:13736   */\n      pop\n        /* \"#utility.yul\":12849:13736   */\n      jump(tag_334)\n        /* \"#utility.yul\":12879:13497   */\n    tag_335:\n        /* \"#utility.yul\":12931:12935   */\n      0x1f\n        /* \"#utility.yul\":12927:12936   */\n      not\n        /* \"#utility.yul\":12919:12925   */\n      dup5\n        /* \"#utility.yul\":12915:12937   */\n      and\n        /* \"#utility.yul\":12965:13002   */\n      tag_338\n        /* \"#utility.yul\":12997:13001   */\n      dup7\n        /* \"#utility.yul\":12965:13002   */\n      tag_166\n      jump\t// in\n    tag_338:\n        /* \"#utility.yul\":13024:13025   */\n      0x00\n        /* \"#utility.yul\":13038:13246   */\n    tag_339:\n        /* \"#utility.yul\":13052:13059   */\n      dup3\n        /* \"#utility.yul\":13049:13050   */\n      dup2\n        /* \"#utility.yul\":13046:13060   */\n      lt\n        /* \"#utility.yul\":13038:13246   */\n      iszero\n      tag_341\n      jumpi\n        /* \"#utility.yul\":13131:13140   */\n      dup5\n        /* \"#utility.yul\":13126:13129   */\n      dup10\n        /* \"#utility.yul\":13122:13141   */\n      add\n        /* \"#utility.yul\":13116:13142   */\n      mload\n        /* \"#utility.yul\":13108:13114   */\n      dup3\n        /* \"#utility.yul\":13101:13143   */\n      sstore\n        /* \"#utility.yul\":13182:13183   */\n      0x01\n        /* \"#utility.yul\":13174:13180   */\n      dup3\n        /* \"#utility.yul\":13170:13184   */\n      add\n        /* \"#utility.yul\":13160:13184   */\n      swap2\n      pop\n        /* \"#utility.yul\":13229:13231   */\n      0x20\n        /* \"#utility.yul\":13218:13227   */\n      dup6\n        /* \"#utility.yul\":13214:13232   */\n      add\n        /* \"#utility.yul\":13201:13232   */\n      swap5\n      pop\n        /* \"#utility.yul\":13075:13079   */\n      0x20\n        /* \"#utility.yul\":13072:13073   */\n      dup2\n        /* \"#utility.yul\":13068:13080   */\n      add\n        /* \"#utility.yul\":13063:13080   */\n      swap1\n      pop\n        /* \"#utility.yul\":13038:13246   */\n      jump(tag_339)\n    tag_341:\n        /* \"#utility.yul\":13274:13280   */\n      dup7\n        /* \"#utility.yul\":13265:13272   */\n      dup4\n        /* \"#utility.yul\":13262:13281   */\n      lt\n        /* \"#utility.yul\":13259:13438   */\n      iszero\n      tag_342\n      jumpi\n        /* \"#utility.yul\":13332:13341   */\n      dup5\n        /* \"#utility.yul\":13327:13330   */\n      dup10\n        /* \"#utility.yul\":13323:13342   */\n      add\n        /* \"#utility.yul\":13317:13343   */\n      mload\n        /* \"#utility.yul\":13375:13423   */\n      tag_343\n        /* \"#utility.yul\":13417:13421   */\n      0x1f\n        /* \"#utility.yul\":13409:13415   */\n      dup10\n        /* \"#utility.yul\":13405:13422   */\n      and\n        /* \"#utility.yul\":13394:13403   */\n      dup3\n        /* \"#utility.yul\":13375:13423   */\n      tag_179\n      jump\t// in\n    tag_343:\n        /* \"#utility.yul\":13367:13373   */\n      dup4\n        /* \"#utility.yul\":13360:13424   */\n      sstore\n        /* \"#utility.yul\":13282:13438   */\n      pop\n        /* \"#utility.yul\":13259:13438   */\n    tag_342:\n        /* \"#utility.yul\":13484:13485   */\n      0x01\n        /* \"#utility.yul\":13480:13481   */\n      0x02\n        /* \"#utility.yul\":13472:13478   */\n      dup9\n        /* \"#utility.yul\":13468:13482   */\n      mul\n        /* \"#utility.yul\":13464:13486   */\n      add\n        /* \"#utility.yul\":13458:13462   */\n      dup9\n        /* \"#utility.yul\":13451:13487   */\n      sstore\n        /* \"#utility.yul\":12886:13497   */\n      pop\n      pop\n      pop\n        /* \"#utility.yul\":12849:13736   */\n    tag_334:\n      pop\n        /* \"#utility.yul\":12439:13742   */\n      pop\n      pop\n      pop\n        /* \"#utility.yul\":12347:13742   */\n      pop\n      pop\n      jump\t// out\n\n    auxdata: 0xa264697066735822122001f28c7f46ac07751a80fc61004a97eb0501368ffedee0a0ffd83cba6fc1b75064736f6c63430008150033\n}\n",
				"bytecode": {
					"linkReferences": {},
					"object": "60806040525f80555f6001555f6002555f6003553480156200001f575f80fd5b506040516200180938038062001809833981810160405281019062000045919062000262565b3360045f6101000a81548173ffffffffffffffffffffffffffffffffffffffff021916908373ffffffffffffffffffffffffffffffffffffffff16021790555081600590816200009691906200051c565b508060069081620000a891906200051c565b505f60095f6101000a81548160ff02191690836002811115620000d057620000cf62000600565b5b021790555050506200062d565b5f604051905090565b5f80fd5b5f80fd5b5f80fd5b5f80fd5b5f601f19601f8301169050919050565b7f4e487b71000000000000000000000000000000000000000000000000000000005f52604160045260245ffd5b6200013e82620000f6565b810181811067ffffffffffffffff8211171562000160576200015f62000106565b5b80604052505050565b5f62000174620000dd565b905062000182828262000133565b919050565b5f67ffffffffffffffff821115620001a457620001a362000106565b5b620001af82620000f6565b9050602081019050919050565b5f5b83811015620001db578082015181840152602081019050620001be565b5f8484015250505050565b5f620001fc620001f68462000187565b62000169565b9050828152602081018484840111156200021b576200021a620000f2565b5b62000228848285620001bc565b509392505050565b5f82601f830112620002475762000246620000ee565b5b815162000259848260208601620001e6565b91505092915050565b5f80604083850312156200027b576200027a620000e6565b5b5f83015167ffffffffffffffff8111156200029b576200029a620000ea565b5b620002a98582860162000230565b925050602083015167ffffffffffffffff811115620002cd57620002cc620000ea565b5b620002db8582860162000230565b9150509250929050565b5f81519050919050565b7f4e487b71000000000000000000000000000000000000000000000000000000005f52602260045260245ffd5b5f60028204905060018216806200033457607f821691505b6020821081036200034a5762000349620002ef565b5b50919050565b5f819050815f5260205f209050919050565b5f6020601f8301049050919050565b5f82821b905092915050565b5f60088302620003ae7fffffffffffffffffffffffffffffffffffffffffffffffffffffffffffffffff8262000371565b620003ba868362000371565b95508019841693508086168417925050509392505050565b5f819050919050565b5f819050919050565b5f62000404620003fe620003f884620003d2565b620003db565b620003d2565b9050919050565b5f819050919050565b6200041f83620003e4565b620004376200042e826200040b565b8484546200037d565b825550505050565b5f90565b6200044d6200043f565b6200045a81848462000414565b505050565b5b818110156200048157620004755f8262000443565b60018101905062000460565b5050565b601f821115620004d0576200049a8162000350565b620004a58462000362565b81016020851015620004b5578190505b620004cd620004c48562000362565b8301826200045f565b50505b505050565b5f82821c905092915050565b5f620004f25f1984600802620004d5565b1980831691505092915050565b5f6200050c8383620004e1565b9150826002028217905092915050565b6200052782620002e5565b67ffffffffffffffff81111562000543576200054262000106565b5b6200054f82546200031c565b6200055c82828562000485565b5f60209050601f83116001811462000592575f84156200057d578287015190505b620005898582620004ff565b865550620005f8565b601f198416620005a28662000350565b5f5b82811015620005cb57848901518255600182019150602085019450602081019050620005a4565b86831015620005eb5784890151620005e7601f891682620004e1565b8355505b6001600288020188555050505b505050505050565b7f4e487b71000000000000000000000000000000000000000000000000000000005f52602160045260245ffd5b6111ce806200063b5f395ff3fe608060405234801561000f575f80fd5b50600436106100b2575f3560e01c8063b765cb441161006f578063b765cb441461017b578063b922394614610199578063c19d93fb146101a3578063d9e95a98146101c1578063f1cea4c7146101dd578063f3a8286f146101fb576100b2565b80634c0a6af0146100b65780636332abc9146100c0578063753ec103146100de57806387caea78146100fc578063aab46b7f1461012c578063af1540871461014a575b5f80fd5b6100be610219565b005b6100c86102dc565b6040516100d59190610a12565b60405180910390f35b6100e66102e2565b6040516100f39190610ab5565b60405180910390f35b61011660048036038101906101119190610b1b565b61036e565b6040516101239190610b55565b60405180910390f35b61013461061b565b6040516101419190610bad565b60405180910390f35b610164600480360381019061015f9190610bf0565b610640565b604051610172929190610c1b565b60405180910390f35b6101836106f2565b6040516101909190610ab5565b60405180910390f35b6101a161077e565b005b6101ab61084a565b6040516101b89190610cbc565b60405180910390f35b6101db60048036038101906101d69190610e01565b61085c565b005b6101e56109a3565b6040516101f29190610a12565b60405180910390f35b6102036109a9565b6040516102109190610a12565b60405180910390f35b5f80600281111561022d5761022c610c49565b5b60095f9054906101000a900460ff16600281111561024e5761024d610c49565b5b14610257575f80fd5b60045f9054906101000a900473ffffffffffffffffffffffffffffffffffffffff1673ffffffffffffffffffffffffffffffffffffffff163373ffffffffffffffffffffffffffffffffffffffff16146102af575f80fd5b600160095f6101000a81548160ff021916908360028111156102d4576102d3610c49565b5b021790555050565b60025481565b600680546102ef90610e88565b80601f016020809104026020016040519081016040528092919081815260200182805461031b90610e88565b80156103665780601f1061033d57610100808354040283529160200191610366565b820191905f5260205f20905b81548152906001019060200180831161034957829003601f168201915b505050505081565b5f600180600281111561038457610383610c49565b5b60095f9054906101000a900460ff1660028111156103a5576103a4610c49565b5b146103ae575f80fd5b60045f9054906101000a900473ffffffffffffffffffffffffffffffffffffffff1673ffffffffffffffffffffffffffffffffffffffff163373ffffffffffffffffffffffffffffffffffffffff1614610406575f80fd5b5f8060085f3373ffffffffffffffffffffffffffffffffffffffff1673ffffffffffffffffffffffffffffffffffffffff1681526020019081526020015f205f01805461045290610e88565b9050141580156104b157505f151560085f3373ffffffffffffffffffffffffffffffffffffffff1673ffffffffffffffffffffffffffffffffffffffff1681526020019081526020015f206001015f9054906101000a900460ff161515145b1561061157600160085f3373ffffffffffffffffffffffffffffffffffffffff1673ffffffffffffffffffffffffffffffffffffffff1681526020019081526020015f206001015f6101000a81548160ff0219169083151502179055506105166109af565b33815f019073ffffffffffffffffffffffffffffffffffffffff16908173ffffffffffffffffffffffffffffffffffffffff168152505084816020019015159081151581525050841561057a575f8081548092919061057490610ee5565b91905055505b8060075f60025481526020019081526020015f205f820151815f015f6101000a81548173ffffffffffffffffffffffffffffffffffffffff021916908373ffffffffffffffffffffffffffffffffffffffff1602179055506020820151815f0160146101000a81548160ff02191690831515021790555090505060035f81548092919061060690610ee5565b919050555060019150505b8092505050919050565b60045f9054906101000a900473ffffffffffffffffffffffffffffffffffffffff1681565b6008602052805f5260405f205f91509050805f01805461065f90610e88565b80601f016020809104026020016040519081016040528092919081815260200182805461068b90610e88565b80156106d65780601f106106ad576101008083540402835291602001916106d6565b820191905f5260205f20905b8154815290600101906020018083116106b957829003601f168201915b505050505090806001015f9054906101000a900460ff16905082565b600580546106ff90610e88565b80601f016020809104026020016040519081016040528092919081815260200182805461072b90610e88565b80156107765780601f1061074d57610100808354040283529160200191610776565b820191905f5260205f20905b81548152906001019060200180831161075957829003601f168201915b505050505081565b600180600281111561079357610792610c49565b5b60095f9054906101000a900460ff1660028111156107b4576107b3610c49565b5b146107bd575f80fd5b60045f9054906101000a900473ffffffffffffffffffffffffffffffffffffffff1673ffffffffffffffffffffffffffffffffffffffff163373ffffffffffffffffffffffffffffffffffffffff1614610815575f80fd5b600260095f6101000a81548160ff0219169083600281111561083a57610839610c49565b5b02179055505f5460018190555050565b60095f9054906101000a900460ff1681565b5f8060028111156108705761086f610c49565b5b60095f9054906101000a900460ff16600281111561089157610890610c49565b5b1461089a575f80fd5b60045f9054906101000a900473ffffffffffffffffffffffffffffffffffffffff1673ffffffffffffffffffffffffffffffffffffffff163373ffffffffffffffffffffffffffffffffffffffff16146108f2575f80fd5b6108fa6109df565b82815f01819052505f8160200190151590811515815250508060085f8673ffffffffffffffffffffffffffffffffffffffff1673ffffffffffffffffffffffffffffffffffffffff1681526020019081526020015f205f820151815f01908161096391906110c9565b506020820151816001015f6101000a81548160ff02191690831515021790555090505060025f81548092919061099890610ee5565b919050555050505050565b60035481565b60015481565b60405180604001604052805f73ffffffffffffffffffffffffffffffffffffffff1681526020015f151581525090565b6040518060400160405280606081526020015f151581525090565b5f819050919050565b610a0c816109fa565b82525050565b5f602082019050610a255f830184610a03565b92915050565b5f81519050919050565b5f82825260208201905092915050565b5f5b83811015610a62578082015181840152602081019050610a47565b5f8484015250505050565b5f601f19601f8301169050919050565b5f610a8782610a2b565b610a918185610a35565b9350610aa1818560208601610a45565b610aaa81610a6d565b840191505092915050565b5f6020820190508181035f830152610acd8184610a7d565b905092915050565b5f604051905090565b5f80fd5b5f80fd5b5f8115159050919050565b610afa81610ae6565b8114610b04575f80fd5b50565b5f81359050610b1581610af1565b92915050565b5f60208284031215610b3057610b2f610ade565b5b5f610b3d84828501610b07565b91505092915050565b610b4f81610ae6565b82525050565b5f602082019050610b685f830184610b46565b92915050565b5f73ffffffffffffffffffffffffffffffffffffffff82169050919050565b5f610b9782610b6e565b9050919050565b610ba781610b8d565b82525050565b5f602082019050610bc05f830184610b9e565b92915050565b610bcf81610b8d565b8114610bd9575f80fd5b50565b5f81359050610bea81610bc6565b92915050565b5f60208284031215610c0557610c04610ade565b5b5f610c1284828501610bdc565b91505092915050565b5f6040820190508181035f830152610c338185610a7d565b9050610c426020830184610b46565b9392505050565b7f4e487b71000000000000000000000000000000000000000000000000000000005f52602160045260245ffd5b60038110610c8757610c86610c49565b5b50565b5f819050610c9782610c76565b919050565b5f610ca682610c8a565b9050919050565b610cb681610c9c565b82525050565b5f602082019050610ccf5f830184610cad565b92915050565b5f80fd5b5f80fd5b7f4e487b71000000000000000000000000000000000000000000000000000000005f52604160045260245ffd5b610d1382610a6d565b810181811067ffffffffffffffff82111715610d3257610d31610cdd565b5b80604052505050565b5f610d44610ad5565b9050610d508282610d0a565b919050565b5f67ffffffffffffffff821115610d6f57610d6e610cdd565b5b610d7882610a6d565b9050602081019050919050565b828183375f83830152505050565b5f610da5610da084610d55565b610d3b565b905082815260208101848484011115610dc157610dc0610cd9565b5b610dcc848285610d85565b509392505050565b5f82601f830112610de857610de7610cd5565b5b8135610df8848260208601610d93565b91505092915050565b5f8060408385031215610e1757610e16610ade565b5b5f610e2485828601610bdc565b925050602083013567ffffffffffffffff811115610e4557610e44610ae2565b5b610e5185828601610dd4565b9150509250929050565b7f4e487b71000000000000000000000000000000000000000000000000000000005f52602260045260245ffd5b5f6002820490506001821680610e9f57607f821691505b602082108103610eb257610eb1610e5b565b5b50919050565b7f4e487b71000000000000000000000000000000000000000000000000000000005f52601160045260245ffd5b5f610eef826109fa565b91507fffffffffffffffffffffffffffffffffffffffffffffffffffffffffffffffff8203610f2157610f20610eb8565b5b600182019050919050565b5f819050815f5260205f209050919050565b5f6020601f8301049050919050565b5f82821b905092915050565b5f60088302610f887fffffffffffffffffffffffffffffffffffffffffffffffffffffffffffffffff82610f4d565b610f928683610f4d565b95508019841693508086168417925050509392505050565b5f819050919050565b5f610fcd610fc8610fc3846109fa565b610faa565b6109fa565b9050919050565b5f819050919050565b610fe683610fb3565b610ffa610ff282610fd4565b848454610f59565b825550505050565b5f90565b61100e611002565b611019818484610fdd565b505050565b5b8181101561103c576110315f82611006565b60018101905061101f565b5050565b601f8211156110815761105281610f2c565b61105b84610f3e565b8101602085101561106a578190505b61107e61107685610f3e565b83018261101e565b50505b505050565b5f82821c905092915050565b5f6110a15f1984600802611086565b1980831691505092915050565b5f6110b98383611092565b9150826002028217905092915050565b6110d282610a2b565b67ffffffffffffffff8111156110eb576110ea610cdd565b5b6110f58254610e88565b611100828285611040565b5f60209050601f831160018114611131575f841561111f578287015190505b61112985826110ae565b865550611190565b601f19841661113f86610f2c565b5f5b8281101561116657848901518255600182019150602085019450602081019050611141565b86831015611183578489015161117f601f891682611092565b8355505b6001600288020188555050505b50505050505056fea264697066735822122001f28c7f46ac07751a80fc61004a97eb0501368ffedee0a0ffd83cba6fc1b75064736f6c63430008150033",
					"opcodes": "PUSH1 0x80 PUSH1 0x40 MSTORE PUSH0 DUP1 SSTORE PUSH0 PUSH1 0x1 SSTORE PUSH0 PUSH1 0x2 SSTORE PUSH0 PUSH1 0x3 SSTORE CALLVALUE DUP1 ISZERO PUSH3 0x1F JUMPI PUSH0 DUP1 REVERT JUMPDEST POP PUSH1 0x40 MLOAD PUSH3 0x1809 CODESIZE SUB DUP1 PUSH3 0x1809 DUP4 CODECOPY DUP2 DUP2 ADD PUSH1 0x40 MSTORE DUP2 ADD SWAP1 PUSH3 0x45 SWAP2 SWAP1 PUSH3 0x262 JUMP JUMPDEST CALLER PUSH1 0x4 PUSH0 PUSH2 0x100 EXP DUP2 SLOAD DUP2 PUSH20 0xFFFFFFFFFFFFFFFFFFFFFFFFFFFFFFFFFFFFFFFF MUL NOT AND SWAP1 DUP4 PUSH20 0xFFFFFFFFFFFFFFFFFFFFFFFFFFFFFFFFFFFFFFFF AND MUL OR SWAP1 SSTORE POP DUP2 PUSH1 0x5 SWAP1 DUP2 PUSH3 0x96 SWAP2 SWAP1 PUSH3 0x51C JUMP JUMPDEST POP DUP1 PUSH1 0x6 SWAP1 DUP2 PUSH3 0xA8 SWAP2 SWAP1 PUSH3 0x51C JUMP JUMPDEST POP PUSH0 PUSH1 0x9 PUSH0 PUSH2 0x100 EXP DUP2 SLOAD DUP2 PUSH1 0xFF MUL NOT AND SWAP1 DUP4 PUSH1 0x2 DUP2 GT ISZERO PUSH3 0xD0 JUMPI PUSH3 0xCF PUSH3 0x600 JUMP JUMPDEST JUMPDEST MUL OR SWAP1 SSTORE POP POP POP PUSH3 0x62D JUMP JUMPDEST PUSH0 PUSH1 0x40 MLOAD SWAP1 POP SWAP1 JUMP JUMPDEST PUSH0 DUP1 REVERT JUMPDEST PUSH0 DUP1 REVERT JUMPDEST PUSH0 DUP1 REVERT JUMPDEST PUSH0 DUP1 REVERT JUMPDEST PUSH0 PUSH1 0x1F NOT PUSH1 0x1F DUP4 ADD AND SWAP1 POP SWAP2 SWAP1 POP JUMP JUMPDEST PUSH32 0x4E487B7100000000000000000000000000000000000000000000000000000000 PUSH0 MSTORE PUSH1 0x41 PUSH1 0x4 MSTORE PUSH1 0x24 PUSH0 REVERT JUMPDEST PUSH3 0x13E DUP3 PUSH3 0xF6 JUMP JUMPDEST DUP2 ADD DUP2 DUP2 LT PUSH8 0xFFFFFFFFFFFFFFFF DUP3 GT OR ISZERO PUSH3 0x160 JUMPI PUSH3 0x15F PUSH3 0x106 JUMP JUMPDEST JUMPDEST DUP1 PUSH1 0x40 MSTORE POP POP POP JUMP JUMPDEST PUSH0 PUSH3 0x174 PUSH3 0xDD JUMP JUMPDEST SWAP1 POP PUSH3 0x182 DUP3 DUP3 PUSH3 0x133 JUMP JUMPDEST SWAP2 SWAP1 POP JUMP JUMPDEST PUSH0 PUSH8 0xFFFFFFFFFFFFFFFF DUP3 GT ISZERO PUSH3 0x1A4 JUMPI PUSH3 0x1A3 PUSH3 0x106 JUMP JUMPDEST JUMPDEST PUSH3 0x1AF DUP3 PUSH3 0xF6 JUMP JUMPDEST SWAP1 POP PUSH1 0x20 DUP2 ADD SWAP1 POP SWAP2 SWAP1 POP JUMP JUMPDEST PUSH0 JUMPDEST DUP4 DUP2 LT ISZERO PUSH3 0x1DB JUMPI DUP1 DUP3 ADD MLOAD DUP2 DUP5 ADD MSTORE PUSH1 0x20 DUP2 ADD SWAP1 POP PUSH3 0x1BE JUMP JUMPDEST PUSH0 DUP5 DUP5 ADD MSTORE POP POP POP POP JUMP JUMPDEST PUSH0 PUSH3 0x1FC PUSH3 0x1F6 DUP5 PUSH3 0x187 JUMP JUMPDEST PUSH3 0x169 JUMP JUMPDEST SWAP1 POP DUP3 DUP2 MSTORE PUSH1 0x20 DUP2 ADD DUP5 DUP5 DUP5 ADD GT ISZERO PUSH3 0x21B JUMPI PUSH3 0x21A PUSH3 0xF2 JUMP JUMPDEST JUMPDEST PUSH3 0x228 DUP5 DUP3 DUP6 PUSH3 0x1BC JUMP JUMPDEST POP SWAP4 SWAP3 POP POP POP JUMP JUMPDEST PUSH0 DUP3 PUSH1 0x1F DUP4 ADD SLT PUSH3 0x247 JUMPI PUSH3 0x246 PUSH3 0xEE JUMP JUMPDEST JUMPDEST DUP2 MLOAD PUSH3 0x259 DUP5 DUP3 PUSH1 0x20 DUP7 ADD PUSH3 0x1E6 JUMP JUMPDEST SWAP2 POP POP SWAP3 SWAP2 POP POP JUMP JUMPDEST PUSH0 DUP1 PUSH1 0x40 DUP4 DUP6 SUB SLT ISZERO PUSH3 0x27B JUMPI PUSH3 0x27A PUSH3 0xE6 JUMP JUMPDEST JUMPDEST PUSH0 DUP4 ADD MLOAD PUSH8 0xFFFFFFFFFFFFFFFF DUP2 GT ISZERO PUSH3 0x29B JUMPI PUSH3 0x29A PUSH3 0xEA JUMP JUMPDEST JUMPDEST PUSH3 0x2A9 DUP6 DUP3 DUP7 ADD PUSH3 0x230 JUMP JUMPDEST SWAP3 POP POP PUSH1 0x20 DUP4 ADD MLOAD PUSH8 0xFFFFFFFFFFFFFFFF DUP2 GT ISZERO PUSH3 0x2CD JUMPI PUSH3 0x2CC PUSH3 0xEA JUMP JUMPDEST JUMPDEST PUSH3 0x2DB DUP6 DUP3 DUP7 ADD PUSH3 0x230 JUMP JUMPDEST SWAP2 POP POP SWAP3 POP SWAP3 SWAP1 POP JUMP JUMPDEST PUSH0 DUP2 MLOAD SWAP1 POP SWAP2 SWAP1 POP JUMP JUMPDEST PUSH32 0x4E487B7100000000000000000000000000000000000000000000000000000000 PUSH0 MSTORE PUSH1 0x22 PUSH1 0x4 MSTORE PUSH1 0x24 PUSH0 REVERT JUMPDEST PUSH0 PUSH1 0x2 DUP3 DIV SWAP1 POP PUSH1 0x1 DUP3 AND DUP1 PUSH3 0x334 JUMPI PUSH1 0x7F DUP3 AND SWAP2 POP JUMPDEST PUSH1 0x20 DUP3 LT DUP2 SUB PUSH3 0x34A JUMPI PUSH3 0x349 PUSH3 0x2EF JUMP JUMPDEST JUMPDEST POP SWAP2 SWAP1 POP JUMP JUMPDEST PUSH0 DUP2 SWAP1 POP DUP2 PUSH0 MSTORE PUSH1 0x20 PUSH0 KECCAK256 SWAP1 POP SWAP2 SWAP1 POP JUMP JUMPDEST PUSH0 PUSH1 0x20 PUSH1 0x1F DUP4 ADD DIV SWAP1 POP SWAP2 SWAP1 POP JUMP JUMPDEST PUSH0 DUP3 DUP3 SHL SWAP1 POP SWAP3 SWAP2 POP POP JUMP JUMPDEST PUSH0 PUSH1 0x8 DUP4 MUL PUSH3 0x3AE PUSH32 0xFFFFFFFFFFFFFFFFFFFFFFFFFFFFFFFFFFFFFFFFFFFFFFFFFFFFFFFFFFFFFFFF DUP3 PUSH3 0x371 JUMP JUMPDEST PUSH3 0x3BA DUP7 DUP4 PUSH3 0x371 JUMP JUMPDEST SWAP6 POP DUP1 NOT DUP5 AND SWAP4 POP DUP1 DUP7 AND DUP5 OR SWAP3 POP POP POP SWAP4 SWAP3 POP POP POP JUMP JUMPDEST PUSH0 DUP2 SWAP1 POP SWAP2 SWAP1 POP JUMP JUMPDEST PUSH0 DUP2 SWAP1 POP SWAP2 SWAP1 POP JUMP JUMPDEST PUSH0 PUSH3 0x404 PUSH3 0x3FE PUSH3 0x3F8 DUP5 PUSH3 0x3D2 JUMP JUMPDEST PUSH3 0x3DB JUMP JUMPDEST PUSH3 0x3D2 JUMP JUMPDEST SWAP1 POP SWAP2 SWAP1 POP JUMP JUMPDEST PUSH0 DUP2 SWAP1 POP SWAP2 SWAP1 POP JUMP JUMPDEST PUSH3 0x41F DUP4 PUSH3 0x3E4 JUMP JUMPDEST PUSH3 0x437 PUSH3 0x42E DUP3 PUSH3 0x40B JUMP JUMPDEST DUP5 DUP5 SLOAD PUSH3 0x37D JUMP JUMPDEST DUP3 SSTORE POP POP POP POP JUMP JUMPDEST PUSH0 SWAP1 JUMP JUMPDEST PUSH3 0x44D PUSH3 0x43F JUMP JUMPDEST PUSH3 0x45A DUP2 DUP5 DUP5 PUSH3 0x414 JUMP JUMPDEST POP POP POP JUMP JUMPDEST JUMPDEST DUP2 DUP2 LT ISZERO PUSH3 0x481 JUMPI PUSH3 0x475 PUSH0 DUP3 PUSH3 0x443 JUMP JUMPDEST PUSH1 0x1 DUP2 ADD SWAP1 POP PUSH3 0x460 JUMP JUMPDEST POP POP JUMP JUMPDEST PUSH1 0x1F DUP3 GT ISZERO PUSH3 0x4D0 JUMPI PUSH3 0x49A DUP2 PUSH3 0x350 JUMP JUMPDEST PUSH3 0x4A5 DUP5 PUSH3 0x362 JUMP JUMPDEST DUP2 ADD PUSH1 0x20 DUP6 LT ISZERO PUSH3 0x4B5 JUMPI DUP2 SWAP1 POP JUMPDEST PUSH3 0x4CD PUSH3 0x4C4 DUP6 PUSH3 0x362 JUMP JUMPDEST DUP4 ADD DUP3 PUSH3 0x45F JUMP JUMPDEST POP POP JUMPDEST POP POP POP JUMP JUMPDEST PUSH0 DUP3 DUP3 SHR SWAP1 POP SWAP3 SWAP2 POP POP JUMP JUMPDEST PUSH0 PUSH3 0x4F2 PUSH0 NOT DUP5 PUSH1 0x8 MUL PUSH3 0x4D5 JUMP JUMPDEST NOT DUP1 DUP4 AND SWAP2 POP POP SWAP3 SWAP2 POP POP JUMP JUMPDEST PUSH0 PUSH3 0x50C DUP4 DUP4 PUSH3 0x4E1 JUMP JUMPDEST SWAP2 POP DUP3 PUSH1 0x2 MUL DUP3 OR SWAP1 POP SWAP3 SWAP2 POP POP JUMP JUMPDEST PUSH3 0x527 DUP3 PUSH3 0x2E5 JUMP JUMPDEST PUSH8 0xFFFFFFFFFFFFFFFF DUP2 GT ISZERO PUSH3 0x543 JUMPI PUSH3 0x542 PUSH3 0x106 JUMP JUMPDEST JUMPDEST PUSH3 0x54F DUP3 SLOAD PUSH3 0x31C JUMP JUMPDEST PUSH3 0x55C DUP3 DUP3 DUP6 PUSH3 0x485 JUMP JUMPDEST PUSH0 PUSH1 0x20 SWAP1 POP PUSH1 0x1F DUP4 GT PUSH1 0x1 DUP2 EQ PUSH3 0x592 JUMPI PUSH0 DUP5 ISZERO PUSH3 0x57D JUMPI DUP3 DUP8 ADD MLOAD SWAP1 POP JUMPDEST PUSH3 0x589 DUP6 DUP3 PUSH3 0x4FF JUMP JUMPDEST DUP7 SSTORE POP PUSH3 0x5F8 JUMP JUMPDEST PUSH1 0x1F NOT DUP5 AND PUSH3 0x5A2 DUP7 PUSH3 0x350 JUMP JUMPDEST PUSH0 JUMPDEST DUP3 DUP2 LT ISZERO PUSH3 0x5CB JUMPI DUP5 DUP10 ADD MLOAD DUP3 SSTORE PUSH1 0x1 DUP3 ADD SWAP2 POP PUSH1 0x20 DUP6 ADD SWAP5 POP PUSH1 0x20 DUP2 ADD SWAP1 POP PUSH3 0x5A4 JUMP JUMPDEST DUP7 DUP4 LT ISZERO PUSH3 0x5EB JUMPI DUP5 DUP10 ADD MLOAD PUSH3 0x5E7 PUSH1 0x1F DUP10 AND DUP3 PUSH3 0x4E1 JUMP JUMPDEST DUP4 SSTORE POP JUMPDEST PUSH1 0x1 PUSH1 0x2 DUP9 MUL ADD DUP9 SSTORE POP POP POP JUMPDEST POP POP POP POP POP POP JUMP JUMPDEST PUSH32 0x4E487B7100000000000000000000000000000000000000000000000000000000 PUSH0 MSTORE PUSH1 0x21 PUSH1 0x4 MSTORE PUSH1 0x24 PUSH0 REVERT JUMPDEST PUSH2 0x11CE DUP1 PUSH3 0x63B PUSH0 CODECOPY PUSH0 RETURN INVALID PUSH1 0x80 PUSH1 0x40 MSTORE CALLVALUE DUP1 ISZERO PUSH2 0xF JUMPI PUSH0 DUP1 REVERT JUMPDEST POP PUSH1 0x4 CALLDATASIZE LT PUSH2 0xB2 JUMPI PUSH0 CALLDATALOAD PUSH1 0xE0 SHR DUP1 PUSH4 0xB765CB44 GT PUSH2 0x6F JUMPI DUP1 PUSH4 0xB765CB44 EQ PUSH2 0x17B JUMPI DUP1 PUSH4 0xB9223946 EQ PUSH2 0x199 JUMPI DUP1 PUSH4 0xC19D93FB EQ PUSH2 0x1A3 JUMPI DUP1 PUSH4 0xD9E95A98 EQ PUSH2 0x1C1 JUMPI DUP1 PUSH4 0xF1CEA4C7 EQ PUSH2 0x1DD JUMPI DUP1 PUSH4 0xF3A8286F EQ PUSH2 0x1FB JUMPI PUSH2 0xB2 JUMP JUMPDEST DUP1 PUSH4 0x4C0A6AF0 EQ PUSH2 0xB6 JUMPI DUP1 PUSH4 0x6332ABC9 EQ PUSH2 0xC0 JUMPI DUP1 PUSH4 0x753EC103 EQ PUSH2 0xDE JUMPI DUP1 PUSH4 0x87CAEA78 EQ PUSH2 0xFC JUMPI DUP1 PUSH4 0xAAB46B7F EQ PUSH2 0x12C JUMPI DUP1 PUSH4 0xAF154087 EQ PUSH2 0x14A JUMPI JUMPDEST PUSH0 DUP1 REVERT JUMPDEST PUSH2 0xBE PUSH2 0x219 JUMP JUMPDEST STOP JUMPDEST PUSH2 0xC8 PUSH2 0x2DC JUMP JUMPDEST PUSH1 0x40 MLOAD PUSH2 0xD5 SWAP2 SWAP1 PUSH2 0xA12 JUMP JUMPDEST PUSH1 0x40 MLOAD DUP1 SWAP2 SUB SWAP1 RETURN JUMPDEST PUSH2 0xE6 PUSH2 0x2E2 JUMP JUMPDEST PUSH1 0x40 MLOAD PUSH2 0xF3 SWAP2 SWAP1 PUSH2 0xAB5 JUMP JUMPDEST PUSH1 0x40 MLOAD DUP1 SWAP2 SUB SWAP1 RETURN JUMPDEST PUSH2 0x116 PUSH1 0x4 DUP1 CALLDATASIZE SUB DUP2 ADD SWAP1 PUSH2 0x111 SWAP2 SWAP1 PUSH2 0xB1B JUMP JUMPDEST PUSH2 0x36E JUMP JUMPDEST PUSH1 0x40 MLOAD PUSH2 0x123 SWAP2 SWAP1 PUSH2 0xB55 JUMP JUMPDEST PUSH1 0x40 MLOAD DUP1 SWAP2 SUB SWAP1 RETURN JUMPDEST PUSH2 0x134 PUSH2 0x61B JUMP JUMPDEST PUSH1 0x40 MLOAD PUSH2 0x141 SWAP2 SWAP1 PUSH2 0xBAD JUMP JUMPDEST PUSH1 0x40 MLOAD DUP1 SWAP2 SUB SWAP1 RETURN JUMPDEST PUSH2 0x164 PUSH1 0x4 DUP1 CALLDATASIZE SUB DUP2 ADD SWAP1 PUSH2 0x15F SWAP2 SWAP1 PUSH2 0xBF0 JUMP JUMPDEST PUSH2 0x640 JUMP JUMPDEST PUSH1 0x40 MLOAD PUSH2 0x172 SWAP3 SWAP2 SWAP1 PUSH2 0xC1B JUMP JUMPDEST PUSH1 0x40 MLOAD DUP1 SWAP2 SUB SWAP1 RETURN JUMPDEST PUSH2 0x183 PUSH2 0x6F2 JUMP JUMPDEST PUSH1 0x40 MLOAD PUSH2 0x190 SWAP2 SWAP1 PUSH2 0xAB5 JUMP JUMPDEST PUSH1 0x40 MLOAD DUP1 SWAP2 SUB SWAP1 RETURN JUMPDEST PUSH2 0x1A1 PUSH2 0x77E JUMP JUMPDEST STOP JUMPDEST PUSH2 0x1AB PUSH2 0x84A JUMP JUMPDEST PUSH1 0x40 MLOAD PUSH2 0x1B8 SWAP2 SWAP1 PUSH2 0xCBC JUMP JUMPDEST PUSH1 0x40 MLOAD DUP1 SWAP2 SUB SWAP1 RETURN JUMPDEST PUSH2 0x1DB PUSH1 0x4 DUP1 CALLDATASIZE SUB DUP2 ADD SWAP1 PUSH2 0x1D6 SWAP2 SWAP1 PUSH2 0xE01 JUMP JUMPDEST PUSH2 0x85C JUMP JUMPDEST STOP JUMPDEST PUSH2 0x1E5 PUSH2 0x9A3 JUMP JUMPDEST PUSH1 0x40 MLOAD PUSH2 0x1F2 SWAP2 SWAP1 PUSH2 0xA12 JUMP JUMPDEST PUSH1 0x40 MLOAD DUP1 SWAP2 SUB SWAP1 RETURN JUMPDEST PUSH2 0x203 PUSH2 0x9A9 JUMP JUMPDEST PUSH1 0x40 MLOAD PUSH2 0x210 SWAP2 SWAP1 PUSH2 0xA12 JUMP JUMPDEST PUSH1 0x40 MLOAD DUP1 SWAP2 SUB SWAP1 RETURN JUMPDEST PUSH0 DUP1 PUSH1 0x2 DUP2 GT ISZERO PUSH2 0x22D JUMPI PUSH2 0x22C PUSH2 0xC49 JUMP JUMPDEST JUMPDEST PUSH1 0x9 PUSH0 SWAP1 SLOAD SWAP1 PUSH2 0x100 EXP SWAP1 DIV PUSH1 0xFF AND PUSH1 0x2 DUP2 GT ISZERO PUSH2 0x24E JUMPI PUSH2 0x24D PUSH2 0xC49 JUMP JUMPDEST JUMPDEST EQ PUSH2 0x257 JUMPI PUSH0 DUP1 REVERT JUMPDEST PUSH1 0x4 PUSH0 SWAP1 SLOAD SWAP1 PUSH2 0x100 EXP SWAP1 DIV PUSH20 0xFFFFFFFFFFFFFFFFFFFFFFFFFFFFFFFFFFFFFFFF AND PUSH20 0xFFFFFFFFFFFFFFFFFFFFFFFFFFFFFFFFFFFFFFFF AND CALLER PUSH20 0xFFFFFFFFFFFFFFFFFFFFFFFFFFFFFFFFFFFFFFFF AND EQ PUSH2 0x2AF JUMPI PUSH0 DUP1 REVERT JUMPDEST PUSH1 0x1 PUSH1 0x9 PUSH0 PUSH2 0x100 EXP DUP2 SLOAD DUP2 PUSH1 0xFF MUL NOT AND SWAP1 DUP4 PUSH1 0x2 DUP2 GT ISZERO PUSH2 0x2D4 JUMPI PUSH2 0x2D3 PUSH2 0xC49 JUMP JUMPDEST JUMPDEST MUL OR SWAP1 SSTORE POP POP JUMP JUMPDEST PUSH1 0x2 SLOAD DUP2 JUMP JUMPDEST PUSH1 0x6 DUP1 SLOAD PUSH2 0x2EF SWAP1 PUSH2 0xE88 JUMP JUMPDEST DUP1 PUSH1 0x1F ADD PUSH1 0x20 DUP1 SWAP2 DIV MUL PUSH1 0x20 ADD PUSH1 0x40 MLOAD SWAP1 DUP2 ADD PUSH1 0x40 MSTORE DUP1 SWAP3 SWAP2 SWAP1 DUP2 DUP2 MSTORE PUSH1 0x20 ADD DUP3 DUP1 SLOAD PUSH2 0x31B SWAP1 PUSH2 0xE88 JUMP JUMPDEST DUP1 ISZERO PUSH2 0x366 JUMPI DUP1 PUSH1 0x1F LT PUSH2 0x33D JUMPI PUSH2 0x100 DUP1 DUP4 SLOAD DIV MUL DUP4 MSTORE SWAP2 PUSH1 0x20 ADD SWAP2 PUSH2 0x366 JUMP JUMPDEST DUP3 ADD SWAP2 SWAP1 PUSH0 MSTORE PUSH1 0x20 PUSH0 KECCAK256 SWAP1 JUMPDEST DUP2 SLOAD DUP2 MSTORE SWAP1 PUSH1 0x1 ADD SWAP1 PUSH1 0x20 ADD DUP1 DUP4 GT PUSH2 0x349 JUMPI DUP3 SWAP1 SUB PUSH1 0x1F AND DUP3 ADD SWAP2 JUMPDEST POP POP POP POP POP DUP2 JUMP JUMPDEST PUSH0 PUSH1 0x1 DUP1 PUSH1 0x2 DUP2 GT ISZERO PUSH2 0x384 JUMPI PUSH2 0x383 PUSH2 0xC49 JUMP JUMPDEST JUMPDEST PUSH1 0x9 PUSH0 SWAP1 SLOAD SWAP1 PUSH2 0x100 EXP SWAP1 DIV PUSH1 0xFF AND PUSH1 0x2 DUP2 GT ISZERO PUSH2 0x3A5 JUMPI PUSH2 0x3A4 PUSH2 0xC49 JUMP JUMPDEST JUMPDEST EQ PUSH2 0x3AE JUMPI PUSH0 DUP1 REVERT JUMPDEST PUSH1 0x4 PUSH0 SWAP1 SLOAD SWAP1 PUSH2 0x100 EXP SWAP1 DIV PUSH20 0xFFFFFFFFFFFFFFFFFFFFFFFFFFFFFFFFFFFFFFFF AND PUSH20 0xFFFFFFFFFFFFFFFFFFFFFFFFFFFFFFFFFFFFFFFF AND CALLER PUSH20 0xFFFFFFFFFFFFFFFFFFFFFFFFFFFFFFFFFFFFFFFF AND EQ PUSH2 0x406 JUMPI PUSH0 DUP1 REVERT JUMPDEST PUSH0 DUP1 PUSH1 0x8 PUSH0 CALLER PUSH20 0xFFFFFFFFFFFFFFFFFFFFFFFFFFFFFFFFFFFFFFFF AND PUSH20 0xFFFFFFFFFFFFFFFFFFFFFFFFFFFFFFFFFFFFFFFF AND DUP2 MSTORE PUSH1 0x20 ADD SWAP1 DUP2 MSTORE PUSH1 0x20 ADD PUSH0 KECCAK256 PUSH0 ADD DUP1 SLOAD PUSH2 0x452 SWAP1 PUSH2 0xE88 JUMP JUMPDEST SWAP1 POP EQ ISZERO DUP1 ISZERO PUSH2 0x4B1 JUMPI POP PUSH0 ISZERO ISZERO PUSH1 0x8 PUSH0 CALLER PUSH20 0xFFFFFFFFFFFFFFFFFFFFFFFFFFFFFFFFFFFFFFFF AND PUSH20 0xFFFFFFFFFFFFFFFFFFFFFFFFFFFFFFFFFFFFFFFF AND DUP2 MSTORE PUSH1 0x20 ADD SWAP1 DUP2 MSTORE PUSH1 0x20 ADD PUSH0 KECCAK256 PUSH1 0x1 ADD PUSH0 SWAP1 SLOAD SWAP1 PUSH2 0x100 EXP SWAP1 DIV PUSH1 0xFF AND ISZERO ISZERO EQ JUMPDEST ISZERO PUSH2 0x611 JUMPI PUSH1 0x1 PUSH1 0x8 PUSH0 CALLER PUSH20 0xFFFFFFFFFFFFFFFFFFFFFFFFFFFFFFFFFFFFFFFF AND PUSH20 0xFFFFFFFFFFFFFFFFFFFFFFFFFFFFFFFFFFFFFFFF AND DUP2 MSTORE PUSH1 0x20 ADD SWAP1 DUP2 MSTORE PUSH1 0x20 ADD PUSH0 KECCAK256 PUSH1 0x1 ADD PUSH0 PUSH2 0x100 EXP DUP2 SLOAD DUP2 PUSH1 0xFF MUL NOT AND SWAP1 DUP4 ISZERO ISZERO MUL OR SWAP1 SSTORE POP PUSH2 0x516 PUSH2 0x9AF JUMP JUMPDEST CALLER DUP2 PUSH0 ADD SWAP1 PUSH20 0xFFFFFFFFFFFFFFFFFFFFFFFFFFFFFFFFFFFFFFFF AND SWAP1 DUP2 PUSH20 0xFFFFFFFFFFFFFFFFFFFFFFFFFFFFFFFFFFFFFFFF AND DUP2 MSTORE POP POP DUP5 DUP2 PUSH1 0x20 ADD SWAP1 ISZERO ISZERO SWAP1 DUP2 ISZERO ISZERO DUP2 MSTORE POP POP DUP5 ISZERO PUSH2 0x57A JUMPI PUSH0 DUP1 DUP2 SLOAD DUP1 SWAP3 SWAP2 SWAP1 PUSH2 0x574 SWAP1 PUSH2 0xEE5 JUMP JUMPDEST SWAP2 SWAP1 POP SSTORE POP JUMPDEST DUP1 PUSH1 0x7 PUSH0 PUSH1 0x2 SLOAD DUP2 MSTORE PUSH1 0x20 ADD SWAP1 DUP2 MSTORE PUSH1 0x20 ADD PUSH0 KECCAK256 PUSH0 DUP3 ADD MLOAD DUP2 PUSH0 ADD PUSH0 PUSH2 0x100 EXP DUP2 SLOAD DUP2 PUSH20 0xFFFFFFFFFFFFFFFFFFFFFFFFFFFFFFFFFFFFFFFF MUL NOT AND SWAP1 DUP4 PUSH20 0xFFFFFFFFFFFFFFFFFFFFFFFFFFFFFFFFFFFFFFFF AND MUL OR SWAP1 SSTORE POP PUSH1 0x20 DUP3 ADD MLOAD DUP2 PUSH0 ADD PUSH1 0x14 PUSH2 0x100 EXP DUP2 SLOAD DUP2 PUSH1 0xFF MUL NOT AND SWAP1 DUP4 ISZERO ISZERO MUL OR SWAP1 SSTORE POP SWAP1 POP POP PUSH1 0x3 PUSH0 DUP2 SLOAD DUP1 SWAP3 SWAP2 SWAP1 PUSH2 0x606 SWAP1 PUSH2 0xEE5 JUMP JUMPDEST SWAP2 SWAP1 POP SSTORE POP PUSH1 0x1 SWAP2 POP POP JUMPDEST DUP1 SWAP3 POP POP POP SWAP2 SWAP1 POP JUMP JUMPDEST PUSH1 0x4 PUSH0 SWAP1 SLOAD SWAP1 PUSH2 0x100 EXP SWAP1 DIV PUSH20 0xFFFFFFFFFFFFFFFFFFFFFFFFFFFFFFFFFFFFFFFF AND DUP2 JUMP JUMPDEST PUSH1 0x8 PUSH1 0x20 MSTORE DUP1 PUSH0 MSTORE PUSH1 0x40 PUSH0 KECCAK256 PUSH0 SWAP2 POP SWAP1 POP DUP1 PUSH0 ADD DUP1 SLOAD PUSH2 0x65F SWAP1 PUSH2 0xE88 JUMP JUMPDEST DUP1 PUSH1 0x1F ADD PUSH1 0x20 DUP1 SWAP2 DIV MUL PUSH1 0x20 ADD PUSH1 0x40 MLOAD SWAP1 DUP2 ADD PUSH1 0x40 MSTORE DUP1 SWAP3 SWAP2 SWAP1 DUP2 DUP2 MSTORE PUSH1 0x20 ADD DUP3 DUP1 SLOAD PUSH2 0x68B SWAP1 PUSH2 0xE88 JUMP JUMPDEST DUP1 ISZERO PUSH2 0x6D6 JUMPI DUP1 PUSH1 0x1F LT PUSH2 0x6AD JUMPI PUSH2 0x100 DUP1 DUP4 SLOAD DIV MUL DUP4 MSTORE SWAP2 PUSH1 0x20 ADD SWAP2 PUSH2 0x6D6 JUMP JUMPDEST DUP3 ADD SWAP2 SWAP1 PUSH0 MSTORE PUSH1 0x20 PUSH0 KECCAK256 SWAP1 JUMPDEST DUP2 SLOAD DUP2 MSTORE SWAP1 PUSH1 0x1 ADD SWAP1 PUSH1 0x20 ADD DUP1 DUP4 GT PUSH2 0x6B9 JUMPI DUP3 SWAP1 SUB PUSH1 0x1F AND DUP3 ADD SWAP2 JUMPDEST POP POP POP POP POP SWAP1 DUP1 PUSH1 0x1 ADD PUSH0 SWAP1 SLOAD SWAP1 PUSH2 0x100 EXP SWAP1 DIV PUSH1 0xFF AND SWAP1 POP DUP3 JUMP JUMPDEST PUSH1 0x5 DUP1 SLOAD PUSH2 0x6FF SWAP1 PUSH2 0xE88 JUMP JUMPDEST DUP1 PUSH1 0x1F ADD PUSH1 0x20 DUP1 SWAP2 DIV MUL PUSH1 0x20 ADD PUSH1 0x40 MLOAD SWAP1 DUP2 ADD PUSH1 0x40 MSTORE DUP1 SWAP3 SWAP2 SWAP1 DUP2 DUP2 MSTORE PUSH1 0x20 ADD DUP3 DUP1 SLOAD PUSH2 0x72B SWAP1 PUSH2 0xE88 JUMP JUMPDEST DUP1 ISZERO PUSH2 0x776 JUMPI DUP1 PUSH1 0x1F LT PUSH2 0x74D JUMPI PUSH2 0x100 DUP1 DUP4 SLOAD DIV MUL DUP4 MSTORE SWAP2 PUSH1 0x20 ADD SWAP2 PUSH2 0x776 JUMP JUMPDEST DUP3 ADD SWAP2 SWAP1 PUSH0 MSTORE PUSH1 0x20 PUSH0 KECCAK256 SWAP1 JUMPDEST DUP2 SLOAD DUP2 MSTORE SWAP1 PUSH1 0x1 ADD SWAP1 PUSH1 0x20 ADD DUP1 DUP4 GT PUSH2 0x759 JUMPI DUP3 SWAP1 SUB PUSH1 0x1F AND DUP3 ADD SWAP2 JUMPDEST POP POP POP POP POP DUP2 JUMP JUMPDEST PUSH1 0x1 DUP1 PUSH1 0x2 DUP2 GT ISZERO PUSH2 0x793 JUMPI PUSH2 0x792 PUSH2 0xC49 JUMP JUMPDEST JUMPDEST PUSH1 0x9 PUSH0 SWAP1 SLOAD SWAP1 PUSH2 0x100 EXP SWAP1 DIV PUSH1 0xFF AND PUSH1 0x2 DUP2 GT ISZERO PUSH2 0x7B4 JUMPI PUSH2 0x7B3 PUSH2 0xC49 JUMP JUMPDEST JUMPDEST EQ PUSH2 0x7BD JUMPI PUSH0 DUP1 REVERT JUMPDEST PUSH1 0x4 PUSH0 SWAP1 SLOAD SWAP1 PUSH2 0x100 EXP SWAP1 DIV PUSH20 0xFFFFFFFFFFFFFFFFFFFFFFFFFFFFFFFFFFFFFFFF AND PUSH20 0xFFFFFFFFFFFFFFFFFFFFFFFFFFFFFFFFFFFFFFFF AND CALLER PUSH20 0xFFFFFFFFFFFFFFFFFFFFFFFFFFFFFFFFFFFFFFFF AND EQ PUSH2 0x815 JUMPI PUSH0 DUP1 REVERT JUMPDEST PUSH1 0x2 PUSH1 0x9 PUSH0 PUSH2 0x100 EXP DUP2 SLOAD DUP2 PUSH1 0xFF MUL NOT AND SWAP1 DUP4 PUSH1 0x2 DUP2 GT ISZERO PUSH2 0x83A JUMPI PUSH2 0x839 PUSH2 0xC49 JUMP JUMPDEST JUMPDEST MUL OR SWAP1 SSTORE POP PUSH0 SLOAD PUSH1 0x1 DUP2 SWAP1 SSTORE POP POP JUMP JUMPDEST PUSH1 0x9 PUSH0 SWAP1 SLOAD SWAP1 PUSH2 0x100 EXP SWAP1 DIV PUSH1 0xFF AND DUP2 JUMP JUMPDEST PUSH0 DUP1 PUSH1 0x2 DUP2 GT ISZERO PUSH2 0x870 JUMPI PUSH2 0x86F PUSH2 0xC49 JUMP JUMPDEST JUMPDEST PUSH1 0x9 PUSH0 SWAP1 SLOAD SWAP1 PUSH2 0x100 EXP SWAP1 DIV PUSH1 0xFF AND PUSH1 0x2 DUP2 GT ISZERO PUSH2 0x891 JUMPI PUSH2 0x890 PUSH2 0xC49 JUMP JUMPDEST JUMPDEST EQ PUSH2 0x89A JUMPI PUSH0 DUP1 REVERT JUMPDEST PUSH1 0x4 PUSH0 SWAP1 SLOAD SWAP1 PUSH2 0x100 EXP SWAP1 DIV PUSH20 0xFFFFFFFFFFFFFFFFFFFFFFFFFFFFFFFFFFFFFFFF AND PUSH20 0xFFFFFFFFFFFFFFFFFFFFFFFFFFFFFFFFFFFFFFFF AND CALLER PUSH20 0xFFFFFFFFFFFFFFFFFFFFFFFFFFFFFFFFFFFFFFFF AND EQ PUSH2 0x8F2 JUMPI PUSH0 DUP1 REVERT JUMPDEST PUSH2 0x8FA PUSH2 0x9DF JUMP JUMPDEST DUP3 DUP2 PUSH0 ADD DUP2 SWAP1 MSTORE POP PUSH0 DUP2 PUSH1 0x20 ADD SWAP1 ISZERO ISZERO SWAP1 DUP2 ISZERO ISZERO DUP2 MSTORE POP POP DUP1 PUSH1 0x8 PUSH0 DUP7 PUSH20 0xFFFFFFFFFFFFFFFFFFFFFFFFFFFFFFFFFFFFFFFF AND PUSH20 0xFFFFFFFFFFFFFFFFFFFFFFFFFFFFFFFFFFFFFFFF AND DUP2 MSTORE PUSH1 0x20 ADD SWAP1 DUP2 MSTORE PUSH1 0x20 ADD PUSH0 KECCAK256 PUSH0 DUP3 ADD MLOAD DUP2 PUSH0 ADD SWAP1 DUP2 PUSH2 0x963 SWAP2 SWAP1 PUSH2 0x10C9 JUMP JUMPDEST POP PUSH1 0x20 DUP3 ADD MLOAD DUP2 PUSH1 0x1 ADD PUSH0 PUSH2 0x100 EXP DUP2 SLOAD DUP2 PUSH1 0xFF MUL NOT AND SWAP1 DUP4 ISZERO ISZERO MUL OR SWAP1 SSTORE POP SWAP1 POP POP PUSH1 0x2 PUSH0 DUP2 SLOAD DUP1 SWAP3 SWAP2 SWAP1 PUSH2 0x998 SWAP1 PUSH2 0xEE5 JUMP JUMPDEST SWAP2 SWAP1 POP SSTORE POP POP POP POP POP JUMP JUMPDEST PUSH1 0x3 SLOAD DUP2 JUMP JUMPDEST PUSH1 0x1 SLOAD DUP2 JUMP JUMPDEST PUSH1 0x40 MLOAD DUP1 PUSH1 0x40 ADD PUSH1 0x40 MSTORE DUP1 PUSH0 PUSH20 0xFFFFFFFFFFFFFFFFFFFFFFFFFFFFFFFFFFFFFFFF AND DUP2 MSTORE PUSH1 0x20 ADD PUSH0 ISZERO ISZERO DUP2 MSTORE POP SWAP1 JUMP JUMPDEST PUSH1 0x40 MLOAD DUP1 PUSH1 0x40 ADD PUSH1 0x40 MSTORE DUP1 PUSH1 0x60 DUP2 MSTORE PUSH1 0x20 ADD PUSH0 ISZERO ISZERO DUP2 MSTORE POP SWAP1 JUMP JUMPDEST PUSH0 DUP2 SWAP1 POP SWAP2 SWAP1 POP JUMP JUMPDEST PUSH2 0xA0C DUP2 PUSH2 0x9FA JUMP JUMPDEST DUP3 MSTORE POP POP JUMP JUMPDEST PUSH0 PUSH1 0x20 DUP3 ADD SWAP1 POP PUSH2 0xA25 PUSH0 DUP4 ADD DUP5 PUSH2 0xA03 JUMP JUMPDEST SWAP3 SWAP2 POP POP JUMP JUMPDEST PUSH0 DUP2 MLOAD SWAP1 POP SWAP2 SWAP1 POP JUMP JUMPDEST PUSH0 DUP3 DUP3 MSTORE PUSH1 0x20 DUP3 ADD SWAP1 POP SWAP3 SWAP2 POP POP JUMP JUMPDEST PUSH0 JUMPDEST DUP4 DUP2 LT ISZERO PUSH2 0xA62 JUMPI DUP1 DUP3 ADD MLOAD DUP2 DUP5 ADD MSTORE PUSH1 0x20 DUP2 ADD SWAP1 POP PUSH2 0xA47 JUMP JUMPDEST PUSH0 DUP5 DUP5 ADD MSTORE POP POP POP POP JUMP JUMPDEST PUSH0 PUSH1 0x1F NOT PUSH1 0x1F DUP4 ADD AND SWAP1 POP SWAP2 SWAP1 POP JUMP JUMPDEST PUSH0 PUSH2 0xA87 DUP3 PUSH2 0xA2B JUMP JUMPDEST PUSH2 0xA91 DUP2 DUP6 PUSH2 0xA35 JUMP JUMPDEST SWAP4 POP PUSH2 0xAA1 DUP2 DUP6 PUSH1 0x20 DUP7 ADD PUSH2 0xA45 JUMP JUMPDEST PUSH2 0xAAA DUP2 PUSH2 0xA6D JUMP JUMPDEST DUP5 ADD SWAP2 POP POP SWAP3 SWAP2 POP POP JUMP JUMPDEST PUSH0 PUSH1 0x20 DUP3 ADD SWAP1 POP DUP2 DUP2 SUB PUSH0 DUP4 ADD MSTORE PUSH2 0xACD DUP2 DUP5 PUSH2 0xA7D JUMP JUMPDEST SWAP1 POP SWAP3 SWAP2 POP POP JUMP JUMPDEST PUSH0 PUSH1 0x40 MLOAD SWAP1 POP SWAP1 JUMP JUMPDEST PUSH0 DUP1 REVERT JUMPDEST PUSH0 DUP1 REVERT JUMPDEST PUSH0 DUP2 ISZERO ISZERO SWAP1 POP SWAP2 SWAP1 POP JUMP JUMPDEST PUSH2 0xAFA DUP2 PUSH2 0xAE6 JUMP JUMPDEST DUP2 EQ PUSH2 0xB04 JUMPI PUSH0 DUP1 REVERT JUMPDEST POP JUMP JUMPDEST PUSH0 DUP2 CALLDATALOAD SWAP1 POP PUSH2 0xB15 DUP2 PUSH2 0xAF1 JUMP JUMPDEST SWAP3 SWAP2 POP POP JUMP JUMPDEST PUSH0 PUSH1 0x20 DUP3 DUP5 SUB SLT ISZERO PUSH2 0xB30 JUMPI PUSH2 0xB2F PUSH2 0xADE JUMP JUMPDEST JUMPDEST PUSH0 PUSH2 0xB3D DUP5 DUP3 DUP6 ADD PUSH2 0xB07 JUMP JUMPDEST SWAP2 POP POP SWAP3 SWAP2 POP POP JUMP JUMPDEST PUSH2 0xB4F DUP2 PUSH2 0xAE6 JUMP JUMPDEST DUP3 MSTORE POP POP JUMP JUMPDEST PUSH0 PUSH1 0x20 DUP3 ADD SWAP1 POP PUSH2 0xB68 PUSH0 DUP4 ADD DUP5 PUSH2 0xB46 JUMP JUMPDEST SWAP3 SWAP2 POP POP JUMP JUMPDEST PUSH0 PUSH20 0xFFFFFFFFFFFFFFFFFFFFFFFFFFFFFFFFFFFFFFFF DUP3 AND SWAP1 POP SWAP2 SWAP1 POP JUMP JUMPDEST PUSH0 PUSH2 0xB97 DUP3 PUSH2 0xB6E JUMP JUMPDEST SWAP1 POP SWAP2 SWAP1 POP JUMP JUMPDEST PUSH2 0xBA7 DUP2 PUSH2 0xB8D JUMP JUMPDEST DUP3 MSTORE POP POP JUMP JUMPDEST PUSH0 PUSH1 0x20 DUP3 ADD SWAP1 POP PUSH2 0xBC0 PUSH0 DUP4 ADD DUP5 PUSH2 0xB9E JUMP JUMPDEST SWAP3 SWAP2 POP POP JUMP JUMPDEST PUSH2 0xBCF DUP2 PUSH2 0xB8D JUMP JUMPDEST DUP2 EQ PUSH2 0xBD9 JUMPI PUSH0 DUP1 REVERT JUMPDEST POP JUMP JUMPDEST PUSH0 DUP2 CALLDATALOAD SWAP1 POP PUSH2 0xBEA DUP2 PUSH2 0xBC6 JUMP JUMPDEST SWAP3 SWAP2 POP POP JUMP JUMPDEST PUSH0 PUSH1 0x20 DUP3 DUP5 SUB SLT ISZERO PUSH2 0xC05 JUMPI PUSH2 0xC04 PUSH2 0xADE JUMP JUMPDEST JUMPDEST PUSH0 PUSH2 0xC12 DUP5 DUP3 DUP6 ADD PUSH2 0xBDC JUMP JUMPDEST SWAP2 POP POP SWAP3 SWAP2 POP POP JUMP JUMPDEST PUSH0 PUSH1 0x40 DUP3 ADD SWAP1 POP DUP2 DUP2 SUB PUSH0 DUP4 ADD MSTORE PUSH2 0xC33 DUP2 DUP6 PUSH2 0xA7D JUMP JUMPDEST SWAP1 POP PUSH2 0xC42 PUSH1 0x20 DUP4 ADD DUP5 PUSH2 0xB46 JUMP JUMPDEST SWAP4 SWAP3 POP POP POP JUMP JUMPDEST PUSH32 0x4E487B7100000000000000000000000000000000000000000000000000000000 PUSH0 MSTORE PUSH1 0x21 PUSH1 0x4 MSTORE PUSH1 0x24 PUSH0 REVERT JUMPDEST PUSH1 0x3 DUP2 LT PUSH2 0xC87 JUMPI PUSH2 0xC86 PUSH2 0xC49 JUMP JUMPDEST JUMPDEST POP JUMP JUMPDEST PUSH0 DUP2 SWAP1 POP PUSH2 0xC97 DUP3 PUSH2 0xC76 JUMP JUMPDEST SWAP2 SWAP1 POP JUMP JUMPDEST PUSH0 PUSH2 0xCA6 DUP3 PUSH2 0xC8A JUMP JUMPDEST SWAP1 POP SWAP2 SWAP1 POP JUMP JUMPDEST PUSH2 0xCB6 DUP2 PUSH2 0xC9C JUMP JUMPDEST DUP3 MSTORE POP POP JUMP JUMPDEST PUSH0 PUSH1 0x20 DUP3 ADD SWAP1 POP PUSH2 0xCCF PUSH0 DUP4 ADD DUP5 PUSH2 0xCAD JUMP JUMPDEST SWAP3 SWAP2 POP POP JUMP JUMPDEST PUSH0 DUP1 REVERT JUMPDEST PUSH0 DUP1 REVERT JUMPDEST PUSH32 0x4E487B7100000000000000000000000000000000000000000000000000000000 PUSH0 MSTORE PUSH1 0x41 PUSH1 0x4 MSTORE PUSH1 0x24 PUSH0 REVERT JUMPDEST PUSH2 0xD13 DUP3 PUSH2 0xA6D JUMP JUMPDEST DUP2 ADD DUP2 DUP2 LT PUSH8 0xFFFFFFFFFFFFFFFF DUP3 GT OR ISZERO PUSH2 0xD32 JUMPI PUSH2 0xD31 PUSH2 0xCDD JUMP JUMPDEST JUMPDEST DUP1 PUSH1 0x40 MSTORE POP POP POP JUMP JUMPDEST PUSH0 PUSH2 0xD44 PUSH2 0xAD5 JUMP JUMPDEST SWAP1 POP PUSH2 0xD50 DUP3 DUP3 PUSH2 0xD0A JUMP JUMPDEST SWAP2 SWAP1 POP JUMP JUMPDEST PUSH0 PUSH8 0xFFFFFFFFFFFFFFFF DUP3 GT ISZERO PUSH2 0xD6F JUMPI PUSH2 0xD6E PUSH2 0xCDD JUMP JUMPDEST JUMPDEST PUSH2 0xD78 DUP3 PUSH2 0xA6D JUMP JUMPDEST SWAP1 POP PUSH1 0x20 DUP2 ADD SWAP1 POP SWAP2 SWAP1 POP JUMP JUMPDEST DUP3 DUP2 DUP4 CALLDATACOPY PUSH0 DUP4 DUP4 ADD MSTORE POP POP POP JUMP JUMPDEST PUSH0 PUSH2 0xDA5 PUSH2 0xDA0 DUP5 PUSH2 0xD55 JUMP JUMPDEST PUSH2 0xD3B JUMP JUMPDEST SWAP1 POP DUP3 DUP2 MSTORE PUSH1 0x20 DUP2 ADD DUP5 DUP5 DUP5 ADD GT ISZERO PUSH2 0xDC1 JUMPI PUSH2 0xDC0 PUSH2 0xCD9 JUMP JUMPDEST JUMPDEST PUSH2 0xDCC DUP5 DUP3 DUP6 PUSH2 0xD85 JUMP JUMPDEST POP SWAP4 SWAP3 POP POP POP JUMP JUMPDEST PUSH0 DUP3 PUSH1 0x1F DUP4 ADD SLT PUSH2 0xDE8 JUMPI PUSH2 0xDE7 PUSH2 0xCD5 JUMP JUMPDEST JUMPDEST DUP2 CALLDATALOAD PUSH2 0xDF8 DUP5 DUP3 PUSH1 0x20 DUP7 ADD PUSH2 0xD93 JUMP JUMPDEST SWAP2 POP POP SWAP3 SWAP2 POP POP JUMP JUMPDEST PUSH0 DUP1 PUSH1 0x40 DUP4 DUP6 SUB SLT ISZERO PUSH2 0xE17 JUMPI PUSH2 0xE16 PUSH2 0xADE JUMP JUMPDEST JUMPDEST PUSH0 PUSH2 0xE24 DUP6 DUP3 DUP7 ADD PUSH2 0xBDC JUMP JUMPDEST SWAP3 POP POP PUSH1 0x20 DUP4 ADD CALLDATALOAD PUSH8 0xFFFFFFFFFFFFFFFF DUP2 GT ISZERO PUSH2 0xE45 JUMPI PUSH2 0xE44 PUSH2 0xAE2 JUMP JUMPDEST JUMPDEST PUSH2 0xE51 DUP6 DUP3 DUP7 ADD PUSH2 0xDD4 JUMP JUMPDEST SWAP2 POP POP SWAP3 POP SWAP3 SWAP1 POP JUMP JUMPDEST PUSH32 0x4E487B7100000000000000000000000000000000000000000000000000000000 PUSH0 MSTORE PUSH1 0x22 PUSH1 0x4 MSTORE PUSH1 0x24 PUSH0 REVERT JUMPDEST PUSH0 PUSH1 0x2 DUP3 DIV SWAP1 POP PUSH1 0x1 DUP3 AND DUP1 PUSH2 0xE9F JUMPI PUSH1 0x7F DUP3 AND SWAP2 POP JUMPDEST PUSH1 0x20 DUP3 LT DUP2 SUB PUSH2 0xEB2 JUMPI PUSH2 0xEB1 PUSH2 0xE5B JUMP JUMPDEST JUMPDEST POP SWAP2 SWAP1 POP JUMP JUMPDEST PUSH32 0x4E487B7100000000000000000000000000000000000000000000000000000000 PUSH0 MSTORE PUSH1 0x11 PUSH1 0x4 MSTORE PUSH1 0x24 PUSH0 REVERT JUMPDEST PUSH0 PUSH2 0xEEF DUP3 PUSH2 0x9FA JUMP JUMPDEST SWAP2 POP PUSH32 0xFFFFFFFFFFFFFFFFFFFFFFFFFFFFFFFFFFFFFFFFFFFFFFFFFFFFFFFFFFFFFFFF DUP3 SUB PUSH2 0xF21 JUMPI PUSH2 0xF20 PUSH2 0xEB8 JUMP JUMPDEST JUMPDEST PUSH1 0x1 DUP3 ADD SWAP1 POP SWAP2 SWAP1 POP JUMP JUMPDEST PUSH0 DUP2 SWAP1 POP DUP2 PUSH0 MSTORE PUSH1 0x20 PUSH0 KECCAK256 SWAP1 POP SWAP2 SWAP1 POP JUMP JUMPDEST PUSH0 PUSH1 0x20 PUSH1 0x1F DUP4 ADD DIV SWAP1 POP SWAP2 SWAP1 POP JUMP JUMPDEST PUSH0 DUP3 DUP3 SHL SWAP1 POP SWAP3 SWAP2 POP POP JUMP JUMPDEST PUSH0 PUSH1 0x8 DUP4 MUL PUSH2 0xF88 PUSH32 0xFFFFFFFFFFFFFFFFFFFFFFFFFFFFFFFFFFFFFFFFFFFFFFFFFFFFFFFFFFFFFFFF DUP3 PUSH2 0xF4D JUMP JUMPDEST PUSH2 0xF92 DUP7 DUP4 PUSH2 0xF4D JUMP JUMPDEST SWAP6 POP DUP1 NOT DUP5 AND SWAP4 POP DUP1 DUP7 AND DUP5 OR SWAP3 POP POP POP SWAP4 SWAP3 POP POP POP JUMP JUMPDEST PUSH0 DUP2 SWAP1 POP SWAP2 SWAP1 POP JUMP JUMPDEST PUSH0 PUSH2 0xFCD PUSH2 0xFC8 PUSH2 0xFC3 DUP5 PUSH2 0x9FA JUMP JUMPDEST PUSH2 0xFAA JUMP JUMPDEST PUSH2 0x9FA JUMP JUMPDEST SWAP1 POP SWAP2 SWAP1 POP JUMP JUMPDEST PUSH0 DUP2 SWAP1 POP SWAP2 SWAP1 POP JUMP JUMPDEST PUSH2 0xFE6 DUP4 PUSH2 0xFB3 JUMP JUMPDEST PUSH2 0xFFA PUSH2 0xFF2 DUP3 PUSH2 0xFD4 JUMP JUMPDEST DUP5 DUP5 SLOAD PUSH2 0xF59 JUMP JUMPDEST DUP3 SSTORE POP POP POP POP JUMP JUMPDEST PUSH0 SWAP1 JUMP JUMPDEST PUSH2 0x100E PUSH2 0x1002 JUMP JUMPDEST PUSH2 0x1019 DUP2 DUP5 DUP5 PUSH2 0xFDD JUMP JUMPDEST POP POP POP JUMP JUMPDEST JUMPDEST DUP2 DUP2 LT ISZERO PUSH2 0x103C JUMPI PUSH2 0x1031 PUSH0 DUP3 PUSH2 0x1006 JUMP JUMPDEST PUSH1 0x1 DUP2 ADD SWAP1 POP PUSH2 0x101F JUMP JUMPDEST POP POP JUMP JUMPDEST PUSH1 0x1F DUP3 GT ISZERO PUSH2 0x1081 JUMPI PUSH2 0x1052 DUP2 PUSH2 0xF2C JUMP JUMPDEST PUSH2 0x105B DUP5 PUSH2 0xF3E JUMP JUMPDEST DUP2 ADD PUSH1 0x20 DUP6 LT ISZERO PUSH2 0x106A JUMPI DUP2 SWAP1 POP JUMPDEST PUSH2 0x107E PUSH2 0x1076 DUP6 PUSH2 0xF3E JUMP JUMPDEST DUP4 ADD DUP3 PUSH2 0x101E JUMP JUMPDEST POP POP JUMPDEST POP POP POP JUMP JUMPDEST PUSH0 DUP3 DUP3 SHR SWAP1 POP SWAP3 SWAP2 POP POP JUMP JUMPDEST PUSH0 PUSH2 0x10A1 PUSH0 NOT DUP5 PUSH1 0x8 MUL PUSH2 0x1086 JUMP JUMPDEST NOT DUP1 DUP4 AND SWAP2 POP POP SWAP3 SWAP2 POP POP JUMP JUMPDEST PUSH0 PUSH2 0x10B9 DUP4 DUP4 PUSH2 0x1092 JUMP JUMPDEST SWAP2 POP DUP3 PUSH1 0x2 MUL DUP3 OR SWAP1 POP SWAP3 SWAP2 POP POP JUMP JUMPDEST PUSH2 0x10D2 DUP3 PUSH2 0xA2B JUMP JUMPDEST PUSH8 0xFFFFFFFFFFFFFFFF DUP2 GT ISZERO PUSH2 0x10EB JUMPI PUSH2 0x10EA PUSH2 0xCDD JUMP JUMPDEST JUMPDEST PUSH2 0x10F5 DUP3 SLOAD PUSH2 0xE88 JUMP JUMPDEST PUSH2 0x1100 DUP3 DUP3 DUP6 PUSH2 0x1040 JUMP JUMPDEST PUSH0 PUSH1 0x20 SWAP1 POP PUSH1 0x1F DUP4 GT PUSH1 0x1 DUP2 EQ PUSH2 0x1131 JUMPI PUSH0 DUP5 ISZERO PUSH2 0x111F JUMPI DUP3 DUP8 ADD MLOAD SWAP1 POP JUMPDEST PUSH2 0x1129 DUP6 DUP3 PUSH2 0x10AE JUMP JUMPDEST DUP7 SSTORE POP PUSH2 0x1190 JUMP JUMPDEST PUSH1 0x1F NOT DUP5 AND PUSH2 0x113F DUP7 PUSH2 0xF2C JUMP JUMPDEST PUSH0 JUMPDEST DUP3 DUP2 LT ISZERO PUSH2 0x1166 JUMPI DUP5 DUP10 ADD MLOAD DUP3 SSTORE PUSH1 0x1 DUP3 ADD SWAP2 POP PUSH1 0x20 DUP6 ADD SWAP5 POP PUSH1 0x20 DUP2 ADD SWAP1 POP PUSH2 0x1141 JUMP JUMPDEST DUP7 DUP4 LT ISZERO PUSH2 0x1183 JUMPI DUP5 DUP10 ADD MLOAD PUSH2 0x117F PUSH1 0x1F DUP10 AND DUP3 PUSH2 0x1092 JUMP JUMPDEST DUP4 SSTORE POP JUMPDEST PUSH1 0x1 PUSH1 0x2 DUP9 MUL ADD DUP9 SSTORE POP POP POP JUMPDEST POP POP POP POP POP POP JUMP INVALID LOG2 PUSH5 0x6970667358 0x22 SLT KECCAK256 ADD CALLCODE DUP13 PUSH32 0x46AC07751A80FC61004A97EB0501368FFEDEE0A0FFD83CBA6FC1B75064736F6C PUSH4 0x43000815 STOP CALLER "
				},
				"gasEstimates": {
					"creation": {
						"codeDepositCost": "911600",
						"executionCost": "infinite",
						"totalCost": "infinite"
					},
					"external": {
						"addVoter(address,string)": "infinite",
						"doVote(bool)": "infinite",
						"electionCommission()": "2597",
						"electionCommissionName()": "infinite",
						"endVote()": "53048",
						"finalResult()": "2535",
						"proposal()": "infinite",
						"startVote()": "28813",
						"state()": "2598",
						"totalVote()": "2513",
						"totalVoter()": "2448",
						"voterRegister(address)": "infinite"
					}
				},
				"methodIdentifiers": {
					"addVoter(address,string)": "d9e95a98",
					"doVote(bool)": "87caea78",
					"electionCommission()": "aab46b7f",
					"electionCommissionName()": "b765cb44",
					"endVote()": "b9223946",
					"finalResult()": "f3a8286f",
					"proposal()": "753ec103",
					"startVote()": "4c0a6af0",
					"state()": "c19d93fb",
					"totalVote()": "f1cea4c7",
					"totalVoter()": "6332abc9",
					"voterRegister(address)": "af154087"
				}
			},
			"storageLayout": {
				"storage": [
					{
						"astId": 14,
						"contract": "contracts/election2.sol:ElectionVoting",
						"label": "countResult",
						"offset": 0,
						"slot": "0",
						"type": "t_uint256"
					},
					{
						"astId": 17,
						"contract": "contracts/election2.sol:ElectionVoting",
						"label": "finalResult",
						"offset": 0,
						"slot": "1",
						"type": "t_uint256"
					},
					{
						"astId": 20,
						"contract": "contracts/election2.sol:ElectionVoting",
						"label": "totalVoter",
						"offset": 0,
						"slot": "2",
						"type": "t_uint256"
					},
					{
						"astId": 23,
						"contract": "contracts/election2.sol:ElectionVoting",
						"label": "totalVote",
						"offset": 0,
						"slot": "3",
						"type": "t_uint256"
					},
					{
						"astId": 25,
						"contract": "contracts/election2.sol:ElectionVoting",
						"label": "electionCommission",
						"offset": 0,
						"slot": "4",
						"type": "t_address"
					},
					{
						"astId": 27,
						"contract": "contracts/election2.sol:ElectionVoting",
						"label": "electionCommissionName",
						"offset": 0,
						"slot": "5",
						"type": "t_string_storage"
					},
					{
						"astId": 29,
						"contract": "contracts/election2.sol:ElectionVoting",
						"label": "proposal",
						"offset": 0,
						"slot": "6",
						"type": "t_string_storage"
					},
					{
						"astId": 34,
						"contract": "contracts/election2.sol:ElectionVoting",
						"label": "votes",
						"offset": 0,
						"slot": "7",
						"type": "t_mapping(t_uint256,t_struct(vote)6_storage)"
					},
					{
						"astId": 39,
						"contract": "contracts/election2.sol:ElectionVoting",
						"label": "voterRegister",
						"offset": 0,
						"slot": "8",
						"type": "t_mapping(t_address,t_struct(voter)11_storage)"
					},
					{
						"astId": 46,
						"contract": "contracts/election2.sol:ElectionVoting",
						"label": "state",
						"offset": 0,
						"slot": "9",
						"type": "t_enum(State)43"
					}
				],
				"types": {
					"t_address": {
						"encoding": "inplace",
						"label": "address",
						"numberOfBytes": "20"
					},
					"t_bool": {
						"encoding": "inplace",
						"label": "bool",
						"numberOfBytes": "1"
					},
					"t_enum(State)43": {
						"encoding": "inplace",
						"label": "enum ElectionVoting.State",
						"numberOfBytes": "1"
					},
					"t_mapping(t_address,t_struct(voter)11_storage)": {
						"encoding": "mapping",
						"key": "t_address",
						"label": "mapping(address => struct ElectionVoting.voter)",
						"numberOfBytes": "32",
						"value": "t_struct(voter)11_storage"
					},
					"t_mapping(t_uint256,t_struct(vote)6_storage)": {
						"encoding": "mapping",
						"key": "t_uint256",
						"label": "mapping(uint256 => struct ElectionVoting.vote)",
						"numberOfBytes": "32",
						"value": "t_struct(vote)6_storage"
					},
					"t_string_storage": {
						"encoding": "bytes",
						"label": "string",
						"numberOfBytes": "32"
					},
					"t_struct(vote)6_storage": {
						"encoding": "inplace",
						"label": "struct ElectionVoting.vote",
						"members": [
							{
								"astId": 3,
								"contract": "contracts/election2.sol:ElectionVoting",
								"label": "voterAddress",
								"offset": 0,
								"slot": "0",
								"type": "t_address"
							},
							{
								"astId": 5,
								"contract": "contracts/election2.sol:ElectionVoting",
								"label": "choice",
								"offset": 20,
								"slot": "0",
								"type": "t_bool"
							}
						],
						"numberOfBytes": "32"
					},
					"t_struct(voter)11_storage": {
						"encoding": "inplace",
						"label": "struct ElectionVoting.voter",
						"members": [
							{
								"astId": 8,
								"contract": "contracts/election2.sol:ElectionVoting",
								"label": "voterName",
								"offset": 0,
								"slot": "0",
								"type": "t_string_storage"
							},
							{
								"astId": 10,
								"contract": "contracts/election2.sol:ElectionVoting",
								"label": "voted",
								"offset": 0,
								"slot": "1",
								"type": "t_bool"
							}
						],
						"numberOfBytes": "64"
					},
					"t_uint256": {
						"encoding": "inplace",
						"label": "uint256",
						"numberOfBytes": "32"
					}
				}
			},
			"userdoc": {
				"kind": "user",
				"methods": {},
				"version": 1
			}
		}
	}
}