{
	"contracts/events.sol": {
		"ValueAlert": {
			"abi": [
				{
					"anonymous": false,
					"inputs": [
						{
							"indexed": false,
							"internalType": "bool",
							"name": "returnValue",
							"type": "bool"
						}
					],
					"name": "priceEvent",
					"type": "event"
				},
				{
					"inputs": [
						{
							"internalType": "uint256",
							"name": "_amount",
							"type": "uint256"
						}
					],
					"name": "bid",
					"outputs": [
						{
							"internalType": "bool",
							"name": "",
							"type": "bool"
						}
					],
					"stateMutability": "nonpayable",
					"type": "function"
				}
			],
			"devdoc": {
				"kind": "dev",
				"methods": {},
				"version": 1
			},
			"evm": {
				"assembly": "    /* \"contracts/events.sol\":59:407  contract ValueAlert{\r... */\n  mstore(0x40, 0x80)\n    /* \"contracts/events.sol\":99:102  100 */\n  0x64\n    /* \"contracts/events.sol\":87:102  uint price =100 */\n  0x00\n  sstore\n    /* \"contracts/events.sol\":59:407  contract ValueAlert{\r... */\n  callvalue\n  dup1\n  iszero\n  tag_1\n  jumpi\n  0x00\n  dup1\n  revert\ntag_1:\n  pop\n  dataSize(sub_0)\n  dup1\n  dataOffset(sub_0)\n  0x00\n  codecopy\n  0x00\n  return\nstop\n\nsub_0: assembly {\n        /* \"contracts/events.sol\":59:407  contract ValueAlert{\r... */\n      mstore(0x40, 0x80)\n      callvalue\n      dup1\n      iszero\n      tag_1\n      jumpi\n      0x00\n      dup1\n      revert\n    tag_1:\n      pop\n      jumpi(tag_2, lt(calldatasize, 0x04))\n      shr(0xe0, calldataload(0x00))\n      dup1\n      0x454a2ab3\n      eq\n      tag_3\n      jumpi\n    tag_2:\n      0x00\n      dup1\n      revert\n        /* \"contracts/events.sol\":217:404  function bid (uint _amount) public returns(bool){\r... */\n    tag_3:\n      tag_4\n      0x04\n      dup1\n      calldatasize\n      sub\n      0x20\n      dup2\n      lt\n      iszero\n      tag_5\n      jumpi\n      0x00\n      dup1\n      revert\n    tag_5:\n      dup2\n      add\n      swap1\n      dup1\n      dup1\n      calldataload\n      swap1\n      0x20\n      add\n      swap1\n      swap3\n      swap2\n      swap1\n      pop\n      pop\n      pop\n      tag_6\n      jump\t// in\n    tag_4:\n      mload(0x40)\n      dup1\n      dup3\n      iszero\n      iszero\n      dup2\n      mstore\n      0x20\n      add\n      swap2\n      pop\n      pop\n      mload(0x40)\n      dup1\n      swap2\n      sub\n      swap1\n      return\n    tag_6:\n        /* \"contracts/events.sol\":260:264  bool */\n      0x00\n        /* \"contracts/events.sol\":287:292  price */\n      dup1\n      sload\n        /* \"contracts/events.sol\":279:286  _amount */\n      dup3\n        /* \"contracts/events.sol\":279:292  _amount>price */\n      gt\n        /* \"contracts/events.sol\":276:365  if(_amount>price){\r... */\n      iszero\n      tag_8\n      jumpi\n        /* \"contracts/events.sol\":337:353  priceEvent(true) */\n      0x6a1fe2e35f595f2851d0555726d14b8221f6eb6f45ff0d6d4a7b7fa2e5f20864\n        /* \"contracts/events.sol\":348:352  true */\n      0x01\n        /* \"contracts/events.sol\":337:353  priceEvent(true) */\n      mload(0x40)\n      dup1\n      dup3\n      iszero\n      iszero\n      dup2\n      mstore\n      0x20\n      add\n      swap2\n      pop\n      pop\n      mload(0x40)\n      dup1\n      swap2\n      sub\n      swap1\n      log1\n        /* \"contracts/events.sol\":276:365  if(_amount>price){\r... */\n    tag_8:\n        /* \"contracts/events.sol\":382:386  true */\n      0x01\n        /* \"contracts/events.sol\":375:386  return true */\n      swap1\n      pop\n        /* \"contracts/events.sol\":217:404  function bid (uint _amount) public returns(bool){\r... */\n      swap2\n      swap1\n      pop\n      jump\t// out\n\n    auxdata: 0xa264697066735822122030fcc996cd1db3848c942e35cf682063095b6e16aad53e919d14669dbd85bfcd64736f6c634300060c0033\n}\n",
				"bytecode": {
					"linkReferences": {},
					"object": "6080604052606460005534801561001557600080fd5b5060f2806100246000396000f3fe6080604052348015600f57600080fd5b506004361060285760003560e01c8063454a2ab314602d575b600080fd5b605660048036036020811015604157600080fd5b8101908080359060200190929190505050606e565b60405180821515815260200191505060405180910390f35b6000805482111560b3577f6a1fe2e35f595f2851d0555726d14b8221f6eb6f45ff0d6d4a7b7fa2e5f20864600160405180821515815260200191505060405180910390a15b6001905091905056fea264697066735822122030fcc996cd1db3848c942e35cf682063095b6e16aad53e919d14669dbd85bfcd64736f6c634300060c0033",
					"opcodes": "PUSH1 0x80 PUSH1 0x40 MSTORE PUSH1 0x64 PUSH1 0x0 SSTORE CALLVALUE DUP1 ISZERO PUSH2 0x15 JUMPI PUSH1 0x0 DUP1 REVERT JUMPDEST POP PUSH1 0xF2 DUP1 PUSH2 0x24 PUSH1 0x0 CODECOPY PUSH1 0x0 RETURN INVALID PUSH1 0x80 PUSH1 0x40 MSTORE CALLVALUE DUP1 ISZERO PUSH1 0xF JUMPI PUSH1 0x0 DUP1 REVERT JUMPDEST POP PUSH1 0x4 CALLDATASIZE LT PUSH1 0x28 JUMPI PUSH1 0x0 CALLDATALOAD PUSH1 0xE0 SHR DUP1 PUSH4 0x454A2AB3 EQ PUSH1 0x2D JUMPI JUMPDEST PUSH1 0x0 DUP1 REVERT JUMPDEST PUSH1 0x56 PUSH1 0x4 DUP1 CALLDATASIZE SUB PUSH1 0x20 DUP2 LT ISZERO PUSH1 0x41 JUMPI PUSH1 0x0 DUP1 REVERT JUMPDEST DUP2 ADD SWAP1 DUP1 DUP1 CALLDATALOAD SWAP1 PUSH1 0x20 ADD SWAP1 SWAP3 SWAP2 SWAP1 POP POP POP PUSH1 0x6E JUMP JUMPDEST PUSH1 0x40 MLOAD DUP1 DUP3 ISZERO ISZERO DUP2 MSTORE PUSH1 0x20 ADD SWAP2 POP POP PUSH1 0x40 MLOAD DUP1 SWAP2 SUB SWAP1 RETURN JUMPDEST PUSH1 0x0 DUP1 SLOAD DUP3 GT ISZERO PUSH1 0xB3 JUMPI PUSH32 0x6A1FE2E35F595F2851D0555726D14B8221F6EB6F45FF0D6D4A7B7FA2E5F20864 PUSH1 0x1 PUSH1 0x40 MLOAD DUP1 DUP3 ISZERO ISZERO DUP2 MSTORE PUSH1 0x20 ADD SWAP2 POP POP PUSH1 0x40 MLOAD DUP1 SWAP2 SUB SWAP1 LOG1 JUMPDEST PUSH1 0x1 SWAP1 POP SWAP2 SWAP1 POP JUMP INVALID LOG2 PUSH5 0x6970667358 0x22 SLT KECCAK256 ADDRESS 0xFC 0xC9 SWAP7 0xCD SAR 0xB3 DUP5 DUP13 SWAP5 0x2E CALLDATALOAD 0xCF PUSH9 0x2063095B6E16AAD53E SWAP2 SWAP14 EQ PUSH7 0x9DBD85BFCD6473 PUSH16 0x6C634300060C00330000000000000000 "
				},
				"gasEstimates": {
					"creation": {
						"codeDepositCost": "48400",
						"executionCost": "20105",
						"totalCost": "68505"
					},
					"external": {
						"bid(uint256)": "2177"
					}
				},
				"methodIdentifiers": {
					"bid(uint256)": "454a2ab3"
				}
			},
			"storageLayout": {
				"storage": [
					{
						"astId": 4,
						"contract": "contracts/events.sol:ValueAlert",
						"label": "price",
						"offset": 0,
						"slot": "0",
						"type": "t_uint256"
					}
				],
				"types": {
					"t_uint256": {
						"encoding": "inplace",
						"label": "uint256",
						"numberOfBytes": "32"
					}
				}
			},
			"userdoc": {
				"kind": "user",
				"methods": {},
				"version": 1
			}
		}
	}
}