{
	"contracts/election.sol": {
		"Voting": {
			"abi": [
				{
					"inputs": [
						{
							"internalType": "string",
							"name": "_eventName",
							"type": "string"
						}
					],
					"stateMutability": "nonpayable",
					"type": "constructor"
				},
				{
					"anonymous": false,
					"inputs": [
						{
							"indexed": false,
							"internalType": "string",
							"name": "msg",
							"type": "string"
						}
					],
					"name": "success",
					"type": "event"
				},
				{
					"inputs": [
						{
							"internalType": "uint256",
							"name": "",
							"type": "uint256"
						}
					],
					"name": "candidateList",
					"outputs": [
						{
							"internalType": "string",
							"name": "name",
							"type": "string"
						},
						{
							"internalType": "uint256",
							"name": "age",
							"type": "uint256"
						},
						{
							"internalType": "bool",
							"name": "registered",
							"type": "bool"
						},
						{
							"internalType": "address",
							"name": "candidateAddress",
							"type": "address"
						},
						{
							"internalType": "uint256",
							"name": "votes",
							"type": "uint256"
						}
					],
					"stateMutability": "view",
					"type": "function"
				},
				{
					"inputs": [
						{
							"internalType": "address",
							"name": "",
							"type": "address"
						}
					],
					"name": "candidates",
					"outputs": [
						{
							"internalType": "uint256",
							"name": "",
							"type": "uint256"
						}
					],
					"stateMutability": "view",
					"type": "function"
				},
				{
					"inputs": [],
					"name": "eventName",
					"outputs": [
						{
							"internalType": "string",
							"name": "",
							"type": "string"
						}
					],
					"stateMutability": "view",
					"type": "function"
				},
				{
					"inputs": [],
					"name": "getAllCandidate",
					"outputs": [
						{
							"components": [
								{
									"internalType": "string",
									"name": "name",
									"type": "string"
								},
								{
									"internalType": "uint256",
									"name": "age",
									"type": "uint256"
								},
								{
									"internalType": "bool",
									"name": "registered",
									"type": "bool"
								},
								{
									"internalType": "address",
									"name": "candidateAddress",
									"type": "address"
								},
								{
									"internalType": "uint256",
									"name": "votes",
									"type": "uint256"
								}
							],
							"internalType": "struct Voting.Candidate[]",
							"name": "list",
							"type": "tuple[]"
						}
					],
					"stateMutability": "view",
					"type": "function"
				},
				{
					"inputs": [],
					"name": "getWinner",
					"outputs": [
						{
							"components": [
								{
									"internalType": "string",
									"name": "name",
									"type": "string"
								},
								{
									"internalType": "uint256",
									"name": "age",
									"type": "uint256"
								},
								{
									"internalType": "bool",
									"name": "registered",
									"type": "bool"
								},
								{
									"internalType": "address",
									"name": "candidateAddress",
									"type": "address"
								},
								{
									"internalType": "uint256",
									"name": "votes",
									"type": "uint256"
								}
							],
							"internalType": "struct Voting.Candidate",
							"name": "candidate",
							"type": "tuple"
						}
					],
					"stateMutability": "view",
					"type": "function"
				},
				{
					"inputs": [],
					"name": "owner",
					"outputs": [
						{
							"internalType": "address",
							"name": "",
							"type": "address"
						}
					],
					"stateMutability": "view",
					"type": "function"
				},
				{
					"inputs": [
						{
							"internalType": "address",
							"name": "_candidateAddress",
							"type": "address"
						}
					],
					"name": "putVote",
					"outputs": [],
					"stateMutability": "nonpayable",
					"type": "function"
				},
				{
					"inputs": [
						{
							"internalType": "string",
							"name": "_name",
							"type": "string"
						},
						{
							"internalType": "uint256",
							"name": "_age",
							"type": "uint256"
						},
						{
							"internalType": "address",
							"name": "_candidateAddress",
							"type": "address"
						}
					],
					"name": "registerCandidates",
					"outputs": [],
					"stateMutability": "nonpayable",
					"type": "function"
				},
				{
					"inputs": [],
					"name": "startVoting",
					"outputs": [],
					"stateMutability": "nonpayable",
					"type": "function"
				},
				{
					"inputs": [],
					"name": "stopVoting",
					"outputs": [],
					"stateMutability": "nonpayable",
					"type": "function"
				},
				{
					"inputs": [],
					"name": "totalVote",
					"outputs": [
						{
							"internalType": "uint256",
							"name": "",
							"type": "uint256"
						}
					],
					"stateMutability": "view",
					"type": "function"
				},
				{
					"inputs": [
						{
							"internalType": "address",
							"name": "",
							"type": "address"
						}
					],
					"name": "voterList",
					"outputs": [
						{
							"internalType": "bool",
							"name": "registered",
							"type": "bool"
						},
						{
							"internalType": "bool",
							"name": "voted",
							"type": "bool"
						}
					],
					"stateMutability": "view",
					"type": "function"
				},
				{
					"inputs": [],
					"name": "votingStatus",
					"outputs": [
						{
							"internalType": "bool",
							"name": "",
							"type": "bool"
						}
					],
					"stateMutability": "view",
					"type": "function"
				},
				{
					"inputs": [
						{
							"internalType": "address",
							"name": "_voterAddress",
							"type": "address"
						}
					],
					"name": "whiteListAddress",
					"outputs": [],
					"stateMutability": "nonpayable",
					"type": "function"
				},
				{
					"inputs": [],
					"name": "winnerAddress",
					"outputs": [
						{
							"internalType": "address",
							"name": "",
							"type": "address"
						}
					],
					"stateMutability": "view",
					"type": "function"
				}
			],
			"devdoc": {
				"kind": "dev",
				"methods": {},
				"version": 1
			},
			"evm": {
				"assembly": "    /* \"contracts/election.sol\":66:3838  contract Voting {... */\n  mstore(0x40, 0x80)\n    /* \"contracts/election.sol\":635:796  constructor(string memory _eventName){... */\n  callvalue\n  dup1\n  iszero\n  tag_1\n  jumpi\n  0x00\n  dup1\n  revert\ntag_1:\n  pop\n  mload(0x40)\n  sub(codesize, bytecodeSize)\n  dup1\n  bytecodeSize\n  dup4\n  codecopy\n  dup2\n  dup2\n  add\n  0x40\n  mstore\n  dup2\n  add\n  swap1\n  tag_2\n  swap2\n  swap1\n  tag_3\n  jump\t// in\ntag_2:\n    /* \"contracts/election.sol\":691:701  msg.sender */\n  caller\n    /* \"contracts/election.sol\":683:688  owner */\n  0x00\n  dup1\n    /* \"contracts/election.sol\":683:701  owner = msg.sender */\n  0x0100\n  exp\n  dup2\n  sload\n  dup2\n  0xffffffffffffffffffffffffffffffffffffffff\n  mul\n  not\n  and\n  swap1\n  dup4\n  0xffffffffffffffffffffffffffffffffffffffff\n  and\n  mul\n  or\n  swap1\n  sstore\n  pop\n    /* \"contracts/election.sol\":724:734  _eventName */\n  dup1\n    /* \"contracts/election.sol\":712:721  eventName */\n  0x02\n    /* \"contracts/election.sol\":712:734  eventName = _eventName */\n  swap1\n  dup2\n  tag_6\n  swap2\n  swap1\n  tag_7\n  jump\t// in\ntag_6:\n  pop\n    /* \"contracts/election.sol\":757:758  0 */\n  0x00\n    /* \"contracts/election.sol\":745:754  totalVote */\n  0x03\n    /* \"contracts/election.sol\":745:758  totalVote = 0 */\n  dup2\n  swap1\n  sstore\n  pop\n    /* \"contracts/election.sol\":783:788  false */\n  0x00\n    /* \"contracts/election.sol\":769:782  votingStarted */\n  0x04\n  0x00\n    /* \"contracts/election.sol\":769:788  votingStarted=false */\n  0x0100\n  exp\n  dup2\n  sload\n  dup2\n  0xff\n  mul\n  not\n  and\n  swap1\n  dup4\n  iszero\n  iszero\n  mul\n  or\n  swap1\n  sstore\n  pop\n    /* \"contracts/election.sol\":635:796  constructor(string memory _eventName){... */\n  pop\n    /* \"contracts/election.sol\":66:3838  contract Voting {... */\n  jump(tag_8)\n    /* \"#utility.yul\":7:82   */\ntag_9:\n    /* \"#utility.yul\":40:46   */\n  0x00\n    /* \"#utility.yul\":73:75   */\n  0x40\n    /* \"#utility.yul\":67:76   */\n  mload\n    /* \"#utility.yul\":57:76   */\n  swap1\n  pop\n    /* \"#utility.yul\":7:82   */\n  swap1\n  jump\t// out\n    /* \"#utility.yul\":88:205   */\ntag_10:\n    /* \"#utility.yul\":197:198   */\n  0x00\n    /* \"#utility.yul\":194:195   */\n  dup1\n    /* \"#utility.yul\":187:199   */\n  revert\n    /* \"#utility.yul\":211:328   */\ntag_11:\n    /* \"#utility.yul\":320:321   */\n  0x00\n    /* \"#utility.yul\":317:318   */\n  dup1\n    /* \"#utility.yul\":310:322   */\n  revert\n    /* \"#utility.yul\":334:451   */\ntag_12:\n    /* \"#utility.yul\":443:444   */\n  0x00\n    /* \"#utility.yul\":440:441   */\n  dup1\n    /* \"#utility.yul\":433:445   */\n  revert\n    /* \"#utility.yul\":457:574   */\ntag_13:\n    /* \"#utility.yul\":566:567   */\n  0x00\n    /* \"#utility.yul\":563:564   */\n  dup1\n    /* \"#utility.yul\":556:568   */\n  revert\n    /* \"#utility.yul\":580:682   */\ntag_14:\n    /* \"#utility.yul\":621:627   */\n  0x00\n    /* \"#utility.yul\":672:674   */\n  0x1f\n    /* \"#utility.yul\":668:675   */\n  not\n    /* \"#utility.yul\":663:665   */\n  0x1f\n    /* \"#utility.yul\":656:661   */\n  dup4\n    /* \"#utility.yul\":652:666   */\n  add\n    /* \"#utility.yul\":648:676   */\n  and\n    /* \"#utility.yul\":638:676   */\n  swap1\n  pop\n    /* \"#utility.yul\":580:682   */\n  swap2\n  swap1\n  pop\n  jump\t// out\n    /* \"#utility.yul\":688:868   */\ntag_15:\n    /* \"#utility.yul\":736:813   */\n  0x4e487b7100000000000000000000000000000000000000000000000000000000\n    /* \"#utility.yul\":733:734   */\n  0x00\n    /* \"#utility.yul\":726:814   */\n  mstore\n    /* \"#utility.yul\":833:837   */\n  0x41\n    /* \"#utility.yul\":830:831   */\n  0x04\n    /* \"#utility.yul\":823:838   */\n  mstore\n    /* \"#utility.yul\":857:861   */\n  0x24\n    /* \"#utility.yul\":854:855   */\n  0x00\n    /* \"#utility.yul\":847:862   */\n  revert\n    /* \"#utility.yul\":874:1155   */\ntag_16:\n    /* \"#utility.yul\":957:984   */\n  tag_50\n    /* \"#utility.yul\":979:983   */\n  dup3\n    /* \"#utility.yul\":957:984   */\n  tag_14\n  jump\t// in\ntag_50:\n    /* \"#utility.yul\":949:955   */\n  dup2\n    /* \"#utility.yul\":945:985   */\n  add\n    /* \"#utility.yul\":1087:1093   */\n  dup2\n    /* \"#utility.yul\":1075:1085   */\n  dup2\n    /* \"#utility.yul\":1072:1094   */\n  lt\n    /* \"#utility.yul\":1051:1069   */\n  0xffffffffffffffff\n    /* \"#utility.yul\":1039:1049   */\n  dup3\n    /* \"#utility.yul\":1036:1070   */\n  gt\n    /* \"#utility.yul\":1033:1095   */\n  or\n    /* \"#utility.yul\":1030:1118   */\n  iszero\n  tag_51\n  jumpi\n    /* \"#utility.yul\":1098:1116   */\n  tag_52\n  tag_15\n  jump\t// in\ntag_52:\n    /* \"#utility.yul\":1030:1118   */\ntag_51:\n    /* \"#utility.yul\":1138:1148   */\n  dup1\n    /* \"#utility.yul\":1134:1136   */\n  0x40\n    /* \"#utility.yul\":1127:1149   */\n  mstore\n    /* \"#utility.yul\":917:1155   */\n  pop\n    /* \"#utility.yul\":874:1155   */\n  pop\n  pop\n  jump\t// out\n    /* \"#utility.yul\":1161:1290   */\ntag_17:\n    /* \"#utility.yul\":1195:1201   */\n  0x00\n    /* \"#utility.yul\":1222:1242   */\n  tag_54\n  tag_9\n  jump\t// in\ntag_54:\n    /* \"#utility.yul\":1212:1242   */\n  swap1\n  pop\n    /* \"#utility.yul\":1251:1284   */\n  tag_55\n    /* \"#utility.yul\":1279:1283   */\n  dup3\n    /* \"#utility.yul\":1271:1277   */\n  dup3\n    /* \"#utility.yul\":1251:1284   */\n  tag_16\n  jump\t// in\ntag_55:\n    /* \"#utility.yul\":1161:1290   */\n  swap2\n  swap1\n  pop\n  jump\t// out\n    /* \"#utility.yul\":1296:1604   */\ntag_18:\n    /* \"#utility.yul\":1358:1362   */\n  0x00\n    /* \"#utility.yul\":1448:1466   */\n  0xffffffffffffffff\n    /* \"#utility.yul\":1440:1446   */\n  dup3\n    /* \"#utility.yul\":1437:1467   */\n  gt\n    /* \"#utility.yul\":1434:1490   */\n  iszero\n  tag_57\n  jumpi\n    /* \"#utility.yul\":1470:1488   */\n  tag_58\n  tag_15\n  jump\t// in\ntag_58:\n    /* \"#utility.yul\":1434:1490   */\ntag_57:\n    /* \"#utility.yul\":1508:1537   */\n  tag_59\n    /* \"#utility.yul\":1530:1536   */\n  dup3\n    /* \"#utility.yul\":1508:1537   */\n  tag_14\n  jump\t// in\ntag_59:\n    /* \"#utility.yul\":1500:1537   */\n  swap1\n  pop\n    /* \"#utility.yul\":1592:1596   */\n  0x20\n    /* \"#utility.yul\":1586:1590   */\n  dup2\n    /* \"#utility.yul\":1582:1597   */\n  add\n    /* \"#utility.yul\":1574:1597   */\n  swap1\n  pop\n    /* \"#utility.yul\":1296:1604   */\n  swap2\n  swap1\n  pop\n  jump\t// out\n    /* \"#utility.yul\":1610:1856   */\ntag_19:\n    /* \"#utility.yul\":1691:1692   */\n  0x00\n    /* \"#utility.yul\":1701:1814   */\ntag_61:\n    /* \"#utility.yul\":1715:1721   */\n  dup4\n    /* \"#utility.yul\":1712:1713   */\n  dup2\n    /* \"#utility.yul\":1709:1722   */\n  lt\n    /* \"#utility.yul\":1701:1814   */\n  iszero\n  tag_63\n  jumpi\n    /* \"#utility.yul\":1800:1801   */\n  dup1\n    /* \"#utility.yul\":1795:1798   */\n  dup3\n    /* \"#utility.yul\":1791:1802   */\n  add\n    /* \"#utility.yul\":1785:1803   */\n  mload\n    /* \"#utility.yul\":1781:1782   */\n  dup2\n    /* \"#utility.yul\":1776:1779   */\n  dup5\n    /* \"#utility.yul\":1772:1783   */\n  add\n    /* \"#utility.yul\":1765:1804   */\n  mstore\n    /* \"#utility.yul\":1737:1739   */\n  0x20\n    /* \"#utility.yul\":1734:1735   */\n  dup2\n    /* \"#utility.yul\":1730:1740   */\n  add\n    /* \"#utility.yul\":1725:1740   */\n  swap1\n  pop\n    /* \"#utility.yul\":1701:1814   */\n  jump(tag_61)\ntag_63:\n    /* \"#utility.yul\":1848:1849   */\n  0x00\n    /* \"#utility.yul\":1839:1845   */\n  dup5\n    /* \"#utility.yul\":1834:1837   */\n  dup5\n    /* \"#utility.yul\":1830:1846   */\n  add\n    /* \"#utility.yul\":1823:1850   */\n  mstore\n    /* \"#utility.yul\":1672:1856   */\n  pop\n    /* \"#utility.yul\":1610:1856   */\n  pop\n  pop\n  pop\n  jump\t// out\n    /* \"#utility.yul\":1862:2296   */\ntag_20:\n    /* \"#utility.yul\":1951:1956   */\n  0x00\n    /* \"#utility.yul\":1976:2042   */\n  tag_65\n    /* \"#utility.yul\":1992:2041   */\n  tag_66\n    /* \"#utility.yul\":2034:2040   */\n  dup5\n    /* \"#utility.yul\":1992:2041   */\n  tag_18\n  jump\t// in\ntag_66:\n    /* \"#utility.yul\":1976:2042   */\n  tag_17\n  jump\t// in\ntag_65:\n    /* \"#utility.yul\":1967:2042   */\n  swap1\n  pop\n    /* \"#utility.yul\":2065:2071   */\n  dup3\n    /* \"#utility.yul\":2058:2063   */\n  dup2\n    /* \"#utility.yul\":2051:2072   */\n  mstore\n    /* \"#utility.yul\":2103:2107   */\n  0x20\n    /* \"#utility.yul\":2096:2101   */\n  dup2\n    /* \"#utility.yul\":2092:2108   */\n  add\n    /* \"#utility.yul\":2141:2144   */\n  dup5\n    /* \"#utility.yul\":2132:2138   */\n  dup5\n    /* \"#utility.yul\":2127:2130   */\n  dup5\n    /* \"#utility.yul\":2123:2139   */\n  add\n    /* \"#utility.yul\":2120:2145   */\n  gt\n    /* \"#utility.yul\":2117:2229   */\n  iszero\n  tag_67\n  jumpi\n    /* \"#utility.yul\":2148:2227   */\n  tag_68\n  tag_13\n  jump\t// in\ntag_68:\n    /* \"#utility.yul\":2117:2229   */\ntag_67:\n    /* \"#utility.yul\":2238:2290   */\n  tag_69\n    /* \"#utility.yul\":2283:2289   */\n  dup5\n    /* \"#utility.yul\":2278:2281   */\n  dup3\n    /* \"#utility.yul\":2273:2276   */\n  dup6\n    /* \"#utility.yul\":2238:2290   */\n  tag_19\n  jump\t// in\ntag_69:\n    /* \"#utility.yul\":1957:2296   */\n  pop\n    /* \"#utility.yul\":1862:2296   */\n  swap4\n  swap3\n  pop\n  pop\n  pop\n  jump\t// out\n    /* \"#utility.yul\":2316:2671   */\ntag_21:\n    /* \"#utility.yul\":2383:2388   */\n  0x00\n    /* \"#utility.yul\":2432:2435   */\n  dup3\n    /* \"#utility.yul\":2425:2429   */\n  0x1f\n    /* \"#utility.yul\":2417:2423   */\n  dup4\n    /* \"#utility.yul\":2413:2430   */\n  add\n    /* \"#utility.yul\":2409:2436   */\n  slt\n    /* \"#utility.yul\":2399:2521   */\n  tag_71\n  jumpi\n    /* \"#utility.yul\":2440:2519   */\n  tag_72\n  tag_12\n  jump\t// in\ntag_72:\n    /* \"#utility.yul\":2399:2521   */\ntag_71:\n    /* \"#utility.yul\":2550:2556   */\n  dup2\n    /* \"#utility.yul\":2544:2557   */\n  mload\n    /* \"#utility.yul\":2575:2665   */\n  tag_73\n    /* \"#utility.yul\":2661:2664   */\n  dup5\n    /* \"#utility.yul\":2653:2659   */\n  dup3\n    /* \"#utility.yul\":2646:2650   */\n  0x20\n    /* \"#utility.yul\":2638:2644   */\n  dup7\n    /* \"#utility.yul\":2634:2651   */\n  add\n    /* \"#utility.yul\":2575:2665   */\n  tag_20\n  jump\t// in\ntag_73:\n    /* \"#utility.yul\":2566:2665   */\n  swap2\n  pop\n    /* \"#utility.yul\":2389:2671   */\n  pop\n    /* \"#utility.yul\":2316:2671   */\n  swap3\n  swap2\n  pop\n  pop\n  jump\t// out\n    /* \"#utility.yul\":2677:3201   */\ntag_3:\n    /* \"#utility.yul\":2757:2763   */\n  0x00\n    /* \"#utility.yul\":2806:2808   */\n  0x20\n    /* \"#utility.yul\":2794:2803   */\n  dup3\n    /* \"#utility.yul\":2785:2792   */\n  dup5\n    /* \"#utility.yul\":2781:2804   */\n  sub\n    /* \"#utility.yul\":2777:2809   */\n  slt\n    /* \"#utility.yul\":2774:2893   */\n  iszero\n  tag_75\n  jumpi\n    /* \"#utility.yul\":2812:2891   */\n  tag_76\n  tag_10\n  jump\t// in\ntag_76:\n    /* \"#utility.yul\":2774:2893   */\ntag_75:\n    /* \"#utility.yul\":2953:2954   */\n  0x00\n    /* \"#utility.yul\":2942:2951   */\n  dup3\n    /* \"#utility.yul\":2938:2955   */\n  add\n    /* \"#utility.yul\":2932:2956   */\n  mload\n    /* \"#utility.yul\":2983:3001   */\n  0xffffffffffffffff\n    /* \"#utility.yul\":2975:2981   */\n  dup2\n    /* \"#utility.yul\":2972:3002   */\n  gt\n    /* \"#utility.yul\":2969:3086   */\n  iszero\n  tag_77\n  jumpi\n    /* \"#utility.yul\":3005:3084   */\n  tag_78\n  tag_11\n  jump\t// in\ntag_78:\n    /* \"#utility.yul\":2969:3086   */\ntag_77:\n    /* \"#utility.yul\":3110:3184   */\n  tag_79\n    /* \"#utility.yul\":3176:3183   */\n  dup5\n    /* \"#utility.yul\":3167:3173   */\n  dup3\n    /* \"#utility.yul\":3156:3165   */\n  dup6\n    /* \"#utility.yul\":3152:3174   */\n  add\n    /* \"#utility.yul\":3110:3184   */\n  tag_21\n  jump\t// in\ntag_79:\n    /* \"#utility.yul\":3100:3184   */\n  swap2\n  pop\n    /* \"#utility.yul\":2903:3194   */\n  pop\n    /* \"#utility.yul\":2677:3201   */\n  swap3\n  swap2\n  pop\n  pop\n  jump\t// out\n    /* \"#utility.yul\":3207:3306   */\ntag_22:\n    /* \"#utility.yul\":3259:3265   */\n  0x00\n    /* \"#utility.yul\":3293:3298   */\n  dup2\n    /* \"#utility.yul\":3287:3299   */\n  mload\n    /* \"#utility.yul\":3277:3299   */\n  swap1\n  pop\n    /* \"#utility.yul\":3207:3306   */\n  swap2\n  swap1\n  pop\n  jump\t// out\n    /* \"#utility.yul\":3312:3492   */\ntag_23:\n    /* \"#utility.yul\":3360:3437   */\n  0x4e487b7100000000000000000000000000000000000000000000000000000000\n    /* \"#utility.yul\":3357:3358   */\n  0x00\n    /* \"#utility.yul\":3350:3438   */\n  mstore\n    /* \"#utility.yul\":3457:3461   */\n  0x22\n    /* \"#utility.yul\":3454:3455   */\n  0x04\n    /* \"#utility.yul\":3447:3462   */\n  mstore\n    /* \"#utility.yul\":3481:3485   */\n  0x24\n    /* \"#utility.yul\":3478:3479   */\n  0x00\n    /* \"#utility.yul\":3471:3486   */\n  revert\n    /* \"#utility.yul\":3498:3818   */\ntag_24:\n    /* \"#utility.yul\":3542:3548   */\n  0x00\n    /* \"#utility.yul\":3579:3580   */\n  0x02\n    /* \"#utility.yul\":3573:3577   */\n  dup3\n    /* \"#utility.yul\":3569:3581   */\n  div\n    /* \"#utility.yul\":3559:3581   */\n  swap1\n  pop\n    /* \"#utility.yul\":3626:3627   */\n  0x01\n    /* \"#utility.yul\":3620:3624   */\n  dup3\n    /* \"#utility.yul\":3616:3628   */\n  and\n    /* \"#utility.yul\":3647:3665   */\n  dup1\n    /* \"#utility.yul\":3637:3718   */\n  tag_83\n  jumpi\n    /* \"#utility.yul\":3703:3707   */\n  0x7f\n    /* \"#utility.yul\":3695:3701   */\n  dup3\n    /* \"#utility.yul\":3691:3708   */\n  and\n    /* \"#utility.yul\":3681:3708   */\n  swap2\n  pop\n    /* \"#utility.yul\":3637:3718   */\ntag_83:\n    /* \"#utility.yul\":3765:3767   */\n  0x20\n    /* \"#utility.yul\":3757:3763   */\n  dup3\n    /* \"#utility.yul\":3754:3768   */\n  lt\n    /* \"#utility.yul\":3734:3752   */\n  dup2\n    /* \"#utility.yul\":3731:3769   */\n  sub\n    /* \"#utility.yul\":3728:3812   */\n  tag_84\n  jumpi\n    /* \"#utility.yul\":3784:3802   */\n  tag_85\n  tag_23\n  jump\t// in\ntag_85:\n    /* \"#utility.yul\":3728:3812   */\ntag_84:\n    /* \"#utility.yul\":3549:3818   */\n  pop\n    /* \"#utility.yul\":3498:3818   */\n  swap2\n  swap1\n  pop\n  jump\t// out\n    /* \"#utility.yul\":3824:3965   */\ntag_25:\n    /* \"#utility.yul\":3873:3877   */\n  0x00\n    /* \"#utility.yul\":3896:3899   */\n  dup2\n    /* \"#utility.yul\":3888:3899   */\n  swap1\n  pop\n    /* \"#utility.yul\":3919:3922   */\n  dup2\n    /* \"#utility.yul\":3916:3917   */\n  0x00\n    /* \"#utility.yul\":3909:3923   */\n  mstore\n    /* \"#utility.yul\":3953:3957   */\n  0x20\n    /* \"#utility.yul\":3950:3951   */\n  0x00\n    /* \"#utility.yul\":3940:3958   */\n  keccak256\n    /* \"#utility.yul\":3932:3958   */\n  swap1\n  pop\n    /* \"#utility.yul\":3824:3965   */\n  swap2\n  swap1\n  pop\n  jump\t// out\n    /* \"#utility.yul\":3971:4064   */\ntag_26:\n    /* \"#utility.yul\":4008:4014   */\n  0x00\n    /* \"#utility.yul\":4055:4057   */\n  0x20\n    /* \"#utility.yul\":4050:4052   */\n  0x1f\n    /* \"#utility.yul\":4043:4048   */\n  dup4\n    /* \"#utility.yul\":4039:4053   */\n  add\n    /* \"#utility.yul\":4035:4058   */\n  div\n    /* \"#utility.yul\":4025:4058   */\n  swap1\n  pop\n    /* \"#utility.yul\":3971:4064   */\n  swap2\n  swap1\n  pop\n  jump\t// out\n    /* \"#utility.yul\":4070:4177   */\ntag_27:\n    /* \"#utility.yul\":4114:4122   */\n  0x00\n    /* \"#utility.yul\":4164:4169   */\n  dup3\n    /* \"#utility.yul\":4158:4162   */\n  dup3\n    /* \"#utility.yul\":4154:4170   */\n  shl\n    /* \"#utility.yul\":4133:4170   */\n  swap1\n  pop\n    /* \"#utility.yul\":4070:4177   */\n  swap3\n  swap2\n  pop\n  pop\n  jump\t// out\n    /* \"#utility.yul\":4183:4576   */\ntag_28:\n    /* \"#utility.yul\":4252:4258   */\n  0x00\n    /* \"#utility.yul\":4302:4303   */\n  0x08\n    /* \"#utility.yul\":4290:4300   */\n  dup4\n    /* \"#utility.yul\":4286:4304   */\n  mul\n    /* \"#utility.yul\":4325:4422   */\n  tag_90\n    /* \"#utility.yul\":4355:4421   */\n  0xffffffffffffffffffffffffffffffffffffffffffffffffffffffffffffffff\n    /* \"#utility.yul\":4344:4353   */\n  dup3\n    /* \"#utility.yul\":4325:4422   */\n  tag_27\n  jump\t// in\ntag_90:\n    /* \"#utility.yul\":4443:4482   */\n  tag_91\n    /* \"#utility.yul\":4473:4481   */\n  dup7\n    /* \"#utility.yul\":4462:4471   */\n  dup4\n    /* \"#utility.yul\":4443:4482   */\n  tag_27\n  jump\t// in\ntag_91:\n    /* \"#utility.yul\":4431:4482   */\n  swap6\n  pop\n    /* \"#utility.yul\":4515:4519   */\n  dup1\n    /* \"#utility.yul\":4511:4520   */\n  not\n    /* \"#utility.yul\":4504:4509   */\n  dup5\n    /* \"#utility.yul\":4500:4521   */\n  and\n    /* \"#utility.yul\":4491:4521   */\n  swap4\n  pop\n    /* \"#utility.yul\":4564:4568   */\n  dup1\n    /* \"#utility.yul\":4554:4562   */\n  dup7\n    /* \"#utility.yul\":4550:4569   */\n  and\n    /* \"#utility.yul\":4543:4548   */\n  dup5\n    /* \"#utility.yul\":4540:4570   */\n  or\n    /* \"#utility.yul\":4530:4570   */\n  swap3\n  pop\n    /* \"#utility.yul\":4259:4576   */\n  pop\n  pop\n    /* \"#utility.yul\":4183:4576   */\n  swap4\n  swap3\n  pop\n  pop\n  pop\n  jump\t// out\n    /* \"#utility.yul\":4582:4659   */\ntag_29:\n    /* \"#utility.yul\":4619:4626   */\n  0x00\n    /* \"#utility.yul\":4648:4653   */\n  dup2\n    /* \"#utility.yul\":4637:4653   */\n  swap1\n  pop\n    /* \"#utility.yul\":4582:4659   */\n  swap2\n  swap1\n  pop\n  jump\t// out\n    /* \"#utility.yul\":4665:4725   */\ntag_30:\n    /* \"#utility.yul\":4693:4696   */\n  0x00\n    /* \"#utility.yul\":4714:4719   */\n  dup2\n    /* \"#utility.yul\":4707:4719   */\n  swap1\n  pop\n    /* \"#utility.yul\":4665:4725   */\n  swap2\n  swap1\n  pop\n  jump\t// out\n    /* \"#utility.yul\":4731:4873   */\ntag_31:\n    /* \"#utility.yul\":4781:4790   */\n  0x00\n    /* \"#utility.yul\":4814:4867   */\n  tag_95\n    /* \"#utility.yul\":4832:4866   */\n  tag_96\n    /* \"#utility.yul\":4841:4865   */\n  tag_97\n    /* \"#utility.yul\":4859:4864   */\n  dup5\n    /* \"#utility.yul\":4841:4865   */\n  tag_29\n  jump\t// in\ntag_97:\n    /* \"#utility.yul\":4832:4866   */\n  tag_30\n  jump\t// in\ntag_96:\n    /* \"#utility.yul\":4814:4867   */\n  tag_29\n  jump\t// in\ntag_95:\n    /* \"#utility.yul\":4801:4867   */\n  swap1\n  pop\n    /* \"#utility.yul\":4731:4873   */\n  swap2\n  swap1\n  pop\n  jump\t// out\n    /* \"#utility.yul\":4879:4954   */\ntag_32:\n    /* \"#utility.yul\":4922:4925   */\n  0x00\n    /* \"#utility.yul\":4943:4948   */\n  dup2\n    /* \"#utility.yul\":4936:4948   */\n  swap1\n  pop\n    /* \"#utility.yul\":4879:4954   */\n  swap2\n  swap1\n  pop\n  jump\t// out\n    /* \"#utility.yul\":4960:5229   */\ntag_33:\n    /* \"#utility.yul\":5070:5109   */\n  tag_100\n    /* \"#utility.yul\":5101:5108   */\n  dup4\n    /* \"#utility.yul\":5070:5109   */\n  tag_31\n  jump\t// in\ntag_100:\n    /* \"#utility.yul\":5131:5222   */\n  tag_101\n    /* \"#utility.yul\":5180:5221   */\n  tag_102\n    /* \"#utility.yul\":5204:5220   */\n  dup3\n    /* \"#utility.yul\":5180:5221   */\n  tag_32\n  jump\t// in\ntag_102:\n    /* \"#utility.yul\":5172:5178   */\n  dup5\n    /* \"#utility.yul\":5165:5169   */\n  dup5\n    /* \"#utility.yul\":5159:5170   */\n  sload\n    /* \"#utility.yul\":5131:5222   */\n  tag_28\n  jump\t// in\ntag_101:\n    /* \"#utility.yul\":5125:5129   */\n  dup3\n    /* \"#utility.yul\":5118:5223   */\n  sstore\n    /* \"#utility.yul\":5036:5229   */\n  pop\n    /* \"#utility.yul\":4960:5229   */\n  pop\n  pop\n  pop\n  jump\t// out\n    /* \"#utility.yul\":5235:5308   */\ntag_34:\n    /* \"#utility.yul\":5280:5283   */\n  0x00\n    /* \"#utility.yul\":5235:5308   */\n  swap1\n  jump\t// out\n    /* \"#utility.yul\":5314:5503   */\ntag_35:\n    /* \"#utility.yul\":5391:5423   */\n  tag_105\n  tag_34\n  jump\t// in\ntag_105:\n    /* \"#utility.yul\":5432:5497   */\n  tag_106\n    /* \"#utility.yul\":5490:5496   */\n  dup2\n    /* \"#utility.yul\":5482:5488   */\n  dup5\n    /* \"#utility.yul\":5476:5480   */\n  dup5\n    /* \"#utility.yul\":5432:5497   */\n  tag_33\n  jump\t// in\ntag_106:\n    /* \"#utility.yul\":5367:5503   */\n  pop\n    /* \"#utility.yul\":5314:5503   */\n  pop\n  pop\n  jump\t// out\n    /* \"#utility.yul\":5509:5695   */\ntag_36:\n    /* \"#utility.yul\":5569:5689   */\ntag_108:\n    /* \"#utility.yul\":5586:5589   */\n  dup2\n    /* \"#utility.yul\":5579:5584   */\n  dup2\n    /* \"#utility.yul\":5576:5590   */\n  lt\n    /* \"#utility.yul\":5569:5689   */\n  iszero\n  tag_110\n  jumpi\n    /* \"#utility.yul\":5640:5679   */\n  tag_111\n    /* \"#utility.yul\":5677:5678   */\n  0x00\n    /* \"#utility.yul\":5670:5675   */\n  dup3\n    /* \"#utility.yul\":5640:5679   */\n  tag_35\n  jump\t// in\ntag_111:\n    /* \"#utility.yul\":5613:5614   */\n  0x01\n    /* \"#utility.yul\":5606:5611   */\n  dup2\n    /* \"#utility.yul\":5602:5615   */\n  add\n    /* \"#utility.yul\":5593:5615   */\n  swap1\n  pop\n    /* \"#utility.yul\":5569:5689   */\n  jump(tag_108)\ntag_110:\n    /* \"#utility.yul\":5509:5695   */\n  pop\n  pop\n  jump\t// out\n    /* \"#utility.yul\":5701:6244   */\ntag_37:\n    /* \"#utility.yul\":5802:5804   */\n  0x1f\n    /* \"#utility.yul\":5797:5800   */\n  dup3\n    /* \"#utility.yul\":5794:5805   */\n  gt\n    /* \"#utility.yul\":5791:6237   */\n  iszero\n  tag_113\n  jumpi\n    /* \"#utility.yul\":5836:5874   */\n  tag_114\n    /* \"#utility.yul\":5868:5873   */\n  dup2\n    /* \"#utility.yul\":5836:5874   */\n  tag_25\n  jump\t// in\ntag_114:\n    /* \"#utility.yul\":5920:5949   */\n  tag_115\n    /* \"#utility.yul\":5938:5948   */\n  dup5\n    /* \"#utility.yul\":5920:5949   */\n  tag_26\n  jump\t// in\ntag_115:\n    /* \"#utility.yul\":5910:5918   */\n  dup2\n    /* \"#utility.yul\":5906:5950   */\n  add\n    /* \"#utility.yul\":6103:6105   */\n  0x20\n    /* \"#utility.yul\":6091:6101   */\n  dup6\n    /* \"#utility.yul\":6088:6106   */\n  lt\n    /* \"#utility.yul\":6085:6134   */\n  iszero\n  tag_116\n  jumpi\n    /* \"#utility.yul\":6124:6132   */\n  dup2\n    /* \"#utility.yul\":6109:6132   */\n  swap1\n  pop\n    /* \"#utility.yul\":6085:6134   */\ntag_116:\n    /* \"#utility.yul\":6147:6227   */\n  tag_117\n    /* \"#utility.yul\":6203:6225   */\n  tag_118\n    /* \"#utility.yul\":6221:6224   */\n  dup6\n    /* \"#utility.yul\":6203:6225   */\n  tag_26\n  jump\t// in\ntag_118:\n    /* \"#utility.yul\":6193:6201   */\n  dup4\n    /* \"#utility.yul\":6189:6226   */\n  add\n    /* \"#utility.yul\":6176:6187   */\n  dup3\n    /* \"#utility.yul\":6147:6227   */\n  tag_36\n  jump\t// in\ntag_117:\n    /* \"#utility.yul\":5806:6237   */\n  pop\n  pop\n    /* \"#utility.yul\":5791:6237   */\ntag_113:\n    /* \"#utility.yul\":5701:6244   */\n  pop\n  pop\n  pop\n  jump\t// out\n    /* \"#utility.yul\":6250:6367   */\ntag_38:\n    /* \"#utility.yul\":6304:6312   */\n  0x00\n    /* \"#utility.yul\":6354:6359   */\n  dup3\n    /* \"#utility.yul\":6348:6352   */\n  dup3\n    /* \"#utility.yul\":6344:6360   */\n  shr\n    /* \"#utility.yul\":6323:6360   */\n  swap1\n  pop\n    /* \"#utility.yul\":6250:6367   */\n  swap3\n  swap2\n  pop\n  pop\n  jump\t// out\n    /* \"#utility.yul\":6373:6542   */\ntag_39:\n    /* \"#utility.yul\":6417:6423   */\n  0x00\n    /* \"#utility.yul\":6450:6501   */\n  tag_121\n    /* \"#utility.yul\":6498:6499   */\n  0x00\n    /* \"#utility.yul\":6494:6500   */\n  not\n    /* \"#utility.yul\":6486:6491   */\n  dup5\n    /* \"#utility.yul\":6483:6484   */\n  0x08\n    /* \"#utility.yul\":6479:6492   */\n  mul\n    /* \"#utility.yul\":6450:6501   */\n  tag_38\n  jump\t// in\ntag_121:\n    /* \"#utility.yul\":6446:6502   */\n  not\n    /* \"#utility.yul\":6531:6535   */\n  dup1\n    /* \"#utility.yul\":6525:6529   */\n  dup4\n    /* \"#utility.yul\":6521:6536   */\n  and\n    /* \"#utility.yul\":6511:6536   */\n  swap2\n  pop\n    /* \"#utility.yul\":6424:6542   */\n  pop\n    /* \"#utility.yul\":6373:6542   */\n  swap3\n  swap2\n  pop\n  pop\n  jump\t// out\n    /* \"#utility.yul\":6547:6842   */\ntag_40:\n    /* \"#utility.yul\":6623:6627   */\n  0x00\n    /* \"#utility.yul\":6769:6798   */\n  tag_123\n    /* \"#utility.yul\":6794:6797   */\n  dup4\n    /* \"#utility.yul\":6788:6792   */\n  dup4\n    /* \"#utility.yul\":6769:6798   */\n  tag_39\n  jump\t// in\ntag_123:\n    /* \"#utility.yul\":6761:6798   */\n  swap2\n  pop\n    /* \"#utility.yul\":6831:6834   */\n  dup3\n    /* \"#utility.yul\":6828:6829   */\n  0x02\n    /* \"#utility.yul\":6824:6835   */\n  mul\n    /* \"#utility.yul\":6818:6822   */\n  dup3\n    /* \"#utility.yul\":6815:6836   */\n  or\n    /* \"#utility.yul\":6807:6836   */\n  swap1\n  pop\n    /* \"#utility.yul\":6547:6842   */\n  swap3\n  swap2\n  pop\n  pop\n  jump\t// out\n    /* \"#utility.yul\":6847:8242   */\ntag_7:\n    /* \"#utility.yul\":6964:7001   */\n  tag_125\n    /* \"#utility.yul\":6997:7000   */\n  dup3\n    /* \"#utility.yul\":6964:7001   */\n  tag_22\n  jump\t// in\ntag_125:\n    /* \"#utility.yul\":7066:7084   */\n  0xffffffffffffffff\n    /* \"#utility.yul\":7058:7064   */\n  dup2\n    /* \"#utility.yul\":7055:7085   */\n  gt\n    /* \"#utility.yul\":7052:7108   */\n  iszero\n  tag_126\n  jumpi\n    /* \"#utility.yul\":7088:7106   */\n  tag_127\n  tag_15\n  jump\t// in\ntag_127:\n    /* \"#utility.yul\":7052:7108   */\ntag_126:\n    /* \"#utility.yul\":7132:7170   */\n  tag_128\n    /* \"#utility.yul\":7164:7168   */\n  dup3\n    /* \"#utility.yul\":7158:7169   */\n  sload\n    /* \"#utility.yul\":7132:7170   */\n  tag_24\n  jump\t// in\ntag_128:\n    /* \"#utility.yul\":7217:7284   */\n  tag_129\n    /* \"#utility.yul\":7277:7283   */\n  dup3\n    /* \"#utility.yul\":7269:7275   */\n  dup3\n    /* \"#utility.yul\":7263:7267   */\n  dup6\n    /* \"#utility.yul\":7217:7284   */\n  tag_37\n  jump\t// in\ntag_129:\n    /* \"#utility.yul\":7311:7312   */\n  0x00\n    /* \"#utility.yul\":7335:7339   */\n  0x20\n    /* \"#utility.yul\":7322:7339   */\n  swap1\n  pop\n    /* \"#utility.yul\":7367:7369   */\n  0x1f\n    /* \"#utility.yul\":7359:7365   */\n  dup4\n    /* \"#utility.yul\":7356:7370   */\n  gt\n    /* \"#utility.yul\":7384:7385   */\n  0x01\n    /* \"#utility.yul\":7379:7997   */\n  dup2\n  eq\n  tag_131\n  jumpi\n    /* \"#utility.yul\":8041:8042   */\n  0x00\n    /* \"#utility.yul\":8058:8064   */\n  dup5\n    /* \"#utility.yul\":8055:8132   */\n  iszero\n  tag_132\n  jumpi\n    /* \"#utility.yul\":8107:8116   */\n  dup3\n    /* \"#utility.yul\":8102:8105   */\n  dup8\n    /* \"#utility.yul\":8098:8117   */\n  add\n    /* \"#utility.yul\":8092:8118   */\n  mload\n    /* \"#utility.yul\":8083:8118   */\n  swap1\n  pop\n    /* \"#utility.yul\":8055:8132   */\ntag_132:\n    /* \"#utility.yul\":8158:8225   */\n  tag_133\n    /* \"#utility.yul\":8218:8224   */\n  dup6\n    /* \"#utility.yul\":8211:8216   */\n  dup3\n    /* \"#utility.yul\":8158:8225   */\n  tag_40\n  jump\t// in\ntag_133:\n    /* \"#utility.yul\":8152:8156   */\n  dup7\n    /* \"#utility.yul\":8145:8226   */\n  sstore\n    /* \"#utility.yul\":8014:8236   */\n  pop\n    /* \"#utility.yul\":7349:8236   */\n  jump(tag_130)\n    /* \"#utility.yul\":7379:7997   */\ntag_131:\n    /* \"#utility.yul\":7431:7435   */\n  0x1f\n    /* \"#utility.yul\":7427:7436   */\n  not\n    /* \"#utility.yul\":7419:7425   */\n  dup5\n    /* \"#utility.yul\":7415:7437   */\n  and\n    /* \"#utility.yul\":7465:7502   */\n  tag_134\n    /* \"#utility.yul\":7497:7501   */\n  dup7\n    /* \"#utility.yul\":7465:7502   */\n  tag_25\n  jump\t// in\ntag_134:\n    /* \"#utility.yul\":7524:7525   */\n  0x00\n    /* \"#utility.yul\":7538:7746   */\ntag_135:\n    /* \"#utility.yul\":7552:7559   */\n  dup3\n    /* \"#utility.yul\":7549:7550   */\n  dup2\n    /* \"#utility.yul\":7546:7560   */\n  lt\n    /* \"#utility.yul\":7538:7746   */\n  iszero\n  tag_137\n  jumpi\n    /* \"#utility.yul\":7631:7640   */\n  dup5\n    /* \"#utility.yul\":7626:7629   */\n  dup10\n    /* \"#utility.yul\":7622:7641   */\n  add\n    /* \"#utility.yul\":7616:7642   */\n  mload\n    /* \"#utility.yul\":7608:7614   */\n  dup3\n    /* \"#utility.yul\":7601:7643   */\n  sstore\n    /* \"#utility.yul\":7682:7683   */\n  0x01\n    /* \"#utility.yul\":7674:7680   */\n  dup3\n    /* \"#utility.yul\":7670:7684   */\n  add\n    /* \"#utility.yul\":7660:7684   */\n  swap2\n  pop\n    /* \"#utility.yul\":7729:7731   */\n  0x20\n    /* \"#utility.yul\":7718:7727   */\n  dup6\n    /* \"#utility.yul\":7714:7732   */\n  add\n    /* \"#utility.yul\":7701:7732   */\n  swap5\n  pop\n    /* \"#utility.yul\":7575:7579   */\n  0x20\n    /* \"#utility.yul\":7572:7573   */\n  dup2\n    /* \"#utility.yul\":7568:7580   */\n  add\n    /* \"#utility.yul\":7563:7580   */\n  swap1\n  pop\n    /* \"#utility.yul\":7538:7746   */\n  jump(tag_135)\ntag_137:\n    /* \"#utility.yul\":7774:7780   */\n  dup7\n    /* \"#utility.yul\":7765:7772   */\n  dup4\n    /* \"#utility.yul\":7762:7781   */\n  lt\n    /* \"#utility.yul\":7759:7938   */\n  iszero\n  tag_138\n  jumpi\n    /* \"#utility.yul\":7832:7841   */\n  dup5\n    /* \"#utility.yul\":7827:7830   */\n  dup10\n    /* \"#utility.yul\":7823:7842   */\n  add\n    /* \"#utility.yul\":7817:7843   */\n  mload\n    /* \"#utility.yul\":7875:7923   */\n  tag_139\n    /* \"#utility.yul\":7917:7921   */\n  0x1f\n    /* \"#utility.yul\":7909:7915   */\n  dup10\n    /* \"#utility.yul\":7905:7922   */\n  and\n    /* \"#utility.yul\":7894:7903   */\n  dup3\n    /* \"#utility.yul\":7875:7923   */\n  tag_39\n  jump\t// in\ntag_139:\n    /* \"#utility.yul\":7867:7873   */\n  dup4\n    /* \"#utility.yul\":7860:7924   */\n  sstore\n    /* \"#utility.yul\":7782:7938   */\n  pop\n    /* \"#utility.yul\":7759:7938   */\ntag_138:\n    /* \"#utility.yul\":7984:7985   */\n  0x01\n    /* \"#utility.yul\":7980:7981   */\n  0x02\n    /* \"#utility.yul\":7972:7978   */\n  dup9\n    /* \"#utility.yul\":7968:7982   */\n  mul\n    /* \"#utility.yul\":7964:7986   */\n  add\n    /* \"#utility.yul\":7958:7962   */\n  dup9\n    /* \"#utility.yul\":7951:7987   */\n  sstore\n    /* \"#utility.yul\":7386:7997   */\n  pop\n  pop\n  pop\n    /* \"#utility.yul\":7349:8236   */\ntag_130:\n  pop\n    /* \"#utility.yul\":6939:8242   */\n  pop\n  pop\n  pop\n    /* \"#utility.yul\":6847:8242   */\n  pop\n  pop\n  jump\t// out\n    /* \"contracts/election.sol\":66:3838  contract Voting {... */\ntag_8:\n  dataSize(sub_0)\n  dup1\n  dataOffset(sub_0)\n  0x00\n  codecopy\n  0x00\n  return\nstop\n\nsub_0: assembly {\n        /* \"contracts/election.sol\":66:3838  contract Voting {... */\n      mstore(0x40, 0x80)\n      callvalue\n      dup1\n      iszero\n      tag_1\n      jumpi\n      0x00\n      dup1\n      revert\n    tag_1:\n      pop\n      jumpi(tag_2, lt(calldatasize, 0x04))\n      shr(0xe0, calldataload(0x00))\n      dup1\n      0x8da5cb5b\n      gt\n      tag_18\n      jumpi\n      dup1\n      0xed7a4e0b\n      gt\n      tag_19\n      jumpi\n      dup1\n      0xed7a4e0b\n      eq\n      tag_14\n      jumpi\n      dup1\n      0xefd5297c\n      eq\n      tag_15\n      jumpi\n      dup1\n      0xf1cea4c7\n      eq\n      tag_16\n      jumpi\n      dup1\n      0xfab2f86b\n      eq\n      tag_17\n      jumpi\n      jump(tag_2)\n    tag_19:\n      dup1\n      0x8da5cb5b\n      eq\n      tag_10\n      jumpi\n      dup1\n      0x8e7ea5b2\n      eq\n      tag_11\n      jumpi\n      dup1\n      0xb13c744b\n      eq\n      tag_12\n      jumpi\n      dup1\n      0xcf52a7b2\n      eq\n      tag_13\n      jumpi\n      jump(tag_2)\n    tag_18:\n      dup1\n      0x3c71a6d5\n      gt\n      tag_20\n      jumpi\n      dup1\n      0x3c71a6d5\n      eq\n      tag_6\n      jumpi\n      dup1\n      0x8043c9c0\n      eq\n      tag_7\n      jumpi\n      dup1\n      0x88fb6f74\n      eq\n      tag_8\n      jumpi\n      dup1\n      0x8ab66a90\n      eq\n      tag_9\n      jumpi\n      jump(tag_2)\n    tag_20:\n      dup1\n      0x03b4caed\n      eq\n      tag_3\n      jumpi\n      dup1\n      0x19f41a40\n      eq\n      tag_4\n      jumpi\n      dup1\n      0x1ec6b60a\n      eq\n      tag_5\n      jumpi\n    tag_2:\n      0x00\n      dup1\n      revert\n        /* \"contracts/election.sol\":586:626  mapping(address=>Voter) public voterList */\n    tag_3:\n      tag_21\n      0x04\n      dup1\n      calldatasize\n      sub\n      dup2\n      add\n      swap1\n      tag_22\n      swap2\n      swap1\n      tag_23\n      jump\t// in\n    tag_22:\n      tag_24\n      jump\t// in\n    tag_21:\n      mload(0x40)\n      tag_25\n      swap3\n      swap2\n      swap1\n      tag_26\n      jump\t// in\n    tag_25:\n      mload(0x40)\n      dup1\n      swap2\n      sub\n      swap1\n      return\n        /* \"contracts/election.sol\":3531:3619  function votingStatus() public view returns(bool){... */\n    tag_4:\n      tag_27\n      tag_28\n      jump\t// in\n    tag_27:\n      mload(0x40)\n      tag_29\n      swap2\n      swap1\n      tag_30\n      jump\t// in\n    tag_29:\n      mload(0x40)\n      dup1\n      swap2\n      sub\n      swap1\n      return\n        /* \"contracts/election.sol\":2168:2352  function startVoting() public {... */\n    tag_5:\n      tag_31\n      tag_32\n      jump\t// in\n    tag_31:\n      stop\n        /* \"contracts/election.sol\":804:1647  function registerCandidates(string memory _name, uint _age, address _candidateAddress) public {... */\n    tag_6:\n      tag_33\n      0x04\n      dup1\n      calldatasize\n      sub\n      dup2\n      add\n      swap1\n      tag_34\n      swap2\n      swap1\n      tag_35\n      jump\t// in\n    tag_34:\n      tag_36\n      jump\t// in\n    tag_33:\n      stop\n        /* \"contracts/election.sol\":153:176  string public eventName */\n    tag_7:\n      tag_37\n      tag_38\n      jump\t// in\n    tag_37:\n      mload(0x40)\n      tag_39\n      swap2\n      swap1\n      tag_40\n      jump\t// in\n    tag_39:\n      mload(0x40)\n      dup1\n      swap2\n      sub\n      swap1\n      return\n        /* \"contracts/election.sol\":2360:3214  function putVote(address _candidateAddress) public {... */\n    tag_8:\n      tag_41\n      0x04\n      dup1\n      calldatasize\n      sub\n      dup2\n      add\n      swap1\n      tag_42\n      swap2\n      swap1\n      tag_23\n      jump\t// in\n    tag_42:\n      tag_43\n      jump\t// in\n    tag_41:\n      stop\n        /* \"contracts/election.sol\":500:540  mapping(address=>uint) public candidates */\n    tag_9:\n      tag_44\n      0x04\n      dup1\n      calldatasize\n      sub\n      dup2\n      add\n      swap1\n      tag_45\n      swap2\n      swap1\n      tag_23\n      jump\t// in\n    tag_45:\n      tag_46\n      jump\t// in\n    tag_44:\n      mload(0x40)\n      tag_47\n      swap2\n      swap1\n      tag_48\n      jump\t// in\n    tag_47:\n      mload(0x40)\n      dup1\n      swap2\n      sub\n      swap1\n      return\n        /* \"contracts/election.sol\":91:111  address public owner */\n    tag_10:\n      tag_49\n      tag_50\n      jump\t// in\n    tag_49:\n      mload(0x40)\n      tag_51\n      swap2\n      swap1\n      tag_52\n      jump\t// in\n    tag_51:\n      mload(0x40)\n      dup1\n      swap2\n      sub\n      swap1\n      return\n        /* \"contracts/election.sol\":3627:3835  function getWinner() public view returns(Candidate memory candidate){... */\n    tag_11:\n      tag_53\n      tag_54\n      jump\t// in\n    tag_53:\n      mload(0x40)\n      tag_55\n      swap2\n      swap1\n      tag_56\n      jump\t// in\n    tag_55:\n      mload(0x40)\n      dup1\n      swap2\n      sub\n      swap1\n      return\n        /* \"contracts/election.sol\":547:579  Candidate[] public candidateList */\n    tag_12:\n      tag_57\n      0x04\n      dup1\n      calldatasize\n      sub\n      dup2\n      add\n      swap1\n      tag_58\n      swap2\n      swap1\n      tag_59\n      jump\t// in\n    tag_58:\n      tag_60\n      jump\t// in\n    tag_57:\n      mload(0x40)\n      tag_61\n      swap6\n      swap5\n      swap4\n      swap3\n      swap2\n      swap1\n      tag_62\n      jump\t// in\n    tag_61:\n      mload(0x40)\n      dup1\n      swap2\n      sub\n      swap1\n      return\n        /* \"contracts/election.sol\":1655:2160  function whiteListAddress(address _voterAddress) public {... */\n    tag_13:\n      tag_63\n      0x04\n      dup1\n      calldatasize\n      sub\n      dup2\n      add\n      swap1\n      tag_64\n      swap2\n      swap1\n      tag_23\n      jump\t// in\n    tag_64:\n      tag_65\n      jump\t// in\n    tag_63:\n      stop\n        /* \"contracts/election.sol\":118:146  address public winnerAddress */\n    tag_14:\n      tag_66\n      tag_67\n      jump\t// in\n    tag_66:\n      mload(0x40)\n      tag_68\n      swap2\n      swap1\n      tag_52\n      jump\t// in\n    tag_68:\n      mload(0x40)\n      dup1\n      swap2\n      sub\n      swap1\n      return\n        /* \"contracts/election.sol\":3413:3523  function getAllCandidate() public view returns(Candidate[] memory list){... */\n    tag_15:\n      tag_69\n      tag_70\n      jump\t// in\n    tag_69:\n      mload(0x40)\n      tag_71\n      swap2\n      swap1\n      tag_72\n      jump\t// in\n    tag_71:\n      mload(0x40)\n      dup1\n      swap2\n      sub\n      swap1\n      return\n        /* \"contracts/election.sol\":183:204  uint public totalVote */\n    tag_16:\n      tag_73\n      tag_74\n      jump\t// in\n    tag_73:\n      mload(0x40)\n      tag_75\n      swap2\n      swap1\n      tag_48\n      jump\t// in\n    tag_75:\n      mload(0x40)\n      dup1\n      swap2\n      sub\n      swap1\n      return\n        /* \"contracts/election.sol\":3222:3405  function stopVoting() public {... */\n    tag_17:\n      tag_76\n      tag_77\n      jump\t// in\n    tag_76:\n      stop\n        /* \"contracts/election.sol\":586:626  mapping(address=>Voter) public voterList */\n    tag_24:\n      mstore(0x20, 0x07)\n      dup1\n      0x00\n      mstore\n      keccak256(0x00, 0x40)\n      0x00\n      swap2\n      pop\n      swap1\n      pop\n      dup1\n      0x00\n      add\n      0x00\n      swap1\n      sload\n      swap1\n      0x0100\n      exp\n      swap1\n      div\n      0xff\n      and\n      swap1\n      dup1\n      0x00\n      add\n      0x01\n      swap1\n      sload\n      swap1\n      0x0100\n      exp\n      swap1\n      div\n      0xff\n      and\n      swap1\n      pop\n      dup3\n      jump\t// out\n        /* \"contracts/election.sol\":3531:3619  function votingStatus() public view returns(bool){... */\n    tag_28:\n        /* \"contracts/election.sol\":3575:3579  bool */\n      0x00\n        /* \"contracts/election.sol\":3598:3611  votingStarted */\n      0x04\n      0x00\n      swap1\n      sload\n      swap1\n      0x0100\n      exp\n      swap1\n      div\n      0xff\n      and\n        /* \"contracts/election.sol\":3591:3611  return votingStarted */\n      swap1\n      pop\n        /* \"contracts/election.sol\":3531:3619  function votingStatus() public view returns(bool){... */\n      swap1\n      jump\t// out\n        /* \"contracts/election.sol\":2168:2352  function startVoting() public {... */\n    tag_32:\n        /* \"contracts/election.sol\":2231:2236  owner */\n      0x00\n      dup1\n      sload\n      swap1\n      0x0100\n      exp\n      swap1\n      div\n      0xffffffffffffffffffffffffffffffffffffffff\n      and\n        /* \"contracts/election.sol\":2217:2236  msg.sender == owner */\n      0xffffffffffffffffffffffffffffffffffffffff\n      and\n        /* \"contracts/election.sol\":2217:2227  msg.sender */\n      caller\n        /* \"contracts/election.sol\":2217:2236  msg.sender == owner */\n      0xffffffffffffffffffffffffffffffffffffffff\n      and\n      eq\n        /* \"contracts/election.sol\":2209:2270  require(msg.sender == owner, \"Only owner can start voting!!\") */\n      tag_80\n      jumpi\n      mload(0x40)\n      0x08c379a000000000000000000000000000000000000000000000000000000000\n      dup2\n      mstore\n      0x04\n      add\n      tag_81\n      swap1\n      tag_82\n      jump\t// in\n    tag_81:\n      mload(0x40)\n      dup1\n      swap2\n      sub\n      swap1\n      revert\n    tag_80:\n        /* \"contracts/election.sol\":2297:2301  true */\n      0x01\n        /* \"contracts/election.sol\":2281:2294  votingStarted */\n      0x04\n      0x00\n        /* \"contracts/election.sol\":2281:2301  votingStarted = true */\n      0x0100\n      exp\n      dup2\n      sload\n      dup2\n      0xff\n      mul\n      not\n      and\n      swap1\n      dup4\n      iszero\n      iszero\n      mul\n      or\n      swap1\n      sstore\n      pop\n        /* \"contracts/election.sol\":2317:2344  success(\"Voting Started!!\") */\n      0x68f068b2f0d02fca99bc8285b62fce8668fe16b7c6a810351ea25bff358c0dd8\n      mload(0x40)\n      tag_83\n      swap1\n      tag_84\n      jump\t// in\n    tag_83:\n      mload(0x40)\n      dup1\n      swap2\n      sub\n      swap1\n      log1\n        /* \"contracts/election.sol\":2168:2352  function startVoting() public {... */\n      jump\t// out\n        /* \"contracts/election.sol\":804:1647  function registerCandidates(string memory _name, uint _age, address _candidateAddress) public {... */\n    tag_36:\n        /* \"contracts/election.sol\":931:936  owner */\n      0x00\n      dup1\n      sload\n      swap1\n      0x0100\n      exp\n      swap1\n      div\n      0xffffffffffffffffffffffffffffffffffffffff\n      and\n        /* \"contracts/election.sol\":917:936  msg.sender == owner */\n      0xffffffffffffffffffffffffffffffffffffffff\n      and\n        /* \"contracts/election.sol\":917:927  msg.sender */\n      caller\n        /* \"contracts/election.sol\":917:936  msg.sender == owner */\n      0xffffffffffffffffffffffffffffffffffffffff\n      and\n      eq\n        /* \"contracts/election.sol\":909:976  require(msg.sender == owner, \"Only owner can register Candidate!!\") */\n      tag_86\n      jumpi\n      mload(0x40)\n      0x08c379a000000000000000000000000000000000000000000000000000000000\n      dup2\n      mstore\n      0x04\n      add\n      tag_87\n      swap1\n      tag_88\n      jump\t// in\n    tag_87:\n      mload(0x40)\n      dup1\n      swap2\n      sub\n      swap1\n      revert\n    tag_86:\n        /* \"contracts/election.sol\":1016:1021  owner */\n      0x00\n      dup1\n      sload\n      swap1\n      0x0100\n      exp\n      swap1\n      div\n      0xffffffffffffffffffffffffffffffffffffffff\n      and\n        /* \"contracts/election.sol\":995:1021  _candidateAddress != owner */\n      0xffffffffffffffffffffffffffffffffffffffff\n      and\n        /* \"contracts/election.sol\":995:1012  _candidateAddress */\n      dup2\n        /* \"contracts/election.sol\":995:1021  _candidateAddress != owner */\n      0xffffffffffffffffffffffffffffffffffffffff\n      and\n      sub\n        /* \"contracts/election.sol\":987:1053  require(_candidateAddress != owner, \"Owner can not participate!!\") */\n      tag_89\n      jumpi\n      mload(0x40)\n      0x08c379a000000000000000000000000000000000000000000000000000000000\n      dup2\n      mstore\n      0x04\n      add\n      tag_90\n      swap1\n      tag_91\n      jump\t// in\n    tag_90:\n      mload(0x40)\n      dup1\n      swap2\n      sub\n      swap1\n      revert\n    tag_89:\n        /* \"contracts/election.sol\":1105:1106  0 */\n      0x00\n        /* \"contracts/election.sol\":1072:1082  candidates */\n      0x05\n        /* \"contracts/election.sol\":1072:1101  candidates[_candidateAddress] */\n      0x00\n        /* \"contracts/election.sol\":1083:1100  _candidateAddress */\n      dup4\n        /* \"contracts/election.sol\":1072:1101  candidates[_candidateAddress] */\n      0xffffffffffffffffffffffffffffffffffffffff\n      and\n      0xffffffffffffffffffffffffffffffffffffffff\n      and\n      dup2\n      mstore\n      0x20\n      add\n      swap1\n      dup2\n      mstore\n      0x20\n      add\n      0x00\n      keccak256\n      sload\n        /* \"contracts/election.sol\":1072:1106  candidates[_candidateAddress] == 0 */\n      eq\n        /* \"contracts/election.sol\":1064:1139  require(candidates[_candidateAddress] == 0, \"Candidate already registered\") */\n      tag_92\n      jumpi\n      mload(0x40)\n      0x08c379a000000000000000000000000000000000000000000000000000000000\n      dup2\n      mstore\n      0x04\n      add\n      tag_93\n      swap1\n      tag_94\n      jump\t// in\n    tag_93:\n      mload(0x40)\n      dup1\n      swap2\n      sub\n      swap1\n      revert\n    tag_92:\n        /* \"contracts/election.sol\":1150:1176  Candidate memory candidate */\n      0x00\n        /* \"contracts/election.sol\":1179:1355  Candidate({... */\n      mload(0x40)\n      dup1\n      0xa0\n      add\n      0x40\n      mstore\n      dup1\n        /* \"contracts/election.sol\":1210:1215  _name */\n      dup6\n        /* \"contracts/election.sol\":1179:1355  Candidate({... */\n      dup2\n      mstore\n      0x20\n      add\n        /* \"contracts/election.sol\":1235:1239  _age */\n      dup5\n        /* \"contracts/election.sol\":1179:1355  Candidate({... */\n      dup2\n      mstore\n      0x20\n      add\n        /* \"contracts/election.sol\":1266:1270  true */\n      0x01\n        /* \"contracts/election.sol\":1179:1355  Candidate({... */\n      iszero\n      iszero\n      dup2\n      mstore\n      0x20\n      add\n        /* \"contracts/election.sol\":1326:1343  _candidateAddress */\n      dup4\n        /* \"contracts/election.sol\":1179:1355  Candidate({... */\n      0xffffffffffffffffffffffffffffffffffffffff\n      and\n      dup2\n      mstore\n      0x20\n      add\n        /* \"contracts/election.sol\":1292:1293  0 */\n      0x00\n        /* \"contracts/election.sol\":1179:1355  Candidate({... */\n      dup2\n      mstore\n      pop\n        /* \"contracts/election.sol\":1150:1355  Candidate memory candidate = Candidate({... */\n      swap1\n      pop\n        /* \"contracts/election.sol\":1393:1394  0 */\n      0x00\n        /* \"contracts/election.sol\":1369:1382  candidateList */\n      0x06\n        /* \"contracts/election.sol\":1369:1389  candidateList.length */\n      dup1\n      sload\n      swap1\n      pop\n        /* \"contracts/election.sol\":1369:1394  candidateList.length == 0 */\n      sub\n        /* \"contracts/election.sol\":1366:1488  if(candidateList.length == 0){ //not pushing any candidate on location zero;... */\n      tag_95\n      jumpi\n        /* \"contracts/election.sol\":1456:1469  candidateList */\n      0x06\n        /* \"contracts/election.sol\":1456:1476  candidateList.push() */\n      0x01\n      dup2\n      0x01\n      dup2\n      sload\n      add\n      dup1\n      dup3\n      sstore\n      dup1\n      swap2\n      pop\n      pop\n      sub\n      swap1\n      0x00\n      mstore\n      keccak256(0x00, 0x20)\n      swap1\n      pop\n      pop\n        /* \"contracts/election.sol\":1366:1488  if(candidateList.length == 0){ //not pushing any candidate on location zero;... */\n    tag_95:\n        /* \"contracts/election.sol\":1530:1543  candidateList */\n      0x06\n        /* \"contracts/election.sol\":1530:1550  candidateList.length */\n      dup1\n      sload\n      swap1\n      pop\n        /* \"contracts/election.sol\":1498:1508  candidates */\n      0x05\n        /* \"contracts/election.sol\":1498:1527  candidates[_candidateAddress] */\n      0x00\n        /* \"contracts/election.sol\":1509:1526  _candidateAddress */\n      dup5\n        /* \"contracts/election.sol\":1498:1527  candidates[_candidateAddress] */\n      0xffffffffffffffffffffffffffffffffffffffff\n      and\n      0xffffffffffffffffffffffffffffffffffffffff\n      and\n      dup2\n      mstore\n      0x20\n      add\n      swap1\n      dup2\n      mstore\n      0x20\n      add\n      0x00\n      keccak256\n        /* \"contracts/election.sol\":1498:1550  candidates[_candidateAddress] = candidateList.length */\n      dup2\n      swap1\n      sstore\n      pop\n        /* \"contracts/election.sol\":1561:1574  candidateList */\n      0x06\n        /* \"contracts/election.sol\":1580:1589  candidate */\n      dup2\n        /* \"contracts/election.sol\":1561:1590  candidateList.push(candidate) */\n      swap1\n      dup1\n      0x01\n      dup2\n      sload\n      add\n      dup1\n      dup3\n      sstore\n      dup1\n      swap2\n      pop\n      pop\n      0x01\n      swap1\n      sub\n      swap1\n      0x00\n      mstore\n      keccak256(0x00, 0x20)\n      swap1\n      0x04\n      mul\n      add\n      0x00\n      swap1\n      swap2\n      swap1\n      swap2\n      swap1\n      swap2\n      pop\n      0x00\n      dup3\n      add\n      mload\n      dup2\n      0x00\n      add\n      swap1\n      dup2\n      tag_98\n      swap2\n      swap1\n      tag_99\n      jump\t// in\n    tag_98:\n      pop\n      0x20\n      dup3\n      add\n      mload\n      dup2\n      0x01\n      add\n      sstore\n      0x40\n      dup3\n      add\n      mload\n      dup2\n      0x02\n      add\n      exp(0x0100, 0x00)\n      dup2\n      sload\n      dup2\n      0xff\n      mul\n      not\n      and\n      swap1\n      dup4\n      iszero\n      iszero\n      mul\n      or\n      swap1\n      sstore\n      pop\n      0x60\n      dup3\n      add\n      mload\n      dup2\n      0x02\n      add\n      exp(0x0100, 0x01)\n      dup2\n      sload\n      dup2\n      0xffffffffffffffffffffffffffffffffffffffff\n      mul\n      not\n      and\n      swap1\n      dup4\n      0xffffffffffffffffffffffffffffffffffffffff\n      and\n      mul\n      or\n      swap1\n      sstore\n      pop\n      0x80\n      dup3\n      add\n      mload\n      dup2\n      0x03\n      add\n      sstore\n      pop\n      pop\n        /* \"contracts/election.sol\":1606:1639  success(\"Candidate registered!!\") */\n      0x68f068b2f0d02fca99bc8285b62fce8668fe16b7c6a810351ea25bff358c0dd8\n      mload(0x40)\n      tag_100\n      swap1\n      tag_101\n      jump\t// in\n    tag_100:\n      mload(0x40)\n      dup1\n      swap2\n      sub\n      swap1\n      log1\n        /* \"contracts/election.sol\":898:1647  {... */\n      pop\n        /* \"contracts/election.sol\":804:1647  function registerCandidates(string memory _name, uint _age, address _candidateAddress) public {... */\n      pop\n      pop\n      pop\n      jump\t// out\n        /* \"contracts/election.sol\":153:176  string public eventName */\n    tag_38:\n      0x02\n      dup1\n      sload\n      tag_102\n      swap1\n      tag_103\n      jump\t// in\n    tag_102:\n      dup1\n      0x1f\n      add\n      0x20\n      dup1\n      swap2\n      div\n      mul\n      0x20\n      add\n      mload(0x40)\n      swap1\n      dup2\n      add\n      0x40\n      mstore\n      dup1\n      swap3\n      swap2\n      swap1\n      dup2\n      dup2\n      mstore\n      0x20\n      add\n      dup3\n      dup1\n      sload\n      tag_104\n      swap1\n      tag_103\n      jump\t// in\n    tag_104:\n      dup1\n      iszero\n      tag_105\n      jumpi\n      dup1\n      0x1f\n      lt\n      tag_106\n      jumpi\n      0x0100\n      dup1\n      dup4\n      sload\n      div\n      mul\n      dup4\n      mstore\n      swap2\n      0x20\n      add\n      swap2\n      jump(tag_105)\n    tag_106:\n      dup3\n      add\n      swap2\n      swap1\n      0x00\n      mstore\n      keccak256(0x00, 0x20)\n      swap1\n    tag_107:\n      dup2\n      sload\n      dup2\n      mstore\n      swap1\n      0x01\n      add\n      swap1\n      0x20\n      add\n      dup1\n      dup4\n      gt\n      tag_107\n      jumpi\n      dup3\n      swap1\n      sub\n      0x1f\n      and\n      dup3\n      add\n      swap2\n    tag_105:\n      pop\n      pop\n      pop\n      pop\n      pop\n      dup2\n      jump\t// out\n        /* \"contracts/election.sol\":2360:3214  function putVote(address _candidateAddress) public {... */\n    tag_43:\n        /* \"contracts/election.sol\":2447:2451  true */\n      0x01\n        /* \"contracts/election.sol\":2430:2451  votingStarted == true */\n      iszero\n      iszero\n        /* \"contracts/election.sol\":2430:2443  votingStarted */\n      0x04\n      0x00\n      swap1\n      sload\n      swap1\n      0x0100\n      exp\n      swap1\n      div\n      0xff\n      and\n        /* \"contracts/election.sol\":2430:2451  votingStarted == true */\n      iszero\n      iszero\n      eq\n        /* \"contracts/election.sol\":2422:2489  require(votingStarted == true, \"Voting not started yet or ended!!\") */\n      tag_109\n      jumpi\n      mload(0x40)\n      0x08c379a000000000000000000000000000000000000000000000000000000000\n      dup2\n      mstore\n      0x04\n      add\n      tag_110\n      swap1\n      tag_111\n      jump\t// in\n    tag_110:\n      mload(0x40)\n      dup1\n      swap2\n      sub\n      swap1\n      revert\n    tag_109:\n        /* \"contracts/election.sol\":2522:2527  owner */\n      0x00\n      dup1\n      sload\n      swap1\n      0x0100\n      exp\n      swap1\n      div\n      0xffffffffffffffffffffffffffffffffffffffff\n      and\n        /* \"contracts/election.sol\":2508:2527  msg.sender != owner */\n      0xffffffffffffffffffffffffffffffffffffffff\n      and\n        /* \"contracts/election.sol\":2508:2518  msg.sender */\n      caller\n        /* \"contracts/election.sol\":2508:2527  msg.sender != owner */\n      0xffffffffffffffffffffffffffffffffffffffff\n      and\n      sub\n        /* \"contracts/election.sol\":2500:2552  require(msg.sender != owner, \"Owner can not vote!!\") */\n      tag_112\n      jumpi\n      mload(0x40)\n      0x08c379a000000000000000000000000000000000000000000000000000000000\n      dup2\n      mstore\n      0x04\n      add\n      tag_113\n      swap1\n      tag_114\n      jump\t// in\n    tag_113:\n      mload(0x40)\n      dup1\n      swap2\n      sub\n      swap1\n      revert\n    tag_112:\n        /* \"contracts/election.sol\":2607:2611  true */\n      0x01\n        /* \"contracts/election.sol\":2571:2611  voterList[msg.sender].registered == true */\n      iszero\n      iszero\n        /* \"contracts/election.sol\":2571:2580  voterList */\n      0x07\n        /* \"contracts/election.sol\":2571:2592  voterList[msg.sender] */\n      0x00\n        /* \"contracts/election.sol\":2581:2591  msg.sender */\n      caller\n        /* \"contracts/election.sol\":2571:2592  voterList[msg.sender] */\n      0xffffffffffffffffffffffffffffffffffffffff\n      and\n      0xffffffffffffffffffffffffffffffffffffffff\n      and\n      dup2\n      mstore\n      0x20\n      add\n      swap1\n      dup2\n      mstore\n      0x20\n      add\n      0x00\n      keccak256\n        /* \"contracts/election.sol\":2571:2603  voterList[msg.sender].registered */\n      0x00\n      add\n      0x00\n      swap1\n      sload\n      swap1\n      0x0100\n      exp\n      swap1\n      div\n      0xff\n      and\n        /* \"contracts/election.sol\":2571:2611  voterList[msg.sender].registered == true */\n      iszero\n      iszero\n      eq\n        /* \"contracts/election.sol\":2563:2638  require(voterList[msg.sender].registered == true, \"Voter not registered!!\") */\n      tag_115\n      jumpi\n      mload(0x40)\n      0x08c379a000000000000000000000000000000000000000000000000000000000\n      dup2\n      mstore\n      0x04\n      add\n      tag_116\n      swap1\n      tag_117\n      jump\t// in\n    tag_116:\n      mload(0x40)\n      dup1\n      swap2\n      sub\n      swap1\n      revert\n    tag_115:\n        /* \"contracts/election.sol\":2688:2693  false */\n      0x00\n        /* \"contracts/election.sol\":2657:2693  voterList[msg.sender].voted == false */\n      iszero\n      iszero\n        /* \"contracts/election.sol\":2657:2666  voterList */\n      0x07\n        /* \"contracts/election.sol\":2657:2678  voterList[msg.sender] */\n      0x00\n        /* \"contracts/election.sol\":2667:2677  msg.sender */\n      caller\n        /* \"contracts/election.sol\":2657:2678  voterList[msg.sender] */\n      0xffffffffffffffffffffffffffffffffffffffff\n      and\n      0xffffffffffffffffffffffffffffffffffffffff\n      and\n      dup2\n      mstore\n      0x20\n      add\n      swap1\n      dup2\n      mstore\n      0x20\n      add\n      0x00\n      keccak256\n        /* \"contracts/election.sol\":2657:2684  voterList[msg.sender].voted */\n      0x00\n      add\n      0x01\n      swap1\n      sload\n      swap1\n      0x0100\n      exp\n      swap1\n      div\n      0xff\n      and\n        /* \"contracts/election.sol\":2657:2693  voterList[msg.sender].voted == false */\n      iszero\n      iszero\n      eq\n        /* \"contracts/election.sol\":2649:2713  require(voterList[msg.sender].voted == false, \"Already voted!!\") */\n      tag_118\n      jumpi\n      mload(0x40)\n      0x08c379a000000000000000000000000000000000000000000000000000000000\n      dup2\n      mstore\n      0x04\n      add\n      tag_119\n      swap1\n      tag_120\n      jump\t// in\n    tag_119:\n      mload(0x40)\n      dup1\n      swap2\n      sub\n      swap1\n      revert\n    tag_118:\n        /* \"contracts/election.sol\":2791:2795  true */\n      0x01\n        /* \"contracts/election.sol\":2732:2795  candidateList[candidates[_candidateAddress]].registered == true */\n      iszero\n      iszero\n        /* \"contracts/election.sol\":2732:2745  candidateList */\n      0x06\n        /* \"contracts/election.sol\":2746:2756  candidates */\n      0x05\n        /* \"contracts/election.sol\":2746:2775  candidates[_candidateAddress] */\n      0x00\n        /* \"contracts/election.sol\":2757:2774  _candidateAddress */\n      dup5\n        /* \"contracts/election.sol\":2746:2775  candidates[_candidateAddress] */\n      0xffffffffffffffffffffffffffffffffffffffff\n      and\n      0xffffffffffffffffffffffffffffffffffffffff\n      and\n      dup2\n      mstore\n      0x20\n      add\n      swap1\n      dup2\n      mstore\n      0x20\n      add\n      0x00\n      keccak256\n      sload\n        /* \"contracts/election.sol\":2732:2776  candidateList[candidates[_candidateAddress]] */\n      dup2\n      sload\n      dup2\n      lt\n      tag_121\n      jumpi\n      tag_122\n      tag_123\n      jump\t// in\n    tag_122:\n    tag_121:\n      swap1\n      0x00\n      mstore\n      keccak256(0x00, 0x20)\n      swap1\n      0x04\n      mul\n      add\n        /* \"contracts/election.sol\":2732:2787  candidateList[candidates[_candidateAddress]].registered */\n      0x02\n      add\n      0x00\n      swap1\n      sload\n      swap1\n      0x0100\n      exp\n      swap1\n      div\n      0xff\n      and\n        /* \"contracts/election.sol\":2732:2795  candidateList[candidates[_candidateAddress]].registered == true */\n      iszero\n      iszero\n      eq\n        /* \"contracts/election.sol\":2724:2824  require(candidateList[candidates[_candidateAddress]].registered == true, \"Candidate not registered\") */\n      tag_125\n      jumpi\n      mload(0x40)\n      0x08c379a000000000000000000000000000000000000000000000000000000000\n      dup2\n      mstore\n      0x04\n      add\n      tag_126\n      swap1\n      tag_127\n      jump\t// in\n    tag_126:\n      mload(0x40)\n      dup1\n      swap2\n      sub\n      swap1\n      revert\n    tag_125:\n        /* \"contracts/election.sol\":2837:2850  candidateList */\n      0x06\n        /* \"contracts/election.sol\":2851:2861  candidates */\n      0x05\n        /* \"contracts/election.sol\":2851:2880  candidates[_candidateAddress] */\n      0x00\n        /* \"contracts/election.sol\":2862:2879  _candidateAddress */\n      dup4\n        /* \"contracts/election.sol\":2851:2880  candidates[_candidateAddress] */\n      0xffffffffffffffffffffffffffffffffffffffff\n      and\n      0xffffffffffffffffffffffffffffffffffffffff\n      and\n      dup2\n      mstore\n      0x20\n      add\n      swap1\n      dup2\n      mstore\n      0x20\n      add\n      0x00\n      keccak256\n      sload\n        /* \"contracts/election.sol\":2837:2881  candidateList[candidates[_candidateAddress]] */\n      dup2\n      sload\n      dup2\n      lt\n      tag_128\n      jumpi\n      tag_129\n      tag_123\n      jump\t// in\n    tag_129:\n    tag_128:\n      swap1\n      0x00\n      mstore\n      keccak256(0x00, 0x20)\n      swap1\n      0x04\n      mul\n      add\n        /* \"contracts/election.sol\":2837:2887  candidateList[candidates[_candidateAddress]].votes */\n      0x03\n      add\n      0x00\n        /* \"contracts/election.sol\":2837:2889  candidateList[candidates[_candidateAddress]].votes++ */\n      dup2\n      sload\n      dup1\n      swap3\n      swap2\n      swap1\n      tag_131\n      swap1\n      tag_132\n      jump\t// in\n    tag_131:\n      swap2\n      swap1\n      pop\n      sstore\n      pop\n        /* \"contracts/election.sol\":2929:2933  true */\n      0x01\n        /* \"contracts/election.sol\":2900:2909  voterList */\n      0x07\n        /* \"contracts/election.sol\":2900:2921  voterList[msg.sender] */\n      0x00\n        /* \"contracts/election.sol\":2910:2920  msg.sender */\n      caller\n        /* \"contracts/election.sol\":2900:2921  voterList[msg.sender] */\n      0xffffffffffffffffffffffffffffffffffffffff\n      and\n      0xffffffffffffffffffffffffffffffffffffffff\n      and\n      dup2\n      mstore\n      0x20\n      add\n      swap1\n      dup2\n      mstore\n      0x20\n      add\n      0x00\n      keccak256\n        /* \"contracts/election.sol\":2900:2927  voterList[msg.sender].voted */\n      0x00\n      add\n      0x01\n        /* \"contracts/election.sol\":2900:2933  voterList[msg.sender].voted =true */\n      0x0100\n      exp\n      dup2\n      sload\n      dup2\n      0xff\n      mul\n      not\n      and\n      swap1\n      dup4\n      iszero\n      iszero\n      mul\n      or\n      swap1\n      sstore\n      pop\n        /* \"contracts/election.sol\":2946:2965  uint candidateVotes */\n      0x00\n        /* \"contracts/election.sol\":2968:2981  candidateList */\n      0x06\n        /* \"contracts/election.sol\":2982:2992  candidates */\n      0x05\n        /* \"contracts/election.sol\":2982:3011  candidates[_candidateAddress] */\n      0x00\n        /* \"contracts/election.sol\":2993:3010  _candidateAddress */\n      dup5\n        /* \"contracts/election.sol\":2982:3011  candidates[_candidateAddress] */\n      0xffffffffffffffffffffffffffffffffffffffff\n      and\n      0xffffffffffffffffffffffffffffffffffffffff\n      and\n      dup2\n      mstore\n      0x20\n      add\n      swap1\n      dup2\n      mstore\n      0x20\n      add\n      0x00\n      keccak256\n      sload\n        /* \"contracts/election.sol\":2968:3012  candidateList[candidates[_candidateAddress]] */\n      dup2\n      sload\n      dup2\n      lt\n      tag_133\n      jumpi\n      tag_134\n      tag_123\n      jump\t// in\n    tag_134:\n    tag_133:\n      swap1\n      0x00\n      mstore\n      keccak256(0x00, 0x20)\n      swap1\n      0x04\n      mul\n      add\n        /* \"contracts/election.sol\":2968:3018  candidateList[candidates[_candidateAddress]].votes */\n      0x03\n      add\n      sload\n        /* \"contracts/election.sol\":2946:3018  uint candidateVotes = candidateList[candidates[_candidateAddress]].votes */\n      swap1\n      pop\n        /* \"contracts/election.sol\":3046:3060  candidateVotes */\n      dup1\n        /* \"contracts/election.sol\":3034:3043  totalVote */\n      sload(0x03)\n        /* \"contracts/election.sol\":3034:3060  totalVote < candidateVotes */\n      lt\n        /* \"contracts/election.sol\":3031:3162  if(totalVote < candidateVotes){... */\n      iszero\n      tag_136\n      jumpi\n        /* \"contracts/election.sol\":3088:3102  candidateVotes */\n      dup1\n        /* \"contracts/election.sol\":3076:3085  totalVote */\n      0x03\n        /* \"contracts/election.sol\":3076:3102  totalVote = candidateVotes */\n      dup2\n      swap1\n      sstore\n      pop\n        /* \"contracts/election.sol\":3133:3150  _candidateAddress */\n      dup2\n        /* \"contracts/election.sol\":3117:3130  winnerAddress */\n      0x01\n      0x00\n        /* \"contracts/election.sol\":3117:3150  winnerAddress = _candidateAddress */\n      0x0100\n      exp\n      dup2\n      sload\n      dup2\n      0xffffffffffffffffffffffffffffffffffffffff\n      mul\n      not\n      and\n      swap1\n      dup4\n      0xffffffffffffffffffffffffffffffffffffffff\n      and\n      mul\n      or\n      swap1\n      sstore\n      pop\n        /* \"contracts/election.sol\":3031:3162  if(totalVote < candidateVotes){... */\n    tag_136:\n        /* \"contracts/election.sol\":3177:3196  success(\"Voted !!\") */\n      0x68f068b2f0d02fca99bc8285b62fce8668fe16b7c6a810351ea25bff358c0dd8\n      mload(0x40)\n      tag_137\n      swap1\n      tag_138\n      jump\t// in\n    tag_137:\n      mload(0x40)\n      dup1\n      swap2\n      sub\n      swap1\n      log1\n        /* \"contracts/election.sol\":2411:3214  {... */\n      pop\n        /* \"contracts/election.sol\":2360:3214  function putVote(address _candidateAddress) public {... */\n      pop\n      jump\t// out\n        /* \"contracts/election.sol\":500:540  mapping(address=>uint) public candidates */\n    tag_46:\n      mstore(0x20, 0x05)\n      dup1\n      0x00\n      mstore\n      keccak256(0x00, 0x40)\n      0x00\n      swap2\n      pop\n      swap1\n      pop\n      sload\n      dup2\n      jump\t// out\n        /* \"contracts/election.sol\":91:111  address public owner */\n    tag_50:\n      0x00\n      dup1\n      sload\n      swap1\n      0x0100\n      exp\n      swap1\n      div\n      0xffffffffffffffffffffffffffffffffffffffff\n      and\n      dup2\n      jump\t// out\n        /* \"contracts/election.sol\":3627:3835  function getWinner() public view returns(Candidate memory candidate){... */\n    tag_54:\n        /* \"contracts/election.sol\":3668:3694  Candidate memory candidate */\n      tag_139\n      tag_140\n      jump\t// in\n    tag_139:\n        /* \"contracts/election.sol\":3728:3733  owner */\n      0x00\n      dup1\n      sload\n      swap1\n      0x0100\n      exp\n      swap1\n      div\n      0xffffffffffffffffffffffffffffffffffffffff\n      and\n        /* \"contracts/election.sol\":3714:3733  msg.sender == owner */\n      0xffffffffffffffffffffffffffffffffffffffff\n      and\n        /* \"contracts/election.sol\":3714:3724  msg.sender */\n      caller\n        /* \"contracts/election.sol\":3714:3733  msg.sender == owner */\n      0xffffffffffffffffffffffffffffffffffffffff\n      and\n      eq\n        /* \"contracts/election.sol\":3706:3769  require(msg.sender == owner, \"Only owner can declare winner!!\") */\n      tag_142\n      jumpi\n      mload(0x40)\n      0x08c379a000000000000000000000000000000000000000000000000000000000\n      dup2\n      mstore\n      0x04\n      add\n      tag_143\n      swap1\n      tag_144\n      jump\t// in\n    tag_143:\n      mload(0x40)\n      dup1\n      swap2\n      sub\n      swap1\n      revert\n    tag_142:\n        /* \"contracts/election.sol\":3787:3800  candidateList */\n      0x06\n        /* \"contracts/election.sol\":3801:3811  candidates */\n      0x05\n        /* \"contracts/election.sol\":3801:3826  candidates[winnerAddress] */\n      0x00\n        /* \"contracts/election.sol\":3812:3825  winnerAddress */\n      0x01\n      0x00\n      swap1\n      sload\n      swap1\n      0x0100\n      exp\n      swap1\n      div\n      0xffffffffffffffffffffffffffffffffffffffff\n      and\n        /* \"contracts/election.sol\":3801:3826  candidates[winnerAddress] */\n      0xffffffffffffffffffffffffffffffffffffffff\n      and\n      0xffffffffffffffffffffffffffffffffffffffff\n      and\n      dup2\n      mstore\n      0x20\n      add\n      swap1\n      dup2\n      mstore\n      0x20\n      add\n      0x00\n      keccak256\n      sload\n        /* \"contracts/election.sol\":3787:3827  candidateList[candidates[winnerAddress]] */\n      dup2\n      sload\n      dup2\n      lt\n      tag_145\n      jumpi\n      tag_146\n      tag_123\n      jump\t// in\n    tag_146:\n    tag_145:\n      swap1\n      0x00\n      mstore\n      keccak256(0x00, 0x20)\n      swap1\n      0x04\n      mul\n      add\n        /* \"contracts/election.sol\":3780:3827  return candidateList[candidates[winnerAddress]] */\n      mload(0x40)\n      dup1\n      0xa0\n      add\n      0x40\n      mstore\n      swap1\n      dup2\n      0x00\n      dup3\n      add\n      dup1\n      sload\n      tag_148\n      swap1\n      tag_103\n      jump\t// in\n    tag_148:\n      dup1\n      0x1f\n      add\n      0x20\n      dup1\n      swap2\n      div\n      mul\n      0x20\n      add\n      mload(0x40)\n      swap1\n      dup2\n      add\n      0x40\n      mstore\n      dup1\n      swap3\n      swap2\n      swap1\n      dup2\n      dup2\n      mstore\n      0x20\n      add\n      dup3\n      dup1\n      sload\n      tag_149\n      swap1\n      tag_103\n      jump\t// in\n    tag_149:\n      dup1\n      iszero\n      tag_150\n      jumpi\n      dup1\n      0x1f\n      lt\n      tag_151\n      jumpi\n      0x0100\n      dup1\n      dup4\n      sload\n      div\n      mul\n      dup4\n      mstore\n      swap2\n      0x20\n      add\n      swap2\n      jump(tag_150)\n    tag_151:\n      dup3\n      add\n      swap2\n      swap1\n      0x00\n      mstore\n      keccak256(0x00, 0x20)\n      swap1\n    tag_152:\n      dup2\n      sload\n      dup2\n      mstore\n      swap1\n      0x01\n      add\n      swap1\n      0x20\n      add\n      dup1\n      dup4\n      gt\n      tag_152\n      jumpi\n      dup3\n      swap1\n      sub\n      0x1f\n      and\n      dup3\n      add\n      swap2\n    tag_150:\n      pop\n      pop\n      pop\n      pop\n      pop\n      dup2\n      mstore\n      0x20\n      add\n      0x01\n      dup3\n      add\n      sload\n      dup2\n      mstore\n      0x20\n      add\n      0x02\n      dup3\n      add\n      0x00\n      swap1\n      sload\n      swap1\n      0x0100\n      exp\n      swap1\n      div\n      0xff\n      and\n      iszero\n      iszero\n      iszero\n      iszero\n      dup2\n      mstore\n      0x20\n      add\n      0x02\n      dup3\n      add\n      0x01\n      swap1\n      sload\n      swap1\n      0x0100\n      exp\n      swap1\n      div\n      0xffffffffffffffffffffffffffffffffffffffff\n      and\n      0xffffffffffffffffffffffffffffffffffffffff\n      and\n      0xffffffffffffffffffffffffffffffffffffffff\n      and\n      dup2\n      mstore\n      0x20\n      add\n      0x03\n      dup3\n      add\n      sload\n      dup2\n      mstore\n      pop\n      pop\n      swap1\n      pop\n        /* \"contracts/election.sol\":3627:3835  function getWinner() public view returns(Candidate memory candidate){... */\n      swap1\n      jump\t// out\n        /* \"contracts/election.sol\":547:579  Candidate[] public candidateList */\n    tag_60:\n      0x06\n      dup2\n      dup2\n      sload\n      dup2\n      lt\n      tag_153\n      jumpi\n      0x00\n      dup1\n      revert\n    tag_153:\n      swap1\n      0x00\n      mstore\n      keccak256(0x00, 0x20)\n      swap1\n      0x04\n      mul\n      add\n      0x00\n      swap2\n      pop\n      swap1\n      pop\n      dup1\n      0x00\n      add\n      dup1\n      sload\n      tag_155\n      swap1\n      tag_103\n      jump\t// in\n    tag_155:\n      dup1\n      0x1f\n      add\n      0x20\n      dup1\n      swap2\n      div\n      mul\n      0x20\n      add\n      mload(0x40)\n      swap1\n      dup2\n      add\n      0x40\n      mstore\n      dup1\n      swap3\n      swap2\n      swap1\n      dup2\n      dup2\n      mstore\n      0x20\n      add\n      dup3\n      dup1\n      sload\n      tag_156\n      swap1\n      tag_103\n      jump\t// in\n    tag_156:\n      dup1\n      iszero\n      tag_157\n      jumpi\n      dup1\n      0x1f\n      lt\n      tag_158\n      jumpi\n      0x0100\n      dup1\n      dup4\n      sload\n      div\n      mul\n      dup4\n      mstore\n      swap2\n      0x20\n      add\n      swap2\n      jump(tag_157)\n    tag_158:\n      dup3\n      add\n      swap2\n      swap1\n      0x00\n      mstore\n      keccak256(0x00, 0x20)\n      swap1\n    tag_159:\n      dup2\n      sload\n      dup2\n      mstore\n      swap1\n      0x01\n      add\n      swap1\n      0x20\n      add\n      dup1\n      dup4\n      gt\n      tag_159\n      jumpi\n      dup3\n      swap1\n      sub\n      0x1f\n      and\n      dup3\n      add\n      swap2\n    tag_157:\n      pop\n      pop\n      pop\n      pop\n      pop\n      swap1\n      dup1\n      0x01\n      add\n      sload\n      swap1\n      dup1\n      0x02\n      add\n      0x00\n      swap1\n      sload\n      swap1\n      0x0100\n      exp\n      swap1\n      div\n      0xff\n      and\n      swap1\n      dup1\n      0x02\n      add\n      0x01\n      swap1\n      sload\n      swap1\n      0x0100\n      exp\n      swap1\n      div\n      0xffffffffffffffffffffffffffffffffffffffff\n      and\n      swap1\n      dup1\n      0x03\n      add\n      sload\n      swap1\n      pop\n      dup6\n      jump\t// out\n        /* \"contracts/election.sol\":1655:2160  function whiteListAddress(address _voterAddress) public {... */\n    tag_65:\n        /* \"contracts/election.sol\":1747:1752  owner */\n      0x00\n      dup1\n      sload\n      swap1\n      0x0100\n      exp\n      swap1\n      div\n      0xffffffffffffffffffffffffffffffffffffffff\n      and\n        /* \"contracts/election.sol\":1730:1752  _voterAddress != owner */\n      0xffffffffffffffffffffffffffffffffffffffff\n      and\n        /* \"contracts/election.sol\":1730:1743  _voterAddress */\n      dup2\n        /* \"contracts/election.sol\":1730:1752  _voterAddress != owner */\n      0xffffffffffffffffffffffffffffffffffffffff\n      and\n      sub\n        /* \"contracts/election.sol\":1722:1777  require(_voterAddress != owner, \"Owner can not vote!!\") */\n      tag_161\n      jumpi\n      mload(0x40)\n      0x08c379a000000000000000000000000000000000000000000000000000000000\n      dup2\n      mstore\n      0x04\n      add\n      tag_162\n      swap1\n      tag_114\n      jump\t// in\n    tag_162:\n      mload(0x40)\n      dup1\n      swap2\n      sub\n      swap1\n      revert\n    tag_161:\n        /* \"contracts/election.sol\":1810:1815  owner */\n      0x00\n      dup1\n      sload\n      swap1\n      0x0100\n      exp\n      swap1\n      div\n      0xffffffffffffffffffffffffffffffffffffffff\n      and\n        /* \"contracts/election.sol\":1796:1815  msg.sender == owner */\n      0xffffffffffffffffffffffffffffffffffffffff\n      and\n        /* \"contracts/election.sol\":1796:1806  msg.sender */\n      caller\n        /* \"contracts/election.sol\":1796:1815  msg.sender == owner */\n      0xffffffffffffffffffffffffffffffffffffffff\n      and\n      eq\n        /* \"contracts/election.sol\":1788:1860  require(msg.sender == owner, \"Only owner can whitelist the addresses!!\") */\n      tag_163\n      jumpi\n      mload(0x40)\n      0x08c379a000000000000000000000000000000000000000000000000000000000\n      dup2\n      mstore\n      0x04\n      add\n      tag_164\n      swap1\n      tag_165\n      jump\t// in\n    tag_164:\n      mload(0x40)\n      dup1\n      swap2\n      sub\n      swap1\n      revert\n    tag_163:\n        /* \"contracts/election.sol\":1918:1923  false */\n      0x00\n        /* \"contracts/election.sol\":1879:1923  voterList[_voterAddress].registered == false */\n      iszero\n      iszero\n        /* \"contracts/election.sol\":1879:1888  voterList */\n      0x07\n        /* \"contracts/election.sol\":1879:1903  voterList[_voterAddress] */\n      0x00\n        /* \"contracts/election.sol\":1889:1902  _voterAddress */\n      dup4\n        /* \"contracts/election.sol\":1879:1903  voterList[_voterAddress] */\n      0xffffffffffffffffffffffffffffffffffffffff\n      and\n      0xffffffffffffffffffffffffffffffffffffffff\n      and\n      dup2\n      mstore\n      0x20\n      add\n      swap1\n      dup2\n      mstore\n      0x20\n      add\n      0x00\n      keccak256\n        /* \"contracts/election.sol\":1879:1914  voterList[_voterAddress].registered */\n      0x00\n      add\n      0x00\n      swap1\n      sload\n      swap1\n      0x0100\n      exp\n      swap1\n      div\n      0xff\n      and\n        /* \"contracts/election.sol\":1879:1923  voterList[_voterAddress].registered == false */\n      iszero\n      iszero\n      eq\n        /* \"contracts/election.sol\":1871:1954  require(voterList[_voterAddress].registered == false, \"Voter already registered!!\") */\n      tag_166\n      jumpi\n      mload(0x40)\n      0x08c379a000000000000000000000000000000000000000000000000000000000\n      dup2\n      mstore\n      0x04\n      add\n      tag_167\n      swap1\n      tag_168\n      jump\t// in\n    tag_167:\n      mload(0x40)\n      dup1\n      swap2\n      sub\n      swap1\n      revert\n    tag_166:\n        /* \"contracts/election.sol\":1965:1983  Voter memory voter */\n      0x00\n        /* \"contracts/election.sol\":1986:2062  Voter({... */\n      mload(0x40)\n      dup1\n      0x40\n      add\n      0x40\n      mstore\n      dup1\n        /* \"contracts/election.sol\":2019:2023  true */\n      0x01\n        /* \"contracts/election.sol\":1986:2062  Voter({... */\n      iszero\n      iszero\n      dup2\n      mstore\n      0x20\n      add\n        /* \"contracts/election.sol\":2045:2050  false */\n      0x00\n        /* \"contracts/election.sol\":1986:2062  Voter({... */\n      iszero\n      iszero\n      dup2\n      mstore\n      pop\n        /* \"contracts/election.sol\":1965:2062  Voter memory voter = Voter({... */\n      swap1\n      pop\n        /* \"contracts/election.sol\":2102:2107  voter */\n      dup1\n        /* \"contracts/election.sol\":2075:2084  voterList */\n      0x07\n        /* \"contracts/election.sol\":2075:2099  voterList[_voterAddress] */\n      0x00\n        /* \"contracts/election.sol\":2085:2098  _voterAddress */\n      dup5\n        /* \"contracts/election.sol\":2075:2099  voterList[_voterAddress] */\n      0xffffffffffffffffffffffffffffffffffffffff\n      and\n      0xffffffffffffffffffffffffffffffffffffffff\n      and\n      dup2\n      mstore\n      0x20\n      add\n      swap1\n      dup2\n      mstore\n      0x20\n      add\n      0x00\n      keccak256\n        /* \"contracts/election.sol\":2075:2107  voterList[_voterAddress] = voter */\n      0x00\n      dup3\n      add\n      mload\n      dup2\n      0x00\n      add\n      exp(0x0100, 0x00)\n      dup2\n      sload\n      dup2\n      0xff\n      mul\n      not\n      and\n      swap1\n      dup4\n      iszero\n      iszero\n      mul\n      or\n      swap1\n      sstore\n      pop\n      0x20\n      dup3\n      add\n      mload\n      dup2\n      0x00\n      add\n      exp(0x0100, 0x01)\n      dup2\n      sload\n      dup2\n      0xff\n      mul\n      not\n      and\n      swap1\n      dup4\n      iszero\n      iszero\n      mul\n      or\n      swap1\n      sstore\n      pop\n      swap1\n      pop\n      pop\n        /* \"contracts/election.sol\":2123:2152  success(\"Voter registered!!\") */\n      0x68f068b2f0d02fca99bc8285b62fce8668fe16b7c6a810351ea25bff358c0dd8\n      mload(0x40)\n      tag_169\n      swap1\n      tag_170\n      jump\t// in\n    tag_169:\n      mload(0x40)\n      dup1\n      swap2\n      sub\n      swap1\n      log1\n        /* \"contracts/election.sol\":1711:2160  {... */\n      pop\n        /* \"contracts/election.sol\":1655:2160  function whiteListAddress(address _voterAddress) public {... */\n      pop\n      jump\t// out\n        /* \"contracts/election.sol\":118:146  address public winnerAddress */\n    tag_67:\n      0x01\n      0x00\n      swap1\n      sload\n      swap1\n      0x0100\n      exp\n      swap1\n      div\n      0xffffffffffffffffffffffffffffffffffffffff\n      and\n      dup2\n      jump\t// out\n        /* \"contracts/election.sol\":3413:3523  function getAllCandidate() public view returns(Candidate[] memory list){... */\n    tag_70:\n        /* \"contracts/election.sol\":3460:3483  Candidate[] memory list */\n      0x60\n        /* \"contracts/election.sol\":3502:3515  candidateList */\n      0x06\n        /* \"contracts/election.sol\":3495:3515  return candidateList */\n      dup1\n      sload\n      dup1\n      0x20\n      mul\n      0x20\n      add\n      mload(0x40)\n      swap1\n      dup2\n      add\n      0x40\n      mstore\n      dup1\n      swap3\n      swap2\n      swap1\n      dup2\n      dup2\n      mstore\n      0x20\n      add\n      0x00\n      swap1\n    tag_172:\n      dup3\n      dup3\n      lt\n      iszero\n      tag_173\n      jumpi\n      dup4\n      dup3\n      swap1\n      0x00\n      mstore\n      keccak256(0x00, 0x20)\n      swap1\n      0x04\n      mul\n      add\n      mload(0x40)\n      dup1\n      0xa0\n      add\n      0x40\n      mstore\n      swap1\n      dup2\n      0x00\n      dup3\n      add\n      dup1\n      sload\n      tag_175\n      swap1\n      tag_103\n      jump\t// in\n    tag_175:\n      dup1\n      0x1f\n      add\n      0x20\n      dup1\n      swap2\n      div\n      mul\n      0x20\n      add\n      mload(0x40)\n      swap1\n      dup2\n      add\n      0x40\n      mstore\n      dup1\n      swap3\n      swap2\n      swap1\n      dup2\n      dup2\n      mstore\n      0x20\n      add\n      dup3\n      dup1\n      sload\n      tag_176\n      swap1\n      tag_103\n      jump\t// in\n    tag_176:\n      dup1\n      iszero\n      tag_177\n      jumpi\n      dup1\n      0x1f\n      lt\n      tag_178\n      jumpi\n      0x0100\n      dup1\n      dup4\n      sload\n      div\n      mul\n      dup4\n      mstore\n      swap2\n      0x20\n      add\n      swap2\n      jump(tag_177)\n    tag_178:\n      dup3\n      add\n      swap2\n      swap1\n      0x00\n      mstore\n      keccak256(0x00, 0x20)\n      swap1\n    tag_179:\n      dup2\n      sload\n      dup2\n      mstore\n      swap1\n      0x01\n      add\n      swap1\n      0x20\n      add\n      dup1\n      dup4\n      gt\n      tag_179\n      jumpi\n      dup3\n      swap1\n      sub\n      0x1f\n      and\n      dup3\n      add\n      swap2\n    tag_177:\n      pop\n      pop\n      pop\n      pop\n      pop\n      dup2\n      mstore\n      0x20\n      add\n      0x01\n      dup3\n      add\n      sload\n      dup2\n      mstore\n      0x20\n      add\n      0x02\n      dup3\n      add\n      0x00\n      swap1\n      sload\n      swap1\n      0x0100\n      exp\n      swap1\n      div\n      0xff\n      and\n      iszero\n      iszero\n      iszero\n      iszero\n      dup2\n      mstore\n      0x20\n      add\n      0x02\n      dup3\n      add\n      0x01\n      swap1\n      sload\n      swap1\n      0x0100\n      exp\n      swap1\n      div\n      0xffffffffffffffffffffffffffffffffffffffff\n      and\n      0xffffffffffffffffffffffffffffffffffffffff\n      and\n      0xffffffffffffffffffffffffffffffffffffffff\n      and\n      dup2\n      mstore\n      0x20\n      add\n      0x03\n      dup3\n      add\n      sload\n      dup2\n      mstore\n      pop\n      pop\n      dup2\n      mstore\n      0x20\n      add\n      swap1\n      0x01\n      add\n      swap1\n      jump(tag_172)\n    tag_173:\n      pop\n      pop\n      pop\n      pop\n      swap1\n      pop\n        /* \"contracts/election.sol\":3413:3523  function getAllCandidate() public view returns(Candidate[] memory list){... */\n      swap1\n      jump\t// out\n        /* \"contracts/election.sol\":183:204  uint public totalVote */\n    tag_74:\n      sload(0x03)\n      dup2\n      jump\t// out\n        /* \"contracts/election.sol\":3222:3405  function stopVoting() public {... */\n    tag_77:\n        /* \"contracts/election.sol\":3284:3289  owner */\n      0x00\n      dup1\n      sload\n      swap1\n      0x0100\n      exp\n      swap1\n      div\n      0xffffffffffffffffffffffffffffffffffffffff\n      and\n        /* \"contracts/election.sol\":3270:3289  msg.sender == owner */\n      0xffffffffffffffffffffffffffffffffffffffff\n      and\n        /* \"contracts/election.sol\":3270:3280  msg.sender */\n      caller\n        /* \"contracts/election.sol\":3270:3289  msg.sender == owner */\n      0xffffffffffffffffffffffffffffffffffffffff\n      and\n      eq\n        /* \"contracts/election.sol\":3262:3323  require(msg.sender == owner, \"Only owner can start voting!!\") */\n      tag_181\n      jumpi\n      mload(0x40)\n      0x08c379a000000000000000000000000000000000000000000000000000000000\n      dup2\n      mstore\n      0x04\n      add\n      tag_182\n      swap1\n      tag_82\n      jump\t// in\n    tag_182:\n      mload(0x40)\n      dup1\n      swap2\n      sub\n      swap1\n      revert\n    tag_181:\n        /* \"contracts/election.sol\":3350:3355  false */\n      0x00\n        /* \"contracts/election.sol\":3334:3347  votingStarted */\n      0x04\n      0x00\n        /* \"contracts/election.sol\":3334:3355  votingStarted = false */\n      0x0100\n      exp\n      dup2\n      sload\n      dup2\n      0xff\n      mul\n      not\n      and\n      swap1\n      dup4\n      iszero\n      iszero\n      mul\n      or\n      swap1\n      sstore\n      pop\n        /* \"contracts/election.sol\":3371:3397  success(\"Voting stoped!!\") */\n      0x68f068b2f0d02fca99bc8285b62fce8668fe16b7c6a810351ea25bff358c0dd8\n      mload(0x40)\n      tag_183\n      swap1\n      tag_184\n      jump\t// in\n    tag_183:\n      mload(0x40)\n      dup1\n      swap2\n      sub\n      swap1\n      log1\n        /* \"contracts/election.sol\":3222:3405  function stopVoting() public {... */\n      jump\t// out\n    tag_140:\n      mload(0x40)\n      dup1\n      0xa0\n      add\n      0x40\n      mstore\n      dup1\n      0x60\n      dup2\n      mstore\n      0x20\n      add\n      0x00\n      dup2\n      mstore\n      0x20\n      add\n      iszero(iszero(0x00))\n      dup2\n      mstore\n      0x20\n      add\n      and(0xffffffffffffffffffffffffffffffffffffffff, 0x00)\n      dup2\n      mstore\n      0x20\n      add\n      0x00\n      dup2\n      mstore\n      pop\n      swap1\n      jump\t// out\n        /* \"#utility.yul\":7:82   */\n    tag_185:\n        /* \"#utility.yul\":40:46   */\n      0x00\n        /* \"#utility.yul\":73:75   */\n      0x40\n        /* \"#utility.yul\":67:76   */\n      mload\n        /* \"#utility.yul\":57:76   */\n      swap1\n      pop\n        /* \"#utility.yul\":7:82   */\n      swap1\n      jump\t// out\n        /* \"#utility.yul\":88:205   */\n    tag_186:\n        /* \"#utility.yul\":197:198   */\n      0x00\n        /* \"#utility.yul\":194:195   */\n      dup1\n        /* \"#utility.yul\":187:199   */\n      revert\n        /* \"#utility.yul\":211:328   */\n    tag_187:\n        /* \"#utility.yul\":320:321   */\n      0x00\n        /* \"#utility.yul\":317:318   */\n      dup1\n        /* \"#utility.yul\":310:322   */\n      revert\n        /* \"#utility.yul\":334:460   */\n    tag_188:\n        /* \"#utility.yul\":371:378   */\n      0x00\n        /* \"#utility.yul\":411:453   */\n      0xffffffffffffffffffffffffffffffffffffffff\n        /* \"#utility.yul\":404:409   */\n      dup3\n        /* \"#utility.yul\":400:454   */\n      and\n        /* \"#utility.yul\":389:454   */\n      swap1\n      pop\n        /* \"#utility.yul\":334:460   */\n      swap2\n      swap1\n      pop\n      jump\t// out\n        /* \"#utility.yul\":466:562   */\n    tag_189:\n        /* \"#utility.yul\":503:510   */\n      0x00\n        /* \"#utility.yul\":532:556   */\n      tag_283\n        /* \"#utility.yul\":550:555   */\n      dup3\n        /* \"#utility.yul\":532:556   */\n      tag_188\n      jump\t// in\n    tag_283:\n        /* \"#utility.yul\":521:556   */\n      swap1\n      pop\n        /* \"#utility.yul\":466:562   */\n      swap2\n      swap1\n      pop\n      jump\t// out\n        /* \"#utility.yul\":568:690   */\n    tag_190:\n        /* \"#utility.yul\":641:665   */\n      tag_285\n        /* \"#utility.yul\":659:664   */\n      dup2\n        /* \"#utility.yul\":641:665   */\n      tag_189\n      jump\t// in\n    tag_285:\n        /* \"#utility.yul\":634:639   */\n      dup2\n        /* \"#utility.yul\":631:666   */\n      eq\n        /* \"#utility.yul\":621:684   */\n      tag_286\n      jumpi\n        /* \"#utility.yul\":680:681   */\n      0x00\n        /* \"#utility.yul\":677:678   */\n      dup1\n        /* \"#utility.yul\":670:682   */\n      revert\n        /* \"#utility.yul\":621:684   */\n    tag_286:\n        /* \"#utility.yul\":568:690   */\n      pop\n      jump\t// out\n        /* \"#utility.yul\":696:835   */\n    tag_191:\n        /* \"#utility.yul\":742:747   */\n      0x00\n        /* \"#utility.yul\":780:786   */\n      dup2\n        /* \"#utility.yul\":767:787   */\n      calldataload\n        /* \"#utility.yul\":758:787   */\n      swap1\n      pop\n        /* \"#utility.yul\":796:829   */\n      tag_288\n        /* \"#utility.yul\":823:828   */\n      dup2\n        /* \"#utility.yul\":796:829   */\n      tag_190\n      jump\t// in\n    tag_288:\n        /* \"#utility.yul\":696:835   */\n      swap3\n      swap2\n      pop\n      pop\n      jump\t// out\n        /* \"#utility.yul\":841:1170   */\n    tag_23:\n        /* \"#utility.yul\":900:906   */\n      0x00\n        /* \"#utility.yul\":949:951   */\n      0x20\n        /* \"#utility.yul\":937:946   */\n      dup3\n        /* \"#utility.yul\":928:935   */\n      dup5\n        /* \"#utility.yul\":924:947   */\n      sub\n        /* \"#utility.yul\":920:952   */\n      slt\n        /* \"#utility.yul\":917:1036   */\n      iszero\n      tag_290\n      jumpi\n        /* \"#utility.yul\":955:1034   */\n      tag_291\n      tag_186\n      jump\t// in\n    tag_291:\n        /* \"#utility.yul\":917:1036   */\n    tag_290:\n        /* \"#utility.yul\":1075:1076   */\n      0x00\n        /* \"#utility.yul\":1100:1153   */\n      tag_292\n        /* \"#utility.yul\":1145:1152   */\n      dup5\n        /* \"#utility.yul\":1136:1142   */\n      dup3\n        /* \"#utility.yul\":1125:1134   */\n      dup6\n        /* \"#utility.yul\":1121:1143   */\n      add\n        /* \"#utility.yul\":1100:1153   */\n      tag_191\n      jump\t// in\n    tag_292:\n        /* \"#utility.yul\":1090:1153   */\n      swap2\n      pop\n        /* \"#utility.yul\":1046:1163   */\n      pop\n        /* \"#utility.yul\":841:1170   */\n      swap3\n      swap2\n      pop\n      pop\n      jump\t// out\n        /* \"#utility.yul\":1176:1266   */\n    tag_192:\n        /* \"#utility.yul\":1210:1217   */\n      0x00\n        /* \"#utility.yul\":1253:1258   */\n      dup2\n        /* \"#utility.yul\":1246:1259   */\n      iszero\n        /* \"#utility.yul\":1239:1260   */\n      iszero\n        /* \"#utility.yul\":1228:1260   */\n      swap1\n      pop\n        /* \"#utility.yul\":1176:1266   */\n      swap2\n      swap1\n      pop\n      jump\t// out\n        /* \"#utility.yul\":1272:1381   */\n    tag_193:\n        /* \"#utility.yul\":1353:1374   */\n      tag_295\n        /* \"#utility.yul\":1368:1373   */\n      dup2\n        /* \"#utility.yul\":1353:1374   */\n      tag_192\n      jump\t// in\n    tag_295:\n        /* \"#utility.yul\":1348:1351   */\n      dup3\n        /* \"#utility.yul\":1341:1375   */\n      mstore\n        /* \"#utility.yul\":1272:1381   */\n      pop\n      pop\n      jump\t// out\n        /* \"#utility.yul\":1387:1695   */\n    tag_26:\n        /* \"#utility.yul\":1496:1500   */\n      0x00\n        /* \"#utility.yul\":1534:1536   */\n      0x40\n        /* \"#utility.yul\":1523:1532   */\n      dup3\n        /* \"#utility.yul\":1519:1537   */\n      add\n        /* \"#utility.yul\":1511:1537   */\n      swap1\n      pop\n        /* \"#utility.yul\":1547:1612   */\n      tag_297\n        /* \"#utility.yul\":1609:1610   */\n      0x00\n        /* \"#utility.yul\":1598:1607   */\n      dup4\n        /* \"#utility.yul\":1594:1611   */\n      add\n        /* \"#utility.yul\":1585:1591   */\n      dup6\n        /* \"#utility.yul\":1547:1612   */\n      tag_193\n      jump\t// in\n    tag_297:\n        /* \"#utility.yul\":1622:1688   */\n      tag_298\n        /* \"#utility.yul\":1684:1686   */\n      0x20\n        /* \"#utility.yul\":1673:1682   */\n      dup4\n        /* \"#utility.yul\":1669:1687   */\n      add\n        /* \"#utility.yul\":1660:1666   */\n      dup5\n        /* \"#utility.yul\":1622:1688   */\n      tag_193\n      jump\t// in\n    tag_298:\n        /* \"#utility.yul\":1387:1695   */\n      swap4\n      swap3\n      pop\n      pop\n      pop\n      jump\t// out\n        /* \"#utility.yul\":1701:1911   */\n    tag_30:\n        /* \"#utility.yul\":1788:1792   */\n      0x00\n        /* \"#utility.yul\":1826:1828   */\n      0x20\n        /* \"#utility.yul\":1815:1824   */\n      dup3\n        /* \"#utility.yul\":1811:1829   */\n      add\n        /* \"#utility.yul\":1803:1829   */\n      swap1\n      pop\n        /* \"#utility.yul\":1839:1904   */\n      tag_300\n        /* \"#utility.yul\":1901:1902   */\n      0x00\n        /* \"#utility.yul\":1890:1899   */\n      dup4\n        /* \"#utility.yul\":1886:1903   */\n      add\n        /* \"#utility.yul\":1877:1883   */\n      dup5\n        /* \"#utility.yul\":1839:1904   */\n      tag_193\n      jump\t// in\n    tag_300:\n        /* \"#utility.yul\":1701:1911   */\n      swap3\n      swap2\n      pop\n      pop\n      jump\t// out\n        /* \"#utility.yul\":1917:2034   */\n    tag_194:\n        /* \"#utility.yul\":2026:2027   */\n      0x00\n        /* \"#utility.yul\":2023:2024   */\n      dup1\n        /* \"#utility.yul\":2016:2028   */\n      revert\n        /* \"#utility.yul\":2040:2157   */\n    tag_195:\n        /* \"#utility.yul\":2149:2150   */\n      0x00\n        /* \"#utility.yul\":2146:2147   */\n      dup1\n        /* \"#utility.yul\":2139:2151   */\n      revert\n        /* \"#utility.yul\":2163:2265   */\n    tag_196:\n        /* \"#utility.yul\":2204:2210   */\n      0x00\n        /* \"#utility.yul\":2255:2257   */\n      0x1f\n        /* \"#utility.yul\":2251:2258   */\n      not\n        /* \"#utility.yul\":2246:2248   */\n      0x1f\n        /* \"#utility.yul\":2239:2244   */\n      dup4\n        /* \"#utility.yul\":2235:2249   */\n      add\n        /* \"#utility.yul\":2231:2259   */\n      and\n        /* \"#utility.yul\":2221:2259   */\n      swap1\n      pop\n        /* \"#utility.yul\":2163:2265   */\n      swap2\n      swap1\n      pop\n      jump\t// out\n        /* \"#utility.yul\":2271:2451   */\n    tag_197:\n        /* \"#utility.yul\":2319:2396   */\n      0x4e487b7100000000000000000000000000000000000000000000000000000000\n        /* \"#utility.yul\":2316:2317   */\n      0x00\n        /* \"#utility.yul\":2309:2397   */\n      mstore\n        /* \"#utility.yul\":2416:2420   */\n      0x41\n        /* \"#utility.yul\":2413:2414   */\n      0x04\n        /* \"#utility.yul\":2406:2421   */\n      mstore\n        /* \"#utility.yul\":2440:2444   */\n      0x24\n        /* \"#utility.yul\":2437:2438   */\n      0x00\n        /* \"#utility.yul\":2430:2445   */\n      revert\n        /* \"#utility.yul\":2457:2738   */\n    tag_198:\n        /* \"#utility.yul\":2540:2567   */\n      tag_306\n        /* \"#utility.yul\":2562:2566   */\n      dup3\n        /* \"#utility.yul\":2540:2567   */\n      tag_196\n      jump\t// in\n    tag_306:\n        /* \"#utility.yul\":2532:2538   */\n      dup2\n        /* \"#utility.yul\":2528:2568   */\n      add\n        /* \"#utility.yul\":2670:2676   */\n      dup2\n        /* \"#utility.yul\":2658:2668   */\n      dup2\n        /* \"#utility.yul\":2655:2677   */\n      lt\n        /* \"#utility.yul\":2634:2652   */\n      0xffffffffffffffff\n        /* \"#utility.yul\":2622:2632   */\n      dup3\n        /* \"#utility.yul\":2619:2653   */\n      gt\n        /* \"#utility.yul\":2616:2678   */\n      or\n        /* \"#utility.yul\":2613:2701   */\n      iszero\n      tag_307\n      jumpi\n        /* \"#utility.yul\":2681:2699   */\n      tag_308\n      tag_197\n      jump\t// in\n    tag_308:\n        /* \"#utility.yul\":2613:2701   */\n    tag_307:\n        /* \"#utility.yul\":2721:2731   */\n      dup1\n        /* \"#utility.yul\":2717:2719   */\n      0x40\n        /* \"#utility.yul\":2710:2732   */\n      mstore\n        /* \"#utility.yul\":2500:2738   */\n      pop\n        /* \"#utility.yul\":2457:2738   */\n      pop\n      pop\n      jump\t// out\n        /* \"#utility.yul\":2744:2873   */\n    tag_199:\n        /* \"#utility.yul\":2778:2784   */\n      0x00\n        /* \"#utility.yul\":2805:2825   */\n      tag_310\n      tag_185\n      jump\t// in\n    tag_310:\n        /* \"#utility.yul\":2795:2825   */\n      swap1\n      pop\n        /* \"#utility.yul\":2834:2867   */\n      tag_311\n        /* \"#utility.yul\":2862:2866   */\n      dup3\n        /* \"#utility.yul\":2854:2860   */\n      dup3\n        /* \"#utility.yul\":2834:2867   */\n      tag_198\n      jump\t// in\n    tag_311:\n        /* \"#utility.yul\":2744:2873   */\n      swap2\n      swap1\n      pop\n      jump\t// out\n        /* \"#utility.yul\":2879:3187   */\n    tag_200:\n        /* \"#utility.yul\":2941:2945   */\n      0x00\n        /* \"#utility.yul\":3031:3049   */\n      0xffffffffffffffff\n        /* \"#utility.yul\":3023:3029   */\n      dup3\n        /* \"#utility.yul\":3020:3050   */\n      gt\n        /* \"#utility.yul\":3017:3073   */\n      iszero\n      tag_313\n      jumpi\n        /* \"#utility.yul\":3053:3071   */\n      tag_314\n      tag_197\n      jump\t// in\n    tag_314:\n        /* \"#utility.yul\":3017:3073   */\n    tag_313:\n        /* \"#utility.yul\":3091:3120   */\n      tag_315\n        /* \"#utility.yul\":3113:3119   */\n      dup3\n        /* \"#utility.yul\":3091:3120   */\n      tag_196\n      jump\t// in\n    tag_315:\n        /* \"#utility.yul\":3083:3120   */\n      swap1\n      pop\n        /* \"#utility.yul\":3175:3179   */\n      0x20\n        /* \"#utility.yul\":3169:3173   */\n      dup2\n        /* \"#utility.yul\":3165:3180   */\n      add\n        /* \"#utility.yul\":3157:3180   */\n      swap1\n      pop\n        /* \"#utility.yul\":2879:3187   */\n      swap2\n      swap1\n      pop\n      jump\t// out\n        /* \"#utility.yul\":3193:3339   */\n    tag_201:\n        /* \"#utility.yul\":3290:3296   */\n      dup3\n        /* \"#utility.yul\":3285:3288   */\n      dup2\n        /* \"#utility.yul\":3280:3283   */\n      dup4\n        /* \"#utility.yul\":3267:3297   */\n      calldatacopy\n        /* \"#utility.yul\":3331:3332   */\n      0x00\n        /* \"#utility.yul\":3322:3328   */\n      dup4\n        /* \"#utility.yul\":3317:3320   */\n      dup4\n        /* \"#utility.yul\":3313:3329   */\n      add\n        /* \"#utility.yul\":3306:3333   */\n      mstore\n        /* \"#utility.yul\":3193:3339   */\n      pop\n      pop\n      pop\n      jump\t// out\n        /* \"#utility.yul\":3345:3770   */\n    tag_202:\n        /* \"#utility.yul\":3423:3428   */\n      0x00\n        /* \"#utility.yul\":3448:3514   */\n      tag_318\n        /* \"#utility.yul\":3464:3513   */\n      tag_319\n        /* \"#utility.yul\":3506:3512   */\n      dup5\n        /* \"#utility.yul\":3464:3513   */\n      tag_200\n      jump\t// in\n    tag_319:\n        /* \"#utility.yul\":3448:3514   */\n      tag_199\n      jump\t// in\n    tag_318:\n        /* \"#utility.yul\":3439:3514   */\n      swap1\n      pop\n        /* \"#utility.yul\":3537:3543   */\n      dup3\n        /* \"#utility.yul\":3530:3535   */\n      dup2\n        /* \"#utility.yul\":3523:3544   */\n      mstore\n        /* \"#utility.yul\":3575:3579   */\n      0x20\n        /* \"#utility.yul\":3568:3573   */\n      dup2\n        /* \"#utility.yul\":3564:3580   */\n      add\n        /* \"#utility.yul\":3613:3616   */\n      dup5\n        /* \"#utility.yul\":3604:3610   */\n      dup5\n        /* \"#utility.yul\":3599:3602   */\n      dup5\n        /* \"#utility.yul\":3595:3611   */\n      add\n        /* \"#utility.yul\":3592:3617   */\n      gt\n        /* \"#utility.yul\":3589:3701   */\n      iszero\n      tag_320\n      jumpi\n        /* \"#utility.yul\":3620:3699   */\n      tag_321\n      tag_195\n      jump\t// in\n    tag_321:\n        /* \"#utility.yul\":3589:3701   */\n    tag_320:\n        /* \"#utility.yul\":3710:3764   */\n      tag_322\n        /* \"#utility.yul\":3757:3763   */\n      dup5\n        /* \"#utility.yul\":3752:3755   */\n      dup3\n        /* \"#utility.yul\":3747:3750   */\n      dup6\n        /* \"#utility.yul\":3710:3764   */\n      tag_201\n      jump\t// in\n    tag_322:\n        /* \"#utility.yul\":3429:3770   */\n      pop\n        /* \"#utility.yul\":3345:3770   */\n      swap4\n      swap3\n      pop\n      pop\n      pop\n      jump\t// out\n        /* \"#utility.yul\":3790:4130   */\n    tag_203:\n        /* \"#utility.yul\":3846:3851   */\n      0x00\n        /* \"#utility.yul\":3895:3898   */\n      dup3\n        /* \"#utility.yul\":3888:3892   */\n      0x1f\n        /* \"#utility.yul\":3880:3886   */\n      dup4\n        /* \"#utility.yul\":3876:3893   */\n      add\n        /* \"#utility.yul\":3872:3899   */\n      slt\n        /* \"#utility.yul\":3862:3984   */\n      tag_324\n      jumpi\n        /* \"#utility.yul\":3903:3982   */\n      tag_325\n      tag_194\n      jump\t// in\n    tag_325:\n        /* \"#utility.yul\":3862:3984   */\n    tag_324:\n        /* \"#utility.yul\":4020:4026   */\n      dup2\n        /* \"#utility.yul\":4007:4027   */\n      calldataload\n        /* \"#utility.yul\":4045:4124   */\n      tag_326\n        /* \"#utility.yul\":4120:4123   */\n      dup5\n        /* \"#utility.yul\":4112:4118   */\n      dup3\n        /* \"#utility.yul\":4105:4109   */\n      0x20\n        /* \"#utility.yul\":4097:4103   */\n      dup7\n        /* \"#utility.yul\":4093:4110   */\n      add\n        /* \"#utility.yul\":4045:4124   */\n      tag_202\n      jump\t// in\n    tag_326:\n        /* \"#utility.yul\":4036:4124   */\n      swap2\n      pop\n        /* \"#utility.yul\":3852:4130   */\n      pop\n        /* \"#utility.yul\":3790:4130   */\n      swap3\n      swap2\n      pop\n      pop\n      jump\t// out\n        /* \"#utility.yul\":4136:4213   */\n    tag_204:\n        /* \"#utility.yul\":4173:4180   */\n      0x00\n        /* \"#utility.yul\":4202:4207   */\n      dup2\n        /* \"#utility.yul\":4191:4207   */\n      swap1\n      pop\n        /* \"#utility.yul\":4136:4213   */\n      swap2\n      swap1\n      pop\n      jump\t// out\n        /* \"#utility.yul\":4219:4341   */\n    tag_205:\n        /* \"#utility.yul\":4292:4316   */\n      tag_329\n        /* \"#utility.yul\":4310:4315   */\n      dup2\n        /* \"#utility.yul\":4292:4316   */\n      tag_204\n      jump\t// in\n    tag_329:\n        /* \"#utility.yul\":4285:4290   */\n      dup2\n        /* \"#utility.yul\":4282:4317   */\n      eq\n        /* \"#utility.yul\":4272:4335   */\n      tag_330\n      jumpi\n        /* \"#utility.yul\":4331:4332   */\n      0x00\n        /* \"#utility.yul\":4328:4329   */\n      dup1\n        /* \"#utility.yul\":4321:4333   */\n      revert\n        /* \"#utility.yul\":4272:4335   */\n    tag_330:\n        /* \"#utility.yul\":4219:4341   */\n      pop\n      jump\t// out\n        /* \"#utility.yul\":4347:4486   */\n    tag_206:\n        /* \"#utility.yul\":4393:4398   */\n      0x00\n        /* \"#utility.yul\":4431:4437   */\n      dup2\n        /* \"#utility.yul\":4418:4438   */\n      calldataload\n        /* \"#utility.yul\":4409:4438   */\n      swap1\n      pop\n        /* \"#utility.yul\":4447:4480   */\n      tag_332\n        /* \"#utility.yul\":4474:4479   */\n      dup2\n        /* \"#utility.yul\":4447:4480   */\n      tag_205\n      jump\t// in\n    tag_332:\n        /* \"#utility.yul\":4347:4486   */\n      swap3\n      swap2\n      pop\n      pop\n      jump\t// out\n        /* \"#utility.yul\":4492:5291   */\n    tag_35:\n        /* \"#utility.yul\":4579:4585   */\n      0x00\n        /* \"#utility.yul\":4587:4593   */\n      dup1\n        /* \"#utility.yul\":4595:4601   */\n      0x00\n        /* \"#utility.yul\":4644:4646   */\n      0x60\n        /* \"#utility.yul\":4632:4641   */\n      dup5\n        /* \"#utility.yul\":4623:4630   */\n      dup7\n        /* \"#utility.yul\":4619:4642   */\n      sub\n        /* \"#utility.yul\":4615:4647   */\n      slt\n        /* \"#utility.yul\":4612:4731   */\n      iszero\n      tag_334\n      jumpi\n        /* \"#utility.yul\":4650:4729   */\n      tag_335\n      tag_186\n      jump\t// in\n    tag_335:\n        /* \"#utility.yul\":4612:4731   */\n    tag_334:\n        /* \"#utility.yul\":4798:4799   */\n      0x00\n        /* \"#utility.yul\":4787:4796   */\n      dup5\n        /* \"#utility.yul\":4783:4800   */\n      add\n        /* \"#utility.yul\":4770:4801   */\n      calldataload\n        /* \"#utility.yul\":4828:4846   */\n      0xffffffffffffffff\n        /* \"#utility.yul\":4820:4826   */\n      dup2\n        /* \"#utility.yul\":4817:4847   */\n      gt\n        /* \"#utility.yul\":4814:4931   */\n      iszero\n      tag_336\n      jumpi\n        /* \"#utility.yul\":4850:4929   */\n      tag_337\n      tag_187\n      jump\t// in\n    tag_337:\n        /* \"#utility.yul\":4814:4931   */\n    tag_336:\n        /* \"#utility.yul\":4955:5018   */\n      tag_338\n        /* \"#utility.yul\":5010:5017   */\n      dup7\n        /* \"#utility.yul\":5001:5007   */\n      dup3\n        /* \"#utility.yul\":4990:4999   */\n      dup8\n        /* \"#utility.yul\":4986:5008   */\n      add\n        /* \"#utility.yul\":4955:5018   */\n      tag_203\n      jump\t// in\n    tag_338:\n        /* \"#utility.yul\":4945:5018   */\n      swap4\n      pop\n        /* \"#utility.yul\":4741:5028   */\n      pop\n        /* \"#utility.yul\":5067:5069   */\n      0x20\n        /* \"#utility.yul\":5093:5146   */\n      tag_339\n        /* \"#utility.yul\":5138:5145   */\n      dup7\n        /* \"#utility.yul\":5129:5135   */\n      dup3\n        /* \"#utility.yul\":5118:5127   */\n      dup8\n        /* \"#utility.yul\":5114:5136   */\n      add\n        /* \"#utility.yul\":5093:5146   */\n      tag_206\n      jump\t// in\n    tag_339:\n        /* \"#utility.yul\":5083:5146   */\n      swap3\n      pop\n        /* \"#utility.yul\":5038:5156   */\n      pop\n        /* \"#utility.yul\":5195:5197   */\n      0x40\n        /* \"#utility.yul\":5221:5274   */\n      tag_340\n        /* \"#utility.yul\":5266:5273   */\n      dup7\n        /* \"#utility.yul\":5257:5263   */\n      dup3\n        /* \"#utility.yul\":5246:5255   */\n      dup8\n        /* \"#utility.yul\":5242:5264   */\n      add\n        /* \"#utility.yul\":5221:5274   */\n      tag_191\n      jump\t// in\n    tag_340:\n        /* \"#utility.yul\":5211:5274   */\n      swap2\n      pop\n        /* \"#utility.yul\":5166:5284   */\n      pop\n        /* \"#utility.yul\":4492:5291   */\n      swap3\n      pop\n      swap3\n      pop\n      swap3\n      jump\t// out\n        /* \"#utility.yul\":5297:5396   */\n    tag_207:\n        /* \"#utility.yul\":5349:5355   */\n      0x00\n        /* \"#utility.yul\":5383:5388   */\n      dup2\n        /* \"#utility.yul\":5377:5389   */\n      mload\n        /* \"#utility.yul\":5367:5389   */\n      swap1\n      pop\n        /* \"#utility.yul\":5297:5396   */\n      swap2\n      swap1\n      pop\n      jump\t// out\n        /* \"#utility.yul\":5402:5571   */\n    tag_208:\n        /* \"#utility.yul\":5486:5497   */\n      0x00\n        /* \"#utility.yul\":5520:5526   */\n      dup3\n        /* \"#utility.yul\":5515:5518   */\n      dup3\n        /* \"#utility.yul\":5508:5527   */\n      mstore\n        /* \"#utility.yul\":5560:5564   */\n      0x20\n        /* \"#utility.yul\":5555:5558   */\n      dup3\n        /* \"#utility.yul\":5551:5565   */\n      add\n        /* \"#utility.yul\":5536:5565   */\n      swap1\n      pop\n        /* \"#utility.yul\":5402:5571   */\n      swap3\n      swap2\n      pop\n      pop\n      jump\t// out\n        /* \"#utility.yul\":5577:5823   */\n    tag_209:\n        /* \"#utility.yul\":5658:5659   */\n      0x00\n        /* \"#utility.yul\":5668:5781   */\n    tag_344:\n        /* \"#utility.yul\":5682:5688   */\n      dup4\n        /* \"#utility.yul\":5679:5680   */\n      dup2\n        /* \"#utility.yul\":5676:5689   */\n      lt\n        /* \"#utility.yul\":5668:5781   */\n      iszero\n      tag_346\n      jumpi\n        /* \"#utility.yul\":5767:5768   */\n      dup1\n        /* \"#utility.yul\":5762:5765   */\n      dup3\n        /* \"#utility.yul\":5758:5769   */\n      add\n        /* \"#utility.yul\":5752:5770   */\n      mload\n        /* \"#utility.yul\":5748:5749   */\n      dup2\n        /* \"#utility.yul\":5743:5746   */\n      dup5\n        /* \"#utility.yul\":5739:5750   */\n      add\n        /* \"#utility.yul\":5732:5771   */\n      mstore\n        /* \"#utility.yul\":5704:5706   */\n      0x20\n        /* \"#utility.yul\":5701:5702   */\n      dup2\n        /* \"#utility.yul\":5697:5707   */\n      add\n        /* \"#utility.yul\":5692:5707   */\n      swap1\n      pop\n        /* \"#utility.yul\":5668:5781   */\n      jump(tag_344)\n    tag_346:\n        /* \"#utility.yul\":5815:5816   */\n      0x00\n        /* \"#utility.yul\":5806:5812   */\n      dup5\n        /* \"#utility.yul\":5801:5804   */\n      dup5\n        /* \"#utility.yul\":5797:5813   */\n      add\n        /* \"#utility.yul\":5790:5817   */\n      mstore\n        /* \"#utility.yul\":5639:5823   */\n      pop\n        /* \"#utility.yul\":5577:5823   */\n      pop\n      pop\n      pop\n      jump\t// out\n        /* \"#utility.yul\":5829:6206   */\n    tag_210:\n        /* \"#utility.yul\":5917:5920   */\n      0x00\n        /* \"#utility.yul\":5945:5984   */\n      tag_348\n        /* \"#utility.yul\":5978:5983   */\n      dup3\n        /* \"#utility.yul\":5945:5984   */\n      tag_207\n      jump\t// in\n    tag_348:\n        /* \"#utility.yul\":6000:6071   */\n      tag_349\n        /* \"#utility.yul\":6064:6070   */\n      dup2\n        /* \"#utility.yul\":6059:6062   */\n      dup6\n        /* \"#utility.yul\":6000:6071   */\n      tag_208\n      jump\t// in\n    tag_349:\n        /* \"#utility.yul\":5993:6071   */\n      swap4\n      pop\n        /* \"#utility.yul\":6080:6145   */\n      tag_350\n        /* \"#utility.yul\":6138:6144   */\n      dup2\n        /* \"#utility.yul\":6133:6136   */\n      dup6\n        /* \"#utility.yul\":6126:6130   */\n      0x20\n        /* \"#utility.yul\":6119:6124   */\n      dup7\n        /* \"#utility.yul\":6115:6131   */\n      add\n        /* \"#utility.yul\":6080:6145   */\n      tag_209\n      jump\t// in\n    tag_350:\n        /* \"#utility.yul\":6170:6199   */\n      tag_351\n        /* \"#utility.yul\":6192:6198   */\n      dup2\n        /* \"#utility.yul\":6170:6199   */\n      tag_196\n      jump\t// in\n    tag_351:\n        /* \"#utility.yul\":6165:6168   */\n      dup5\n        /* \"#utility.yul\":6161:6200   */\n      add\n        /* \"#utility.yul\":6154:6200   */\n      swap2\n      pop\n        /* \"#utility.yul\":5921:6206   */\n      pop\n        /* \"#utility.yul\":5829:6206   */\n      swap3\n      swap2\n      pop\n      pop\n      jump\t// out\n        /* \"#utility.yul\":6212:6525   */\n    tag_40:\n        /* \"#utility.yul\":6325:6329   */\n      0x00\n        /* \"#utility.yul\":6363:6365   */\n      0x20\n        /* \"#utility.yul\":6352:6361   */\n      dup3\n        /* \"#utility.yul\":6348:6366   */\n      add\n        /* \"#utility.yul\":6340:6366   */\n      swap1\n      pop\n        /* \"#utility.yul\":6412:6421   */\n      dup2\n        /* \"#utility.yul\":6406:6410   */\n      dup2\n        /* \"#utility.yul\":6402:6422   */\n      sub\n        /* \"#utility.yul\":6398:6399   */\n      0x00\n        /* \"#utility.yul\":6387:6396   */\n      dup4\n        /* \"#utility.yul\":6383:6400   */\n      add\n        /* \"#utility.yul\":6376:6423   */\n      mstore\n        /* \"#utility.yul\":6440:6518   */\n      tag_353\n        /* \"#utility.yul\":6513:6517   */\n      dup2\n        /* \"#utility.yul\":6504:6510   */\n      dup5\n        /* \"#utility.yul\":6440:6518   */\n      tag_210\n      jump\t// in\n    tag_353:\n        /* \"#utility.yul\":6432:6518   */\n      swap1\n      pop\n        /* \"#utility.yul\":6212:6525   */\n      swap3\n      swap2\n      pop\n      pop\n      jump\t// out\n        /* \"#utility.yul\":6531:6649   */\n    tag_211:\n        /* \"#utility.yul\":6618:6642   */\n      tag_355\n        /* \"#utility.yul\":6636:6641   */\n      dup2\n        /* \"#utility.yul\":6618:6642   */\n      tag_204\n      jump\t// in\n    tag_355:\n        /* \"#utility.yul\":6613:6616   */\n      dup3\n        /* \"#utility.yul\":6606:6643   */\n      mstore\n        /* \"#utility.yul\":6531:6649   */\n      pop\n      pop\n      jump\t// out\n        /* \"#utility.yul\":6655:6877   */\n    tag_48:\n        /* \"#utility.yul\":6748:6752   */\n      0x00\n        /* \"#utility.yul\":6786:6788   */\n      0x20\n        /* \"#utility.yul\":6775:6784   */\n      dup3\n        /* \"#utility.yul\":6771:6789   */\n      add\n        /* \"#utility.yul\":6763:6789   */\n      swap1\n      pop\n        /* \"#utility.yul\":6799:6870   */\n      tag_357\n        /* \"#utility.yul\":6867:6868   */\n      0x00\n        /* \"#utility.yul\":6856:6865   */\n      dup4\n        /* \"#utility.yul\":6852:6869   */\n      add\n        /* \"#utility.yul\":6843:6849   */\n      dup5\n        /* \"#utility.yul\":6799:6870   */\n      tag_211\n      jump\t// in\n    tag_357:\n        /* \"#utility.yul\":6655:6877   */\n      swap3\n      swap2\n      pop\n      pop\n      jump\t// out\n        /* \"#utility.yul\":6883:7001   */\n    tag_212:\n        /* \"#utility.yul\":6970:6994   */\n      tag_359\n        /* \"#utility.yul\":6988:6993   */\n      dup2\n        /* \"#utility.yul\":6970:6994   */\n      tag_189\n      jump\t// in\n    tag_359:\n        /* \"#utility.yul\":6965:6968   */\n      dup3\n        /* \"#utility.yul\":6958:6995   */\n      mstore\n        /* \"#utility.yul\":6883:7001   */\n      pop\n      pop\n      jump\t// out\n        /* \"#utility.yul\":7007:7229   */\n    tag_52:\n        /* \"#utility.yul\":7100:7104   */\n      0x00\n        /* \"#utility.yul\":7138:7140   */\n      0x20\n        /* \"#utility.yul\":7127:7136   */\n      dup3\n        /* \"#utility.yul\":7123:7141   */\n      add\n        /* \"#utility.yul\":7115:7141   */\n      swap1\n      pop\n        /* \"#utility.yul\":7151:7222   */\n      tag_361\n        /* \"#utility.yul\":7219:7220   */\n      0x00\n        /* \"#utility.yul\":7208:7217   */\n      dup4\n        /* \"#utility.yul\":7204:7221   */\n      add\n        /* \"#utility.yul\":7195:7201   */\n      dup5\n        /* \"#utility.yul\":7151:7222   */\n      tag_212\n      jump\t// in\n    tag_361:\n        /* \"#utility.yul\":7007:7229   */\n      swap3\n      swap2\n      pop\n      pop\n      jump\t// out\n        /* \"#utility.yul\":7235:7394   */\n    tag_213:\n        /* \"#utility.yul\":7309:7320   */\n      0x00\n        /* \"#utility.yul\":7343:7349   */\n      dup3\n        /* \"#utility.yul\":7338:7341   */\n      dup3\n        /* \"#utility.yul\":7331:7350   */\n      mstore\n        /* \"#utility.yul\":7383:7387   */\n      0x20\n        /* \"#utility.yul\":7378:7381   */\n      dup3\n        /* \"#utility.yul\":7374:7388   */\n      add\n        /* \"#utility.yul\":7359:7388   */\n      swap1\n      pop\n        /* \"#utility.yul\":7235:7394   */\n      swap3\n      swap2\n      pop\n      pop\n      jump\t// out\n        /* \"#utility.yul\":7400:7757   */\n    tag_214:\n        /* \"#utility.yul\":7478:7481   */\n      0x00\n        /* \"#utility.yul\":7506:7545   */\n      tag_364\n        /* \"#utility.yul\":7539:7544   */\n      dup3\n        /* \"#utility.yul\":7506:7545   */\n      tag_207\n      jump\t// in\n    tag_364:\n        /* \"#utility.yul\":7561:7622   */\n      tag_365\n        /* \"#utility.yul\":7615:7621   */\n      dup2\n        /* \"#utility.yul\":7610:7613   */\n      dup6\n        /* \"#utility.yul\":7561:7622   */\n      tag_213\n      jump\t// in\n    tag_365:\n        /* \"#utility.yul\":7554:7622   */\n      swap4\n      pop\n        /* \"#utility.yul\":7631:7696   */\n      tag_366\n        /* \"#utility.yul\":7689:7695   */\n      dup2\n        /* \"#utility.yul\":7684:7687   */\n      dup6\n        /* \"#utility.yul\":7677:7681   */\n      0x20\n        /* \"#utility.yul\":7670:7675   */\n      dup7\n        /* \"#utility.yul\":7666:7682   */\n      add\n        /* \"#utility.yul\":7631:7696   */\n      tag_209\n      jump\t// in\n    tag_366:\n        /* \"#utility.yul\":7721:7750   */\n      tag_367\n        /* \"#utility.yul\":7743:7749   */\n      dup2\n        /* \"#utility.yul\":7721:7750   */\n      tag_196\n      jump\t// in\n    tag_367:\n        /* \"#utility.yul\":7716:7719   */\n      dup5\n        /* \"#utility.yul\":7712:7751   */\n      add\n        /* \"#utility.yul\":7705:7751   */\n      swap2\n      pop\n        /* \"#utility.yul\":7482:7757   */\n      pop\n        /* \"#utility.yul\":7400:7757   */\n      swap3\n      swap2\n      pop\n      pop\n      jump\t// out\n        /* \"#utility.yul\":7763:7871   */\n    tag_215:\n        /* \"#utility.yul\":7840:7864   */\n      tag_369\n        /* \"#utility.yul\":7858:7863   */\n      dup2\n        /* \"#utility.yul\":7840:7864   */\n      tag_204\n      jump\t// in\n    tag_369:\n        /* \"#utility.yul\":7835:7838   */\n      dup3\n        /* \"#utility.yul\":7828:7865   */\n      mstore\n        /* \"#utility.yul\":7763:7871   */\n      pop\n      pop\n      jump\t// out\n        /* \"#utility.yul\":7877:7976   */\n    tag_216:\n        /* \"#utility.yul\":7948:7969   */\n      tag_371\n        /* \"#utility.yul\":7963:7968   */\n      dup2\n        /* \"#utility.yul\":7948:7969   */\n      tag_192\n      jump\t// in\n    tag_371:\n        /* \"#utility.yul\":7943:7946   */\n      dup3\n        /* \"#utility.yul\":7936:7970   */\n      mstore\n        /* \"#utility.yul\":7877:7976   */\n      pop\n      pop\n      jump\t// out\n        /* \"#utility.yul\":7982:8090   */\n    tag_217:\n        /* \"#utility.yul\":8059:8083   */\n      tag_373\n        /* \"#utility.yul\":8077:8082   */\n      dup2\n        /* \"#utility.yul\":8059:8083   */\n      tag_189\n      jump\t// in\n    tag_373:\n        /* \"#utility.yul\":8054:8057   */\n      dup3\n        /* \"#utility.yul\":8047:8084   */\n      mstore\n        /* \"#utility.yul\":7982:8090   */\n      pop\n      pop\n      jump\t// out\n        /* \"#utility.yul\":8154:9294   */\n    tag_218:\n        /* \"#utility.yul\":8273:8276   */\n      0x00\n        /* \"#utility.yul\":8309:8313   */\n      0xa0\n        /* \"#utility.yul\":8304:8307   */\n      dup4\n        /* \"#utility.yul\":8300:8314   */\n      add\n        /* \"#utility.yul\":8396:8400   */\n      0x00\n        /* \"#utility.yul\":8389:8394   */\n      dup4\n        /* \"#utility.yul\":8385:8401   */\n      add\n        /* \"#utility.yul\":8379:8402   */\n      mload\n        /* \"#utility.yul\":8449:8452   */\n      dup5\n        /* \"#utility.yul\":8443:8447   */\n      dup3\n        /* \"#utility.yul\":8439:8453   */\n      sub\n        /* \"#utility.yul\":8432:8436   */\n      0x00\n        /* \"#utility.yul\":8427:8430   */\n      dup7\n        /* \"#utility.yul\":8423:8437   */\n      add\n        /* \"#utility.yul\":8416:8454   */\n      mstore\n        /* \"#utility.yul\":8475:8548   */\n      tag_375\n        /* \"#utility.yul\":8543:8547   */\n      dup3\n        /* \"#utility.yul\":8529:8541   */\n      dup3\n        /* \"#utility.yul\":8475:8548   */\n      tag_214\n      jump\t// in\n    tag_375:\n        /* \"#utility.yul\":8467:8548   */\n      swap2\n      pop\n        /* \"#utility.yul\":8324:8559   */\n      pop\n        /* \"#utility.yul\":8640:8644   */\n      0x20\n        /* \"#utility.yul\":8633:8638   */\n      dup4\n        /* \"#utility.yul\":8629:8645   */\n      add\n        /* \"#utility.yul\":8623:8646   */\n      mload\n        /* \"#utility.yul\":8659:8722   */\n      tag_376\n        /* \"#utility.yul\":8716:8720   */\n      0x20\n        /* \"#utility.yul\":8711:8714   */\n      dup7\n        /* \"#utility.yul\":8707:8721   */\n      add\n        /* \"#utility.yul\":8693:8705   */\n      dup3\n        /* \"#utility.yul\":8659:8722   */\n      tag_215\n      jump\t// in\n    tag_376:\n        /* \"#utility.yul\":8569:8732   */\n      pop\n        /* \"#utility.yul\":8820:8824   */\n      0x40\n        /* \"#utility.yul\":8813:8818   */\n      dup4\n        /* \"#utility.yul\":8809:8825   */\n      add\n        /* \"#utility.yul\":8803:8826   */\n      mload\n        /* \"#utility.yul\":8839:8896   */\n      tag_377\n        /* \"#utility.yul\":8890:8894   */\n      0x40\n        /* \"#utility.yul\":8885:8888   */\n      dup7\n        /* \"#utility.yul\":8881:8895   */\n      add\n        /* \"#utility.yul\":8867:8879   */\n      dup3\n        /* \"#utility.yul\":8839:8896   */\n      tag_216\n      jump\t// in\n    tag_377:\n        /* \"#utility.yul\":8742:8906   */\n      pop\n        /* \"#utility.yul\":9000:9004   */\n      0x60\n        /* \"#utility.yul\":8993:8998   */\n      dup4\n        /* \"#utility.yul\":8989:9005   */\n      add\n        /* \"#utility.yul\":8983:9006   */\n      mload\n        /* \"#utility.yul\":9019:9082   */\n      tag_378\n        /* \"#utility.yul\":9076:9080   */\n      0x60\n        /* \"#utility.yul\":9071:9074   */\n      dup7\n        /* \"#utility.yul\":9067:9081   */\n      add\n        /* \"#utility.yul\":9053:9065   */\n      dup3\n        /* \"#utility.yul\":9019:9082   */\n      tag_217\n      jump\t// in\n    tag_378:\n        /* \"#utility.yul\":8916:9092   */\n      pop\n        /* \"#utility.yul\":9175:9179   */\n      0x80\n        /* \"#utility.yul\":9168:9173   */\n      dup4\n        /* \"#utility.yul\":9164:9180   */\n      add\n        /* \"#utility.yul\":9158:9181   */\n      mload\n        /* \"#utility.yul\":9194:9257   */\n      tag_379\n        /* \"#utility.yul\":9251:9255   */\n      0x80\n        /* \"#utility.yul\":9246:9249   */\n      dup7\n        /* \"#utility.yul\":9242:9256   */\n      add\n        /* \"#utility.yul\":9228:9240   */\n      dup3\n        /* \"#utility.yul\":9194:9257   */\n      tag_215\n      jump\t// in\n    tag_379:\n        /* \"#utility.yul\":9102:9267   */\n      pop\n        /* \"#utility.yul\":9284:9288   */\n      dup1\n        /* \"#utility.yul\":9277:9288   */\n      swap2\n      pop\n        /* \"#utility.yul\":8278:9294   */\n      pop\n        /* \"#utility.yul\":8154:9294   */\n      swap3\n      swap2\n      pop\n      pop\n      jump\t// out\n        /* \"#utility.yul\":9300:9673   */\n    tag_56:\n        /* \"#utility.yul\":9443:9447   */\n      0x00\n        /* \"#utility.yul\":9481:9483   */\n      0x20\n        /* \"#utility.yul\":9470:9479   */\n      dup3\n        /* \"#utility.yul\":9466:9484   */\n      add\n        /* \"#utility.yul\":9458:9484   */\n      swap1\n      pop\n        /* \"#utility.yul\":9530:9539   */\n      dup2\n        /* \"#utility.yul\":9524:9528   */\n      dup2\n        /* \"#utility.yul\":9520:9540   */\n      sub\n        /* \"#utility.yul\":9516:9517   */\n      0x00\n        /* \"#utility.yul\":9505:9514   */\n      dup4\n        /* \"#utility.yul\":9501:9518   */\n      add\n        /* \"#utility.yul\":9494:9541   */\n      mstore\n        /* \"#utility.yul\":9558:9666   */\n      tag_381\n        /* \"#utility.yul\":9661:9665   */\n      dup2\n        /* \"#utility.yul\":9652:9658   */\n      dup5\n        /* \"#utility.yul\":9558:9666   */\n      tag_218\n      jump\t// in\n    tag_381:\n        /* \"#utility.yul\":9550:9666   */\n      swap1\n      pop\n        /* \"#utility.yul\":9300:9673   */\n      swap3\n      swap2\n      pop\n      pop\n      jump\t// out\n        /* \"#utility.yul\":9679:10008   */\n    tag_59:\n        /* \"#utility.yul\":9738:9744   */\n      0x00\n        /* \"#utility.yul\":9787:9789   */\n      0x20\n        /* \"#utility.yul\":9775:9784   */\n      dup3\n        /* \"#utility.yul\":9766:9773   */\n      dup5\n        /* \"#utility.yul\":9762:9785   */\n      sub\n        /* \"#utility.yul\":9758:9790   */\n      slt\n        /* \"#utility.yul\":9755:9874   */\n      iszero\n      tag_383\n      jumpi\n        /* \"#utility.yul\":9793:9872   */\n      tag_384\n      tag_186\n      jump\t// in\n    tag_384:\n        /* \"#utility.yul\":9755:9874   */\n    tag_383:\n        /* \"#utility.yul\":9913:9914   */\n      0x00\n        /* \"#utility.yul\":9938:9991   */\n      tag_385\n        /* \"#utility.yul\":9983:9990   */\n      dup5\n        /* \"#utility.yul\":9974:9980   */\n      dup3\n        /* \"#utility.yul\":9963:9972   */\n      dup6\n        /* \"#utility.yul\":9959:9981   */\n      add\n        /* \"#utility.yul\":9938:9991   */\n      tag_206\n      jump\t// in\n    tag_385:\n        /* \"#utility.yul\":9928:9991   */\n      swap2\n      pop\n        /* \"#utility.yul\":9884:10001   */\n      pop\n        /* \"#utility.yul\":9679:10008   */\n      swap3\n      swap2\n      pop\n      pop\n      jump\t// out\n        /* \"#utility.yul\":10014:10757   */\n    tag_62:\n        /* \"#utility.yul\":10233:10237   */\n      0x00\n        /* \"#utility.yul\":10271:10274   */\n      0xa0\n        /* \"#utility.yul\":10260:10269   */\n      dup3\n        /* \"#utility.yul\":10256:10275   */\n      add\n        /* \"#utility.yul\":10248:10275   */\n      swap1\n      pop\n        /* \"#utility.yul\":10321:10330   */\n      dup2\n        /* \"#utility.yul\":10315:10319   */\n      dup2\n        /* \"#utility.yul\":10311:10331   */\n      sub\n        /* \"#utility.yul\":10307:10308   */\n      0x00\n        /* \"#utility.yul\":10296:10305   */\n      dup4\n        /* \"#utility.yul\":10292:10309   */\n      add\n        /* \"#utility.yul\":10285:10332   */\n      mstore\n        /* \"#utility.yul\":10349:10427   */\n      tag_387\n        /* \"#utility.yul\":10422:10426   */\n      dup2\n        /* \"#utility.yul\":10413:10419   */\n      dup9\n        /* \"#utility.yul\":10349:10427   */\n      tag_210\n      jump\t// in\n    tag_387:\n        /* \"#utility.yul\":10341:10427   */\n      swap1\n      pop\n        /* \"#utility.yul\":10437:10509   */\n      tag_388\n        /* \"#utility.yul\":10505:10507   */\n      0x20\n        /* \"#utility.yul\":10494:10503   */\n      dup4\n        /* \"#utility.yul\":10490:10508   */\n      add\n        /* \"#utility.yul\":10481:10487   */\n      dup8\n        /* \"#utility.yul\":10437:10509   */\n      tag_211\n      jump\t// in\n    tag_388:\n        /* \"#utility.yul\":10519:10585   */\n      tag_389\n        /* \"#utility.yul\":10581:10583   */\n      0x40\n        /* \"#utility.yul\":10570:10579   */\n      dup4\n        /* \"#utility.yul\":10566:10584   */\n      add\n        /* \"#utility.yul\":10557:10563   */\n      dup7\n        /* \"#utility.yul\":10519:10585   */\n      tag_193\n      jump\t// in\n    tag_389:\n        /* \"#utility.yul\":10595:10667   */\n      tag_390\n        /* \"#utility.yul\":10663:10665   */\n      0x60\n        /* \"#utility.yul\":10652:10661   */\n      dup4\n        /* \"#utility.yul\":10648:10666   */\n      add\n        /* \"#utility.yul\":10639:10645   */\n      dup6\n        /* \"#utility.yul\":10595:10667   */\n      tag_212\n      jump\t// in\n    tag_390:\n        /* \"#utility.yul\":10677:10750   */\n      tag_391\n        /* \"#utility.yul\":10745:10748   */\n      0x80\n        /* \"#utility.yul\":10734:10743   */\n      dup4\n        /* \"#utility.yul\":10730:10749   */\n      add\n        /* \"#utility.yul\":10721:10727   */\n      dup5\n        /* \"#utility.yul\":10677:10750   */\n      tag_211\n      jump\t// in\n    tag_391:\n        /* \"#utility.yul\":10014:10757   */\n      swap7\n      swap6\n      pop\n      pop\n      pop\n      pop\n      pop\n      pop\n      jump\t// out\n        /* \"#utility.yul\":10763:10902   */\n    tag_219:\n        /* \"#utility.yul\":10855:10861   */\n      0x00\n        /* \"#utility.yul\":10889:10894   */\n      dup2\n        /* \"#utility.yul\":10883:10895   */\n      mload\n        /* \"#utility.yul\":10873:10895   */\n      swap1\n      pop\n        /* \"#utility.yul\":10763:10902   */\n      swap2\n      swap1\n      pop\n      jump\t// out\n        /* \"#utility.yul\":10908:11117   */\n    tag_220:\n        /* \"#utility.yul\":11032:11043   */\n      0x00\n        /* \"#utility.yul\":11066:11072   */\n      dup3\n        /* \"#utility.yul\":11061:11064   */\n      dup3\n        /* \"#utility.yul\":11054:11073   */\n      mstore\n        /* \"#utility.yul\":11106:11110   */\n      0x20\n        /* \"#utility.yul\":11101:11104   */\n      dup3\n        /* \"#utility.yul\":11097:11111   */\n      add\n        /* \"#utility.yul\":11082:11111   */\n      swap1\n      pop\n        /* \"#utility.yul\":10908:11117   */\n      swap3\n      swap2\n      pop\n      pop\n      jump\t// out\n        /* \"#utility.yul\":11123:11280   */\n    tag_221:\n        /* \"#utility.yul\":11215:11219   */\n      0x00\n        /* \"#utility.yul\":11238:11241   */\n      dup2\n        /* \"#utility.yul\":11230:11241   */\n      swap1\n      pop\n        /* \"#utility.yul\":11268:11272   */\n      0x20\n        /* \"#utility.yul\":11263:11266   */\n      dup3\n        /* \"#utility.yul\":11259:11273   */\n      add\n        /* \"#utility.yul\":11251:11273   */\n      swap1\n      pop\n        /* \"#utility.yul\":11123:11280   */\n      swap2\n      swap1\n      pop\n      jump\t// out\n        /* \"#utility.yul\":11344:12474   */\n    tag_222:\n        /* \"#utility.yul\":11453:11456   */\n      0x00\n        /* \"#utility.yul\":11489:11493   */\n      0xa0\n        /* \"#utility.yul\":11484:11487   */\n      dup4\n        /* \"#utility.yul\":11480:11494   */\n      add\n        /* \"#utility.yul\":11576:11580   */\n      0x00\n        /* \"#utility.yul\":11569:11574   */\n      dup4\n        /* \"#utility.yul\":11565:11581   */\n      add\n        /* \"#utility.yul\":11559:11582   */\n      mload\n        /* \"#utility.yul\":11629:11632   */\n      dup5\n        /* \"#utility.yul\":11623:11627   */\n      dup3\n        /* \"#utility.yul\":11619:11633   */\n      sub\n        /* \"#utility.yul\":11612:11616   */\n      0x00\n        /* \"#utility.yul\":11607:11610   */\n      dup7\n        /* \"#utility.yul\":11603:11617   */\n      add\n        /* \"#utility.yul\":11596:11634   */\n      mstore\n        /* \"#utility.yul\":11655:11728   */\n      tag_396\n        /* \"#utility.yul\":11723:11727   */\n      dup3\n        /* \"#utility.yul\":11709:11721   */\n      dup3\n        /* \"#utility.yul\":11655:11728   */\n      tag_214\n      jump\t// in\n    tag_396:\n        /* \"#utility.yul\":11647:11728   */\n      swap2\n      pop\n        /* \"#utility.yul\":11504:11739   */\n      pop\n        /* \"#utility.yul\":11820:11824   */\n      0x20\n        /* \"#utility.yul\":11813:11818   */\n      dup4\n        /* \"#utility.yul\":11809:11825   */\n      add\n        /* \"#utility.yul\":11803:11826   */\n      mload\n        /* \"#utility.yul\":11839:11902   */\n      tag_397\n        /* \"#utility.yul\":11896:11900   */\n      0x20\n        /* \"#utility.yul\":11891:11894   */\n      dup7\n        /* \"#utility.yul\":11887:11901   */\n      add\n        /* \"#utility.yul\":11873:11885   */\n      dup3\n        /* \"#utility.yul\":11839:11902   */\n      tag_215\n      jump\t// in\n    tag_397:\n        /* \"#utility.yul\":11749:11912   */\n      pop\n        /* \"#utility.yul\":12000:12004   */\n      0x40\n        /* \"#utility.yul\":11993:11998   */\n      dup4\n        /* \"#utility.yul\":11989:12005   */\n      add\n        /* \"#utility.yul\":11983:12006   */\n      mload\n        /* \"#utility.yul\":12019:12076   */\n      tag_398\n        /* \"#utility.yul\":12070:12074   */\n      0x40\n        /* \"#utility.yul\":12065:12068   */\n      dup7\n        /* \"#utility.yul\":12061:12075   */\n      add\n        /* \"#utility.yul\":12047:12059   */\n      dup3\n        /* \"#utility.yul\":12019:12076   */\n      tag_216\n      jump\t// in\n    tag_398:\n        /* \"#utility.yul\":11922:12086   */\n      pop\n        /* \"#utility.yul\":12180:12184   */\n      0x60\n        /* \"#utility.yul\":12173:12178   */\n      dup4\n        /* \"#utility.yul\":12169:12185   */\n      add\n        /* \"#utility.yul\":12163:12186   */\n      mload\n        /* \"#utility.yul\":12199:12262   */\n      tag_399\n        /* \"#utility.yul\":12256:12260   */\n      0x60\n        /* \"#utility.yul\":12251:12254   */\n      dup7\n        /* \"#utility.yul\":12247:12261   */\n      add\n        /* \"#utility.yul\":12233:12245   */\n      dup3\n        /* \"#utility.yul\":12199:12262   */\n      tag_217\n      jump\t// in\n    tag_399:\n        /* \"#utility.yul\":12096:12272   */\n      pop\n        /* \"#utility.yul\":12355:12359   */\n      0x80\n        /* \"#utility.yul\":12348:12353   */\n      dup4\n        /* \"#utility.yul\":12344:12360   */\n      add\n        /* \"#utility.yul\":12338:12361   */\n      mload\n        /* \"#utility.yul\":12374:12437   */\n      tag_400\n        /* \"#utility.yul\":12431:12435   */\n      0x80\n        /* \"#utility.yul\":12426:12429   */\n      dup7\n        /* \"#utility.yul\":12422:12436   */\n      add\n        /* \"#utility.yul\":12408:12420   */\n      dup3\n        /* \"#utility.yul\":12374:12437   */\n      tag_215\n      jump\t// in\n    tag_400:\n        /* \"#utility.yul\":12282:12447   */\n      pop\n        /* \"#utility.yul\":12464:12468   */\n      dup1\n        /* \"#utility.yul\":12457:12468   */\n      swap2\n      pop\n        /* \"#utility.yul\":11458:12474   */\n      pop\n        /* \"#utility.yul\":11344:12474   */\n      swap3\n      swap2\n      pop\n      pop\n      jump\t// out\n        /* \"#utility.yul\":12480:12736   */\n    tag_223:\n        /* \"#utility.yul\":12599:12609   */\n      0x00\n        /* \"#utility.yul\":12634:12730   */\n      tag_402\n        /* \"#utility.yul\":12726:12729   */\n      dup4\n        /* \"#utility.yul\":12718:12724   */\n      dup4\n        /* \"#utility.yul\":12634:12730   */\n      tag_222\n      jump\t// in\n    tag_402:\n        /* \"#utility.yul\":12620:12730   */\n      swap1\n      pop\n        /* \"#utility.yul\":12480:12736   */\n      swap3\n      swap2\n      pop\n      pop\n      jump\t// out\n        /* \"#utility.yul\":12742:12880   */\n    tag_224:\n        /* \"#utility.yul\":12837:12841   */\n      0x00\n        /* \"#utility.yul\":12869:12873   */\n      0x20\n        /* \"#utility.yul\":12864:12867   */\n      dup3\n        /* \"#utility.yul\":12860:12874   */\n      add\n        /* \"#utility.yul\":12852:12874   */\n      swap1\n      pop\n        /* \"#utility.yul\":12742:12880   */\n      swap2\n      swap1\n      pop\n      jump\t// out\n        /* \"#utility.yul\":12948:14059   */\n    tag_225:\n        /* \"#utility.yul\":13117:13120   */\n      0x00\n        /* \"#utility.yul\":13146:13225   */\n      tag_405\n        /* \"#utility.yul\":13219:13224   */\n      dup3\n        /* \"#utility.yul\":13146:13225   */\n      tag_219\n      jump\t// in\n    tag_405:\n        /* \"#utility.yul\":13241:13352   */\n      tag_406\n        /* \"#utility.yul\":13345:13351   */\n      dup2\n        /* \"#utility.yul\":13340:13343   */\n      dup6\n        /* \"#utility.yul\":13241:13352   */\n      tag_220\n      jump\t// in\n    tag_406:\n        /* \"#utility.yul\":13234:13352   */\n      swap4\n      pop\n        /* \"#utility.yul\":13378:13381   */\n      dup4\n        /* \"#utility.yul\":13423:13427   */\n      0x20\n        /* \"#utility.yul\":13415:13421   */\n      dup3\n        /* \"#utility.yul\":13411:13428   */\n      mul\n        /* \"#utility.yul\":13406:13409   */\n      dup6\n        /* \"#utility.yul\":13402:13429   */\n      add\n        /* \"#utility.yul\":13453:13534   */\n      tag_407\n        /* \"#utility.yul\":13528:13533   */\n      dup6\n        /* \"#utility.yul\":13453:13534   */\n      tag_221\n      jump\t// in\n    tag_407:\n        /* \"#utility.yul\":13557:13564   */\n      dup1\n        /* \"#utility.yul\":13588:13589   */\n      0x00\n        /* \"#utility.yul\":13573:14014   */\n    tag_408:\n        /* \"#utility.yul\":13598:13604   */\n      dup6\n        /* \"#utility.yul\":13595:13596   */\n      dup2\n        /* \"#utility.yul\":13592:13605   */\n      lt\n        /* \"#utility.yul\":13573:14014   */\n      iszero\n      tag_410\n      jumpi\n        /* \"#utility.yul\":13669:13678   */\n      dup5\n        /* \"#utility.yul\":13663:13667   */\n      dup5\n        /* \"#utility.yul\":13659:13679   */\n      sub\n        /* \"#utility.yul\":13654:13657   */\n      dup10\n        /* \"#utility.yul\":13647:13680   */\n      mstore\n        /* \"#utility.yul\":13720:13726   */\n      dup2\n        /* \"#utility.yul\":13714:13727   */\n      mload\n        /* \"#utility.yul\":13748:13862   */\n      tag_411\n        /* \"#utility.yul\":13857:13861   */\n      dup6\n        /* \"#utility.yul\":13842:13855   */\n      dup3\n        /* \"#utility.yul\":13748:13862   */\n      tag_223\n      jump\t// in\n    tag_411:\n        /* \"#utility.yul\":13740:13862   */\n      swap5\n      pop\n        /* \"#utility.yul\":13885:13970   */\n      tag_412\n        /* \"#utility.yul\":13963:13969   */\n      dup4\n        /* \"#utility.yul\":13885:13970   */\n      tag_224\n      jump\t// in\n    tag_412:\n        /* \"#utility.yul\":13875:13970   */\n      swap3\n      pop\n        /* \"#utility.yul\":13999:14003   */\n      0x20\n        /* \"#utility.yul\":13994:13997   */\n      dup11\n        /* \"#utility.yul\":13990:14004   */\n      add\n        /* \"#utility.yul\":13983:14004   */\n      swap10\n      pop\n        /* \"#utility.yul\":13633:14014   */\n      pop\n        /* \"#utility.yul\":13620:13621   */\n      0x01\n        /* \"#utility.yul\":13617:13618   */\n      dup2\n        /* \"#utility.yul\":13613:13622   */\n      add\n        /* \"#utility.yul\":13608:13622   */\n      swap1\n      pop\n        /* \"#utility.yul\":13573:14014   */\n      jump(tag_408)\n    tag_410:\n        /* \"#utility.yul\":13577:13591   */\n      pop\n        /* \"#utility.yul\":14030:14034   */\n      dup3\n        /* \"#utility.yul\":14023:14034   */\n      swap8\n      pop\n        /* \"#utility.yul\":14050:14053   */\n      dup8\n        /* \"#utility.yul\":14043:14053   */\n      swap6\n      pop\n        /* \"#utility.yul\":13122:14059   */\n      pop\n      pop\n      pop\n      pop\n      pop\n        /* \"#utility.yul\":12948:14059   */\n      swap3\n      swap2\n      pop\n      pop\n      jump\t// out\n        /* \"#utility.yul\":14065:14538   */\n    tag_72:\n        /* \"#utility.yul\":14258:14262   */\n      0x00\n        /* \"#utility.yul\":14296:14298   */\n      0x20\n        /* \"#utility.yul\":14285:14294   */\n      dup3\n        /* \"#utility.yul\":14281:14299   */\n      add\n        /* \"#utility.yul\":14273:14299   */\n      swap1\n      pop\n        /* \"#utility.yul\":14345:14354   */\n      dup2\n        /* \"#utility.yul\":14339:14343   */\n      dup2\n        /* \"#utility.yul\":14335:14355   */\n      sub\n        /* \"#utility.yul\":14331:14332   */\n      0x00\n        /* \"#utility.yul\":14320:14329   */\n      dup4\n        /* \"#utility.yul\":14316:14333   */\n      add\n        /* \"#utility.yul\":14309:14356   */\n      mstore\n        /* \"#utility.yul\":14373:14531   */\n      tag_414\n        /* \"#utility.yul\":14526:14530   */\n      dup2\n        /* \"#utility.yul\":14517:14523   */\n      dup5\n        /* \"#utility.yul\":14373:14531   */\n      tag_225\n      jump\t// in\n    tag_414:\n        /* \"#utility.yul\":14365:14531   */\n      swap1\n      pop\n        /* \"#utility.yul\":14065:14538   */\n      swap3\n      swap2\n      pop\n      pop\n      jump\t// out\n        /* \"#utility.yul\":14544:14723   */\n    tag_226:\n        /* \"#utility.yul\":14684:14715   */\n      0x4f6e6c79206f776e65722063616e20737461727420766f74696e672121000000\n        /* \"#utility.yul\":14680:14681   */\n      0x00\n        /* \"#utility.yul\":14672:14678   */\n      dup3\n        /* \"#utility.yul\":14668:14682   */\n      add\n        /* \"#utility.yul\":14661:14716   */\n      mstore\n        /* \"#utility.yul\":14544:14723   */\n      pop\n      jump\t// out\n        /* \"#utility.yul\":14729:15095   */\n    tag_227:\n        /* \"#utility.yul\":14871:14874   */\n      0x00\n        /* \"#utility.yul\":14892:14959   */\n      tag_417\n        /* \"#utility.yul\":14956:14958   */\n      0x1d\n        /* \"#utility.yul\":14951:14954   */\n      dup4\n        /* \"#utility.yul\":14892:14959   */\n      tag_208\n      jump\t// in\n    tag_417:\n        /* \"#utility.yul\":14885:14959   */\n      swap2\n      pop\n        /* \"#utility.yul\":14968:15061   */\n      tag_418\n        /* \"#utility.yul\":15057:15060   */\n      dup3\n        /* \"#utility.yul\":14968:15061   */\n      tag_226\n      jump\t// in\n    tag_418:\n        /* \"#utility.yul\":15086:15088   */\n      0x20\n        /* \"#utility.yul\":15081:15084   */\n      dup3\n        /* \"#utility.yul\":15077:15089   */\n      add\n        /* \"#utility.yul\":15070:15089   */\n      swap1\n      pop\n        /* \"#utility.yul\":14729:15095   */\n      swap2\n      swap1\n      pop\n      jump\t// out\n        /* \"#utility.yul\":15101:15520   */\n    tag_82:\n        /* \"#utility.yul\":15267:15271   */\n      0x00\n        /* \"#utility.yul\":15305:15307   */\n      0x20\n        /* \"#utility.yul\":15294:15303   */\n      dup3\n        /* \"#utility.yul\":15290:15308   */\n      add\n        /* \"#utility.yul\":15282:15308   */\n      swap1\n      pop\n        /* \"#utility.yul\":15354:15363   */\n      dup2\n        /* \"#utility.yul\":15348:15352   */\n      dup2\n        /* \"#utility.yul\":15344:15364   */\n      sub\n        /* \"#utility.yul\":15340:15341   */\n      0x00\n        /* \"#utility.yul\":15329:15338   */\n      dup4\n        /* \"#utility.yul\":15325:15342   */\n      add\n        /* \"#utility.yul\":15318:15365   */\n      mstore\n        /* \"#utility.yul\":15382:15513   */\n      tag_420\n        /* \"#utility.yul\":15508:15512   */\n      dup2\n        /* \"#utility.yul\":15382:15513   */\n      tag_227\n      jump\t// in\n    tag_420:\n        /* \"#utility.yul\":15374:15513   */\n      swap1\n      pop\n        /* \"#utility.yul\":15101:15520   */\n      swap2\n      swap1\n      pop\n      jump\t// out\n        /* \"#utility.yul\":15526:15692   */\n    tag_228:\n        /* \"#utility.yul\":15666:15684   */\n      0x566f74696e672053746172746564212100000000000000000000000000000000\n        /* \"#utility.yul\":15662:15663   */\n      0x00\n        /* \"#utility.yul\":15654:15660   */\n      dup3\n        /* \"#utility.yul\":15650:15664   */\n      add\n        /* \"#utility.yul\":15643:15685   */\n      mstore\n        /* \"#utility.yul\":15526:15692   */\n      pop\n      jump\t// out\n        /* \"#utility.yul\":15698:16064   */\n    tag_229:\n        /* \"#utility.yul\":15840:15843   */\n      0x00\n        /* \"#utility.yul\":15861:15928   */\n      tag_423\n        /* \"#utility.yul\":15925:15927   */\n      0x10\n        /* \"#utility.yul\":15920:15923   */\n      dup4\n        /* \"#utility.yul\":15861:15928   */\n      tag_208\n      jump\t// in\n    tag_423:\n        /* \"#utility.yul\":15854:15928   */\n      swap2\n      pop\n        /* \"#utility.yul\":15937:16030   */\n      tag_424\n        /* \"#utility.yul\":16026:16029   */\n      dup3\n        /* \"#utility.yul\":15937:16030   */\n      tag_228\n      jump\t// in\n    tag_424:\n        /* \"#utility.yul\":16055:16057   */\n      0x20\n        /* \"#utility.yul\":16050:16053   */\n      dup3\n        /* \"#utility.yul\":16046:16058   */\n      add\n        /* \"#utility.yul\":16039:16058   */\n      swap1\n      pop\n        /* \"#utility.yul\":15698:16064   */\n      swap2\n      swap1\n      pop\n      jump\t// out\n        /* \"#utility.yul\":16070:16489   */\n    tag_84:\n        /* \"#utility.yul\":16236:16240   */\n      0x00\n        /* \"#utility.yul\":16274:16276   */\n      0x20\n        /* \"#utility.yul\":16263:16272   */\n      dup3\n        /* \"#utility.yul\":16259:16277   */\n      add\n        /* \"#utility.yul\":16251:16277   */\n      swap1\n      pop\n        /* \"#utility.yul\":16323:16332   */\n      dup2\n        /* \"#utility.yul\":16317:16321   */\n      dup2\n        /* \"#utility.yul\":16313:16333   */\n      sub\n        /* \"#utility.yul\":16309:16310   */\n      0x00\n        /* \"#utility.yul\":16298:16307   */\n      dup4\n        /* \"#utility.yul\":16294:16311   */\n      add\n        /* \"#utility.yul\":16287:16334   */\n      mstore\n        /* \"#utility.yul\":16351:16482   */\n      tag_426\n        /* \"#utility.yul\":16477:16481   */\n      dup2\n        /* \"#utility.yul\":16351:16482   */\n      tag_229\n      jump\t// in\n    tag_426:\n        /* \"#utility.yul\":16343:16482   */\n      swap1\n      pop\n        /* \"#utility.yul\":16070:16489   */\n      swap2\n      swap1\n      pop\n      jump\t// out\n        /* \"#utility.yul\":16495:16717   */\n    tag_230:\n        /* \"#utility.yul\":16635:16669   */\n      0x4f6e6c79206f776e65722063616e2072656769737465722043616e6469646174\n        /* \"#utility.yul\":16631:16632   */\n      0x00\n        /* \"#utility.yul\":16623:16629   */\n      dup3\n        /* \"#utility.yul\":16619:16633   */\n      add\n        /* \"#utility.yul\":16612:16670   */\n      mstore\n        /* \"#utility.yul\":16704:16709   */\n      0x6521210000000000000000000000000000000000000000000000000000000000\n        /* \"#utility.yul\":16699:16701   */\n      0x20\n        /* \"#utility.yul\":16691:16697   */\n      dup3\n        /* \"#utility.yul\":16687:16702   */\n      add\n        /* \"#utility.yul\":16680:16710   */\n      mstore\n        /* \"#utility.yul\":16495:16717   */\n      pop\n      jump\t// out\n        /* \"#utility.yul\":16723:17089   */\n    tag_231:\n        /* \"#utility.yul\":16865:16868   */\n      0x00\n        /* \"#utility.yul\":16886:16953   */\n      tag_429\n        /* \"#utility.yul\":16950:16952   */\n      0x23\n        /* \"#utility.yul\":16945:16948   */\n      dup4\n        /* \"#utility.yul\":16886:16953   */\n      tag_208\n      jump\t// in\n    tag_429:\n        /* \"#utility.yul\":16879:16953   */\n      swap2\n      pop\n        /* \"#utility.yul\":16962:17055   */\n      tag_430\n        /* \"#utility.yul\":17051:17054   */\n      dup3\n        /* \"#utility.yul\":16962:17055   */\n      tag_230\n      jump\t// in\n    tag_430:\n        /* \"#utility.yul\":17080:17082   */\n      0x40\n        /* \"#utility.yul\":17075:17078   */\n      dup3\n        /* \"#utility.yul\":17071:17083   */\n      add\n        /* \"#utility.yul\":17064:17083   */\n      swap1\n      pop\n        /* \"#utility.yul\":16723:17089   */\n      swap2\n      swap1\n      pop\n      jump\t// out\n        /* \"#utility.yul\":17095:17514   */\n    tag_88:\n        /* \"#utility.yul\":17261:17265   */\n      0x00\n        /* \"#utility.yul\":17299:17301   */\n      0x20\n        /* \"#utility.yul\":17288:17297   */\n      dup3\n        /* \"#utility.yul\":17284:17302   */\n      add\n        /* \"#utility.yul\":17276:17302   */\n      swap1\n      pop\n        /* \"#utility.yul\":17348:17357   */\n      dup2\n        /* \"#utility.yul\":17342:17346   */\n      dup2\n        /* \"#utility.yul\":17338:17358   */\n      sub\n        /* \"#utility.yul\":17334:17335   */\n      0x00\n        /* \"#utility.yul\":17323:17332   */\n      dup4\n        /* \"#utility.yul\":17319:17336   */\n      add\n        /* \"#utility.yul\":17312:17359   */\n      mstore\n        /* \"#utility.yul\":17376:17507   */\n      tag_432\n        /* \"#utility.yul\":17502:17506   */\n      dup2\n        /* \"#utility.yul\":17376:17507   */\n      tag_231\n      jump\t// in\n    tag_432:\n        /* \"#utility.yul\":17368:17507   */\n      swap1\n      pop\n        /* \"#utility.yul\":17095:17514   */\n      swap2\n      swap1\n      pop\n      jump\t// out\n        /* \"#utility.yul\":17520:17697   */\n    tag_232:\n        /* \"#utility.yul\":17660:17689   */\n      0x4f776e65722063616e206e6f7420706172746963697061746521210000000000\n        /* \"#utility.yul\":17656:17657   */\n      0x00\n        /* \"#utility.yul\":17648:17654   */\n      dup3\n        /* \"#utility.yul\":17644:17658   */\n      add\n        /* \"#utility.yul\":17637:17690   */\n      mstore\n        /* \"#utility.yul\":17520:17697   */\n      pop\n      jump\t// out\n        /* \"#utility.yul\":17703:18069   */\n    tag_233:\n        /* \"#utility.yul\":17845:17848   */\n      0x00\n        /* \"#utility.yul\":17866:17933   */\n      tag_435\n        /* \"#utility.yul\":17930:17932   */\n      0x1b\n        /* \"#utility.yul\":17925:17928   */\n      dup4\n        /* \"#utility.yul\":17866:17933   */\n      tag_208\n      jump\t// in\n    tag_435:\n        /* \"#utility.yul\":17859:17933   */\n      swap2\n      pop\n        /* \"#utility.yul\":17942:18035   */\n      tag_436\n        /* \"#utility.yul\":18031:18034   */\n      dup3\n        /* \"#utility.yul\":17942:18035   */\n      tag_232\n      jump\t// in\n    tag_436:\n        /* \"#utility.yul\":18060:18062   */\n      0x20\n        /* \"#utility.yul\":18055:18058   */\n      dup3\n        /* \"#utility.yul\":18051:18063   */\n      add\n        /* \"#utility.yul\":18044:18063   */\n      swap1\n      pop\n        /* \"#utility.yul\":17703:18069   */\n      swap2\n      swap1\n      pop\n      jump\t// out\n        /* \"#utility.yul\":18075:18494   */\n    tag_91:\n        /* \"#utility.yul\":18241:18245   */\n      0x00\n        /* \"#utility.yul\":18279:18281   */\n      0x20\n        /* \"#utility.yul\":18268:18277   */\n      dup3\n        /* \"#utility.yul\":18264:18282   */\n      add\n        /* \"#utility.yul\":18256:18282   */\n      swap1\n      pop\n        /* \"#utility.yul\":18328:18337   */\n      dup2\n        /* \"#utility.yul\":18322:18326   */\n      dup2\n        /* \"#utility.yul\":18318:18338   */\n      sub\n        /* \"#utility.yul\":18314:18315   */\n      0x00\n        /* \"#utility.yul\":18303:18312   */\n      dup4\n        /* \"#utility.yul\":18299:18316   */\n      add\n        /* \"#utility.yul\":18292:18339   */\n      mstore\n        /* \"#utility.yul\":18356:18487   */\n      tag_438\n        /* \"#utility.yul\":18482:18486   */\n      dup2\n        /* \"#utility.yul\":18356:18487   */\n      tag_233\n      jump\t// in\n    tag_438:\n        /* \"#utility.yul\":18348:18487   */\n      swap1\n      pop\n        /* \"#utility.yul\":18075:18494   */\n      swap2\n      swap1\n      pop\n      jump\t// out\n        /* \"#utility.yul\":18500:18678   */\n    tag_234:\n        /* \"#utility.yul\":18640:18670   */\n      0x43616e64696461746520616c7265616479207265676973746572656400000000\n        /* \"#utility.yul\":18636:18637   */\n      0x00\n        /* \"#utility.yul\":18628:18634   */\n      dup3\n        /* \"#utility.yul\":18624:18638   */\n      add\n        /* \"#utility.yul\":18617:18671   */\n      mstore\n        /* \"#utility.yul\":18500:18678   */\n      pop\n      jump\t// out\n        /* \"#utility.yul\":18684:19050   */\n    tag_235:\n        /* \"#utility.yul\":18826:18829   */\n      0x00\n        /* \"#utility.yul\":18847:18914   */\n      tag_441\n        /* \"#utility.yul\":18911:18913   */\n      0x1c\n        /* \"#utility.yul\":18906:18909   */\n      dup4\n        /* \"#utility.yul\":18847:18914   */\n      tag_208\n      jump\t// in\n    tag_441:\n        /* \"#utility.yul\":18840:18914   */\n      swap2\n      pop\n        /* \"#utility.yul\":18923:19016   */\n      tag_442\n        /* \"#utility.yul\":19012:19015   */\n      dup3\n        /* \"#utility.yul\":18923:19016   */\n      tag_234\n      jump\t// in\n    tag_442:\n        /* \"#utility.yul\":19041:19043   */\n      0x20\n        /* \"#utility.yul\":19036:19039   */\n      dup3\n        /* \"#utility.yul\":19032:19044   */\n      add\n        /* \"#utility.yul\":19025:19044   */\n      swap1\n      pop\n        /* \"#utility.yul\":18684:19050   */\n      swap2\n      swap1\n      pop\n      jump\t// out\n        /* \"#utility.yul\":19056:19475   */\n    tag_94:\n        /* \"#utility.yul\":19222:19226   */\n      0x00\n        /* \"#utility.yul\":19260:19262   */\n      0x20\n        /* \"#utility.yul\":19249:19258   */\n      dup3\n        /* \"#utility.yul\":19245:19263   */\n      add\n        /* \"#utility.yul\":19237:19263   */\n      swap1\n      pop\n        /* \"#utility.yul\":19309:19318   */\n      dup2\n        /* \"#utility.yul\":19303:19307   */\n      dup2\n        /* \"#utility.yul\":19299:19319   */\n      sub\n        /* \"#utility.yul\":19295:19296   */\n      0x00\n        /* \"#utility.yul\":19284:19293   */\n      dup4\n        /* \"#utility.yul\":19280:19297   */\n      add\n        /* \"#utility.yul\":19273:19320   */\n      mstore\n        /* \"#utility.yul\":19337:19468   */\n      tag_444\n        /* \"#utility.yul\":19463:19467   */\n      dup2\n        /* \"#utility.yul\":19337:19468   */\n      tag_235\n      jump\t// in\n    tag_444:\n        /* \"#utility.yul\":19329:19468   */\n      swap1\n      pop\n        /* \"#utility.yul\":19056:19475   */\n      swap2\n      swap1\n      pop\n      jump\t// out\n        /* \"#utility.yul\":19481:19661   */\n    tag_236:\n        /* \"#utility.yul\":19529:19606   */\n      0x4e487b7100000000000000000000000000000000000000000000000000000000\n        /* \"#utility.yul\":19526:19527   */\n      0x00\n        /* \"#utility.yul\":19519:19607   */\n      mstore\n        /* \"#utility.yul\":19626:19630   */\n      0x22\n        /* \"#utility.yul\":19623:19624   */\n      0x04\n        /* \"#utility.yul\":19616:19631   */\n      mstore\n        /* \"#utility.yul\":19650:19654   */\n      0x24\n        /* \"#utility.yul\":19647:19648   */\n      0x00\n        /* \"#utility.yul\":19640:19655   */\n      revert\n        /* \"#utility.yul\":19667:19987   */\n    tag_103:\n        /* \"#utility.yul\":19711:19717   */\n      0x00\n        /* \"#utility.yul\":19748:19749   */\n      0x02\n        /* \"#utility.yul\":19742:19746   */\n      dup3\n        /* \"#utility.yul\":19738:19750   */\n      div\n        /* \"#utility.yul\":19728:19750   */\n      swap1\n      pop\n        /* \"#utility.yul\":19795:19796   */\n      0x01\n        /* \"#utility.yul\":19789:19793   */\n      dup3\n        /* \"#utility.yul\":19785:19797   */\n      and\n        /* \"#utility.yul\":19816:19834   */\n      dup1\n        /* \"#utility.yul\":19806:19887   */\n      tag_447\n      jumpi\n        /* \"#utility.yul\":19872:19876   */\n      0x7f\n        /* \"#utility.yul\":19864:19870   */\n      dup3\n        /* \"#utility.yul\":19860:19877   */\n      and\n        /* \"#utility.yul\":19850:19877   */\n      swap2\n      pop\n        /* \"#utility.yul\":19806:19887   */\n    tag_447:\n        /* \"#utility.yul\":19934:19936   */\n      0x20\n        /* \"#utility.yul\":19926:19932   */\n      dup3\n        /* \"#utility.yul\":19923:19937   */\n      lt\n        /* \"#utility.yul\":19903:19921   */\n      dup2\n        /* \"#utility.yul\":19900:19938   */\n      sub\n        /* \"#utility.yul\":19897:19981   */\n      tag_448\n      jumpi\n        /* \"#utility.yul\":19953:19971   */\n      tag_449\n      tag_236\n      jump\t// in\n    tag_449:\n        /* \"#utility.yul\":19897:19981   */\n    tag_448:\n        /* \"#utility.yul\":19718:19987   */\n      pop\n        /* \"#utility.yul\":19667:19987   */\n      swap2\n      swap1\n      pop\n      jump\t// out\n        /* \"#utility.yul\":19993:20134   */\n    tag_237:\n        /* \"#utility.yul\":20042:20046   */\n      0x00\n        /* \"#utility.yul\":20065:20068   */\n      dup2\n        /* \"#utility.yul\":20057:20068   */\n      swap1\n      pop\n        /* \"#utility.yul\":20088:20091   */\n      dup2\n        /* \"#utility.yul\":20085:20086   */\n      0x00\n        /* \"#utility.yul\":20078:20092   */\n      mstore\n        /* \"#utility.yul\":20122:20126   */\n      0x20\n        /* \"#utility.yul\":20119:20120   */\n      0x00\n        /* \"#utility.yul\":20109:20127   */\n      keccak256\n        /* \"#utility.yul\":20101:20127   */\n      swap1\n      pop\n        /* \"#utility.yul\":19993:20134   */\n      swap2\n      swap1\n      pop\n      jump\t// out\n        /* \"#utility.yul\":20140:20233   */\n    tag_238:\n        /* \"#utility.yul\":20177:20183   */\n      0x00\n        /* \"#utility.yul\":20224:20226   */\n      0x20\n        /* \"#utility.yul\":20219:20221   */\n      0x1f\n        /* \"#utility.yul\":20212:20217   */\n      dup4\n        /* \"#utility.yul\":20208:20222   */\n      add\n        /* \"#utility.yul\":20204:20227   */\n      div\n        /* \"#utility.yul\":20194:20227   */\n      swap1\n      pop\n        /* \"#utility.yul\":20140:20233   */\n      swap2\n      swap1\n      pop\n      jump\t// out\n        /* \"#utility.yul\":20239:20346   */\n    tag_239:\n        /* \"#utility.yul\":20283:20291   */\n      0x00\n        /* \"#utility.yul\":20333:20338   */\n      dup3\n        /* \"#utility.yul\":20327:20331   */\n      dup3\n        /* \"#utility.yul\":20323:20339   */\n      shl\n        /* \"#utility.yul\":20302:20339   */\n      swap1\n      pop\n        /* \"#utility.yul\":20239:20346   */\n      swap3\n      swap2\n      pop\n      pop\n      jump\t// out\n        /* \"#utility.yul\":20352:20745   */\n    tag_240:\n        /* \"#utility.yul\":20421:20427   */\n      0x00\n        /* \"#utility.yul\":20471:20472   */\n      0x08\n        /* \"#utility.yul\":20459:20469   */\n      dup4\n        /* \"#utility.yul\":20455:20473   */\n      mul\n        /* \"#utility.yul\":20494:20591   */\n      tag_454\n        /* \"#utility.yul\":20524:20590   */\n      0xffffffffffffffffffffffffffffffffffffffffffffffffffffffffffffffff\n        /* \"#utility.yul\":20513:20522   */\n      dup3\n        /* \"#utility.yul\":20494:20591   */\n      tag_239\n      jump\t// in\n    tag_454:\n        /* \"#utility.yul\":20612:20651   */\n      tag_455\n        /* \"#utility.yul\":20642:20650   */\n      dup7\n        /* \"#utility.yul\":20631:20640   */\n      dup4\n        /* \"#utility.yul\":20612:20651   */\n      tag_239\n      jump\t// in\n    tag_455:\n        /* \"#utility.yul\":20600:20651   */\n      swap6\n      pop\n        /* \"#utility.yul\":20684:20688   */\n      dup1\n        /* \"#utility.yul\":20680:20689   */\n      not\n        /* \"#utility.yul\":20673:20678   */\n      dup5\n        /* \"#utility.yul\":20669:20690   */\n      and\n        /* \"#utility.yul\":20660:20690   */\n      swap4\n      pop\n        /* \"#utility.yul\":20733:20737   */\n      dup1\n        /* \"#utility.yul\":20723:20731   */\n      dup7\n        /* \"#utility.yul\":20719:20738   */\n      and\n        /* \"#utility.yul\":20712:20717   */\n      dup5\n        /* \"#utility.yul\":20709:20739   */\n      or\n        /* \"#utility.yul\":20699:20739   */\n      swap3\n      pop\n        /* \"#utility.yul\":20428:20745   */\n      pop\n      pop\n        /* \"#utility.yul\":20352:20745   */\n      swap4\n      swap3\n      pop\n      pop\n      pop\n      jump\t// out\n        /* \"#utility.yul\":20751:20811   */\n    tag_241:\n        /* \"#utility.yul\":20779:20782   */\n      0x00\n        /* \"#utility.yul\":20800:20805   */\n      dup2\n        /* \"#utility.yul\":20793:20805   */\n      swap1\n      pop\n        /* \"#utility.yul\":20751:20811   */\n      swap2\n      swap1\n      pop\n      jump\t// out\n        /* \"#utility.yul\":20817:20959   */\n    tag_242:\n        /* \"#utility.yul\":20867:20876   */\n      0x00\n        /* \"#utility.yul\":20900:20953   */\n      tag_458\n        /* \"#utility.yul\":20918:20952   */\n      tag_459\n        /* \"#utility.yul\":20927:20951   */\n      tag_460\n        /* \"#utility.yul\":20945:20950   */\n      dup5\n        /* \"#utility.yul\":20927:20951   */\n      tag_204\n      jump\t// in\n    tag_460:\n        /* \"#utility.yul\":20918:20952   */\n      tag_241\n      jump\t// in\n    tag_459:\n        /* \"#utility.yul\":20900:20953   */\n      tag_204\n      jump\t// in\n    tag_458:\n        /* \"#utility.yul\":20887:20953   */\n      swap1\n      pop\n        /* \"#utility.yul\":20817:20959   */\n      swap2\n      swap1\n      pop\n      jump\t// out\n        /* \"#utility.yul\":20965:21040   */\n    tag_243:\n        /* \"#utility.yul\":21008:21011   */\n      0x00\n        /* \"#utility.yul\":21029:21034   */\n      dup2\n        /* \"#utility.yul\":21022:21034   */\n      swap1\n      pop\n        /* \"#utility.yul\":20965:21040   */\n      swap2\n      swap1\n      pop\n      jump\t// out\n        /* \"#utility.yul\":21046:21315   */\n    tag_244:\n        /* \"#utility.yul\":21156:21195   */\n      tag_463\n        /* \"#utility.yul\":21187:21194   */\n      dup4\n        /* \"#utility.yul\":21156:21195   */\n      tag_242\n      jump\t// in\n    tag_463:\n        /* \"#utility.yul\":21217:21308   */\n      tag_464\n        /* \"#utility.yul\":21266:21307   */\n      tag_465\n        /* \"#utility.yul\":21290:21306   */\n      dup3\n        /* \"#utility.yul\":21266:21307   */\n      tag_243\n      jump\t// in\n    tag_465:\n        /* \"#utility.yul\":21258:21264   */\n      dup5\n        /* \"#utility.yul\":21251:21255   */\n      dup5\n        /* \"#utility.yul\":21245:21256   */\n      sload\n        /* \"#utility.yul\":21217:21308   */\n      tag_240\n      jump\t// in\n    tag_464:\n        /* \"#utility.yul\":21211:21215   */\n      dup3\n        /* \"#utility.yul\":21204:21309   */\n      sstore\n        /* \"#utility.yul\":21122:21315   */\n      pop\n        /* \"#utility.yul\":21046:21315   */\n      pop\n      pop\n      pop\n      jump\t// out\n        /* \"#utility.yul\":21321:21394   */\n    tag_245:\n        /* \"#utility.yul\":21366:21369   */\n      0x00\n        /* \"#utility.yul\":21321:21394   */\n      swap1\n      jump\t// out\n        /* \"#utility.yul\":21400:21589   */\n    tag_246:\n        /* \"#utility.yul\":21477:21509   */\n      tag_468\n      tag_245\n      jump\t// in\n    tag_468:\n        /* \"#utility.yul\":21518:21583   */\n      tag_469\n        /* \"#utility.yul\":21576:21582   */\n      dup2\n        /* \"#utility.yul\":21568:21574   */\n      dup5\n        /* \"#utility.yul\":21562:21566   */\n      dup5\n        /* \"#utility.yul\":21518:21583   */\n      tag_244\n      jump\t// in\n    tag_469:\n        /* \"#utility.yul\":21453:21589   */\n      pop\n        /* \"#utility.yul\":21400:21589   */\n      pop\n      pop\n      jump\t// out\n        /* \"#utility.yul\":21595:21781   */\n    tag_247:\n        /* \"#utility.yul\":21655:21775   */\n    tag_471:\n        /* \"#utility.yul\":21672:21675   */\n      dup2\n        /* \"#utility.yul\":21665:21670   */\n      dup2\n        /* \"#utility.yul\":21662:21676   */\n      lt\n        /* \"#utility.yul\":21655:21775   */\n      iszero\n      tag_473\n      jumpi\n        /* \"#utility.yul\":21726:21765   */\n      tag_474\n        /* \"#utility.yul\":21763:21764   */\n      0x00\n        /* \"#utility.yul\":21756:21761   */\n      dup3\n        /* \"#utility.yul\":21726:21765   */\n      tag_246\n      jump\t// in\n    tag_474:\n        /* \"#utility.yul\":21699:21700   */\n      0x01\n        /* \"#utility.yul\":21692:21697   */\n      dup2\n        /* \"#utility.yul\":21688:21701   */\n      add\n        /* \"#utility.yul\":21679:21701   */\n      swap1\n      pop\n        /* \"#utility.yul\":21655:21775   */\n      jump(tag_471)\n    tag_473:\n        /* \"#utility.yul\":21595:21781   */\n      pop\n      pop\n      jump\t// out\n        /* \"#utility.yul\":21787:22330   */\n    tag_248:\n        /* \"#utility.yul\":21888:21890   */\n      0x1f\n        /* \"#utility.yul\":21883:21886   */\n      dup3\n        /* \"#utility.yul\":21880:21891   */\n      gt\n        /* \"#utility.yul\":21877:22323   */\n      iszero\n      tag_476\n      jumpi\n        /* \"#utility.yul\":21922:21960   */\n      tag_477\n        /* \"#utility.yul\":21954:21959   */\n      dup2\n        /* \"#utility.yul\":21922:21960   */\n      tag_237\n      jump\t// in\n    tag_477:\n        /* \"#utility.yul\":22006:22035   */\n      tag_478\n        /* \"#utility.yul\":22024:22034   */\n      dup5\n        /* \"#utility.yul\":22006:22035   */\n      tag_238\n      jump\t// in\n    tag_478:\n        /* \"#utility.yul\":21996:22004   */\n      dup2\n        /* \"#utility.yul\":21992:22036   */\n      add\n        /* \"#utility.yul\":22189:22191   */\n      0x20\n        /* \"#utility.yul\":22177:22187   */\n      dup6\n        /* \"#utility.yul\":22174:22192   */\n      lt\n        /* \"#utility.yul\":22171:22220   */\n      iszero\n      tag_479\n      jumpi\n        /* \"#utility.yul\":22210:22218   */\n      dup2\n        /* \"#utility.yul\":22195:22218   */\n      swap1\n      pop\n        /* \"#utility.yul\":22171:22220   */\n    tag_479:\n        /* \"#utility.yul\":22233:22313   */\n      tag_480\n        /* \"#utility.yul\":22289:22311   */\n      tag_481\n        /* \"#utility.yul\":22307:22310   */\n      dup6\n        /* \"#utility.yul\":22289:22311   */\n      tag_238\n      jump\t// in\n    tag_481:\n        /* \"#utility.yul\":22279:22287   */\n      dup4\n        /* \"#utility.yul\":22275:22312   */\n      add\n        /* \"#utility.yul\":22262:22273   */\n      dup3\n        /* \"#utility.yul\":22233:22313   */\n      tag_247\n      jump\t// in\n    tag_480:\n        /* \"#utility.yul\":21892:22323   */\n      pop\n      pop\n        /* \"#utility.yul\":21877:22323   */\n    tag_476:\n        /* \"#utility.yul\":21787:22330   */\n      pop\n      pop\n      pop\n      jump\t// out\n        /* \"#utility.yul\":22336:22453   */\n    tag_249:\n        /* \"#utility.yul\":22390:22398   */\n      0x00\n        /* \"#utility.yul\":22440:22445   */\n      dup3\n        /* \"#utility.yul\":22434:22438   */\n      dup3\n        /* \"#utility.yul\":22430:22446   */\n      shr\n        /* \"#utility.yul\":22409:22446   */\n      swap1\n      pop\n        /* \"#utility.yul\":22336:22453   */\n      swap3\n      swap2\n      pop\n      pop\n      jump\t// out\n        /* \"#utility.yul\":22459:22628   */\n    tag_250:\n        /* \"#utility.yul\":22503:22509   */\n      0x00\n        /* \"#utility.yul\":22536:22587   */\n      tag_484\n        /* \"#utility.yul\":22584:22585   */\n      0x00\n        /* \"#utility.yul\":22580:22586   */\n      not\n        /* \"#utility.yul\":22572:22577   */\n      dup5\n        /* \"#utility.yul\":22569:22570   */\n      0x08\n        /* \"#utility.yul\":22565:22578   */\n      mul\n        /* \"#utility.yul\":22536:22587   */\n      tag_249\n      jump\t// in\n    tag_484:\n        /* \"#utility.yul\":22532:22588   */\n      not\n        /* \"#utility.yul\":22617:22621   */\n      dup1\n        /* \"#utility.yul\":22611:22615   */\n      dup4\n        /* \"#utility.yul\":22607:22622   */\n      and\n        /* \"#utility.yul\":22597:22622   */\n      swap2\n      pop\n        /* \"#utility.yul\":22510:22628   */\n      pop\n        /* \"#utility.yul\":22459:22628   */\n      swap3\n      swap2\n      pop\n      pop\n      jump\t// out\n        /* \"#utility.yul\":22633:22928   */\n    tag_251:\n        /* \"#utility.yul\":22709:22713   */\n      0x00\n        /* \"#utility.yul\":22855:22884   */\n      tag_486\n        /* \"#utility.yul\":22880:22883   */\n      dup4\n        /* \"#utility.yul\":22874:22878   */\n      dup4\n        /* \"#utility.yul\":22855:22884   */\n      tag_250\n      jump\t// in\n    tag_486:\n        /* \"#utility.yul\":22847:22884   */\n      swap2\n      pop\n        /* \"#utility.yul\":22917:22920   */\n      dup3\n        /* \"#utility.yul\":22914:22915   */\n      0x02\n        /* \"#utility.yul\":22910:22921   */\n      mul\n        /* \"#utility.yul\":22904:22908   */\n      dup3\n        /* \"#utility.yul\":22901:22922   */\n      or\n        /* \"#utility.yul\":22893:22922   */\n      swap1\n      pop\n        /* \"#utility.yul\":22633:22928   */\n      swap3\n      swap2\n      pop\n      pop\n      jump\t// out\n        /* \"#utility.yul\":22933:24328   */\n    tag_99:\n        /* \"#utility.yul\":23050:23087   */\n      tag_488\n        /* \"#utility.yul\":23083:23086   */\n      dup3\n        /* \"#utility.yul\":23050:23087   */\n      tag_207\n      jump\t// in\n    tag_488:\n        /* \"#utility.yul\":23152:23170   */\n      0xffffffffffffffff\n        /* \"#utility.yul\":23144:23150   */\n      dup2\n        /* \"#utility.yul\":23141:23171   */\n      gt\n        /* \"#utility.yul\":23138:23194   */\n      iszero\n      tag_489\n      jumpi\n        /* \"#utility.yul\":23174:23192   */\n      tag_490\n      tag_197\n      jump\t// in\n    tag_490:\n        /* \"#utility.yul\":23138:23194   */\n    tag_489:\n        /* \"#utility.yul\":23218:23256   */\n      tag_491\n        /* \"#utility.yul\":23250:23254   */\n      dup3\n        /* \"#utility.yul\":23244:23255   */\n      sload\n        /* \"#utility.yul\":23218:23256   */\n      tag_103\n      jump\t// in\n    tag_491:\n        /* \"#utility.yul\":23303:23370   */\n      tag_492\n        /* \"#utility.yul\":23363:23369   */\n      dup3\n        /* \"#utility.yul\":23355:23361   */\n      dup3\n        /* \"#utility.yul\":23349:23353   */\n      dup6\n        /* \"#utility.yul\":23303:23370   */\n      tag_248\n      jump\t// in\n    tag_492:\n        /* \"#utility.yul\":23397:23398   */\n      0x00\n        /* \"#utility.yul\":23421:23425   */\n      0x20\n        /* \"#utility.yul\":23408:23425   */\n      swap1\n      pop\n        /* \"#utility.yul\":23453:23455   */\n      0x1f\n        /* \"#utility.yul\":23445:23451   */\n      dup4\n        /* \"#utility.yul\":23442:23456   */\n      gt\n        /* \"#utility.yul\":23470:23471   */\n      0x01\n        /* \"#utility.yul\":23465:24083   */\n      dup2\n      eq\n      tag_494\n      jumpi\n        /* \"#utility.yul\":24127:24128   */\n      0x00\n        /* \"#utility.yul\":24144:24150   */\n      dup5\n        /* \"#utility.yul\":24141:24218   */\n      iszero\n      tag_495\n      jumpi\n        /* \"#utility.yul\":24193:24202   */\n      dup3\n        /* \"#utility.yul\":24188:24191   */\n      dup8\n        /* \"#utility.yul\":24184:24203   */\n      add\n        /* \"#utility.yul\":24178:24204   */\n      mload\n        /* \"#utility.yul\":24169:24204   */\n      swap1\n      pop\n        /* \"#utility.yul\":24141:24218   */\n    tag_495:\n        /* \"#utility.yul\":24244:24311   */\n      tag_496\n        /* \"#utility.yul\":24304:24310   */\n      dup6\n        /* \"#utility.yul\":24297:24302   */\n      dup3\n        /* \"#utility.yul\":24244:24311   */\n      tag_251\n      jump\t// in\n    tag_496:\n        /* \"#utility.yul\":24238:24242   */\n      dup7\n        /* \"#utility.yul\":24231:24312   */\n      sstore\n        /* \"#utility.yul\":24100:24322   */\n      pop\n        /* \"#utility.yul\":23435:24322   */\n      jump(tag_493)\n        /* \"#utility.yul\":23465:24083   */\n    tag_494:\n        /* \"#utility.yul\":23517:23521   */\n      0x1f\n        /* \"#utility.yul\":23513:23522   */\n      not\n        /* \"#utility.yul\":23505:23511   */\n      dup5\n        /* \"#utility.yul\":23501:23523   */\n      and\n        /* \"#utility.yul\":23551:23588   */\n      tag_497\n        /* \"#utility.yul\":23583:23587   */\n      dup7\n        /* \"#utility.yul\":23551:23588   */\n      tag_237\n      jump\t// in\n    tag_497:\n        /* \"#utility.yul\":23610:23611   */\n      0x00\n        /* \"#utility.yul\":23624:23832   */\n    tag_498:\n        /* \"#utility.yul\":23638:23645   */\n      dup3\n        /* \"#utility.yul\":23635:23636   */\n      dup2\n        /* \"#utility.yul\":23632:23646   */\n      lt\n        /* \"#utility.yul\":23624:23832   */\n      iszero\n      tag_500\n      jumpi\n        /* \"#utility.yul\":23717:23726   */\n      dup5\n        /* \"#utility.yul\":23712:23715   */\n      dup10\n        /* \"#utility.yul\":23708:23727   */\n      add\n        /* \"#utility.yul\":23702:23728   */\n      mload\n        /* \"#utility.yul\":23694:23700   */\n      dup3\n        /* \"#utility.yul\":23687:23729   */\n      sstore\n        /* \"#utility.yul\":23768:23769   */\n      0x01\n        /* \"#utility.yul\":23760:23766   */\n      dup3\n        /* \"#utility.yul\":23756:23770   */\n      add\n        /* \"#utility.yul\":23746:23770   */\n      swap2\n      pop\n        /* \"#utility.yul\":23815:23817   */\n      0x20\n        /* \"#utility.yul\":23804:23813   */\n      dup6\n        /* \"#utility.yul\":23800:23818   */\n      add\n        /* \"#utility.yul\":23787:23818   */\n      swap5\n      pop\n        /* \"#utility.yul\":23661:23665   */\n      0x20\n        /* \"#utility.yul\":23658:23659   */\n      dup2\n        /* \"#utility.yul\":23654:23666   */\n      add\n        /* \"#utility.yul\":23649:23666   */\n      swap1\n      pop\n        /* \"#utility.yul\":23624:23832   */\n      jump(tag_498)\n    tag_500:\n        /* \"#utility.yul\":23860:23866   */\n      dup7\n        /* \"#utility.yul\":23851:23858   */\n      dup4\n        /* \"#utility.yul\":23848:23867   */\n      lt\n        /* \"#utility.yul\":23845:24024   */\n      iszero\n      tag_501\n      jumpi\n        /* \"#utility.yul\":23918:23927   */\n      dup5\n        /* \"#utility.yul\":23913:23916   */\n      dup10\n        /* \"#utility.yul\":23909:23928   */\n      add\n        /* \"#utility.yul\":23903:23929   */\n      mload\n        /* \"#utility.yul\":23961:24009   */\n      tag_502\n        /* \"#utility.yul\":24003:24007   */\n      0x1f\n        /* \"#utility.yul\":23995:24001   */\n      dup10\n        /* \"#utility.yul\":23991:24008   */\n      and\n        /* \"#utility.yul\":23980:23989   */\n      dup3\n        /* \"#utility.yul\":23961:24009   */\n      tag_250\n      jump\t// in\n    tag_502:\n        /* \"#utility.yul\":23953:23959   */\n      dup4\n        /* \"#utility.yul\":23946:24010   */\n      sstore\n        /* \"#utility.yul\":23868:24024   */\n      pop\n        /* \"#utility.yul\":23845:24024   */\n    tag_501:\n        /* \"#utility.yul\":24070:24071   */\n      0x01\n        /* \"#utility.yul\":24066:24067   */\n      0x02\n        /* \"#utility.yul\":24058:24064   */\n      dup9\n        /* \"#utility.yul\":24054:24068   */\n      mul\n        /* \"#utility.yul\":24050:24072   */\n      add\n        /* \"#utility.yul\":24044:24048   */\n      dup9\n        /* \"#utility.yul\":24037:24073   */\n      sstore\n        /* \"#utility.yul\":23472:24083   */\n      pop\n      pop\n      pop\n        /* \"#utility.yul\":23435:24322   */\n    tag_493:\n      pop\n        /* \"#utility.yul\":23025:24328   */\n      pop\n      pop\n      pop\n        /* \"#utility.yul\":22933:24328   */\n      pop\n      pop\n      jump\t// out\n        /* \"#utility.yul\":24334:24506   */\n    tag_252:\n        /* \"#utility.yul\":24474:24498   */\n      0x43616e6469646174652072656769737465726564212100000000000000000000\n        /* \"#utility.yul\":24470:24471   */\n      0x00\n        /* \"#utility.yul\":24462:24468   */\n      dup3\n        /* \"#utility.yul\":24458:24472   */\n      add\n        /* \"#utility.yul\":24451:24499   */\n      mstore\n        /* \"#utility.yul\":24334:24506   */\n      pop\n      jump\t// out\n        /* \"#utility.yul\":24512:24878   */\n    tag_253:\n        /* \"#utility.yul\":24654:24657   */\n      0x00\n        /* \"#utility.yul\":24675:24742   */\n      tag_505\n        /* \"#utility.yul\":24739:24741   */\n      0x16\n        /* \"#utility.yul\":24734:24737   */\n      dup4\n        /* \"#utility.yul\":24675:24742   */\n      tag_208\n      jump\t// in\n    tag_505:\n        /* \"#utility.yul\":24668:24742   */\n      swap2\n      pop\n        /* \"#utility.yul\":24751:24844   */\n      tag_506\n        /* \"#utility.yul\":24840:24843   */\n      dup3\n        /* \"#utility.yul\":24751:24844   */\n      tag_252\n      jump\t// in\n    tag_506:\n        /* \"#utility.yul\":24869:24871   */\n      0x20\n        /* \"#utility.yul\":24864:24867   */\n      dup3\n        /* \"#utility.yul\":24860:24872   */\n      add\n        /* \"#utility.yul\":24853:24872   */\n      swap1\n      pop\n        /* \"#utility.yul\":24512:24878   */\n      swap2\n      swap1\n      pop\n      jump\t// out\n        /* \"#utility.yul\":24884:25303   */\n    tag_101:\n        /* \"#utility.yul\":25050:25054   */\n      0x00\n        /* \"#utility.yul\":25088:25090   */\n      0x20\n        /* \"#utility.yul\":25077:25086   */\n      dup3\n        /* \"#utility.yul\":25073:25091   */\n      add\n        /* \"#utility.yul\":25065:25091   */\n      swap1\n      pop\n        /* \"#utility.yul\":25137:25146   */\n      dup2\n        /* \"#utility.yul\":25131:25135   */\n      dup2\n        /* \"#utility.yul\":25127:25147   */\n      sub\n        /* \"#utility.yul\":25123:25124   */\n      0x00\n        /* \"#utility.yul\":25112:25121   */\n      dup4\n        /* \"#utility.yul\":25108:25125   */\n      add\n        /* \"#utility.yul\":25101:25148   */\n      mstore\n        /* \"#utility.yul\":25165:25296   */\n      tag_508\n        /* \"#utility.yul\":25291:25295   */\n      dup2\n        /* \"#utility.yul\":25165:25296   */\n      tag_253\n      jump\t// in\n    tag_508:\n        /* \"#utility.yul\":25157:25296   */\n      swap1\n      pop\n        /* \"#utility.yul\":24884:25303   */\n      swap2\n      swap1\n      pop\n      jump\t// out\n        /* \"#utility.yul\":25309:25529   */\n    tag_254:\n        /* \"#utility.yul\":25449:25483   */\n      0x566f74696e67206e6f74207374617274656420796574206f7220656e64656421\n        /* \"#utility.yul\":25445:25446   */\n      0x00\n        /* \"#utility.yul\":25437:25443   */\n      dup3\n        /* \"#utility.yul\":25433:25447   */\n      add\n        /* \"#utility.yul\":25426:25484   */\n      mstore\n        /* \"#utility.yul\":25518:25521   */\n      0x2100000000000000000000000000000000000000000000000000000000000000\n        /* \"#utility.yul\":25513:25515   */\n      0x20\n        /* \"#utility.yul\":25505:25511   */\n      dup3\n        /* \"#utility.yul\":25501:25516   */\n      add\n        /* \"#utility.yul\":25494:25522   */\n      mstore\n        /* \"#utility.yul\":25309:25529   */\n      pop\n      jump\t// out\n        /* \"#utility.yul\":25535:25901   */\n    tag_255:\n        /* \"#utility.yul\":25677:25680   */\n      0x00\n        /* \"#utility.yul\":25698:25765   */\n      tag_511\n        /* \"#utility.yul\":25762:25764   */\n      0x21\n        /* \"#utility.yul\":25757:25760   */\n      dup4\n        /* \"#utility.yul\":25698:25765   */\n      tag_208\n      jump\t// in\n    tag_511:\n        /* \"#utility.yul\":25691:25765   */\n      swap2\n      pop\n        /* \"#utility.yul\":25774:25867   */\n      tag_512\n        /* \"#utility.yul\":25863:25866   */\n      dup3\n        /* \"#utility.yul\":25774:25867   */\n      tag_254\n      jump\t// in\n    tag_512:\n        /* \"#utility.yul\":25892:25894   */\n      0x40\n        /* \"#utility.yul\":25887:25890   */\n      dup3\n        /* \"#utility.yul\":25883:25895   */\n      add\n        /* \"#utility.yul\":25876:25895   */\n      swap1\n      pop\n        /* \"#utility.yul\":25535:25901   */\n      swap2\n      swap1\n      pop\n      jump\t// out\n        /* \"#utility.yul\":25907:26326   */\n    tag_111:\n        /* \"#utility.yul\":26073:26077   */\n      0x00\n        /* \"#utility.yul\":26111:26113   */\n      0x20\n        /* \"#utility.yul\":26100:26109   */\n      dup3\n        /* \"#utility.yul\":26096:26114   */\n      add\n        /* \"#utility.yul\":26088:26114   */\n      swap1\n      pop\n        /* \"#utility.yul\":26160:26169   */\n      dup2\n        /* \"#utility.yul\":26154:26158   */\n      dup2\n        /* \"#utility.yul\":26150:26170   */\n      sub\n        /* \"#utility.yul\":26146:26147   */\n      0x00\n        /* \"#utility.yul\":26135:26144   */\n      dup4\n        /* \"#utility.yul\":26131:26148   */\n      add\n        /* \"#utility.yul\":26124:26171   */\n      mstore\n        /* \"#utility.yul\":26188:26319   */\n      tag_514\n        /* \"#utility.yul\":26314:26318   */\n      dup2\n        /* \"#utility.yul\":26188:26319   */\n      tag_255\n      jump\t// in\n    tag_514:\n        /* \"#utility.yul\":26180:26319   */\n      swap1\n      pop\n        /* \"#utility.yul\":25907:26326   */\n      swap2\n      swap1\n      pop\n      jump\t// out\n        /* \"#utility.yul\":26332:26502   */\n    tag_256:\n        /* \"#utility.yul\":26472:26494   */\n      0x4f776e65722063616e206e6f7420766f74652121000000000000000000000000\n        /* \"#utility.yul\":26468:26469   */\n      0x00\n        /* \"#utility.yul\":26460:26466   */\n      dup3\n        /* \"#utility.yul\":26456:26470   */\n      add\n        /* \"#utility.yul\":26449:26495   */\n      mstore\n        /* \"#utility.yul\":26332:26502   */\n      pop\n      jump\t// out\n        /* \"#utility.yul\":26508:26874   */\n    tag_257:\n        /* \"#utility.yul\":26650:26653   */\n      0x00\n        /* \"#utility.yul\":26671:26738   */\n      tag_517\n        /* \"#utility.yul\":26735:26737   */\n      0x14\n        /* \"#utility.yul\":26730:26733   */\n      dup4\n        /* \"#utility.yul\":26671:26738   */\n      tag_208\n      jump\t// in\n    tag_517:\n        /* \"#utility.yul\":26664:26738   */\n      swap2\n      pop\n        /* \"#utility.yul\":26747:26840   */\n      tag_518\n        /* \"#utility.yul\":26836:26839   */\n      dup3\n        /* \"#utility.yul\":26747:26840   */\n      tag_256\n      jump\t// in\n    tag_518:\n        /* \"#utility.yul\":26865:26867   */\n      0x20\n        /* \"#utility.yul\":26860:26863   */\n      dup3\n        /* \"#utility.yul\":26856:26868   */\n      add\n        /* \"#utility.yul\":26849:26868   */\n      swap1\n      pop\n        /* \"#utility.yul\":26508:26874   */\n      swap2\n      swap1\n      pop\n      jump\t// out\n        /* \"#utility.yul\":26880:27299   */\n    tag_114:\n        /* \"#utility.yul\":27046:27050   */\n      0x00\n        /* \"#utility.yul\":27084:27086   */\n      0x20\n        /* \"#utility.yul\":27073:27082   */\n      dup3\n        /* \"#utility.yul\":27069:27087   */\n      add\n        /* \"#utility.yul\":27061:27087   */\n      swap1\n      pop\n        /* \"#utility.yul\":27133:27142   */\n      dup2\n        /* \"#utility.yul\":27127:27131   */\n      dup2\n        /* \"#utility.yul\":27123:27143   */\n      sub\n        /* \"#utility.yul\":27119:27120   */\n      0x00\n        /* \"#utility.yul\":27108:27117   */\n      dup4\n        /* \"#utility.yul\":27104:27121   */\n      add\n        /* \"#utility.yul\":27097:27144   */\n      mstore\n        /* \"#utility.yul\":27161:27292   */\n      tag_520\n        /* \"#utility.yul\":27287:27291   */\n      dup2\n        /* \"#utility.yul\":27161:27292   */\n      tag_257\n      jump\t// in\n    tag_520:\n        /* \"#utility.yul\":27153:27292   */\n      swap1\n      pop\n        /* \"#utility.yul\":26880:27299   */\n      swap2\n      swap1\n      pop\n      jump\t// out\n        /* \"#utility.yul\":27305:27477   */\n    tag_258:\n        /* \"#utility.yul\":27445:27469   */\n      0x566f746572206e6f742072656769737465726564212100000000000000000000\n        /* \"#utility.yul\":27441:27442   */\n      0x00\n        /* \"#utility.yul\":27433:27439   */\n      dup3\n        /* \"#utility.yul\":27429:27443   */\n      add\n        /* \"#utility.yul\":27422:27470   */\n      mstore\n        /* \"#utility.yul\":27305:27477   */\n      pop\n      jump\t// out\n        /* \"#utility.yul\":27483:27849   */\n    tag_259:\n        /* \"#utility.yul\":27625:27628   */\n      0x00\n        /* \"#utility.yul\":27646:27713   */\n      tag_523\n        /* \"#utility.yul\":27710:27712   */\n      0x16\n        /* \"#utility.yul\":27705:27708   */\n      dup4\n        /* \"#utility.yul\":27646:27713   */\n      tag_208\n      jump\t// in\n    tag_523:\n        /* \"#utility.yul\":27639:27713   */\n      swap2\n      pop\n        /* \"#utility.yul\":27722:27815   */\n      tag_524\n        /* \"#utility.yul\":27811:27814   */\n      dup3\n        /* \"#utility.yul\":27722:27815   */\n      tag_258\n      jump\t// in\n    tag_524:\n        /* \"#utility.yul\":27840:27842   */\n      0x20\n        /* \"#utility.yul\":27835:27838   */\n      dup3\n        /* \"#utility.yul\":27831:27843   */\n      add\n        /* \"#utility.yul\":27824:27843   */\n      swap1\n      pop\n        /* \"#utility.yul\":27483:27849   */\n      swap2\n      swap1\n      pop\n      jump\t// out\n        /* \"#utility.yul\":27855:28274   */\n    tag_117:\n        /* \"#utility.yul\":28021:28025   */\n      0x00\n        /* \"#utility.yul\":28059:28061   */\n      0x20\n        /* \"#utility.yul\":28048:28057   */\n      dup3\n        /* \"#utility.yul\":28044:28062   */\n      add\n        /* \"#utility.yul\":28036:28062   */\n      swap1\n      pop\n        /* \"#utility.yul\":28108:28117   */\n      dup2\n        /* \"#utility.yul\":28102:28106   */\n      dup2\n        /* \"#utility.yul\":28098:28118   */\n      sub\n        /* \"#utility.yul\":28094:28095   */\n      0x00\n        /* \"#utility.yul\":28083:28092   */\n      dup4\n        /* \"#utility.yul\":28079:28096   */\n      add\n        /* \"#utility.yul\":28072:28119   */\n      mstore\n        /* \"#utility.yul\":28136:28267   */\n      tag_526\n        /* \"#utility.yul\":28262:28266   */\n      dup2\n        /* \"#utility.yul\":28136:28267   */\n      tag_259\n      jump\t// in\n    tag_526:\n        /* \"#utility.yul\":28128:28267   */\n      swap1\n      pop\n        /* \"#utility.yul\":27855:28274   */\n      swap2\n      swap1\n      pop\n      jump\t// out\n        /* \"#utility.yul\":28280:28445   */\n    tag_260:\n        /* \"#utility.yul\":28420:28437   */\n      0x416c726561647920766f74656421210000000000000000000000000000000000\n        /* \"#utility.yul\":28416:28417   */\n      0x00\n        /* \"#utility.yul\":28408:28414   */\n      dup3\n        /* \"#utility.yul\":28404:28418   */\n      add\n        /* \"#utility.yul\":28397:28438   */\n      mstore\n        /* \"#utility.yul\":28280:28445   */\n      pop\n      jump\t// out\n        /* \"#utility.yul\":28451:28817   */\n    tag_261:\n        /* \"#utility.yul\":28593:28596   */\n      0x00\n        /* \"#utility.yul\":28614:28681   */\n      tag_529\n        /* \"#utility.yul\":28678:28680   */\n      0x0f\n        /* \"#utility.yul\":28673:28676   */\n      dup4\n        /* \"#utility.yul\":28614:28681   */\n      tag_208\n      jump\t// in\n    tag_529:\n        /* \"#utility.yul\":28607:28681   */\n      swap2\n      pop\n        /* \"#utility.yul\":28690:28783   */\n      tag_530\n        /* \"#utility.yul\":28779:28782   */\n      dup3\n        /* \"#utility.yul\":28690:28783   */\n      tag_260\n      jump\t// in\n    tag_530:\n        /* \"#utility.yul\":28808:28810   */\n      0x20\n        /* \"#utility.yul\":28803:28806   */\n      dup3\n        /* \"#utility.yul\":28799:28811   */\n      add\n        /* \"#utility.yul\":28792:28811   */\n      swap1\n      pop\n        /* \"#utility.yul\":28451:28817   */\n      swap2\n      swap1\n      pop\n      jump\t// out\n        /* \"#utility.yul\":28823:29242   */\n    tag_120:\n        /* \"#utility.yul\":28989:28993   */\n      0x00\n        /* \"#utility.yul\":29027:29029   */\n      0x20\n        /* \"#utility.yul\":29016:29025   */\n      dup3\n        /* \"#utility.yul\":29012:29030   */\n      add\n        /* \"#utility.yul\":29004:29030   */\n      swap1\n      pop\n        /* \"#utility.yul\":29076:29085   */\n      dup2\n        /* \"#utility.yul\":29070:29074   */\n      dup2\n        /* \"#utility.yul\":29066:29086   */\n      sub\n        /* \"#utility.yul\":29062:29063   */\n      0x00\n        /* \"#utility.yul\":29051:29060   */\n      dup4\n        /* \"#utility.yul\":29047:29064   */\n      add\n        /* \"#utility.yul\":29040:29087   */\n      mstore\n        /* \"#utility.yul\":29104:29235   */\n      tag_532\n        /* \"#utility.yul\":29230:29234   */\n      dup2\n        /* \"#utility.yul\":29104:29235   */\n      tag_261\n      jump\t// in\n    tag_532:\n        /* \"#utility.yul\":29096:29235   */\n      swap1\n      pop\n        /* \"#utility.yul\":28823:29242   */\n      swap2\n      swap1\n      pop\n      jump\t// out\n        /* \"#utility.yul\":29248:29428   */\n    tag_123:\n        /* \"#utility.yul\":29296:29373   */\n      0x4e487b7100000000000000000000000000000000000000000000000000000000\n        /* \"#utility.yul\":29293:29294   */\n      0x00\n        /* \"#utility.yul\":29286:29374   */\n      mstore\n        /* \"#utility.yul\":29393:29397   */\n      0x32\n        /* \"#utility.yul\":29390:29391   */\n      0x04\n        /* \"#utility.yul\":29383:29398   */\n      mstore\n        /* \"#utility.yul\":29417:29421   */\n      0x24\n        /* \"#utility.yul\":29414:29415   */\n      0x00\n        /* \"#utility.yul\":29407:29422   */\n      revert\n        /* \"#utility.yul\":29434:29608   */\n    tag_262:\n        /* \"#utility.yul\":29574:29600   */\n      0x43616e646964617465206e6f7420726567697374657265640000000000000000\n        /* \"#utility.yul\":29570:29571   */\n      0x00\n        /* \"#utility.yul\":29562:29568   */\n      dup3\n        /* \"#utility.yul\":29558:29572   */\n      add\n        /* \"#utility.yul\":29551:29601   */\n      mstore\n        /* \"#utility.yul\":29434:29608   */\n      pop\n      jump\t// out\n        /* \"#utility.yul\":29614:29980   */\n    tag_263:\n        /* \"#utility.yul\":29756:29759   */\n      0x00\n        /* \"#utility.yul\":29777:29844   */\n      tag_536\n        /* \"#utility.yul\":29841:29843   */\n      0x18\n        /* \"#utility.yul\":29836:29839   */\n      dup4\n        /* \"#utility.yul\":29777:29844   */\n      tag_208\n      jump\t// in\n    tag_536:\n        /* \"#utility.yul\":29770:29844   */\n      swap2\n      pop\n        /* \"#utility.yul\":29853:29946   */\n      tag_537\n        /* \"#utility.yul\":29942:29945   */\n      dup3\n        /* \"#utility.yul\":29853:29946   */\n      tag_262\n      jump\t// in\n    tag_537:\n        /* \"#utility.yul\":29971:29973   */\n      0x20\n        /* \"#utility.yul\":29966:29969   */\n      dup3\n        /* \"#utility.yul\":29962:29974   */\n      add\n        /* \"#utility.yul\":29955:29974   */\n      swap1\n      pop\n        /* \"#utility.yul\":29614:29980   */\n      swap2\n      swap1\n      pop\n      jump\t// out\n        /* \"#utility.yul\":29986:30405   */\n    tag_127:\n        /* \"#utility.yul\":30152:30156   */\n      0x00\n        /* \"#utility.yul\":30190:30192   */\n      0x20\n        /* \"#utility.yul\":30179:30188   */\n      dup3\n        /* \"#utility.yul\":30175:30193   */\n      add\n        /* \"#utility.yul\":30167:30193   */\n      swap1\n      pop\n        /* \"#utility.yul\":30239:30248   */\n      dup2\n        /* \"#utility.yul\":30233:30237   */\n      dup2\n        /* \"#utility.yul\":30229:30249   */\n      sub\n        /* \"#utility.yul\":30225:30226   */\n      0x00\n        /* \"#utility.yul\":30214:30223   */\n      dup4\n        /* \"#utility.yul\":30210:30227   */\n      add\n        /* \"#utility.yul\":30203:30250   */\n      mstore\n        /* \"#utility.yul\":30267:30398   */\n      tag_539\n        /* \"#utility.yul\":30393:30397   */\n      dup2\n        /* \"#utility.yul\":30267:30398   */\n      tag_263\n      jump\t// in\n    tag_539:\n        /* \"#utility.yul\":30259:30398   */\n      swap1\n      pop\n        /* \"#utility.yul\":29986:30405   */\n      swap2\n      swap1\n      pop\n      jump\t// out\n        /* \"#utility.yul\":30411:30591   */\n    tag_264:\n        /* \"#utility.yul\":30459:30536   */\n      0x4e487b7100000000000000000000000000000000000000000000000000000000\n        /* \"#utility.yul\":30456:30457   */\n      0x00\n        /* \"#utility.yul\":30449:30537   */\n      mstore\n        /* \"#utility.yul\":30556:30560   */\n      0x11\n        /* \"#utility.yul\":30553:30554   */\n      0x04\n        /* \"#utility.yul\":30546:30561   */\n      mstore\n        /* \"#utility.yul\":30580:30584   */\n      0x24\n        /* \"#utility.yul\":30577:30578   */\n      0x00\n        /* \"#utility.yul\":30570:30585   */\n      revert\n        /* \"#utility.yul\":30597:30830   */\n    tag_132:\n        /* \"#utility.yul\":30636:30639   */\n      0x00\n        /* \"#utility.yul\":30659:30683   */\n      tag_542\n        /* \"#utility.yul\":30677:30682   */\n      dup3\n        /* \"#utility.yul\":30659:30683   */\n      tag_204\n      jump\t// in\n    tag_542:\n        /* \"#utility.yul\":30650:30683   */\n      swap2\n      pop\n        /* \"#utility.yul\":30705:30771   */\n      0xffffffffffffffffffffffffffffffffffffffffffffffffffffffffffffffff\n        /* \"#utility.yul\":30698:30703   */\n      dup3\n        /* \"#utility.yul\":30695:30772   */\n      sub\n        /* \"#utility.yul\":30692:30795   */\n      tag_543\n      jumpi\n        /* \"#utility.yul\":30775:30793   */\n      tag_544\n      tag_264\n      jump\t// in\n    tag_544:\n        /* \"#utility.yul\":30692:30795   */\n    tag_543:\n        /* \"#utility.yul\":30822:30823   */\n      0x01\n        /* \"#utility.yul\":30815:30820   */\n      dup3\n        /* \"#utility.yul\":30811:30824   */\n      add\n        /* \"#utility.yul\":30804:30824   */\n      swap1\n      pop\n        /* \"#utility.yul\":30597:30830   */\n      swap2\n      swap1\n      pop\n      jump\t// out\n        /* \"#utility.yul\":30836:30994   */\n    tag_265:\n        /* \"#utility.yul\":30976:30986   */\n      0x566f746564202121000000000000000000000000000000000000000000000000\n        /* \"#utility.yul\":30972:30973   */\n      0x00\n        /* \"#utility.yul\":30964:30970   */\n      dup3\n        /* \"#utility.yul\":30960:30974   */\n      add\n        /* \"#utility.yul\":30953:30987   */\n      mstore\n        /* \"#utility.yul\":30836:30994   */\n      pop\n      jump\t// out\n        /* \"#utility.yul\":31000:31365   */\n    tag_266:\n        /* \"#utility.yul\":31142:31145   */\n      0x00\n        /* \"#utility.yul\":31163:31229   */\n      tag_547\n        /* \"#utility.yul\":31227:31228   */\n      0x08\n        /* \"#utility.yul\":31222:31225   */\n      dup4\n        /* \"#utility.yul\":31163:31229   */\n      tag_208\n      jump\t// in\n    tag_547:\n        /* \"#utility.yul\":31156:31229   */\n      swap2\n      pop\n        /* \"#utility.yul\":31238:31331   */\n      tag_548\n        /* \"#utility.yul\":31327:31330   */\n      dup3\n        /* \"#utility.yul\":31238:31331   */\n      tag_265\n      jump\t// in\n    tag_548:\n        /* \"#utility.yul\":31356:31358   */\n      0x20\n        /* \"#utility.yul\":31351:31354   */\n      dup3\n        /* \"#utility.yul\":31347:31359   */\n      add\n        /* \"#utility.yul\":31340:31359   */\n      swap1\n      pop\n        /* \"#utility.yul\":31000:31365   */\n      swap2\n      swap1\n      pop\n      jump\t// out\n        /* \"#utility.yul\":31371:31790   */\n    tag_138:\n        /* \"#utility.yul\":31537:31541   */\n      0x00\n        /* \"#utility.yul\":31575:31577   */\n      0x20\n        /* \"#utility.yul\":31564:31573   */\n      dup3\n        /* \"#utility.yul\":31560:31578   */\n      add\n        /* \"#utility.yul\":31552:31578   */\n      swap1\n      pop\n        /* \"#utility.yul\":31624:31633   */\n      dup2\n        /* \"#utility.yul\":31618:31622   */\n      dup2\n        /* \"#utility.yul\":31614:31634   */\n      sub\n        /* \"#utility.yul\":31610:31611   */\n      0x00\n        /* \"#utility.yul\":31599:31608   */\n      dup4\n        /* \"#utility.yul\":31595:31612   */\n      add\n        /* \"#utility.yul\":31588:31635   */\n      mstore\n        /* \"#utility.yul\":31652:31783   */\n      tag_550\n        /* \"#utility.yul\":31778:31782   */\n      dup2\n        /* \"#utility.yul\":31652:31783   */\n      tag_266\n      jump\t// in\n    tag_550:\n        /* \"#utility.yul\":31644:31783   */\n      swap1\n      pop\n        /* \"#utility.yul\":31371:31790   */\n      swap2\n      swap1\n      pop\n      jump\t// out\n        /* \"#utility.yul\":31796:31977   */\n    tag_267:\n        /* \"#utility.yul\":31936:31969   */\n      0x4f6e6c79206f776e65722063616e206465636c6172652077696e6e6572212100\n        /* \"#utility.yul\":31932:31933   */\n      0x00\n        /* \"#utility.yul\":31924:31930   */\n      dup3\n        /* \"#utility.yul\":31920:31934   */\n      add\n        /* \"#utility.yul\":31913:31970   */\n      mstore\n        /* \"#utility.yul\":31796:31977   */\n      pop\n      jump\t// out\n        /* \"#utility.yul\":31983:32349   */\n    tag_268:\n        /* \"#utility.yul\":32125:32128   */\n      0x00\n        /* \"#utility.yul\":32146:32213   */\n      tag_553\n        /* \"#utility.yul\":32210:32212   */\n      0x1f\n        /* \"#utility.yul\":32205:32208   */\n      dup4\n        /* \"#utility.yul\":32146:32213   */\n      tag_208\n      jump\t// in\n    tag_553:\n        /* \"#utility.yul\":32139:32213   */\n      swap2\n      pop\n        /* \"#utility.yul\":32222:32315   */\n      tag_554\n        /* \"#utility.yul\":32311:32314   */\n      dup3\n        /* \"#utility.yul\":32222:32315   */\n      tag_267\n      jump\t// in\n    tag_554:\n        /* \"#utility.yul\":32340:32342   */\n      0x20\n        /* \"#utility.yul\":32335:32338   */\n      dup3\n        /* \"#utility.yul\":32331:32343   */\n      add\n        /* \"#utility.yul\":32324:32343   */\n      swap1\n      pop\n        /* \"#utility.yul\":31983:32349   */\n      swap2\n      swap1\n      pop\n      jump\t// out\n        /* \"#utility.yul\":32355:32774   */\n    tag_144:\n        /* \"#utility.yul\":32521:32525   */\n      0x00\n        /* \"#utility.yul\":32559:32561   */\n      0x20\n        /* \"#utility.yul\":32548:32557   */\n      dup3\n        /* \"#utility.yul\":32544:32562   */\n      add\n        /* \"#utility.yul\":32536:32562   */\n      swap1\n      pop\n        /* \"#utility.yul\":32608:32617   */\n      dup2\n        /* \"#utility.yul\":32602:32606   */\n      dup2\n        /* \"#utility.yul\":32598:32618   */\n      sub\n        /* \"#utility.yul\":32594:32595   */\n      0x00\n        /* \"#utility.yul\":32583:32592   */\n      dup4\n        /* \"#utility.yul\":32579:32596   */\n      add\n        /* \"#utility.yul\":32572:32619   */\n      mstore\n        /* \"#utility.yul\":32636:32767   */\n      tag_556\n        /* \"#utility.yul\":32762:32766   */\n      dup2\n        /* \"#utility.yul\":32636:32767   */\n      tag_268\n      jump\t// in\n    tag_556:\n        /* \"#utility.yul\":32628:32767   */\n      swap1\n      pop\n        /* \"#utility.yul\":32355:32774   */\n      swap2\n      swap1\n      pop\n      jump\t// out\n        /* \"#utility.yul\":32780:33007   */\n    tag_269:\n        /* \"#utility.yul\":32920:32954   */\n      0x4f6e6c79206f776e65722063616e2077686974656c6973742074686520616464\n        /* \"#utility.yul\":32916:32917   */\n      0x00\n        /* \"#utility.yul\":32908:32914   */\n      dup3\n        /* \"#utility.yul\":32904:32918   */\n      add\n        /* \"#utility.yul\":32897:32955   */\n      mstore\n        /* \"#utility.yul\":32989:32999   */\n      0x7265737365732121000000000000000000000000000000000000000000000000\n        /* \"#utility.yul\":32984:32986   */\n      0x20\n        /* \"#utility.yul\":32976:32982   */\n      dup3\n        /* \"#utility.yul\":32972:32987   */\n      add\n        /* \"#utility.yul\":32965:33000   */\n      mstore\n        /* \"#utility.yul\":32780:33007   */\n      pop\n      jump\t// out\n        /* \"#utility.yul\":33013:33379   */\n    tag_270:\n        /* \"#utility.yul\":33155:33158   */\n      0x00\n        /* \"#utility.yul\":33176:33243   */\n      tag_559\n        /* \"#utility.yul\":33240:33242   */\n      0x28\n        /* \"#utility.yul\":33235:33238   */\n      dup4\n        /* \"#utility.yul\":33176:33243   */\n      tag_208\n      jump\t// in\n    tag_559:\n        /* \"#utility.yul\":33169:33243   */\n      swap2\n      pop\n        /* \"#utility.yul\":33252:33345   */\n      tag_560\n        /* \"#utility.yul\":33341:33344   */\n      dup3\n        /* \"#utility.yul\":33252:33345   */\n      tag_269\n      jump\t// in\n    tag_560:\n        /* \"#utility.yul\":33370:33372   */\n      0x40\n        /* \"#utility.yul\":33365:33368   */\n      dup3\n        /* \"#utility.yul\":33361:33373   */\n      add\n        /* \"#utility.yul\":33354:33373   */\n      swap1\n      pop\n        /* \"#utility.yul\":33013:33379   */\n      swap2\n      swap1\n      pop\n      jump\t// out\n        /* \"#utility.yul\":33385:33804   */\n    tag_165:\n        /* \"#utility.yul\":33551:33555   */\n      0x00\n        /* \"#utility.yul\":33589:33591   */\n      0x20\n        /* \"#utility.yul\":33578:33587   */\n      dup3\n        /* \"#utility.yul\":33574:33592   */\n      add\n        /* \"#utility.yul\":33566:33592   */\n      swap1\n      pop\n        /* \"#utility.yul\":33638:33647   */\n      dup2\n        /* \"#utility.yul\":33632:33636   */\n      dup2\n        /* \"#utility.yul\":33628:33648   */\n      sub\n        /* \"#utility.yul\":33624:33625   */\n      0x00\n        /* \"#utility.yul\":33613:33622   */\n      dup4\n        /* \"#utility.yul\":33609:33626   */\n      add\n        /* \"#utility.yul\":33602:33649   */\n      mstore\n        /* \"#utility.yul\":33666:33797   */\n      tag_562\n        /* \"#utility.yul\":33792:33796   */\n      dup2\n        /* \"#utility.yul\":33666:33797   */\n      tag_270\n      jump\t// in\n    tag_562:\n        /* \"#utility.yul\":33658:33797   */\n      swap1\n      pop\n        /* \"#utility.yul\":33385:33804   */\n      swap2\n      swap1\n      pop\n      jump\t// out\n        /* \"#utility.yul\":33810:33986   */\n    tag_271:\n        /* \"#utility.yul\":33950:33978   */\n      0x566f74657220616c726561647920726567697374657265642121000000000000\n        /* \"#utility.yul\":33946:33947   */\n      0x00\n        /* \"#utility.yul\":33938:33944   */\n      dup3\n        /* \"#utility.yul\":33934:33948   */\n      add\n        /* \"#utility.yul\":33927:33979   */\n      mstore\n        /* \"#utility.yul\":33810:33986   */\n      pop\n      jump\t// out\n        /* \"#utility.yul\":33992:34358   */\n    tag_272:\n        /* \"#utility.yul\":34134:34137   */\n      0x00\n        /* \"#utility.yul\":34155:34222   */\n      tag_565\n        /* \"#utility.yul\":34219:34221   */\n      0x1a\n        /* \"#utility.yul\":34214:34217   */\n      dup4\n        /* \"#utility.yul\":34155:34222   */\n      tag_208\n      jump\t// in\n    tag_565:\n        /* \"#utility.yul\":34148:34222   */\n      swap2\n      pop\n        /* \"#utility.yul\":34231:34324   */\n      tag_566\n        /* \"#utility.yul\":34320:34323   */\n      dup3\n        /* \"#utility.yul\":34231:34324   */\n      tag_271\n      jump\t// in\n    tag_566:\n        /* \"#utility.yul\":34349:34351   */\n      0x20\n        /* \"#utility.yul\":34344:34347   */\n      dup3\n        /* \"#utility.yul\":34340:34352   */\n      add\n        /* \"#utility.yul\":34333:34352   */\n      swap1\n      pop\n        /* \"#utility.yul\":33992:34358   */\n      swap2\n      swap1\n      pop\n      jump\t// out\n        /* \"#utility.yul\":34364:34783   */\n    tag_168:\n        /* \"#utility.yul\":34530:34534   */\n      0x00\n        /* \"#utility.yul\":34568:34570   */\n      0x20\n        /* \"#utility.yul\":34557:34566   */\n      dup3\n        /* \"#utility.yul\":34553:34571   */\n      add\n        /* \"#utility.yul\":34545:34571   */\n      swap1\n      pop\n        /* \"#utility.yul\":34617:34626   */\n      dup2\n        /* \"#utility.yul\":34611:34615   */\n      dup2\n        /* \"#utility.yul\":34607:34627   */\n      sub\n        /* \"#utility.yul\":34603:34604   */\n      0x00\n        /* \"#utility.yul\":34592:34601   */\n      dup4\n        /* \"#utility.yul\":34588:34605   */\n      add\n        /* \"#utility.yul\":34581:34628   */\n      mstore\n        /* \"#utility.yul\":34645:34776   */\n      tag_568\n        /* \"#utility.yul\":34771:34775   */\n      dup2\n        /* \"#utility.yul\":34645:34776   */\n      tag_272\n      jump\t// in\n    tag_568:\n        /* \"#utility.yul\":34637:34776   */\n      swap1\n      pop\n        /* \"#utility.yul\":34364:34783   */\n      swap2\n      swap1\n      pop\n      jump\t// out\n        /* \"#utility.yul\":34789:34957   */\n    tag_273:\n        /* \"#utility.yul\":34929:34949   */\n      0x566f746572207265676973746572656421210000000000000000000000000000\n        /* \"#utility.yul\":34925:34926   */\n      0x00\n        /* \"#utility.yul\":34917:34923   */\n      dup3\n        /* \"#utility.yul\":34913:34927   */\n      add\n        /* \"#utility.yul\":34906:34950   */\n      mstore\n        /* \"#utility.yul\":34789:34957   */\n      pop\n      jump\t// out\n        /* \"#utility.yul\":34963:35329   */\n    tag_274:\n        /* \"#utility.yul\":35105:35108   */\n      0x00\n        /* \"#utility.yul\":35126:35193   */\n      tag_571\n        /* \"#utility.yul\":35190:35192   */\n      0x12\n        /* \"#utility.yul\":35185:35188   */\n      dup4\n        /* \"#utility.yul\":35126:35193   */\n      tag_208\n      jump\t// in\n    tag_571:\n        /* \"#utility.yul\":35119:35193   */\n      swap2\n      pop\n        /* \"#utility.yul\":35202:35295   */\n      tag_572\n        /* \"#utility.yul\":35291:35294   */\n      dup3\n        /* \"#utility.yul\":35202:35295   */\n      tag_273\n      jump\t// in\n    tag_572:\n        /* \"#utility.yul\":35320:35322   */\n      0x20\n        /* \"#utility.yul\":35315:35318   */\n      dup3\n        /* \"#utility.yul\":35311:35323   */\n      add\n        /* \"#utility.yul\":35304:35323   */\n      swap1\n      pop\n        /* \"#utility.yul\":34963:35329   */\n      swap2\n      swap1\n      pop\n      jump\t// out\n        /* \"#utility.yul\":35335:35754   */\n    tag_170:\n        /* \"#utility.yul\":35501:35505   */\n      0x00\n        /* \"#utility.yul\":35539:35541   */\n      0x20\n        /* \"#utility.yul\":35528:35537   */\n      dup3\n        /* \"#utility.yul\":35524:35542   */\n      add\n        /* \"#utility.yul\":35516:35542   */\n      swap1\n      pop\n        /* \"#utility.yul\":35588:35597   */\n      dup2\n        /* \"#utility.yul\":35582:35586   */\n      dup2\n        /* \"#utility.yul\":35578:35598   */\n      sub\n        /* \"#utility.yul\":35574:35575   */\n      0x00\n        /* \"#utility.yul\":35563:35572   */\n      dup4\n        /* \"#utility.yul\":35559:35576   */\n      add\n        /* \"#utility.yul\":35552:35599   */\n      mstore\n        /* \"#utility.yul\":35616:35747   */\n      tag_574\n        /* \"#utility.yul\":35742:35746   */\n      dup2\n        /* \"#utility.yul\":35616:35747   */\n      tag_274\n      jump\t// in\n    tag_574:\n        /* \"#utility.yul\":35608:35747   */\n      swap1\n      pop\n        /* \"#utility.yul\":35335:35754   */\n      swap2\n      swap1\n      pop\n      jump\t// out\n        /* \"#utility.yul\":35760:35925   */\n    tag_275:\n        /* \"#utility.yul\":35900:35917   */\n      0x566f74696e672073746f70656421210000000000000000000000000000000000\n        /* \"#utility.yul\":35896:35897   */\n      0x00\n        /* \"#utility.yul\":35888:35894   */\n      dup3\n        /* \"#utility.yul\":35884:35898   */\n      add\n        /* \"#utility.yul\":35877:35918   */\n      mstore\n        /* \"#utility.yul\":35760:35925   */\n      pop\n      jump\t// out\n        /* \"#utility.yul\":35931:36297   */\n    tag_276:\n        /* \"#utility.yul\":36073:36076   */\n      0x00\n        /* \"#utility.yul\":36094:36161   */\n      tag_577\n        /* \"#utility.yul\":36158:36160   */\n      0x0f\n        /* \"#utility.yul\":36153:36156   */\n      dup4\n        /* \"#utility.yul\":36094:36161   */\n      tag_208\n      jump\t// in\n    tag_577:\n        /* \"#utility.yul\":36087:36161   */\n      swap2\n      pop\n        /* \"#utility.yul\":36170:36263   */\n      tag_578\n        /* \"#utility.yul\":36259:36262   */\n      dup3\n        /* \"#utility.yul\":36170:36263   */\n      tag_275\n      jump\t// in\n    tag_578:\n        /* \"#utility.yul\":36288:36290   */\n      0x20\n        /* \"#utility.yul\":36283:36286   */\n      dup3\n        /* \"#utility.yul\":36279:36291   */\n      add\n        /* \"#utility.yul\":36272:36291   */\n      swap1\n      pop\n        /* \"#utility.yul\":35931:36297   */\n      swap2\n      swap1\n      pop\n      jump\t// out\n        /* \"#utility.yul\":36303:36722   */\n    tag_184:\n        /* \"#utility.yul\":36469:36473   */\n      0x00\n        /* \"#utility.yul\":36507:36509   */\n      0x20\n        /* \"#utility.yul\":36496:36505   */\n      dup3\n        /* \"#utility.yul\":36492:36510   */\n      add\n        /* \"#utility.yul\":36484:36510   */\n      swap1\n      pop\n        /* \"#utility.yul\":36556:36565   */\n      dup2\n        /* \"#utility.yul\":36550:36554   */\n      dup2\n        /* \"#utility.yul\":36546:36566   */\n      sub\n        /* \"#utility.yul\":36542:36543   */\n      0x00\n        /* \"#utility.yul\":36531:36540   */\n      dup4\n        /* \"#utility.yul\":36527:36544   */\n      add\n        /* \"#utility.yul\":36520:36567   */\n      mstore\n        /* \"#utility.yul\":36584:36715   */\n      tag_580\n        /* \"#utility.yul\":36710:36714   */\n      dup2\n        /* \"#utility.yul\":36584:36715   */\n      tag_276\n      jump\t// in\n    tag_580:\n        /* \"#utility.yul\":36576:36715   */\n      swap1\n      pop\n        /* \"#utility.yul\":36303:36722   */\n      swap2\n      swap1\n      pop\n      jump\t// out\n\n    auxdata: 0xa2646970667358221220b1b669eba02923bce9778af7dde933d820358c7d9cc8f87f6b18ef596dc6e4e264736f6c63430008150033\n}\n",
				"bytecode": {
					"linkReferences": {},
					"object": "608060405234801562000010575f80fd5b5060405162002bfe38038062002bfe833981810160405281019062000036919062000233565b335f806101000a81548173ffffffffffffffffffffffffffffffffffffffff021916908373ffffffffffffffffffffffffffffffffffffffff1602179055508060029081620000869190620004b9565b505f6003819055505f60045f6101000a81548160ff021916908315150217905550506200059d565b5f604051905090565b5f80fd5b5f80fd5b5f80fd5b5f80fd5b5f601f19601f8301169050919050565b7f4e487b71000000000000000000000000000000000000000000000000000000005f52604160045260245ffd5b6200010f82620000c7565b810181811067ffffffffffffffff82111715620001315762000130620000d7565b5b80604052505050565b5f62000145620000ae565b905062000153828262000104565b919050565b5f67ffffffffffffffff821115620001755762000174620000d7565b5b6200018082620000c7565b9050602081019050919050565b5f5b83811015620001ac5780820151818401526020810190506200018f565b5f8484015250505050565b5f620001cd620001c78462000158565b6200013a565b905082815260208101848484011115620001ec57620001eb620000c3565b5b620001f98482856200018d565b509392505050565b5f82601f830112620002185762000217620000bf565b5b81516200022a848260208601620001b7565b91505092915050565b5f602082840312156200024b576200024a620000b7565b5b5f82015167ffffffffffffffff8111156200026b576200026a620000bb565b5b620002798482850162000201565b91505092915050565b5f81519050919050565b7f4e487b71000000000000000000000000000000000000000000000000000000005f52602260045260245ffd5b5f6002820490506001821680620002d157607f821691505b602082108103620002e757620002e66200028c565b5b50919050565b5f819050815f5260205f209050919050565b5f6020601f8301049050919050565b5f82821b905092915050565b5f600883026200034b7fffffffffffffffffffffffffffffffffffffffffffffffffffffffffffffffff826200030e565b6200035786836200030e565b95508019841693508086168417925050509392505050565b5f819050919050565b5f819050919050565b5f620003a16200039b62000395846200036f565b62000378565b6200036f565b9050919050565b5f819050919050565b620003bc8362000381565b620003d4620003cb82620003a8565b8484546200031a565b825550505050565b5f90565b620003ea620003dc565b620003f7818484620003b1565b505050565b5b818110156200041e57620004125f82620003e0565b600181019050620003fd565b5050565b601f8211156200046d576200043781620002ed565b6200044284620002ff565b8101602085101562000452578190505b6200046a6200046185620002ff565b830182620003fc565b50505b505050565b5f82821c905092915050565b5f6200048f5f198460080262000472565b1980831691505092915050565b5f620004a983836200047e565b9150826002028217905092915050565b620004c48262000282565b67ffffffffffffffff811115620004e057620004df620000d7565b5b620004ec8254620002b9565b620004f982828562000422565b5f60209050601f8311600181146200052f575f84156200051a578287015190505b6200052685826200049c565b86555062000595565b601f1984166200053f86620002ed565b5f5b82811015620005685784890151825560018201915060208501945060208101905062000541565b8683101562000588578489015162000584601f8916826200047e565b8355505b6001600288020188555050505b505050505050565b61265380620005ab5f395ff3fe608060405234801561000f575f80fd5b50600436106100f3575f3560e01c80638da5cb5b11610095578063ed7a4e0b11610064578063ed7a4e0b14610262578063efd5297c14610280578063f1cea4c71461029e578063fab2f86b146102bc576100f3565b80638da5cb5b146101d65780638e7ea5b2146101f4578063b13c744b14610212578063cf52a7b214610246576100f3565b80633c71a6d5116100d15780633c71a6d5146101505780638043c9c01461016c57806388fb6f741461018a5780638ab66a90146101a6576100f3565b806303b4caed146100f757806319f41a40146101285780631ec6b60a14610146575b5f80fd5b610111600480360381019061010c9190611536565b6102c6565b60405161011f92919061157b565b60405180910390f35b6101306102fe565b60405161013d91906115a2565b60405180910390f35b61014e610313565b005b61016a6004803603810190610165919061172a565b6103f1565b005b610174610731565b6040516101819190611810565b60405180910390f35b6101a4600480360381019061019f9190611536565b6107bd565b005b6101c060048036038101906101bb9190611536565b610c32565b6040516101cd919061183f565b60405180910390f35b6101de610c47565b6040516101eb9190611867565b60405180910390f35b6101fc610c6a565b6040516102099190611968565b60405180910390f35b61022c60048036038101906102279190611988565b610ea0565b60405161023d9594939291906119b3565b60405180910390f35b610260600480360381019061025b9190611536565b610f93565b005b61026a611211565b6040516102779190611867565b60405180910390f35b610288611236565b6040516102959190611b39565b60405180910390f35b6102a66113a5565b6040516102b3919061183f565b60405180910390f35b6102c46113ab565b005b6007602052805f5260405f205f91509050805f015f9054906101000a900460ff1690805f0160019054906101000a900460ff16905082565b5f60045f9054906101000a900460ff16905090565b5f8054906101000a900473ffffffffffffffffffffffffffffffffffffffff1673ffffffffffffffffffffffffffffffffffffffff163373ffffffffffffffffffffffffffffffffffffffff16146103a0576040517f08c379a000000000000000000000000000000000000000000000000000000000815260040161039790611ba3565b60405180910390fd5b600160045f6101000a81548160ff0219169083151502179055507f68f068b2f0d02fca99bc8285b62fce8668fe16b7c6a810351ea25bff358c0dd86040516103e790611c0b565b60405180910390a1565b5f8054906101000a900473ffffffffffffffffffffffffffffffffffffffff1673ffffffffffffffffffffffffffffffffffffffff163373ffffffffffffffffffffffffffffffffffffffff161461047e576040517f08c379a000000000000000000000000000000000000000000000000000000000815260040161047590611c99565b60405180910390fd5b5f8054906101000a900473ffffffffffffffffffffffffffffffffffffffff1673ffffffffffffffffffffffffffffffffffffffff168173ffffffffffffffffffffffffffffffffffffffff160361050b576040517f08c379a000000000000000000000000000000000000000000000000000000000815260040161050290611d01565b60405180910390fd5b5f60055f8373ffffffffffffffffffffffffffffffffffffffff1673ffffffffffffffffffffffffffffffffffffffff1681526020019081526020015f20541461058a576040517f08c379a000000000000000000000000000000000000000000000000000000000815260040161058190611d69565b60405180910390fd5b5f6040518060a001604052808581526020018481526020016001151581526020018373ffffffffffffffffffffffffffffffffffffffff1681526020015f81525090505f600680549050036105f657600660018160018154018082558091505003905f5260205f209050505b60068054905060055f8473ffffffffffffffffffffffffffffffffffffffff1673ffffffffffffffffffffffffffffffffffffffff1681526020019081526020015f2081905550600681908060018154018082558091505060019003905f5260205f2090600402015f909190919091505f820151815f0190816106799190611f81565b50602082015181600101556040820151816002015f6101000a81548160ff02191690831515021790555060608201518160020160016101000a81548173ffffffffffffffffffffffffffffffffffffffff021916908373ffffffffffffffffffffffffffffffffffffffff1602179055506080820151816003015550507f68f068b2f0d02fca99bc8285b62fce8668fe16b7c6a810351ea25bff358c0dd86040516107239061209a565b60405180910390a150505050565b6002805461073e90611db4565b80601f016020809104026020016040519081016040528092919081815260200182805461076a90611db4565b80156107b55780601f1061078c576101008083540402835291602001916107b5565b820191905f5260205f20905b81548152906001019060200180831161079857829003601f168201915b505050505081565b6001151560045f9054906101000a900460ff16151514610812576040517f08c379a000000000000000000000000000000000000000000000000000000000815260040161080990612128565b60405180910390fd5b5f8054906101000a900473ffffffffffffffffffffffffffffffffffffffff1673ffffffffffffffffffffffffffffffffffffffff163373ffffffffffffffffffffffffffffffffffffffff160361089f576040517f08c379a000000000000000000000000000000000000000000000000000000000815260040161089690612190565b60405180910390fd5b6001151560075f3373ffffffffffffffffffffffffffffffffffffffff1673ffffffffffffffffffffffffffffffffffffffff1681526020019081526020015f205f015f9054906101000a900460ff16151514610931576040517f08c379a0000000000000000000000000000000000000000000000000000000008152600401610928906121f8565b60405180910390fd5b5f151560075f3373ffffffffffffffffffffffffffffffffffffffff1673ffffffffffffffffffffffffffffffffffffffff1681526020019081526020015f205f0160019054906101000a900460ff161515146109c3576040517f08c379a00000000000000000000000000000000000000000000000000000000081526004016109ba90612260565b60405180910390fd5b60011515600660055f8473ffffffffffffffffffffffffffffffffffffffff1673ffffffffffffffffffffffffffffffffffffffff1681526020019081526020015f205481548110610a1857610a1761227e565b5b905f5260205f2090600402016002015f9054906101000a900460ff16151514610a76576040517f08c379a0000000000000000000000000000000000000000000000000000000008152600401610a6d906122f5565b60405180910390fd5b600660055f8373ffffffffffffffffffffffffffffffffffffffff1673ffffffffffffffffffffffffffffffffffffffff1681526020019081526020015f205481548110610ac757610ac661227e565b5b905f5260205f2090600402016003015f815480929190610ae690612340565b9190505550600160075f3373ffffffffffffffffffffffffffffffffffffffff1673ffffffffffffffffffffffffffffffffffffffff1681526020019081526020015f205f0160016101000a81548160ff0219169083151502179055505f600660055f8473ffffffffffffffffffffffffffffffffffffffff1673ffffffffffffffffffffffffffffffffffffffff1681526020019081526020015f205481548110610b9557610b9461227e565b5b905f5260205f209060040201600301549050806003541015610bf957806003819055508160015f6101000a81548173ffffffffffffffffffffffffffffffffffffffff021916908373ffffffffffffffffffffffffffffffffffffffff1602179055505b7f68f068b2f0d02fca99bc8285b62fce8668fe16b7c6a810351ea25bff358c0dd8604051610c26906123d1565b60405180910390a15050565b6005602052805f5260405f205f915090505481565b5f8054906101000a900473ffffffffffffffffffffffffffffffffffffffff1681565b610c72611488565b5f8054906101000a900473ffffffffffffffffffffffffffffffffffffffff1673ffffffffffffffffffffffffffffffffffffffff163373ffffffffffffffffffffffffffffffffffffffff1614610cff576040517f08c379a0000000000000000000000000000000000000000000000000000000008152600401610cf690612439565b60405180910390fd5b600660055f60015f9054906101000a900473ffffffffffffffffffffffffffffffffffffffff1673ffffffffffffffffffffffffffffffffffffffff1673ffffffffffffffffffffffffffffffffffffffff1681526020019081526020015f205481548110610d7157610d7061227e565b5b905f5260205f2090600402016040518060a00160405290815f82018054610d9790611db4565b80601f0160208091040260200160405190810160405280929190818152602001828054610dc390611db4565b8015610e0e5780601f10610de557610100808354040283529160200191610e0e565b820191905f5260205f20905b815481529060010190602001808311610df157829003601f168201915b5050505050815260200160018201548152602001600282015f9054906101000a900460ff161515151581526020016002820160019054906101000a900473ffffffffffffffffffffffffffffffffffffffff1673ffffffffffffffffffffffffffffffffffffffff1673ffffffffffffffffffffffffffffffffffffffff168152602001600382015481525050905090565b60068181548110610eaf575f80fd5b905f5260205f2090600402015f91509050805f018054610ece90611db4565b80601f0160208091040260200160405190810160405280929190818152602001828054610efa90611db4565b8015610f455780601f10610f1c57610100808354040283529160200191610f45565b820191905f5260205f20905b815481529060010190602001808311610f2857829003601f168201915b505050505090806001015490806002015f9054906101000a900460ff16908060020160019054906101000a900473ffffffffffffffffffffffffffffffffffffffff16908060030154905085565b5f8054906101000a900473ffffffffffffffffffffffffffffffffffffffff1673ffffffffffffffffffffffffffffffffffffffff168173ffffffffffffffffffffffffffffffffffffffff1603611020576040517f08c379a000000000000000000000000000000000000000000000000000000000815260040161101790612190565b60405180910390fd5b5f8054906101000a900473ffffffffffffffffffffffffffffffffffffffff1673ffffffffffffffffffffffffffffffffffffffff163373ffffffffffffffffffffffffffffffffffffffff16146110ad576040517f08c379a00000000000000000000000000000000000000000000000000000000081526004016110a4906124c7565b60405180910390fd5b5f151560075f8373ffffffffffffffffffffffffffffffffffffffff1673ffffffffffffffffffffffffffffffffffffffff1681526020019081526020015f205f015f9054906101000a900460ff1615151461113e576040517f08c379a00000000000000000000000000000000000000000000000000000000081526004016111359061252f565b60405180910390fd5b5f60405180604001604052806001151581526020015f151581525090508060075f8473ffffffffffffffffffffffffffffffffffffffff1673ffffffffffffffffffffffffffffffffffffffff1681526020019081526020015f205f820151815f015f6101000a81548160ff0219169083151502179055506020820151815f0160016101000a81548160ff0219169083151502179055509050507f68f068b2f0d02fca99bc8285b62fce8668fe16b7c6a810351ea25bff358c0dd860405161120590612597565b60405180910390a15050565b60015f9054906101000a900473ffffffffffffffffffffffffffffffffffffffff1681565b60606006805480602002602001604051908101604052809291908181526020015f905b8282101561139c578382905f5260205f2090600402016040518060a00160405290815f8201805461128990611db4565b80601f01602080910402602001604051908101604052809291908181526020018280546112b590611db4565b80156113005780601f106112d757610100808354040283529160200191611300565b820191905f5260205f20905b8154815290600101906020018083116112e357829003601f168201915b5050505050815260200160018201548152602001600282015f9054906101000a900460ff161515151581526020016002820160019054906101000a900473ffffffffffffffffffffffffffffffffffffffff1673ffffffffffffffffffffffffffffffffffffffff1673ffffffffffffffffffffffffffffffffffffffff16815260200160038201548152505081526020019060010190611259565b50505050905090565b60035481565b5f8054906101000a900473ffffffffffffffffffffffffffffffffffffffff1673ffffffffffffffffffffffffffffffffffffffff163373ffffffffffffffffffffffffffffffffffffffff1614611438576040517f08c379a000000000000000000000000000000000000000000000000000000000815260040161142f90611ba3565b60405180910390fd5b5f60045f6101000a81548160ff0219169083151502179055507f68f068b2f0d02fca99bc8285b62fce8668fe16b7c6a810351ea25bff358c0dd860405161147e906125ff565b60405180910390a1565b6040518060a00160405280606081526020015f81526020015f151581526020015f73ffffffffffffffffffffffffffffffffffffffff1681526020015f81525090565b5f604051905090565b5f80fd5b5f80fd5b5f73ffffffffffffffffffffffffffffffffffffffff82169050919050565b5f611505826114dc565b9050919050565b611515816114fb565b811461151f575f80fd5b50565b5f813590506115308161150c565b92915050565b5f6020828403121561154b5761154a6114d4565b5b5f61155884828501611522565b91505092915050565b5f8115159050919050565b61157581611561565b82525050565b5f60408201905061158e5f83018561156c565b61159b602083018461156c565b9392505050565b5f6020820190506115b55f83018461156c565b92915050565b5f80fd5b5f80fd5b5f601f19601f8301169050919050565b7f4e487b71000000000000000000000000000000000000000000000000000000005f52604160045260245ffd5b611609826115c3565b810181811067ffffffffffffffff82111715611628576116276115d3565b5b80604052505050565b5f61163a6114cb565b90506116468282611600565b919050565b5f67ffffffffffffffff821115611665576116646115d3565b5b61166e826115c3565b9050602081019050919050565b828183375f83830152505050565b5f61169b6116968461164b565b611631565b9050828152602081018484840111156116b7576116b66115bf565b5b6116c284828561167b565b509392505050565b5f82601f8301126116de576116dd6115bb565b5b81356116ee848260208601611689565b91505092915050565b5f819050919050565b611709816116f7565b8114611713575f80fd5b50565b5f8135905061172481611700565b92915050565b5f805f60608486031215611741576117406114d4565b5b5f84013567ffffffffffffffff81111561175e5761175d6114d8565b5b61176a868287016116ca565b935050602061177b86828701611716565b925050604061178c86828701611522565b9150509250925092565b5f81519050919050565b5f82825260208201905092915050565b5f5b838110156117cd5780820151818401526020810190506117b2565b5f8484015250505050565b5f6117e282611796565b6117ec81856117a0565b93506117fc8185602086016117b0565b611805816115c3565b840191505092915050565b5f6020820190508181035f83015261182881846117d8565b905092915050565b611839816116f7565b82525050565b5f6020820190506118525f830184611830565b92915050565b611861816114fb565b82525050565b5f60208201905061187a5f830184611858565b92915050565b5f82825260208201905092915050565b5f61189a82611796565b6118a48185611880565b93506118b48185602086016117b0565b6118bd816115c3565b840191505092915050565b6118d1816116f7565b82525050565b6118e081611561565b82525050565b6118ef816114fb565b82525050565b5f60a083015f8301518482035f86015261190f8282611890565b915050602083015161192460208601826118c8565b50604083015161193760408601826118d7565b50606083015161194a60608601826118e6565b50608083015161195d60808601826118c8565b508091505092915050565b5f6020820190508181035f83015261198081846118f5565b905092915050565b5f6020828403121561199d5761199c6114d4565b5b5f6119aa84828501611716565b91505092915050565b5f60a0820190508181035f8301526119cb81886117d8565b90506119da6020830187611830565b6119e7604083018661156c565b6119f46060830185611858565b611a016080830184611830565b9695505050505050565b5f81519050919050565b5f82825260208201905092915050565b5f819050602082019050919050565b5f60a083015f8301518482035f860152611a4e8282611890565b9150506020830151611a6360208601826118c8565b506040830151611a7660408601826118d7565b506060830151611a8960608601826118e6565b506080830151611a9c60808601826118c8565b508091505092915050565b5f611ab28383611a34565b905092915050565b5f602082019050919050565b5f611ad082611a0b565b611ada8185611a15565b935083602082028501611aec85611a25565b805f5b85811015611b275784840389528151611b088582611aa7565b9450611b1383611aba565b925060208a01995050600181019050611aef565b50829750879550505050505092915050565b5f6020820190508181035f830152611b518184611ac6565b905092915050565b7f4f6e6c79206f776e65722063616e20737461727420766f74696e6721210000005f82015250565b5f611b8d601d836117a0565b9150611b9882611b59565b602082019050919050565b5f6020820190508181035f830152611bba81611b81565b9050919050565b7f566f74696e6720537461727465642121000000000000000000000000000000005f82015250565b5f611bf56010836117a0565b9150611c0082611bc1565b602082019050919050565b5f6020820190508181035f830152611c2281611be9565b9050919050565b7f4f6e6c79206f776e65722063616e2072656769737465722043616e64696461745f8201527f6521210000000000000000000000000000000000000000000000000000000000602082015250565b5f611c836023836117a0565b9150611c8e82611c29565b604082019050919050565b5f6020820190508181035f830152611cb081611c77565b9050919050565b7f4f776e65722063616e206e6f74207061727469636970617465212100000000005f82015250565b5f611ceb601b836117a0565b9150611cf682611cb7565b602082019050919050565b5f6020820190508181035f830152611d1881611cdf565b9050919050565b7f43616e64696461746520616c72656164792072656769737465726564000000005f82015250565b5f611d53601c836117a0565b9150611d5e82611d1f565b602082019050919050565b5f6020820190508181035f830152611d8081611d47565b9050919050565b7f4e487b71000000000000000000000000000000000000000000000000000000005f52602260045260245ffd5b5f6002820490506001821680611dcb57607f821691505b602082108103611dde57611ddd611d87565b5b50919050565b5f819050815f5260205f209050919050565b5f6020601f8301049050919050565b5f82821b905092915050565b5f60088302611e407fffffffffffffffffffffffffffffffffffffffffffffffffffffffffffffffff82611e05565b611e4a8683611e05565b95508019841693508086168417925050509392505050565b5f819050919050565b5f611e85611e80611e7b846116f7565b611e62565b6116f7565b9050919050565b5f819050919050565b611e9e83611e6b565b611eb2611eaa82611e8c565b848454611e11565b825550505050565b5f90565b611ec6611eba565b611ed1818484611e95565b505050565b5b81811015611ef457611ee95f82611ebe565b600181019050611ed7565b5050565b601f821115611f3957611f0a81611de4565b611f1384611df6565b81016020851015611f22578190505b611f36611f2e85611df6565b830182611ed6565b50505b505050565b5f82821c905092915050565b5f611f595f1984600802611f3e565b1980831691505092915050565b5f611f718383611f4a565b9150826002028217905092915050565b611f8a82611796565b67ffffffffffffffff811115611fa357611fa26115d3565b5b611fad8254611db4565b611fb8828285611ef8565b5f60209050601f831160018114611fe9575f8415611fd7578287015190505b611fe18582611f66565b865550612048565b601f198416611ff786611de4565b5f5b8281101561201e57848901518255600182019150602085019450602081019050611ff9565b8683101561203b5784890151612037601f891682611f4a565b8355505b6001600288020188555050505b505050505050565b7f43616e64696461746520726567697374657265642121000000000000000000005f82015250565b5f6120846016836117a0565b915061208f82612050565b602082019050919050565b5f6020820190508181035f8301526120b181612078565b9050919050565b7f566f74696e67206e6f74207374617274656420796574206f7220656e646564215f8201527f2100000000000000000000000000000000000000000000000000000000000000602082015250565b5f6121126021836117a0565b915061211d826120b8565b604082019050919050565b5f6020820190508181035f83015261213f81612106565b9050919050565b7f4f776e65722063616e206e6f7420766f746521210000000000000000000000005f82015250565b5f61217a6014836117a0565b915061218582612146565b602082019050919050565b5f6020820190508181035f8301526121a78161216e565b9050919050565b7f566f746572206e6f7420726567697374657265642121000000000000000000005f82015250565b5f6121e26016836117a0565b91506121ed826121ae565b602082019050919050565b5f6020820190508181035f83015261220f816121d6565b9050919050565b7f416c726561647920766f746564212100000000000000000000000000000000005f82015250565b5f61224a600f836117a0565b915061225582612216565b602082019050919050565b5f6020820190508181035f8301526122778161223e565b9050919050565b7f4e487b71000000000000000000000000000000000000000000000000000000005f52603260045260245ffd5b7f43616e646964617465206e6f74207265676973746572656400000000000000005f82015250565b5f6122df6018836117a0565b91506122ea826122ab565b602082019050919050565b5f6020820190508181035f83015261230c816122d3565b9050919050565b7f4e487b71000000000000000000000000000000000000000000000000000000005f52601160045260245ffd5b5f61234a826116f7565b91507fffffffffffffffffffffffffffffffffffffffffffffffffffffffffffffffff820361237c5761237b612313565b5b600182019050919050565b7f566f7465642021210000000000000000000000000000000000000000000000005f82015250565b5f6123bb6008836117a0565b91506123c682612387565b602082019050919050565b5f6020820190508181035f8301526123e8816123af565b9050919050565b7f4f6e6c79206f776e65722063616e206465636c6172652077696e6e65722121005f82015250565b5f612423601f836117a0565b915061242e826123ef565b602082019050919050565b5f6020820190508181035f83015261245081612417565b9050919050565b7f4f6e6c79206f776e65722063616e2077686974656c69737420746865206164645f8201527f7265737365732121000000000000000000000000000000000000000000000000602082015250565b5f6124b16028836117a0565b91506124bc82612457565b604082019050919050565b5f6020820190508181035f8301526124de816124a5565b9050919050565b7f566f74657220616c7265616479207265676973746572656421210000000000005f82015250565b5f612519601a836117a0565b9150612524826124e5565b602082019050919050565b5f6020820190508181035f8301526125468161250d565b9050919050565b7f566f7465722072656769737465726564212100000000000000000000000000005f82015250565b5f6125816012836117a0565b915061258c8261254d565b602082019050919050565b5f6020820190508181035f8301526125ae81612575565b9050919050565b7f566f74696e672073746f706564212100000000000000000000000000000000005f82015250565b5f6125e9600f836117a0565b91506125f4826125b5565b602082019050919050565b5f6020820190508181035f830152612616816125dd565b905091905056fea2646970667358221220b1b669eba02923bce9778af7dde933d820358c7d9cc8f87f6b18ef596dc6e4e264736f6c63430008150033",
					"opcodes": "PUSH1 0x80 PUSH1 0x40 MSTORE CALLVALUE DUP1 ISZERO PUSH3 0x10 JUMPI PUSH0 DUP1 REVERT JUMPDEST POP PUSH1 0x40 MLOAD PUSH3 0x2BFE CODESIZE SUB DUP1 PUSH3 0x2BFE DUP4 CODECOPY DUP2 DUP2 ADD PUSH1 0x40 MSTORE DUP2 ADD SWAP1 PUSH3 0x36 SWAP2 SWAP1 PUSH3 0x233 JUMP JUMPDEST CALLER PUSH0 DUP1 PUSH2 0x100 EXP DUP2 SLOAD DUP2 PUSH20 0xFFFFFFFFFFFFFFFFFFFFFFFFFFFFFFFFFFFFFFFF MUL NOT AND SWAP1 DUP4 PUSH20 0xFFFFFFFFFFFFFFFFFFFFFFFFFFFFFFFFFFFFFFFF AND MUL OR SWAP1 SSTORE POP DUP1 PUSH1 0x2 SWAP1 DUP2 PUSH3 0x86 SWAP2 SWAP1 PUSH3 0x4B9 JUMP JUMPDEST POP PUSH0 PUSH1 0x3 DUP2 SWAP1 SSTORE POP PUSH0 PUSH1 0x4 PUSH0 PUSH2 0x100 EXP DUP2 SLOAD DUP2 PUSH1 0xFF MUL NOT AND SWAP1 DUP4 ISZERO ISZERO MUL OR SWAP1 SSTORE POP POP PUSH3 0x59D JUMP JUMPDEST PUSH0 PUSH1 0x40 MLOAD SWAP1 POP SWAP1 JUMP JUMPDEST PUSH0 DUP1 REVERT JUMPDEST PUSH0 DUP1 REVERT JUMPDEST PUSH0 DUP1 REVERT JUMPDEST PUSH0 DUP1 REVERT JUMPDEST PUSH0 PUSH1 0x1F NOT PUSH1 0x1F DUP4 ADD AND SWAP1 POP SWAP2 SWAP1 POP JUMP JUMPDEST PUSH32 0x4E487B7100000000000000000000000000000000000000000000000000000000 PUSH0 MSTORE PUSH1 0x41 PUSH1 0x4 MSTORE PUSH1 0x24 PUSH0 REVERT JUMPDEST PUSH3 0x10F DUP3 PUSH3 0xC7 JUMP JUMPDEST DUP2 ADD DUP2 DUP2 LT PUSH8 0xFFFFFFFFFFFFFFFF DUP3 GT OR ISZERO PUSH3 0x131 JUMPI PUSH3 0x130 PUSH3 0xD7 JUMP JUMPDEST JUMPDEST DUP1 PUSH1 0x40 MSTORE POP POP POP JUMP JUMPDEST PUSH0 PUSH3 0x145 PUSH3 0xAE JUMP JUMPDEST SWAP1 POP PUSH3 0x153 DUP3 DUP3 PUSH3 0x104 JUMP JUMPDEST SWAP2 SWAP1 POP JUMP JUMPDEST PUSH0 PUSH8 0xFFFFFFFFFFFFFFFF DUP3 GT ISZERO PUSH3 0x175 JUMPI PUSH3 0x174 PUSH3 0xD7 JUMP JUMPDEST JUMPDEST PUSH3 0x180 DUP3 PUSH3 0xC7 JUMP JUMPDEST SWAP1 POP PUSH1 0x20 DUP2 ADD SWAP1 POP SWAP2 SWAP1 POP JUMP JUMPDEST PUSH0 JUMPDEST DUP4 DUP2 LT ISZERO PUSH3 0x1AC JUMPI DUP1 DUP3 ADD MLOAD DUP2 DUP5 ADD MSTORE PUSH1 0x20 DUP2 ADD SWAP1 POP PUSH3 0x18F JUMP JUMPDEST PUSH0 DUP5 DUP5 ADD MSTORE POP POP POP POP JUMP JUMPDEST PUSH0 PUSH3 0x1CD PUSH3 0x1C7 DUP5 PUSH3 0x158 JUMP JUMPDEST PUSH3 0x13A JUMP JUMPDEST SWAP1 POP DUP3 DUP2 MSTORE PUSH1 0x20 DUP2 ADD DUP5 DUP5 DUP5 ADD GT ISZERO PUSH3 0x1EC JUMPI PUSH3 0x1EB PUSH3 0xC3 JUMP JUMPDEST JUMPDEST PUSH3 0x1F9 DUP5 DUP3 DUP6 PUSH3 0x18D JUMP JUMPDEST POP SWAP4 SWAP3 POP POP POP JUMP JUMPDEST PUSH0 DUP3 PUSH1 0x1F DUP4 ADD SLT PUSH3 0x218 JUMPI PUSH3 0x217 PUSH3 0xBF JUMP JUMPDEST JUMPDEST DUP2 MLOAD PUSH3 0x22A DUP5 DUP3 PUSH1 0x20 DUP7 ADD PUSH3 0x1B7 JUMP JUMPDEST SWAP2 POP POP SWAP3 SWAP2 POP POP JUMP JUMPDEST PUSH0 PUSH1 0x20 DUP3 DUP5 SUB SLT ISZERO PUSH3 0x24B JUMPI PUSH3 0x24A PUSH3 0xB7 JUMP JUMPDEST JUMPDEST PUSH0 DUP3 ADD MLOAD PUSH8 0xFFFFFFFFFFFFFFFF DUP2 GT ISZERO PUSH3 0x26B JUMPI PUSH3 0x26A PUSH3 0xBB JUMP JUMPDEST JUMPDEST PUSH3 0x279 DUP5 DUP3 DUP6 ADD PUSH3 0x201 JUMP JUMPDEST SWAP2 POP POP SWAP3 SWAP2 POP POP JUMP JUMPDEST PUSH0 DUP2 MLOAD SWAP1 POP SWAP2 SWAP1 POP JUMP JUMPDEST PUSH32 0x4E487B7100000000000000000000000000000000000000000000000000000000 PUSH0 MSTORE PUSH1 0x22 PUSH1 0x4 MSTORE PUSH1 0x24 PUSH0 REVERT JUMPDEST PUSH0 PUSH1 0x2 DUP3 DIV SWAP1 POP PUSH1 0x1 DUP3 AND DUP1 PUSH3 0x2D1 JUMPI PUSH1 0x7F DUP3 AND SWAP2 POP JUMPDEST PUSH1 0x20 DUP3 LT DUP2 SUB PUSH3 0x2E7 JUMPI PUSH3 0x2E6 PUSH3 0x28C JUMP JUMPDEST JUMPDEST POP SWAP2 SWAP1 POP JUMP JUMPDEST PUSH0 DUP2 SWAP1 POP DUP2 PUSH0 MSTORE PUSH1 0x20 PUSH0 KECCAK256 SWAP1 POP SWAP2 SWAP1 POP JUMP JUMPDEST PUSH0 PUSH1 0x20 PUSH1 0x1F DUP4 ADD DIV SWAP1 POP SWAP2 SWAP1 POP JUMP JUMPDEST PUSH0 DUP3 DUP3 SHL SWAP1 POP SWAP3 SWAP2 POP POP JUMP JUMPDEST PUSH0 PUSH1 0x8 DUP4 MUL PUSH3 0x34B PUSH32 0xFFFFFFFFFFFFFFFFFFFFFFFFFFFFFFFFFFFFFFFFFFFFFFFFFFFFFFFFFFFFFFFF DUP3 PUSH3 0x30E JUMP JUMPDEST PUSH3 0x357 DUP7 DUP4 PUSH3 0x30E JUMP JUMPDEST SWAP6 POP DUP1 NOT DUP5 AND SWAP4 POP DUP1 DUP7 AND DUP5 OR SWAP3 POP POP POP SWAP4 SWAP3 POP POP POP JUMP JUMPDEST PUSH0 DUP2 SWAP1 POP SWAP2 SWAP1 POP JUMP JUMPDEST PUSH0 DUP2 SWAP1 POP SWAP2 SWAP1 POP JUMP JUMPDEST PUSH0 PUSH3 0x3A1 PUSH3 0x39B PUSH3 0x395 DUP5 PUSH3 0x36F JUMP JUMPDEST PUSH3 0x378 JUMP JUMPDEST PUSH3 0x36F JUMP JUMPDEST SWAP1 POP SWAP2 SWAP1 POP JUMP JUMPDEST PUSH0 DUP2 SWAP1 POP SWAP2 SWAP1 POP JUMP JUMPDEST PUSH3 0x3BC DUP4 PUSH3 0x381 JUMP JUMPDEST PUSH3 0x3D4 PUSH3 0x3CB DUP3 PUSH3 0x3A8 JUMP JUMPDEST DUP5 DUP5 SLOAD PUSH3 0x31A JUMP JUMPDEST DUP3 SSTORE POP POP POP POP JUMP JUMPDEST PUSH0 SWAP1 JUMP JUMPDEST PUSH3 0x3EA PUSH3 0x3DC JUMP JUMPDEST PUSH3 0x3F7 DUP2 DUP5 DUP5 PUSH3 0x3B1 JUMP JUMPDEST POP POP POP JUMP JUMPDEST JUMPDEST DUP2 DUP2 LT ISZERO PUSH3 0x41E JUMPI PUSH3 0x412 PUSH0 DUP3 PUSH3 0x3E0 JUMP JUMPDEST PUSH1 0x1 DUP2 ADD SWAP1 POP PUSH3 0x3FD JUMP JUMPDEST POP POP JUMP JUMPDEST PUSH1 0x1F DUP3 GT ISZERO PUSH3 0x46D JUMPI PUSH3 0x437 DUP2 PUSH3 0x2ED JUMP JUMPDEST PUSH3 0x442 DUP5 PUSH3 0x2FF JUMP JUMPDEST DUP2 ADD PUSH1 0x20 DUP6 LT ISZERO PUSH3 0x452 JUMPI DUP2 SWAP1 POP JUMPDEST PUSH3 0x46A PUSH3 0x461 DUP6 PUSH3 0x2FF JUMP JUMPDEST DUP4 ADD DUP3 PUSH3 0x3FC JUMP JUMPDEST POP POP JUMPDEST POP POP POP JUMP JUMPDEST PUSH0 DUP3 DUP3 SHR SWAP1 POP SWAP3 SWAP2 POP POP JUMP JUMPDEST PUSH0 PUSH3 0x48F PUSH0 NOT DUP5 PUSH1 0x8 MUL PUSH3 0x472 JUMP JUMPDEST NOT DUP1 DUP4 AND SWAP2 POP POP SWAP3 SWAP2 POP POP JUMP JUMPDEST PUSH0 PUSH3 0x4A9 DUP4 DUP4 PUSH3 0x47E JUMP JUMPDEST SWAP2 POP DUP3 PUSH1 0x2 MUL DUP3 OR SWAP1 POP SWAP3 SWAP2 POP POP JUMP JUMPDEST PUSH3 0x4C4 DUP3 PUSH3 0x282 JUMP JUMPDEST PUSH8 0xFFFFFFFFFFFFFFFF DUP2 GT ISZERO PUSH3 0x4E0 JUMPI PUSH3 0x4DF PUSH3 0xD7 JUMP JUMPDEST JUMPDEST PUSH3 0x4EC DUP3 SLOAD PUSH3 0x2B9 JUMP JUMPDEST PUSH3 0x4F9 DUP3 DUP3 DUP6 PUSH3 0x422 JUMP JUMPDEST PUSH0 PUSH1 0x20 SWAP1 POP PUSH1 0x1F DUP4 GT PUSH1 0x1 DUP2 EQ PUSH3 0x52F JUMPI PUSH0 DUP5 ISZERO PUSH3 0x51A JUMPI DUP3 DUP8 ADD MLOAD SWAP1 POP JUMPDEST PUSH3 0x526 DUP6 DUP3 PUSH3 0x49C JUMP JUMPDEST DUP7 SSTORE POP PUSH3 0x595 JUMP JUMPDEST PUSH1 0x1F NOT DUP5 AND PUSH3 0x53F DUP7 PUSH3 0x2ED JUMP JUMPDEST PUSH0 JUMPDEST DUP3 DUP2 LT ISZERO PUSH3 0x568 JUMPI DUP5 DUP10 ADD MLOAD DUP3 SSTORE PUSH1 0x1 DUP3 ADD SWAP2 POP PUSH1 0x20 DUP6 ADD SWAP5 POP PUSH1 0x20 DUP2 ADD SWAP1 POP PUSH3 0x541 JUMP JUMPDEST DUP7 DUP4 LT ISZERO PUSH3 0x588 JUMPI DUP5 DUP10 ADD MLOAD PUSH3 0x584 PUSH1 0x1F DUP10 AND DUP3 PUSH3 0x47E JUMP JUMPDEST DUP4 SSTORE POP JUMPDEST PUSH1 0x1 PUSH1 0x2 DUP9 MUL ADD DUP9 SSTORE POP POP POP JUMPDEST POP POP POP POP POP POP JUMP JUMPDEST PUSH2 0x2653 DUP1 PUSH3 0x5AB PUSH0 CODECOPY PUSH0 RETURN INVALID PUSH1 0x80 PUSH1 0x40 MSTORE CALLVALUE DUP1 ISZERO PUSH2 0xF JUMPI PUSH0 DUP1 REVERT JUMPDEST POP PUSH1 0x4 CALLDATASIZE LT PUSH2 0xF3 JUMPI PUSH0 CALLDATALOAD PUSH1 0xE0 SHR DUP1 PUSH4 0x8DA5CB5B GT PUSH2 0x95 JUMPI DUP1 PUSH4 0xED7A4E0B GT PUSH2 0x64 JUMPI DUP1 PUSH4 0xED7A4E0B EQ PUSH2 0x262 JUMPI DUP1 PUSH4 0xEFD5297C EQ PUSH2 0x280 JUMPI DUP1 PUSH4 0xF1CEA4C7 EQ PUSH2 0x29E JUMPI DUP1 PUSH4 0xFAB2F86B EQ PUSH2 0x2BC JUMPI PUSH2 0xF3 JUMP JUMPDEST DUP1 PUSH4 0x8DA5CB5B EQ PUSH2 0x1D6 JUMPI DUP1 PUSH4 0x8E7EA5B2 EQ PUSH2 0x1F4 JUMPI DUP1 PUSH4 0xB13C744B EQ PUSH2 0x212 JUMPI DUP1 PUSH4 0xCF52A7B2 EQ PUSH2 0x246 JUMPI PUSH2 0xF3 JUMP JUMPDEST DUP1 PUSH4 0x3C71A6D5 GT PUSH2 0xD1 JUMPI DUP1 PUSH4 0x3C71A6D5 EQ PUSH2 0x150 JUMPI DUP1 PUSH4 0x8043C9C0 EQ PUSH2 0x16C JUMPI DUP1 PUSH4 0x88FB6F74 EQ PUSH2 0x18A JUMPI DUP1 PUSH4 0x8AB66A90 EQ PUSH2 0x1A6 JUMPI PUSH2 0xF3 JUMP JUMPDEST DUP1 PUSH4 0x3B4CAED EQ PUSH2 0xF7 JUMPI DUP1 PUSH4 0x19F41A40 EQ PUSH2 0x128 JUMPI DUP1 PUSH4 0x1EC6B60A EQ PUSH2 0x146 JUMPI JUMPDEST PUSH0 DUP1 REVERT JUMPDEST PUSH2 0x111 PUSH1 0x4 DUP1 CALLDATASIZE SUB DUP2 ADD SWAP1 PUSH2 0x10C SWAP2 SWAP1 PUSH2 0x1536 JUMP JUMPDEST PUSH2 0x2C6 JUMP JUMPDEST PUSH1 0x40 MLOAD PUSH2 0x11F SWAP3 SWAP2 SWAP1 PUSH2 0x157B JUMP JUMPDEST PUSH1 0x40 MLOAD DUP1 SWAP2 SUB SWAP1 RETURN JUMPDEST PUSH2 0x130 PUSH2 0x2FE JUMP JUMPDEST PUSH1 0x40 MLOAD PUSH2 0x13D SWAP2 SWAP1 PUSH2 0x15A2 JUMP JUMPDEST PUSH1 0x40 MLOAD DUP1 SWAP2 SUB SWAP1 RETURN JUMPDEST PUSH2 0x14E PUSH2 0x313 JUMP JUMPDEST STOP JUMPDEST PUSH2 0x16A PUSH1 0x4 DUP1 CALLDATASIZE SUB DUP2 ADD SWAP1 PUSH2 0x165 SWAP2 SWAP1 PUSH2 0x172A JUMP JUMPDEST PUSH2 0x3F1 JUMP JUMPDEST STOP JUMPDEST PUSH2 0x174 PUSH2 0x731 JUMP JUMPDEST PUSH1 0x40 MLOAD PUSH2 0x181 SWAP2 SWAP1 PUSH2 0x1810 JUMP JUMPDEST PUSH1 0x40 MLOAD DUP1 SWAP2 SUB SWAP1 RETURN JUMPDEST PUSH2 0x1A4 PUSH1 0x4 DUP1 CALLDATASIZE SUB DUP2 ADD SWAP1 PUSH2 0x19F SWAP2 SWAP1 PUSH2 0x1536 JUMP JUMPDEST PUSH2 0x7BD JUMP JUMPDEST STOP JUMPDEST PUSH2 0x1C0 PUSH1 0x4 DUP1 CALLDATASIZE SUB DUP2 ADD SWAP1 PUSH2 0x1BB SWAP2 SWAP1 PUSH2 0x1536 JUMP JUMPDEST PUSH2 0xC32 JUMP JUMPDEST PUSH1 0x40 MLOAD PUSH2 0x1CD SWAP2 SWAP1 PUSH2 0x183F JUMP JUMPDEST PUSH1 0x40 MLOAD DUP1 SWAP2 SUB SWAP1 RETURN JUMPDEST PUSH2 0x1DE PUSH2 0xC47 JUMP JUMPDEST PUSH1 0x40 MLOAD PUSH2 0x1EB SWAP2 SWAP1 PUSH2 0x1867 JUMP JUMPDEST PUSH1 0x40 MLOAD DUP1 SWAP2 SUB SWAP1 RETURN JUMPDEST PUSH2 0x1FC PUSH2 0xC6A JUMP JUMPDEST PUSH1 0x40 MLOAD PUSH2 0x209 SWAP2 SWAP1 PUSH2 0x1968 JUMP JUMPDEST PUSH1 0x40 MLOAD DUP1 SWAP2 SUB SWAP1 RETURN JUMPDEST PUSH2 0x22C PUSH1 0x4 DUP1 CALLDATASIZE SUB DUP2 ADD SWAP1 PUSH2 0x227 SWAP2 SWAP1 PUSH2 0x1988 JUMP JUMPDEST PUSH2 0xEA0 JUMP JUMPDEST PUSH1 0x40 MLOAD PUSH2 0x23D SWAP6 SWAP5 SWAP4 SWAP3 SWAP2 SWAP1 PUSH2 0x19B3 JUMP JUMPDEST PUSH1 0x40 MLOAD DUP1 SWAP2 SUB SWAP1 RETURN JUMPDEST PUSH2 0x260 PUSH1 0x4 DUP1 CALLDATASIZE SUB DUP2 ADD SWAP1 PUSH2 0x25B SWAP2 SWAP1 PUSH2 0x1536 JUMP JUMPDEST PUSH2 0xF93 JUMP JUMPDEST STOP JUMPDEST PUSH2 0x26A PUSH2 0x1211 JUMP JUMPDEST PUSH1 0x40 MLOAD PUSH2 0x277 SWAP2 SWAP1 PUSH2 0x1867 JUMP JUMPDEST PUSH1 0x40 MLOAD DUP1 SWAP2 SUB SWAP1 RETURN JUMPDEST PUSH2 0x288 PUSH2 0x1236 JUMP JUMPDEST PUSH1 0x40 MLOAD PUSH2 0x295 SWAP2 SWAP1 PUSH2 0x1B39 JUMP JUMPDEST PUSH1 0x40 MLOAD DUP1 SWAP2 SUB SWAP1 RETURN JUMPDEST PUSH2 0x2A6 PUSH2 0x13A5 JUMP JUMPDEST PUSH1 0x40 MLOAD PUSH2 0x2B3 SWAP2 SWAP1 PUSH2 0x183F JUMP JUMPDEST PUSH1 0x40 MLOAD DUP1 SWAP2 SUB SWAP1 RETURN JUMPDEST PUSH2 0x2C4 PUSH2 0x13AB JUMP JUMPDEST STOP JUMPDEST PUSH1 0x7 PUSH1 0x20 MSTORE DUP1 PUSH0 MSTORE PUSH1 0x40 PUSH0 KECCAK256 PUSH0 SWAP2 POP SWAP1 POP DUP1 PUSH0 ADD PUSH0 SWAP1 SLOAD SWAP1 PUSH2 0x100 EXP SWAP1 DIV PUSH1 0xFF AND SWAP1 DUP1 PUSH0 ADD PUSH1 0x1 SWAP1 SLOAD SWAP1 PUSH2 0x100 EXP SWAP1 DIV PUSH1 0xFF AND SWAP1 POP DUP3 JUMP JUMPDEST PUSH0 PUSH1 0x4 PUSH0 SWAP1 SLOAD SWAP1 PUSH2 0x100 EXP SWAP1 DIV PUSH1 0xFF AND SWAP1 POP SWAP1 JUMP JUMPDEST PUSH0 DUP1 SLOAD SWAP1 PUSH2 0x100 EXP SWAP1 DIV PUSH20 0xFFFFFFFFFFFFFFFFFFFFFFFFFFFFFFFFFFFFFFFF AND PUSH20 0xFFFFFFFFFFFFFFFFFFFFFFFFFFFFFFFFFFFFFFFF AND CALLER PUSH20 0xFFFFFFFFFFFFFFFFFFFFFFFFFFFFFFFFFFFFFFFF AND EQ PUSH2 0x3A0 JUMPI PUSH1 0x40 MLOAD PUSH32 0x8C379A000000000000000000000000000000000000000000000000000000000 DUP2 MSTORE PUSH1 0x4 ADD PUSH2 0x397 SWAP1 PUSH2 0x1BA3 JUMP JUMPDEST PUSH1 0x40 MLOAD DUP1 SWAP2 SUB SWAP1 REVERT JUMPDEST PUSH1 0x1 PUSH1 0x4 PUSH0 PUSH2 0x100 EXP DUP2 SLOAD DUP2 PUSH1 0xFF MUL NOT AND SWAP1 DUP4 ISZERO ISZERO MUL OR SWAP1 SSTORE POP PUSH32 0x68F068B2F0D02FCA99BC8285B62FCE8668FE16B7C6A810351EA25BFF358C0DD8 PUSH1 0x40 MLOAD PUSH2 0x3E7 SWAP1 PUSH2 0x1C0B JUMP JUMPDEST PUSH1 0x40 MLOAD DUP1 SWAP2 SUB SWAP1 LOG1 JUMP JUMPDEST PUSH0 DUP1 SLOAD SWAP1 PUSH2 0x100 EXP SWAP1 DIV PUSH20 0xFFFFFFFFFFFFFFFFFFFFFFFFFFFFFFFFFFFFFFFF AND PUSH20 0xFFFFFFFFFFFFFFFFFFFFFFFFFFFFFFFFFFFFFFFF AND CALLER PUSH20 0xFFFFFFFFFFFFFFFFFFFFFFFFFFFFFFFFFFFFFFFF AND EQ PUSH2 0x47E JUMPI PUSH1 0x40 MLOAD PUSH32 0x8C379A000000000000000000000000000000000000000000000000000000000 DUP2 MSTORE PUSH1 0x4 ADD PUSH2 0x475 SWAP1 PUSH2 0x1C99 JUMP JUMPDEST PUSH1 0x40 MLOAD DUP1 SWAP2 SUB SWAP1 REVERT JUMPDEST PUSH0 DUP1 SLOAD SWAP1 PUSH2 0x100 EXP SWAP1 DIV PUSH20 0xFFFFFFFFFFFFFFFFFFFFFFFFFFFFFFFFFFFFFFFF AND PUSH20 0xFFFFFFFFFFFFFFFFFFFFFFFFFFFFFFFFFFFFFFFF AND DUP2 PUSH20 0xFFFFFFFFFFFFFFFFFFFFFFFFFFFFFFFFFFFFFFFF AND SUB PUSH2 0x50B JUMPI PUSH1 0x40 MLOAD PUSH32 0x8C379A000000000000000000000000000000000000000000000000000000000 DUP2 MSTORE PUSH1 0x4 ADD PUSH2 0x502 SWAP1 PUSH2 0x1D01 JUMP JUMPDEST PUSH1 0x40 MLOAD DUP1 SWAP2 SUB SWAP1 REVERT JUMPDEST PUSH0 PUSH1 0x5 PUSH0 DUP4 PUSH20 0xFFFFFFFFFFFFFFFFFFFFFFFFFFFFFFFFFFFFFFFF AND PUSH20 0xFFFFFFFFFFFFFFFFFFFFFFFFFFFFFFFFFFFFFFFF AND DUP2 MSTORE PUSH1 0x20 ADD SWAP1 DUP2 MSTORE PUSH1 0x20 ADD PUSH0 KECCAK256 SLOAD EQ PUSH2 0x58A JUMPI PUSH1 0x40 MLOAD PUSH32 0x8C379A000000000000000000000000000000000000000000000000000000000 DUP2 MSTORE PUSH1 0x4 ADD PUSH2 0x581 SWAP1 PUSH2 0x1D69 JUMP JUMPDEST PUSH1 0x40 MLOAD DUP1 SWAP2 SUB SWAP1 REVERT JUMPDEST PUSH0 PUSH1 0x40 MLOAD DUP1 PUSH1 0xA0 ADD PUSH1 0x40 MSTORE DUP1 DUP6 DUP2 MSTORE PUSH1 0x20 ADD DUP5 DUP2 MSTORE PUSH1 0x20 ADD PUSH1 0x1 ISZERO ISZERO DUP2 MSTORE PUSH1 0x20 ADD DUP4 PUSH20 0xFFFFFFFFFFFFFFFFFFFFFFFFFFFFFFFFFFFFFFFF AND DUP2 MSTORE PUSH1 0x20 ADD PUSH0 DUP2 MSTORE POP SWAP1 POP PUSH0 PUSH1 0x6 DUP1 SLOAD SWAP1 POP SUB PUSH2 0x5F6 JUMPI PUSH1 0x6 PUSH1 0x1 DUP2 PUSH1 0x1 DUP2 SLOAD ADD DUP1 DUP3 SSTORE DUP1 SWAP2 POP POP SUB SWAP1 PUSH0 MSTORE PUSH1 0x20 PUSH0 KECCAK256 SWAP1 POP POP JUMPDEST PUSH1 0x6 DUP1 SLOAD SWAP1 POP PUSH1 0x5 PUSH0 DUP5 PUSH20 0xFFFFFFFFFFFFFFFFFFFFFFFFFFFFFFFFFFFFFFFF AND PUSH20 0xFFFFFFFFFFFFFFFFFFFFFFFFFFFFFFFFFFFFFFFF AND DUP2 MSTORE PUSH1 0x20 ADD SWAP1 DUP2 MSTORE PUSH1 0x20 ADD PUSH0 KECCAK256 DUP2 SWAP1 SSTORE POP PUSH1 0x6 DUP2 SWAP1 DUP1 PUSH1 0x1 DUP2 SLOAD ADD DUP1 DUP3 SSTORE DUP1 SWAP2 POP POP PUSH1 0x1 SWAP1 SUB SWAP1 PUSH0 MSTORE PUSH1 0x20 PUSH0 KECCAK256 SWAP1 PUSH1 0x4 MUL ADD PUSH0 SWAP1 SWAP2 SWAP1 SWAP2 SWAP1 SWAP2 POP PUSH0 DUP3 ADD MLOAD DUP2 PUSH0 ADD SWAP1 DUP2 PUSH2 0x679 SWAP2 SWAP1 PUSH2 0x1F81 JUMP JUMPDEST POP PUSH1 0x20 DUP3 ADD MLOAD DUP2 PUSH1 0x1 ADD SSTORE PUSH1 0x40 DUP3 ADD MLOAD DUP2 PUSH1 0x2 ADD PUSH0 PUSH2 0x100 EXP DUP2 SLOAD DUP2 PUSH1 0xFF MUL NOT AND SWAP1 DUP4 ISZERO ISZERO MUL OR SWAP1 SSTORE POP PUSH1 0x60 DUP3 ADD MLOAD DUP2 PUSH1 0x2 ADD PUSH1 0x1 PUSH2 0x100 EXP DUP2 SLOAD DUP2 PUSH20 0xFFFFFFFFFFFFFFFFFFFFFFFFFFFFFFFFFFFFFFFF MUL NOT AND SWAP1 DUP4 PUSH20 0xFFFFFFFFFFFFFFFFFFFFFFFFFFFFFFFFFFFFFFFF AND MUL OR SWAP1 SSTORE POP PUSH1 0x80 DUP3 ADD MLOAD DUP2 PUSH1 0x3 ADD SSTORE POP POP PUSH32 0x68F068B2F0D02FCA99BC8285B62FCE8668FE16B7C6A810351EA25BFF358C0DD8 PUSH1 0x40 MLOAD PUSH2 0x723 SWAP1 PUSH2 0x209A JUMP JUMPDEST PUSH1 0x40 MLOAD DUP1 SWAP2 SUB SWAP1 LOG1 POP POP POP POP JUMP JUMPDEST PUSH1 0x2 DUP1 SLOAD PUSH2 0x73E SWAP1 PUSH2 0x1DB4 JUMP JUMPDEST DUP1 PUSH1 0x1F ADD PUSH1 0x20 DUP1 SWAP2 DIV MUL PUSH1 0x20 ADD PUSH1 0x40 MLOAD SWAP1 DUP2 ADD PUSH1 0x40 MSTORE DUP1 SWAP3 SWAP2 SWAP1 DUP2 DUP2 MSTORE PUSH1 0x20 ADD DUP3 DUP1 SLOAD PUSH2 0x76A SWAP1 PUSH2 0x1DB4 JUMP JUMPDEST DUP1 ISZERO PUSH2 0x7B5 JUMPI DUP1 PUSH1 0x1F LT PUSH2 0x78C JUMPI PUSH2 0x100 DUP1 DUP4 SLOAD DIV MUL DUP4 MSTORE SWAP2 PUSH1 0x20 ADD SWAP2 PUSH2 0x7B5 JUMP JUMPDEST DUP3 ADD SWAP2 SWAP1 PUSH0 MSTORE PUSH1 0x20 PUSH0 KECCAK256 SWAP1 JUMPDEST DUP2 SLOAD DUP2 MSTORE SWAP1 PUSH1 0x1 ADD SWAP1 PUSH1 0x20 ADD DUP1 DUP4 GT PUSH2 0x798 JUMPI DUP3 SWAP1 SUB PUSH1 0x1F AND DUP3 ADD SWAP2 JUMPDEST POP POP POP POP POP DUP2 JUMP JUMPDEST PUSH1 0x1 ISZERO ISZERO PUSH1 0x4 PUSH0 SWAP1 SLOAD SWAP1 PUSH2 0x100 EXP SWAP1 DIV PUSH1 0xFF AND ISZERO ISZERO EQ PUSH2 0x812 JUMPI PUSH1 0x40 MLOAD PUSH32 0x8C379A000000000000000000000000000000000000000000000000000000000 DUP2 MSTORE PUSH1 0x4 ADD PUSH2 0x809 SWAP1 PUSH2 0x2128 JUMP JUMPDEST PUSH1 0x40 MLOAD DUP1 SWAP2 SUB SWAP1 REVERT JUMPDEST PUSH0 DUP1 SLOAD SWAP1 PUSH2 0x100 EXP SWAP1 DIV PUSH20 0xFFFFFFFFFFFFFFFFFFFFFFFFFFFFFFFFFFFFFFFF AND PUSH20 0xFFFFFFFFFFFFFFFFFFFFFFFFFFFFFFFFFFFFFFFF AND CALLER PUSH20 0xFFFFFFFFFFFFFFFFFFFFFFFFFFFFFFFFFFFFFFFF AND SUB PUSH2 0x89F JUMPI PUSH1 0x40 MLOAD PUSH32 0x8C379A000000000000000000000000000000000000000000000000000000000 DUP2 MSTORE PUSH1 0x4 ADD PUSH2 0x896 SWAP1 PUSH2 0x2190 JUMP JUMPDEST PUSH1 0x40 MLOAD DUP1 SWAP2 SUB SWAP1 REVERT JUMPDEST PUSH1 0x1 ISZERO ISZERO PUSH1 0x7 PUSH0 CALLER PUSH20 0xFFFFFFFFFFFFFFFFFFFFFFFFFFFFFFFFFFFFFFFF AND PUSH20 0xFFFFFFFFFFFFFFFFFFFFFFFFFFFFFFFFFFFFFFFF AND DUP2 MSTORE PUSH1 0x20 ADD SWAP1 DUP2 MSTORE PUSH1 0x20 ADD PUSH0 KECCAK256 PUSH0 ADD PUSH0 SWAP1 SLOAD SWAP1 PUSH2 0x100 EXP SWAP1 DIV PUSH1 0xFF AND ISZERO ISZERO EQ PUSH2 0x931 JUMPI PUSH1 0x40 MLOAD PUSH32 0x8C379A000000000000000000000000000000000000000000000000000000000 DUP2 MSTORE PUSH1 0x4 ADD PUSH2 0x928 SWAP1 PUSH2 0x21F8 JUMP JUMPDEST PUSH1 0x40 MLOAD DUP1 SWAP2 SUB SWAP1 REVERT JUMPDEST PUSH0 ISZERO ISZERO PUSH1 0x7 PUSH0 CALLER PUSH20 0xFFFFFFFFFFFFFFFFFFFFFFFFFFFFFFFFFFFFFFFF AND PUSH20 0xFFFFFFFFFFFFFFFFFFFFFFFFFFFFFFFFFFFFFFFF AND DUP2 MSTORE PUSH1 0x20 ADD SWAP1 DUP2 MSTORE PUSH1 0x20 ADD PUSH0 KECCAK256 PUSH0 ADD PUSH1 0x1 SWAP1 SLOAD SWAP1 PUSH2 0x100 EXP SWAP1 DIV PUSH1 0xFF AND ISZERO ISZERO EQ PUSH2 0x9C3 JUMPI PUSH1 0x40 MLOAD PUSH32 0x8C379A000000000000000000000000000000000000000000000000000000000 DUP2 MSTORE PUSH1 0x4 ADD PUSH2 0x9BA SWAP1 PUSH2 0x2260 JUMP JUMPDEST PUSH1 0x40 MLOAD DUP1 SWAP2 SUB SWAP1 REVERT JUMPDEST PUSH1 0x1 ISZERO ISZERO PUSH1 0x6 PUSH1 0x5 PUSH0 DUP5 PUSH20 0xFFFFFFFFFFFFFFFFFFFFFFFFFFFFFFFFFFFFFFFF AND PUSH20 0xFFFFFFFFFFFFFFFFFFFFFFFFFFFFFFFFFFFFFFFF AND DUP2 MSTORE PUSH1 0x20 ADD SWAP1 DUP2 MSTORE PUSH1 0x20 ADD PUSH0 KECCAK256 SLOAD DUP2 SLOAD DUP2 LT PUSH2 0xA18 JUMPI PUSH2 0xA17 PUSH2 0x227E JUMP JUMPDEST JUMPDEST SWAP1 PUSH0 MSTORE PUSH1 0x20 PUSH0 KECCAK256 SWAP1 PUSH1 0x4 MUL ADD PUSH1 0x2 ADD PUSH0 SWAP1 SLOAD SWAP1 PUSH2 0x100 EXP SWAP1 DIV PUSH1 0xFF AND ISZERO ISZERO EQ PUSH2 0xA76 JUMPI PUSH1 0x40 MLOAD PUSH32 0x8C379A000000000000000000000000000000000000000000000000000000000 DUP2 MSTORE PUSH1 0x4 ADD PUSH2 0xA6D SWAP1 PUSH2 0x22F5 JUMP JUMPDEST PUSH1 0x40 MLOAD DUP1 SWAP2 SUB SWAP1 REVERT JUMPDEST PUSH1 0x6 PUSH1 0x5 PUSH0 DUP4 PUSH20 0xFFFFFFFFFFFFFFFFFFFFFFFFFFFFFFFFFFFFFFFF AND PUSH20 0xFFFFFFFFFFFFFFFFFFFFFFFFFFFFFFFFFFFFFFFF AND DUP2 MSTORE PUSH1 0x20 ADD SWAP1 DUP2 MSTORE PUSH1 0x20 ADD PUSH0 KECCAK256 SLOAD DUP2 SLOAD DUP2 LT PUSH2 0xAC7 JUMPI PUSH2 0xAC6 PUSH2 0x227E JUMP JUMPDEST JUMPDEST SWAP1 PUSH0 MSTORE PUSH1 0x20 PUSH0 KECCAK256 SWAP1 PUSH1 0x4 MUL ADD PUSH1 0x3 ADD PUSH0 DUP2 SLOAD DUP1 SWAP3 SWAP2 SWAP1 PUSH2 0xAE6 SWAP1 PUSH2 0x2340 JUMP JUMPDEST SWAP2 SWAP1 POP SSTORE POP PUSH1 0x1 PUSH1 0x7 PUSH0 CALLER PUSH20 0xFFFFFFFFFFFFFFFFFFFFFFFFFFFFFFFFFFFFFFFF AND PUSH20 0xFFFFFFFFFFFFFFFFFFFFFFFFFFFFFFFFFFFFFFFF AND DUP2 MSTORE PUSH1 0x20 ADD SWAP1 DUP2 MSTORE PUSH1 0x20 ADD PUSH0 KECCAK256 PUSH0 ADD PUSH1 0x1 PUSH2 0x100 EXP DUP2 SLOAD DUP2 PUSH1 0xFF MUL NOT AND SWAP1 DUP4 ISZERO ISZERO MUL OR SWAP1 SSTORE POP PUSH0 PUSH1 0x6 PUSH1 0x5 PUSH0 DUP5 PUSH20 0xFFFFFFFFFFFFFFFFFFFFFFFFFFFFFFFFFFFFFFFF AND PUSH20 0xFFFFFFFFFFFFFFFFFFFFFFFFFFFFFFFFFFFFFFFF AND DUP2 MSTORE PUSH1 0x20 ADD SWAP1 DUP2 MSTORE PUSH1 0x20 ADD PUSH0 KECCAK256 SLOAD DUP2 SLOAD DUP2 LT PUSH2 0xB95 JUMPI PUSH2 0xB94 PUSH2 0x227E JUMP JUMPDEST JUMPDEST SWAP1 PUSH0 MSTORE PUSH1 0x20 PUSH0 KECCAK256 SWAP1 PUSH1 0x4 MUL ADD PUSH1 0x3 ADD SLOAD SWAP1 POP DUP1 PUSH1 0x3 SLOAD LT ISZERO PUSH2 0xBF9 JUMPI DUP1 PUSH1 0x3 DUP2 SWAP1 SSTORE POP DUP2 PUSH1 0x1 PUSH0 PUSH2 0x100 EXP DUP2 SLOAD DUP2 PUSH20 0xFFFFFFFFFFFFFFFFFFFFFFFFFFFFFFFFFFFFFFFF MUL NOT AND SWAP1 DUP4 PUSH20 0xFFFFFFFFFFFFFFFFFFFFFFFFFFFFFFFFFFFFFFFF AND MUL OR SWAP1 SSTORE POP JUMPDEST PUSH32 0x68F068B2F0D02FCA99BC8285B62FCE8668FE16B7C6A810351EA25BFF358C0DD8 PUSH1 0x40 MLOAD PUSH2 0xC26 SWAP1 PUSH2 0x23D1 JUMP JUMPDEST PUSH1 0x40 MLOAD DUP1 SWAP2 SUB SWAP1 LOG1 POP POP JUMP JUMPDEST PUSH1 0x5 PUSH1 0x20 MSTORE DUP1 PUSH0 MSTORE PUSH1 0x40 PUSH0 KECCAK256 PUSH0 SWAP2 POP SWAP1 POP SLOAD DUP2 JUMP JUMPDEST PUSH0 DUP1 SLOAD SWAP1 PUSH2 0x100 EXP SWAP1 DIV PUSH20 0xFFFFFFFFFFFFFFFFFFFFFFFFFFFFFFFFFFFFFFFF AND DUP2 JUMP JUMPDEST PUSH2 0xC72 PUSH2 0x1488 JUMP JUMPDEST PUSH0 DUP1 SLOAD SWAP1 PUSH2 0x100 EXP SWAP1 DIV PUSH20 0xFFFFFFFFFFFFFFFFFFFFFFFFFFFFFFFFFFFFFFFF AND PUSH20 0xFFFFFFFFFFFFFFFFFFFFFFFFFFFFFFFFFFFFFFFF AND CALLER PUSH20 0xFFFFFFFFFFFFFFFFFFFFFFFFFFFFFFFFFFFFFFFF AND EQ PUSH2 0xCFF JUMPI PUSH1 0x40 MLOAD PUSH32 0x8C379A000000000000000000000000000000000000000000000000000000000 DUP2 MSTORE PUSH1 0x4 ADD PUSH2 0xCF6 SWAP1 PUSH2 0x2439 JUMP JUMPDEST PUSH1 0x40 MLOAD DUP1 SWAP2 SUB SWAP1 REVERT JUMPDEST PUSH1 0x6 PUSH1 0x5 PUSH0 PUSH1 0x1 PUSH0 SWAP1 SLOAD SWAP1 PUSH2 0x100 EXP SWAP1 DIV PUSH20 0xFFFFFFFFFFFFFFFFFFFFFFFFFFFFFFFFFFFFFFFF AND PUSH20 0xFFFFFFFFFFFFFFFFFFFFFFFFFFFFFFFFFFFFFFFF AND PUSH20 0xFFFFFFFFFFFFFFFFFFFFFFFFFFFFFFFFFFFFFFFF AND DUP2 MSTORE PUSH1 0x20 ADD SWAP1 DUP2 MSTORE PUSH1 0x20 ADD PUSH0 KECCAK256 SLOAD DUP2 SLOAD DUP2 LT PUSH2 0xD71 JUMPI PUSH2 0xD70 PUSH2 0x227E JUMP JUMPDEST JUMPDEST SWAP1 PUSH0 MSTORE PUSH1 0x20 PUSH0 KECCAK256 SWAP1 PUSH1 0x4 MUL ADD PUSH1 0x40 MLOAD DUP1 PUSH1 0xA0 ADD PUSH1 0x40 MSTORE SWAP1 DUP2 PUSH0 DUP3 ADD DUP1 SLOAD PUSH2 0xD97 SWAP1 PUSH2 0x1DB4 JUMP JUMPDEST DUP1 PUSH1 0x1F ADD PUSH1 0x20 DUP1 SWAP2 DIV MUL PUSH1 0x20 ADD PUSH1 0x40 MLOAD SWAP1 DUP2 ADD PUSH1 0x40 MSTORE DUP1 SWAP3 SWAP2 SWAP1 DUP2 DUP2 MSTORE PUSH1 0x20 ADD DUP3 DUP1 SLOAD PUSH2 0xDC3 SWAP1 PUSH2 0x1DB4 JUMP JUMPDEST DUP1 ISZERO PUSH2 0xE0E JUMPI DUP1 PUSH1 0x1F LT PUSH2 0xDE5 JUMPI PUSH2 0x100 DUP1 DUP4 SLOAD DIV MUL DUP4 MSTORE SWAP2 PUSH1 0x20 ADD SWAP2 PUSH2 0xE0E JUMP JUMPDEST DUP3 ADD SWAP2 SWAP1 PUSH0 MSTORE PUSH1 0x20 PUSH0 KECCAK256 SWAP1 JUMPDEST DUP2 SLOAD DUP2 MSTORE SWAP1 PUSH1 0x1 ADD SWAP1 PUSH1 0x20 ADD DUP1 DUP4 GT PUSH2 0xDF1 JUMPI DUP3 SWAP1 SUB PUSH1 0x1F AND DUP3 ADD SWAP2 JUMPDEST POP POP POP POP POP DUP2 MSTORE PUSH1 0x20 ADD PUSH1 0x1 DUP3 ADD SLOAD DUP2 MSTORE PUSH1 0x20 ADD PUSH1 0x2 DUP3 ADD PUSH0 SWAP1 SLOAD SWAP1 PUSH2 0x100 EXP SWAP1 DIV PUSH1 0xFF AND ISZERO ISZERO ISZERO ISZERO DUP2 MSTORE PUSH1 0x20 ADD PUSH1 0x2 DUP3 ADD PUSH1 0x1 SWAP1 SLOAD SWAP1 PUSH2 0x100 EXP SWAP1 DIV PUSH20 0xFFFFFFFFFFFFFFFFFFFFFFFFFFFFFFFFFFFFFFFF AND PUSH20 0xFFFFFFFFFFFFFFFFFFFFFFFFFFFFFFFFFFFFFFFF AND PUSH20 0xFFFFFFFFFFFFFFFFFFFFFFFFFFFFFFFFFFFFFFFF AND DUP2 MSTORE PUSH1 0x20 ADD PUSH1 0x3 DUP3 ADD SLOAD DUP2 MSTORE POP POP SWAP1 POP SWAP1 JUMP JUMPDEST PUSH1 0x6 DUP2 DUP2 SLOAD DUP2 LT PUSH2 0xEAF JUMPI PUSH0 DUP1 REVERT JUMPDEST SWAP1 PUSH0 MSTORE PUSH1 0x20 PUSH0 KECCAK256 SWAP1 PUSH1 0x4 MUL ADD PUSH0 SWAP2 POP SWAP1 POP DUP1 PUSH0 ADD DUP1 SLOAD PUSH2 0xECE SWAP1 PUSH2 0x1DB4 JUMP JUMPDEST DUP1 PUSH1 0x1F ADD PUSH1 0x20 DUP1 SWAP2 DIV MUL PUSH1 0x20 ADD PUSH1 0x40 MLOAD SWAP1 DUP2 ADD PUSH1 0x40 MSTORE DUP1 SWAP3 SWAP2 SWAP1 DUP2 DUP2 MSTORE PUSH1 0x20 ADD DUP3 DUP1 SLOAD PUSH2 0xEFA SWAP1 PUSH2 0x1DB4 JUMP JUMPDEST DUP1 ISZERO PUSH2 0xF45 JUMPI DUP1 PUSH1 0x1F LT PUSH2 0xF1C JUMPI PUSH2 0x100 DUP1 DUP4 SLOAD DIV MUL DUP4 MSTORE SWAP2 PUSH1 0x20 ADD SWAP2 PUSH2 0xF45 JUMP JUMPDEST DUP3 ADD SWAP2 SWAP1 PUSH0 MSTORE PUSH1 0x20 PUSH0 KECCAK256 SWAP1 JUMPDEST DUP2 SLOAD DUP2 MSTORE SWAP1 PUSH1 0x1 ADD SWAP1 PUSH1 0x20 ADD DUP1 DUP4 GT PUSH2 0xF28 JUMPI DUP3 SWAP1 SUB PUSH1 0x1F AND DUP3 ADD SWAP2 JUMPDEST POP POP POP POP POP SWAP1 DUP1 PUSH1 0x1 ADD SLOAD SWAP1 DUP1 PUSH1 0x2 ADD PUSH0 SWAP1 SLOAD SWAP1 PUSH2 0x100 EXP SWAP1 DIV PUSH1 0xFF AND SWAP1 DUP1 PUSH1 0x2 ADD PUSH1 0x1 SWAP1 SLOAD SWAP1 PUSH2 0x100 EXP SWAP1 DIV PUSH20 0xFFFFFFFFFFFFFFFFFFFFFFFFFFFFFFFFFFFFFFFF AND SWAP1 DUP1 PUSH1 0x3 ADD SLOAD SWAP1 POP DUP6 JUMP JUMPDEST PUSH0 DUP1 SLOAD SWAP1 PUSH2 0x100 EXP SWAP1 DIV PUSH20 0xFFFFFFFFFFFFFFFFFFFFFFFFFFFFFFFFFFFFFFFF AND PUSH20 0xFFFFFFFFFFFFFFFFFFFFFFFFFFFFFFFFFFFFFFFF AND DUP2 PUSH20 0xFFFFFFFFFFFFFFFFFFFFFFFFFFFFFFFFFFFFFFFF AND SUB PUSH2 0x1020 JUMPI PUSH1 0x40 MLOAD PUSH32 0x8C379A000000000000000000000000000000000000000000000000000000000 DUP2 MSTORE PUSH1 0x4 ADD PUSH2 0x1017 SWAP1 PUSH2 0x2190 JUMP JUMPDEST PUSH1 0x40 MLOAD DUP1 SWAP2 SUB SWAP1 REVERT JUMPDEST PUSH0 DUP1 SLOAD SWAP1 PUSH2 0x100 EXP SWAP1 DIV PUSH20 0xFFFFFFFFFFFFFFFFFFFFFFFFFFFFFFFFFFFFFFFF AND PUSH20 0xFFFFFFFFFFFFFFFFFFFFFFFFFFFFFFFFFFFFFFFF AND CALLER PUSH20 0xFFFFFFFFFFFFFFFFFFFFFFFFFFFFFFFFFFFFFFFF AND EQ PUSH2 0x10AD JUMPI PUSH1 0x40 MLOAD PUSH32 0x8C379A000000000000000000000000000000000000000000000000000000000 DUP2 MSTORE PUSH1 0x4 ADD PUSH2 0x10A4 SWAP1 PUSH2 0x24C7 JUMP JUMPDEST PUSH1 0x40 MLOAD DUP1 SWAP2 SUB SWAP1 REVERT JUMPDEST PUSH0 ISZERO ISZERO PUSH1 0x7 PUSH0 DUP4 PUSH20 0xFFFFFFFFFFFFFFFFFFFFFFFFFFFFFFFFFFFFFFFF AND PUSH20 0xFFFFFFFFFFFFFFFFFFFFFFFFFFFFFFFFFFFFFFFF AND DUP2 MSTORE PUSH1 0x20 ADD SWAP1 DUP2 MSTORE PUSH1 0x20 ADD PUSH0 KECCAK256 PUSH0 ADD PUSH0 SWAP1 SLOAD SWAP1 PUSH2 0x100 EXP SWAP1 DIV PUSH1 0xFF AND ISZERO ISZERO EQ PUSH2 0x113E JUMPI PUSH1 0x40 MLOAD PUSH32 0x8C379A000000000000000000000000000000000000000000000000000000000 DUP2 MSTORE PUSH1 0x4 ADD PUSH2 0x1135 SWAP1 PUSH2 0x252F JUMP JUMPDEST PUSH1 0x40 MLOAD DUP1 SWAP2 SUB SWAP1 REVERT JUMPDEST PUSH0 PUSH1 0x40 MLOAD DUP1 PUSH1 0x40 ADD PUSH1 0x40 MSTORE DUP1 PUSH1 0x1 ISZERO ISZERO DUP2 MSTORE PUSH1 0x20 ADD PUSH0 ISZERO ISZERO DUP2 MSTORE POP SWAP1 POP DUP1 PUSH1 0x7 PUSH0 DUP5 PUSH20 0xFFFFFFFFFFFFFFFFFFFFFFFFFFFFFFFFFFFFFFFF AND PUSH20 0xFFFFFFFFFFFFFFFFFFFFFFFFFFFFFFFFFFFFFFFF AND DUP2 MSTORE PUSH1 0x20 ADD SWAP1 DUP2 MSTORE PUSH1 0x20 ADD PUSH0 KECCAK256 PUSH0 DUP3 ADD MLOAD DUP2 PUSH0 ADD PUSH0 PUSH2 0x100 EXP DUP2 SLOAD DUP2 PUSH1 0xFF MUL NOT AND SWAP1 DUP4 ISZERO ISZERO MUL OR SWAP1 SSTORE POP PUSH1 0x20 DUP3 ADD MLOAD DUP2 PUSH0 ADD PUSH1 0x1 PUSH2 0x100 EXP DUP2 SLOAD DUP2 PUSH1 0xFF MUL NOT AND SWAP1 DUP4 ISZERO ISZERO MUL OR SWAP1 SSTORE POP SWAP1 POP POP PUSH32 0x68F068B2F0D02FCA99BC8285B62FCE8668FE16B7C6A810351EA25BFF358C0DD8 PUSH1 0x40 MLOAD PUSH2 0x1205 SWAP1 PUSH2 0x2597 JUMP JUMPDEST PUSH1 0x40 MLOAD DUP1 SWAP2 SUB SWAP1 LOG1 POP POP JUMP JUMPDEST PUSH1 0x1 PUSH0 SWAP1 SLOAD SWAP1 PUSH2 0x100 EXP SWAP1 DIV PUSH20 0xFFFFFFFFFFFFFFFFFFFFFFFFFFFFFFFFFFFFFFFF AND DUP2 JUMP JUMPDEST PUSH1 0x60 PUSH1 0x6 DUP1 SLOAD DUP1 PUSH1 0x20 MUL PUSH1 0x20 ADD PUSH1 0x40 MLOAD SWAP1 DUP2 ADD PUSH1 0x40 MSTORE DUP1 SWAP3 SWAP2 SWAP1 DUP2 DUP2 MSTORE PUSH1 0x20 ADD PUSH0 SWAP1 JUMPDEST DUP3 DUP3 LT ISZERO PUSH2 0x139C JUMPI DUP4 DUP3 SWAP1 PUSH0 MSTORE PUSH1 0x20 PUSH0 KECCAK256 SWAP1 PUSH1 0x4 MUL ADD PUSH1 0x40 MLOAD DUP1 PUSH1 0xA0 ADD PUSH1 0x40 MSTORE SWAP1 DUP2 PUSH0 DUP3 ADD DUP1 SLOAD PUSH2 0x1289 SWAP1 PUSH2 0x1DB4 JUMP JUMPDEST DUP1 PUSH1 0x1F ADD PUSH1 0x20 DUP1 SWAP2 DIV MUL PUSH1 0x20 ADD PUSH1 0x40 MLOAD SWAP1 DUP2 ADD PUSH1 0x40 MSTORE DUP1 SWAP3 SWAP2 SWAP1 DUP2 DUP2 MSTORE PUSH1 0x20 ADD DUP3 DUP1 SLOAD PUSH2 0x12B5 SWAP1 PUSH2 0x1DB4 JUMP JUMPDEST DUP1 ISZERO PUSH2 0x1300 JUMPI DUP1 PUSH1 0x1F LT PUSH2 0x12D7 JUMPI PUSH2 0x100 DUP1 DUP4 SLOAD DIV MUL DUP4 MSTORE SWAP2 PUSH1 0x20 ADD SWAP2 PUSH2 0x1300 JUMP JUMPDEST DUP3 ADD SWAP2 SWAP1 PUSH0 MSTORE PUSH1 0x20 PUSH0 KECCAK256 SWAP1 JUMPDEST DUP2 SLOAD DUP2 MSTORE SWAP1 PUSH1 0x1 ADD SWAP1 PUSH1 0x20 ADD DUP1 DUP4 GT PUSH2 0x12E3 JUMPI DUP3 SWAP1 SUB PUSH1 0x1F AND DUP3 ADD SWAP2 JUMPDEST POP POP POP POP POP DUP2 MSTORE PUSH1 0x20 ADD PUSH1 0x1 DUP3 ADD SLOAD DUP2 MSTORE PUSH1 0x20 ADD PUSH1 0x2 DUP3 ADD PUSH0 SWAP1 SLOAD SWAP1 PUSH2 0x100 EXP SWAP1 DIV PUSH1 0xFF AND ISZERO ISZERO ISZERO ISZERO DUP2 MSTORE PUSH1 0x20 ADD PUSH1 0x2 DUP3 ADD PUSH1 0x1 SWAP1 SLOAD SWAP1 PUSH2 0x100 EXP SWAP1 DIV PUSH20 0xFFFFFFFFFFFFFFFFFFFFFFFFFFFFFFFFFFFFFFFF AND PUSH20 0xFFFFFFFFFFFFFFFFFFFFFFFFFFFFFFFFFFFFFFFF AND PUSH20 0xFFFFFFFFFFFFFFFFFFFFFFFFFFFFFFFFFFFFFFFF AND DUP2 MSTORE PUSH1 0x20 ADD PUSH1 0x3 DUP3 ADD SLOAD DUP2 MSTORE POP POP DUP2 MSTORE PUSH1 0x20 ADD SWAP1 PUSH1 0x1 ADD SWAP1 PUSH2 0x1259 JUMP JUMPDEST POP POP POP POP SWAP1 POP SWAP1 JUMP JUMPDEST PUSH1 0x3 SLOAD DUP2 JUMP JUMPDEST PUSH0 DUP1 SLOAD SWAP1 PUSH2 0x100 EXP SWAP1 DIV PUSH20 0xFFFFFFFFFFFFFFFFFFFFFFFFFFFFFFFFFFFFFFFF AND PUSH20 0xFFFFFFFFFFFFFFFFFFFFFFFFFFFFFFFFFFFFFFFF AND CALLER PUSH20 0xFFFFFFFFFFFFFFFFFFFFFFFFFFFFFFFFFFFFFFFF AND EQ PUSH2 0x1438 JUMPI PUSH1 0x40 MLOAD PUSH32 0x8C379A000000000000000000000000000000000000000000000000000000000 DUP2 MSTORE PUSH1 0x4 ADD PUSH2 0x142F SWAP1 PUSH2 0x1BA3 JUMP JUMPDEST PUSH1 0x40 MLOAD DUP1 SWAP2 SUB SWAP1 REVERT JUMPDEST PUSH0 PUSH1 0x4 PUSH0 PUSH2 0x100 EXP DUP2 SLOAD DUP2 PUSH1 0xFF MUL NOT AND SWAP1 DUP4 ISZERO ISZERO MUL OR SWAP1 SSTORE POP PUSH32 0x68F068B2F0D02FCA99BC8285B62FCE8668FE16B7C6A810351EA25BFF358C0DD8 PUSH1 0x40 MLOAD PUSH2 0x147E SWAP1 PUSH2 0x25FF JUMP JUMPDEST PUSH1 0x40 MLOAD DUP1 SWAP2 SUB SWAP1 LOG1 JUMP JUMPDEST PUSH1 0x40 MLOAD DUP1 PUSH1 0xA0 ADD PUSH1 0x40 MSTORE DUP1 PUSH1 0x60 DUP2 MSTORE PUSH1 0x20 ADD PUSH0 DUP2 MSTORE PUSH1 0x20 ADD PUSH0 ISZERO ISZERO DUP2 MSTORE PUSH1 0x20 ADD PUSH0 PUSH20 0xFFFFFFFFFFFFFFFFFFFFFFFFFFFFFFFFFFFFFFFF AND DUP2 MSTORE PUSH1 0x20 ADD PUSH0 DUP2 MSTORE POP SWAP1 JUMP JUMPDEST PUSH0 PUSH1 0x40 MLOAD SWAP1 POP SWAP1 JUMP JUMPDEST PUSH0 DUP1 REVERT JUMPDEST PUSH0 DUP1 REVERT JUMPDEST PUSH0 PUSH20 0xFFFFFFFFFFFFFFFFFFFFFFFFFFFFFFFFFFFFFFFF DUP3 AND SWAP1 POP SWAP2 SWAP1 POP JUMP JUMPDEST PUSH0 PUSH2 0x1505 DUP3 PUSH2 0x14DC JUMP JUMPDEST SWAP1 POP SWAP2 SWAP1 POP JUMP JUMPDEST PUSH2 0x1515 DUP2 PUSH2 0x14FB JUMP JUMPDEST DUP2 EQ PUSH2 0x151F JUMPI PUSH0 DUP1 REVERT JUMPDEST POP JUMP JUMPDEST PUSH0 DUP2 CALLDATALOAD SWAP1 POP PUSH2 0x1530 DUP2 PUSH2 0x150C JUMP JUMPDEST SWAP3 SWAP2 POP POP JUMP JUMPDEST PUSH0 PUSH1 0x20 DUP3 DUP5 SUB SLT ISZERO PUSH2 0x154B JUMPI PUSH2 0x154A PUSH2 0x14D4 JUMP JUMPDEST JUMPDEST PUSH0 PUSH2 0x1558 DUP5 DUP3 DUP6 ADD PUSH2 0x1522 JUMP JUMPDEST SWAP2 POP POP SWAP3 SWAP2 POP POP JUMP JUMPDEST PUSH0 DUP2 ISZERO ISZERO SWAP1 POP SWAP2 SWAP1 POP JUMP JUMPDEST PUSH2 0x1575 DUP2 PUSH2 0x1561 JUMP JUMPDEST DUP3 MSTORE POP POP JUMP JUMPDEST PUSH0 PUSH1 0x40 DUP3 ADD SWAP1 POP PUSH2 0x158E PUSH0 DUP4 ADD DUP6 PUSH2 0x156C JUMP JUMPDEST PUSH2 0x159B PUSH1 0x20 DUP4 ADD DUP5 PUSH2 0x156C JUMP JUMPDEST SWAP4 SWAP3 POP POP POP JUMP JUMPDEST PUSH0 PUSH1 0x20 DUP3 ADD SWAP1 POP PUSH2 0x15B5 PUSH0 DUP4 ADD DUP5 PUSH2 0x156C JUMP JUMPDEST SWAP3 SWAP2 POP POP JUMP JUMPDEST PUSH0 DUP1 REVERT JUMPDEST PUSH0 DUP1 REVERT JUMPDEST PUSH0 PUSH1 0x1F NOT PUSH1 0x1F DUP4 ADD AND SWAP1 POP SWAP2 SWAP1 POP JUMP JUMPDEST PUSH32 0x4E487B7100000000000000000000000000000000000000000000000000000000 PUSH0 MSTORE PUSH1 0x41 PUSH1 0x4 MSTORE PUSH1 0x24 PUSH0 REVERT JUMPDEST PUSH2 0x1609 DUP3 PUSH2 0x15C3 JUMP JUMPDEST DUP2 ADD DUP2 DUP2 LT PUSH8 0xFFFFFFFFFFFFFFFF DUP3 GT OR ISZERO PUSH2 0x1628 JUMPI PUSH2 0x1627 PUSH2 0x15D3 JUMP JUMPDEST JUMPDEST DUP1 PUSH1 0x40 MSTORE POP POP POP JUMP JUMPDEST PUSH0 PUSH2 0x163A PUSH2 0x14CB JUMP JUMPDEST SWAP1 POP PUSH2 0x1646 DUP3 DUP3 PUSH2 0x1600 JUMP JUMPDEST SWAP2 SWAP1 POP JUMP JUMPDEST PUSH0 PUSH8 0xFFFFFFFFFFFFFFFF DUP3 GT ISZERO PUSH2 0x1665 JUMPI PUSH2 0x1664 PUSH2 0x15D3 JUMP JUMPDEST JUMPDEST PUSH2 0x166E DUP3 PUSH2 0x15C3 JUMP JUMPDEST SWAP1 POP PUSH1 0x20 DUP2 ADD SWAP1 POP SWAP2 SWAP1 POP JUMP JUMPDEST DUP3 DUP2 DUP4 CALLDATACOPY PUSH0 DUP4 DUP4 ADD MSTORE POP POP POP JUMP JUMPDEST PUSH0 PUSH2 0x169B PUSH2 0x1696 DUP5 PUSH2 0x164B JUMP JUMPDEST PUSH2 0x1631 JUMP JUMPDEST SWAP1 POP DUP3 DUP2 MSTORE PUSH1 0x20 DUP2 ADD DUP5 DUP5 DUP5 ADD GT ISZERO PUSH2 0x16B7 JUMPI PUSH2 0x16B6 PUSH2 0x15BF JUMP JUMPDEST JUMPDEST PUSH2 0x16C2 DUP5 DUP3 DUP6 PUSH2 0x167B JUMP JUMPDEST POP SWAP4 SWAP3 POP POP POP JUMP JUMPDEST PUSH0 DUP3 PUSH1 0x1F DUP4 ADD SLT PUSH2 0x16DE JUMPI PUSH2 0x16DD PUSH2 0x15BB JUMP JUMPDEST JUMPDEST DUP2 CALLDATALOAD PUSH2 0x16EE DUP5 DUP3 PUSH1 0x20 DUP7 ADD PUSH2 0x1689 JUMP JUMPDEST SWAP2 POP POP SWAP3 SWAP2 POP POP JUMP JUMPDEST PUSH0 DUP2 SWAP1 POP SWAP2 SWAP1 POP JUMP JUMPDEST PUSH2 0x1709 DUP2 PUSH2 0x16F7 JUMP JUMPDEST DUP2 EQ PUSH2 0x1713 JUMPI PUSH0 DUP1 REVERT JUMPDEST POP JUMP JUMPDEST PUSH0 DUP2 CALLDATALOAD SWAP1 POP PUSH2 0x1724 DUP2 PUSH2 0x1700 JUMP JUMPDEST SWAP3 SWAP2 POP POP JUMP JUMPDEST PUSH0 DUP1 PUSH0 PUSH1 0x60 DUP5 DUP7 SUB SLT ISZERO PUSH2 0x1741 JUMPI PUSH2 0x1740 PUSH2 0x14D4 JUMP JUMPDEST JUMPDEST PUSH0 DUP5 ADD CALLDATALOAD PUSH8 0xFFFFFFFFFFFFFFFF DUP2 GT ISZERO PUSH2 0x175E JUMPI PUSH2 0x175D PUSH2 0x14D8 JUMP JUMPDEST JUMPDEST PUSH2 0x176A DUP7 DUP3 DUP8 ADD PUSH2 0x16CA JUMP JUMPDEST SWAP4 POP POP PUSH1 0x20 PUSH2 0x177B DUP7 DUP3 DUP8 ADD PUSH2 0x1716 JUMP JUMPDEST SWAP3 POP POP PUSH1 0x40 PUSH2 0x178C DUP7 DUP3 DUP8 ADD PUSH2 0x1522 JUMP JUMPDEST SWAP2 POP POP SWAP3 POP SWAP3 POP SWAP3 JUMP JUMPDEST PUSH0 DUP2 MLOAD SWAP1 POP SWAP2 SWAP1 POP JUMP JUMPDEST PUSH0 DUP3 DUP3 MSTORE PUSH1 0x20 DUP3 ADD SWAP1 POP SWAP3 SWAP2 POP POP JUMP JUMPDEST PUSH0 JUMPDEST DUP4 DUP2 LT ISZERO PUSH2 0x17CD JUMPI DUP1 DUP3 ADD MLOAD DUP2 DUP5 ADD MSTORE PUSH1 0x20 DUP2 ADD SWAP1 POP PUSH2 0x17B2 JUMP JUMPDEST PUSH0 DUP5 DUP5 ADD MSTORE POP POP POP POP JUMP JUMPDEST PUSH0 PUSH2 0x17E2 DUP3 PUSH2 0x1796 JUMP JUMPDEST PUSH2 0x17EC DUP2 DUP6 PUSH2 0x17A0 JUMP JUMPDEST SWAP4 POP PUSH2 0x17FC DUP2 DUP6 PUSH1 0x20 DUP7 ADD PUSH2 0x17B0 JUMP JUMPDEST PUSH2 0x1805 DUP2 PUSH2 0x15C3 JUMP JUMPDEST DUP5 ADD SWAP2 POP POP SWAP3 SWAP2 POP POP JUMP JUMPDEST PUSH0 PUSH1 0x20 DUP3 ADD SWAP1 POP DUP2 DUP2 SUB PUSH0 DUP4 ADD MSTORE PUSH2 0x1828 DUP2 DUP5 PUSH2 0x17D8 JUMP JUMPDEST SWAP1 POP SWAP3 SWAP2 POP POP JUMP JUMPDEST PUSH2 0x1839 DUP2 PUSH2 0x16F7 JUMP JUMPDEST DUP3 MSTORE POP POP JUMP JUMPDEST PUSH0 PUSH1 0x20 DUP3 ADD SWAP1 POP PUSH2 0x1852 PUSH0 DUP4 ADD DUP5 PUSH2 0x1830 JUMP JUMPDEST SWAP3 SWAP2 POP POP JUMP JUMPDEST PUSH2 0x1861 DUP2 PUSH2 0x14FB JUMP JUMPDEST DUP3 MSTORE POP POP JUMP JUMPDEST PUSH0 PUSH1 0x20 DUP3 ADD SWAP1 POP PUSH2 0x187A PUSH0 DUP4 ADD DUP5 PUSH2 0x1858 JUMP JUMPDEST SWAP3 SWAP2 POP POP JUMP JUMPDEST PUSH0 DUP3 DUP3 MSTORE PUSH1 0x20 DUP3 ADD SWAP1 POP SWAP3 SWAP2 POP POP JUMP JUMPDEST PUSH0 PUSH2 0x189A DUP3 PUSH2 0x1796 JUMP JUMPDEST PUSH2 0x18A4 DUP2 DUP6 PUSH2 0x1880 JUMP JUMPDEST SWAP4 POP PUSH2 0x18B4 DUP2 DUP6 PUSH1 0x20 DUP7 ADD PUSH2 0x17B0 JUMP JUMPDEST PUSH2 0x18BD DUP2 PUSH2 0x15C3 JUMP JUMPDEST DUP5 ADD SWAP2 POP POP SWAP3 SWAP2 POP POP JUMP JUMPDEST PUSH2 0x18D1 DUP2 PUSH2 0x16F7 JUMP JUMPDEST DUP3 MSTORE POP POP JUMP JUMPDEST PUSH2 0x18E0 DUP2 PUSH2 0x1561 JUMP JUMPDEST DUP3 MSTORE POP POP JUMP JUMPDEST PUSH2 0x18EF DUP2 PUSH2 0x14FB JUMP JUMPDEST DUP3 MSTORE POP POP JUMP JUMPDEST PUSH0 PUSH1 0xA0 DUP4 ADD PUSH0 DUP4 ADD MLOAD DUP5 DUP3 SUB PUSH0 DUP7 ADD MSTORE PUSH2 0x190F DUP3 DUP3 PUSH2 0x1890 JUMP JUMPDEST SWAP2 POP POP PUSH1 0x20 DUP4 ADD MLOAD PUSH2 0x1924 PUSH1 0x20 DUP7 ADD DUP3 PUSH2 0x18C8 JUMP JUMPDEST POP PUSH1 0x40 DUP4 ADD MLOAD PUSH2 0x1937 PUSH1 0x40 DUP7 ADD DUP3 PUSH2 0x18D7 JUMP JUMPDEST POP PUSH1 0x60 DUP4 ADD MLOAD PUSH2 0x194A PUSH1 0x60 DUP7 ADD DUP3 PUSH2 0x18E6 JUMP JUMPDEST POP PUSH1 0x80 DUP4 ADD MLOAD PUSH2 0x195D PUSH1 0x80 DUP7 ADD DUP3 PUSH2 0x18C8 JUMP JUMPDEST POP DUP1 SWAP2 POP POP SWAP3 SWAP2 POP POP JUMP JUMPDEST PUSH0 PUSH1 0x20 DUP3 ADD SWAP1 POP DUP2 DUP2 SUB PUSH0 DUP4 ADD MSTORE PUSH2 0x1980 DUP2 DUP5 PUSH2 0x18F5 JUMP JUMPDEST SWAP1 POP SWAP3 SWAP2 POP POP JUMP JUMPDEST PUSH0 PUSH1 0x20 DUP3 DUP5 SUB SLT ISZERO PUSH2 0x199D JUMPI PUSH2 0x199C PUSH2 0x14D4 JUMP JUMPDEST JUMPDEST PUSH0 PUSH2 0x19AA DUP5 DUP3 DUP6 ADD PUSH2 0x1716 JUMP JUMPDEST SWAP2 POP POP SWAP3 SWAP2 POP POP JUMP JUMPDEST PUSH0 PUSH1 0xA0 DUP3 ADD SWAP1 POP DUP2 DUP2 SUB PUSH0 DUP4 ADD MSTORE PUSH2 0x19CB DUP2 DUP9 PUSH2 0x17D8 JUMP JUMPDEST SWAP1 POP PUSH2 0x19DA PUSH1 0x20 DUP4 ADD DUP8 PUSH2 0x1830 JUMP JUMPDEST PUSH2 0x19E7 PUSH1 0x40 DUP4 ADD DUP7 PUSH2 0x156C JUMP JUMPDEST PUSH2 0x19F4 PUSH1 0x60 DUP4 ADD DUP6 PUSH2 0x1858 JUMP JUMPDEST PUSH2 0x1A01 PUSH1 0x80 DUP4 ADD DUP5 PUSH2 0x1830 JUMP JUMPDEST SWAP7 SWAP6 POP POP POP POP POP POP JUMP JUMPDEST PUSH0 DUP2 MLOAD SWAP1 POP SWAP2 SWAP1 POP JUMP JUMPDEST PUSH0 DUP3 DUP3 MSTORE PUSH1 0x20 DUP3 ADD SWAP1 POP SWAP3 SWAP2 POP POP JUMP JUMPDEST PUSH0 DUP2 SWAP1 POP PUSH1 0x20 DUP3 ADD SWAP1 POP SWAP2 SWAP1 POP JUMP JUMPDEST PUSH0 PUSH1 0xA0 DUP4 ADD PUSH0 DUP4 ADD MLOAD DUP5 DUP3 SUB PUSH0 DUP7 ADD MSTORE PUSH2 0x1A4E DUP3 DUP3 PUSH2 0x1890 JUMP JUMPDEST SWAP2 POP POP PUSH1 0x20 DUP4 ADD MLOAD PUSH2 0x1A63 PUSH1 0x20 DUP7 ADD DUP3 PUSH2 0x18C8 JUMP JUMPDEST POP PUSH1 0x40 DUP4 ADD MLOAD PUSH2 0x1A76 PUSH1 0x40 DUP7 ADD DUP3 PUSH2 0x18D7 JUMP JUMPDEST POP PUSH1 0x60 DUP4 ADD MLOAD PUSH2 0x1A89 PUSH1 0x60 DUP7 ADD DUP3 PUSH2 0x18E6 JUMP JUMPDEST POP PUSH1 0x80 DUP4 ADD MLOAD PUSH2 0x1A9C PUSH1 0x80 DUP7 ADD DUP3 PUSH2 0x18C8 JUMP JUMPDEST POP DUP1 SWAP2 POP POP SWAP3 SWAP2 POP POP JUMP JUMPDEST PUSH0 PUSH2 0x1AB2 DUP4 DUP4 PUSH2 0x1A34 JUMP JUMPDEST SWAP1 POP SWAP3 SWAP2 POP POP JUMP JUMPDEST PUSH0 PUSH1 0x20 DUP3 ADD SWAP1 POP SWAP2 SWAP1 POP JUMP JUMPDEST PUSH0 PUSH2 0x1AD0 DUP3 PUSH2 0x1A0B JUMP JUMPDEST PUSH2 0x1ADA DUP2 DUP6 PUSH2 0x1A15 JUMP JUMPDEST SWAP4 POP DUP4 PUSH1 0x20 DUP3 MUL DUP6 ADD PUSH2 0x1AEC DUP6 PUSH2 0x1A25 JUMP JUMPDEST DUP1 PUSH0 JUMPDEST DUP6 DUP2 LT ISZERO PUSH2 0x1B27 JUMPI DUP5 DUP5 SUB DUP10 MSTORE DUP2 MLOAD PUSH2 0x1B08 DUP6 DUP3 PUSH2 0x1AA7 JUMP JUMPDEST SWAP5 POP PUSH2 0x1B13 DUP4 PUSH2 0x1ABA JUMP JUMPDEST SWAP3 POP PUSH1 0x20 DUP11 ADD SWAP10 POP POP PUSH1 0x1 DUP2 ADD SWAP1 POP PUSH2 0x1AEF JUMP JUMPDEST POP DUP3 SWAP8 POP DUP8 SWAP6 POP POP POP POP POP POP SWAP3 SWAP2 POP POP JUMP JUMPDEST PUSH0 PUSH1 0x20 DUP3 ADD SWAP1 POP DUP2 DUP2 SUB PUSH0 DUP4 ADD MSTORE PUSH2 0x1B51 DUP2 DUP5 PUSH2 0x1AC6 JUMP JUMPDEST SWAP1 POP SWAP3 SWAP2 POP POP JUMP JUMPDEST PUSH32 0x4F6E6C79206F776E65722063616E20737461727420766F74696E672121000000 PUSH0 DUP3 ADD MSTORE POP JUMP JUMPDEST PUSH0 PUSH2 0x1B8D PUSH1 0x1D DUP4 PUSH2 0x17A0 JUMP JUMPDEST SWAP2 POP PUSH2 0x1B98 DUP3 PUSH2 0x1B59 JUMP JUMPDEST PUSH1 0x20 DUP3 ADD SWAP1 POP SWAP2 SWAP1 POP JUMP JUMPDEST PUSH0 PUSH1 0x20 DUP3 ADD SWAP1 POP DUP2 DUP2 SUB PUSH0 DUP4 ADD MSTORE PUSH2 0x1BBA DUP2 PUSH2 0x1B81 JUMP JUMPDEST SWAP1 POP SWAP2 SWAP1 POP JUMP JUMPDEST PUSH32 0x566F74696E672053746172746564212100000000000000000000000000000000 PUSH0 DUP3 ADD MSTORE POP JUMP JUMPDEST PUSH0 PUSH2 0x1BF5 PUSH1 0x10 DUP4 PUSH2 0x17A0 JUMP JUMPDEST SWAP2 POP PUSH2 0x1C00 DUP3 PUSH2 0x1BC1 JUMP JUMPDEST PUSH1 0x20 DUP3 ADD SWAP1 POP SWAP2 SWAP1 POP JUMP JUMPDEST PUSH0 PUSH1 0x20 DUP3 ADD SWAP1 POP DUP2 DUP2 SUB PUSH0 DUP4 ADD MSTORE PUSH2 0x1C22 DUP2 PUSH2 0x1BE9 JUMP JUMPDEST SWAP1 POP SWAP2 SWAP1 POP JUMP JUMPDEST PUSH32 0x4F6E6C79206F776E65722063616E2072656769737465722043616E6469646174 PUSH0 DUP3 ADD MSTORE PUSH32 0x6521210000000000000000000000000000000000000000000000000000000000 PUSH1 0x20 DUP3 ADD MSTORE POP JUMP JUMPDEST PUSH0 PUSH2 0x1C83 PUSH1 0x23 DUP4 PUSH2 0x17A0 JUMP JUMPDEST SWAP2 POP PUSH2 0x1C8E DUP3 PUSH2 0x1C29 JUMP JUMPDEST PUSH1 0x40 DUP3 ADD SWAP1 POP SWAP2 SWAP1 POP JUMP JUMPDEST PUSH0 PUSH1 0x20 DUP3 ADD SWAP1 POP DUP2 DUP2 SUB PUSH0 DUP4 ADD MSTORE PUSH2 0x1CB0 DUP2 PUSH2 0x1C77 JUMP JUMPDEST SWAP1 POP SWAP2 SWAP1 POP JUMP JUMPDEST PUSH32 0x4F776E65722063616E206E6F7420706172746963697061746521210000000000 PUSH0 DUP3 ADD MSTORE POP JUMP JUMPDEST PUSH0 PUSH2 0x1CEB PUSH1 0x1B DUP4 PUSH2 0x17A0 JUMP JUMPDEST SWAP2 POP PUSH2 0x1CF6 DUP3 PUSH2 0x1CB7 JUMP JUMPDEST PUSH1 0x20 DUP3 ADD SWAP1 POP SWAP2 SWAP1 POP JUMP JUMPDEST PUSH0 PUSH1 0x20 DUP3 ADD SWAP1 POP DUP2 DUP2 SUB PUSH0 DUP4 ADD MSTORE PUSH2 0x1D18 DUP2 PUSH2 0x1CDF JUMP JUMPDEST SWAP1 POP SWAP2 SWAP1 POP JUMP JUMPDEST PUSH32 0x43616E64696461746520616C7265616479207265676973746572656400000000 PUSH0 DUP3 ADD MSTORE POP JUMP JUMPDEST PUSH0 PUSH2 0x1D53 PUSH1 0x1C DUP4 PUSH2 0x17A0 JUMP JUMPDEST SWAP2 POP PUSH2 0x1D5E DUP3 PUSH2 0x1D1F JUMP JUMPDEST PUSH1 0x20 DUP3 ADD SWAP1 POP SWAP2 SWAP1 POP JUMP JUMPDEST PUSH0 PUSH1 0x20 DUP3 ADD SWAP1 POP DUP2 DUP2 SUB PUSH0 DUP4 ADD MSTORE PUSH2 0x1D80 DUP2 PUSH2 0x1D47 JUMP JUMPDEST SWAP1 POP SWAP2 SWAP1 POP JUMP JUMPDEST PUSH32 0x4E487B7100000000000000000000000000000000000000000000000000000000 PUSH0 MSTORE PUSH1 0x22 PUSH1 0x4 MSTORE PUSH1 0x24 PUSH0 REVERT JUMPDEST PUSH0 PUSH1 0x2 DUP3 DIV SWAP1 POP PUSH1 0x1 DUP3 AND DUP1 PUSH2 0x1DCB JUMPI PUSH1 0x7F DUP3 AND SWAP2 POP JUMPDEST PUSH1 0x20 DUP3 LT DUP2 SUB PUSH2 0x1DDE JUMPI PUSH2 0x1DDD PUSH2 0x1D87 JUMP JUMPDEST JUMPDEST POP SWAP2 SWAP1 POP JUMP JUMPDEST PUSH0 DUP2 SWAP1 POP DUP2 PUSH0 MSTORE PUSH1 0x20 PUSH0 KECCAK256 SWAP1 POP SWAP2 SWAP1 POP JUMP JUMPDEST PUSH0 PUSH1 0x20 PUSH1 0x1F DUP4 ADD DIV SWAP1 POP SWAP2 SWAP1 POP JUMP JUMPDEST PUSH0 DUP3 DUP3 SHL SWAP1 POP SWAP3 SWAP2 POP POP JUMP JUMPDEST PUSH0 PUSH1 0x8 DUP4 MUL PUSH2 0x1E40 PUSH32 0xFFFFFFFFFFFFFFFFFFFFFFFFFFFFFFFFFFFFFFFFFFFFFFFFFFFFFFFFFFFFFFFF DUP3 PUSH2 0x1E05 JUMP JUMPDEST PUSH2 0x1E4A DUP7 DUP4 PUSH2 0x1E05 JUMP JUMPDEST SWAP6 POP DUP1 NOT DUP5 AND SWAP4 POP DUP1 DUP7 AND DUP5 OR SWAP3 POP POP POP SWAP4 SWAP3 POP POP POP JUMP JUMPDEST PUSH0 DUP2 SWAP1 POP SWAP2 SWAP1 POP JUMP JUMPDEST PUSH0 PUSH2 0x1E85 PUSH2 0x1E80 PUSH2 0x1E7B DUP5 PUSH2 0x16F7 JUMP JUMPDEST PUSH2 0x1E62 JUMP JUMPDEST PUSH2 0x16F7 JUMP JUMPDEST SWAP1 POP SWAP2 SWAP1 POP JUMP JUMPDEST PUSH0 DUP2 SWAP1 POP SWAP2 SWAP1 POP JUMP JUMPDEST PUSH2 0x1E9E DUP4 PUSH2 0x1E6B JUMP JUMPDEST PUSH2 0x1EB2 PUSH2 0x1EAA DUP3 PUSH2 0x1E8C JUMP JUMPDEST DUP5 DUP5 SLOAD PUSH2 0x1E11 JUMP JUMPDEST DUP3 SSTORE POP POP POP POP JUMP JUMPDEST PUSH0 SWAP1 JUMP JUMPDEST PUSH2 0x1EC6 PUSH2 0x1EBA JUMP JUMPDEST PUSH2 0x1ED1 DUP2 DUP5 DUP5 PUSH2 0x1E95 JUMP JUMPDEST POP POP POP JUMP JUMPDEST JUMPDEST DUP2 DUP2 LT ISZERO PUSH2 0x1EF4 JUMPI PUSH2 0x1EE9 PUSH0 DUP3 PUSH2 0x1EBE JUMP JUMPDEST PUSH1 0x1 DUP2 ADD SWAP1 POP PUSH2 0x1ED7 JUMP JUMPDEST POP POP JUMP JUMPDEST PUSH1 0x1F DUP3 GT ISZERO PUSH2 0x1F39 JUMPI PUSH2 0x1F0A DUP2 PUSH2 0x1DE4 JUMP JUMPDEST PUSH2 0x1F13 DUP5 PUSH2 0x1DF6 JUMP JUMPDEST DUP2 ADD PUSH1 0x20 DUP6 LT ISZERO PUSH2 0x1F22 JUMPI DUP2 SWAP1 POP JUMPDEST PUSH2 0x1F36 PUSH2 0x1F2E DUP6 PUSH2 0x1DF6 JUMP JUMPDEST DUP4 ADD DUP3 PUSH2 0x1ED6 JUMP JUMPDEST POP POP JUMPDEST POP POP POP JUMP JUMPDEST PUSH0 DUP3 DUP3 SHR SWAP1 POP SWAP3 SWAP2 POP POP JUMP JUMPDEST PUSH0 PUSH2 0x1F59 PUSH0 NOT DUP5 PUSH1 0x8 MUL PUSH2 0x1F3E JUMP JUMPDEST NOT DUP1 DUP4 AND SWAP2 POP POP SWAP3 SWAP2 POP POP JUMP JUMPDEST PUSH0 PUSH2 0x1F71 DUP4 DUP4 PUSH2 0x1F4A JUMP JUMPDEST SWAP2 POP DUP3 PUSH1 0x2 MUL DUP3 OR SWAP1 POP SWAP3 SWAP2 POP POP JUMP JUMPDEST PUSH2 0x1F8A DUP3 PUSH2 0x1796 JUMP JUMPDEST PUSH8 0xFFFFFFFFFFFFFFFF DUP2 GT ISZERO PUSH2 0x1FA3 JUMPI PUSH2 0x1FA2 PUSH2 0x15D3 JUMP JUMPDEST JUMPDEST PUSH2 0x1FAD DUP3 SLOAD PUSH2 0x1DB4 JUMP JUMPDEST PUSH2 0x1FB8 DUP3 DUP3 DUP6 PUSH2 0x1EF8 JUMP JUMPDEST PUSH0 PUSH1 0x20 SWAP1 POP PUSH1 0x1F DUP4 GT PUSH1 0x1 DUP2 EQ PUSH2 0x1FE9 JUMPI PUSH0 DUP5 ISZERO PUSH2 0x1FD7 JUMPI DUP3 DUP8 ADD MLOAD SWAP1 POP JUMPDEST PUSH2 0x1FE1 DUP6 DUP3 PUSH2 0x1F66 JUMP JUMPDEST DUP7 SSTORE POP PUSH2 0x2048 JUMP JUMPDEST PUSH1 0x1F NOT DUP5 AND PUSH2 0x1FF7 DUP7 PUSH2 0x1DE4 JUMP JUMPDEST PUSH0 JUMPDEST DUP3 DUP2 LT ISZERO PUSH2 0x201E JUMPI DUP5 DUP10 ADD MLOAD DUP3 SSTORE PUSH1 0x1 DUP3 ADD SWAP2 POP PUSH1 0x20 DUP6 ADD SWAP5 POP PUSH1 0x20 DUP2 ADD SWAP1 POP PUSH2 0x1FF9 JUMP JUMPDEST DUP7 DUP4 LT ISZERO PUSH2 0x203B JUMPI DUP5 DUP10 ADD MLOAD PUSH2 0x2037 PUSH1 0x1F DUP10 AND DUP3 PUSH2 0x1F4A JUMP JUMPDEST DUP4 SSTORE POP JUMPDEST PUSH1 0x1 PUSH1 0x2 DUP9 MUL ADD DUP9 SSTORE POP POP POP JUMPDEST POP POP POP POP POP POP JUMP JUMPDEST PUSH32 0x43616E6469646174652072656769737465726564212100000000000000000000 PUSH0 DUP3 ADD MSTORE POP JUMP JUMPDEST PUSH0 PUSH2 0x2084 PUSH1 0x16 DUP4 PUSH2 0x17A0 JUMP JUMPDEST SWAP2 POP PUSH2 0x208F DUP3 PUSH2 0x2050 JUMP JUMPDEST PUSH1 0x20 DUP3 ADD SWAP1 POP SWAP2 SWAP1 POP JUMP JUMPDEST PUSH0 PUSH1 0x20 DUP3 ADD SWAP1 POP DUP2 DUP2 SUB PUSH0 DUP4 ADD MSTORE PUSH2 0x20B1 DUP2 PUSH2 0x2078 JUMP JUMPDEST SWAP1 POP SWAP2 SWAP1 POP JUMP JUMPDEST PUSH32 0x566F74696E67206E6F74207374617274656420796574206F7220656E64656421 PUSH0 DUP3 ADD MSTORE PUSH32 0x2100000000000000000000000000000000000000000000000000000000000000 PUSH1 0x20 DUP3 ADD MSTORE POP JUMP JUMPDEST PUSH0 PUSH2 0x2112 PUSH1 0x21 DUP4 PUSH2 0x17A0 JUMP JUMPDEST SWAP2 POP PUSH2 0x211D DUP3 PUSH2 0x20B8 JUMP JUMPDEST PUSH1 0x40 DUP3 ADD SWAP1 POP SWAP2 SWAP1 POP JUMP JUMPDEST PUSH0 PUSH1 0x20 DUP3 ADD SWAP1 POP DUP2 DUP2 SUB PUSH0 DUP4 ADD MSTORE PUSH2 0x213F DUP2 PUSH2 0x2106 JUMP JUMPDEST SWAP1 POP SWAP2 SWAP1 POP JUMP JUMPDEST PUSH32 0x4F776E65722063616E206E6F7420766F74652121000000000000000000000000 PUSH0 DUP3 ADD MSTORE POP JUMP JUMPDEST PUSH0 PUSH2 0x217A PUSH1 0x14 DUP4 PUSH2 0x17A0 JUMP JUMPDEST SWAP2 POP PUSH2 0x2185 DUP3 PUSH2 0x2146 JUMP JUMPDEST PUSH1 0x20 DUP3 ADD SWAP1 POP SWAP2 SWAP1 POP JUMP JUMPDEST PUSH0 PUSH1 0x20 DUP3 ADD SWAP1 POP DUP2 DUP2 SUB PUSH0 DUP4 ADD MSTORE PUSH2 0x21A7 DUP2 PUSH2 0x216E JUMP JUMPDEST SWAP1 POP SWAP2 SWAP1 POP JUMP JUMPDEST PUSH32 0x566F746572206E6F742072656769737465726564212100000000000000000000 PUSH0 DUP3 ADD MSTORE POP JUMP JUMPDEST PUSH0 PUSH2 0x21E2 PUSH1 0x16 DUP4 PUSH2 0x17A0 JUMP JUMPDEST SWAP2 POP PUSH2 0x21ED DUP3 PUSH2 0x21AE JUMP JUMPDEST PUSH1 0x20 DUP3 ADD SWAP1 POP SWAP2 SWAP1 POP JUMP JUMPDEST PUSH0 PUSH1 0x20 DUP3 ADD SWAP1 POP DUP2 DUP2 SUB PUSH0 DUP4 ADD MSTORE PUSH2 0x220F DUP2 PUSH2 0x21D6 JUMP JUMPDEST SWAP1 POP SWAP2 SWAP1 POP JUMP JUMPDEST PUSH32 0x416C726561647920766F74656421210000000000000000000000000000000000 PUSH0 DUP3 ADD MSTORE POP JUMP JUMPDEST PUSH0 PUSH2 0x224A PUSH1 0xF DUP4 PUSH2 0x17A0 JUMP JUMPDEST SWAP2 POP PUSH2 0x2255 DUP3 PUSH2 0x2216 JUMP JUMPDEST PUSH1 0x20 DUP3 ADD SWAP1 POP SWAP2 SWAP1 POP JUMP JUMPDEST PUSH0 PUSH1 0x20 DUP3 ADD SWAP1 POP DUP2 DUP2 SUB PUSH0 DUP4 ADD MSTORE PUSH2 0x2277 DUP2 PUSH2 0x223E JUMP JUMPDEST SWAP1 POP SWAP2 SWAP1 POP JUMP JUMPDEST PUSH32 0x4E487B7100000000000000000000000000000000000000000000000000000000 PUSH0 MSTORE PUSH1 0x32 PUSH1 0x4 MSTORE PUSH1 0x24 PUSH0 REVERT JUMPDEST PUSH32 0x43616E646964617465206E6F7420726567697374657265640000000000000000 PUSH0 DUP3 ADD MSTORE POP JUMP JUMPDEST PUSH0 PUSH2 0x22DF PUSH1 0x18 DUP4 PUSH2 0x17A0 JUMP JUMPDEST SWAP2 POP PUSH2 0x22EA DUP3 PUSH2 0x22AB JUMP JUMPDEST PUSH1 0x20 DUP3 ADD SWAP1 POP SWAP2 SWAP1 POP JUMP JUMPDEST PUSH0 PUSH1 0x20 DUP3 ADD SWAP1 POP DUP2 DUP2 SUB PUSH0 DUP4 ADD MSTORE PUSH2 0x230C DUP2 PUSH2 0x22D3 JUMP JUMPDEST SWAP1 POP SWAP2 SWAP1 POP JUMP JUMPDEST PUSH32 0x4E487B7100000000000000000000000000000000000000000000000000000000 PUSH0 MSTORE PUSH1 0x11 PUSH1 0x4 MSTORE PUSH1 0x24 PUSH0 REVERT JUMPDEST PUSH0 PUSH2 0x234A DUP3 PUSH2 0x16F7 JUMP JUMPDEST SWAP2 POP PUSH32 0xFFFFFFFFFFFFFFFFFFFFFFFFFFFFFFFFFFFFFFFFFFFFFFFFFFFFFFFFFFFFFFFF DUP3 SUB PUSH2 0x237C JUMPI PUSH2 0x237B PUSH2 0x2313 JUMP JUMPDEST JUMPDEST PUSH1 0x1 DUP3 ADD SWAP1 POP SWAP2 SWAP1 POP JUMP JUMPDEST PUSH32 0x566F746564202121000000000000000000000000000000000000000000000000 PUSH0 DUP3 ADD MSTORE POP JUMP JUMPDEST PUSH0 PUSH2 0x23BB PUSH1 0x8 DUP4 PUSH2 0x17A0 JUMP JUMPDEST SWAP2 POP PUSH2 0x23C6 DUP3 PUSH2 0x2387 JUMP JUMPDEST PUSH1 0x20 DUP3 ADD SWAP1 POP SWAP2 SWAP1 POP JUMP JUMPDEST PUSH0 PUSH1 0x20 DUP3 ADD SWAP1 POP DUP2 DUP2 SUB PUSH0 DUP4 ADD MSTORE PUSH2 0x23E8 DUP2 PUSH2 0x23AF JUMP JUMPDEST SWAP1 POP SWAP2 SWAP1 POP JUMP JUMPDEST PUSH32 0x4F6E6C79206F776E65722063616E206465636C6172652077696E6E6572212100 PUSH0 DUP3 ADD MSTORE POP JUMP JUMPDEST PUSH0 PUSH2 0x2423 PUSH1 0x1F DUP4 PUSH2 0x17A0 JUMP JUMPDEST SWAP2 POP PUSH2 0x242E DUP3 PUSH2 0x23EF JUMP JUMPDEST PUSH1 0x20 DUP3 ADD SWAP1 POP SWAP2 SWAP1 POP JUMP JUMPDEST PUSH0 PUSH1 0x20 DUP3 ADD SWAP1 POP DUP2 DUP2 SUB PUSH0 DUP4 ADD MSTORE PUSH2 0x2450 DUP2 PUSH2 0x2417 JUMP JUMPDEST SWAP1 POP SWAP2 SWAP1 POP JUMP JUMPDEST PUSH32 0x4F6E6C79206F776E65722063616E2077686974656C6973742074686520616464 PUSH0 DUP3 ADD MSTORE PUSH32 0x7265737365732121000000000000000000000000000000000000000000000000 PUSH1 0x20 DUP3 ADD MSTORE POP JUMP JUMPDEST PUSH0 PUSH2 0x24B1 PUSH1 0x28 DUP4 PUSH2 0x17A0 JUMP JUMPDEST SWAP2 POP PUSH2 0x24BC DUP3 PUSH2 0x2457 JUMP JUMPDEST PUSH1 0x40 DUP3 ADD SWAP1 POP SWAP2 SWAP1 POP JUMP JUMPDEST PUSH0 PUSH1 0x20 DUP3 ADD SWAP1 POP DUP2 DUP2 SUB PUSH0 DUP4 ADD MSTORE PUSH2 0x24DE DUP2 PUSH2 0x24A5 JUMP JUMPDEST SWAP1 POP SWAP2 SWAP1 POP JUMP JUMPDEST PUSH32 0x566F74657220616C726561647920726567697374657265642121000000000000 PUSH0 DUP3 ADD MSTORE POP JUMP JUMPDEST PUSH0 PUSH2 0x2519 PUSH1 0x1A DUP4 PUSH2 0x17A0 JUMP JUMPDEST SWAP2 POP PUSH2 0x2524 DUP3 PUSH2 0x24E5 JUMP JUMPDEST PUSH1 0x20 DUP3 ADD SWAP1 POP SWAP2 SWAP1 POP JUMP JUMPDEST PUSH0 PUSH1 0x20 DUP3 ADD SWAP1 POP DUP2 DUP2 SUB PUSH0 DUP4 ADD MSTORE PUSH2 0x2546 DUP2 PUSH2 0x250D JUMP JUMPDEST SWAP1 POP SWAP2 SWAP1 POP JUMP JUMPDEST PUSH32 0x566F746572207265676973746572656421210000000000000000000000000000 PUSH0 DUP3 ADD MSTORE POP JUMP JUMPDEST PUSH0 PUSH2 0x2581 PUSH1 0x12 DUP4 PUSH2 0x17A0 JUMP JUMPDEST SWAP2 POP PUSH2 0x258C DUP3 PUSH2 0x254D JUMP JUMPDEST PUSH1 0x20 DUP3 ADD SWAP1 POP SWAP2 SWAP1 POP JUMP JUMPDEST PUSH0 PUSH1 0x20 DUP3 ADD SWAP1 POP DUP2 DUP2 SUB PUSH0 DUP4 ADD MSTORE PUSH2 0x25AE DUP2 PUSH2 0x2575 JUMP JUMPDEST SWAP1 POP SWAP2 SWAP1 POP JUMP JUMPDEST PUSH32 0x566F74696E672073746F70656421210000000000000000000000000000000000 PUSH0 DUP3 ADD MSTORE POP JUMP JUMPDEST PUSH0 PUSH2 0x25E9 PUSH1 0xF DUP4 PUSH2 0x17A0 JUMP JUMPDEST SWAP2 POP PUSH2 0x25F4 DUP3 PUSH2 0x25B5 JUMP JUMPDEST PUSH1 0x20 DUP3 ADD SWAP1 POP SWAP2 SWAP1 POP JUMP JUMPDEST PUSH0 PUSH1 0x20 DUP3 ADD SWAP1 POP DUP2 DUP2 SUB PUSH0 DUP4 ADD MSTORE PUSH2 0x2616 DUP2 PUSH2 0x25DD JUMP JUMPDEST SWAP1 POP SWAP2 SWAP1 POP JUMP INVALID LOG2 PUSH5 0x6970667358 0x22 SLT KECCAK256 0xB1 0xB6 PUSH10 0xEBA02923BCE9778AF7DD 0xE9 CALLER 0xD8 KECCAK256 CALLDATALOAD DUP13 PUSH30 0x9CC8F87F6B18EF596DC6E4E264736F6C6343000815003300000000000000 "
				},
				"gasEstimates": {
					"creation": {
						"codeDepositCost": "1962200",
						"executionCost": "infinite",
						"totalCost": "infinite"
					},
					"external": {
						"candidateList(uint256)": "infinite",
						"candidates(address)": "2891",
						"eventName()": "infinite",
						"getAllCandidate()": "infinite",
						"getWinner()": "infinite",
						"owner()": "2528",
						"putVote(address)": "125923",
						"registerCandidates(string,uint256,address)": "infinite",
						"startVoting()": "28440",
						"stopVoting()": "28459",
						"totalVote()": "2491",
						"voterList(address)": "infinite",
						"votingStatus()": "2519",
						"whiteListAddress(address)": "57717",
						"winnerAddress()": "2530"
					}
				},
				"methodIdentifiers": {
					"candidateList(uint256)": "b13c744b",
					"candidates(address)": "8ab66a90",
					"eventName()": "8043c9c0",
					"getAllCandidate()": "efd5297c",
					"getWinner()": "8e7ea5b2",
					"owner()": "8da5cb5b",
					"putVote(address)": "88fb6f74",
					"registerCandidates(string,uint256,address)": "3c71a6d5",
					"startVoting()": "1ec6b60a",
					"stopVoting()": "fab2f86b",
					"totalVote()": "f1cea4c7",
					"voterList(address)": "03b4caed",
					"votingStatus()": "19f41a40",
					"whiteListAddress(address)": "cf52a7b2",
					"winnerAddress()": "ed7a4e0b"
				}
			},
			"storageLayout": {
				"storage": [
					{
						"astId": 3,
						"contract": "contracts/election.sol:Voting",
						"label": "owner",
						"offset": 0,
						"slot": "0",
						"type": "t_address"
					},
					{
						"astId": 5,
						"contract": "contracts/election.sol:Voting",
						"label": "winnerAddress",
						"offset": 0,
						"slot": "1",
						"type": "t_address"
					},
					{
						"astId": 7,
						"contract": "contracts/election.sol:Voting",
						"label": "eventName",
						"offset": 0,
						"slot": "2",
						"type": "t_string_storage"
					},
					{
						"astId": 9,
						"contract": "contracts/election.sol:Voting",
						"label": "totalVote",
						"offset": 0,
						"slot": "3",
						"type": "t_uint256"
					},
					{
						"astId": 11,
						"contract": "contracts/election.sol:Voting",
						"label": "votingStarted",
						"offset": 0,
						"slot": "4",
						"type": "t_bool"
					},
					{
						"astId": 35,
						"contract": "contracts/election.sol:Voting",
						"label": "candidates",
						"offset": 0,
						"slot": "5",
						"type": "t_mapping(t_address,t_uint256)"
					},
					{
						"astId": 39,
						"contract": "contracts/election.sol:Voting",
						"label": "candidateList",
						"offset": 0,
						"slot": "6",
						"type": "t_array(t_struct(Candidate)22_storage)dyn_storage"
					},
					{
						"astId": 44,
						"contract": "contracts/election.sol:Voting",
						"label": "voterList",
						"offset": 0,
						"slot": "7",
						"type": "t_mapping(t_address,t_struct(Voter)27_storage)"
					}
				],
				"types": {
					"t_address": {
						"encoding": "inplace",
						"label": "address",
						"numberOfBytes": "20"
					},
					"t_array(t_struct(Candidate)22_storage)dyn_storage": {
						"base": "t_struct(Candidate)22_storage",
						"encoding": "dynamic_array",
						"label": "struct Voting.Candidate[]",
						"numberOfBytes": "32"
					},
					"t_bool": {
						"encoding": "inplace",
						"label": "bool",
						"numberOfBytes": "1"
					},
					"t_mapping(t_address,t_struct(Voter)27_storage)": {
						"encoding": "mapping",
						"key": "t_address",
						"label": "mapping(address => struct Voting.Voter)",
						"numberOfBytes": "32",
						"value": "t_struct(Voter)27_storage"
					},
					"t_mapping(t_address,t_uint256)": {
						"encoding": "mapping",
						"key": "t_address",
						"label": "mapping(address => uint256)",
						"numberOfBytes": "32",
						"value": "t_uint256"
					},
					"t_string_storage": {
						"encoding": "bytes",
						"label": "string",
						"numberOfBytes": "32"
					},
					"t_struct(Candidate)22_storage": {
						"encoding": "inplace",
						"label": "struct Voting.Candidate",
						"members": [
							{
								"astId": 13,
								"contract": "contracts/election.sol:Voting",
								"label": "name",
								"offset": 0,
								"slot": "0",
								"type": "t_string_storage"
							},
							{
								"astId": 15,
								"contract": "contracts/election.sol:Voting",
								"label": "age",
								"offset": 0,
								"slot": "1",
								"type": "t_uint256"
							},
							{
								"astId": 17,
								"contract": "contracts/election.sol:Voting",
								"label": "registered",
								"offset": 0,
								"slot": "2",
								"type": "t_bool"
							},
							{
								"astId": 19,
								"contract": "contracts/election.sol:Voting",
								"label": "candidateAddress",
								"offset": 1,
								"slot": "2",
								"type": "t_address"
							},
							{
								"astId": 21,
								"contract": "contracts/election.sol:Voting",
								"label": "votes",
								"offset": 0,
								"slot": "3",
								"type": "t_uint256"
							}
						],
						"numberOfBytes": "128"
					},
					"t_struct(Voter)27_storage": {
						"encoding": "inplace",
						"label": "struct Voting.Voter",
						"members": [
							{
								"astId": 24,
								"contract": "contracts/election.sol:Voting",
								"label": "registered",
								"offset": 0,
								"slot": "0",
								"type": "t_bool"
							},
							{
								"astId": 26,
								"contract": "contracts/election.sol:Voting",
								"label": "voted",
								"offset": 1,
								"slot": "0",
								"type": "t_bool"
							}
						],
						"numberOfBytes": "32"
					},
					"t_uint256": {
						"encoding": "inplace",
						"label": "uint256",
						"numberOfBytes": "32"
					}
				}
			},
			"userdoc": {
				"kind": "user",
				"methods": {},
				"version": 1
			}
		}
	}
}