{
	"contracts/temp2.sol": {
		"election": {
			"abi": [
				{
					"inputs": [],
					"stateMutability": "nonpayable",
					"type": "constructor"
				},
				{
					"inputs": [
						{
							"internalType": "address",
							"name": "",
							"type": "address"
						}
					],
					"name": "CandidateList",
					"outputs": [
						{
							"internalType": "address",
							"name": "candidateAddress",
							"type": "address"
						},
						{
							"internalType": "string",
							"name": "name",
							"type": "string"
						},
						{
							"internalType": "string",
							"name": "proposal",
							"type": "string"
						},
						{
							"internalType": "bool",
							"name": "register",
							"type": "bool"
						},
						{
							"internalType": "uint256",
							"name": "votes",
							"type": "uint256"
						}
					],
					"stateMutability": "view",
					"type": "function"
				},
				{
					"inputs": [
						{
							"internalType": "uint256",
							"name": "_id",
							"type": "uint256"
						},
						{
							"internalType": "address",
							"name": "_candidateAddress",
							"type": "address"
						}
					],
					"name": "CastVote",
					"outputs": [],
					"stateMutability": "nonpayable",
					"type": "function"
				},
				{
					"inputs": [
						{
							"internalType": "address",
							"name": "",
							"type": "address"
						}
					],
					"name": "VoterList",
					"outputs": [
						{
							"internalType": "address",
							"name": "voterAddress",
							"type": "address"
						},
						{
							"internalType": "bool",
							"name": "register",
							"type": "bool"
						},
						{
							"internalType": "bool",
							"name": "voted",
							"type": "bool"
						},
						{
							"internalType": "uint256",
							"name": "transferedVote",
							"type": "uint256"
						},
						{
							"internalType": "uint256",
							"name": "id",
							"type": "uint256"
						}
					],
					"stateMutability": "view",
					"type": "function"
				},
				{
					"inputs": [],
					"name": "allCandidates",
					"outputs": [
						{
							"components": [
								{
									"internalType": "address",
									"name": "candidateAddress",
									"type": "address"
								},
								{
									"internalType": "string",
									"name": "name",
									"type": "string"
								},
								{
									"internalType": "string",
									"name": "proposal",
									"type": "string"
								},
								{
									"internalType": "bool",
									"name": "register",
									"type": "bool"
								},
								{
									"internalType": "uint256",
									"name": "votes",
									"type": "uint256"
								}
							],
							"internalType": "struct election.candidates[]",
							"name": "",
							"type": "tuple[]"
						}
					],
					"stateMutability": "view",
					"type": "function"
				},
				{
					"inputs": [],
					"name": "allVoters",
					"outputs": [
						{
							"components": [
								{
									"internalType": "address",
									"name": "voterAddress",
									"type": "address"
								},
								{
									"internalType": "bool",
									"name": "register",
									"type": "bool"
								},
								{
									"internalType": "bool",
									"name": "voted",
									"type": "bool"
								},
								{
									"internalType": "uint256",
									"name": "transferedVote",
									"type": "uint256"
								},
								{
									"internalType": "uint256",
									"name": "id",
									"type": "uint256"
								}
							],
							"internalType": "struct election.voters[]",
							"name": "",
							"type": "tuple[]"
						}
					],
					"stateMutability": "view",
					"type": "function"
				},
				{
					"inputs": [
						{
							"internalType": "address",
							"name": "_delegate",
							"type": "address"
						}
					],
					"name": "delegateVote",
					"outputs": [],
					"stateMutability": "nonpayable",
					"type": "function"
				},
				{
					"inputs": [],
					"name": "endVoting",
					"outputs": [],
					"stateMutability": "nonpayable",
					"type": "function"
				},
				{
					"inputs": [
						{
							"internalType": "string",
							"name": "_name",
							"type": "string"
						},
						{
							"internalType": "string",
							"name": "_proposal",
							"type": "string"
						},
						{
							"internalType": "address",
							"name": "_candidateAddress",
							"type": "address"
						}
					],
					"name": "registerCandidate",
					"outputs": [],
					"stateMutability": "nonpayable",
					"type": "function"
				},
				{
					"inputs": [
						{
							"internalType": "address",
							"name": "_voterAddress",
							"type": "address"
						}
					],
					"name": "registerVoter",
					"outputs": [],
					"stateMutability": "nonpayable",
					"type": "function"
				},
				{
					"inputs": [],
					"name": "startVoting",
					"outputs": [],
					"stateMutability": "nonpayable",
					"type": "function"
				},
				{
					"inputs": [],
					"name": "votingStatus",
					"outputs": [
						{
							"internalType": "string",
							"name": "",
							"type": "string"
						}
					],
					"stateMutability": "view",
					"type": "function"
				},
				{
					"inputs": [],
					"name": "winnerDeclare",
					"outputs": [
						{
							"internalType": "string",
							"name": "",
							"type": "string"
						}
					],
					"stateMutability": "view",
					"type": "function"
				}
			],
			"devdoc": {
				"kind": "dev",
				"methods": {},
				"version": 1
			},
			"evm": {
				"assembly": "    /* \"contracts/temp2.sol\":58:6093  contract election{... */\n  mstore(0x40, 0x80)\n    /* \"contracts/temp2.sol\":372:577  constructor() {... */\n  callvalue\n  dup1\n  iszero\n  tag_1\n  jumpi\n  0x00\n  dup1\n  revert\ntag_1:\n  pop\n    /* \"contracts/temp2.sol\":405:415  msg.sender */\n  caller\n    /* \"contracts/temp2.sol\":393:404  votingAdmin */\n  0x00\n  dup1\n    /* \"contracts/temp2.sol\":393:415  votingAdmin=msg.sender */\n  0x0100\n  exp\n  dup2\n  sload\n  dup2\n  0xffffffffffffffffffffffffffffffffffffffff\n  mul\n  not\n  and\n  swap1\n  dup4\n  0xffffffffffffffffffffffffffffffffffffffff\n  and\n  mul\n  or\n  swap1\n  sstore\n  pop\n    /* \"contracts/temp2.sol\":436:441  false */\n  0x00\n    /* \"contracts/temp2.sol\":422:435  votingStarted */\n  dup1\n  0x14\n    /* \"contracts/temp2.sol\":422:441  votingStarted=false */\n  0x0100\n  exp\n  dup2\n  sload\n  dup2\n  0xff\n  mul\n  not\n  and\n  swap1\n  dup4\n  iszero\n  iszero\n  mul\n  or\n  swap1\n  sstore\n  pop\n    /* \"contracts/temp2.sol\":458:459  0 */\n  0x00\n    /* \"contracts/temp2.sol\":448:457  totalVote */\n  0x01\n    /* \"contracts/temp2.sol\":448:459  totalVote=0 */\n  dup2\n  swap1\n  sstore\n  pop\n    /* \"contracts/temp2.sol\":466:486  status=\"Not Started\" */\n  mload(0x40)\n  dup1\n  0x40\n  add\n  0x40\n  mstore\n  dup1\n  0x0b\n  dup2\n  mstore\n  0x20\n  add\n  0x4e6f742053746172746564000000000000000000000000000000000000000000\n  dup2\n  mstore\n  pop\n    /* \"contracts/temp2.sol\":466:472  status */\n  0x03\n    /* \"contracts/temp2.sol\":466:486  status=\"Not Started\" */\n  swap1\n  dup2\n  tag_4\n  swap2\n  swap1\n  tag_5\n  jump\t// in\ntag_4:\n  pop\n    /* \"contracts/temp2.sol\":501:502  0 */\n  0x00\n    /* \"contracts/temp2.sol\":493:500  endVote */\n  0x02\n    /* \"contracts/temp2.sol\":493:502  endVote=0 */\n  dup2\n  swap1\n  sstore\n  pop\n    /* \"contracts/temp2.sol\":520:521  0 */\n  0x00\n    /* \"contracts/temp2.sol\":509:519  totalVoter */\n  0x04\n    /* \"contracts/temp2.sol\":509:521  totalVoter=0 */\n  dup2\n  swap1\n  sstore\n  pop\n    /* \"contracts/temp2.sol\":540:541  0 */\n  0x00\n    /* \"contracts/temp2.sol\":528:539  highestVote */\n  0x06\n    /* \"contracts/temp2.sol\":528:541  highestVote=0 */\n  dup2\n  swap1\n  sstore\n  pop\n    /* \"contracts/temp2.sol\":555:573  vStatus.notStarted */\n  0x00\n    /* \"contracts/temp2.sol\":548:554  choice */\n  0x07\n  0x00\n    /* \"contracts/temp2.sol\":548:573  choice=vStatus.notStarted */\n  0x0100\n  exp\n  dup2\n  sload\n  dup2\n  0xff\n  mul\n  not\n  and\n  swap1\n  dup4\n  0x02\n  dup2\n  gt\n  iszero\n  tag_6\n  jumpi\n  tag_7\n  tag_8\n  jump\t// in\ntag_7:\ntag_6:\n  mul\n  or\n  swap1\n  sstore\n  pop\n    /* \"contracts/temp2.sol\":58:6093  contract election{... */\n  jump(tag_9)\n    /* \"#utility.yul\":7:106   */\ntag_10:\n    /* \"#utility.yul\":59:65   */\n  0x00\n    /* \"#utility.yul\":93:98   */\n  dup2\n    /* \"#utility.yul\":87:99   */\n  mload\n    /* \"#utility.yul\":77:99   */\n  swap1\n  pop\n    /* \"#utility.yul\":7:106   */\n  swap2\n  swap1\n  pop\n  jump\t// out\n    /* \"#utility.yul\":112:292   */\ntag_11:\n    /* \"#utility.yul\":160:237   */\n  0x4e487b7100000000000000000000000000000000000000000000000000000000\n    /* \"#utility.yul\":157:158   */\n  0x00\n    /* \"#utility.yul\":150:238   */\n  mstore\n    /* \"#utility.yul\":257:261   */\n  0x41\n    /* \"#utility.yul\":254:255   */\n  0x04\n    /* \"#utility.yul\":247:262   */\n  mstore\n    /* \"#utility.yul\":281:285   */\n  0x24\n    /* \"#utility.yul\":278:279   */\n  0x00\n    /* \"#utility.yul\":271:286   */\n  revert\n    /* \"#utility.yul\":298:478   */\ntag_12:\n    /* \"#utility.yul\":346:423   */\n  0x4e487b7100000000000000000000000000000000000000000000000000000000\n    /* \"#utility.yul\":343:344   */\n  0x00\n    /* \"#utility.yul\":336:424   */\n  mstore\n    /* \"#utility.yul\":443:447   */\n  0x22\n    /* \"#utility.yul\":440:441   */\n  0x04\n    /* \"#utility.yul\":433:448   */\n  mstore\n    /* \"#utility.yul\":467:471   */\n  0x24\n    /* \"#utility.yul\":464:465   */\n  0x00\n    /* \"#utility.yul\":457:472   */\n  revert\n    /* \"#utility.yul\":484:804   */\ntag_13:\n    /* \"#utility.yul\":528:534   */\n  0x00\n    /* \"#utility.yul\":565:566   */\n  0x02\n    /* \"#utility.yul\":559:563   */\n  dup3\n    /* \"#utility.yul\":555:567   */\n  div\n    /* \"#utility.yul\":545:567   */\n  swap1\n  pop\n    /* \"#utility.yul\":612:613   */\n  0x01\n    /* \"#utility.yul\":606:610   */\n  dup3\n    /* \"#utility.yul\":602:614   */\n  and\n    /* \"#utility.yul\":633:651   */\n  dup1\n    /* \"#utility.yul\":623:704   */\n  tag_35\n  jumpi\n    /* \"#utility.yul\":689:693   */\n  0x7f\n    /* \"#utility.yul\":681:687   */\n  dup3\n    /* \"#utility.yul\":677:694   */\n  and\n    /* \"#utility.yul\":667:694   */\n  swap2\n  pop\n    /* \"#utility.yul\":623:704   */\ntag_35:\n    /* \"#utility.yul\":751:753   */\n  0x20\n    /* \"#utility.yul\":743:749   */\n  dup3\n    /* \"#utility.yul\":740:754   */\n  lt\n    /* \"#utility.yul\":720:738   */\n  dup2\n    /* \"#utility.yul\":717:755   */\n  sub\n    /* \"#utility.yul\":714:798   */\n  tag_36\n  jumpi\n    /* \"#utility.yul\":770:788   */\n  tag_37\n  tag_12\n  jump\t// in\ntag_37:\n    /* \"#utility.yul\":714:798   */\ntag_36:\n    /* \"#utility.yul\":535:804   */\n  pop\n    /* \"#utility.yul\":484:804   */\n  swap2\n  swap1\n  pop\n  jump\t// out\n    /* \"#utility.yul\":810:951   */\ntag_14:\n    /* \"#utility.yul\":859:863   */\n  0x00\n    /* \"#utility.yul\":882:885   */\n  dup2\n    /* \"#utility.yul\":874:885   */\n  swap1\n  pop\n    /* \"#utility.yul\":905:908   */\n  dup2\n    /* \"#utility.yul\":902:903   */\n  0x00\n    /* \"#utility.yul\":895:909   */\n  mstore\n    /* \"#utility.yul\":939:943   */\n  0x20\n    /* \"#utility.yul\":936:937   */\n  0x00\n    /* \"#utility.yul\":926:944   */\n  keccak256\n    /* \"#utility.yul\":918:944   */\n  swap1\n  pop\n    /* \"#utility.yul\":810:951   */\n  swap2\n  swap1\n  pop\n  jump\t// out\n    /* \"#utility.yul\":957:1050   */\ntag_15:\n    /* \"#utility.yul\":994:1000   */\n  0x00\n    /* \"#utility.yul\":1041:1043   */\n  0x20\n    /* \"#utility.yul\":1036:1038   */\n  0x1f\n    /* \"#utility.yul\":1029:1034   */\n  dup4\n    /* \"#utility.yul\":1025:1039   */\n  add\n    /* \"#utility.yul\":1021:1044   */\n  div\n    /* \"#utility.yul\":1011:1044   */\n  swap1\n  pop\n    /* \"#utility.yul\":957:1050   */\n  swap2\n  swap1\n  pop\n  jump\t// out\n    /* \"#utility.yul\":1056:1163   */\ntag_16:\n    /* \"#utility.yul\":1100:1108   */\n  0x00\n    /* \"#utility.yul\":1150:1155   */\n  dup3\n    /* \"#utility.yul\":1144:1148   */\n  dup3\n    /* \"#utility.yul\":1140:1156   */\n  shl\n    /* \"#utility.yul\":1119:1156   */\n  swap1\n  pop\n    /* \"#utility.yul\":1056:1163   */\n  swap3\n  swap2\n  pop\n  pop\n  jump\t// out\n    /* \"#utility.yul\":1169:1562   */\ntag_17:\n    /* \"#utility.yul\":1238:1244   */\n  0x00\n    /* \"#utility.yul\":1288:1289   */\n  0x08\n    /* \"#utility.yul\":1276:1286   */\n  dup4\n    /* \"#utility.yul\":1272:1290   */\n  mul\n    /* \"#utility.yul\":1311:1408   */\n  tag_42\n    /* \"#utility.yul\":1341:1407   */\n  0xffffffffffffffffffffffffffffffffffffffffffffffffffffffffffffffff\n    /* \"#utility.yul\":1330:1339   */\n  dup3\n    /* \"#utility.yul\":1311:1408   */\n  tag_16\n  jump\t// in\ntag_42:\n    /* \"#utility.yul\":1429:1468   */\n  tag_43\n    /* \"#utility.yul\":1459:1467   */\n  dup7\n    /* \"#utility.yul\":1448:1457   */\n  dup4\n    /* \"#utility.yul\":1429:1468   */\n  tag_16\n  jump\t// in\ntag_43:\n    /* \"#utility.yul\":1417:1468   */\n  swap6\n  pop\n    /* \"#utility.yul\":1501:1505   */\n  dup1\n    /* \"#utility.yul\":1497:1506   */\n  not\n    /* \"#utility.yul\":1490:1495   */\n  dup5\n    /* \"#utility.yul\":1486:1507   */\n  and\n    /* \"#utility.yul\":1477:1507   */\n  swap4\n  pop\n    /* \"#utility.yul\":1550:1554   */\n  dup1\n    /* \"#utility.yul\":1540:1548   */\n  dup7\n    /* \"#utility.yul\":1536:1555   */\n  and\n    /* \"#utility.yul\":1529:1534   */\n  dup5\n    /* \"#utility.yul\":1526:1556   */\n  or\n    /* \"#utility.yul\":1516:1556   */\n  swap3\n  pop\n    /* \"#utility.yul\":1245:1562   */\n  pop\n  pop\n    /* \"#utility.yul\":1169:1562   */\n  swap4\n  swap3\n  pop\n  pop\n  pop\n  jump\t// out\n    /* \"#utility.yul\":1568:1645   */\ntag_18:\n    /* \"#utility.yul\":1605:1612   */\n  0x00\n    /* \"#utility.yul\":1634:1639   */\n  dup2\n    /* \"#utility.yul\":1623:1639   */\n  swap1\n  pop\n    /* \"#utility.yul\":1568:1645   */\n  swap2\n  swap1\n  pop\n  jump\t// out\n    /* \"#utility.yul\":1651:1711   */\ntag_19:\n    /* \"#utility.yul\":1679:1682   */\n  0x00\n    /* \"#utility.yul\":1700:1705   */\n  dup2\n    /* \"#utility.yul\":1693:1705   */\n  swap1\n  pop\n    /* \"#utility.yul\":1651:1711   */\n  swap2\n  swap1\n  pop\n  jump\t// out\n    /* \"#utility.yul\":1717:1859   */\ntag_20:\n    /* \"#utility.yul\":1767:1776   */\n  0x00\n    /* \"#utility.yul\":1800:1853   */\n  tag_47\n    /* \"#utility.yul\":1818:1852   */\n  tag_48\n    /* \"#utility.yul\":1827:1851   */\n  tag_49\n    /* \"#utility.yul\":1845:1850   */\n  dup5\n    /* \"#utility.yul\":1827:1851   */\n  tag_18\n  jump\t// in\ntag_49:\n    /* \"#utility.yul\":1818:1852   */\n  tag_19\n  jump\t// in\ntag_48:\n    /* \"#utility.yul\":1800:1853   */\n  tag_18\n  jump\t// in\ntag_47:\n    /* \"#utility.yul\":1787:1853   */\n  swap1\n  pop\n    /* \"#utility.yul\":1717:1859   */\n  swap2\n  swap1\n  pop\n  jump\t// out\n    /* \"#utility.yul\":1865:1940   */\ntag_21:\n    /* \"#utility.yul\":1908:1911   */\n  0x00\n    /* \"#utility.yul\":1929:1934   */\n  dup2\n    /* \"#utility.yul\":1922:1934   */\n  swap1\n  pop\n    /* \"#utility.yul\":1865:1940   */\n  swap2\n  swap1\n  pop\n  jump\t// out\n    /* \"#utility.yul\":1946:2215   */\ntag_22:\n    /* \"#utility.yul\":2056:2095   */\n  tag_52\n    /* \"#utility.yul\":2087:2094   */\n  dup4\n    /* \"#utility.yul\":2056:2095   */\n  tag_20\n  jump\t// in\ntag_52:\n    /* \"#utility.yul\":2117:2208   */\n  tag_53\n    /* \"#utility.yul\":2166:2207   */\n  tag_54\n    /* \"#utility.yul\":2190:2206   */\n  dup3\n    /* \"#utility.yul\":2166:2207   */\n  tag_21\n  jump\t// in\ntag_54:\n    /* \"#utility.yul\":2158:2164   */\n  dup5\n    /* \"#utility.yul\":2151:2155   */\n  dup5\n    /* \"#utility.yul\":2145:2156   */\n  sload\n    /* \"#utility.yul\":2117:2208   */\n  tag_17\n  jump\t// in\ntag_53:\n    /* \"#utility.yul\":2111:2115   */\n  dup3\n    /* \"#utility.yul\":2104:2209   */\n  sstore\n    /* \"#utility.yul\":2022:2215   */\n  pop\n    /* \"#utility.yul\":1946:2215   */\n  pop\n  pop\n  pop\n  jump\t// out\n    /* \"#utility.yul\":2221:2294   */\ntag_23:\n    /* \"#utility.yul\":2266:2269   */\n  0x00\n    /* \"#utility.yul\":2221:2294   */\n  swap1\n  jump\t// out\n    /* \"#utility.yul\":2300:2489   */\ntag_24:\n    /* \"#utility.yul\":2377:2409   */\n  tag_57\n  tag_23\n  jump\t// in\ntag_57:\n    /* \"#utility.yul\":2418:2483   */\n  tag_58\n    /* \"#utility.yul\":2476:2482   */\n  dup2\n    /* \"#utility.yul\":2468:2474   */\n  dup5\n    /* \"#utility.yul\":2462:2466   */\n  dup5\n    /* \"#utility.yul\":2418:2483   */\n  tag_22\n  jump\t// in\ntag_58:\n    /* \"#utility.yul\":2353:2489   */\n  pop\n    /* \"#utility.yul\":2300:2489   */\n  pop\n  pop\n  jump\t// out\n    /* \"#utility.yul\":2495:2681   */\ntag_25:\n    /* \"#utility.yul\":2555:2675   */\ntag_60:\n    /* \"#utility.yul\":2572:2575   */\n  dup2\n    /* \"#utility.yul\":2565:2570   */\n  dup2\n    /* \"#utility.yul\":2562:2576   */\n  lt\n    /* \"#utility.yul\":2555:2675   */\n  iszero\n  tag_62\n  jumpi\n    /* \"#utility.yul\":2626:2665   */\n  tag_63\n    /* \"#utility.yul\":2663:2664   */\n  0x00\n    /* \"#utility.yul\":2656:2661   */\n  dup3\n    /* \"#utility.yul\":2626:2665   */\n  tag_24\n  jump\t// in\ntag_63:\n    /* \"#utility.yul\":2599:2600   */\n  0x01\n    /* \"#utility.yul\":2592:2597   */\n  dup2\n    /* \"#utility.yul\":2588:2601   */\n  add\n    /* \"#utility.yul\":2579:2601   */\n  swap1\n  pop\n    /* \"#utility.yul\":2555:2675   */\n  jump(tag_60)\ntag_62:\n    /* \"#utility.yul\":2495:2681   */\n  pop\n  pop\n  jump\t// out\n    /* \"#utility.yul\":2687:3230   */\ntag_26:\n    /* \"#utility.yul\":2788:2790   */\n  0x1f\n    /* \"#utility.yul\":2783:2786   */\n  dup3\n    /* \"#utility.yul\":2780:2791   */\n  gt\n    /* \"#utility.yul\":2777:3223   */\n  iszero\n  tag_65\n  jumpi\n    /* \"#utility.yul\":2822:2860   */\n  tag_66\n    /* \"#utility.yul\":2854:2859   */\n  dup2\n    /* \"#utility.yul\":2822:2860   */\n  tag_14\n  jump\t// in\ntag_66:\n    /* \"#utility.yul\":2906:2935   */\n  tag_67\n    /* \"#utility.yul\":2924:2934   */\n  dup5\n    /* \"#utility.yul\":2906:2935   */\n  tag_15\n  jump\t// in\ntag_67:\n    /* \"#utility.yul\":2896:2904   */\n  dup2\n    /* \"#utility.yul\":2892:2936   */\n  add\n    /* \"#utility.yul\":3089:3091   */\n  0x20\n    /* \"#utility.yul\":3077:3087   */\n  dup6\n    /* \"#utility.yul\":3074:3092   */\n  lt\n    /* \"#utility.yul\":3071:3120   */\n  iszero\n  tag_68\n  jumpi\n    /* \"#utility.yul\":3110:3118   */\n  dup2\n    /* \"#utility.yul\":3095:3118   */\n  swap1\n  pop\n    /* \"#utility.yul\":3071:3120   */\ntag_68:\n    /* \"#utility.yul\":3133:3213   */\n  tag_69\n    /* \"#utility.yul\":3189:3211   */\n  tag_70\n    /* \"#utility.yul\":3207:3210   */\n  dup6\n    /* \"#utility.yul\":3189:3211   */\n  tag_15\n  jump\t// in\ntag_70:\n    /* \"#utility.yul\":3179:3187   */\n  dup4\n    /* \"#utility.yul\":3175:3212   */\n  add\n    /* \"#utility.yul\":3162:3173   */\n  dup3\n    /* \"#utility.yul\":3133:3213   */\n  tag_25\n  jump\t// in\ntag_69:\n    /* \"#utility.yul\":2792:3223   */\n  pop\n  pop\n    /* \"#utility.yul\":2777:3223   */\ntag_65:\n    /* \"#utility.yul\":2687:3230   */\n  pop\n  pop\n  pop\n  jump\t// out\n    /* \"#utility.yul\":3236:3353   */\ntag_27:\n    /* \"#utility.yul\":3290:3298   */\n  0x00\n    /* \"#utility.yul\":3340:3345   */\n  dup3\n    /* \"#utility.yul\":3334:3338   */\n  dup3\n    /* \"#utility.yul\":3330:3346   */\n  shr\n    /* \"#utility.yul\":3309:3346   */\n  swap1\n  pop\n    /* \"#utility.yul\":3236:3353   */\n  swap3\n  swap2\n  pop\n  pop\n  jump\t// out\n    /* \"#utility.yul\":3359:3528   */\ntag_28:\n    /* \"#utility.yul\":3403:3409   */\n  0x00\n    /* \"#utility.yul\":3436:3487   */\n  tag_73\n    /* \"#utility.yul\":3484:3485   */\n  0x00\n    /* \"#utility.yul\":3480:3486   */\n  not\n    /* \"#utility.yul\":3472:3477   */\n  dup5\n    /* \"#utility.yul\":3469:3470   */\n  0x08\n    /* \"#utility.yul\":3465:3478   */\n  mul\n    /* \"#utility.yul\":3436:3487   */\n  tag_27\n  jump\t// in\ntag_73:\n    /* \"#utility.yul\":3432:3488   */\n  not\n    /* \"#utility.yul\":3517:3521   */\n  dup1\n    /* \"#utility.yul\":3511:3515   */\n  dup4\n    /* \"#utility.yul\":3507:3522   */\n  and\n    /* \"#utility.yul\":3497:3522   */\n  swap2\n  pop\n    /* \"#utility.yul\":3410:3528   */\n  pop\n    /* \"#utility.yul\":3359:3528   */\n  swap3\n  swap2\n  pop\n  pop\n  jump\t// out\n    /* \"#utility.yul\":3533:3828   */\ntag_29:\n    /* \"#utility.yul\":3609:3613   */\n  0x00\n    /* \"#utility.yul\":3755:3784   */\n  tag_75\n    /* \"#utility.yul\":3780:3783   */\n  dup4\n    /* \"#utility.yul\":3774:3778   */\n  dup4\n    /* \"#utility.yul\":3755:3784   */\n  tag_28\n  jump\t// in\ntag_75:\n    /* \"#utility.yul\":3747:3784   */\n  swap2\n  pop\n    /* \"#utility.yul\":3817:3820   */\n  dup3\n    /* \"#utility.yul\":3814:3815   */\n  0x02\n    /* \"#utility.yul\":3810:3821   */\n  mul\n    /* \"#utility.yul\":3804:3808   */\n  dup3\n    /* \"#utility.yul\":3801:3822   */\n  or\n    /* \"#utility.yul\":3793:3822   */\n  swap1\n  pop\n    /* \"#utility.yul\":3533:3828   */\n  swap3\n  swap2\n  pop\n  pop\n  jump\t// out\n    /* \"#utility.yul\":3833:5228   */\ntag_5:\n    /* \"#utility.yul\":3950:3987   */\n  tag_77\n    /* \"#utility.yul\":3983:3986   */\n  dup3\n    /* \"#utility.yul\":3950:3987   */\n  tag_10\n  jump\t// in\ntag_77:\n    /* \"#utility.yul\":4052:4070   */\n  0xffffffffffffffff\n    /* \"#utility.yul\":4044:4050   */\n  dup2\n    /* \"#utility.yul\":4041:4071   */\n  gt\n    /* \"#utility.yul\":4038:4094   */\n  iszero\n  tag_78\n  jumpi\n    /* \"#utility.yul\":4074:4092   */\n  tag_79\n  tag_11\n  jump\t// in\ntag_79:\n    /* \"#utility.yul\":4038:4094   */\ntag_78:\n    /* \"#utility.yul\":4118:4156   */\n  tag_80\n    /* \"#utility.yul\":4150:4154   */\n  dup3\n    /* \"#utility.yul\":4144:4155   */\n  sload\n    /* \"#utility.yul\":4118:4156   */\n  tag_13\n  jump\t// in\ntag_80:\n    /* \"#utility.yul\":4203:4270   */\n  tag_81\n    /* \"#utility.yul\":4263:4269   */\n  dup3\n    /* \"#utility.yul\":4255:4261   */\n  dup3\n    /* \"#utility.yul\":4249:4253   */\n  dup6\n    /* \"#utility.yul\":4203:4270   */\n  tag_26\n  jump\t// in\ntag_81:\n    /* \"#utility.yul\":4297:4298   */\n  0x00\n    /* \"#utility.yul\":4321:4325   */\n  0x20\n    /* \"#utility.yul\":4308:4325   */\n  swap1\n  pop\n    /* \"#utility.yul\":4353:4355   */\n  0x1f\n    /* \"#utility.yul\":4345:4351   */\n  dup4\n    /* \"#utility.yul\":4342:4356   */\n  gt\n    /* \"#utility.yul\":4370:4371   */\n  0x01\n    /* \"#utility.yul\":4365:4983   */\n  dup2\n  eq\n  tag_83\n  jumpi\n    /* \"#utility.yul\":5027:5028   */\n  0x00\n    /* \"#utility.yul\":5044:5050   */\n  dup5\n    /* \"#utility.yul\":5041:5118   */\n  iszero\n  tag_84\n  jumpi\n    /* \"#utility.yul\":5093:5102   */\n  dup3\n    /* \"#utility.yul\":5088:5091   */\n  dup8\n    /* \"#utility.yul\":5084:5103   */\n  add\n    /* \"#utility.yul\":5078:5104   */\n  mload\n    /* \"#utility.yul\":5069:5104   */\n  swap1\n  pop\n    /* \"#utility.yul\":5041:5118   */\ntag_84:\n    /* \"#utility.yul\":5144:5211   */\n  tag_85\n    /* \"#utility.yul\":5204:5210   */\n  dup6\n    /* \"#utility.yul\":5197:5202   */\n  dup3\n    /* \"#utility.yul\":5144:5211   */\n  tag_29\n  jump\t// in\ntag_85:\n    /* \"#utility.yul\":5138:5142   */\n  dup7\n    /* \"#utility.yul\":5131:5212   */\n  sstore\n    /* \"#utility.yul\":5000:5222   */\n  pop\n    /* \"#utility.yul\":4335:5222   */\n  jump(tag_82)\n    /* \"#utility.yul\":4365:4983   */\ntag_83:\n    /* \"#utility.yul\":4417:4421   */\n  0x1f\n    /* \"#utility.yul\":4413:4422   */\n  not\n    /* \"#utility.yul\":4405:4411   */\n  dup5\n    /* \"#utility.yul\":4401:4423   */\n  and\n    /* \"#utility.yul\":4451:4488   */\n  tag_86\n    /* \"#utility.yul\":4483:4487   */\n  dup7\n    /* \"#utility.yul\":4451:4488   */\n  tag_14\n  jump\t// in\ntag_86:\n    /* \"#utility.yul\":4510:4511   */\n  0x00\n    /* \"#utility.yul\":4524:4732   */\ntag_87:\n    /* \"#utility.yul\":4538:4545   */\n  dup3\n    /* \"#utility.yul\":4535:4536   */\n  dup2\n    /* \"#utility.yul\":4532:4546   */\n  lt\n    /* \"#utility.yul\":4524:4732   */\n  iszero\n  tag_89\n  jumpi\n    /* \"#utility.yul\":4617:4626   */\n  dup5\n    /* \"#utility.yul\":4612:4615   */\n  dup10\n    /* \"#utility.yul\":4608:4627   */\n  add\n    /* \"#utility.yul\":4602:4628   */\n  mload\n    /* \"#utility.yul\":4594:4600   */\n  dup3\n    /* \"#utility.yul\":4587:4629   */\n  sstore\n    /* \"#utility.yul\":4668:4669   */\n  0x01\n    /* \"#utility.yul\":4660:4666   */\n  dup3\n    /* \"#utility.yul\":4656:4670   */\n  add\n    /* \"#utility.yul\":4646:4670   */\n  swap2\n  pop\n    /* \"#utility.yul\":4715:4717   */\n  0x20\n    /* \"#utility.yul\":4704:4713   */\n  dup6\n    /* \"#utility.yul\":4700:4718   */\n  add\n    /* \"#utility.yul\":4687:4718   */\n  swap5\n  pop\n    /* \"#utility.yul\":4561:4565   */\n  0x20\n    /* \"#utility.yul\":4558:4559   */\n  dup2\n    /* \"#utility.yul\":4554:4566   */\n  add\n    /* \"#utility.yul\":4549:4566   */\n  swap1\n  pop\n    /* \"#utility.yul\":4524:4732   */\n  jump(tag_87)\ntag_89:\n    /* \"#utility.yul\":4760:4766   */\n  dup7\n    /* \"#utility.yul\":4751:4758   */\n  dup4\n    /* \"#utility.yul\":4748:4767   */\n  lt\n    /* \"#utility.yul\":4745:4924   */\n  iszero\n  tag_90\n  jumpi\n    /* \"#utility.yul\":4818:4827   */\n  dup5\n    /* \"#utility.yul\":4813:4816   */\n  dup10\n    /* \"#utility.yul\":4809:4828   */\n  add\n    /* \"#utility.yul\":4803:4829   */\n  mload\n    /* \"#utility.yul\":4861:4909   */\n  tag_91\n    /* \"#utility.yul\":4903:4907   */\n  0x1f\n    /* \"#utility.yul\":4895:4901   */\n  dup10\n    /* \"#utility.yul\":4891:4908   */\n  and\n    /* \"#utility.yul\":4880:4889   */\n  dup3\n    /* \"#utility.yul\":4861:4909   */\n  tag_28\n  jump\t// in\ntag_91:\n    /* \"#utility.yul\":4853:4859   */\n  dup4\n    /* \"#utility.yul\":4846:4910   */\n  sstore\n    /* \"#utility.yul\":4768:4924   */\n  pop\n    /* \"#utility.yul\":4745:4924   */\ntag_90:\n    /* \"#utility.yul\":4970:4971   */\n  0x01\n    /* \"#utility.yul\":4966:4967   */\n  0x02\n    /* \"#utility.yul\":4958:4964   */\n  dup9\n    /* \"#utility.yul\":4954:4968   */\n  mul\n    /* \"#utility.yul\":4950:4972   */\n  add\n    /* \"#utility.yul\":4944:4948   */\n  dup9\n    /* \"#utility.yul\":4937:4973   */\n  sstore\n    /* \"#utility.yul\":4372:4983   */\n  pop\n  pop\n  pop\n    /* \"#utility.yul\":4335:5222   */\ntag_82:\n  pop\n    /* \"#utility.yul\":3925:5228   */\n  pop\n  pop\n  pop\n    /* \"#utility.yul\":3833:5228   */\n  pop\n  pop\n  jump\t// out\n    /* \"#utility.yul\":5234:5414   */\ntag_8:\n    /* \"#utility.yul\":5282:5359   */\n  0x4e487b7100000000000000000000000000000000000000000000000000000000\n    /* \"#utility.yul\":5279:5280   */\n  0x00\n    /* \"#utility.yul\":5272:5360   */\n  mstore\n    /* \"#utility.yul\":5379:5383   */\n  0x21\n    /* \"#utility.yul\":5376:5377   */\n  0x04\n    /* \"#utility.yul\":5369:5384   */\n  mstore\n    /* \"#utility.yul\":5403:5407   */\n  0x24\n    /* \"#utility.yul\":5400:5401   */\n  0x00\n    /* \"#utility.yul\":5393:5408   */\n  revert\n    /* \"contracts/temp2.sol\":58:6093  contract election{... */\ntag_9:\n  dataSize(sub_0)\n  dup1\n  dataOffset(sub_0)\n  0x00\n  codecopy\n  0x00\n  return\nstop\n\nsub_0: assembly {\n        /* \"contracts/temp2.sol\":58:6093  contract election{... */\n      mstore(0x40, 0x80)\n      callvalue\n      dup1\n      iszero\n      tag_1\n      jumpi\n      0x00\n      dup1\n      revert\n    tag_1:\n      pop\n      jumpi(tag_2, lt(calldatasize, 0x04))\n      shr(0xe0, calldataload(0x00))\n      dup1\n      0x81c40715\n      gt\n      tag_15\n      jumpi\n      dup1\n      0x81c40715\n      eq\n      tag_9\n      jumpi\n      dup1\n      0xb31e1d4d\n      eq\n      tag_10\n      jumpi\n      dup1\n      0xc3403ddf\n      eq\n      tag_11\n      jumpi\n      dup1\n      0xd1e05abb\n      eq\n      tag_12\n      jumpi\n      dup1\n      0xf9e7284f\n      eq\n      tag_13\n      jumpi\n      dup1\n      0xfcab6679\n      eq\n      tag_14\n      jumpi\n      jump(tag_2)\n    tag_15:\n      dup1\n      0x98a51a\n      eq\n      tag_3\n      jumpi\n      dup1\n      0x0a03fff1\n      eq\n      tag_4\n      jumpi\n      dup1\n      0x19f41a40\n      eq\n      tag_5\n      jumpi\n      dup1\n      0x1ec6b60a\n      eq\n      tag_6\n      jumpi\n      dup1\n      0x233b672d\n      eq\n      tag_7\n      jumpi\n      dup1\n      0x38db6dd3\n      eq\n      tag_8\n      jumpi\n    tag_2:\n      0x00\n      dup1\n      revert\n        /* \"contracts/temp2.sol\":1047:1089  mapping (address=>voters) public VoterList */\n    tag_3:\n      tag_16\n      0x04\n      dup1\n      calldatasize\n      sub\n      dup2\n      add\n      swap1\n      tag_17\n      swap2\n      swap1\n      tag_18\n      jump\t// in\n    tag_17:\n      tag_19\n      jump\t// in\n    tag_16:\n      mload(0x40)\n      tag_20\n      swap6\n      swap5\n      swap4\n      swap3\n      swap2\n      swap1\n      tag_21\n      jump\t// in\n    tag_20:\n      mload(0x40)\n      dup1\n      swap2\n      sub\n      swap1\n      return\n        /* \"contracts/temp2.sol\":942:992  mapping (address=>candidates) public CandidateList */\n    tag_4:\n      tag_22\n      0x04\n      dup1\n      calldatasize\n      sub\n      dup2\n      add\n      swap1\n      tag_23\n      swap2\n      swap1\n      tag_18\n      jump\t// in\n    tag_23:\n      tag_24\n      jump\t// in\n    tag_22:\n      mload(0x40)\n      tag_25\n      swap6\n      swap5\n      swap4\n      swap3\n      swap2\n      swap1\n      tag_26\n      jump\t// in\n    tag_25:\n      mload(0x40)\n      dup1\n      swap2\n      sub\n      swap1\n      return\n        /* \"contracts/temp2.sol\":3329:3411  function votingStatus()view public returns (string memory){... */\n    tag_5:\n      tag_27\n      tag_28\n      jump\t// in\n    tag_27:\n      mload(0x40)\n      tag_29\n      swap2\n      swap1\n      tag_30\n      jump\t// in\n    tag_29:\n      mload(0x40)\n      dup1\n      swap2\n      sub\n      swap1\n      return\n        /* \"contracts/temp2.sol\":2889:3073  function startVoting()public {... */\n    tag_6:\n      tag_31\n      tag_32\n      jump\t// in\n    tag_31:\n      stop\n        /* \"contracts/temp2.sol\":3441:4250  function CastVote(uint _id,address _candidateAddress)  public{... */\n    tag_7:\n      tag_33\n      0x04\n      dup1\n      calldatasize\n      sub\n      dup2\n      add\n      swap1\n      tag_34\n      swap2\n      swap1\n      tag_35\n      jump\t// in\n    tag_34:\n      tag_36\n      jump\t// in\n    tag_33:\n      stop\n        /* \"contracts/temp2.sol\":2082:2717  function registerVoter( address _voterAddress)   public {... */\n    tag_8:\n      tag_37\n      0x04\n      dup1\n      calldatasize\n      sub\n      dup2\n      add\n      swap1\n      tag_38\n      swap2\n      swap1\n      tag_18\n      jump\t// in\n    tag_38:\n      tag_39\n      jump\t// in\n    tag_37:\n      stop\n        /* \"contracts/temp2.sol\":1944:2043  function allCandidates()view public returns (candidates[]memory){... */\n    tag_9:\n      tag_40\n      tag_41\n      jump\t// in\n    tag_40:\n      mload(0x40)\n      tag_42\n      swap2\n      swap1\n      tag_43\n      jump\t// in\n    tag_42:\n      mload(0x40)\n      dup1\n      swap2\n      sub\n      swap1\n      return\n        /* \"contracts/temp2.sol\":4956:6090  function delegateVote( address _delegate)   public  {... */\n    tag_10:\n      tag_44\n      0x04\n      dup1\n      calldatasize\n      sub\n      dup2\n      add\n      swap1\n      tag_45\n      swap2\n      swap1\n      tag_18\n      jump\t// in\n    tag_45:\n      tag_46\n      jump\t// in\n    tag_44:\n      stop\n        /* \"contracts/temp2.sol\":3108:3281  function endVoting()public{... */\n    tag_11:\n      tag_47\n      tag_48\n      jump\t// in\n    tag_47:\n      stop\n        /* \"contracts/temp2.sol\":4680:4924  function winnerDeclare( ) view  public returns(string memory) {... */\n    tag_12:\n      tag_49\n      tag_50\n      jump\t// in\n    tag_49:\n      mload(0x40)\n      tag_51\n      swap2\n      swap1\n      tag_30\n      jump\t// in\n    tag_51:\n      mload(0x40)\n      dup1\n      swap2\n      sub\n      swap1\n      return\n        /* \"contracts/temp2.sol\":2756:2852  function allVoters() view public returns(voters[] memory){... */\n    tag_13:\n      tag_52\n      tag_53\n      jump\t// in\n    tag_52:\n      mload(0x40)\n      tag_54\n      swap2\n      swap1\n      tag_55\n      jump\t// in\n    tag_54:\n      mload(0x40)\n      dup1\n      swap2\n      sub\n      swap1\n      return\n        /* \"contracts/temp2.sol\":1170:1905  function registerCandidate(string memory _name, string memory _proposal,address _candidateAddress)  public{... */\n    tag_14:\n      tag_56\n      0x04\n      dup1\n      calldatasize\n      sub\n      dup2\n      add\n      swap1\n      tag_57\n      swap2\n      swap1\n      tag_58\n      jump\t// in\n    tag_57:\n      tag_59\n      jump\t// in\n    tag_56:\n      stop\n        /* \"contracts/temp2.sol\":1047:1089  mapping (address=>voters) public VoterList */\n    tag_19:\n      mstore(0x20, 0x0a)\n      dup1\n      0x00\n      mstore\n      keccak256(0x00, 0x40)\n      0x00\n      swap2\n      pop\n      swap1\n      pop\n      dup1\n      0x00\n      add\n      0x00\n      swap1\n      sload\n      swap1\n      0x0100\n      exp\n      swap1\n      div\n      0xffffffffffffffffffffffffffffffffffffffff\n      and\n      swap1\n      dup1\n      0x00\n      add\n      0x14\n      swap1\n      sload\n      swap1\n      0x0100\n      exp\n      swap1\n      div\n      0xff\n      and\n      swap1\n      dup1\n      0x00\n      add\n      0x15\n      swap1\n      sload\n      swap1\n      0x0100\n      exp\n      swap1\n      div\n      0xff\n      and\n      swap1\n      dup1\n      0x01\n      add\n      sload\n      swap1\n      dup1\n      0x02\n      add\n      sload\n      swap1\n      pop\n      dup6\n      jump\t// out\n        /* \"contracts/temp2.sol\":942:992  mapping (address=>candidates) public CandidateList */\n    tag_24:\n      mstore(0x20, 0x08)\n      dup1\n      0x00\n      mstore\n      keccak256(0x00, 0x40)\n      0x00\n      swap2\n      pop\n      swap1\n      pop\n      dup1\n      0x00\n      add\n      0x00\n      swap1\n      sload\n      swap1\n      0x0100\n      exp\n      swap1\n      div\n      0xffffffffffffffffffffffffffffffffffffffff\n      and\n      swap1\n      dup1\n      0x01\n      add\n      dup1\n      sload\n      tag_60\n      swap1\n      tag_61\n      jump\t// in\n    tag_60:\n      dup1\n      0x1f\n      add\n      0x20\n      dup1\n      swap2\n      div\n      mul\n      0x20\n      add\n      mload(0x40)\n      swap1\n      dup2\n      add\n      0x40\n      mstore\n      dup1\n      swap3\n      swap2\n      swap1\n      dup2\n      dup2\n      mstore\n      0x20\n      add\n      dup3\n      dup1\n      sload\n      tag_62\n      swap1\n      tag_61\n      jump\t// in\n    tag_62:\n      dup1\n      iszero\n      tag_63\n      jumpi\n      dup1\n      0x1f\n      lt\n      tag_64\n      jumpi\n      0x0100\n      dup1\n      dup4\n      sload\n      div\n      mul\n      dup4\n      mstore\n      swap2\n      0x20\n      add\n      swap2\n      jump(tag_63)\n    tag_64:\n      dup3\n      add\n      swap2\n      swap1\n      0x00\n      mstore\n      keccak256(0x00, 0x20)\n      swap1\n    tag_65:\n      dup2\n      sload\n      dup2\n      mstore\n      swap1\n      0x01\n      add\n      swap1\n      0x20\n      add\n      dup1\n      dup4\n      gt\n      tag_65\n      jumpi\n      dup3\n      swap1\n      sub\n      0x1f\n      and\n      dup3\n      add\n      swap2\n    tag_63:\n      pop\n      pop\n      pop\n      pop\n      pop\n      swap1\n      dup1\n      0x02\n      add\n      dup1\n      sload\n      tag_66\n      swap1\n      tag_61\n      jump\t// in\n    tag_66:\n      dup1\n      0x1f\n      add\n      0x20\n      dup1\n      swap2\n      div\n      mul\n      0x20\n      add\n      mload(0x40)\n      swap1\n      dup2\n      add\n      0x40\n      mstore\n      dup1\n      swap3\n      swap2\n      swap1\n      dup2\n      dup2\n      mstore\n      0x20\n      add\n      dup3\n      dup1\n      sload\n      tag_67\n      swap1\n      tag_61\n      jump\t// in\n    tag_67:\n      dup1\n      iszero\n      tag_68\n      jumpi\n      dup1\n      0x1f\n      lt\n      tag_69\n      jumpi\n      0x0100\n      dup1\n      dup4\n      sload\n      div\n      mul\n      dup4\n      mstore\n      swap2\n      0x20\n      add\n      swap2\n      jump(tag_68)\n    tag_69:\n      dup3\n      add\n      swap2\n      swap1\n      0x00\n      mstore\n      keccak256(0x00, 0x20)\n      swap1\n    tag_70:\n      dup2\n      sload\n      dup2\n      mstore\n      swap1\n      0x01\n      add\n      swap1\n      0x20\n      add\n      dup1\n      dup4\n      gt\n      tag_70\n      jumpi\n      dup3\n      swap1\n      sub\n      0x1f\n      and\n      dup3\n      add\n      swap2\n    tag_68:\n      pop\n      pop\n      pop\n      pop\n      pop\n      swap1\n      dup1\n      0x03\n      add\n      0x00\n      swap1\n      sload\n      swap1\n      0x0100\n      exp\n      swap1\n      div\n      0xff\n      and\n      swap1\n      dup1\n      0x04\n      add\n      sload\n      swap1\n      pop\n      dup6\n      jump\t// out\n        /* \"contracts/temp2.sol\":3329:3411  function votingStatus()view public returns (string memory){... */\n    tag_28:\n        /* \"contracts/temp2.sol\":3373:3386  string memory */\n      0x60\n        /* \"contracts/temp2.sol\":3401:3407  status */\n      0x03\n        /* \"contracts/temp2.sol\":3394:3407  return status */\n      dup1\n      sload\n      tag_72\n      swap1\n      tag_61\n      jump\t// in\n    tag_72:\n      dup1\n      0x1f\n      add\n      0x20\n      dup1\n      swap2\n      div\n      mul\n      0x20\n      add\n      mload(0x40)\n      swap1\n      dup2\n      add\n      0x40\n      mstore\n      dup1\n      swap3\n      swap2\n      swap1\n      dup2\n      dup2\n      mstore\n      0x20\n      add\n      dup3\n      dup1\n      sload\n      tag_73\n      swap1\n      tag_61\n      jump\t// in\n    tag_73:\n      dup1\n      iszero\n      tag_74\n      jumpi\n      dup1\n      0x1f\n      lt\n      tag_75\n      jumpi\n      0x0100\n      dup1\n      dup4\n      sload\n      div\n      mul\n      dup4\n      mstore\n      swap2\n      0x20\n      add\n      swap2\n      jump(tag_74)\n    tag_75:\n      dup3\n      add\n      swap2\n      swap1\n      0x00\n      mstore\n      keccak256(0x00, 0x20)\n      swap1\n    tag_76:\n      dup2\n      sload\n      dup2\n      mstore\n      swap1\n      0x01\n      add\n      swap1\n      0x20\n      add\n      dup1\n      dup4\n      gt\n      tag_76\n      jumpi\n      dup3\n      swap1\n      sub\n      0x1f\n      and\n      dup3\n      add\n      swap2\n    tag_74:\n      pop\n      pop\n      pop\n      pop\n      pop\n      swap1\n      pop\n        /* \"contracts/temp2.sol\":3329:3411  function votingStatus()view public returns (string memory){... */\n      swap1\n      jump\t// out\n        /* \"contracts/temp2.sol\":2889:3073  function startVoting()public {... */\n    tag_32:\n        /* \"contracts/temp2.sol\":2946:2956  msg.sender */\n      caller\n        /* \"contracts/temp2.sol\":2933:2956  votingAdmin==msg.sender */\n      0xffffffffffffffffffffffffffffffffffffffff\n      and\n        /* \"contracts/temp2.sol\":2933:2944  votingAdmin */\n      0x00\n      dup1\n      sload\n      swap1\n      0x0100\n      exp\n      swap1\n      div\n      0xffffffffffffffffffffffffffffffffffffffff\n      and\n        /* \"contracts/temp2.sol\":2933:2956  votingAdmin==msg.sender */\n      0xffffffffffffffffffffffffffffffffffffffff\n      and\n      eq\n        /* \"contracts/temp2.sol\":2933:2968  votingAdmin==msg.sender&&endVote==0 */\n      dup1\n      iszero\n      tag_78\n      jumpi\n      pop\n        /* \"contracts/temp2.sol\":2967:2968  0 */\n      0x00\n        /* \"contracts/temp2.sol\":2958:2965  endVote */\n      sload(0x02)\n        /* \"contracts/temp2.sol\":2958:2968  endVote==0 */\n      eq\n        /* \"contracts/temp2.sol\":2933:2968  votingAdmin==msg.sender&&endVote==0 */\n    tag_78:\n        /* \"contracts/temp2.sol\":2933:2990  votingAdmin==msg.sender&&endVote==0&&votingStarted==false */\n      dup1\n      iszero\n      tag_79\n      jumpi\n      pop\n        /* \"contracts/temp2.sol\":2985:2990  false */\n      0x00\n        /* \"contracts/temp2.sol\":2970:2990  votingStarted==false */\n      iszero\n      iszero\n        /* \"contracts/temp2.sol\":2970:2983  votingStarted */\n      0x00\n      0x14\n      swap1\n      sload\n      swap1\n      0x0100\n      exp\n      swap1\n      div\n      0xff\n      and\n        /* \"contracts/temp2.sol\":2970:2990  votingStarted==false */\n      iszero\n      iszero\n      eq\n        /* \"contracts/temp2.sol\":2933:2990  votingAdmin==msg.sender&&endVote==0&&votingStarted==false */\n    tag_79:\n        /* \"contracts/temp2.sol\":2925:2991  require(votingAdmin==msg.sender&&endVote==0&&votingStarted==false) */\n      tag_80\n      jumpi\n      0x00\n      dup1\n      revert\n    tag_80:\n        /* \"contracts/temp2.sol\":3012:3016  true */\n      0x01\n        /* \"contracts/temp2.sol\":2998:3011  votingStarted */\n      0x00\n      0x14\n        /* \"contracts/temp2.sol\":2998:3016  votingStarted=true */\n      0x0100\n      exp\n      dup2\n      sload\n      dup2\n      0xff\n      mul\n      not\n      and\n      swap1\n      dup4\n      iszero\n      iszero\n      mul\n      or\n      swap1\n      sstore\n      pop\n        /* \"contracts/temp2.sol\":3030:3045  vStatus.ongoing */\n      0x01\n        /* \"contracts/temp2.sol\":3023:3029  choice */\n      0x07\n      0x00\n        /* \"contracts/temp2.sol\":3023:3045  choice=vStatus.ongoing */\n      0x0100\n      exp\n      dup2\n      sload\n      dup2\n      0xff\n      mul\n      not\n      and\n      swap1\n      dup4\n      0x02\n      dup2\n      gt\n      iszero\n      tag_81\n      jumpi\n      tag_82\n      tag_83\n      jump\t// in\n    tag_82:\n    tag_81:\n      mul\n      or\n      swap1\n      sstore\n      pop\n        /* \"contracts/temp2.sol\":3052:3069  status=\"On Going\" */\n      mload(0x40)\n      dup1\n      0x40\n      add\n      0x40\n      mstore\n      dup1\n      0x08\n      dup2\n      mstore\n      0x20\n      add\n      0x4f6e20476f696e67000000000000000000000000000000000000000000000000\n      dup2\n      mstore\n      pop\n        /* \"contracts/temp2.sol\":3052:3058  status */\n      0x03\n        /* \"contracts/temp2.sol\":3052:3069  status=\"On Going\" */\n      swap1\n      dup2\n      tag_84\n      swap2\n      swap1\n      tag_85\n      jump\t// in\n    tag_84:\n      pop\n        /* \"contracts/temp2.sol\":2889:3073  function startVoting()public {... */\n      jump\t// out\n        /* \"contracts/temp2.sol\":3441:4250  function CastVote(uint _id,address _candidateAddress)  public{... */\n    tag_36:\n        /* \"contracts/temp2.sol\":3538:3542  true */\n      0x01\n        /* \"contracts/temp2.sol\":3514:3542  checkVoter(msg.sender)==true */\n      iszero\n      iszero\n        /* \"contracts/temp2.sol\":3514:3536  checkVoter(msg.sender) */\n      tag_87\n        /* \"contracts/temp2.sol\":3525:3535  msg.sender */\n      caller\n        /* \"contracts/temp2.sol\":3514:3524  checkVoter */\n      tag_88\n        /* \"contracts/temp2.sol\":3514:3536  checkVoter(msg.sender) */\n      jump\t// in\n    tag_87:\n        /* \"contracts/temp2.sol\":3514:3542  checkVoter(msg.sender)==true */\n      iszero\n      iszero\n      eq\n        /* \"contracts/temp2.sol\":3506:3566  require(checkVoter(msg.sender)==true,\"voter does not exist\") */\n      tag_89\n      jumpi\n      mload(0x40)\n      0x08c379a000000000000000000000000000000000000000000000000000000000\n      dup2\n      mstore\n      0x04\n      add\n      tag_90\n      swap1\n      tag_91\n      jump\t// in\n    tag_90:\n      mload(0x40)\n      dup1\n      swap2\n      sub\n      swap1\n      revert\n    tag_89:\n        /* \"contracts/temp2.sol\":3607:3612  false */\n      0x00\n        /* \"contracts/temp2.sol\":3578:3612  VoterList[msg.sender].voted==false */\n      iszero\n      iszero\n        /* \"contracts/temp2.sol\":3578:3587  VoterList */\n      0x0a\n        /* \"contracts/temp2.sol\":3578:3599  VoterList[msg.sender] */\n      0x00\n        /* \"contracts/temp2.sol\":3588:3598  msg.sender */\n      caller\n        /* \"contracts/temp2.sol\":3578:3599  VoterList[msg.sender] */\n      0xffffffffffffffffffffffffffffffffffffffff\n      and\n      0xffffffffffffffffffffffffffffffffffffffff\n      and\n      dup2\n      mstore\n      0x20\n      add\n      swap1\n      dup2\n      mstore\n      0x20\n      add\n      0x00\n      keccak256\n        /* \"contracts/temp2.sol\":3578:3605  VoterList[msg.sender].voted */\n      0x00\n      add\n      0x15\n      swap1\n      sload\n      swap1\n      0x0100\n      exp\n      swap1\n      div\n      0xff\n      and\n        /* \"contracts/temp2.sol\":3578:3612  VoterList[msg.sender].voted==false */\n      iszero\n      iszero\n      eq\n        /* \"contracts/temp2.sol\":3578:3653  VoterList[msg.sender].voted==false||VoterList[msg.sender].transferedVote!=0 */\n      dup1\n      tag_92\n      jumpi\n      pop\n        /* \"contracts/temp2.sol\":3652:3653  0 */\n      0x00\n        /* \"contracts/temp2.sol\":3614:3623  VoterList */\n      0x0a\n        /* \"contracts/temp2.sol\":3614:3635  VoterList[msg.sender] */\n      0x00\n        /* \"contracts/temp2.sol\":3624:3634  msg.sender */\n      caller\n        /* \"contracts/temp2.sol\":3614:3635  VoterList[msg.sender] */\n      0xffffffffffffffffffffffffffffffffffffffff\n      and\n      0xffffffffffffffffffffffffffffffffffffffff\n      and\n      dup2\n      mstore\n      0x20\n      add\n      swap1\n      dup2\n      mstore\n      0x20\n      add\n      0x00\n      keccak256\n        /* \"contracts/temp2.sol\":3614:3650  VoterList[msg.sender].transferedVote */\n      0x01\n      add\n      sload\n        /* \"contracts/temp2.sol\":3614:3653  VoterList[msg.sender].transferedVote!=0 */\n      eq\n      iszero\n        /* \"contracts/temp2.sol\":3578:3653  VoterList[msg.sender].voted==false||VoterList[msg.sender].transferedVote!=0 */\n    tag_92:\n        /* \"contracts/temp2.sol\":3570:3670  require(VoterList[msg.sender].voted==false||VoterList[msg.sender].transferedVote!=0,\"already voted\") */\n      tag_93\n      jumpi\n      mload(0x40)\n      0x08c379a000000000000000000000000000000000000000000000000000000000\n      dup2\n      mstore\n      0x04\n      add\n      tag_94\n      swap1\n      tag_95\n      jump\t// in\n    tag_94:\n      mload(0x40)\n      dup1\n      swap2\n      sub\n      swap1\n      revert\n    tag_93:\n        /* \"contracts/temp2.sol\":3697:3701  true */\n      0x01\n        /* \"contracts/temp2.sol\":3682:3701  votingStarted==true */\n      iszero\n      iszero\n        /* \"contracts/temp2.sol\":3682:3695  votingStarted */\n      0x00\n      0x14\n      swap1\n      sload\n      swap1\n      0x0100\n      exp\n      swap1\n      div\n      0xff\n      and\n        /* \"contracts/temp2.sol\":3682:3701  votingStarted==true */\n      iszero\n      iszero\n      eq\n        /* \"contracts/temp2.sol\":3674:3723  require(votingStarted==true,\"voting not started\") */\n      tag_96\n      jumpi\n      mload(0x40)\n      0x08c379a000000000000000000000000000000000000000000000000000000000\n      dup2\n      mstore\n      0x04\n      add\n      tag_97\n      swap1\n      tag_98\n      jump\t// in\n    tag_97:\n      mload(0x40)\n      dup1\n      swap2\n      sub\n      swap1\n      revert\n    tag_96:\n        /* \"contracts/temp2.sol\":3727:3735  uint VId */\n      0x00\n        /* \"contracts/temp2.sol\":3737:3746  VoterList */\n      0x0a\n        /* \"contracts/temp2.sol\":3737:3758  VoterList[msg.sender] */\n      0x00\n        /* \"contracts/temp2.sol\":3747:3757  msg.sender */\n      caller\n        /* \"contracts/temp2.sol\":3737:3758  VoterList[msg.sender] */\n      0xffffffffffffffffffffffffffffffffffffffff\n      and\n      0xffffffffffffffffffffffffffffffffffffffff\n      and\n      dup2\n      mstore\n      0x20\n      add\n      swap1\n      dup2\n      mstore\n      0x20\n      add\n      0x00\n      keccak256\n        /* \"contracts/temp2.sol\":3737:3761  VoterList[msg.sender].id */\n      0x02\n      add\n      sload\n        /* \"contracts/temp2.sol\":3727:3761  uint VId= VoterList[msg.sender].id */\n      swap1\n      pop\n        /* \"contracts/temp2.sol\":3765:3778  CandidateList */\n      0x08\n        /* \"contracts/temp2.sol\":3765:3797  CandidateList[_candidateAddress] */\n      0x00\n        /* \"contracts/temp2.sol\":3779:3796  _candidateAddress */\n      dup4\n        /* \"contracts/temp2.sol\":3765:3797  CandidateList[_candidateAddress] */\n      0xffffffffffffffffffffffffffffffffffffffff\n      and\n      0xffffffffffffffffffffffffffffffffffffffff\n      and\n      dup2\n      mstore\n      0x20\n      add\n      swap1\n      dup2\n      mstore\n      0x20\n      add\n      0x00\n      keccak256\n        /* \"contracts/temp2.sol\":3765:3803  CandidateList[_candidateAddress].votes */\n      0x04\n      add\n      0x00\n        /* \"contracts/temp2.sol\":3765:3805  CandidateList[_candidateAddress].votes++ */\n      dup2\n      sload\n      dup1\n      swap3\n      swap2\n      swap1\n      tag_99\n      swap1\n      tag_100\n      jump\t// in\n    tag_99:\n      swap2\n      swap1\n      pop\n      sstore\n      pop\n        /* \"contracts/temp2.sol\":3833:3846  CandidateList */\n      0x08\n        /* \"contracts/temp2.sol\":3833:3865  CandidateList[_candidateAddress] */\n      0x00\n        /* \"contracts/temp2.sol\":3847:3864  _candidateAddress */\n      dup4\n        /* \"contracts/temp2.sol\":3833:3865  CandidateList[_candidateAddress] */\n      0xffffffffffffffffffffffffffffffffffffffff\n      and\n      0xffffffffffffffffffffffffffffffffffffffff\n      and\n      dup2\n      mstore\n      0x20\n      add\n      swap1\n      dup2\n      mstore\n      0x20\n      add\n      0x00\n      keccak256\n        /* \"contracts/temp2.sol\":3809:3826  displayCandidates */\n      0x09\n        /* \"contracts/temp2.sol\":3827:3830  _id */\n      dup5\n        /* \"contracts/temp2.sol\":3809:3831  displayCandidates[_id] */\n      dup2\n      sload\n      dup2\n      lt\n      tag_101\n      jumpi\n      tag_102\n      tag_103\n      jump\t// in\n    tag_102:\n    tag_101:\n      swap1\n      0x00\n      mstore\n      keccak256(0x00, 0x20)\n      swap1\n      0x05\n      mul\n      add\n        /* \"contracts/temp2.sol\":3809:3865  displayCandidates[_id]= CandidateList[_candidateAddress] */\n      0x00\n      dup3\n      add\n      0x00\n      swap1\n      sload\n      swap1\n      0x0100\n      exp\n      swap1\n      div\n      0xffffffffffffffffffffffffffffffffffffffff\n      and\n      dup2\n      0x00\n      add\n      exp(0x0100, 0x00)\n      dup2\n      sload\n      dup2\n      0xffffffffffffffffffffffffffffffffffffffff\n      mul\n      not\n      and\n      swap1\n      dup4\n      0xffffffffffffffffffffffffffffffffffffffff\n      and\n      mul\n      or\n      swap1\n      sstore\n      pop\n      0x01\n      dup3\n      add\n      dup2\n      0x01\n      add\n      swap1\n      dup2\n      tag_105\n      swap2\n      swap1\n      tag_106\n      jump\t// in\n    tag_105:\n      pop\n      0x02\n      dup3\n      add\n      dup2\n      0x02\n      add\n      swap1\n      dup2\n      tag_107\n      swap2\n      swap1\n      tag_106\n      jump\t// in\n    tag_107:\n      pop\n      0x03\n      dup3\n      add\n      0x00\n      swap1\n      sload\n      swap1\n      0x0100\n      exp\n      swap1\n      div\n      0xff\n      and\n      dup2\n      0x03\n      add\n      exp(0x0100, 0x00)\n      dup2\n      sload\n      dup2\n      0xff\n      mul\n      not\n      and\n      swap1\n      dup4\n      iszero\n      iszero\n      mul\n      or\n      swap1\n      sstore\n      pop\n      0x04\n      dup3\n      add\n      sload\n      dup2\n      0x04\n      add\n      sstore\n      swap1\n      pop\n      pop\n        /* \"contracts/temp2.sol\":3869:3879  totalVoter */\n      0x04\n      0x00\n        /* \"contracts/temp2.sol\":3869:3881  totalVoter++ */\n      dup2\n      sload\n      dup1\n      swap3\n      swap2\n      swap1\n      tag_108\n      swap1\n      tag_100\n      jump\t// in\n    tag_108:\n      swap2\n      swap1\n      pop\n      sstore\n      pop\n        /* \"contracts/temp2.sol\":3900:3917  displayCandidates */\n      0x09\n        /* \"contracts/temp2.sol\":3918:3921  _id */\n      dup4\n        /* \"contracts/temp2.sol\":3900:3922  displayCandidates[_id] */\n      dup2\n      sload\n      dup2\n      lt\n      tag_109\n      jumpi\n      tag_110\n      tag_103\n      jump\t// in\n    tag_110:\n    tag_109:\n      swap1\n      0x00\n      mstore\n      keccak256(0x00, 0x20)\n      swap1\n      0x05\n      mul\n      add\n        /* \"contracts/temp2.sol\":3900:3928  displayCandidates[_id].votes */\n      0x04\n      add\n      sload\n        /* \"contracts/temp2.sol\":3888:3899  highestVote */\n      sload(0x06)\n        /* \"contracts/temp2.sol\":3888:3928  highestVote<displayCandidates[_id].votes */\n      lt\n        /* \"contracts/temp2.sol\":3885:4022  if(highestVote<displayCandidates[_id].votes){... */\n      iszero\n      tag_112\n      jumpi\n        /* \"contracts/temp2.sol\":3948:3965  displayCandidates */\n      0x09\n        /* \"contracts/temp2.sol\":3966:3969  _id */\n      dup4\n        /* \"contracts/temp2.sol\":3948:3970  displayCandidates[_id] */\n      dup2\n      sload\n      dup2\n      lt\n      tag_113\n      jumpi\n      tag_114\n      tag_103\n      jump\t// in\n    tag_114:\n    tag_113:\n      swap1\n      0x00\n      mstore\n      keccak256(0x00, 0x20)\n      swap1\n      0x05\n      mul\n      add\n        /* \"contracts/temp2.sol\":3948:3976  displayCandidates[_id].votes */\n      0x04\n      add\n      sload\n        /* \"contracts/temp2.sol\":3936:3947  highestVote */\n      0x06\n        /* \"contracts/temp2.sol\":3936:3976  highestVote=displayCandidates[_id].votes */\n      dup2\n      swap1\n      sstore\n      pop\n        /* \"contracts/temp2.sol\":3990:4007  displayCandidates */\n      0x09\n        /* \"contracts/temp2.sol\":4008:4011  _id */\n      dup4\n        /* \"contracts/temp2.sol\":3990:4012  displayCandidates[_id] */\n      dup2\n      sload\n      dup2\n      lt\n      tag_116\n      jumpi\n      tag_117\n      tag_103\n      jump\t// in\n    tag_117:\n    tag_116:\n      swap1\n      0x00\n      mstore\n      keccak256(0x00, 0x20)\n      swap1\n      0x05\n      mul\n      add\n        /* \"contracts/temp2.sol\":3990:4017  displayCandidates[_id].name */\n      0x01\n      add\n        /* \"contracts/temp2.sol\":3983:3989  winner */\n      0x05\n        /* \"contracts/temp2.sol\":3983:4017  winner=displayCandidates[_id].name */\n      swap1\n      dup2\n      tag_119\n      swap2\n      swap1\n      tag_120\n      jump\t// in\n    tag_119:\n      pop\n        /* \"contracts/temp2.sol\":3885:4022  if(highestVote<displayCandidates[_id].votes){... */\n    tag_112:\n        /* \"contracts/temp2.sol\":4066:4067  0 */\n      0x00\n        /* \"contracts/temp2.sol\":4028:4037  VoterList */\n      0x0a\n        /* \"contracts/temp2.sol\":4028:4049  VoterList[msg.sender] */\n      0x00\n        /* \"contracts/temp2.sol\":4038:4048  msg.sender */\n      caller\n        /* \"contracts/temp2.sol\":4028:4049  VoterList[msg.sender] */\n      0xffffffffffffffffffffffffffffffffffffffff\n      and\n      0xffffffffffffffffffffffffffffffffffffffff\n      and\n      dup2\n      mstore\n      0x20\n      add\n      swap1\n      dup2\n      mstore\n      0x20\n      add\n      0x00\n      keccak256\n        /* \"contracts/temp2.sol\":4028:4064  VoterList[msg.sender].transferedVote */\n      0x01\n      add\n      sload\n        /* \"contracts/temp2.sol\":4028:4067  VoterList[msg.sender].transferedVote!=0 */\n      eq\n        /* \"contracts/temp2.sol\":4025:4247  if(VoterList[msg.sender].transferedVote!=0){... */\n      tag_121\n      jumpi\n        /* \"contracts/temp2.sol\":4075:4084  VoterList */\n      0x0a\n        /* \"contracts/temp2.sol\":4075:4096  VoterList[msg.sender] */\n      0x00\n        /* \"contracts/temp2.sol\":4085:4095  msg.sender */\n      caller\n        /* \"contracts/temp2.sol\":4075:4096  VoterList[msg.sender] */\n      0xffffffffffffffffffffffffffffffffffffffff\n      and\n      0xffffffffffffffffffffffffffffffffffffffff\n      and\n      dup2\n      mstore\n      0x20\n      add\n      swap1\n      dup2\n      mstore\n      0x20\n      add\n      0x00\n      keccak256\n        /* \"contracts/temp2.sol\":4075:4111  VoterList[msg.sender].transferedVote */\n      0x01\n      add\n      0x00\n        /* \"contracts/temp2.sol\":4075:4113  VoterList[msg.sender].transferedVote-- */\n      dup2\n      sload\n      dup1\n      swap3\n      swap2\n      swap1\n      tag_122\n      swap1\n      tag_123\n      jump\t// in\n    tag_122:\n      swap2\n      swap1\n      pop\n      sstore\n      pop\n        /* \"contracts/temp2.sol\":4120:4132  displayVoter */\n      0x0b\n        /* \"contracts/temp2.sol\":4133:4136  VId */\n      dup2\n        /* \"contracts/temp2.sol\":4120:4137  displayVoter[VId] */\n      dup2\n      sload\n      dup2\n      lt\n      tag_124\n      jumpi\n      tag_125\n      tag_103\n      jump\t// in\n    tag_125:\n    tag_124:\n      swap1\n      0x00\n      mstore\n      keccak256(0x00, 0x20)\n      swap1\n      0x03\n      mul\n      add\n        /* \"contracts/temp2.sol\":4120:4152  displayVoter[VId].transferedVote */\n      0x01\n      add\n      0x00\n        /* \"contracts/temp2.sol\":4120:4154  displayVoter[VId].transferedVote-- */\n      dup2\n      sload\n      dup1\n      swap3\n      swap2\n      swap1\n      tag_127\n      swap1\n      tag_123\n      jump\t// in\n    tag_127:\n      swap2\n      swap1\n      pop\n      sstore\n      pop\n        /* \"contracts/temp2.sol\":4025:4247  if(VoterList[msg.sender].transferedVote!=0){... */\n      jump(tag_128)\n    tag_121:\n        /* \"contracts/temp2.sol\":4202:4206  true */\n      0x01\n        /* \"contracts/temp2.sol\":4174:4183  VoterList */\n      0x0a\n        /* \"contracts/temp2.sol\":4174:4195  VoterList[msg.sender] */\n      0x00\n        /* \"contracts/temp2.sol\":4184:4194  msg.sender */\n      caller\n        /* \"contracts/temp2.sol\":4174:4195  VoterList[msg.sender] */\n      0xffffffffffffffffffffffffffffffffffffffff\n      and\n      0xffffffffffffffffffffffffffffffffffffffff\n      and\n      dup2\n      mstore\n      0x20\n      add\n      swap1\n      dup2\n      mstore\n      0x20\n      add\n      0x00\n      keccak256\n        /* \"contracts/temp2.sol\":4174:4201  VoterList[msg.sender].voted */\n      0x00\n      add\n      0x15\n        /* \"contracts/temp2.sol\":4174:4206  VoterList[msg.sender].voted=true */\n      0x0100\n      exp\n      dup2\n      sload\n      dup2\n      0xff\n      mul\n      not\n      and\n      swap1\n      dup4\n      iszero\n      iszero\n      mul\n      or\n      swap1\n      sstore\n      pop\n        /* \"contracts/temp2.sol\":4238:4242  true */\n      0x01\n        /* \"contracts/temp2.sol\":4214:4226  displayVoter */\n      0x0b\n        /* \"contracts/temp2.sol\":4227:4230  VId */\n      dup3\n        /* \"contracts/temp2.sol\":4214:4231  displayVoter[VId] */\n      dup2\n      sload\n      dup2\n      lt\n      tag_129\n      jumpi\n      tag_130\n      tag_103\n      jump\t// in\n    tag_130:\n    tag_129:\n      swap1\n      0x00\n      mstore\n      keccak256(0x00, 0x20)\n      swap1\n      0x03\n      mul\n      add\n        /* \"contracts/temp2.sol\":4214:4237  displayVoter[VId].voted */\n      0x00\n      add\n      0x15\n        /* \"contracts/temp2.sol\":4214:4242  displayVoter[VId].voted=true */\n      0x0100\n      exp\n      dup2\n      sload\n      dup2\n      0xff\n      mul\n      not\n      and\n      swap1\n      dup4\n      iszero\n      iszero\n      mul\n      or\n      swap1\n      sstore\n      pop\n        /* \"contracts/temp2.sol\":4025:4247  if(VoterList[msg.sender].transferedVote!=0){... */\n    tag_128:\n        /* \"contracts/temp2.sol\":3502:4250  {... */\n      pop\n        /* \"contracts/temp2.sol\":3441:4250  function CastVote(uint _id,address _candidateAddress)  public{... */\n      pop\n      pop\n      jump\t// out\n        /* \"contracts/temp2.sol\":2082:2717  function registerVoter( address _voterAddress)   public {... */\n    tag_39:\n        /* \"contracts/temp2.sol\":2172:2177  false */\n      0x00\n        /* \"contracts/temp2.sol\":2157:2177  votingStarted==false */\n      iszero\n      iszero\n        /* \"contracts/temp2.sol\":2157:2170  votingStarted */\n      0x00\n      0x14\n      swap1\n      sload\n      swap1\n      0x0100\n      exp\n      swap1\n      div\n      0xff\n      and\n        /* \"contracts/temp2.sol\":2157:2177  votingStarted==false */\n      iszero\n      iszero\n      eq\n        /* \"contracts/temp2.sol\":2149:2178  require(votingStarted==false) */\n      tag_133\n      jumpi\n      0x00\n      dup1\n      revert\n    tag_133:\n        /* \"contracts/temp2.sol\":2210:2220  msg.sender */\n      caller\n        /* \"contracts/temp2.sol\":2197:2220  votingAdmin==msg.sender */\n      0xffffffffffffffffffffffffffffffffffffffff\n      and\n        /* \"contracts/temp2.sol\":2197:2208  votingAdmin */\n      0x00\n      dup1\n      sload\n      swap1\n      0x0100\n      exp\n      swap1\n      div\n      0xffffffffffffffffffffffffffffffffffffffff\n      and\n        /* \"contracts/temp2.sol\":2197:2220  votingAdmin==msg.sender */\n      0xffffffffffffffffffffffffffffffffffffffff\n      and\n      eq\n        /* \"contracts/temp2.sol\":2189:2253  require(votingAdmin==msg.sender,\"only admin can register voter\") */\n      tag_134\n      jumpi\n      mload(0x40)\n      0x08c379a000000000000000000000000000000000000000000000000000000000\n      dup2\n      mstore\n      0x04\n      add\n      tag_135\n      swap1\n      tag_136\n      jump\t// in\n    tag_135:\n      mload(0x40)\n      dup1\n      swap2\n      sub\n      swap1\n      revert\n    tag_134:\n        /* \"contracts/temp2.sol\":2287:2298  votingAdmin */\n      0x00\n      dup1\n      sload\n      swap1\n      0x0100\n      exp\n      swap1\n      div\n      0xffffffffffffffffffffffffffffffffffffffff\n      and\n        /* \"contracts/temp2.sol\":2272:2298  _voterAddress!=votingAdmin */\n      0xffffffffffffffffffffffffffffffffffffffff\n      and\n        /* \"contracts/temp2.sol\":2272:2285  _voterAddress */\n      dup2\n        /* \"contracts/temp2.sol\":2272:2298  _voterAddress!=votingAdmin */\n      0xffffffffffffffffffffffffffffffffffffffff\n      and\n      sub\n        /* \"contracts/temp2.sol\":2264:2332  require(_voterAddress!=votingAdmin,\"admin cannot register for vote\") */\n      tag_137\n      jumpi\n      mload(0x40)\n      0x08c379a000000000000000000000000000000000000000000000000000000000\n      dup2\n      mstore\n      0x04\n      add\n      tag_138\n      swap1\n      tag_139\n      jump\t// in\n    tag_138:\n      mload(0x40)\n      dup1\n      swap2\n      sub\n      swap1\n      revert\n    tag_137:\n        /* \"contracts/temp2.sol\":2386:2391  false */\n      0x00\n        /* \"contracts/temp2.sol\":2351:2391  VoterList[_voterAddress].register==false */\n      iszero\n      iszero\n        /* \"contracts/temp2.sol\":2351:2360  VoterList */\n      0x0a\n        /* \"contracts/temp2.sol\":2351:2375  VoterList[_voterAddress] */\n      0x00\n        /* \"contracts/temp2.sol\":2361:2374  _voterAddress */\n      dup4\n        /* \"contracts/temp2.sol\":2351:2375  VoterList[_voterAddress] */\n      0xffffffffffffffffffffffffffffffffffffffff\n      and\n      0xffffffffffffffffffffffffffffffffffffffff\n      and\n      dup2\n      mstore\n      0x20\n      add\n      swap1\n      dup2\n      mstore\n      0x20\n      add\n      0x00\n      keccak256\n        /* \"contracts/temp2.sol\":2351:2384  VoterList[_voterAddress].register */\n      0x00\n      add\n      0x14\n      swap1\n      sload\n      swap1\n      0x0100\n      exp\n      swap1\n      div\n      0xff\n      and\n        /* \"contracts/temp2.sol\":2351:2391  VoterList[_voterAddress].register==false */\n      iszero\n      iszero\n      eq\n        /* \"contracts/temp2.sol\":2343:2419  require(VoterList[_voterAddress].register==false,\"voter already registered\") */\n      tag_140\n      jumpi\n      mload(0x40)\n      0x08c379a000000000000000000000000000000000000000000000000000000000\n      dup2\n      mstore\n      0x04\n      add\n      tag_141\n      swap1\n      tag_142\n      jump\t// in\n    tag_141:\n      mload(0x40)\n      dup1\n      swap2\n      sub\n      swap1\n      revert\n    tag_140:\n        /* \"contracts/temp2.sol\":2430:2449  voters memory voter */\n      0x00\n        /* \"contracts/temp2.sol\":2450:2633  voters({... */\n      mload(0x40)\n      dup1\n      0xa0\n      add\n      0x40\n      mstore\n      dup1\n        /* \"contracts/temp2.sol\":2539:2552  _voterAddress */\n      dup4\n        /* \"contracts/temp2.sol\":2450:2633  voters({... */\n      0xffffffffffffffffffffffffffffffffffffffff\n      and\n      dup2\n      mstore\n      0x20\n      add\n        /* \"contracts/temp2.sol\":2481:2485  true */\n      0x01\n        /* \"contracts/temp2.sol\":2450:2633  voters({... */\n      iszero\n      iszero\n      dup2\n      mstore\n      0x20\n      add\n        /* \"contracts/temp2.sol\":2506:2511  false */\n      0x00\n        /* \"contracts/temp2.sol\":2450:2633  voters({... */\n      iszero\n      iszero\n      dup2\n      mstore\n      0x20\n      add\n        /* \"contracts/temp2.sol\":2582:2583  0 */\n      0x00\n        /* \"contracts/temp2.sol\":2450:2633  voters({... */\n      dup2\n      mstore\n      0x20\n      add\n        /* \"contracts/temp2.sol\":2601:2613  displayVoter */\n      0x0b\n        /* \"contracts/temp2.sol\":2601:2620  displayVoter.length */\n      dup1\n      sload\n      swap1\n      pop\n        /* \"contracts/temp2.sol\":2450:2633  voters({... */\n      dup2\n      mstore\n      pop\n        /* \"contracts/temp2.sol\":2430:2633  voters memory voter=voters({... */\n      swap1\n      pop\n        /* \"contracts/temp2.sol\":2669:2674  voter */\n      dup1\n        /* \"contracts/temp2.sol\":2644:2653  VoterList */\n      0x0a\n        /* \"contracts/temp2.sol\":2644:2668  VoterList[_voterAddress] */\n      0x00\n        /* \"contracts/temp2.sol\":2654:2667  _voterAddress */\n      dup5\n        /* \"contracts/temp2.sol\":2644:2668  VoterList[_voterAddress] */\n      0xffffffffffffffffffffffffffffffffffffffff\n      and\n      0xffffffffffffffffffffffffffffffffffffffff\n      and\n      dup2\n      mstore\n      0x20\n      add\n      swap1\n      dup2\n      mstore\n      0x20\n      add\n      0x00\n      keccak256\n        /* \"contracts/temp2.sol\":2644:2674  VoterList[_voterAddress]=voter */\n      0x00\n      dup3\n      add\n      mload\n      dup2\n      0x00\n      add\n      exp(0x0100, 0x00)\n      dup2\n      sload\n      dup2\n      0xffffffffffffffffffffffffffffffffffffffff\n      mul\n      not\n      and\n      swap1\n      dup4\n      0xffffffffffffffffffffffffffffffffffffffff\n      and\n      mul\n      or\n      swap1\n      sstore\n      pop\n      0x20\n      dup3\n      add\n      mload\n      dup2\n      0x00\n      add\n      exp(0x0100, 0x14)\n      dup2\n      sload\n      dup2\n      0xff\n      mul\n      not\n      and\n      swap1\n      dup4\n      iszero\n      iszero\n      mul\n      or\n      swap1\n      sstore\n      pop\n      0x40\n      dup3\n      add\n      mload\n      dup2\n      0x00\n      add\n      exp(0x0100, 0x15)\n      dup2\n      sload\n      dup2\n      0xff\n      mul\n      not\n      and\n      swap1\n      dup4\n      iszero\n      iszero\n      mul\n      or\n      swap1\n      sstore\n      pop\n      0x60\n      dup3\n      add\n      mload\n      dup2\n      0x01\n      add\n      sstore\n      0x80\n      dup3\n      add\n      mload\n      dup2\n      0x02\n      add\n      sstore\n      swap1\n      pop\n      pop\n        /* \"contracts/temp2.sol\":2685:2697  displayVoter */\n      0x0b\n        /* \"contracts/temp2.sol\":2703:2708  voter */\n      dup2\n        /* \"contracts/temp2.sol\":2685:2709  displayVoter.push(voter) */\n      swap1\n      dup1\n      0x01\n      dup2\n      sload\n      add\n      dup1\n      dup3\n      sstore\n      dup1\n      swap2\n      pop\n      pop\n      0x01\n      swap1\n      sub\n      swap1\n      0x00\n      mstore\n      keccak256(0x00, 0x20)\n      swap1\n      0x03\n      mul\n      add\n      0x00\n      swap1\n      swap2\n      swap1\n      swap2\n      swap1\n      swap2\n      pop\n      0x00\n      dup3\n      add\n      mload\n      dup2\n      0x00\n      add\n      exp(0x0100, 0x00)\n      dup2\n      sload\n      dup2\n      0xffffffffffffffffffffffffffffffffffffffff\n      mul\n      not\n      and\n      swap1\n      dup4\n      0xffffffffffffffffffffffffffffffffffffffff\n      and\n      mul\n      or\n      swap1\n      sstore\n      pop\n      0x20\n      dup3\n      add\n      mload\n      dup2\n      0x00\n      add\n      exp(0x0100, 0x14)\n      dup2\n      sload\n      dup2\n      0xff\n      mul\n      not\n      and\n      swap1\n      dup4\n      iszero\n      iszero\n      mul\n      or\n      swap1\n      sstore\n      pop\n      0x40\n      dup3\n      add\n      mload\n      dup2\n      0x00\n      add\n      exp(0x0100, 0x15)\n      dup2\n      sload\n      dup2\n      0xff\n      mul\n      not\n      and\n      swap1\n      dup4\n      iszero\n      iszero\n      mul\n      or\n      swap1\n      sstore\n      pop\n      0x60\n      dup3\n      add\n      mload\n      dup2\n      0x01\n      add\n      sstore\n      0x80\n      dup3\n      add\n      mload\n      dup2\n      0x02\n      add\n      sstore\n      pop\n      pop\n        /* \"contracts/temp2.sol\":2138:2717  {... */\n      pop\n        /* \"contracts/temp2.sol\":2082:2717  function registerVoter( address _voterAddress)   public {... */\n      pop\n      jump\t// out\n        /* \"contracts/temp2.sol\":1944:2043  function allCandidates()view public returns (candidates[]memory){... */\n    tag_41:\n        /* \"contracts/temp2.sol\":1989:2007  candidates[]memory */\n      0x60\n        /* \"contracts/temp2.sol\":2022:2039  displayCandidates */\n      0x09\n        /* \"contracts/temp2.sol\":2015:2039  return displayCandidates */\n      dup1\n      sload\n      dup1\n      0x20\n      mul\n      0x20\n      add\n      mload(0x40)\n      swap1\n      dup2\n      add\n      0x40\n      mstore\n      dup1\n      swap3\n      swap2\n      swap1\n      dup2\n      dup2\n      mstore\n      0x20\n      add\n      0x00\n      swap1\n    tag_145:\n      dup3\n      dup3\n      lt\n      iszero\n      tag_146\n      jumpi\n      dup4\n      dup3\n      swap1\n      0x00\n      mstore\n      keccak256(0x00, 0x20)\n      swap1\n      0x05\n      mul\n      add\n      mload(0x40)\n      dup1\n      0xa0\n      add\n      0x40\n      mstore\n      swap1\n      dup2\n      0x00\n      dup3\n      add\n      0x00\n      swap1\n      sload\n      swap1\n      0x0100\n      exp\n      swap1\n      div\n      0xffffffffffffffffffffffffffffffffffffffff\n      and\n      0xffffffffffffffffffffffffffffffffffffffff\n      and\n      0xffffffffffffffffffffffffffffffffffffffff\n      and\n      dup2\n      mstore\n      0x20\n      add\n      0x01\n      dup3\n      add\n      dup1\n      sload\n      tag_148\n      swap1\n      tag_61\n      jump\t// in\n    tag_148:\n      dup1\n      0x1f\n      add\n      0x20\n      dup1\n      swap2\n      div\n      mul\n      0x20\n      add\n      mload(0x40)\n      swap1\n      dup2\n      add\n      0x40\n      mstore\n      dup1\n      swap3\n      swap2\n      swap1\n      dup2\n      dup2\n      mstore\n      0x20\n      add\n      dup3\n      dup1\n      sload\n      tag_149\n      swap1\n      tag_61\n      jump\t// in\n    tag_149:\n      dup1\n      iszero\n      tag_150\n      jumpi\n      dup1\n      0x1f\n      lt\n      tag_151\n      jumpi\n      0x0100\n      dup1\n      dup4\n      sload\n      div\n      mul\n      dup4\n      mstore\n      swap2\n      0x20\n      add\n      swap2\n      jump(tag_150)\n    tag_151:\n      dup3\n      add\n      swap2\n      swap1\n      0x00\n      mstore\n      keccak256(0x00, 0x20)\n      swap1\n    tag_152:\n      dup2\n      sload\n      dup2\n      mstore\n      swap1\n      0x01\n      add\n      swap1\n      0x20\n      add\n      dup1\n      dup4\n      gt\n      tag_152\n      jumpi\n      dup3\n      swap1\n      sub\n      0x1f\n      and\n      dup3\n      add\n      swap2\n    tag_150:\n      pop\n      pop\n      pop\n      pop\n      pop\n      dup2\n      mstore\n      0x20\n      add\n      0x02\n      dup3\n      add\n      dup1\n      sload\n      tag_153\n      swap1\n      tag_61\n      jump\t// in\n    tag_153:\n      dup1\n      0x1f\n      add\n      0x20\n      dup1\n      swap2\n      div\n      mul\n      0x20\n      add\n      mload(0x40)\n      swap1\n      dup2\n      add\n      0x40\n      mstore\n      dup1\n      swap3\n      swap2\n      swap1\n      dup2\n      dup2\n      mstore\n      0x20\n      add\n      dup3\n      dup1\n      sload\n      tag_154\n      swap1\n      tag_61\n      jump\t// in\n    tag_154:\n      dup1\n      iszero\n      tag_155\n      jumpi\n      dup1\n      0x1f\n      lt\n      tag_156\n      jumpi\n      0x0100\n      dup1\n      dup4\n      sload\n      div\n      mul\n      dup4\n      mstore\n      swap2\n      0x20\n      add\n      swap2\n      jump(tag_155)\n    tag_156:\n      dup3\n      add\n      swap2\n      swap1\n      0x00\n      mstore\n      keccak256(0x00, 0x20)\n      swap1\n    tag_157:\n      dup2\n      sload\n      dup2\n      mstore\n      swap1\n      0x01\n      add\n      swap1\n      0x20\n      add\n      dup1\n      dup4\n      gt\n      tag_157\n      jumpi\n      dup3\n      swap1\n      sub\n      0x1f\n      and\n      dup3\n      add\n      swap2\n    tag_155:\n      pop\n      pop\n      pop\n      pop\n      pop\n      dup2\n      mstore\n      0x20\n      add\n      0x03\n      dup3\n      add\n      0x00\n      swap1\n      sload\n      swap1\n      0x0100\n      exp\n      swap1\n      div\n      0xff\n      and\n      iszero\n      iszero\n      iszero\n      iszero\n      dup2\n      mstore\n      0x20\n      add\n      0x04\n      dup3\n      add\n      sload\n      dup2\n      mstore\n      pop\n      pop\n      dup2\n      mstore\n      0x20\n      add\n      swap1\n      0x01\n      add\n      swap1\n      jump(tag_145)\n    tag_146:\n      pop\n      pop\n      pop\n      pop\n      swap1\n      pop\n        /* \"contracts/temp2.sol\":1944:2043  function allCandidates()view public returns (candidates[]memory){... */\n      swap1\n      jump\t// out\n        /* \"contracts/temp2.sol\":4956:6090  function delegateVote( address _delegate)   public  {... */\n    tag_46:\n        /* \"contracts/temp2.sol\":5016:5030  uint _senderID */\n      0x00\n        /* \"contracts/temp2.sol\":5031:5040  VoterList */\n      0x0a\n        /* \"contracts/temp2.sol\":5031:5052  VoterList[msg.sender] */\n      0x00\n        /* \"contracts/temp2.sol\":5041:5051  msg.sender */\n      caller\n        /* \"contracts/temp2.sol\":5031:5052  VoterList[msg.sender] */\n      0xffffffffffffffffffffffffffffffffffffffff\n      and\n      0xffffffffffffffffffffffffffffffffffffffff\n      and\n      dup2\n      mstore\n      0x20\n      add\n      swap1\n      dup2\n      mstore\n      0x20\n      add\n      0x00\n      keccak256\n        /* \"contracts/temp2.sol\":5031:5055  VoterList[msg.sender].id */\n      0x02\n      add\n      sload\n        /* \"contracts/temp2.sol\":5016:5055  uint _senderID=VoterList[msg.sender].id */\n      swap1\n      pop\n        /* \"contracts/temp2.sol\":5062:5078  uint _receiverID */\n      0x00\n        /* \"contracts/temp2.sol\":5079:5088  VoterList */\n      0x0a\n        /* \"contracts/temp2.sol\":5079:5099  VoterList[_delegate] */\n      0x00\n        /* \"contracts/temp2.sol\":5089:5098  _delegate */\n      dup5\n        /* \"contracts/temp2.sol\":5079:5099  VoterList[_delegate] */\n      0xffffffffffffffffffffffffffffffffffffffff\n      and\n      0xffffffffffffffffffffffffffffffffffffffff\n      and\n      dup2\n      mstore\n      0x20\n      add\n      swap1\n      dup2\n      mstore\n      0x20\n      add\n      0x00\n      keccak256\n        /* \"contracts/temp2.sol\":5079:5102  VoterList[_delegate].id */\n      0x02\n      add\n      sload\n        /* \"contracts/temp2.sol\":5062:5102  uint _receiverID=VoterList[_delegate].id */\n      swap1\n      pop\n        /* \"contracts/temp2.sol\":5125:5140  vStatus.ongoing */\n      0x01\n        /* \"contracts/temp2.sol\":5117:5140  choice==vStatus.ongoing */\n      0x02\n      dup2\n      gt\n      iszero\n      tag_159\n      jumpi\n      tag_160\n      tag_83\n      jump\t// in\n    tag_160:\n    tag_159:\n        /* \"contracts/temp2.sol\":5117:5123  choice */\n      0x07\n      0x00\n      swap1\n      sload\n      swap1\n      0x0100\n      exp\n      swap1\n      div\n      0xff\n      and\n        /* \"contracts/temp2.sol\":5117:5140  choice==vStatus.ongoing */\n      0x02\n      dup2\n      gt\n      iszero\n      tag_161\n      jumpi\n      tag_162\n      tag_83\n      jump\t// in\n    tag_162:\n    tag_161:\n      eq\n        /* \"contracts/temp2.sol\":5109:5183  require(choice==vStatus.ongoing,\"voting must be ongoing to delegate vote\") */\n      tag_163\n      jumpi\n      mload(0x40)\n      0x08c379a000000000000000000000000000000000000000000000000000000000\n      dup2\n      mstore\n      0x04\n      add\n      tag_164\n      swap1\n      tag_165\n      jump\t// in\n    tag_164:\n      mload(0x40)\n      dup1\n      swap2\n      sub\n      swap1\n      revert\n    tag_163:\n        /* \"contracts/temp2.sol\":5236:5246  msg.sender */\n      caller\n        /* \"contracts/temp2.sol\":5198:5246  displayVoter[_senderID].voterAddress==msg.sender */\n      0xffffffffffffffffffffffffffffffffffffffff\n      and\n        /* \"contracts/temp2.sol\":5198:5210  displayVoter */\n      0x0b\n        /* \"contracts/temp2.sol\":5211:5220  _senderID */\n      dup4\n        /* \"contracts/temp2.sol\":5198:5221  displayVoter[_senderID] */\n      dup2\n      sload\n      dup2\n      lt\n      tag_166\n      jumpi\n      tag_167\n      tag_103\n      jump\t// in\n    tag_167:\n    tag_166:\n      swap1\n      0x00\n      mstore\n      keccak256(0x00, 0x20)\n      swap1\n      0x03\n      mul\n      add\n        /* \"contracts/temp2.sol\":5198:5234  displayVoter[_senderID].voterAddress */\n      0x00\n      add\n      0x00\n      swap1\n      sload\n      swap1\n      0x0100\n      exp\n      swap1\n      div\n      0xffffffffffffffffffffffffffffffffffffffff\n      and\n        /* \"contracts/temp2.sol\":5198:5246  displayVoter[_senderID].voterAddress==msg.sender */\n      0xffffffffffffffffffffffffffffffffffffffff\n      and\n      eq\n        /* \"contracts/temp2.sol\":5190:5247  require(displayVoter[_senderID].voterAddress==msg.sender) */\n      tag_169\n      jumpi\n      0x00\n      dup1\n      revert\n    tag_169:\n        /* \"contracts/temp2.sol\":5291:5296  false */\n      0x00\n        /* \"contracts/temp2.sol\":5262:5296  VoterList[msg.sender].voted==false */\n      iszero\n      iszero\n        /* \"contracts/temp2.sol\":5262:5271  VoterList */\n      0x0a\n        /* \"contracts/temp2.sol\":5262:5283  VoterList[msg.sender] */\n      0x00\n        /* \"contracts/temp2.sol\":5272:5282  msg.sender */\n      caller\n        /* \"contracts/temp2.sol\":5262:5283  VoterList[msg.sender] */\n      0xffffffffffffffffffffffffffffffffffffffff\n      and\n      0xffffffffffffffffffffffffffffffffffffffff\n      and\n      dup2\n      mstore\n      0x20\n      add\n      swap1\n      dup2\n      mstore\n      0x20\n      add\n      0x00\n      keccak256\n        /* \"contracts/temp2.sol\":5262:5289  VoterList[msg.sender].voted */\n      0x00\n      add\n      0x15\n      swap1\n      sload\n      swap1\n      0x0100\n      exp\n      swap1\n      div\n      0xff\n      and\n        /* \"contracts/temp2.sol\":5262:5296  VoterList[msg.sender].voted==false */\n      iszero\n      iszero\n      eq\n        /* \"contracts/temp2.sol\":5262:5337  VoterList[msg.sender].voted==false||VoterList[msg.sender].transferedVote!=0 */\n      dup1\n      tag_170\n      jumpi\n      pop\n        /* \"contracts/temp2.sol\":5336:5337  0 */\n      0x00\n        /* \"contracts/temp2.sol\":5298:5307  VoterList */\n      0x0a\n        /* \"contracts/temp2.sol\":5298:5319  VoterList[msg.sender] */\n      0x00\n        /* \"contracts/temp2.sol\":5308:5318  msg.sender */\n      caller\n        /* \"contracts/temp2.sol\":5298:5319  VoterList[msg.sender] */\n      0xffffffffffffffffffffffffffffffffffffffff\n      and\n      0xffffffffffffffffffffffffffffffffffffffff\n      and\n      dup2\n      mstore\n      0x20\n      add\n      swap1\n      dup2\n      mstore\n      0x20\n      add\n      0x00\n      keccak256\n        /* \"contracts/temp2.sol\":5298:5334  VoterList[msg.sender].transferedVote */\n      0x01\n      add\n      sload\n        /* \"contracts/temp2.sol\":5298:5337  VoterList[msg.sender].transferedVote!=0 */\n      eq\n      iszero\n        /* \"contracts/temp2.sol\":5262:5337  VoterList[msg.sender].voted==false||VoterList[msg.sender].transferedVote!=0 */\n    tag_170:\n        /* \"contracts/temp2.sol\":5254:5392  require(VoterList[msg.sender].voted==false||VoterList[msg.sender].transferedVote!=0,\"only those can delegate vote who have not voted yet\") */\n      tag_171\n      jumpi\n      mload(0x40)\n      0x08c379a000000000000000000000000000000000000000000000000000000000\n      dup2\n      mstore\n      0x04\n      add\n      tag_172\n      swap1\n      tag_173\n      jump\t// in\n    tag_172:\n      mload(0x40)\n      dup1\n      swap2\n      sub\n      swap1\n      revert\n    tag_171:\n        /* \"contracts/temp2.sol\":5420:5430  msg.sender */\n      caller\n        /* \"contracts/temp2.sol\":5407:5430  votingAdmin!=msg.sender */\n      0xffffffffffffffffffffffffffffffffffffffff\n      and\n        /* \"contracts/temp2.sol\":5407:5418  votingAdmin */\n      0x00\n      dup1\n      sload\n      swap1\n      0x0100\n      exp\n      swap1\n      div\n      0xffffffffffffffffffffffffffffffffffffffff\n      and\n        /* \"contracts/temp2.sol\":5407:5430  votingAdmin!=msg.sender */\n      0xffffffffffffffffffffffffffffffffffffffff\n      and\n      sub\n        /* \"contracts/temp2.sol\":5399:5460  require(votingAdmin!=msg.sender,\"admin cannot delegate vote\") */\n      tag_174\n      jumpi\n      mload(0x40)\n      0x08c379a000000000000000000000000000000000000000000000000000000000\n      dup2\n      mstore\n      0x04\n      add\n      tag_175\n      swap1\n      tag_176\n      jump\t// in\n    tag_175:\n      mload(0x40)\n      dup1\n      swap2\n      sub\n      swap1\n      revert\n    tag_174:\n        /* \"contracts/temp2.sol\":5487:5496  _delegate */\n      dup3\n        /* \"contracts/temp2.sol\":5475:5496  msg.sender!=_delegate */\n      0xffffffffffffffffffffffffffffffffffffffff\n      and\n        /* \"contracts/temp2.sol\":5475:5485  msg.sender */\n      caller\n        /* \"contracts/temp2.sol\":5475:5496  msg.sender!=_delegate */\n      0xffffffffffffffffffffffffffffffffffffffff\n      and\n      sub\n        /* \"contracts/temp2.sol\":5467:5528  require(msg.sender!=_delegate,\"Cannot delegate vote to self\") */\n      tag_177\n      jumpi\n      mload(0x40)\n      0x08c379a000000000000000000000000000000000000000000000000000000000\n      dup2\n      mstore\n      0x04\n      add\n      tag_178\n      swap1\n      tag_179\n      jump\t// in\n    tag_178:\n      mload(0x40)\n      dup1\n      swap2\n      sub\n      swap1\n      revert\n    tag_177:\n        /* \"contracts/temp2.sol\":5579:5583  true */\n      0x01\n        /* \"contracts/temp2.sol\":5543:5583  CandidateList[msg.sender].register!=true */\n      iszero\n      iszero\n        /* \"contracts/temp2.sol\":5543:5556  CandidateList */\n      0x08\n        /* \"contracts/temp2.sol\":5543:5568  CandidateList[msg.sender] */\n      0x00\n        /* \"contracts/temp2.sol\":5557:5567  msg.sender */\n      caller\n        /* \"contracts/temp2.sol\":5543:5568  CandidateList[msg.sender] */\n      0xffffffffffffffffffffffffffffffffffffffff\n      and\n      0xffffffffffffffffffffffffffffffffffffffff\n      and\n      dup2\n      mstore\n      0x20\n      add\n      swap1\n      dup2\n      mstore\n      0x20\n      add\n      0x00\n      keccak256\n        /* \"contracts/temp2.sol\":5543:5577  CandidateList[msg.sender].register */\n      0x03\n      add\n      0x00\n      swap1\n      sload\n      swap1\n      0x0100\n      exp\n      swap1\n      div\n      0xff\n      and\n        /* \"contracts/temp2.sol\":5543:5583  CandidateList[msg.sender].register!=true */\n      iszero\n      iszero\n      eq\n      iszero\n        /* \"contracts/temp2.sol\":5543:5624  CandidateList[msg.sender].register!=true&&CandidateList[_delegate].register!=true */\n      dup1\n      iszero\n      tag_180\n      jumpi\n      pop\n        /* \"contracts/temp2.sol\":5620:5624  true */\n      0x01\n        /* \"contracts/temp2.sol\":5585:5624  CandidateList[_delegate].register!=true */\n      iszero\n      iszero\n        /* \"contracts/temp2.sol\":5585:5598  CandidateList */\n      0x08\n        /* \"contracts/temp2.sol\":5585:5609  CandidateList[_delegate] */\n      0x00\n        /* \"contracts/temp2.sol\":5599:5608  _delegate */\n      dup6\n        /* \"contracts/temp2.sol\":5585:5609  CandidateList[_delegate] */\n      0xffffffffffffffffffffffffffffffffffffffff\n      and\n      0xffffffffffffffffffffffffffffffffffffffff\n      and\n      dup2\n      mstore\n      0x20\n      add\n      swap1\n      dup2\n      mstore\n      0x20\n      add\n      0x00\n      keccak256\n        /* \"contracts/temp2.sol\":5585:5618  CandidateList[_delegate].register */\n      0x03\n      add\n      0x00\n      swap1\n      sload\n      swap1\n      0x0100\n      exp\n      swap1\n      div\n      0xff\n      and\n        /* \"contracts/temp2.sol\":5585:5624  CandidateList[_delegate].register!=true */\n      iszero\n      iszero\n      eq\n      iszero\n        /* \"contracts/temp2.sol\":5543:5624  CandidateList[msg.sender].register!=true&&CandidateList[_delegate].register!=true */\n    tag_180:\n        /* \"contracts/temp2.sol\":5535:5670  require(CandidateList[msg.sender].register!=true&&CandidateList[_delegate].register!=true,\"Candidate cannot accept and transfer votes\") */\n      tag_181\n      jumpi\n      mload(0x40)\n      0x08c379a000000000000000000000000000000000000000000000000000000000\n      dup2\n      mstore\n      0x04\n      add\n      tag_182\n      swap1\n      tag_183\n      jump\t// in\n    tag_182:\n      mload(0x40)\n      dup1\n      swap2\n      sub\n      swap1\n      revert\n    tag_181:\n        /* \"contracts/temp2.sol\":5678:5687  VoterList */\n      0x0a\n        /* \"contracts/temp2.sol\":5678:5698  VoterList[_delegate] */\n      0x00\n        /* \"contracts/temp2.sol\":5688:5697  _delegate */\n      dup5\n        /* \"contracts/temp2.sol\":5678:5698  VoterList[_delegate] */\n      0xffffffffffffffffffffffffffffffffffffffff\n      and\n      0xffffffffffffffffffffffffffffffffffffffff\n      and\n      dup2\n      mstore\n      0x20\n      add\n      swap1\n      dup2\n      mstore\n      0x20\n      add\n      0x00\n      keccak256\n        /* \"contracts/temp2.sol\":5678:5713  VoterList[_delegate].transferedVote */\n      0x01\n      add\n      0x00\n        /* \"contracts/temp2.sol\":5678:5715  VoterList[_delegate].transferedVote++ */\n      dup2\n      sload\n      dup1\n      swap3\n      swap2\n      swap1\n      tag_184\n      swap1\n      tag_100\n      jump\t// in\n    tag_184:\n      swap2\n      swap1\n      pop\n      sstore\n      pop\n        /* \"contracts/temp2.sol\":5764:5765  0 */\n      0x00\n        /* \"contracts/temp2.sol\":5726:5735  VoterList */\n      0x0a\n        /* \"contracts/temp2.sol\":5726:5747  VoterList[msg.sender] */\n      0x00\n        /* \"contracts/temp2.sol\":5736:5746  msg.sender */\n      caller\n        /* \"contracts/temp2.sol\":5726:5747  VoterList[msg.sender] */\n      0xffffffffffffffffffffffffffffffffffffffff\n      and\n      0xffffffffffffffffffffffffffffffffffffffff\n      and\n      dup2\n      mstore\n      0x20\n      add\n      swap1\n      dup2\n      mstore\n      0x20\n      add\n      0x00\n      keccak256\n        /* \"contracts/temp2.sol\":5726:5762  VoterList[msg.sender].transferedVote */\n      0x01\n      add\n      sload\n        /* \"contracts/temp2.sol\":5726:5765  VoterList[msg.sender].transferedVote==0 */\n      sub\n        /* \"contracts/temp2.sol\":5722:6087  if (VoterList[msg.sender].transferedVote==0){... */\n      tag_185\n      jumpi\n        /* \"contracts/temp2.sol\":5805:5809  true */\n      0x01\n        /* \"contracts/temp2.sol\":5777:5786  VoterList */\n      0x0a\n        /* \"contracts/temp2.sol\":5777:5798  VoterList[msg.sender] */\n      0x00\n        /* \"contracts/temp2.sol\":5787:5797  msg.sender */\n      caller\n        /* \"contracts/temp2.sol\":5777:5798  VoterList[msg.sender] */\n      0xffffffffffffffffffffffffffffffffffffffff\n      and\n      0xffffffffffffffffffffffffffffffffffffffff\n      and\n      dup2\n      mstore\n      0x20\n      add\n      swap1\n      dup2\n      mstore\n      0x20\n      add\n      0x00\n      keccak256\n        /* \"contracts/temp2.sol\":5777:5804  VoterList[msg.sender].voted */\n      0x00\n      add\n      0x15\n        /* \"contracts/temp2.sol\":5777:5809  VoterList[msg.sender].voted=true */\n      0x0100\n      exp\n      dup2\n      sload\n      dup2\n      0xff\n      mul\n      not\n      and\n      swap1\n      dup4\n      iszero\n      iszero\n      mul\n      or\n      swap1\n      sstore\n      pop\n        /* \"contracts/temp2.sol\":5850:5854  true */\n      0x01\n        /* \"contracts/temp2.sol\":5820:5832  displayVoter */\n      0x0b\n        /* \"contracts/temp2.sol\":5833:5842  _senderID */\n      dup4\n        /* \"contracts/temp2.sol\":5820:5843  displayVoter[_senderID] */\n      dup2\n      sload\n      dup2\n      lt\n      tag_186\n      jumpi\n      tag_187\n      tag_103\n      jump\t// in\n    tag_187:\n    tag_186:\n      swap1\n      0x00\n      mstore\n      keccak256(0x00, 0x20)\n      swap1\n      0x03\n      mul\n      add\n        /* \"contracts/temp2.sol\":5820:5849  displayVoter[_senderID].voted */\n      0x00\n      add\n      0x15\n        /* \"contracts/temp2.sol\":5820:5854  displayVoter[_senderID].voted=true */\n      0x0100\n      exp\n      dup2\n      sload\n      dup2\n      0xff\n      mul\n      not\n      and\n      swap1\n      dup4\n      iszero\n      iszero\n      mul\n      or\n      swap1\n      sstore\n      pop\n        /* \"contracts/temp2.sol\":5865:5877  displayVoter */\n      0x0b\n        /* \"contracts/temp2.sol\":5878:5889  _receiverID */\n      dup2\n        /* \"contracts/temp2.sol\":5865:5890  displayVoter[_receiverID] */\n      dup2\n      sload\n      dup2\n      lt\n      tag_189\n      jumpi\n      tag_190\n      tag_103\n      jump\t// in\n    tag_190:\n    tag_189:\n      swap1\n      0x00\n      mstore\n      keccak256(0x00, 0x20)\n      swap1\n      0x03\n      mul\n      add\n        /* \"contracts/temp2.sol\":5865:5905  displayVoter[_receiverID].transferedVote */\n      0x01\n      add\n      0x00\n        /* \"contracts/temp2.sol\":5865:5907  displayVoter[_receiverID].transferedVote++ */\n      dup2\n      sload\n      dup1\n      swap3\n      swap2\n      swap1\n      tag_192\n      swap1\n      tag_100\n      jump\t// in\n    tag_192:\n      swap2\n      swap1\n      pop\n      sstore\n      pop\n        /* \"contracts/temp2.sol\":5722:6087  if (VoterList[msg.sender].transferedVote==0){... */\n      jump(tag_193)\n    tag_185:\n        /* \"contracts/temp2.sol\":5936:5945  VoterList */\n      0x0a\n        /* \"contracts/temp2.sol\":5936:5957  VoterList[msg.sender] */\n      0x00\n        /* \"contracts/temp2.sol\":5946:5956  msg.sender */\n      caller\n        /* \"contracts/temp2.sol\":5936:5957  VoterList[msg.sender] */\n      0xffffffffffffffffffffffffffffffffffffffff\n      and\n      0xffffffffffffffffffffffffffffffffffffffff\n      and\n      dup2\n      mstore\n      0x20\n      add\n      swap1\n      dup2\n      mstore\n      0x20\n      add\n      0x00\n      keccak256\n        /* \"contracts/temp2.sol\":5936:5972  VoterList[msg.sender].transferedVote */\n      0x01\n      add\n      0x00\n        /* \"contracts/temp2.sol\":5936:5974  VoterList[msg.sender].transferedVote-- */\n      dup2\n      sload\n      dup1\n      swap3\n      swap2\n      swap1\n      tag_194\n      swap1\n      tag_123\n      jump\t// in\n    tag_194:\n      swap2\n      swap1\n      pop\n      sstore\n      pop\n        /* \"contracts/temp2.sol\":5985:5997  displayVoter */\n      0x0b\n        /* \"contracts/temp2.sol\":5998:6007  _senderID */\n      dup3\n        /* \"contracts/temp2.sol\":5985:6008  displayVoter[_senderID] */\n      dup2\n      sload\n      dup2\n      lt\n      tag_195\n      jumpi\n      tag_196\n      tag_103\n      jump\t// in\n    tag_196:\n    tag_195:\n      swap1\n      0x00\n      mstore\n      keccak256(0x00, 0x20)\n      swap1\n      0x03\n      mul\n      add\n        /* \"contracts/temp2.sol\":5985:6023  displayVoter[_senderID].transferedVote */\n      0x01\n      add\n      0x00\n        /* \"contracts/temp2.sol\":5985:6025  displayVoter[_senderID].transferedVote-- */\n      dup2\n      sload\n      dup1\n      swap3\n      swap2\n      swap1\n      tag_198\n      swap1\n      tag_123\n      jump\t// in\n    tag_198:\n      swap2\n      swap1\n      pop\n      sstore\n      pop\n        /* \"contracts/temp2.sol\":6037:6049  displayVoter */\n      0x0b\n        /* \"contracts/temp2.sol\":6050:6061  _receiverID */\n      dup2\n        /* \"contracts/temp2.sol\":6037:6062  displayVoter[_receiverID] */\n      dup2\n      sload\n      dup2\n      lt\n      tag_199\n      jumpi\n      tag_200\n      tag_103\n      jump\t// in\n    tag_200:\n    tag_199:\n      swap1\n      0x00\n      mstore\n      keccak256(0x00, 0x20)\n      swap1\n      0x03\n      mul\n      add\n        /* \"contracts/temp2.sol\":6037:6077  displayVoter[_receiverID].transferedVote */\n      0x01\n      add\n      0x00\n        /* \"contracts/temp2.sol\":6037:6079  displayVoter[_receiverID].transferedVote++ */\n      dup2\n      sload\n      dup1\n      swap3\n      swap2\n      swap1\n      tag_202\n      swap1\n      tag_100\n      jump\t// in\n    tag_202:\n      swap2\n      swap1\n      pop\n      sstore\n      pop\n        /* \"contracts/temp2.sol\":5722:6087  if (VoterList[msg.sender].transferedVote==0){... */\n    tag_193:\n        /* \"contracts/temp2.sol\":5008:6090  {... */\n      pop\n      pop\n        /* \"contracts/temp2.sol\":4956:6090  function delegateVote( address _delegate)   public  {... */\n      pop\n      jump\t// out\n        /* \"contracts/temp2.sol\":3108:3281  function endVoting()public{... */\n    tag_48:\n        /* \"contracts/temp2.sol\":3162:3172  msg.sender */\n      caller\n        /* \"contracts/temp2.sol\":3149:3172  votingAdmin==msg.sender */\n      0xffffffffffffffffffffffffffffffffffffffff\n      and\n        /* \"contracts/temp2.sol\":3149:3160  votingAdmin */\n      0x00\n      dup1\n      sload\n      swap1\n      0x0100\n      exp\n      swap1\n      div\n      0xffffffffffffffffffffffffffffffffffffffff\n      and\n        /* \"contracts/temp2.sol\":3149:3172  votingAdmin==msg.sender */\n      0xffffffffffffffffffffffffffffffffffffffff\n      and\n      eq\n        /* \"contracts/temp2.sol\":3149:3193  votingAdmin==msg.sender&&votingStarted==true */\n      dup1\n      iszero\n      tag_204\n      jumpi\n      pop\n        /* \"contracts/temp2.sol\":3189:3193  true */\n      0x01\n        /* \"contracts/temp2.sol\":3174:3193  votingStarted==true */\n      iszero\n      iszero\n        /* \"contracts/temp2.sol\":3174:3187  votingStarted */\n      0x00\n      0x14\n      swap1\n      sload\n      swap1\n      0x0100\n      exp\n      swap1\n      div\n      0xff\n      and\n        /* \"contracts/temp2.sol\":3174:3193  votingStarted==true */\n      iszero\n      iszero\n      eq\n        /* \"contracts/temp2.sol\":3149:3193  votingAdmin==msg.sender&&votingStarted==true */\n    tag_204:\n        /* \"contracts/temp2.sol\":3149:3205  votingAdmin==msg.sender&&votingStarted==true&&endVote==0 */\n      dup1\n      iszero\n      tag_205\n      jumpi\n      pop\n        /* \"contracts/temp2.sol\":3204:3205  0 */\n      0x00\n        /* \"contracts/temp2.sol\":3195:3202  endVote */\n      sload(0x02)\n        /* \"contracts/temp2.sol\":3195:3205  endVote==0 */\n      eq\n        /* \"contracts/temp2.sol\":3149:3205  votingAdmin==msg.sender&&votingStarted==true&&endVote==0 */\n    tag_205:\n        /* \"contracts/temp2.sol\":3141:3206  require(votingAdmin==msg.sender&&votingStarted==true&&endVote==0) */\n      tag_206\n      jumpi\n      0x00\n      dup1\n      revert\n    tag_206:\n        /* \"contracts/temp2.sol\":3221:3222  1 */\n      0x01\n        /* \"contracts/temp2.sol\":3213:3220  endVote */\n      0x02\n        /* \"contracts/temp2.sol\":3213:3222  endVote=1 */\n      dup2\n      swap1\n      sstore\n      pop\n        /* \"contracts/temp2.sol\":3236:3249  vStatus.ended */\n      0x02\n        /* \"contracts/temp2.sol\":3229:3235  choice */\n      0x07\n      0x00\n        /* \"contracts/temp2.sol\":3229:3249  choice=vStatus.ended */\n      0x0100\n      exp\n      dup2\n      sload\n      dup2\n      0xff\n      mul\n      not\n      and\n      swap1\n      dup4\n      0x02\n      dup2\n      gt\n      iszero\n      tag_207\n      jumpi\n      tag_208\n      tag_83\n      jump\t// in\n    tag_208:\n    tag_207:\n      mul\n      or\n      swap1\n      sstore\n      pop\n        /* \"contracts/temp2.sol\":3256:3277  status=\"Voting Ended\" */\n      mload(0x40)\n      dup1\n      0x40\n      add\n      0x40\n      mstore\n      dup1\n      0x0c\n      dup2\n      mstore\n      0x20\n      add\n      0x566f74696e6720456e6465640000000000000000000000000000000000000000\n      dup2\n      mstore\n      pop\n        /* \"contracts/temp2.sol\":3256:3262  status */\n      0x03\n        /* \"contracts/temp2.sol\":3256:3277  status=\"Voting Ended\" */\n      swap1\n      dup2\n      tag_209\n      swap2\n      swap1\n      tag_85\n      jump\t// in\n    tag_209:\n      pop\n        /* \"contracts/temp2.sol\":3108:3281  function endVoting()public{... */\n      jump\t// out\n        /* \"contracts/temp2.sol\":4680:4924  function winnerDeclare( ) view  public returns(string memory) {... */\n    tag_50:\n        /* \"contracts/temp2.sol\":4727:4740  string memory */\n      0x60\n        /* \"contracts/temp2.sol\":4769:4779  msg.sender */\n      caller\n        /* \"contracts/temp2.sol\":4756:4779  votingAdmin==msg.sender */\n      0xffffffffffffffffffffffffffffffffffffffff\n      and\n        /* \"contracts/temp2.sol\":4756:4767  votingAdmin */\n      0x00\n      dup1\n      sload\n      swap1\n      0x0100\n      exp\n      swap1\n      div\n      0xffffffffffffffffffffffffffffffffffffffff\n      and\n        /* \"contracts/temp2.sol\":4756:4779  votingAdmin==msg.sender */\n      0xffffffffffffffffffffffffffffffffffffffff\n      and\n      eq\n        /* \"contracts/temp2.sol\":4748:4812  require(votingAdmin==msg.sender,\"only admin can declare winner\") */\n      tag_211\n      jumpi\n      mload(0x40)\n      0x08c379a000000000000000000000000000000000000000000000000000000000\n      dup2\n      mstore\n      0x04\n      add\n      tag_212\n      swap1\n      tag_213\n      jump\t// in\n    tag_212:\n      mload(0x40)\n      dup1\n      swap2\n      sub\n      swap1\n      revert\n    tag_211:\n        /* \"contracts/temp2.sol\":4834:4847  vStatus.ended */\n      0x02\n        /* \"contracts/temp2.sol\":4826:4847  choice==vStatus.ended */\n      dup1\n      dup2\n      gt\n      iszero\n      tag_214\n      jumpi\n      tag_215\n      tag_83\n      jump\t// in\n    tag_215:\n    tag_214:\n        /* \"contracts/temp2.sol\":4826:4832  choice */\n      0x07\n      0x00\n      swap1\n      sload\n      swap1\n      0x0100\n      exp\n      swap1\n      div\n      0xff\n      and\n        /* \"contracts/temp2.sol\":4826:4847  choice==vStatus.ended */\n      0x02\n      dup2\n      gt\n      iszero\n      tag_216\n      jumpi\n      tag_217\n      tag_83\n      jump\t// in\n    tag_217:\n    tag_216:\n      eq\n        /* \"contracts/temp2.sol\":4818:4901  require(choice==vStatus.ended,\"WINNER WILL ONLY BE DECLARED ONCE THE ELCTION ENDS\") */\n      tag_218\n      jumpi\n      mload(0x40)\n      0x08c379a000000000000000000000000000000000000000000000000000000000\n      dup2\n      mstore\n      0x04\n      add\n      tag_219\n      swap1\n      tag_220\n      jump\t// in\n    tag_219:\n      mload(0x40)\n      dup1\n      swap2\n      sub\n      swap1\n      revert\n    tag_218:\n        /* \"contracts/temp2.sol\":4914:4920  winner */\n      0x05\n        /* \"contracts/temp2.sol\":4907:4920  return winner */\n      dup1\n      sload\n      tag_221\n      swap1\n      tag_61\n      jump\t// in\n    tag_221:\n      dup1\n      0x1f\n      add\n      0x20\n      dup1\n      swap2\n      div\n      mul\n      0x20\n      add\n      mload(0x40)\n      swap1\n      dup2\n      add\n      0x40\n      mstore\n      dup1\n      swap3\n      swap2\n      swap1\n      dup2\n      dup2\n      mstore\n      0x20\n      add\n      dup3\n      dup1\n      sload\n      tag_222\n      swap1\n      tag_61\n      jump\t// in\n    tag_222:\n      dup1\n      iszero\n      tag_223\n      jumpi\n      dup1\n      0x1f\n      lt\n      tag_224\n      jumpi\n      0x0100\n      dup1\n      dup4\n      sload\n      div\n      mul\n      dup4\n      mstore\n      swap2\n      0x20\n      add\n      swap2\n      jump(tag_223)\n    tag_224:\n      dup3\n      add\n      swap2\n      swap1\n      0x00\n      mstore\n      keccak256(0x00, 0x20)\n      swap1\n    tag_225:\n      dup2\n      sload\n      dup2\n      mstore\n      swap1\n      0x01\n      add\n      swap1\n      0x20\n      add\n      dup1\n      dup4\n      gt\n      tag_225\n      jumpi\n      dup3\n      swap1\n      sub\n      0x1f\n      and\n      dup3\n      add\n      swap2\n    tag_223:\n      pop\n      pop\n      pop\n      pop\n      pop\n      swap1\n      pop\n        /* \"contracts/temp2.sol\":4680:4924  function winnerDeclare( ) view  public returns(string memory) {... */\n      swap1\n      jump\t// out\n        /* \"contracts/temp2.sol\":2756:2852  function allVoters() view public returns(voters[] memory){... */\n    tag_53:\n        /* \"contracts/temp2.sol\":2797:2812  voters[] memory */\n      0x60\n        /* \"contracts/temp2.sol\":2832:2844  displayVoter */\n      0x0b\n        /* \"contracts/temp2.sol\":2824:2844  return  displayVoter */\n      dup1\n      sload\n      dup1\n      0x20\n      mul\n      0x20\n      add\n      mload(0x40)\n      swap1\n      dup2\n      add\n      0x40\n      mstore\n      dup1\n      swap3\n      swap2\n      swap1\n      dup2\n      dup2\n      mstore\n      0x20\n      add\n      0x00\n      swap1\n    tag_227:\n      dup3\n      dup3\n      lt\n      iszero\n      tag_228\n      jumpi\n      dup4\n      dup3\n      swap1\n      0x00\n      mstore\n      keccak256(0x00, 0x20)\n      swap1\n      0x03\n      mul\n      add\n      mload(0x40)\n      dup1\n      0xa0\n      add\n      0x40\n      mstore\n      swap1\n      dup2\n      0x00\n      dup3\n      add\n      0x00\n      swap1\n      sload\n      swap1\n      0x0100\n      exp\n      swap1\n      div\n      0xffffffffffffffffffffffffffffffffffffffff\n      and\n      0xffffffffffffffffffffffffffffffffffffffff\n      and\n      0xffffffffffffffffffffffffffffffffffffffff\n      and\n      dup2\n      mstore\n      0x20\n      add\n      0x00\n      dup3\n      add\n      0x14\n      swap1\n      sload\n      swap1\n      0x0100\n      exp\n      swap1\n      div\n      0xff\n      and\n      iszero\n      iszero\n      iszero\n      iszero\n      dup2\n      mstore\n      0x20\n      add\n      0x00\n      dup3\n      add\n      0x15\n      swap1\n      sload\n      swap1\n      0x0100\n      exp\n      swap1\n      div\n      0xff\n      and\n      iszero\n      iszero\n      iszero\n      iszero\n      dup2\n      mstore\n      0x20\n      add\n      0x01\n      dup3\n      add\n      sload\n      dup2\n      mstore\n      0x20\n      add\n      0x02\n      dup3\n      add\n      sload\n      dup2\n      mstore\n      pop\n      pop\n      dup2\n      mstore\n      0x20\n      add\n      swap1\n      0x01\n      add\n      swap1\n      jump(tag_227)\n    tag_228:\n      pop\n      pop\n      pop\n      pop\n      swap1\n      pop\n        /* \"contracts/temp2.sol\":2756:2852  function allVoters() view public returns(voters[] memory){... */\n      swap1\n      jump\t// out\n        /* \"contracts/temp2.sol\":1170:1905  function registerCandidate(string memory _name, string memory _proposal,address _candidateAddress)  public{... */\n    tag_59:\n        /* \"contracts/temp2.sol\":1310:1315  false */\n      0x00\n        /* \"contracts/temp2.sol\":1295:1315  votingStarted==false */\n      iszero\n      iszero\n        /* \"contracts/temp2.sol\":1295:1308  votingStarted */\n      0x00\n      0x14\n      swap1\n      sload\n      swap1\n      0x0100\n      exp\n      swap1\n      div\n      0xff\n      and\n        /* \"contracts/temp2.sol\":1295:1315  votingStarted==false */\n      iszero\n      iszero\n      eq\n        /* \"contracts/temp2.sol\":1287:1316  require(votingStarted==false) */\n      tag_231\n      jumpi\n      0x00\n      dup1\n      revert\n    tag_231:\n        /* \"contracts/temp2.sol\":1348:1358  msg.sender */\n      caller\n        /* \"contracts/temp2.sol\":1335:1358  votingAdmin==msg.sender */\n      0xffffffffffffffffffffffffffffffffffffffff\n      and\n        /* \"contracts/temp2.sol\":1335:1346  votingAdmin */\n      0x00\n      dup1\n      sload\n      swap1\n      0x0100\n      exp\n      swap1\n      div\n      0xffffffffffffffffffffffffffffffffffffffff\n      and\n        /* \"contracts/temp2.sol\":1335:1358  votingAdmin==msg.sender */\n      0xffffffffffffffffffffffffffffffffffffffff\n      and\n      eq\n        /* \"contracts/temp2.sol\":1327:1395  require(votingAdmin==msg.sender,\"only admin can register candidate\") */\n      tag_232\n      jumpi\n      mload(0x40)\n      0x08c379a000000000000000000000000000000000000000000000000000000000\n      dup2\n      mstore\n      0x04\n      add\n      tag_233\n      swap1\n      tag_234\n      jump\t// in\n    tag_233:\n      mload(0x40)\n      dup1\n      swap2\n      sub\n      swap1\n      revert\n    tag_232:\n        /* \"contracts/temp2.sol\":1457:1461  true */\n      0x01\n        /* \"contracts/temp2.sol\":1414:1461  CandidateList[_candidateAddress].register!=true */\n      iszero\n      iszero\n        /* \"contracts/temp2.sol\":1414:1427  CandidateList */\n      0x08\n        /* \"contracts/temp2.sol\":1414:1446  CandidateList[_candidateAddress] */\n      0x00\n        /* \"contracts/temp2.sol\":1428:1445  _candidateAddress */\n      dup4\n        /* \"contracts/temp2.sol\":1414:1446  CandidateList[_candidateAddress] */\n      0xffffffffffffffffffffffffffffffffffffffff\n      and\n      0xffffffffffffffffffffffffffffffffffffffff\n      and\n      dup2\n      mstore\n      0x20\n      add\n      swap1\n      dup2\n      mstore\n      0x20\n      add\n      0x00\n      keccak256\n        /* \"contracts/temp2.sol\":1414:1455  CandidateList[_candidateAddress].register */\n      0x03\n      add\n      0x00\n      swap1\n      sload\n      swap1\n      0x0100\n      exp\n      swap1\n      div\n      0xff\n      and\n        /* \"contracts/temp2.sol\":1414:1461  CandidateList[_candidateAddress].register!=true */\n      iszero\n      iszero\n      sub\n        /* \"contracts/temp2.sol\":1406:1488  require(CandidateList[_candidateAddress].register!=true,\"candidate already exist\") */\n      tag_235\n      jumpi\n      mload(0x40)\n      0x08c379a000000000000000000000000000000000000000000000000000000000\n      dup2\n      mstore\n      0x04\n      add\n      tag_236\n      swap1\n      tag_237\n      jump\t// in\n    tag_236:\n      mload(0x40)\n      dup1\n      swap2\n      sub\n      swap1\n      revert\n    tag_235:\n        /* \"contracts/temp2.sol\":1526:1537  votingAdmin */\n      0x00\n      dup1\n      sload\n      swap1\n      0x0100\n      exp\n      swap1\n      div\n      0xffffffffffffffffffffffffffffffffffffffff\n      and\n        /* \"contracts/temp2.sol\":1507:1537  _candidateAddress!=votingAdmin */\n      0xffffffffffffffffffffffffffffffffffffffff\n      and\n        /* \"contracts/temp2.sol\":1507:1524  _candidateAddress */\n      dup2\n        /* \"contracts/temp2.sol\":1507:1537  _candidateAddress!=votingAdmin */\n      0xffffffffffffffffffffffffffffffffffffffff\n      and\n      sub\n        /* \"contracts/temp2.sol\":1499:1579  require(_candidateAddress!=votingAdmin,\"admin can't be registered as candidate\") */\n      tag_238\n      jumpi\n      mload(0x40)\n      0x08c379a000000000000000000000000000000000000000000000000000000000\n      dup2\n      mstore\n      0x04\n      add\n      tag_239\n      swap1\n      tag_240\n      jump\t// in\n    tag_239:\n      mload(0x40)\n      dup1\n      swap2\n      sub\n      swap1\n      revert\n    tag_238:\n        /* \"contracts/temp2.sol\":1590:1617  candidates memory Candidate */\n      0x00\n        /* \"contracts/temp2.sol\":1620:1800  candidates({... */\n      mload(0x40)\n      dup1\n      0xa0\n      add\n      0x40\n      mstore\n      dup1\n        /* \"contracts/temp2.sol\":1663:1680  _candidateAddress */\n      dup4\n        /* \"contracts/temp2.sol\":1620:1800  candidates({... */\n      0xffffffffffffffffffffffffffffffffffffffff\n      and\n      dup2\n      mstore\n      0x20\n      add\n        /* \"contracts/temp2.sol\":1700:1705  _name */\n      dup6\n        /* \"contracts/temp2.sol\":1620:1800  candidates({... */\n      dup2\n      mstore\n      0x20\n      add\n        /* \"contracts/temp2.sol\":1729:1738  _proposal */\n      dup5\n        /* \"contracts/temp2.sol\":1620:1800  candidates({... */\n      dup2\n      mstore\n      0x20\n      add\n        /* \"contracts/temp2.sol\":1762:1766  true */\n      0x01\n        /* \"contracts/temp2.sol\":1620:1800  candidates({... */\n      iszero\n      iszero\n      dup2\n      mstore\n      0x20\n      add\n        /* \"contracts/temp2.sol\":1787:1788  0 */\n      0x00\n        /* \"contracts/temp2.sol\":1620:1800  candidates({... */\n      dup2\n      mstore\n      pop\n        /* \"contracts/temp2.sol\":1590:1800  candidates memory Candidate = candidates({... */\n      swap1\n      pop\n        /* \"contracts/temp2.sol\":1844:1853  Candidate */\n      dup1\n        /* \"contracts/temp2.sol\":1811:1824  CandidateList */\n      0x08\n        /* \"contracts/temp2.sol\":1811:1843  CandidateList[_candidateAddress] */\n      0x00\n        /* \"contracts/temp2.sol\":1825:1842  _candidateAddress */\n      dup5\n        /* \"contracts/temp2.sol\":1811:1843  CandidateList[_candidateAddress] */\n      0xffffffffffffffffffffffffffffffffffffffff\n      and\n      0xffffffffffffffffffffffffffffffffffffffff\n      and\n      dup2\n      mstore\n      0x20\n      add\n      swap1\n      dup2\n      mstore\n      0x20\n      add\n      0x00\n      keccak256\n        /* \"contracts/temp2.sol\":1811:1853  CandidateList[_candidateAddress]=Candidate */\n      0x00\n      dup3\n      add\n      mload\n      dup2\n      0x00\n      add\n      exp(0x0100, 0x00)\n      dup2\n      sload\n      dup2\n      0xffffffffffffffffffffffffffffffffffffffff\n      mul\n      not\n      and\n      swap1\n      dup4\n      0xffffffffffffffffffffffffffffffffffffffff\n      and\n      mul\n      or\n      swap1\n      sstore\n      pop\n      0x20\n      dup3\n      add\n      mload\n      dup2\n      0x01\n      add\n      swap1\n      dup2\n      tag_241\n      swap2\n      swap1\n      tag_85\n      jump\t// in\n    tag_241:\n      pop\n      0x40\n      dup3\n      add\n      mload\n      dup2\n      0x02\n      add\n      swap1\n      dup2\n      tag_242\n      swap2\n      swap1\n      tag_85\n      jump\t// in\n    tag_242:\n      pop\n      0x60\n      dup3\n      add\n      mload\n      dup2\n      0x03\n      add\n      exp(0x0100, 0x00)\n      dup2\n      sload\n      dup2\n      0xff\n      mul\n      not\n      and\n      swap1\n      dup4\n      iszero\n      iszero\n      mul\n      or\n      swap1\n      sstore\n      pop\n      0x80\n      dup3\n      add\n      mload\n      dup2\n      0x04\n      add\n      sstore\n      swap1\n      pop\n      pop\n        /* \"contracts/temp2.sol\":1864:1881  displayCandidates */\n      0x09\n        /* \"contracts/temp2.sol\":1887:1896  Candidate */\n      dup2\n        /* \"contracts/temp2.sol\":1864:1897  displayCandidates.push(Candidate) */\n      swap1\n      dup1\n      0x01\n      dup2\n      sload\n      add\n      dup1\n      dup3\n      sstore\n      dup1\n      swap2\n      pop\n      pop\n      0x01\n      swap1\n      sub\n      swap1\n      0x00\n      mstore\n      keccak256(0x00, 0x20)\n      swap1\n      0x05\n      mul\n      add\n      0x00\n      swap1\n      swap2\n      swap1\n      swap2\n      swap1\n      swap2\n      pop\n      0x00\n      dup3\n      add\n      mload\n      dup2\n      0x00\n      add\n      exp(0x0100, 0x00)\n      dup2\n      sload\n      dup2\n      0xffffffffffffffffffffffffffffffffffffffff\n      mul\n      not\n      and\n      swap1\n      dup4\n      0xffffffffffffffffffffffffffffffffffffffff\n      and\n      mul\n      or\n      swap1\n      sstore\n      pop\n      0x20\n      dup3\n      add\n      mload\n      dup2\n      0x01\n      add\n      swap1\n      dup2\n      tag_244\n      swap2\n      swap1\n      tag_85\n      jump\t// in\n    tag_244:\n      pop\n      0x40\n      dup3\n      add\n      mload\n      dup2\n      0x02\n      add\n      swap1\n      dup2\n      tag_245\n      swap2\n      swap1\n      tag_85\n      jump\t// in\n    tag_245:\n      pop\n      0x60\n      dup3\n      add\n      mload\n      dup2\n      0x03\n      add\n      exp(0x0100, 0x00)\n      dup2\n      sload\n      dup2\n      0xff\n      mul\n      not\n      and\n      swap1\n      dup4\n      iszero\n      iszero\n      mul\n      or\n      swap1\n      sstore\n      pop\n      0x80\n      dup3\n      add\n      mload\n      dup2\n      0x04\n      add\n      sstore\n      pop\n      pop\n        /* \"contracts/temp2.sol\":1276:1905  {... */\n      pop\n        /* \"contracts/temp2.sol\":1170:1905  function registerCandidate(string memory _name, string memory _proposal,address _candidateAddress)  public{... */\n      pop\n      pop\n      pop\n      jump\t// out\n        /* \"contracts/temp2.sol\":4303:4641  function checkVoter(address _msgSender) view  private returns(bool){... */\n    tag_88:\n        /* \"contracts/temp2.sol\":4365:4369  bool */\n      0x00\n        /* \"contracts/temp2.sol\":4377:4387  bool Exist */\n      dup1\n        /* \"contracts/temp2.sol\":4388:4393  false */\n      0x00\n        /* \"contracts/temp2.sol\":4377:4393  bool Exist=false */\n      swap1\n      pop\n        /* \"contracts/temp2.sol\":4405:4411  uint i */\n      0x00\n        /* \"contracts/temp2.sol\":4400:4619  for (uint i=0; i<displayVoter.length; i++) ... */\n    tag_247:\n        /* \"contracts/temp2.sol\":4417:4429  displayVoter */\n      0x0b\n        /* \"contracts/temp2.sol\":4417:4436  displayVoter.length */\n      dup1\n      sload\n      swap1\n      pop\n        /* \"contracts/temp2.sol\":4415:4416  i */\n      dup2\n        /* \"contracts/temp2.sol\":4415:4436  i<displayVoter.length */\n      lt\n        /* \"contracts/temp2.sol\":4400:4619  for (uint i=0; i<displayVoter.length; i++) ... */\n      iszero\n      tag_248\n      jumpi\n        /* \"contracts/temp2.sol\":4493:4503  _msgSender */\n      dup4\n        /* \"contracts/temp2.sol\":4463:4503  displayVoter[i].voterAddress==_msgSender */\n      0xffffffffffffffffffffffffffffffffffffffff\n      and\n        /* \"contracts/temp2.sol\":4463:4475  displayVoter */\n      0x0b\n        /* \"contracts/temp2.sol\":4476:4477  i */\n      dup3\n        /* \"contracts/temp2.sol\":4463:4478  displayVoter[i] */\n      dup2\n      sload\n      dup2\n      lt\n      tag_250\n      jumpi\n      tag_251\n      tag_103\n      jump\t// in\n    tag_251:\n    tag_250:\n      swap1\n      0x00\n      mstore\n      keccak256(0x00, 0x20)\n      swap1\n      0x03\n      mul\n      add\n        /* \"contracts/temp2.sol\":4463:4491  displayVoter[i].voterAddress */\n      0x00\n      add\n      0x00\n      swap1\n      sload\n      swap1\n      0x0100\n      exp\n      swap1\n      div\n      0xffffffffffffffffffffffffffffffffffffffff\n      and\n        /* \"contracts/temp2.sol\":4463:4503  displayVoter[i].voterAddress==_msgSender */\n      0xffffffffffffffffffffffffffffffffffffffff\n      and\n      sub\n        /* \"contracts/temp2.sol\":4460:4612  if(displayVoter[i].voterAddress==_msgSender){... */\n      tag_253\n      jumpi\n        /* \"contracts/temp2.sol\":4524:4528  true */\n      0x01\n        /* \"contracts/temp2.sol\":4518:4528  Exist=true */\n      swap2\n      pop\n        /* \"contracts/temp2.sol\":4542:4547  break */\n      jump(tag_248)\n        /* \"contracts/temp2.sol\":4460:4612  if(displayVoter[i].voterAddress==_msgSender){... */\n    tag_253:\n        /* \"contracts/temp2.sol\":4595:4600  false */\n      0x00\n        /* \"contracts/temp2.sol\":4589:4600  Exist=false */\n      swap2\n      pop\n        /* \"contracts/temp2.sol\":4438:4441  i++ */\n      dup1\n      dup1\n      tag_255\n      swap1\n      tag_100\n      jump\t// in\n    tag_255:\n      swap2\n      pop\n      pop\n        /* \"contracts/temp2.sol\":4400:4619  for (uint i=0; i<displayVoter.length; i++) ... */\n      jump(tag_247)\n    tag_248:\n      pop\n        /* \"contracts/temp2.sol\":4632:4637  Exist */\n      dup1\n        /* \"contracts/temp2.sol\":4625:4637  return Exist */\n      swap2\n      pop\n      pop\n        /* \"contracts/temp2.sol\":4303:4641  function checkVoter(address _msgSender) view  private returns(bool){... */\n      swap2\n      swap1\n      pop\n      jump\t// out\n        /* \"#utility.yul\":7:82   */\n    tag_256:\n        /* \"#utility.yul\":40:46   */\n      0x00\n        /* \"#utility.yul\":73:75   */\n      0x40\n        /* \"#utility.yul\":67:76   */\n      mload\n        /* \"#utility.yul\":57:76   */\n      swap1\n      pop\n        /* \"#utility.yul\":7:82   */\n      swap1\n      jump\t// out\n        /* \"#utility.yul\":88:205   */\n    tag_257:\n        /* \"#utility.yul\":197:198   */\n      0x00\n        /* \"#utility.yul\":194:195   */\n      dup1\n        /* \"#utility.yul\":187:199   */\n      revert\n        /* \"#utility.yul\":211:328   */\n    tag_258:\n        /* \"#utility.yul\":320:321   */\n      0x00\n        /* \"#utility.yul\":317:318   */\n      dup1\n        /* \"#utility.yul\":310:322   */\n      revert\n        /* \"#utility.yul\":334:460   */\n    tag_259:\n        /* \"#utility.yul\":371:378   */\n      0x00\n        /* \"#utility.yul\":411:453   */\n      0xffffffffffffffffffffffffffffffffffffffff\n        /* \"#utility.yul\":404:409   */\n      dup3\n        /* \"#utility.yul\":400:454   */\n      and\n        /* \"#utility.yul\":389:454   */\n      swap1\n      pop\n        /* \"#utility.yul\":334:460   */\n      swap2\n      swap1\n      pop\n      jump\t// out\n        /* \"#utility.yul\":466:562   */\n    tag_260:\n        /* \"#utility.yul\":503:510   */\n      0x00\n        /* \"#utility.yul\":532:556   */\n      tag_361\n        /* \"#utility.yul\":550:555   */\n      dup3\n        /* \"#utility.yul\":532:556   */\n      tag_259\n      jump\t// in\n    tag_361:\n        /* \"#utility.yul\":521:556   */\n      swap1\n      pop\n        /* \"#utility.yul\":466:562   */\n      swap2\n      swap1\n      pop\n      jump\t// out\n        /* \"#utility.yul\":568:690   */\n    tag_261:\n        /* \"#utility.yul\":641:665   */\n      tag_363\n        /* \"#utility.yul\":659:664   */\n      dup2\n        /* \"#utility.yul\":641:665   */\n      tag_260\n      jump\t// in\n    tag_363:\n        /* \"#utility.yul\":634:639   */\n      dup2\n        /* \"#utility.yul\":631:666   */\n      eq\n        /* \"#utility.yul\":621:684   */\n      tag_364\n      jumpi\n        /* \"#utility.yul\":680:681   */\n      0x00\n        /* \"#utility.yul\":677:678   */\n      dup1\n        /* \"#utility.yul\":670:682   */\n      revert\n        /* \"#utility.yul\":621:684   */\n    tag_364:\n        /* \"#utility.yul\":568:690   */\n      pop\n      jump\t// out\n        /* \"#utility.yul\":696:835   */\n    tag_262:\n        /* \"#utility.yul\":742:747   */\n      0x00\n        /* \"#utility.yul\":780:786   */\n      dup2\n        /* \"#utility.yul\":767:787   */\n      calldataload\n        /* \"#utility.yul\":758:787   */\n      swap1\n      pop\n        /* \"#utility.yul\":796:829   */\n      tag_366\n        /* \"#utility.yul\":823:828   */\n      dup2\n        /* \"#utility.yul\":796:829   */\n      tag_261\n      jump\t// in\n    tag_366:\n        /* \"#utility.yul\":696:835   */\n      swap3\n      swap2\n      pop\n      pop\n      jump\t// out\n        /* \"#utility.yul\":841:1170   */\n    tag_18:\n        /* \"#utility.yul\":900:906   */\n      0x00\n        /* \"#utility.yul\":949:951   */\n      0x20\n        /* \"#utility.yul\":937:946   */\n      dup3\n        /* \"#utility.yul\":928:935   */\n      dup5\n        /* \"#utility.yul\":924:947   */\n      sub\n        /* \"#utility.yul\":920:952   */\n      slt\n        /* \"#utility.yul\":917:1036   */\n      iszero\n      tag_368\n      jumpi\n        /* \"#utility.yul\":955:1034   */\n      tag_369\n      tag_257\n      jump\t// in\n    tag_369:\n        /* \"#utility.yul\":917:1036   */\n    tag_368:\n        /* \"#utility.yul\":1075:1076   */\n      0x00\n        /* \"#utility.yul\":1100:1153   */\n      tag_370\n        /* \"#utility.yul\":1145:1152   */\n      dup5\n        /* \"#utility.yul\":1136:1142   */\n      dup3\n        /* \"#utility.yul\":1125:1134   */\n      dup6\n        /* \"#utility.yul\":1121:1143   */\n      add\n        /* \"#utility.yul\":1100:1153   */\n      tag_262\n      jump\t// in\n    tag_370:\n        /* \"#utility.yul\":1090:1153   */\n      swap2\n      pop\n        /* \"#utility.yul\":1046:1163   */\n      pop\n        /* \"#utility.yul\":841:1170   */\n      swap3\n      swap2\n      pop\n      pop\n      jump\t// out\n        /* \"#utility.yul\":1176:1294   */\n    tag_263:\n        /* \"#utility.yul\":1263:1287   */\n      tag_372\n        /* \"#utility.yul\":1281:1286   */\n      dup2\n        /* \"#utility.yul\":1263:1287   */\n      tag_260\n      jump\t// in\n    tag_372:\n        /* \"#utility.yul\":1258:1261   */\n      dup3\n        /* \"#utility.yul\":1251:1288   */\n      mstore\n        /* \"#utility.yul\":1176:1294   */\n      pop\n      pop\n      jump\t// out\n        /* \"#utility.yul\":1300:1390   */\n    tag_264:\n        /* \"#utility.yul\":1334:1341   */\n      0x00\n        /* \"#utility.yul\":1377:1382   */\n      dup2\n        /* \"#utility.yul\":1370:1383   */\n      iszero\n        /* \"#utility.yul\":1363:1384   */\n      iszero\n        /* \"#utility.yul\":1352:1384   */\n      swap1\n      pop\n        /* \"#utility.yul\":1300:1390   */\n      swap2\n      swap1\n      pop\n      jump\t// out\n        /* \"#utility.yul\":1396:1505   */\n    tag_265:\n        /* \"#utility.yul\":1477:1498   */\n      tag_375\n        /* \"#utility.yul\":1492:1497   */\n      dup2\n        /* \"#utility.yul\":1477:1498   */\n      tag_264\n      jump\t// in\n    tag_375:\n        /* \"#utility.yul\":1472:1475   */\n      dup3\n        /* \"#utility.yul\":1465:1499   */\n      mstore\n        /* \"#utility.yul\":1396:1505   */\n      pop\n      pop\n      jump\t// out\n        /* \"#utility.yul\":1511:1588   */\n    tag_266:\n        /* \"#utility.yul\":1548:1555   */\n      0x00\n        /* \"#utility.yul\":1577:1582   */\n      dup2\n        /* \"#utility.yul\":1566:1582   */\n      swap1\n      pop\n        /* \"#utility.yul\":1511:1588   */\n      swap2\n      swap1\n      pop\n      jump\t// out\n        /* \"#utility.yul\":1594:1712   */\n    tag_267:\n        /* \"#utility.yul\":1681:1705   */\n      tag_378\n        /* \"#utility.yul\":1699:1704   */\n      dup2\n        /* \"#utility.yul\":1681:1705   */\n      tag_266\n      jump\t// in\n    tag_378:\n        /* \"#utility.yul\":1676:1679   */\n      dup3\n        /* \"#utility.yul\":1669:1706   */\n      mstore\n        /* \"#utility.yul\":1594:1712   */\n      pop\n      pop\n      jump\t// out\n        /* \"#utility.yul\":1718:2358   */\n    tag_21:\n        /* \"#utility.yul\":1911:1915   */\n      0x00\n        /* \"#utility.yul\":1949:1952   */\n      0xa0\n        /* \"#utility.yul\":1938:1947   */\n      dup3\n        /* \"#utility.yul\":1934:1953   */\n      add\n        /* \"#utility.yul\":1926:1953   */\n      swap1\n      pop\n        /* \"#utility.yul\":1963:2034   */\n      tag_380\n        /* \"#utility.yul\":2031:2032   */\n      0x00\n        /* \"#utility.yul\":2020:2029   */\n      dup4\n        /* \"#utility.yul\":2016:2033   */\n      add\n        /* \"#utility.yul\":2007:2013   */\n      dup9\n        /* \"#utility.yul\":1963:2034   */\n      tag_263\n      jump\t// in\n    tag_380:\n        /* \"#utility.yul\":2044:2110   */\n      tag_381\n        /* \"#utility.yul\":2106:2108   */\n      0x20\n        /* \"#utility.yul\":2095:2104   */\n      dup4\n        /* \"#utility.yul\":2091:2109   */\n      add\n        /* \"#utility.yul\":2082:2088   */\n      dup8\n        /* \"#utility.yul\":2044:2110   */\n      tag_265\n      jump\t// in\n    tag_381:\n        /* \"#utility.yul\":2120:2186   */\n      tag_382\n        /* \"#utility.yul\":2182:2184   */\n      0x40\n        /* \"#utility.yul\":2171:2180   */\n      dup4\n        /* \"#utility.yul\":2167:2185   */\n      add\n        /* \"#utility.yul\":2158:2164   */\n      dup7\n        /* \"#utility.yul\":2120:2186   */\n      tag_265\n      jump\t// in\n    tag_382:\n        /* \"#utility.yul\":2196:2268   */\n      tag_383\n        /* \"#utility.yul\":2264:2266   */\n      0x60\n        /* \"#utility.yul\":2253:2262   */\n      dup4\n        /* \"#utility.yul\":2249:2267   */\n      add\n        /* \"#utility.yul\":2240:2246   */\n      dup6\n        /* \"#utility.yul\":2196:2268   */\n      tag_267\n      jump\t// in\n    tag_383:\n        /* \"#utility.yul\":2278:2351   */\n      tag_384\n        /* \"#utility.yul\":2346:2349   */\n      0x80\n        /* \"#utility.yul\":2335:2344   */\n      dup4\n        /* \"#utility.yul\":2331:2350   */\n      add\n        /* \"#utility.yul\":2322:2328   */\n      dup5\n        /* \"#utility.yul\":2278:2351   */\n      tag_267\n      jump\t// in\n    tag_384:\n        /* \"#utility.yul\":1718:2358   */\n      swap7\n      swap6\n      pop\n      pop\n      pop\n      pop\n      pop\n      pop\n      jump\t// out\n        /* \"#utility.yul\":2364:2463   */\n    tag_268:\n        /* \"#utility.yul\":2416:2422   */\n      0x00\n        /* \"#utility.yul\":2450:2455   */\n      dup2\n        /* \"#utility.yul\":2444:2456   */\n      mload\n        /* \"#utility.yul\":2434:2456   */\n      swap1\n      pop\n        /* \"#utility.yul\":2364:2463   */\n      swap2\n      swap1\n      pop\n      jump\t// out\n        /* \"#utility.yul\":2469:2638   */\n    tag_269:\n        /* \"#utility.yul\":2553:2564   */\n      0x00\n        /* \"#utility.yul\":2587:2593   */\n      dup3\n        /* \"#utility.yul\":2582:2585   */\n      dup3\n        /* \"#utility.yul\":2575:2594   */\n      mstore\n        /* \"#utility.yul\":2627:2631   */\n      0x20\n        /* \"#utility.yul\":2622:2625   */\n      dup3\n        /* \"#utility.yul\":2618:2632   */\n      add\n        /* \"#utility.yul\":2603:2632   */\n      swap1\n      pop\n        /* \"#utility.yul\":2469:2638   */\n      swap3\n      swap2\n      pop\n      pop\n      jump\t// out\n        /* \"#utility.yul\":2644:2890   */\n    tag_270:\n        /* \"#utility.yul\":2725:2726   */\n      0x00\n        /* \"#utility.yul\":2735:2848   */\n    tag_388:\n        /* \"#utility.yul\":2749:2755   */\n      dup4\n        /* \"#utility.yul\":2746:2747   */\n      dup2\n        /* \"#utility.yul\":2743:2756   */\n      lt\n        /* \"#utility.yul\":2735:2848   */\n      iszero\n      tag_390\n      jumpi\n        /* \"#utility.yul\":2834:2835   */\n      dup1\n        /* \"#utility.yul\":2829:2832   */\n      dup3\n        /* \"#utility.yul\":2825:2836   */\n      add\n        /* \"#utility.yul\":2819:2837   */\n      mload\n        /* \"#utility.yul\":2815:2816   */\n      dup2\n        /* \"#utility.yul\":2810:2813   */\n      dup5\n        /* \"#utility.yul\":2806:2817   */\n      add\n        /* \"#utility.yul\":2799:2838   */\n      mstore\n        /* \"#utility.yul\":2771:2773   */\n      0x20\n        /* \"#utility.yul\":2768:2769   */\n      dup2\n        /* \"#utility.yul\":2764:2774   */\n      add\n        /* \"#utility.yul\":2759:2774   */\n      swap1\n      pop\n        /* \"#utility.yul\":2735:2848   */\n      jump(tag_388)\n    tag_390:\n        /* \"#utility.yul\":2882:2883   */\n      0x00\n        /* \"#utility.yul\":2873:2879   */\n      dup5\n        /* \"#utility.yul\":2868:2871   */\n      dup5\n        /* \"#utility.yul\":2864:2880   */\n      add\n        /* \"#utility.yul\":2857:2884   */\n      mstore\n        /* \"#utility.yul\":2706:2890   */\n      pop\n        /* \"#utility.yul\":2644:2890   */\n      pop\n      pop\n      pop\n      jump\t// out\n        /* \"#utility.yul\":2896:2998   */\n    tag_271:\n        /* \"#utility.yul\":2937:2943   */\n      0x00\n        /* \"#utility.yul\":2988:2990   */\n      0x1f\n        /* \"#utility.yul\":2984:2991   */\n      not\n        /* \"#utility.yul\":2979:2981   */\n      0x1f\n        /* \"#utility.yul\":2972:2977   */\n      dup4\n        /* \"#utility.yul\":2968:2982   */\n      add\n        /* \"#utility.yul\":2964:2992   */\n      and\n        /* \"#utility.yul\":2954:2992   */\n      swap1\n      pop\n        /* \"#utility.yul\":2896:2998   */\n      swap2\n      swap1\n      pop\n      jump\t// out\n        /* \"#utility.yul\":3004:3381   */\n    tag_272:\n        /* \"#utility.yul\":3092:3095   */\n      0x00\n        /* \"#utility.yul\":3120:3159   */\n      tag_393\n        /* \"#utility.yul\":3153:3158   */\n      dup3\n        /* \"#utility.yul\":3120:3159   */\n      tag_268\n      jump\t// in\n    tag_393:\n        /* \"#utility.yul\":3175:3246   */\n      tag_394\n        /* \"#utility.yul\":3239:3245   */\n      dup2\n        /* \"#utility.yul\":3234:3237   */\n      dup6\n        /* \"#utility.yul\":3175:3246   */\n      tag_269\n      jump\t// in\n    tag_394:\n        /* \"#utility.yul\":3168:3246   */\n      swap4\n      pop\n        /* \"#utility.yul\":3255:3320   */\n      tag_395\n        /* \"#utility.yul\":3313:3319   */\n      dup2\n        /* \"#utility.yul\":3308:3311   */\n      dup6\n        /* \"#utility.yul\":3301:3305   */\n      0x20\n        /* \"#utility.yul\":3294:3299   */\n      dup7\n        /* \"#utility.yul\":3290:3306   */\n      add\n        /* \"#utility.yul\":3255:3320   */\n      tag_270\n      jump\t// in\n    tag_395:\n        /* \"#utility.yul\":3345:3374   */\n      tag_396\n        /* \"#utility.yul\":3367:3373   */\n      dup2\n        /* \"#utility.yul\":3345:3374   */\n      tag_271\n      jump\t// in\n    tag_396:\n        /* \"#utility.yul\":3340:3343   */\n      dup5\n        /* \"#utility.yul\":3336:3375   */\n      add\n        /* \"#utility.yul\":3329:3375   */\n      swap2\n      pop\n        /* \"#utility.yul\":3096:3381   */\n      pop\n        /* \"#utility.yul\":3004:3381   */\n      swap3\n      swap2\n      pop\n      pop\n      jump\t// out\n        /* \"#utility.yul\":3387:4221   */\n    tag_26:\n        /* \"#utility.yul\":3626:3630   */\n      0x00\n        /* \"#utility.yul\":3664:3667   */\n      0xa0\n        /* \"#utility.yul\":3653:3662   */\n      dup3\n        /* \"#utility.yul\":3649:3668   */\n      add\n        /* \"#utility.yul\":3641:3668   */\n      swap1\n      pop\n        /* \"#utility.yul\":3678:3749   */\n      tag_398\n        /* \"#utility.yul\":3746:3747   */\n      0x00\n        /* \"#utility.yul\":3735:3744   */\n      dup4\n        /* \"#utility.yul\":3731:3748   */\n      add\n        /* \"#utility.yul\":3722:3728   */\n      dup9\n        /* \"#utility.yul\":3678:3749   */\n      tag_263\n      jump\t// in\n    tag_398:\n        /* \"#utility.yul\":3796:3805   */\n      dup2\n        /* \"#utility.yul\":3790:3794   */\n      dup2\n        /* \"#utility.yul\":3786:3806   */\n      sub\n        /* \"#utility.yul\":3781:3783   */\n      0x20\n        /* \"#utility.yul\":3770:3779   */\n      dup4\n        /* \"#utility.yul\":3766:3784   */\n      add\n        /* \"#utility.yul\":3759:3807   */\n      mstore\n        /* \"#utility.yul\":3824:3902   */\n      tag_399\n        /* \"#utility.yul\":3897:3901   */\n      dup2\n        /* \"#utility.yul\":3888:3894   */\n      dup8\n        /* \"#utility.yul\":3824:3902   */\n      tag_272\n      jump\t// in\n    tag_399:\n        /* \"#utility.yul\":3816:3902   */\n      swap1\n      pop\n        /* \"#utility.yul\":3949:3958   */\n      dup2\n        /* \"#utility.yul\":3943:3947   */\n      dup2\n        /* \"#utility.yul\":3939:3959   */\n      sub\n        /* \"#utility.yul\":3934:3936   */\n      0x40\n        /* \"#utility.yul\":3923:3932   */\n      dup4\n        /* \"#utility.yul\":3919:3937   */\n      add\n        /* \"#utility.yul\":3912:3960   */\n      mstore\n        /* \"#utility.yul\":3977:4055   */\n      tag_400\n        /* \"#utility.yul\":4050:4054   */\n      dup2\n        /* \"#utility.yul\":4041:4047   */\n      dup7\n        /* \"#utility.yul\":3977:4055   */\n      tag_272\n      jump\t// in\n    tag_400:\n        /* \"#utility.yul\":3969:4055   */\n      swap1\n      pop\n        /* \"#utility.yul\":4065:4131   */\n      tag_401\n        /* \"#utility.yul\":4127:4129   */\n      0x60\n        /* \"#utility.yul\":4116:4125   */\n      dup4\n        /* \"#utility.yul\":4112:4130   */\n      add\n        /* \"#utility.yul\":4103:4109   */\n      dup6\n        /* \"#utility.yul\":4065:4131   */\n      tag_265\n      jump\t// in\n    tag_401:\n        /* \"#utility.yul\":4141:4214   */\n      tag_402\n        /* \"#utility.yul\":4209:4212   */\n      0x80\n        /* \"#utility.yul\":4198:4207   */\n      dup4\n        /* \"#utility.yul\":4194:4213   */\n      add\n        /* \"#utility.yul\":4185:4191   */\n      dup5\n        /* \"#utility.yul\":4141:4214   */\n      tag_267\n      jump\t// in\n    tag_402:\n        /* \"#utility.yul\":3387:4221   */\n      swap7\n      swap6\n      pop\n      pop\n      pop\n      pop\n      pop\n      pop\n      jump\t// out\n        /* \"#utility.yul\":4227:4540   */\n    tag_30:\n        /* \"#utility.yul\":4340:4344   */\n      0x00\n        /* \"#utility.yul\":4378:4380   */\n      0x20\n        /* \"#utility.yul\":4367:4376   */\n      dup3\n        /* \"#utility.yul\":4363:4381   */\n      add\n        /* \"#utility.yul\":4355:4381   */\n      swap1\n      pop\n        /* \"#utility.yul\":4427:4436   */\n      dup2\n        /* \"#utility.yul\":4421:4425   */\n      dup2\n        /* \"#utility.yul\":4417:4437   */\n      sub\n        /* \"#utility.yul\":4413:4414   */\n      0x00\n        /* \"#utility.yul\":4402:4411   */\n      dup4\n        /* \"#utility.yul\":4398:4415   */\n      add\n        /* \"#utility.yul\":4391:4438   */\n      mstore\n        /* \"#utility.yul\":4455:4533   */\n      tag_404\n        /* \"#utility.yul\":4528:4532   */\n      dup2\n        /* \"#utility.yul\":4519:4525   */\n      dup5\n        /* \"#utility.yul\":4455:4533   */\n      tag_272\n      jump\t// in\n    tag_404:\n        /* \"#utility.yul\":4447:4533   */\n      swap1\n      pop\n        /* \"#utility.yul\":4227:4540   */\n      swap3\n      swap2\n      pop\n      pop\n      jump\t// out\n        /* \"#utility.yul\":4546:4668   */\n    tag_273:\n        /* \"#utility.yul\":4619:4643   */\n      tag_406\n        /* \"#utility.yul\":4637:4642   */\n      dup2\n        /* \"#utility.yul\":4619:4643   */\n      tag_266\n      jump\t// in\n    tag_406:\n        /* \"#utility.yul\":4612:4617   */\n      dup2\n        /* \"#utility.yul\":4609:4644   */\n      eq\n        /* \"#utility.yul\":4599:4662   */\n      tag_407\n      jumpi\n        /* \"#utility.yul\":4658:4659   */\n      0x00\n        /* \"#utility.yul\":4655:4656   */\n      dup1\n        /* \"#utility.yul\":4648:4660   */\n      revert\n        /* \"#utility.yul\":4599:4662   */\n    tag_407:\n        /* \"#utility.yul\":4546:4668   */\n      pop\n      jump\t// out\n        /* \"#utility.yul\":4674:4813   */\n    tag_274:\n        /* \"#utility.yul\":4720:4725   */\n      0x00\n        /* \"#utility.yul\":4758:4764   */\n      dup2\n        /* \"#utility.yul\":4745:4765   */\n      calldataload\n        /* \"#utility.yul\":4736:4765   */\n      swap1\n      pop\n        /* \"#utility.yul\":4774:4807   */\n      tag_409\n        /* \"#utility.yul\":4801:4806   */\n      dup2\n        /* \"#utility.yul\":4774:4807   */\n      tag_273\n      jump\t// in\n    tag_409:\n        /* \"#utility.yul\":4674:4813   */\n      swap3\n      swap2\n      pop\n      pop\n      jump\t// out\n        /* \"#utility.yul\":4819:5293   */\n    tag_35:\n        /* \"#utility.yul\":4887:4893   */\n      0x00\n        /* \"#utility.yul\":4895:4901   */\n      dup1\n        /* \"#utility.yul\":4944:4946   */\n      0x40\n        /* \"#utility.yul\":4932:4941   */\n      dup4\n        /* \"#utility.yul\":4923:4930   */\n      dup6\n        /* \"#utility.yul\":4919:4942   */\n      sub\n        /* \"#utility.yul\":4915:4947   */\n      slt\n        /* \"#utility.yul\":4912:5031   */\n      iszero\n      tag_411\n      jumpi\n        /* \"#utility.yul\":4950:5029   */\n      tag_412\n      tag_257\n      jump\t// in\n    tag_412:\n        /* \"#utility.yul\":4912:5031   */\n    tag_411:\n        /* \"#utility.yul\":5070:5071   */\n      0x00\n        /* \"#utility.yul\":5095:5148   */\n      tag_413\n        /* \"#utility.yul\":5140:5147   */\n      dup6\n        /* \"#utility.yul\":5131:5137   */\n      dup3\n        /* \"#utility.yul\":5120:5129   */\n      dup7\n        /* \"#utility.yul\":5116:5138   */\n      add\n        /* \"#utility.yul\":5095:5148   */\n      tag_274\n      jump\t// in\n    tag_413:\n        /* \"#utility.yul\":5085:5148   */\n      swap3\n      pop\n        /* \"#utility.yul\":5041:5158   */\n      pop\n        /* \"#utility.yul\":5197:5199   */\n      0x20\n        /* \"#utility.yul\":5223:5276   */\n      tag_414\n        /* \"#utility.yul\":5268:5275   */\n      dup6\n        /* \"#utility.yul\":5259:5265   */\n      dup3\n        /* \"#utility.yul\":5248:5257   */\n      dup7\n        /* \"#utility.yul\":5244:5266   */\n      add\n        /* \"#utility.yul\":5223:5276   */\n      tag_262\n      jump\t// in\n    tag_414:\n        /* \"#utility.yul\":5213:5276   */\n      swap2\n      pop\n        /* \"#utility.yul\":5168:5286   */\n      pop\n        /* \"#utility.yul\":4819:5293   */\n      swap3\n      pop\n      swap3\n      swap1\n      pop\n      jump\t// out\n        /* \"#utility.yul\":5299:5439   */\n    tag_275:\n        /* \"#utility.yul\":5392:5398   */\n      0x00\n        /* \"#utility.yul\":5426:5431   */\n      dup2\n        /* \"#utility.yul\":5420:5432   */\n      mload\n        /* \"#utility.yul\":5410:5432   */\n      swap1\n      pop\n        /* \"#utility.yul\":5299:5439   */\n      swap2\n      swap1\n      pop\n      jump\t// out\n        /* \"#utility.yul\":5445:5655   */\n    tag_276:\n        /* \"#utility.yul\":5570:5581   */\n      0x00\n        /* \"#utility.yul\":5604:5610   */\n      dup3\n        /* \"#utility.yul\":5599:5602   */\n      dup3\n        /* \"#utility.yul\":5592:5611   */\n      mstore\n        /* \"#utility.yul\":5644:5648   */\n      0x20\n        /* \"#utility.yul\":5639:5642   */\n      dup3\n        /* \"#utility.yul\":5635:5649   */\n      add\n        /* \"#utility.yul\":5620:5649   */\n      swap1\n      pop\n        /* \"#utility.yul\":5445:5655   */\n      swap3\n      swap2\n      pop\n      pop\n      jump\t// out\n        /* \"#utility.yul\":5661:5819   */\n    tag_277:\n        /* \"#utility.yul\":5754:5758   */\n      0x00\n        /* \"#utility.yul\":5777:5780   */\n      dup2\n        /* \"#utility.yul\":5769:5780   */\n      swap1\n      pop\n        /* \"#utility.yul\":5807:5811   */\n      0x20\n        /* \"#utility.yul\":5802:5805   */\n      dup3\n        /* \"#utility.yul\":5798:5812   */\n      add\n        /* \"#utility.yul\":5790:5812   */\n      swap1\n      pop\n        /* \"#utility.yul\":5661:5819   */\n      swap2\n      swap1\n      pop\n      jump\t// out\n        /* \"#utility.yul\":5825:5933   */\n    tag_278:\n        /* \"#utility.yul\":5902:5926   */\n      tag_419\n        /* \"#utility.yul\":5920:5925   */\n      dup2\n        /* \"#utility.yul\":5902:5926   */\n      tag_260\n      jump\t// in\n    tag_419:\n        /* \"#utility.yul\":5897:5900   */\n      dup3\n        /* \"#utility.yul\":5890:5927   */\n      mstore\n        /* \"#utility.yul\":5825:5933   */\n      pop\n      pop\n      jump\t// out\n        /* \"#utility.yul\":5939:6098   */\n    tag_279:\n        /* \"#utility.yul\":6013:6024   */\n      0x00\n        /* \"#utility.yul\":6047:6053   */\n      dup3\n        /* \"#utility.yul\":6042:6045   */\n      dup3\n        /* \"#utility.yul\":6035:6054   */\n      mstore\n        /* \"#utility.yul\":6087:6091   */\n      0x20\n        /* \"#utility.yul\":6082:6085   */\n      dup3\n        /* \"#utility.yul\":6078:6092   */\n      add\n        /* \"#utility.yul\":6063:6092   */\n      swap1\n      pop\n        /* \"#utility.yul\":5939:6098   */\n      swap3\n      swap2\n      pop\n      pop\n      jump\t// out\n        /* \"#utility.yul\":6104:6461   */\n    tag_280:\n        /* \"#utility.yul\":6182:6185   */\n      0x00\n        /* \"#utility.yul\":6210:6249   */\n      tag_422\n        /* \"#utility.yul\":6243:6248   */\n      dup3\n        /* \"#utility.yul\":6210:6249   */\n      tag_268\n      jump\t// in\n    tag_422:\n        /* \"#utility.yul\":6265:6326   */\n      tag_423\n        /* \"#utility.yul\":6319:6325   */\n      dup2\n        /* \"#utility.yul\":6314:6317   */\n      dup6\n        /* \"#utility.yul\":6265:6326   */\n      tag_279\n      jump\t// in\n    tag_423:\n        /* \"#utility.yul\":6258:6326   */\n      swap4\n      pop\n        /* \"#utility.yul\":6335:6400   */\n      tag_424\n        /* \"#utility.yul\":6393:6399   */\n      dup2\n        /* \"#utility.yul\":6388:6391   */\n      dup6\n        /* \"#utility.yul\":6381:6385   */\n      0x20\n        /* \"#utility.yul\":6374:6379   */\n      dup7\n        /* \"#utility.yul\":6370:6386   */\n      add\n        /* \"#utility.yul\":6335:6400   */\n      tag_270\n      jump\t// in\n    tag_424:\n        /* \"#utility.yul\":6425:6454   */\n      tag_425\n        /* \"#utility.yul\":6447:6453   */\n      dup2\n        /* \"#utility.yul\":6425:6454   */\n      tag_271\n      jump\t// in\n    tag_425:\n        /* \"#utility.yul\":6420:6423   */\n      dup5\n        /* \"#utility.yul\":6416:6455   */\n      add\n        /* \"#utility.yul\":6409:6455   */\n      swap2\n      pop\n        /* \"#utility.yul\":6186:6461   */\n      pop\n        /* \"#utility.yul\":6104:6461   */\n      swap3\n      swap2\n      pop\n      pop\n      jump\t// out\n        /* \"#utility.yul\":6467:6566   */\n    tag_281:\n        /* \"#utility.yul\":6538:6559   */\n      tag_427\n        /* \"#utility.yul\":6553:6558   */\n      dup2\n        /* \"#utility.yul\":6538:6559   */\n      tag_264\n      jump\t// in\n    tag_427:\n        /* \"#utility.yul\":6533:6536   */\n      dup3\n        /* \"#utility.yul\":6526:6560   */\n      mstore\n        /* \"#utility.yul\":6467:6566   */\n      pop\n      pop\n      jump\t// out\n        /* \"#utility.yul\":6572:6680   */\n    tag_282:\n        /* \"#utility.yul\":6649:6673   */\n      tag_429\n        /* \"#utility.yul\":6667:6672   */\n      dup2\n        /* \"#utility.yul\":6649:6673   */\n      tag_266\n      jump\t// in\n    tag_429:\n        /* \"#utility.yul\":6644:6647   */\n      dup3\n        /* \"#utility.yul\":6637:6674   */\n      mstore\n        /* \"#utility.yul\":6572:6680   */\n      pop\n      pop\n      jump\t// out\n        /* \"#utility.yul\":6750:7956   */\n    tag_283:\n        /* \"#utility.yul\":6861:6864   */\n      0x00\n        /* \"#utility.yul\":6897:6901   */\n      0xa0\n        /* \"#utility.yul\":6892:6895   */\n      dup4\n        /* \"#utility.yul\":6888:6902   */\n      add\n        /* \"#utility.yul\":6996:7000   */\n      0x00\n        /* \"#utility.yul\":6989:6994   */\n      dup4\n        /* \"#utility.yul\":6985:7001   */\n      add\n        /* \"#utility.yul\":6979:7002   */\n      mload\n        /* \"#utility.yul\":7015:7078   */\n      tag_431\n        /* \"#utility.yul\":7072:7076   */\n      0x00\n        /* \"#utility.yul\":7067:7070   */\n      dup7\n        /* \"#utility.yul\":7063:7077   */\n      add\n        /* \"#utility.yul\":7049:7061   */\n      dup3\n        /* \"#utility.yul\":7015:7078   */\n      tag_278\n      jump\t// in\n    tag_431:\n        /* \"#utility.yul\":6912:7088   */\n      pop\n        /* \"#utility.yul\":7170:7174   */\n      0x20\n        /* \"#utility.yul\":7163:7168   */\n      dup4\n        /* \"#utility.yul\":7159:7175   */\n      add\n        /* \"#utility.yul\":7153:7176   */\n      mload\n        /* \"#utility.yul\":7223:7226   */\n      dup5\n        /* \"#utility.yul\":7217:7221   */\n      dup3\n        /* \"#utility.yul\":7213:7227   */\n      sub\n        /* \"#utility.yul\":7206:7210   */\n      0x20\n        /* \"#utility.yul\":7201:7204   */\n      dup7\n        /* \"#utility.yul\":7197:7211   */\n      add\n        /* \"#utility.yul\":7190:7228   */\n      mstore\n        /* \"#utility.yul\":7249:7322   */\n      tag_432\n        /* \"#utility.yul\":7317:7321   */\n      dup3\n        /* \"#utility.yul\":7303:7315   */\n      dup3\n        /* \"#utility.yul\":7249:7322   */\n      tag_280\n      jump\t// in\n    tag_432:\n        /* \"#utility.yul\":7241:7322   */\n      swap2\n      pop\n        /* \"#utility.yul\":7098:7333   */\n      pop\n        /* \"#utility.yul\":7419:7423   */\n      0x40\n        /* \"#utility.yul\":7412:7417   */\n      dup4\n        /* \"#utility.yul\":7408:7424   */\n      add\n        /* \"#utility.yul\":7402:7425   */\n      mload\n        /* \"#utility.yul\":7472:7475   */\n      dup5\n        /* \"#utility.yul\":7466:7470   */\n      dup3\n        /* \"#utility.yul\":7462:7476   */\n      sub\n        /* \"#utility.yul\":7455:7459   */\n      0x40\n        /* \"#utility.yul\":7450:7453   */\n      dup7\n        /* \"#utility.yul\":7446:7460   */\n      add\n        /* \"#utility.yul\":7439:7477   */\n      mstore\n        /* \"#utility.yul\":7498:7571   */\n      tag_433\n        /* \"#utility.yul\":7566:7570   */\n      dup3\n        /* \"#utility.yul\":7552:7564   */\n      dup3\n        /* \"#utility.yul\":7498:7571   */\n      tag_280\n      jump\t// in\n    tag_433:\n        /* \"#utility.yul\":7490:7571   */\n      swap2\n      pop\n        /* \"#utility.yul\":7343:7582   */\n      pop\n        /* \"#utility.yul\":7668:7672   */\n      0x60\n        /* \"#utility.yul\":7661:7666   */\n      dup4\n        /* \"#utility.yul\":7657:7673   */\n      add\n        /* \"#utility.yul\":7651:7674   */\n      mload\n        /* \"#utility.yul\":7687:7744   */\n      tag_434\n        /* \"#utility.yul\":7738:7742   */\n      0x60\n        /* \"#utility.yul\":7733:7736   */\n      dup7\n        /* \"#utility.yul\":7729:7743   */\n      add\n        /* \"#utility.yul\":7715:7727   */\n      dup3\n        /* \"#utility.yul\":7687:7744   */\n      tag_281\n      jump\t// in\n    tag_434:\n        /* \"#utility.yul\":7592:7754   */\n      pop\n        /* \"#utility.yul\":7837:7841   */\n      0x80\n        /* \"#utility.yul\":7830:7835   */\n      dup4\n        /* \"#utility.yul\":7826:7842   */\n      add\n        /* \"#utility.yul\":7820:7843   */\n      mload\n        /* \"#utility.yul\":7856:7919   */\n      tag_435\n        /* \"#utility.yul\":7913:7917   */\n      0x80\n        /* \"#utility.yul\":7908:7911   */\n      dup7\n        /* \"#utility.yul\":7904:7918   */\n      add\n        /* \"#utility.yul\":7890:7902   */\n      dup3\n        /* \"#utility.yul\":7856:7919   */\n      tag_282\n      jump\t// in\n    tag_435:\n        /* \"#utility.yul\":7764:7929   */\n      pop\n        /* \"#utility.yul\":7946:7950   */\n      dup1\n        /* \"#utility.yul\":7939:7950   */\n      swap2\n      pop\n        /* \"#utility.yul\":6866:7956   */\n      pop\n        /* \"#utility.yul\":6750:7956   */\n      swap3\n      swap2\n      pop\n      pop\n      jump\t// out\n        /* \"#utility.yul\":7962:8222   */\n    tag_284:\n        /* \"#utility.yul\":8083:8093   */\n      0x00\n        /* \"#utility.yul\":8118:8216   */\n      tag_437\n        /* \"#utility.yul\":8212:8215   */\n      dup4\n        /* \"#utility.yul\":8204:8210   */\n      dup4\n        /* \"#utility.yul\":8118:8216   */\n      tag_283\n      jump\t// in\n    tag_437:\n        /* \"#utility.yul\":8104:8216   */\n      swap1\n      pop\n        /* \"#utility.yul\":7962:8222   */\n      swap3\n      swap2\n      pop\n      pop\n      jump\t// out\n        /* \"#utility.yul\":8228:8367   */\n    tag_285:\n        /* \"#utility.yul\":8324:8328   */\n      0x00\n        /* \"#utility.yul\":8356:8360   */\n      0x20\n        /* \"#utility.yul\":8351:8354   */\n      dup3\n        /* \"#utility.yul\":8347:8361   */\n      add\n        /* \"#utility.yul\":8339:8361   */\n      swap1\n      pop\n        /* \"#utility.yul\":8228:8367   */\n      swap2\n      swap1\n      pop\n      jump\t// out\n        /* \"#utility.yul\":8441:9560   */\n    tag_286:\n        /* \"#utility.yul\":8612:8615   */\n      0x00\n        /* \"#utility.yul\":8641:8721   */\n      tag_440\n        /* \"#utility.yul\":8715:8720   */\n      dup3\n        /* \"#utility.yul\":8641:8721   */\n      tag_275\n      jump\t// in\n    tag_440:\n        /* \"#utility.yul\":8737:8849   */\n      tag_441\n        /* \"#utility.yul\":8842:8848   */\n      dup2\n        /* \"#utility.yul\":8837:8840   */\n      dup6\n        /* \"#utility.yul\":8737:8849   */\n      tag_276\n      jump\t// in\n    tag_441:\n        /* \"#utility.yul\":8730:8849   */\n      swap4\n      pop\n        /* \"#utility.yul\":8875:8878   */\n      dup4\n        /* \"#utility.yul\":8920:8924   */\n      0x20\n        /* \"#utility.yul\":8912:8918   */\n      dup3\n        /* \"#utility.yul\":8908:8925   */\n      mul\n        /* \"#utility.yul\":8903:8906   */\n      dup6\n        /* \"#utility.yul\":8899:8926   */\n      add\n        /* \"#utility.yul\":8950:9032   */\n      tag_442\n        /* \"#utility.yul\":9026:9031   */\n      dup6\n        /* \"#utility.yul\":8950:9032   */\n      tag_277\n      jump\t// in\n    tag_442:\n        /* \"#utility.yul\":9055:9062   */\n      dup1\n        /* \"#utility.yul\":9086:9087   */\n      0x00\n        /* \"#utility.yul\":9071:9515   */\n    tag_443:\n        /* \"#utility.yul\":9096:9102   */\n      dup6\n        /* \"#utility.yul\":9093:9094   */\n      dup2\n        /* \"#utility.yul\":9090:9103   */\n      lt\n        /* \"#utility.yul\":9071:9515   */\n      iszero\n      tag_445\n      jumpi\n        /* \"#utility.yul\":9167:9176   */\n      dup5\n        /* \"#utility.yul\":9161:9165   */\n      dup5\n        /* \"#utility.yul\":9157:9177   */\n      sub\n        /* \"#utility.yul\":9152:9155   */\n      dup10\n        /* \"#utility.yul\":9145:9178   */\n      mstore\n        /* \"#utility.yul\":9218:9224   */\n      dup2\n        /* \"#utility.yul\":9212:9225   */\n      mload\n        /* \"#utility.yul\":9246:9362   */\n      tag_446\n        /* \"#utility.yul\":9357:9361   */\n      dup6\n        /* \"#utility.yul\":9342:9355   */\n      dup3\n        /* \"#utility.yul\":9246:9362   */\n      tag_284\n      jump\t// in\n    tag_446:\n        /* \"#utility.yul\":9238:9362   */\n      swap5\n      pop\n        /* \"#utility.yul\":9385:9471   */\n      tag_447\n        /* \"#utility.yul\":9464:9470   */\n      dup4\n        /* \"#utility.yul\":9385:9471   */\n      tag_285\n      jump\t// in\n    tag_447:\n        /* \"#utility.yul\":9375:9471   */\n      swap3\n      pop\n        /* \"#utility.yul\":9500:9504   */\n      0x20\n        /* \"#utility.yul\":9495:9498   */\n      dup11\n        /* \"#utility.yul\":9491:9505   */\n      add\n        /* \"#utility.yul\":9484:9505   */\n      swap10\n      pop\n        /* \"#utility.yul\":9131:9515   */\n      pop\n        /* \"#utility.yul\":9118:9119   */\n      0x01\n        /* \"#utility.yul\":9115:9116   */\n      dup2\n        /* \"#utility.yul\":9111:9120   */\n      add\n        /* \"#utility.yul\":9106:9120   */\n      swap1\n      pop\n        /* \"#utility.yul\":9071:9515   */\n      jump(tag_443)\n    tag_445:\n        /* \"#utility.yul\":9075:9089   */\n      pop\n        /* \"#utility.yul\":9531:9535   */\n      dup3\n        /* \"#utility.yul\":9524:9535   */\n      swap8\n      pop\n        /* \"#utility.yul\":9551:9554   */\n      dup8\n        /* \"#utility.yul\":9544:9554   */\n      swap6\n      pop\n        /* \"#utility.yul\":8617:9560   */\n      pop\n      pop\n      pop\n      pop\n      pop\n        /* \"#utility.yul\":8441:9560   */\n      swap3\n      swap2\n      pop\n      pop\n      jump\t// out\n        /* \"#utility.yul\":9566:10043   */\n    tag_43:\n        /* \"#utility.yul\":9761:9765   */\n      0x00\n        /* \"#utility.yul\":9799:9801   */\n      0x20\n        /* \"#utility.yul\":9788:9797   */\n      dup3\n        /* \"#utility.yul\":9784:9802   */\n      add\n        /* \"#utility.yul\":9776:9802   */\n      swap1\n      pop\n        /* \"#utility.yul\":9848:9857   */\n      dup2\n        /* \"#utility.yul\":9842:9846   */\n      dup2\n        /* \"#utility.yul\":9838:9858   */\n      sub\n        /* \"#utility.yul\":9834:9835   */\n      0x00\n        /* \"#utility.yul\":9823:9832   */\n      dup4\n        /* \"#utility.yul\":9819:9836   */\n      add\n        /* \"#utility.yul\":9812:9859   */\n      mstore\n        /* \"#utility.yul\":9876:10036   */\n      tag_449\n        /* \"#utility.yul\":10031:10035   */\n      dup2\n        /* \"#utility.yul\":10022:10028   */\n      dup5\n        /* \"#utility.yul\":9876:10036   */\n      tag_286\n      jump\t// in\n    tag_449:\n        /* \"#utility.yul\":9868:10036   */\n      swap1\n      pop\n        /* \"#utility.yul\":9566:10043   */\n      swap3\n      swap2\n      pop\n      pop\n      jump\t// out\n        /* \"#utility.yul\":10049:10185   */\n    tag_287:\n        /* \"#utility.yul\":10138:10144   */\n      0x00\n        /* \"#utility.yul\":10172:10177   */\n      dup2\n        /* \"#utility.yul\":10166:10178   */\n      mload\n        /* \"#utility.yul\":10156:10178   */\n      swap1\n      pop\n        /* \"#utility.yul\":10049:10185   */\n      swap2\n      swap1\n      pop\n      jump\t// out\n        /* \"#utility.yul\":10191:10397   */\n    tag_288:\n        /* \"#utility.yul\":10312:10323   */\n      0x00\n        /* \"#utility.yul\":10346:10352   */\n      dup3\n        /* \"#utility.yul\":10341:10344   */\n      dup3\n        /* \"#utility.yul\":10334:10353   */\n      mstore\n        /* \"#utility.yul\":10386:10390   */\n      0x20\n        /* \"#utility.yul\":10381:10384   */\n      dup3\n        /* \"#utility.yul\":10377:10391   */\n      add\n        /* \"#utility.yul\":10362:10391   */\n      swap1\n      pop\n        /* \"#utility.yul\":10191:10397   */\n      swap3\n      swap2\n      pop\n      pop\n      jump\t// out\n        /* \"#utility.yul\":10403:10557   */\n    tag_289:\n        /* \"#utility.yul\":10492:10496   */\n      0x00\n        /* \"#utility.yul\":10515:10518   */\n      dup2\n        /* \"#utility.yul\":10507:10518   */\n      swap1\n      pop\n        /* \"#utility.yul\":10545:10549   */\n      0x20\n        /* \"#utility.yul\":10540:10543   */\n      dup3\n        /* \"#utility.yul\":10536:10550   */\n      add\n        /* \"#utility.yul\":10528:10550   */\n      swap1\n      pop\n        /* \"#utility.yul\":10403:10557   */\n      swap2\n      swap1\n      pop\n      jump\t// out\n        /* \"#utility.yul\":10619:11641   */\n    tag_290:\n        /* \"#utility.yul\":10750:10754   */\n      0xa0\n        /* \"#utility.yul\":10745:10748   */\n      dup3\n        /* \"#utility.yul\":10741:10755   */\n      add\n        /* \"#utility.yul\":10845:10849   */\n      0x00\n        /* \"#utility.yul\":10838:10843   */\n      dup3\n        /* \"#utility.yul\":10834:10850   */\n      add\n        /* \"#utility.yul\":10828:10851   */\n      mload\n        /* \"#utility.yul\":10864:10927   */\n      tag_454\n        /* \"#utility.yul\":10921:10925   */\n      0x00\n        /* \"#utility.yul\":10916:10919   */\n      dup6\n        /* \"#utility.yul\":10912:10926   */\n      add\n        /* \"#utility.yul\":10898:10910   */\n      dup3\n        /* \"#utility.yul\":10864:10927   */\n      tag_278\n      jump\t// in\n    tag_454:\n        /* \"#utility.yul\":10765:10937   */\n      pop\n        /* \"#utility.yul\":11023:11027   */\n      0x20\n        /* \"#utility.yul\":11016:11021   */\n      dup3\n        /* \"#utility.yul\":11012:11028   */\n      add\n        /* \"#utility.yul\":11006:11029   */\n      mload\n        /* \"#utility.yul\":11042:11099   */\n      tag_455\n        /* \"#utility.yul\":11093:11097   */\n      0x20\n        /* \"#utility.yul\":11088:11091   */\n      dup6\n        /* \"#utility.yul\":11084:11098   */\n      add\n        /* \"#utility.yul\":11070:11082   */\n      dup3\n        /* \"#utility.yul\":11042:11099   */\n      tag_281\n      jump\t// in\n    tag_455:\n        /* \"#utility.yul\":10947:11109   */\n      pop\n        /* \"#utility.yul\":11192:11196   */\n      0x40\n        /* \"#utility.yul\":11185:11190   */\n      dup3\n        /* \"#utility.yul\":11181:11197   */\n      add\n        /* \"#utility.yul\":11175:11198   */\n      mload\n        /* \"#utility.yul\":11211:11268   */\n      tag_456\n        /* \"#utility.yul\":11262:11266   */\n      0x40\n        /* \"#utility.yul\":11257:11260   */\n      dup6\n        /* \"#utility.yul\":11253:11267   */\n      add\n        /* \"#utility.yul\":11239:11251   */\n      dup3\n        /* \"#utility.yul\":11211:11268   */\n      tag_281\n      jump\t// in\n    tag_456:\n        /* \"#utility.yul\":11119:11278   */\n      pop\n        /* \"#utility.yul\":11370:11374   */\n      0x60\n        /* \"#utility.yul\":11363:11368   */\n      dup3\n        /* \"#utility.yul\":11359:11375   */\n      add\n        /* \"#utility.yul\":11353:11376   */\n      mload\n        /* \"#utility.yul\":11389:11452   */\n      tag_457\n        /* \"#utility.yul\":11446:11450   */\n      0x60\n        /* \"#utility.yul\":11441:11444   */\n      dup6\n        /* \"#utility.yul\":11437:11451   */\n      add\n        /* \"#utility.yul\":11423:11435   */\n      dup3\n        /* \"#utility.yul\":11389:11452   */\n      tag_282\n      jump\t// in\n    tag_457:\n        /* \"#utility.yul\":11288:11462   */\n      pop\n        /* \"#utility.yul\":11542:11546   */\n      0x80\n        /* \"#utility.yul\":11535:11540   */\n      dup3\n        /* \"#utility.yul\":11531:11547   */\n      add\n        /* \"#utility.yul\":11525:11548   */\n      mload\n        /* \"#utility.yul\":11561:11624   */\n      tag_458\n        /* \"#utility.yul\":11618:11622   */\n      0x80\n        /* \"#utility.yul\":11613:11616   */\n      dup6\n        /* \"#utility.yul\":11609:11623   */\n      add\n        /* \"#utility.yul\":11595:11607   */\n      dup3\n        /* \"#utility.yul\":11561:11624   */\n      tag_282\n      jump\t// in\n    tag_458:\n        /* \"#utility.yul\":11472:11634   */\n      pop\n        /* \"#utility.yul\":10719:11641   */\n      pop\n        /* \"#utility.yul\":10619:11641   */\n      pop\n      pop\n      jump\t// out\n        /* \"#utility.yul\":11647:11914   */\n    tag_291:\n        /* \"#utility.yul\":11760:11770   */\n      0x00\n        /* \"#utility.yul\":11781:11871   */\n      tag_460\n        /* \"#utility.yul\":11867:11870   */\n      dup4\n        /* \"#utility.yul\":11859:11865   */\n      dup4\n        /* \"#utility.yul\":11781:11871   */\n      tag_290\n      jump\t// in\n    tag_460:\n        /* \"#utility.yul\":11903:11907   */\n      0xa0\n        /* \"#utility.yul\":11898:11901   */\n      dup4\n        /* \"#utility.yul\":11894:11908   */\n      add\n        /* \"#utility.yul\":11880:11908   */\n      swap1\n      pop\n        /* \"#utility.yul\":11647:11914   */\n      swap3\n      swap2\n      pop\n      pop\n      jump\t// out\n        /* \"#utility.yul\":11920:12055   */\n    tag_292:\n        /* \"#utility.yul\":12012:12016   */\n      0x00\n        /* \"#utility.yul\":12044:12048   */\n      0x20\n        /* \"#utility.yul\":12039:12042   */\n      dup3\n        /* \"#utility.yul\":12035:12049   */\n      add\n        /* \"#utility.yul\":12027:12049   */\n      swap1\n      pop\n        /* \"#utility.yul\":11920:12055   */\n      swap2\n      swap1\n      pop\n      jump\t// out\n        /* \"#utility.yul\":12121:13029   */\n    tag_293:\n        /* \"#utility.yul\":12284:12287   */\n      0x00\n        /* \"#utility.yul\":12313:12389   */\n      tag_463\n        /* \"#utility.yul\":12383:12388   */\n      dup3\n        /* \"#utility.yul\":12313:12389   */\n      tag_287\n      jump\t// in\n    tag_463:\n        /* \"#utility.yul\":12405:12513   */\n      tag_464\n        /* \"#utility.yul\":12506:12512   */\n      dup2\n        /* \"#utility.yul\":12501:12504   */\n      dup6\n        /* \"#utility.yul\":12405:12513   */\n      tag_288\n      jump\t// in\n    tag_464:\n        /* \"#utility.yul\":12398:12513   */\n      swap4\n      pop\n        /* \"#utility.yul\":12537:12615   */\n      tag_465\n        /* \"#utility.yul\":12609:12614   */\n      dup4\n        /* \"#utility.yul\":12537:12615   */\n      tag_289\n      jump\t// in\n    tag_465:\n        /* \"#utility.yul\":12638:12645   */\n      dup1\n        /* \"#utility.yul\":12669:12670   */\n      0x00\n        /* \"#utility.yul\":12654:13004   */\n    tag_466:\n        /* \"#utility.yul\":12679:12685   */\n      dup4\n        /* \"#utility.yul\":12676:12677   */\n      dup2\n        /* \"#utility.yul\":12673:12686   */\n      lt\n        /* \"#utility.yul\":12654:13004   */\n      iszero\n      tag_468\n      jumpi\n        /* \"#utility.yul\":12755:12761   */\n      dup2\n        /* \"#utility.yul\":12749:12762   */\n      mload\n        /* \"#utility.yul\":12782:12889   */\n      tag_469\n        /* \"#utility.yul\":12885:12888   */\n      dup9\n        /* \"#utility.yul\":12870:12883   */\n      dup3\n        /* \"#utility.yul\":12782:12889   */\n      tag_291\n      jump\t// in\n    tag_469:\n        /* \"#utility.yul\":12775:12889   */\n      swap8\n      pop\n        /* \"#utility.yul\":12912:12994   */\n      tag_470\n        /* \"#utility.yul\":12987:12993   */\n      dup4\n        /* \"#utility.yul\":12912:12994   */\n      tag_292\n      jump\t// in\n    tag_470:\n        /* \"#utility.yul\":12902:12994   */\n      swap3\n      pop\n        /* \"#utility.yul\":12714:13004   */\n      pop\n        /* \"#utility.yul\":12701:12702   */\n      0x01\n        /* \"#utility.yul\":12698:12699   */\n      dup2\n        /* \"#utility.yul\":12694:12703   */\n      add\n        /* \"#utility.yul\":12689:12703   */\n      swap1\n      pop\n        /* \"#utility.yul\":12654:13004   */\n      jump(tag_466)\n    tag_468:\n        /* \"#utility.yul\":12658:12672   */\n      pop\n        /* \"#utility.yul\":13020:13023   */\n      dup6\n        /* \"#utility.yul\":13013:13023   */\n      swap4\n      pop\n        /* \"#utility.yul\":12289:13029   */\n      pop\n      pop\n      pop\n        /* \"#utility.yul\":12121:13029   */\n      swap3\n      swap2\n      pop\n      pop\n      jump\t// out\n        /* \"#utility.yul\":13035:13496   */\n    tag_55:\n        /* \"#utility.yul\":13222:13226   */\n      0x00\n        /* \"#utility.yul\":13260:13262   */\n      0x20\n        /* \"#utility.yul\":13249:13258   */\n      dup3\n        /* \"#utility.yul\":13245:13263   */\n      add\n        /* \"#utility.yul\":13237:13263   */\n      swap1\n      pop\n        /* \"#utility.yul\":13309:13318   */\n      dup2\n        /* \"#utility.yul\":13303:13307   */\n      dup2\n        /* \"#utility.yul\":13299:13319   */\n      sub\n        /* \"#utility.yul\":13295:13296   */\n      0x00\n        /* \"#utility.yul\":13284:13293   */\n      dup4\n        /* \"#utility.yul\":13280:13297   */\n      add\n        /* \"#utility.yul\":13273:13320   */\n      mstore\n        /* \"#utility.yul\":13337:13489   */\n      tag_472\n        /* \"#utility.yul\":13484:13488   */\n      dup2\n        /* \"#utility.yul\":13475:13481   */\n      dup5\n        /* \"#utility.yul\":13337:13489   */\n      tag_293\n      jump\t// in\n    tag_472:\n        /* \"#utility.yul\":13329:13489   */\n      swap1\n      pop\n        /* \"#utility.yul\":13035:13496   */\n      swap3\n      swap2\n      pop\n      pop\n      jump\t// out\n        /* \"#utility.yul\":13502:13619   */\n    tag_294:\n        /* \"#utility.yul\":13611:13612   */\n      0x00\n        /* \"#utility.yul\":13608:13609   */\n      dup1\n        /* \"#utility.yul\":13601:13613   */\n      revert\n        /* \"#utility.yul\":13625:13742   */\n    tag_295:\n        /* \"#utility.yul\":13734:13735   */\n      0x00\n        /* \"#utility.yul\":13731:13732   */\n      dup1\n        /* \"#utility.yul\":13724:13736   */\n      revert\n        /* \"#utility.yul\":13748:13928   */\n    tag_296:\n        /* \"#utility.yul\":13796:13873   */\n      0x4e487b7100000000000000000000000000000000000000000000000000000000\n        /* \"#utility.yul\":13793:13794   */\n      0x00\n        /* \"#utility.yul\":13786:13874   */\n      mstore\n        /* \"#utility.yul\":13893:13897   */\n      0x41\n        /* \"#utility.yul\":13890:13891   */\n      0x04\n        /* \"#utility.yul\":13883:13898   */\n      mstore\n        /* \"#utility.yul\":13917:13921   */\n      0x24\n        /* \"#utility.yul\":13914:13915   */\n      0x00\n        /* \"#utility.yul\":13907:13922   */\n      revert\n        /* \"#utility.yul\":13934:14215   */\n    tag_297:\n        /* \"#utility.yul\":14017:14044   */\n      tag_477\n        /* \"#utility.yul\":14039:14043   */\n      dup3\n        /* \"#utility.yul\":14017:14044   */\n      tag_271\n      jump\t// in\n    tag_477:\n        /* \"#utility.yul\":14009:14015   */\n      dup2\n        /* \"#utility.yul\":14005:14045   */\n      add\n        /* \"#utility.yul\":14147:14153   */\n      dup2\n        /* \"#utility.yul\":14135:14145   */\n      dup2\n        /* \"#utility.yul\":14132:14154   */\n      lt\n        /* \"#utility.yul\":14111:14129   */\n      0xffffffffffffffff\n        /* \"#utility.yul\":14099:14109   */\n      dup3\n        /* \"#utility.yul\":14096:14130   */\n      gt\n        /* \"#utility.yul\":14093:14155   */\n      or\n        /* \"#utility.yul\":14090:14178   */\n      iszero\n      tag_478\n      jumpi\n        /* \"#utility.yul\":14158:14176   */\n      tag_479\n      tag_296\n      jump\t// in\n    tag_479:\n        /* \"#utility.yul\":14090:14178   */\n    tag_478:\n        /* \"#utility.yul\":14198:14208   */\n      dup1\n        /* \"#utility.yul\":14194:14196   */\n      0x40\n        /* \"#utility.yul\":14187:14209   */\n      mstore\n        /* \"#utility.yul\":13977:14215   */\n      pop\n        /* \"#utility.yul\":13934:14215   */\n      pop\n      pop\n      jump\t// out\n        /* \"#utility.yul\":14221:14350   */\n    tag_298:\n        /* \"#utility.yul\":14255:14261   */\n      0x00\n        /* \"#utility.yul\":14282:14302   */\n      tag_481\n      tag_256\n      jump\t// in\n    tag_481:\n        /* \"#utility.yul\":14272:14302   */\n      swap1\n      pop\n        /* \"#utility.yul\":14311:14344   */\n      tag_482\n        /* \"#utility.yul\":14339:14343   */\n      dup3\n        /* \"#utility.yul\":14331:14337   */\n      dup3\n        /* \"#utility.yul\":14311:14344   */\n      tag_297\n      jump\t// in\n    tag_482:\n        /* \"#utility.yul\":14221:14350   */\n      swap2\n      swap1\n      pop\n      jump\t// out\n        /* \"#utility.yul\":14356:14664   */\n    tag_299:\n        /* \"#utility.yul\":14418:14422   */\n      0x00\n        /* \"#utility.yul\":14508:14526   */\n      0xffffffffffffffff\n        /* \"#utility.yul\":14500:14506   */\n      dup3\n        /* \"#utility.yul\":14497:14527   */\n      gt\n        /* \"#utility.yul\":14494:14550   */\n      iszero\n      tag_484\n      jumpi\n        /* \"#utility.yul\":14530:14548   */\n      tag_485\n      tag_296\n      jump\t// in\n    tag_485:\n        /* \"#utility.yul\":14494:14550   */\n    tag_484:\n        /* \"#utility.yul\":14568:14597   */\n      tag_486\n        /* \"#utility.yul\":14590:14596   */\n      dup3\n        /* \"#utility.yul\":14568:14597   */\n      tag_271\n      jump\t// in\n    tag_486:\n        /* \"#utility.yul\":14560:14597   */\n      swap1\n      pop\n        /* \"#utility.yul\":14652:14656   */\n      0x20\n        /* \"#utility.yul\":14646:14650   */\n      dup2\n        /* \"#utility.yul\":14642:14657   */\n      add\n        /* \"#utility.yul\":14634:14657   */\n      swap1\n      pop\n        /* \"#utility.yul\":14356:14664   */\n      swap2\n      swap1\n      pop\n      jump\t// out\n        /* \"#utility.yul\":14670:14816   */\n    tag_300:\n        /* \"#utility.yul\":14767:14773   */\n      dup3\n        /* \"#utility.yul\":14762:14765   */\n      dup2\n        /* \"#utility.yul\":14757:14760   */\n      dup4\n        /* \"#utility.yul\":14744:14774   */\n      calldatacopy\n        /* \"#utility.yul\":14808:14809   */\n      0x00\n        /* \"#utility.yul\":14799:14805   */\n      dup4\n        /* \"#utility.yul\":14794:14797   */\n      dup4\n        /* \"#utility.yul\":14790:14806   */\n      add\n        /* \"#utility.yul\":14783:14810   */\n      mstore\n        /* \"#utility.yul\":14670:14816   */\n      pop\n      pop\n      pop\n      jump\t// out\n        /* \"#utility.yul\":14822:15247   */\n    tag_301:\n        /* \"#utility.yul\":14900:14905   */\n      0x00\n        /* \"#utility.yul\":14925:14991   */\n      tag_489\n        /* \"#utility.yul\":14941:14990   */\n      tag_490\n        /* \"#utility.yul\":14983:14989   */\n      dup5\n        /* \"#utility.yul\":14941:14990   */\n      tag_299\n      jump\t// in\n    tag_490:\n        /* \"#utility.yul\":14925:14991   */\n      tag_298\n      jump\t// in\n    tag_489:\n        /* \"#utility.yul\":14916:14991   */\n      swap1\n      pop\n        /* \"#utility.yul\":15014:15020   */\n      dup3\n        /* \"#utility.yul\":15007:15012   */\n      dup2\n        /* \"#utility.yul\":15000:15021   */\n      mstore\n        /* \"#utility.yul\":15052:15056   */\n      0x20\n        /* \"#utility.yul\":15045:15050   */\n      dup2\n        /* \"#utility.yul\":15041:15057   */\n      add\n        /* \"#utility.yul\":15090:15093   */\n      dup5\n        /* \"#utility.yul\":15081:15087   */\n      dup5\n        /* \"#utility.yul\":15076:15079   */\n      dup5\n        /* \"#utility.yul\":15072:15088   */\n      add\n        /* \"#utility.yul\":15069:15094   */\n      gt\n        /* \"#utility.yul\":15066:15178   */\n      iszero\n      tag_491\n      jumpi\n        /* \"#utility.yul\":15097:15176   */\n      tag_492\n      tag_295\n      jump\t// in\n    tag_492:\n        /* \"#utility.yul\":15066:15178   */\n    tag_491:\n        /* \"#utility.yul\":15187:15241   */\n      tag_493\n        /* \"#utility.yul\":15234:15240   */\n      dup5\n        /* \"#utility.yul\":15229:15232   */\n      dup3\n        /* \"#utility.yul\":15224:15227   */\n      dup6\n        /* \"#utility.yul\":15187:15241   */\n      tag_300\n      jump\t// in\n    tag_493:\n        /* \"#utility.yul\":14906:15247   */\n      pop\n        /* \"#utility.yul\":14822:15247   */\n      swap4\n      swap3\n      pop\n      pop\n      pop\n      jump\t// out\n        /* \"#utility.yul\":15267:15607   */\n    tag_302:\n        /* \"#utility.yul\":15323:15328   */\n      0x00\n        /* \"#utility.yul\":15372:15375   */\n      dup3\n        /* \"#utility.yul\":15365:15369   */\n      0x1f\n        /* \"#utility.yul\":15357:15363   */\n      dup4\n        /* \"#utility.yul\":15353:15370   */\n      add\n        /* \"#utility.yul\":15349:15376   */\n      slt\n        /* \"#utility.yul\":15339:15461   */\n      tag_495\n      jumpi\n        /* \"#utility.yul\":15380:15459   */\n      tag_496\n      tag_294\n      jump\t// in\n    tag_496:\n        /* \"#utility.yul\":15339:15461   */\n    tag_495:\n        /* \"#utility.yul\":15497:15503   */\n      dup2\n        /* \"#utility.yul\":15484:15504   */\n      calldataload\n        /* \"#utility.yul\":15522:15601   */\n      tag_497\n        /* \"#utility.yul\":15597:15600   */\n      dup5\n        /* \"#utility.yul\":15589:15595   */\n      dup3\n        /* \"#utility.yul\":15582:15586   */\n      0x20\n        /* \"#utility.yul\":15574:15580   */\n      dup7\n        /* \"#utility.yul\":15570:15587   */\n      add\n        /* \"#utility.yul\":15522:15601   */\n      tag_301\n      jump\t// in\n    tag_497:\n        /* \"#utility.yul\":15513:15601   */\n      swap2\n      pop\n        /* \"#utility.yul\":15329:15607   */\n      pop\n        /* \"#utility.yul\":15267:15607   */\n      swap3\n      swap2\n      pop\n      pop\n      jump\t// out\n        /* \"#utility.yul\":15613:16592   */\n    tag_58:\n        /* \"#utility.yul\":15710:15716   */\n      0x00\n        /* \"#utility.yul\":15718:15724   */\n      dup1\n        /* \"#utility.yul\":15726:15732   */\n      0x00\n        /* \"#utility.yul\":15775:15777   */\n      0x60\n        /* \"#utility.yul\":15763:15772   */\n      dup5\n        /* \"#utility.yul\":15754:15761   */\n      dup7\n        /* \"#utility.yul\":15750:15773   */\n      sub\n        /* \"#utility.yul\":15746:15778   */\n      slt\n        /* \"#utility.yul\":15743:15862   */\n      iszero\n      tag_499\n      jumpi\n        /* \"#utility.yul\":15781:15860   */\n      tag_500\n      tag_257\n      jump\t// in\n    tag_500:\n        /* \"#utility.yul\":15743:15862   */\n    tag_499:\n        /* \"#utility.yul\":15929:15930   */\n      0x00\n        /* \"#utility.yul\":15918:15927   */\n      dup5\n        /* \"#utility.yul\":15914:15931   */\n      add\n        /* \"#utility.yul\":15901:15932   */\n      calldataload\n        /* \"#utility.yul\":15959:15977   */\n      0xffffffffffffffff\n        /* \"#utility.yul\":15951:15957   */\n      dup2\n        /* \"#utility.yul\":15948:15978   */\n      gt\n        /* \"#utility.yul\":15945:16062   */\n      iszero\n      tag_501\n      jumpi\n        /* \"#utility.yul\":15981:16060   */\n      tag_502\n      tag_258\n      jump\t// in\n    tag_502:\n        /* \"#utility.yul\":15945:16062   */\n    tag_501:\n        /* \"#utility.yul\":16086:16149   */\n      tag_503\n        /* \"#utility.yul\":16141:16148   */\n      dup7\n        /* \"#utility.yul\":16132:16138   */\n      dup3\n        /* \"#utility.yul\":16121:16130   */\n      dup8\n        /* \"#utility.yul\":16117:16139   */\n      add\n        /* \"#utility.yul\":16086:16149   */\n      tag_302\n      jump\t// in\n    tag_503:\n        /* \"#utility.yul\":16076:16149   */\n      swap4\n      pop\n        /* \"#utility.yul\":15872:16159   */\n      pop\n        /* \"#utility.yul\":16226:16228   */\n      0x20\n        /* \"#utility.yul\":16215:16224   */\n      dup5\n        /* \"#utility.yul\":16211:16229   */\n      add\n        /* \"#utility.yul\":16198:16230   */\n      calldataload\n        /* \"#utility.yul\":16257:16275   */\n      0xffffffffffffffff\n        /* \"#utility.yul\":16249:16255   */\n      dup2\n        /* \"#utility.yul\":16246:16276   */\n      gt\n        /* \"#utility.yul\":16243:16360   */\n      iszero\n      tag_504\n      jumpi\n        /* \"#utility.yul\":16279:16358   */\n      tag_505\n      tag_258\n      jump\t// in\n    tag_505:\n        /* \"#utility.yul\":16243:16360   */\n    tag_504:\n        /* \"#utility.yul\":16384:16447   */\n      tag_506\n        /* \"#utility.yul\":16439:16446   */\n      dup7\n        /* \"#utility.yul\":16430:16436   */\n      dup3\n        /* \"#utility.yul\":16419:16428   */\n      dup8\n        /* \"#utility.yul\":16415:16437   */\n      add\n        /* \"#utility.yul\":16384:16447   */\n      tag_302\n      jump\t// in\n    tag_506:\n        /* \"#utility.yul\":16374:16447   */\n      swap3\n      pop\n        /* \"#utility.yul\":16169:16457   */\n      pop\n        /* \"#utility.yul\":16496:16498   */\n      0x40\n        /* \"#utility.yul\":16522:16575   */\n      tag_507\n        /* \"#utility.yul\":16567:16574   */\n      dup7\n        /* \"#utility.yul\":16558:16564   */\n      dup3\n        /* \"#utility.yul\":16547:16556   */\n      dup8\n        /* \"#utility.yul\":16543:16565   */\n      add\n        /* \"#utility.yul\":16522:16575   */\n      tag_262\n      jump\t// in\n    tag_507:\n        /* \"#utility.yul\":16512:16575   */\n      swap2\n      pop\n        /* \"#utility.yul\":16467:16585   */\n      pop\n        /* \"#utility.yul\":15613:16592   */\n      swap3\n      pop\n      swap3\n      pop\n      swap3\n      jump\t// out\n        /* \"#utility.yul\":16598:16778   */\n    tag_303:\n        /* \"#utility.yul\":16646:16723   */\n      0x4e487b7100000000000000000000000000000000000000000000000000000000\n        /* \"#utility.yul\":16643:16644   */\n      0x00\n        /* \"#utility.yul\":16636:16724   */\n      mstore\n        /* \"#utility.yul\":16743:16747   */\n      0x22\n        /* \"#utility.yul\":16740:16741   */\n      0x04\n        /* \"#utility.yul\":16733:16748   */\n      mstore\n        /* \"#utility.yul\":16767:16771   */\n      0x24\n        /* \"#utility.yul\":16764:16765   */\n      0x00\n        /* \"#utility.yul\":16757:16772   */\n      revert\n        /* \"#utility.yul\":16784:17104   */\n    tag_61:\n        /* \"#utility.yul\":16828:16834   */\n      0x00\n        /* \"#utility.yul\":16865:16866   */\n      0x02\n        /* \"#utility.yul\":16859:16863   */\n      dup3\n        /* \"#utility.yul\":16855:16867   */\n      div\n        /* \"#utility.yul\":16845:16867   */\n      swap1\n      pop\n        /* \"#utility.yul\":16912:16913   */\n      0x01\n        /* \"#utility.yul\":16906:16910   */\n      dup3\n        /* \"#utility.yul\":16902:16914   */\n      and\n        /* \"#utility.yul\":16933:16951   */\n      dup1\n        /* \"#utility.yul\":16923:17004   */\n      tag_510\n      jumpi\n        /* \"#utility.yul\":16989:16993   */\n      0x7f\n        /* \"#utility.yul\":16981:16987   */\n      dup3\n        /* \"#utility.yul\":16977:16994   */\n      and\n        /* \"#utility.yul\":16967:16994   */\n      swap2\n      pop\n        /* \"#utility.yul\":16923:17004   */\n    tag_510:\n        /* \"#utility.yul\":17051:17053   */\n      0x20\n        /* \"#utility.yul\":17043:17049   */\n      dup3\n        /* \"#utility.yul\":17040:17054   */\n      lt\n        /* \"#utility.yul\":17020:17038   */\n      dup2\n        /* \"#utility.yul\":17017:17055   */\n      sub\n        /* \"#utility.yul\":17014:17098   */\n      tag_511\n      jumpi\n        /* \"#utility.yul\":17070:17088   */\n      tag_512\n      tag_303\n      jump\t// in\n    tag_512:\n        /* \"#utility.yul\":17014:17098   */\n    tag_511:\n        /* \"#utility.yul\":16835:17104   */\n      pop\n        /* \"#utility.yul\":16784:17104   */\n      swap2\n      swap1\n      pop\n      jump\t// out\n        /* \"#utility.yul\":17110:17290   */\n    tag_83:\n        /* \"#utility.yul\":17158:17235   */\n      0x4e487b7100000000000000000000000000000000000000000000000000000000\n        /* \"#utility.yul\":17155:17156   */\n      0x00\n        /* \"#utility.yul\":17148:17236   */\n      mstore\n        /* \"#utility.yul\":17255:17259   */\n      0x21\n        /* \"#utility.yul\":17252:17253   */\n      0x04\n        /* \"#utility.yul\":17245:17260   */\n      mstore\n        /* \"#utility.yul\":17279:17283   */\n      0x24\n        /* \"#utility.yul\":17276:17277   */\n      0x00\n        /* \"#utility.yul\":17269:17284   */\n      revert\n        /* \"#utility.yul\":17296:17437   */\n    tag_304:\n        /* \"#utility.yul\":17345:17349   */\n      0x00\n        /* \"#utility.yul\":17368:17371   */\n      dup2\n        /* \"#utility.yul\":17360:17371   */\n      swap1\n      pop\n        /* \"#utility.yul\":17391:17394   */\n      dup2\n        /* \"#utility.yul\":17388:17389   */\n      0x00\n        /* \"#utility.yul\":17381:17395   */\n      mstore\n        /* \"#utility.yul\":17425:17429   */\n      0x20\n        /* \"#utility.yul\":17422:17423   */\n      0x00\n        /* \"#utility.yul\":17412:17430   */\n      keccak256\n        /* \"#utility.yul\":17404:17430   */\n      swap1\n      pop\n        /* \"#utility.yul\":17296:17437   */\n      swap2\n      swap1\n      pop\n      jump\t// out\n        /* \"#utility.yul\":17443:17536   */\n    tag_305:\n        /* \"#utility.yul\":17480:17486   */\n      0x00\n        /* \"#utility.yul\":17527:17529   */\n      0x20\n        /* \"#utility.yul\":17522:17524   */\n      0x1f\n        /* \"#utility.yul\":17515:17520   */\n      dup4\n        /* \"#utility.yul\":17511:17525   */\n      add\n        /* \"#utility.yul\":17507:17530   */\n      div\n        /* \"#utility.yul\":17497:17530   */\n      swap1\n      pop\n        /* \"#utility.yul\":17443:17536   */\n      swap2\n      swap1\n      pop\n      jump\t// out\n        /* \"#utility.yul\":17542:17649   */\n    tag_306:\n        /* \"#utility.yul\":17586:17594   */\n      0x00\n        /* \"#utility.yul\":17636:17641   */\n      dup3\n        /* \"#utility.yul\":17630:17634   */\n      dup3\n        /* \"#utility.yul\":17626:17642   */\n      shl\n        /* \"#utility.yul\":17605:17642   */\n      swap1\n      pop\n        /* \"#utility.yul\":17542:17649   */\n      swap3\n      swap2\n      pop\n      pop\n      jump\t// out\n        /* \"#utility.yul\":17655:18048   */\n    tag_307:\n        /* \"#utility.yul\":17724:17730   */\n      0x00\n        /* \"#utility.yul\":17774:17775   */\n      0x08\n        /* \"#utility.yul\":17762:17772   */\n      dup4\n        /* \"#utility.yul\":17758:17776   */\n      mul\n        /* \"#utility.yul\":17797:17894   */\n      tag_518\n        /* \"#utility.yul\":17827:17893   */\n      0xffffffffffffffffffffffffffffffffffffffffffffffffffffffffffffffff\n        /* \"#utility.yul\":17816:17825   */\n      dup3\n        /* \"#utility.yul\":17797:17894   */\n      tag_306\n      jump\t// in\n    tag_518:\n        /* \"#utility.yul\":17915:17954   */\n      tag_519\n        /* \"#utility.yul\":17945:17953   */\n      dup7\n        /* \"#utility.yul\":17934:17943   */\n      dup4\n        /* \"#utility.yul\":17915:17954   */\n      tag_306\n      jump\t// in\n    tag_519:\n        /* \"#utility.yul\":17903:17954   */\n      swap6\n      pop\n        /* \"#utility.yul\":17987:17991   */\n      dup1\n        /* \"#utility.yul\":17983:17992   */\n      not\n        /* \"#utility.yul\":17976:17981   */\n      dup5\n        /* \"#utility.yul\":17972:17993   */\n      and\n        /* \"#utility.yul\":17963:17993   */\n      swap4\n      pop\n        /* \"#utility.yul\":18036:18040   */\n      dup1\n        /* \"#utility.yul\":18026:18034   */\n      dup7\n        /* \"#utility.yul\":18022:18041   */\n      and\n        /* \"#utility.yul\":18015:18020   */\n      dup5\n        /* \"#utility.yul\":18012:18042   */\n      or\n        /* \"#utility.yul\":18002:18042   */\n      swap3\n      pop\n        /* \"#utility.yul\":17731:18048   */\n      pop\n      pop\n        /* \"#utility.yul\":17655:18048   */\n      swap4\n      swap3\n      pop\n      pop\n      pop\n      jump\t// out\n        /* \"#utility.yul\":18054:18114   */\n    tag_308:\n        /* \"#utility.yul\":18082:18085   */\n      0x00\n        /* \"#utility.yul\":18103:18108   */\n      dup2\n        /* \"#utility.yul\":18096:18108   */\n      swap1\n      pop\n        /* \"#utility.yul\":18054:18114   */\n      swap2\n      swap1\n      pop\n      jump\t// out\n        /* \"#utility.yul\":18120:18262   */\n    tag_309:\n        /* \"#utility.yul\":18170:18179   */\n      0x00\n        /* \"#utility.yul\":18203:18256   */\n      tag_522\n        /* \"#utility.yul\":18221:18255   */\n      tag_523\n        /* \"#utility.yul\":18230:18254   */\n      tag_524\n        /* \"#utility.yul\":18248:18253   */\n      dup5\n        /* \"#utility.yul\":18230:18254   */\n      tag_266\n      jump\t// in\n    tag_524:\n        /* \"#utility.yul\":18221:18255   */\n      tag_308\n      jump\t// in\n    tag_523:\n        /* \"#utility.yul\":18203:18256   */\n      tag_266\n      jump\t// in\n    tag_522:\n        /* \"#utility.yul\":18190:18256   */\n      swap1\n      pop\n        /* \"#utility.yul\":18120:18262   */\n      swap2\n      swap1\n      pop\n      jump\t// out\n        /* \"#utility.yul\":18268:18343   */\n    tag_310:\n        /* \"#utility.yul\":18311:18314   */\n      0x00\n        /* \"#utility.yul\":18332:18337   */\n      dup2\n        /* \"#utility.yul\":18325:18337   */\n      swap1\n      pop\n        /* \"#utility.yul\":18268:18343   */\n      swap2\n      swap1\n      pop\n      jump\t// out\n        /* \"#utility.yul\":18349:18618   */\n    tag_311:\n        /* \"#utility.yul\":18459:18498   */\n      tag_527\n        /* \"#utility.yul\":18490:18497   */\n      dup4\n        /* \"#utility.yul\":18459:18498   */\n      tag_309\n      jump\t// in\n    tag_527:\n        /* \"#utility.yul\":18520:18611   */\n      tag_528\n        /* \"#utility.yul\":18569:18610   */\n      tag_529\n        /* \"#utility.yul\":18593:18609   */\n      dup3\n        /* \"#utility.yul\":18569:18610   */\n      tag_310\n      jump\t// in\n    tag_529:\n        /* \"#utility.yul\":18561:18567   */\n      dup5\n        /* \"#utility.yul\":18554:18558   */\n      dup5\n        /* \"#utility.yul\":18548:18559   */\n      sload\n        /* \"#utility.yul\":18520:18611   */\n      tag_307\n      jump\t// in\n    tag_528:\n        /* \"#utility.yul\":18514:18518   */\n      dup3\n        /* \"#utility.yul\":18507:18612   */\n      sstore\n        /* \"#utility.yul\":18425:18618   */\n      pop\n        /* \"#utility.yul\":18349:18618   */\n      pop\n      pop\n      pop\n      jump\t// out\n        /* \"#utility.yul\":18624:18697   */\n    tag_312:\n        /* \"#utility.yul\":18669:18672   */\n      0x00\n        /* \"#utility.yul\":18624:18697   */\n      swap1\n      jump\t// out\n        /* \"#utility.yul\":18703:18892   */\n    tag_313:\n        /* \"#utility.yul\":18780:18812   */\n      tag_532\n      tag_312\n      jump\t// in\n    tag_532:\n        /* \"#utility.yul\":18821:18886   */\n      tag_533\n        /* \"#utility.yul\":18879:18885   */\n      dup2\n        /* \"#utility.yul\":18871:18877   */\n      dup5\n        /* \"#utility.yul\":18865:18869   */\n      dup5\n        /* \"#utility.yul\":18821:18886   */\n      tag_311\n      jump\t// in\n    tag_533:\n        /* \"#utility.yul\":18756:18892   */\n      pop\n        /* \"#utility.yul\":18703:18892   */\n      pop\n      pop\n      jump\t// out\n        /* \"#utility.yul\":18898:19084   */\n    tag_314:\n        /* \"#utility.yul\":18958:19078   */\n    tag_535:\n        /* \"#utility.yul\":18975:18978   */\n      dup2\n        /* \"#utility.yul\":18968:18973   */\n      dup2\n        /* \"#utility.yul\":18965:18979   */\n      lt\n        /* \"#utility.yul\":18958:19078   */\n      iszero\n      tag_537\n      jumpi\n        /* \"#utility.yul\":19029:19068   */\n      tag_538\n        /* \"#utility.yul\":19066:19067   */\n      0x00\n        /* \"#utility.yul\":19059:19064   */\n      dup3\n        /* \"#utility.yul\":19029:19068   */\n      tag_313\n      jump\t// in\n    tag_538:\n        /* \"#utility.yul\":19002:19003   */\n      0x01\n        /* \"#utility.yul\":18995:19000   */\n      dup2\n        /* \"#utility.yul\":18991:19004   */\n      add\n        /* \"#utility.yul\":18982:19004   */\n      swap1\n      pop\n        /* \"#utility.yul\":18958:19078   */\n      jump(tag_535)\n    tag_537:\n        /* \"#utility.yul\":18898:19084   */\n      pop\n      pop\n      jump\t// out\n        /* \"#utility.yul\":19090:19633   */\n    tag_315:\n        /* \"#utility.yul\":19191:19193   */\n      0x1f\n        /* \"#utility.yul\":19186:19189   */\n      dup3\n        /* \"#utility.yul\":19183:19194   */\n      gt\n        /* \"#utility.yul\":19180:19626   */\n      iszero\n      tag_540\n      jumpi\n        /* \"#utility.yul\":19225:19263   */\n      tag_541\n        /* \"#utility.yul\":19257:19262   */\n      dup2\n        /* \"#utility.yul\":19225:19263   */\n      tag_304\n      jump\t// in\n    tag_541:\n        /* \"#utility.yul\":19309:19338   */\n      tag_542\n        /* \"#utility.yul\":19327:19337   */\n      dup5\n        /* \"#utility.yul\":19309:19338   */\n      tag_305\n      jump\t// in\n    tag_542:\n        /* \"#utility.yul\":19299:19307   */\n      dup2\n        /* \"#utility.yul\":19295:19339   */\n      add\n        /* \"#utility.yul\":19492:19494   */\n      0x20\n        /* \"#utility.yul\":19480:19490   */\n      dup6\n        /* \"#utility.yul\":19477:19495   */\n      lt\n        /* \"#utility.yul\":19474:19523   */\n      iszero\n      tag_543\n      jumpi\n        /* \"#utility.yul\":19513:19521   */\n      dup2\n        /* \"#utility.yul\":19498:19521   */\n      swap1\n      pop\n        /* \"#utility.yul\":19474:19523   */\n    tag_543:\n        /* \"#utility.yul\":19536:19616   */\n      tag_544\n        /* \"#utility.yul\":19592:19614   */\n      tag_545\n        /* \"#utility.yul\":19610:19613   */\n      dup6\n        /* \"#utility.yul\":19592:19614   */\n      tag_305\n      jump\t// in\n    tag_545:\n        /* \"#utility.yul\":19582:19590   */\n      dup4\n        /* \"#utility.yul\":19578:19615   */\n      add\n        /* \"#utility.yul\":19565:19576   */\n      dup3\n        /* \"#utility.yul\":19536:19616   */\n      tag_314\n      jump\t// in\n    tag_544:\n        /* \"#utility.yul\":19195:19626   */\n      pop\n      pop\n        /* \"#utility.yul\":19180:19626   */\n    tag_540:\n        /* \"#utility.yul\":19090:19633   */\n      pop\n      pop\n      pop\n      jump\t// out\n        /* \"#utility.yul\":19639:19756   */\n    tag_316:\n        /* \"#utility.yul\":19693:19701   */\n      0x00\n        /* \"#utility.yul\":19743:19748   */\n      dup3\n        /* \"#utility.yul\":19737:19741   */\n      dup3\n        /* \"#utility.yul\":19733:19749   */\n      shr\n        /* \"#utility.yul\":19712:19749   */\n      swap1\n      pop\n        /* \"#utility.yul\":19639:19756   */\n      swap3\n      swap2\n      pop\n      pop\n      jump\t// out\n        /* \"#utility.yul\":19762:19931   */\n    tag_317:\n        /* \"#utility.yul\":19806:19812   */\n      0x00\n        /* \"#utility.yul\":19839:19890   */\n      tag_548\n        /* \"#utility.yul\":19887:19888   */\n      0x00\n        /* \"#utility.yul\":19883:19889   */\n      not\n        /* \"#utility.yul\":19875:19880   */\n      dup5\n        /* \"#utility.yul\":19872:19873   */\n      0x08\n        /* \"#utility.yul\":19868:19881   */\n      mul\n        /* \"#utility.yul\":19839:19890   */\n      tag_316\n      jump\t// in\n    tag_548:\n        /* \"#utility.yul\":19835:19891   */\n      not\n        /* \"#utility.yul\":19920:19924   */\n      dup1\n        /* \"#utility.yul\":19914:19918   */\n      dup4\n        /* \"#utility.yul\":19910:19925   */\n      and\n        /* \"#utility.yul\":19900:19925   */\n      swap2\n      pop\n        /* \"#utility.yul\":19813:19931   */\n      pop\n        /* \"#utility.yul\":19762:19931   */\n      swap3\n      swap2\n      pop\n      pop\n      jump\t// out\n        /* \"#utility.yul\":19936:20231   */\n    tag_318:\n        /* \"#utility.yul\":20012:20016   */\n      0x00\n        /* \"#utility.yul\":20158:20187   */\n      tag_550\n        /* \"#utility.yul\":20183:20186   */\n      dup4\n        /* \"#utility.yul\":20177:20181   */\n      dup4\n        /* \"#utility.yul\":20158:20187   */\n      tag_317\n      jump\t// in\n    tag_550:\n        /* \"#utility.yul\":20150:20187   */\n      swap2\n      pop\n        /* \"#utility.yul\":20220:20223   */\n      dup3\n        /* \"#utility.yul\":20217:20218   */\n      0x02\n        /* \"#utility.yul\":20213:20224   */\n      mul\n        /* \"#utility.yul\":20207:20211   */\n      dup3\n        /* \"#utility.yul\":20204:20225   */\n      or\n        /* \"#utility.yul\":20196:20225   */\n      swap1\n      pop\n        /* \"#utility.yul\":19936:20231   */\n      swap3\n      swap2\n      pop\n      pop\n      jump\t// out\n        /* \"#utility.yul\":20236:21631   */\n    tag_85:\n        /* \"#utility.yul\":20353:20390   */\n      tag_552\n        /* \"#utility.yul\":20386:20389   */\n      dup3\n        /* \"#utility.yul\":20353:20390   */\n      tag_268\n      jump\t// in\n    tag_552:\n        /* \"#utility.yul\":20455:20473   */\n      0xffffffffffffffff\n        /* \"#utility.yul\":20447:20453   */\n      dup2\n        /* \"#utility.yul\":20444:20474   */\n      gt\n        /* \"#utility.yul\":20441:20497   */\n      iszero\n      tag_553\n      jumpi\n        /* \"#utility.yul\":20477:20495   */\n      tag_554\n      tag_296\n      jump\t// in\n    tag_554:\n        /* \"#utility.yul\":20441:20497   */\n    tag_553:\n        /* \"#utility.yul\":20521:20559   */\n      tag_555\n        /* \"#utility.yul\":20553:20557   */\n      dup3\n        /* \"#utility.yul\":20547:20558   */\n      sload\n        /* \"#utility.yul\":20521:20559   */\n      tag_61\n      jump\t// in\n    tag_555:\n        /* \"#utility.yul\":20606:20673   */\n      tag_556\n        /* \"#utility.yul\":20666:20672   */\n      dup3\n        /* \"#utility.yul\":20658:20664   */\n      dup3\n        /* \"#utility.yul\":20652:20656   */\n      dup6\n        /* \"#utility.yul\":20606:20673   */\n      tag_315\n      jump\t// in\n    tag_556:\n        /* \"#utility.yul\":20700:20701   */\n      0x00\n        /* \"#utility.yul\":20724:20728   */\n      0x20\n        /* \"#utility.yul\":20711:20728   */\n      swap1\n      pop\n        /* \"#utility.yul\":20756:20758   */\n      0x1f\n        /* \"#utility.yul\":20748:20754   */\n      dup4\n        /* \"#utility.yul\":20745:20759   */\n      gt\n        /* \"#utility.yul\":20773:20774   */\n      0x01\n        /* \"#utility.yul\":20768:21386   */\n      dup2\n      eq\n      tag_558\n      jumpi\n        /* \"#utility.yul\":21430:21431   */\n      0x00\n        /* \"#utility.yul\":21447:21453   */\n      dup5\n        /* \"#utility.yul\":21444:21521   */\n      iszero\n      tag_559\n      jumpi\n        /* \"#utility.yul\":21496:21505   */\n      dup3\n        /* \"#utility.yul\":21491:21494   */\n      dup8\n        /* \"#utility.yul\":21487:21506   */\n      add\n        /* \"#utility.yul\":21481:21507   */\n      mload\n        /* \"#utility.yul\":21472:21507   */\n      swap1\n      pop\n        /* \"#utility.yul\":21444:21521   */\n    tag_559:\n        /* \"#utility.yul\":21547:21614   */\n      tag_560\n        /* \"#utility.yul\":21607:21613   */\n      dup6\n        /* \"#utility.yul\":21600:21605   */\n      dup3\n        /* \"#utility.yul\":21547:21614   */\n      tag_318\n      jump\t// in\n    tag_560:\n        /* \"#utility.yul\":21541:21545   */\n      dup7\n        /* \"#utility.yul\":21534:21615   */\n      sstore\n        /* \"#utility.yul\":21403:21625   */\n      pop\n        /* \"#utility.yul\":20738:21625   */\n      jump(tag_557)\n        /* \"#utility.yul\":20768:21386   */\n    tag_558:\n        /* \"#utility.yul\":20820:20824   */\n      0x1f\n        /* \"#utility.yul\":20816:20825   */\n      not\n        /* \"#utility.yul\":20808:20814   */\n      dup5\n        /* \"#utility.yul\":20804:20826   */\n      and\n        /* \"#utility.yul\":20854:20891   */\n      tag_561\n        /* \"#utility.yul\":20886:20890   */\n      dup7\n        /* \"#utility.yul\":20854:20891   */\n      tag_304\n      jump\t// in\n    tag_561:\n        /* \"#utility.yul\":20913:20914   */\n      0x00\n        /* \"#utility.yul\":20927:21135   */\n    tag_562:\n        /* \"#utility.yul\":20941:20948   */\n      dup3\n        /* \"#utility.yul\":20938:20939   */\n      dup2\n        /* \"#utility.yul\":20935:20949   */\n      lt\n        /* \"#utility.yul\":20927:21135   */\n      iszero\n      tag_564\n      jumpi\n        /* \"#utility.yul\":21020:21029   */\n      dup5\n        /* \"#utility.yul\":21015:21018   */\n      dup10\n        /* \"#utility.yul\":21011:21030   */\n      add\n        /* \"#utility.yul\":21005:21031   */\n      mload\n        /* \"#utility.yul\":20997:21003   */\n      dup3\n        /* \"#utility.yul\":20990:21032   */\n      sstore\n        /* \"#utility.yul\":21071:21072   */\n      0x01\n        /* \"#utility.yul\":21063:21069   */\n      dup3\n        /* \"#utility.yul\":21059:21073   */\n      add\n        /* \"#utility.yul\":21049:21073   */\n      swap2\n      pop\n        /* \"#utility.yul\":21118:21120   */\n      0x20\n        /* \"#utility.yul\":21107:21116   */\n      dup6\n        /* \"#utility.yul\":21103:21121   */\n      add\n        /* \"#utility.yul\":21090:21121   */\n      swap5\n      pop\n        /* \"#utility.yul\":20964:20968   */\n      0x20\n        /* \"#utility.yul\":20961:20962   */\n      dup2\n        /* \"#utility.yul\":20957:20969   */\n      add\n        /* \"#utility.yul\":20952:20969   */\n      swap1\n      pop\n        /* \"#utility.yul\":20927:21135   */\n      jump(tag_562)\n    tag_564:\n        /* \"#utility.yul\":21163:21169   */\n      dup7\n        /* \"#utility.yul\":21154:21161   */\n      dup4\n        /* \"#utility.yul\":21151:21170   */\n      lt\n        /* \"#utility.yul\":21148:21327   */\n      iszero\n      tag_565\n      jumpi\n        /* \"#utility.yul\":21221:21230   */\n      dup5\n        /* \"#utility.yul\":21216:21219   */\n      dup10\n        /* \"#utility.yul\":21212:21231   */\n      add\n        /* \"#utility.yul\":21206:21232   */\n      mload\n        /* \"#utility.yul\":21264:21312   */\n      tag_566\n        /* \"#utility.yul\":21306:21310   */\n      0x1f\n        /* \"#utility.yul\":21298:21304   */\n      dup10\n        /* \"#utility.yul\":21294:21311   */\n      and\n        /* \"#utility.yul\":21283:21292   */\n      dup3\n        /* \"#utility.yul\":21264:21312   */\n      tag_317\n      jump\t// in\n    tag_566:\n        /* \"#utility.yul\":21256:21262   */\n      dup4\n        /* \"#utility.yul\":21249:21313   */\n      sstore\n        /* \"#utility.yul\":21171:21327   */\n      pop\n        /* \"#utility.yul\":21148:21327   */\n    tag_565:\n        /* \"#utility.yul\":21373:21374   */\n      0x01\n        /* \"#utility.yul\":21369:21370   */\n      0x02\n        /* \"#utility.yul\":21361:21367   */\n      dup9\n        /* \"#utility.yul\":21357:21371   */\n      mul\n        /* \"#utility.yul\":21353:21375   */\n      add\n        /* \"#utility.yul\":21347:21351   */\n      dup9\n        /* \"#utility.yul\":21340:21376   */\n      sstore\n        /* \"#utility.yul\":20775:21386   */\n      pop\n      pop\n      pop\n        /* \"#utility.yul\":20738:21625   */\n    tag_557:\n      pop\n        /* \"#utility.yul\":20328:21631   */\n      pop\n      pop\n      pop\n        /* \"#utility.yul\":20236:21631   */\n      pop\n      pop\n      jump\t// out\n        /* \"#utility.yul\":21637:21807   */\n    tag_319:\n        /* \"#utility.yul\":21777:21799   */\n      0x766f74657220646f6573206e6f74206578697374000000000000000000000000\n        /* \"#utility.yul\":21773:21774   */\n      0x00\n        /* \"#utility.yul\":21765:21771   */\n      dup3\n        /* \"#utility.yul\":21761:21775   */\n      add\n        /* \"#utility.yul\":21754:21800   */\n      mstore\n        /* \"#utility.yul\":21637:21807   */\n      pop\n      jump\t// out\n        /* \"#utility.yul\":21813:22179   */\n    tag_320:\n        /* \"#utility.yul\":21955:21958   */\n      0x00\n        /* \"#utility.yul\":21976:22043   */\n      tag_569\n        /* \"#utility.yul\":22040:22042   */\n      0x14\n        /* \"#utility.yul\":22035:22038   */\n      dup4\n        /* \"#utility.yul\":21976:22043   */\n      tag_269\n      jump\t// in\n    tag_569:\n        /* \"#utility.yul\":21969:22043   */\n      swap2\n      pop\n        /* \"#utility.yul\":22052:22145   */\n      tag_570\n        /* \"#utility.yul\":22141:22144   */\n      dup3\n        /* \"#utility.yul\":22052:22145   */\n      tag_319\n      jump\t// in\n    tag_570:\n        /* \"#utility.yul\":22170:22172   */\n      0x20\n        /* \"#utility.yul\":22165:22168   */\n      dup3\n        /* \"#utility.yul\":22161:22173   */\n      add\n        /* \"#utility.yul\":22154:22173   */\n      swap1\n      pop\n        /* \"#utility.yul\":21813:22179   */\n      swap2\n      swap1\n      pop\n      jump\t// out\n        /* \"#utility.yul\":22185:22604   */\n    tag_91:\n        /* \"#utility.yul\":22351:22355   */\n      0x00\n        /* \"#utility.yul\":22389:22391   */\n      0x20\n        /* \"#utility.yul\":22378:22387   */\n      dup3\n        /* \"#utility.yul\":22374:22392   */\n      add\n        /* \"#utility.yul\":22366:22392   */\n      swap1\n      pop\n        /* \"#utility.yul\":22438:22447   */\n      dup2\n        /* \"#utility.yul\":22432:22436   */\n      dup2\n        /* \"#utility.yul\":22428:22448   */\n      sub\n        /* \"#utility.yul\":22424:22425   */\n      0x00\n        /* \"#utility.yul\":22413:22422   */\n      dup4\n        /* \"#utility.yul\":22409:22426   */\n      add\n        /* \"#utility.yul\":22402:22449   */\n      mstore\n        /* \"#utility.yul\":22466:22597   */\n      tag_572\n        /* \"#utility.yul\":22592:22596   */\n      dup2\n        /* \"#utility.yul\":22466:22597   */\n      tag_320\n      jump\t// in\n    tag_572:\n        /* \"#utility.yul\":22458:22597   */\n      swap1\n      pop\n        /* \"#utility.yul\":22185:22604   */\n      swap2\n      swap1\n      pop\n      jump\t// out\n        /* \"#utility.yul\":22610:22773   */\n    tag_321:\n        /* \"#utility.yul\":22750:22765   */\n      0x616c726561647920766f74656400000000000000000000000000000000000000\n        /* \"#utility.yul\":22746:22747   */\n      0x00\n        /* \"#utility.yul\":22738:22744   */\n      dup3\n        /* \"#utility.yul\":22734:22748   */\n      add\n        /* \"#utility.yul\":22727:22766   */\n      mstore\n        /* \"#utility.yul\":22610:22773   */\n      pop\n      jump\t// out\n        /* \"#utility.yul\":22779:23145   */\n    tag_322:\n        /* \"#utility.yul\":22921:22924   */\n      0x00\n        /* \"#utility.yul\":22942:23009   */\n      tag_575\n        /* \"#utility.yul\":23006:23008   */\n      0x0d\n        /* \"#utility.yul\":23001:23004   */\n      dup4\n        /* \"#utility.yul\":22942:23009   */\n      tag_269\n      jump\t// in\n    tag_575:\n        /* \"#utility.yul\":22935:23009   */\n      swap2\n      pop\n        /* \"#utility.yul\":23018:23111   */\n      tag_576\n        /* \"#utility.yul\":23107:23110   */\n      dup3\n        /* \"#utility.yul\":23018:23111   */\n      tag_321\n      jump\t// in\n    tag_576:\n        /* \"#utility.yul\":23136:23138   */\n      0x20\n        /* \"#utility.yul\":23131:23134   */\n      dup3\n        /* \"#utility.yul\":23127:23139   */\n      add\n        /* \"#utility.yul\":23120:23139   */\n      swap1\n      pop\n        /* \"#utility.yul\":22779:23145   */\n      swap2\n      swap1\n      pop\n      jump\t// out\n        /* \"#utility.yul\":23151:23570   */\n    tag_95:\n        /* \"#utility.yul\":23317:23321   */\n      0x00\n        /* \"#utility.yul\":23355:23357   */\n      0x20\n        /* \"#utility.yul\":23344:23353   */\n      dup3\n        /* \"#utility.yul\":23340:23358   */\n      add\n        /* \"#utility.yul\":23332:23358   */\n      swap1\n      pop\n        /* \"#utility.yul\":23404:23413   */\n      dup2\n        /* \"#utility.yul\":23398:23402   */\n      dup2\n        /* \"#utility.yul\":23394:23414   */\n      sub\n        /* \"#utility.yul\":23390:23391   */\n      0x00\n        /* \"#utility.yul\":23379:23388   */\n      dup4\n        /* \"#utility.yul\":23375:23392   */\n      add\n        /* \"#utility.yul\":23368:23415   */\n      mstore\n        /* \"#utility.yul\":23432:23563   */\n      tag_578\n        /* \"#utility.yul\":23558:23562   */\n      dup2\n        /* \"#utility.yul\":23432:23563   */\n      tag_322\n      jump\t// in\n    tag_578:\n        /* \"#utility.yul\":23424:23563   */\n      swap1\n      pop\n        /* \"#utility.yul\":23151:23570   */\n      swap2\n      swap1\n      pop\n      jump\t// out\n        /* \"#utility.yul\":23576:23744   */\n    tag_323:\n        /* \"#utility.yul\":23716:23736   */\n      0x766f74696e67206e6f7420737461727465640000000000000000000000000000\n        /* \"#utility.yul\":23712:23713   */\n      0x00\n        /* \"#utility.yul\":23704:23710   */\n      dup3\n        /* \"#utility.yul\":23700:23714   */\n      add\n        /* \"#utility.yul\":23693:23737   */\n      mstore\n        /* \"#utility.yul\":23576:23744   */\n      pop\n      jump\t// out\n        /* \"#utility.yul\":23750:24116   */\n    tag_324:\n        /* \"#utility.yul\":23892:23895   */\n      0x00\n        /* \"#utility.yul\":23913:23980   */\n      tag_581\n        /* \"#utility.yul\":23977:23979   */\n      0x12\n        /* \"#utility.yul\":23972:23975   */\n      dup4\n        /* \"#utility.yul\":23913:23980   */\n      tag_269\n      jump\t// in\n    tag_581:\n        /* \"#utility.yul\":23906:23980   */\n      swap2\n      pop\n        /* \"#utility.yul\":23989:24082   */\n      tag_582\n        /* \"#utility.yul\":24078:24081   */\n      dup3\n        /* \"#utility.yul\":23989:24082   */\n      tag_323\n      jump\t// in\n    tag_582:\n        /* \"#utility.yul\":24107:24109   */\n      0x20\n        /* \"#utility.yul\":24102:24105   */\n      dup3\n        /* \"#utility.yul\":24098:24110   */\n      add\n        /* \"#utility.yul\":24091:24110   */\n      swap1\n      pop\n        /* \"#utility.yul\":23750:24116   */\n      swap2\n      swap1\n      pop\n      jump\t// out\n        /* \"#utility.yul\":24122:24541   */\n    tag_98:\n        /* \"#utility.yul\":24288:24292   */\n      0x00\n        /* \"#utility.yul\":24326:24328   */\n      0x20\n        /* \"#utility.yul\":24315:24324   */\n      dup3\n        /* \"#utility.yul\":24311:24329   */\n      add\n        /* \"#utility.yul\":24303:24329   */\n      swap1\n      pop\n        /* \"#utility.yul\":24375:24384   */\n      dup2\n        /* \"#utility.yul\":24369:24373   */\n      dup2\n        /* \"#utility.yul\":24365:24385   */\n      sub\n        /* \"#utility.yul\":24361:24362   */\n      0x00\n        /* \"#utility.yul\":24350:24359   */\n      dup4\n        /* \"#utility.yul\":24346:24363   */\n      add\n        /* \"#utility.yul\":24339:24386   */\n      mstore\n        /* \"#utility.yul\":24403:24534   */\n      tag_584\n        /* \"#utility.yul\":24529:24533   */\n      dup2\n        /* \"#utility.yul\":24403:24534   */\n      tag_324\n      jump\t// in\n    tag_584:\n        /* \"#utility.yul\":24395:24534   */\n      swap1\n      pop\n        /* \"#utility.yul\":24122:24541   */\n      swap2\n      swap1\n      pop\n      jump\t// out\n        /* \"#utility.yul\":24547:24727   */\n    tag_325:\n        /* \"#utility.yul\":24595:24672   */\n      0x4e487b7100000000000000000000000000000000000000000000000000000000\n        /* \"#utility.yul\":24592:24593   */\n      0x00\n        /* \"#utility.yul\":24585:24673   */\n      mstore\n        /* \"#utility.yul\":24692:24696   */\n      0x11\n        /* \"#utility.yul\":24689:24690   */\n      0x04\n        /* \"#utility.yul\":24682:24697   */\n      mstore\n        /* \"#utility.yul\":24716:24720   */\n      0x24\n        /* \"#utility.yul\":24713:24714   */\n      0x00\n        /* \"#utility.yul\":24706:24721   */\n      revert\n        /* \"#utility.yul\":24733:24966   */\n    tag_100:\n        /* \"#utility.yul\":24772:24775   */\n      0x00\n        /* \"#utility.yul\":24795:24819   */\n      tag_587\n        /* \"#utility.yul\":24813:24818   */\n      dup3\n        /* \"#utility.yul\":24795:24819   */\n      tag_266\n      jump\t// in\n    tag_587:\n        /* \"#utility.yul\":24786:24819   */\n      swap2\n      pop\n        /* \"#utility.yul\":24841:24907   */\n      0xffffffffffffffffffffffffffffffffffffffffffffffffffffffffffffffff\n        /* \"#utility.yul\":24834:24839   */\n      dup3\n        /* \"#utility.yul\":24831:24908   */\n      sub\n        /* \"#utility.yul\":24828:24931   */\n      tag_588\n      jumpi\n        /* \"#utility.yul\":24911:24929   */\n      tag_589\n      tag_325\n      jump\t// in\n    tag_589:\n        /* \"#utility.yul\":24828:24931   */\n    tag_588:\n        /* \"#utility.yul\":24958:24959   */\n      0x01\n        /* \"#utility.yul\":24951:24956   */\n      dup3\n        /* \"#utility.yul\":24947:24960   */\n      add\n        /* \"#utility.yul\":24940:24960   */\n      swap1\n      pop\n        /* \"#utility.yul\":24733:24966   */\n      swap2\n      swap1\n      pop\n      jump\t// out\n        /* \"#utility.yul\":24972:25152   */\n    tag_103:\n        /* \"#utility.yul\":25020:25097   */\n      0x4e487b7100000000000000000000000000000000000000000000000000000000\n        /* \"#utility.yul\":25017:25018   */\n      0x00\n        /* \"#utility.yul\":25010:25098   */\n      mstore\n        /* \"#utility.yul\":25117:25121   */\n      0x32\n        /* \"#utility.yul\":25114:25115   */\n      0x04\n        /* \"#utility.yul\":25107:25122   */\n      mstore\n        /* \"#utility.yul\":25141:25145   */\n      0x24\n        /* \"#utility.yul\":25138:25139   */\n      0x00\n        /* \"#utility.yul\":25131:25146   */\n      revert\n        /* \"#utility.yul\":25158:25307   */\n    tag_326:\n        /* \"#utility.yul\":25207:25213   */\n      0x00\n        /* \"#utility.yul\":25241:25246   */\n      dup2\n        /* \"#utility.yul\":25235:25247   */\n      sload\n        /* \"#utility.yul\":25225:25247   */\n      swap1\n      pop\n        /* \"#utility.yul\":25267:25300   */\n      tag_592\n        /* \"#utility.yul\":25293:25299   */\n      dup2\n        /* \"#utility.yul\":25267:25300   */\n      tag_61\n      jump\t// in\n    tag_592:\n        /* \"#utility.yul\":25257:25300   */\n      swap1\n      pop\n        /* \"#utility.yul\":25158:25307   */\n      swap2\n      swap1\n      pop\n      jump\t// out\n        /* \"#utility.yul\":25313:26764   */\n    tag_106:\n        /* \"#utility.yul\":25424:25427   */\n      dup2\n        /* \"#utility.yul\":25418:25422   */\n      dup2\n        /* \"#utility.yul\":25415:25428   */\n      sub\n        /* \"#utility.yul\":25412:25438   */\n      tag_594\n      jumpi\n        /* \"#utility.yul\":25431:25436   */\n      pop\n      pop\n      jump(tag_593)\n        /* \"#utility.yul\":25412:25438   */\n    tag_594:\n        /* \"#utility.yul\":25462:25496   */\n      tag_595\n        /* \"#utility.yul\":25492:25495   */\n      dup3\n        /* \"#utility.yul\":25462:25496   */\n      tag_326\n      jump\t// in\n    tag_595:\n        /* \"#utility.yul\":25561:25579   */\n      0xffffffffffffffff\n        /* \"#utility.yul\":25553:25559   */\n      dup2\n        /* \"#utility.yul\":25550:25580   */\n      gt\n        /* \"#utility.yul\":25547:25603   */\n      iszero\n      tag_596\n      jumpi\n        /* \"#utility.yul\":25583:25601   */\n      tag_597\n      tag_296\n      jump\t// in\n    tag_597:\n        /* \"#utility.yul\":25547:25603   */\n    tag_596:\n        /* \"#utility.yul\":25627:25665   */\n      tag_598\n        /* \"#utility.yul\":25659:25663   */\n      dup3\n        /* \"#utility.yul\":25653:25664   */\n      sload\n        /* \"#utility.yul\":25627:25665   */\n      tag_61\n      jump\t// in\n    tag_598:\n        /* \"#utility.yul\":25712:25779   */\n      tag_599\n        /* \"#utility.yul\":25772:25778   */\n      dup3\n        /* \"#utility.yul\":25764:25770   */\n      dup3\n        /* \"#utility.yul\":25758:25762   */\n      dup6\n        /* \"#utility.yul\":25712:25779   */\n      tag_315\n      jump\t// in\n    tag_599:\n        /* \"#utility.yul\":25806:25807   */\n      0x00\n        /* \"#utility.yul\":25835:25837   */\n      0x1f\n        /* \"#utility.yul\":25827:25833   */\n      dup4\n        /* \"#utility.yul\":25824:25838   */\n      gt\n        /* \"#utility.yul\":25852:25853   */\n      0x01\n        /* \"#utility.yul\":25847:26519   */\n      dup2\n      eq\n      tag_601\n      jumpi\n        /* \"#utility.yul\":26563:26564   */\n      0x00\n        /* \"#utility.yul\":26580:26586   */\n      dup5\n        /* \"#utility.yul\":26577:26654   */\n      iszero\n      tag_602\n      jumpi\n        /* \"#utility.yul\":26629:26638   */\n      dup3\n        /* \"#utility.yul\":26624:26627   */\n      dup8\n        /* \"#utility.yul\":26620:26639   */\n      add\n        /* \"#utility.yul\":26614:26640   */\n      sload\n        /* \"#utility.yul\":26605:26640   */\n      swap1\n      pop\n        /* \"#utility.yul\":26577:26654   */\n    tag_602:\n        /* \"#utility.yul\":26680:26747   */\n      tag_603\n        /* \"#utility.yul\":26740:26746   */\n      dup6\n        /* \"#utility.yul\":26733:26738   */\n      dup3\n        /* \"#utility.yul\":26680:26747   */\n      tag_318\n      jump\t// in\n    tag_603:\n        /* \"#utility.yul\":26674:26678   */\n      dup7\n        /* \"#utility.yul\":26667:26748   */\n      sstore\n        /* \"#utility.yul\":26536:26758   */\n      pop\n        /* \"#utility.yul\":25817:26758   */\n      jump(tag_600)\n        /* \"#utility.yul\":25847:26519   */\n    tag_601:\n        /* \"#utility.yul\":25899:25903   */\n      0x1f\n        /* \"#utility.yul\":25895:25904   */\n      not\n        /* \"#utility.yul\":25887:25893   */\n      dup5\n        /* \"#utility.yul\":25883:25905   */\n      and\n        /* \"#utility.yul\":25925:25961   */\n      tag_604\n        /* \"#utility.yul\":25957:25960   */\n      dup8\n        /* \"#utility.yul\":25925:25961   */\n      tag_304\n      jump\t// in\n    tag_604:\n        /* \"#utility.yul\":25918:25961   */\n      swap7\n      pop\n        /* \"#utility.yul\":25988:26025   */\n      tag_605\n        /* \"#utility.yul\":26020:26024   */\n      dup7\n        /* \"#utility.yul\":25988:26025   */\n      tag_304\n      jump\t// in\n    tag_605:\n        /* \"#utility.yul\":26047:26048   */\n      0x00\n        /* \"#utility.yul\":26061:26268   */\n    tag_606:\n        /* \"#utility.yul\":26075:26082   */\n      dup3\n        /* \"#utility.yul\":26072:26073   */\n      dup2\n        /* \"#utility.yul\":26069:26083   */\n      lt\n        /* \"#utility.yul\":26061:26268   */\n      iszero\n      tag_608\n      jumpi\n        /* \"#utility.yul\":26154:26163   */\n      dup5\n        /* \"#utility.yul\":26149:26152   */\n      dup10\n        /* \"#utility.yul\":26145:26164   */\n      add\n        /* \"#utility.yul\":26139:26165   */\n      sload\n        /* \"#utility.yul\":26131:26137   */\n      dup3\n        /* \"#utility.yul\":26124:26166   */\n      sstore\n        /* \"#utility.yul\":26205:26206   */\n      0x01\n        /* \"#utility.yul\":26197:26203   */\n      dup3\n        /* \"#utility.yul\":26193:26207   */\n      add\n        /* \"#utility.yul\":26183:26207   */\n      swap2\n      pop\n        /* \"#utility.yul\":26252:26253   */\n      0x01\n        /* \"#utility.yul\":26241:26250   */\n      dup6\n        /* \"#utility.yul\":26237:26254   */\n      add\n        /* \"#utility.yul\":26224:26254   */\n      swap5\n      pop\n        /* \"#utility.yul\":26098:26102   */\n      0x20\n        /* \"#utility.yul\":26095:26096   */\n      dup2\n        /* \"#utility.yul\":26091:26103   */\n      add\n        /* \"#utility.yul\":26086:26103   */\n      swap1\n      pop\n        /* \"#utility.yul\":26061:26268   */\n      jump(tag_606)\n    tag_608:\n        /* \"#utility.yul\":26296:26302   */\n      dup7\n        /* \"#utility.yul\":26287:26294   */\n      dup4\n        /* \"#utility.yul\":26284:26303   */\n      lt\n        /* \"#utility.yul\":26281:26460   */\n      iszero\n      tag_609\n      jumpi\n        /* \"#utility.yul\":26354:26363   */\n      dup5\n        /* \"#utility.yul\":26349:26352   */\n      dup10\n        /* \"#utility.yul\":26345:26364   */\n      add\n        /* \"#utility.yul\":26339:26365   */\n      sload\n        /* \"#utility.yul\":26397:26445   */\n      tag_610\n        /* \"#utility.yul\":26439:26443   */\n      0x1f\n        /* \"#utility.yul\":26431:26437   */\n      dup10\n        /* \"#utility.yul\":26427:26444   */\n      and\n        /* \"#utility.yul\":26416:26425   */\n      dup3\n        /* \"#utility.yul\":26397:26445   */\n      tag_317\n      jump\t// in\n    tag_610:\n        /* \"#utility.yul\":26389:26395   */\n      dup4\n        /* \"#utility.yul\":26382:26446   */\n      sstore\n        /* \"#utility.yul\":26304:26460   */\n      pop\n        /* \"#utility.yul\":26281:26460   */\n    tag_609:\n        /* \"#utility.yul\":26506:26507   */\n      0x01\n        /* \"#utility.yul\":26502:26503   */\n      0x02\n        /* \"#utility.yul\":26494:26500   */\n      dup9\n        /* \"#utility.yul\":26490:26504   */\n      mul\n        /* \"#utility.yul\":26486:26508   */\n      add\n        /* \"#utility.yul\":26480:26484   */\n      dup9\n        /* \"#utility.yul\":26473:26509   */\n      sstore\n        /* \"#utility.yul\":25854:26519   */\n      pop\n      pop\n      pop\n        /* \"#utility.yul\":25817:26758   */\n    tag_600:\n      pop\n        /* \"#utility.yul\":25402:26764   */\n      pop\n      pop\n      pop\n        /* \"#utility.yul\":25313:26764   */\n      pop\n      pop\n    tag_593:\n      jump\t// out\n        /* \"#utility.yul\":26770:26923   */\n    tag_327:\n        /* \"#utility.yul\":26823:26829   */\n      0x00\n        /* \"#utility.yul\":26857:26862   */\n      dup2\n        /* \"#utility.yul\":26851:26863   */\n      sload\n        /* \"#utility.yul\":26841:26863   */\n      swap1\n      pop\n        /* \"#utility.yul\":26883:26916   */\n      tag_612\n        /* \"#utility.yul\":26909:26915   */\n      dup2\n        /* \"#utility.yul\":26883:26916   */\n      tag_61\n      jump\t// in\n    tag_612:\n        /* \"#utility.yul\":26873:26916   */\n      swap1\n      pop\n        /* \"#utility.yul\":26770:26923   */\n      swap2\n      swap1\n      pop\n      jump\t// out\n        /* \"#utility.yul\":26929:27074   */\n    tag_328:\n        /* \"#utility.yul\":26982:26986   */\n      0x00\n        /* \"#utility.yul\":27005:27008   */\n      dup2\n        /* \"#utility.yul\":26997:27008   */\n      swap1\n      pop\n        /* \"#utility.yul\":27028:27031   */\n      dup2\n        /* \"#utility.yul\":27025:27026   */\n      0x00\n        /* \"#utility.yul\":27018:27032   */\n      mstore\n        /* \"#utility.yul\":27062:27066   */\n      0x20\n        /* \"#utility.yul\":27059:27060   */\n      0x00\n        /* \"#utility.yul\":27049:27067   */\n      keccak256\n        /* \"#utility.yul\":27041:27067   */\n      swap1\n      pop\n        /* \"#utility.yul\":26929:27074   */\n      swap2\n      swap1\n      pop\n      jump\t// out\n        /* \"#utility.yul\":27080:28543   */\n    tag_120:\n        /* \"#utility.yul\":27195:27198   */\n      dup2\n        /* \"#utility.yul\":27189:27193   */\n      dup2\n        /* \"#utility.yul\":27186:27199   */\n      sub\n        /* \"#utility.yul\":27183:27209   */\n      tag_615\n      jumpi\n        /* \"#utility.yul\":27202:27207   */\n      pop\n      pop\n      jump(tag_614)\n        /* \"#utility.yul\":27183:27209   */\n    tag_615:\n        /* \"#utility.yul\":27233:27271   */\n      tag_616\n        /* \"#utility.yul\":27267:27270   */\n      dup3\n        /* \"#utility.yul\":27233:27271   */\n      tag_327\n      jump\t// in\n    tag_616:\n        /* \"#utility.yul\":27336:27354   */\n      0xffffffffffffffff\n        /* \"#utility.yul\":27328:27334   */\n      dup2\n        /* \"#utility.yul\":27325:27355   */\n      gt\n        /* \"#utility.yul\":27322:27378   */\n      iszero\n      tag_617\n      jumpi\n        /* \"#utility.yul\":27358:27376   */\n      tag_618\n      tag_296\n      jump\t// in\n    tag_618:\n        /* \"#utility.yul\":27322:27378   */\n    tag_617:\n        /* \"#utility.yul\":27402:27440   */\n      tag_619\n        /* \"#utility.yul\":27434:27438   */\n      dup3\n        /* \"#utility.yul\":27428:27439   */\n      sload\n        /* \"#utility.yul\":27402:27440   */\n      tag_61\n      jump\t// in\n    tag_619:\n        /* \"#utility.yul\":27487:27554   */\n      tag_620\n        /* \"#utility.yul\":27547:27553   */\n      dup3\n        /* \"#utility.yul\":27539:27545   */\n      dup3\n        /* \"#utility.yul\":27533:27537   */\n      dup6\n        /* \"#utility.yul\":27487:27554   */\n      tag_315\n      jump\t// in\n    tag_620:\n        /* \"#utility.yul\":27581:27582   */\n      0x00\n        /* \"#utility.yul\":27610:27612   */\n      0x1f\n        /* \"#utility.yul\":27602:27608   */\n      dup4\n        /* \"#utility.yul\":27599:27613   */\n      gt\n        /* \"#utility.yul\":27627:27628   */\n      0x01\n        /* \"#utility.yul\":27622:28298   */\n      dup2\n      eq\n      tag_622\n      jumpi\n        /* \"#utility.yul\":28342:28343   */\n      0x00\n        /* \"#utility.yul\":28359:28365   */\n      dup5\n        /* \"#utility.yul\":28356:28433   */\n      iszero\n      tag_623\n      jumpi\n        /* \"#utility.yul\":28408:28417   */\n      dup3\n        /* \"#utility.yul\":28403:28406   */\n      dup8\n        /* \"#utility.yul\":28399:28418   */\n      add\n        /* \"#utility.yul\":28393:28419   */\n      sload\n        /* \"#utility.yul\":28384:28419   */\n      swap1\n      pop\n        /* \"#utility.yul\":28356:28433   */\n    tag_623:\n        /* \"#utility.yul\":28459:28526   */\n      tag_624\n        /* \"#utility.yul\":28519:28525   */\n      dup6\n        /* \"#utility.yul\":28512:28517   */\n      dup3\n        /* \"#utility.yul\":28459:28526   */\n      tag_318\n      jump\t// in\n    tag_624:\n        /* \"#utility.yul\":28453:28457   */\n      dup7\n        /* \"#utility.yul\":28446:28527   */\n      sstore\n        /* \"#utility.yul\":28315:28537   */\n      pop\n        /* \"#utility.yul\":27592:28537   */\n      jump(tag_621)\n        /* \"#utility.yul\":27622:28298   */\n    tag_622:\n        /* \"#utility.yul\":27674:27678   */\n      0x1f\n        /* \"#utility.yul\":27670:27679   */\n      not\n        /* \"#utility.yul\":27662:27668   */\n      dup5\n        /* \"#utility.yul\":27658:27680   */\n      and\n        /* \"#utility.yul\":27700:27740   */\n      tag_625\n        /* \"#utility.yul\":27736:27739   */\n      dup8\n        /* \"#utility.yul\":27700:27740   */\n      tag_328\n      jump\t// in\n    tag_625:\n        /* \"#utility.yul\":27693:27740   */\n      swap7\n      pop\n        /* \"#utility.yul\":27767:27804   */\n      tag_626\n        /* \"#utility.yul\":27799:27803   */\n      dup7\n        /* \"#utility.yul\":27767:27804   */\n      tag_304\n      jump\t// in\n    tag_626:\n        /* \"#utility.yul\":27826:27827   */\n      0x00\n        /* \"#utility.yul\":27840:28047   */\n    tag_627:\n        /* \"#utility.yul\":27854:27861   */\n      dup3\n        /* \"#utility.yul\":27851:27852   */\n      dup2\n        /* \"#utility.yul\":27848:27862   */\n      lt\n        /* \"#utility.yul\":27840:28047   */\n      iszero\n      tag_629\n      jumpi\n        /* \"#utility.yul\":27933:27942   */\n      dup5\n        /* \"#utility.yul\":27928:27931   */\n      dup10\n        /* \"#utility.yul\":27924:27943   */\n      add\n        /* \"#utility.yul\":27918:27944   */\n      sload\n        /* \"#utility.yul\":27910:27916   */\n      dup3\n        /* \"#utility.yul\":27903:27945   */\n      sstore\n        /* \"#utility.yul\":27984:27985   */\n      0x01\n        /* \"#utility.yul\":27976:27982   */\n      dup3\n        /* \"#utility.yul\":27972:27986   */\n      add\n        /* \"#utility.yul\":27962:27986   */\n      swap2\n      pop\n        /* \"#utility.yul\":28031:28032   */\n      0x01\n        /* \"#utility.yul\":28020:28029   */\n      dup6\n        /* \"#utility.yul\":28016:28033   */\n      add\n        /* \"#utility.yul\":28003:28033   */\n      swap5\n      pop\n        /* \"#utility.yul\":27877:27881   */\n      0x20\n        /* \"#utility.yul\":27874:27875   */\n      dup2\n        /* \"#utility.yul\":27870:27882   */\n      add\n        /* \"#utility.yul\":27865:27882   */\n      swap1\n      pop\n        /* \"#utility.yul\":27840:28047   */\n      jump(tag_627)\n    tag_629:\n        /* \"#utility.yul\":28075:28081   */\n      dup7\n        /* \"#utility.yul\":28066:28073   */\n      dup4\n        /* \"#utility.yul\":28063:28082   */\n      lt\n        /* \"#utility.yul\":28060:28239   */\n      iszero\n      tag_630\n      jumpi\n        /* \"#utility.yul\":28133:28142   */\n      dup5\n        /* \"#utility.yul\":28128:28131   */\n      dup10\n        /* \"#utility.yul\":28124:28143   */\n      add\n        /* \"#utility.yul\":28118:28144   */\n      sload\n        /* \"#utility.yul\":28176:28224   */\n      tag_631\n        /* \"#utility.yul\":28218:28222   */\n      0x1f\n        /* \"#utility.yul\":28210:28216   */\n      dup10\n        /* \"#utility.yul\":28206:28223   */\n      and\n        /* \"#utility.yul\":28195:28204   */\n      dup3\n        /* \"#utility.yul\":28176:28224   */\n      tag_317\n      jump\t// in\n    tag_631:\n        /* \"#utility.yul\":28168:28174   */\n      dup4\n        /* \"#utility.yul\":28161:28225   */\n      sstore\n        /* \"#utility.yul\":28083:28239   */\n      pop\n        /* \"#utility.yul\":28060:28239   */\n    tag_630:\n        /* \"#utility.yul\":28285:28286   */\n      0x01\n        /* \"#utility.yul\":28281:28282   */\n      0x02\n        /* \"#utility.yul\":28273:28279   */\n      dup9\n        /* \"#utility.yul\":28269:28283   */\n      mul\n        /* \"#utility.yul\":28265:28287   */\n      add\n        /* \"#utility.yul\":28259:28263   */\n      dup9\n        /* \"#utility.yul\":28252:28288   */\n      sstore\n        /* \"#utility.yul\":27629:28298   */\n      pop\n      pop\n      pop\n        /* \"#utility.yul\":27592:28537   */\n    tag_621:\n      pop\n        /* \"#utility.yul\":27173:28543   */\n      pop\n      pop\n      pop\n        /* \"#utility.yul\":27080:28543   */\n      pop\n      pop\n    tag_614:\n      jump\t// out\n        /* \"#utility.yul\":28549:28720   */\n    tag_123:\n        /* \"#utility.yul\":28588:28591   */\n      0x00\n        /* \"#utility.yul\":28611:28635   */\n      tag_633\n        /* \"#utility.yul\":28629:28634   */\n      dup3\n        /* \"#utility.yul\":28611:28635   */\n      tag_266\n      jump\t// in\n    tag_633:\n        /* \"#utility.yul\":28602:28635   */\n      swap2\n      pop\n        /* \"#utility.yul\":28657:28661   */\n      0x00\n        /* \"#utility.yul\":28650:28655   */\n      dup3\n        /* \"#utility.yul\":28647:28662   */\n      sub\n        /* \"#utility.yul\":28644:28685   */\n      tag_634\n      jumpi\n        /* \"#utility.yul\":28665:28683   */\n      tag_635\n      tag_325\n      jump\t// in\n    tag_635:\n        /* \"#utility.yul\":28644:28685   */\n    tag_634:\n        /* \"#utility.yul\":28712:28713   */\n      0x01\n        /* \"#utility.yul\":28705:28710   */\n      dup3\n        /* \"#utility.yul\":28701:28714   */\n      sub\n        /* \"#utility.yul\":28694:28714   */\n      swap1\n      pop\n        /* \"#utility.yul\":28549:28720   */\n      swap2\n      swap1\n      pop\n      jump\t// out\n        /* \"#utility.yul\":28726:28905   */\n    tag_329:\n        /* \"#utility.yul\":28866:28897   */\n      0x6f6e6c792061646d696e2063616e20726567697374657220766f746572000000\n        /* \"#utility.yul\":28862:28863   */\n      0x00\n        /* \"#utility.yul\":28854:28860   */\n      dup3\n        /* \"#utility.yul\":28850:28864   */\n      add\n        /* \"#utility.yul\":28843:28898   */\n      mstore\n        /* \"#utility.yul\":28726:28905   */\n      pop\n      jump\t// out\n        /* \"#utility.yul\":28911:29277   */\n    tag_330:\n        /* \"#utility.yul\":29053:29056   */\n      0x00\n        /* \"#utility.yul\":29074:29141   */\n      tag_638\n        /* \"#utility.yul\":29138:29140   */\n      0x1d\n        /* \"#utility.yul\":29133:29136   */\n      dup4\n        /* \"#utility.yul\":29074:29141   */\n      tag_269\n      jump\t// in\n    tag_638:\n        /* \"#utility.yul\":29067:29141   */\n      swap2\n      pop\n        /* \"#utility.yul\":29150:29243   */\n      tag_639\n        /* \"#utility.yul\":29239:29242   */\n      dup3\n        /* \"#utility.yul\":29150:29243   */\n      tag_329\n      jump\t// in\n    tag_639:\n        /* \"#utility.yul\":29268:29270   */\n      0x20\n        /* \"#utility.yul\":29263:29266   */\n      dup3\n        /* \"#utility.yul\":29259:29271   */\n      add\n        /* \"#utility.yul\":29252:29271   */\n      swap1\n      pop\n        /* \"#utility.yul\":28911:29277   */\n      swap2\n      swap1\n      pop\n      jump\t// out\n        /* \"#utility.yul\":29283:29702   */\n    tag_136:\n        /* \"#utility.yul\":29449:29453   */\n      0x00\n        /* \"#utility.yul\":29487:29489   */\n      0x20\n        /* \"#utility.yul\":29476:29485   */\n      dup3\n        /* \"#utility.yul\":29472:29490   */\n      add\n        /* \"#utility.yul\":29464:29490   */\n      swap1\n      pop\n        /* \"#utility.yul\":29536:29545   */\n      dup2\n        /* \"#utility.yul\":29530:29534   */\n      dup2\n        /* \"#utility.yul\":29526:29546   */\n      sub\n        /* \"#utility.yul\":29522:29523   */\n      0x00\n        /* \"#utility.yul\":29511:29520   */\n      dup4\n        /* \"#utility.yul\":29507:29524   */\n      add\n        /* \"#utility.yul\":29500:29547   */\n      mstore\n        /* \"#utility.yul\":29564:29695   */\n      tag_641\n        /* \"#utility.yul\":29690:29694   */\n      dup2\n        /* \"#utility.yul\":29564:29695   */\n      tag_330\n      jump\t// in\n    tag_641:\n        /* \"#utility.yul\":29556:29695   */\n      swap1\n      pop\n        /* \"#utility.yul\":29283:29702   */\n      swap2\n      swap1\n      pop\n      jump\t// out\n        /* \"#utility.yul\":29708:29888   */\n    tag_331:\n        /* \"#utility.yul\":29848:29880   */\n      0x61646d696e2063616e6e6f7420726567697374657220666f7220766f74650000\n        /* \"#utility.yul\":29844:29845   */\n      0x00\n        /* \"#utility.yul\":29836:29842   */\n      dup3\n        /* \"#utility.yul\":29832:29846   */\n      add\n        /* \"#utility.yul\":29825:29881   */\n      mstore\n        /* \"#utility.yul\":29708:29888   */\n      pop\n      jump\t// out\n        /* \"#utility.yul\":29894:30260   */\n    tag_332:\n        /* \"#utility.yul\":30036:30039   */\n      0x00\n        /* \"#utility.yul\":30057:30124   */\n      tag_644\n        /* \"#utility.yul\":30121:30123   */\n      0x1e\n        /* \"#utility.yul\":30116:30119   */\n      dup4\n        /* \"#utility.yul\":30057:30124   */\n      tag_269\n      jump\t// in\n    tag_644:\n        /* \"#utility.yul\":30050:30124   */\n      swap2\n      pop\n        /* \"#utility.yul\":30133:30226   */\n      tag_645\n        /* \"#utility.yul\":30222:30225   */\n      dup3\n        /* \"#utility.yul\":30133:30226   */\n      tag_331\n      jump\t// in\n    tag_645:\n        /* \"#utility.yul\":30251:30253   */\n      0x20\n        /* \"#utility.yul\":30246:30249   */\n      dup3\n        /* \"#utility.yul\":30242:30254   */\n      add\n        /* \"#utility.yul\":30235:30254   */\n      swap1\n      pop\n        /* \"#utility.yul\":29894:30260   */\n      swap2\n      swap1\n      pop\n      jump\t// out\n        /* \"#utility.yul\":30266:30685   */\n    tag_139:\n        /* \"#utility.yul\":30432:30436   */\n      0x00\n        /* \"#utility.yul\":30470:30472   */\n      0x20\n        /* \"#utility.yul\":30459:30468   */\n      dup3\n        /* \"#utility.yul\":30455:30473   */\n      add\n        /* \"#utility.yul\":30447:30473   */\n      swap1\n      pop\n        /* \"#utility.yul\":30519:30528   */\n      dup2\n        /* \"#utility.yul\":30513:30517   */\n      dup2\n        /* \"#utility.yul\":30509:30529   */\n      sub\n        /* \"#utility.yul\":30505:30506   */\n      0x00\n        /* \"#utility.yul\":30494:30503   */\n      dup4\n        /* \"#utility.yul\":30490:30507   */\n      add\n        /* \"#utility.yul\":30483:30530   */\n      mstore\n        /* \"#utility.yul\":30547:30678   */\n      tag_647\n        /* \"#utility.yul\":30673:30677   */\n      dup2\n        /* \"#utility.yul\":30547:30678   */\n      tag_332\n      jump\t// in\n    tag_647:\n        /* \"#utility.yul\":30539:30678   */\n      swap1\n      pop\n        /* \"#utility.yul\":30266:30685   */\n      swap2\n      swap1\n      pop\n      jump\t// out\n        /* \"#utility.yul\":30691:30865   */\n    tag_333:\n        /* \"#utility.yul\":30831:30857   */\n      0x766f74657220616c726561647920726567697374657265640000000000000000\n        /* \"#utility.yul\":30827:30828   */\n      0x00\n        /* \"#utility.yul\":30819:30825   */\n      dup3\n        /* \"#utility.yul\":30815:30829   */\n      add\n        /* \"#utility.yul\":30808:30858   */\n      mstore\n        /* \"#utility.yul\":30691:30865   */\n      pop\n      jump\t// out\n        /* \"#utility.yul\":30871:31237   */\n    tag_334:\n        /* \"#utility.yul\":31013:31016   */\n      0x00\n        /* \"#utility.yul\":31034:31101   */\n      tag_650\n        /* \"#utility.yul\":31098:31100   */\n      0x18\n        /* \"#utility.yul\":31093:31096   */\n      dup4\n        /* \"#utility.yul\":31034:31101   */\n      tag_269\n      jump\t// in\n    tag_650:\n        /* \"#utility.yul\":31027:31101   */\n      swap2\n      pop\n        /* \"#utility.yul\":31110:31203   */\n      tag_651\n        /* \"#utility.yul\":31199:31202   */\n      dup3\n        /* \"#utility.yul\":31110:31203   */\n      tag_333\n      jump\t// in\n    tag_651:\n        /* \"#utility.yul\":31228:31230   */\n      0x20\n        /* \"#utility.yul\":31223:31226   */\n      dup3\n        /* \"#utility.yul\":31219:31231   */\n      add\n        /* \"#utility.yul\":31212:31231   */\n      swap1\n      pop\n        /* \"#utility.yul\":30871:31237   */\n      swap2\n      swap1\n      pop\n      jump\t// out\n        /* \"#utility.yul\":31243:31662   */\n    tag_142:\n        /* \"#utility.yul\":31409:31413   */\n      0x00\n        /* \"#utility.yul\":31447:31449   */\n      0x20\n        /* \"#utility.yul\":31436:31445   */\n      dup3\n        /* \"#utility.yul\":31432:31450   */\n      add\n        /* \"#utility.yul\":31424:31450   */\n      swap1\n      pop\n        /* \"#utility.yul\":31496:31505   */\n      dup2\n        /* \"#utility.yul\":31490:31494   */\n      dup2\n        /* \"#utility.yul\":31486:31506   */\n      sub\n        /* \"#utility.yul\":31482:31483   */\n      0x00\n        /* \"#utility.yul\":31471:31480   */\n      dup4\n        /* \"#utility.yul\":31467:31484   */\n      add\n        /* \"#utility.yul\":31460:31507   */\n      mstore\n        /* \"#utility.yul\":31524:31655   */\n      tag_653\n        /* \"#utility.yul\":31650:31654   */\n      dup2\n        /* \"#utility.yul\":31524:31655   */\n      tag_334\n      jump\t// in\n    tag_653:\n        /* \"#utility.yul\":31516:31655   */\n      swap1\n      pop\n        /* \"#utility.yul\":31243:31662   */\n      swap2\n      swap1\n      pop\n      jump\t// out\n        /* \"#utility.yul\":31668:31894   */\n    tag_335:\n        /* \"#utility.yul\":31808:31842   */\n      0x766f74696e67206d757374206265206f6e676f696e6720746f2064656c656761\n        /* \"#utility.yul\":31804:31805   */\n      0x00\n        /* \"#utility.yul\":31796:31802   */\n      dup3\n        /* \"#utility.yul\":31792:31806   */\n      add\n        /* \"#utility.yul\":31785:31843   */\n      mstore\n        /* \"#utility.yul\":31877:31886   */\n      0x746520766f746500000000000000000000000000000000000000000000000000\n        /* \"#utility.yul\":31872:31874   */\n      0x20\n        /* \"#utility.yul\":31864:31870   */\n      dup3\n        /* \"#utility.yul\":31860:31875   */\n      add\n        /* \"#utility.yul\":31853:31887   */\n      mstore\n        /* \"#utility.yul\":31668:31894   */\n      pop\n      jump\t// out\n        /* \"#utility.yul\":31900:32266   */\n    tag_336:\n        /* \"#utility.yul\":32042:32045   */\n      0x00\n        /* \"#utility.yul\":32063:32130   */\n      tag_656\n        /* \"#utility.yul\":32127:32129   */\n      0x27\n        /* \"#utility.yul\":32122:32125   */\n      dup4\n        /* \"#utility.yul\":32063:32130   */\n      tag_269\n      jump\t// in\n    tag_656:\n        /* \"#utility.yul\":32056:32130   */\n      swap2\n      pop\n        /* \"#utility.yul\":32139:32232   */\n      tag_657\n        /* \"#utility.yul\":32228:32231   */\n      dup3\n        /* \"#utility.yul\":32139:32232   */\n      tag_335\n      jump\t// in\n    tag_657:\n        /* \"#utility.yul\":32257:32259   */\n      0x40\n        /* \"#utility.yul\":32252:32255   */\n      dup3\n        /* \"#utility.yul\":32248:32260   */\n      add\n        /* \"#utility.yul\":32241:32260   */\n      swap1\n      pop\n        /* \"#utility.yul\":31900:32266   */\n      swap2\n      swap1\n      pop\n      jump\t// out\n        /* \"#utility.yul\":32272:32691   */\n    tag_165:\n        /* \"#utility.yul\":32438:32442   */\n      0x00\n        /* \"#utility.yul\":32476:32478   */\n      0x20\n        /* \"#utility.yul\":32465:32474   */\n      dup3\n        /* \"#utility.yul\":32461:32479   */\n      add\n        /* \"#utility.yul\":32453:32479   */\n      swap1\n      pop\n        /* \"#utility.yul\":32525:32534   */\n      dup2\n        /* \"#utility.yul\":32519:32523   */\n      dup2\n        /* \"#utility.yul\":32515:32535   */\n      sub\n        /* \"#utility.yul\":32511:32512   */\n      0x00\n        /* \"#utility.yul\":32500:32509   */\n      dup4\n        /* \"#utility.yul\":32496:32513   */\n      add\n        /* \"#utility.yul\":32489:32536   */\n      mstore\n        /* \"#utility.yul\":32553:32684   */\n      tag_659\n        /* \"#utility.yul\":32679:32683   */\n      dup2\n        /* \"#utility.yul\":32553:32684   */\n      tag_336\n      jump\t// in\n    tag_659:\n        /* \"#utility.yul\":32545:32684   */\n      swap1\n      pop\n        /* \"#utility.yul\":32272:32691   */\n      swap2\n      swap1\n      pop\n      jump\t// out\n        /* \"#utility.yul\":32697:32935   */\n    tag_337:\n        /* \"#utility.yul\":32837:32871   */\n      0x6f6e6c792074686f73652063616e2064656c656761746520766f74652077686f\n        /* \"#utility.yul\":32833:32834   */\n      0x00\n        /* \"#utility.yul\":32825:32831   */\n      dup3\n        /* \"#utility.yul\":32821:32835   */\n      add\n        /* \"#utility.yul\":32814:32872   */\n      mstore\n        /* \"#utility.yul\":32906:32927   */\n      0x2068617665206e6f7420766f7465642079657400000000000000000000000000\n        /* \"#utility.yul\":32901:32903   */\n      0x20\n        /* \"#utility.yul\":32893:32899   */\n      dup3\n        /* \"#utility.yul\":32889:32904   */\n      add\n        /* \"#utility.yul\":32882:32928   */\n      mstore\n        /* \"#utility.yul\":32697:32935   */\n      pop\n      jump\t// out\n        /* \"#utility.yul\":32941:33307   */\n    tag_338:\n        /* \"#utility.yul\":33083:33086   */\n      0x00\n        /* \"#utility.yul\":33104:33171   */\n      tag_662\n        /* \"#utility.yul\":33168:33170   */\n      0x33\n        /* \"#utility.yul\":33163:33166   */\n      dup4\n        /* \"#utility.yul\":33104:33171   */\n      tag_269\n      jump\t// in\n    tag_662:\n        /* \"#utility.yul\":33097:33171   */\n      swap2\n      pop\n        /* \"#utility.yul\":33180:33273   */\n      tag_663\n        /* \"#utility.yul\":33269:33272   */\n      dup3\n        /* \"#utility.yul\":33180:33273   */\n      tag_337\n      jump\t// in\n    tag_663:\n        /* \"#utility.yul\":33298:33300   */\n      0x40\n        /* \"#utility.yul\":33293:33296   */\n      dup3\n        /* \"#utility.yul\":33289:33301   */\n      add\n        /* \"#utility.yul\":33282:33301   */\n      swap1\n      pop\n        /* \"#utility.yul\":32941:33307   */\n      swap2\n      swap1\n      pop\n      jump\t// out\n        /* \"#utility.yul\":33313:33732   */\n    tag_173:\n        /* \"#utility.yul\":33479:33483   */\n      0x00\n        /* \"#utility.yul\":33517:33519   */\n      0x20\n        /* \"#utility.yul\":33506:33515   */\n      dup3\n        /* \"#utility.yul\":33502:33520   */\n      add\n        /* \"#utility.yul\":33494:33520   */\n      swap1\n      pop\n        /* \"#utility.yul\":33566:33575   */\n      dup2\n        /* \"#utility.yul\":33560:33564   */\n      dup2\n        /* \"#utility.yul\":33556:33576   */\n      sub\n        /* \"#utility.yul\":33552:33553   */\n      0x00\n        /* \"#utility.yul\":33541:33550   */\n      dup4\n        /* \"#utility.yul\":33537:33554   */\n      add\n        /* \"#utility.yul\":33530:33577   */\n      mstore\n        /* \"#utility.yul\":33594:33725   */\n      tag_665\n        /* \"#utility.yul\":33720:33724   */\n      dup2\n        /* \"#utility.yul\":33594:33725   */\n      tag_338\n      jump\t// in\n    tag_665:\n        /* \"#utility.yul\":33586:33725   */\n      swap1\n      pop\n        /* \"#utility.yul\":33313:33732   */\n      swap2\n      swap1\n      pop\n      jump\t// out\n        /* \"#utility.yul\":33738:33914   */\n    tag_339:\n        /* \"#utility.yul\":33878:33906   */\n      0x61646d696e2063616e6e6f742064656c656761746520766f7465000000000000\n        /* \"#utility.yul\":33874:33875   */\n      0x00\n        /* \"#utility.yul\":33866:33872   */\n      dup3\n        /* \"#utility.yul\":33862:33876   */\n      add\n        /* \"#utility.yul\":33855:33907   */\n      mstore\n        /* \"#utility.yul\":33738:33914   */\n      pop\n      jump\t// out\n        /* \"#utility.yul\":33920:34286   */\n    tag_340:\n        /* \"#utility.yul\":34062:34065   */\n      0x00\n        /* \"#utility.yul\":34083:34150   */\n      tag_668\n        /* \"#utility.yul\":34147:34149   */\n      0x1a\n        /* \"#utility.yul\":34142:34145   */\n      dup4\n        /* \"#utility.yul\":34083:34150   */\n      tag_269\n      jump\t// in\n    tag_668:\n        /* \"#utility.yul\":34076:34150   */\n      swap2\n      pop\n        /* \"#utility.yul\":34159:34252   */\n      tag_669\n        /* \"#utility.yul\":34248:34251   */\n      dup3\n        /* \"#utility.yul\":34159:34252   */\n      tag_339\n      jump\t// in\n    tag_669:\n        /* \"#utility.yul\":34277:34279   */\n      0x20\n        /* \"#utility.yul\":34272:34275   */\n      dup3\n        /* \"#utility.yul\":34268:34280   */\n      add\n        /* \"#utility.yul\":34261:34280   */\n      swap1\n      pop\n        /* \"#utility.yul\":33920:34286   */\n      swap2\n      swap1\n      pop\n      jump\t// out\n        /* \"#utility.yul\":34292:34711   */\n    tag_176:\n        /* \"#utility.yul\":34458:34462   */\n      0x00\n        /* \"#utility.yul\":34496:34498   */\n      0x20\n        /* \"#utility.yul\":34485:34494   */\n      dup3\n        /* \"#utility.yul\":34481:34499   */\n      add\n        /* \"#utility.yul\":34473:34499   */\n      swap1\n      pop\n        /* \"#utility.yul\":34545:34554   */\n      dup2\n        /* \"#utility.yul\":34539:34543   */\n      dup2\n        /* \"#utility.yul\":34535:34555   */\n      sub\n        /* \"#utility.yul\":34531:34532   */\n      0x00\n        /* \"#utility.yul\":34520:34529   */\n      dup4\n        /* \"#utility.yul\":34516:34533   */\n      add\n        /* \"#utility.yul\":34509:34556   */\n      mstore\n        /* \"#utility.yul\":34573:34704   */\n      tag_671\n        /* \"#utility.yul\":34699:34703   */\n      dup2\n        /* \"#utility.yul\":34573:34704   */\n      tag_340\n      jump\t// in\n    tag_671:\n        /* \"#utility.yul\":34565:34704   */\n      swap1\n      pop\n        /* \"#utility.yul\":34292:34711   */\n      swap2\n      swap1\n      pop\n      jump\t// out\n        /* \"#utility.yul\":34717:34895   */\n    tag_341:\n        /* \"#utility.yul\":34857:34887   */\n      0x43616e6e6f742064656c656761746520766f746520746f2073656c6600000000\n        /* \"#utility.yul\":34853:34854   */\n      0x00\n        /* \"#utility.yul\":34845:34851   */\n      dup3\n        /* \"#utility.yul\":34841:34855   */\n      add\n        /* \"#utility.yul\":34834:34888   */\n      mstore\n        /* \"#utility.yul\":34717:34895   */\n      pop\n      jump\t// out\n        /* \"#utility.yul\":34901:35267   */\n    tag_342:\n        /* \"#utility.yul\":35043:35046   */\n      0x00\n        /* \"#utility.yul\":35064:35131   */\n      tag_674\n        /* \"#utility.yul\":35128:35130   */\n      0x1c\n        /* \"#utility.yul\":35123:35126   */\n      dup4\n        /* \"#utility.yul\":35064:35131   */\n      tag_269\n      jump\t// in\n    tag_674:\n        /* \"#utility.yul\":35057:35131   */\n      swap2\n      pop\n        /* \"#utility.yul\":35140:35233   */\n      tag_675\n        /* \"#utility.yul\":35229:35232   */\n      dup3\n        /* \"#utility.yul\":35140:35233   */\n      tag_341\n      jump\t// in\n    tag_675:\n        /* \"#utility.yul\":35258:35260   */\n      0x20\n        /* \"#utility.yul\":35253:35256   */\n      dup3\n        /* \"#utility.yul\":35249:35261   */\n      add\n        /* \"#utility.yul\":35242:35261   */\n      swap1\n      pop\n        /* \"#utility.yul\":34901:35267   */\n      swap2\n      swap1\n      pop\n      jump\t// out\n        /* \"#utility.yul\":35273:35692   */\n    tag_179:\n        /* \"#utility.yul\":35439:35443   */\n      0x00\n        /* \"#utility.yul\":35477:35479   */\n      0x20\n        /* \"#utility.yul\":35466:35475   */\n      dup3\n        /* \"#utility.yul\":35462:35480   */\n      add\n        /* \"#utility.yul\":35454:35480   */\n      swap1\n      pop\n        /* \"#utility.yul\":35526:35535   */\n      dup2\n        /* \"#utility.yul\":35520:35524   */\n      dup2\n        /* \"#utility.yul\":35516:35536   */\n      sub\n        /* \"#utility.yul\":35512:35513   */\n      0x00\n        /* \"#utility.yul\":35501:35510   */\n      dup4\n        /* \"#utility.yul\":35497:35514   */\n      add\n        /* \"#utility.yul\":35490:35537   */\n      mstore\n        /* \"#utility.yul\":35554:35685   */\n      tag_677\n        /* \"#utility.yul\":35680:35684   */\n      dup2\n        /* \"#utility.yul\":35554:35685   */\n      tag_342\n      jump\t// in\n    tag_677:\n        /* \"#utility.yul\":35546:35685   */\n      swap1\n      pop\n        /* \"#utility.yul\":35273:35692   */\n      swap2\n      swap1\n      pop\n      jump\t// out\n        /* \"#utility.yul\":35698:35927   */\n    tag_343:\n        /* \"#utility.yul\":35838:35872   */\n      0x43616e6469646174652063616e6e6f742061636365707420616e64207472616e\n        /* \"#utility.yul\":35834:35835   */\n      0x00\n        /* \"#utility.yul\":35826:35832   */\n      dup3\n        /* \"#utility.yul\":35822:35836   */\n      add\n        /* \"#utility.yul\":35815:35873   */\n      mstore\n        /* \"#utility.yul\":35907:35919   */\n      0x7366657220766f74657300000000000000000000000000000000000000000000\n        /* \"#utility.yul\":35902:35904   */\n      0x20\n        /* \"#utility.yul\":35894:35900   */\n      dup3\n        /* \"#utility.yul\":35890:35905   */\n      add\n        /* \"#utility.yul\":35883:35920   */\n      mstore\n        /* \"#utility.yul\":35698:35927   */\n      pop\n      jump\t// out\n        /* \"#utility.yul\":35933:36299   */\n    tag_344:\n        /* \"#utility.yul\":36075:36078   */\n      0x00\n        /* \"#utility.yul\":36096:36163   */\n      tag_680\n        /* \"#utility.yul\":36160:36162   */\n      0x2a\n        /* \"#utility.yul\":36155:36158   */\n      dup4\n        /* \"#utility.yul\":36096:36163   */\n      tag_269\n      jump\t// in\n    tag_680:\n        /* \"#utility.yul\":36089:36163   */\n      swap2\n      pop\n        /* \"#utility.yul\":36172:36265   */\n      tag_681\n        /* \"#utility.yul\":36261:36264   */\n      dup3\n        /* \"#utility.yul\":36172:36265   */\n      tag_343\n      jump\t// in\n    tag_681:\n        /* \"#utility.yul\":36290:36292   */\n      0x40\n        /* \"#utility.yul\":36285:36288   */\n      dup3\n        /* \"#utility.yul\":36281:36293   */\n      add\n        /* \"#utility.yul\":36274:36293   */\n      swap1\n      pop\n        /* \"#utility.yul\":35933:36299   */\n      swap2\n      swap1\n      pop\n      jump\t// out\n        /* \"#utility.yul\":36305:36724   */\n    tag_183:\n        /* \"#utility.yul\":36471:36475   */\n      0x00\n        /* \"#utility.yul\":36509:36511   */\n      0x20\n        /* \"#utility.yul\":36498:36507   */\n      dup3\n        /* \"#utility.yul\":36494:36512   */\n      add\n        /* \"#utility.yul\":36486:36512   */\n      swap1\n      pop\n        /* \"#utility.yul\":36558:36567   */\n      dup2\n        /* \"#utility.yul\":36552:36556   */\n      dup2\n        /* \"#utility.yul\":36548:36568   */\n      sub\n        /* \"#utility.yul\":36544:36545   */\n      0x00\n        /* \"#utility.yul\":36533:36542   */\n      dup4\n        /* \"#utility.yul\":36529:36546   */\n      add\n        /* \"#utility.yul\":36522:36569   */\n      mstore\n        /* \"#utility.yul\":36586:36717   */\n      tag_683\n        /* \"#utility.yul\":36712:36716   */\n      dup2\n        /* \"#utility.yul\":36586:36717   */\n      tag_344\n      jump\t// in\n    tag_683:\n        /* \"#utility.yul\":36578:36717   */\n      swap1\n      pop\n        /* \"#utility.yul\":36305:36724   */\n      swap2\n      swap1\n      pop\n      jump\t// out\n        /* \"#utility.yul\":36730:36909   */\n    tag_345:\n        /* \"#utility.yul\":36870:36901   */\n      0x6f6e6c792061646d696e2063616e206465636c6172652077696e6e6572000000\n        /* \"#utility.yul\":36866:36867   */\n      0x00\n        /* \"#utility.yul\":36858:36864   */\n      dup3\n        /* \"#utility.yul\":36854:36868   */\n      add\n        /* \"#utility.yul\":36847:36902   */\n      mstore\n        /* \"#utility.yul\":36730:36909   */\n      pop\n      jump\t// out\n        /* \"#utility.yul\":36915:37281   */\n    tag_346:\n        /* \"#utility.yul\":37057:37060   */\n      0x00\n        /* \"#utility.yul\":37078:37145   */\n      tag_686\n        /* \"#utility.yul\":37142:37144   */\n      0x1d\n        /* \"#utility.yul\":37137:37140   */\n      dup4\n        /* \"#utility.yul\":37078:37145   */\n      tag_269\n      jump\t// in\n    tag_686:\n        /* \"#utility.yul\":37071:37145   */\n      swap2\n      pop\n        /* \"#utility.yul\":37154:37247   */\n      tag_687\n        /* \"#utility.yul\":37243:37246   */\n      dup3\n        /* \"#utility.yul\":37154:37247   */\n      tag_345\n      jump\t// in\n    tag_687:\n        /* \"#utility.yul\":37272:37274   */\n      0x20\n        /* \"#utility.yul\":37267:37270   */\n      dup3\n        /* \"#utility.yul\":37263:37275   */\n      add\n        /* \"#utility.yul\":37256:37275   */\n      swap1\n      pop\n        /* \"#utility.yul\":36915:37281   */\n      swap2\n      swap1\n      pop\n      jump\t// out\n        /* \"#utility.yul\":37287:37706   */\n    tag_213:\n        /* \"#utility.yul\":37453:37457   */\n      0x00\n        /* \"#utility.yul\":37491:37493   */\n      0x20\n        /* \"#utility.yul\":37480:37489   */\n      dup3\n        /* \"#utility.yul\":37476:37494   */\n      add\n        /* \"#utility.yul\":37468:37494   */\n      swap1\n      pop\n        /* \"#utility.yul\":37540:37549   */\n      dup2\n        /* \"#utility.yul\":37534:37538   */\n      dup2\n        /* \"#utility.yul\":37530:37550   */\n      sub\n        /* \"#utility.yul\":37526:37527   */\n      0x00\n        /* \"#utility.yul\":37515:37524   */\n      dup4\n        /* \"#utility.yul\":37511:37528   */\n      add\n        /* \"#utility.yul\":37504:37551   */\n      mstore\n        /* \"#utility.yul\":37568:37699   */\n      tag_689\n        /* \"#utility.yul\":37694:37698   */\n      dup2\n        /* \"#utility.yul\":37568:37699   */\n      tag_346\n      jump\t// in\n    tag_689:\n        /* \"#utility.yul\":37560:37699   */\n      swap1\n      pop\n        /* \"#utility.yul\":37287:37706   */\n      swap2\n      swap1\n      pop\n      jump\t// out\n        /* \"#utility.yul\":37712:37949   */\n    tag_347:\n        /* \"#utility.yul\":37852:37886   */\n      0x57494e4e45522057494c4c204f4e4c59204245204445434c41524544204f4e43\n        /* \"#utility.yul\":37848:37849   */\n      0x00\n        /* \"#utility.yul\":37840:37846   */\n      dup3\n        /* \"#utility.yul\":37836:37850   */\n      add\n        /* \"#utility.yul\":37829:37887   */\n      mstore\n        /* \"#utility.yul\":37921:37941   */\n      0x452054484520454c4354494f4e20454e44530000000000000000000000000000\n        /* \"#utility.yul\":37916:37918   */\n      0x20\n        /* \"#utility.yul\":37908:37914   */\n      dup3\n        /* \"#utility.yul\":37904:37919   */\n      add\n        /* \"#utility.yul\":37897:37942   */\n      mstore\n        /* \"#utility.yul\":37712:37949   */\n      pop\n      jump\t// out\n        /* \"#utility.yul\":37955:38321   */\n    tag_348:\n        /* \"#utility.yul\":38097:38100   */\n      0x00\n        /* \"#utility.yul\":38118:38185   */\n      tag_692\n        /* \"#utility.yul\":38182:38184   */\n      0x32\n        /* \"#utility.yul\":38177:38180   */\n      dup4\n        /* \"#utility.yul\":38118:38185   */\n      tag_269\n      jump\t// in\n    tag_692:\n        /* \"#utility.yul\":38111:38185   */\n      swap2\n      pop\n        /* \"#utility.yul\":38194:38287   */\n      tag_693\n        /* \"#utility.yul\":38283:38286   */\n      dup3\n        /* \"#utility.yul\":38194:38287   */\n      tag_347\n      jump\t// in\n    tag_693:\n        /* \"#utility.yul\":38312:38314   */\n      0x40\n        /* \"#utility.yul\":38307:38310   */\n      dup3\n        /* \"#utility.yul\":38303:38315   */\n      add\n        /* \"#utility.yul\":38296:38315   */\n      swap1\n      pop\n        /* \"#utility.yul\":37955:38321   */\n      swap2\n      swap1\n      pop\n      jump\t// out\n        /* \"#utility.yul\":38327:38746   */\n    tag_220:\n        /* \"#utility.yul\":38493:38497   */\n      0x00\n        /* \"#utility.yul\":38531:38533   */\n      0x20\n        /* \"#utility.yul\":38520:38529   */\n      dup3\n        /* \"#utility.yul\":38516:38534   */\n      add\n        /* \"#utility.yul\":38508:38534   */\n      swap1\n      pop\n        /* \"#utility.yul\":38580:38589   */\n      dup2\n        /* \"#utility.yul\":38574:38578   */\n      dup2\n        /* \"#utility.yul\":38570:38590   */\n      sub\n        /* \"#utility.yul\":38566:38567   */\n      0x00\n        /* \"#utility.yul\":38555:38564   */\n      dup4\n        /* \"#utility.yul\":38551:38568   */\n      add\n        /* \"#utility.yul\":38544:38591   */\n      mstore\n        /* \"#utility.yul\":38608:38739   */\n      tag_695\n        /* \"#utility.yul\":38734:38738   */\n      dup2\n        /* \"#utility.yul\":38608:38739   */\n      tag_348\n      jump\t// in\n    tag_695:\n        /* \"#utility.yul\":38600:38739   */\n      swap1\n      pop\n        /* \"#utility.yul\":38327:38746   */\n      swap2\n      swap1\n      pop\n      jump\t// out\n        /* \"#utility.yul\":38752:38972   */\n    tag_349:\n        /* \"#utility.yul\":38892:38926   */\n      0x6f6e6c792061646d696e2063616e2072656769737465722063616e6469646174\n        /* \"#utility.yul\":38888:38889   */\n      0x00\n        /* \"#utility.yul\":38880:38886   */\n      dup3\n        /* \"#utility.yul\":38876:38890   */\n      add\n        /* \"#utility.yul\":38869:38927   */\n      mstore\n        /* \"#utility.yul\":38961:38964   */\n      0x6500000000000000000000000000000000000000000000000000000000000000\n        /* \"#utility.yul\":38956:38958   */\n      0x20\n        /* \"#utility.yul\":38948:38954   */\n      dup3\n        /* \"#utility.yul\":38944:38959   */\n      add\n        /* \"#utility.yul\":38937:38965   */\n      mstore\n        /* \"#utility.yul\":38752:38972   */\n      pop\n      jump\t// out\n        /* \"#utility.yul\":38978:39344   */\n    tag_350:\n        /* \"#utility.yul\":39120:39123   */\n      0x00\n        /* \"#utility.yul\":39141:39208   */\n      tag_698\n        /* \"#utility.yul\":39205:39207   */\n      0x21\n        /* \"#utility.yul\":39200:39203   */\n      dup4\n        /* \"#utility.yul\":39141:39208   */\n      tag_269\n      jump\t// in\n    tag_698:\n        /* \"#utility.yul\":39134:39208   */\n      swap2\n      pop\n        /* \"#utility.yul\":39217:39310   */\n      tag_699\n        /* \"#utility.yul\":39306:39309   */\n      dup3\n        /* \"#utility.yul\":39217:39310   */\n      tag_349\n      jump\t// in\n    tag_699:\n        /* \"#utility.yul\":39335:39337   */\n      0x40\n        /* \"#utility.yul\":39330:39333   */\n      dup3\n        /* \"#utility.yul\":39326:39338   */\n      add\n        /* \"#utility.yul\":39319:39338   */\n      swap1\n      pop\n        /* \"#utility.yul\":38978:39344   */\n      swap2\n      swap1\n      pop\n      jump\t// out\n        /* \"#utility.yul\":39350:39769   */\n    tag_234:\n        /* \"#utility.yul\":39516:39520   */\n      0x00\n        /* \"#utility.yul\":39554:39556   */\n      0x20\n        /* \"#utility.yul\":39543:39552   */\n      dup3\n        /* \"#utility.yul\":39539:39557   */\n      add\n        /* \"#utility.yul\":39531:39557   */\n      swap1\n      pop\n        /* \"#utility.yul\":39603:39612   */\n      dup2\n        /* \"#utility.yul\":39597:39601   */\n      dup2\n        /* \"#utility.yul\":39593:39613   */\n      sub\n        /* \"#utility.yul\":39589:39590   */\n      0x00\n        /* \"#utility.yul\":39578:39587   */\n      dup4\n        /* \"#utility.yul\":39574:39591   */\n      add\n        /* \"#utility.yul\":39567:39614   */\n      mstore\n        /* \"#utility.yul\":39631:39762   */\n      tag_701\n        /* \"#utility.yul\":39757:39761   */\n      dup2\n        /* \"#utility.yul\":39631:39762   */\n      tag_350\n      jump\t// in\n    tag_701:\n        /* \"#utility.yul\":39623:39762   */\n      swap1\n      pop\n        /* \"#utility.yul\":39350:39769   */\n      swap2\n      swap1\n      pop\n      jump\t// out\n        /* \"#utility.yul\":39775:39948   */\n    tag_351:\n        /* \"#utility.yul\":39915:39940   */\n      0x63616e64696461746520616c7265616479206578697374000000000000000000\n        /* \"#utility.yul\":39911:39912   */\n      0x00\n        /* \"#utility.yul\":39903:39909   */\n      dup3\n        /* \"#utility.yul\":39899:39913   */\n      add\n        /* \"#utility.yul\":39892:39941   */\n      mstore\n        /* \"#utility.yul\":39775:39948   */\n      pop\n      jump\t// out\n        /* \"#utility.yul\":39954:40320   */\n    tag_352:\n        /* \"#utility.yul\":40096:40099   */\n      0x00\n        /* \"#utility.yul\":40117:40184   */\n      tag_704\n        /* \"#utility.yul\":40181:40183   */\n      0x17\n        /* \"#utility.yul\":40176:40179   */\n      dup4\n        /* \"#utility.yul\":40117:40184   */\n      tag_269\n      jump\t// in\n    tag_704:\n        /* \"#utility.yul\":40110:40184   */\n      swap2\n      pop\n        /* \"#utility.yul\":40193:40286   */\n      tag_705\n        /* \"#utility.yul\":40282:40285   */\n      dup3\n        /* \"#utility.yul\":40193:40286   */\n      tag_351\n      jump\t// in\n    tag_705:\n        /* \"#utility.yul\":40311:40313   */\n      0x20\n        /* \"#utility.yul\":40306:40309   */\n      dup3\n        /* \"#utility.yul\":40302:40314   */\n      add\n        /* \"#utility.yul\":40295:40314   */\n      swap1\n      pop\n        /* \"#utility.yul\":39954:40320   */\n      swap2\n      swap1\n      pop\n      jump\t// out\n        /* \"#utility.yul\":40326:40745   */\n    tag_237:\n        /* \"#utility.yul\":40492:40496   */\n      0x00\n        /* \"#utility.yul\":40530:40532   */\n      0x20\n        /* \"#utility.yul\":40519:40528   */\n      dup3\n        /* \"#utility.yul\":40515:40533   */\n      add\n        /* \"#utility.yul\":40507:40533   */\n      swap1\n      pop\n        /* \"#utility.yul\":40579:40588   */\n      dup2\n        /* \"#utility.yul\":40573:40577   */\n      dup2\n        /* \"#utility.yul\":40569:40589   */\n      sub\n        /* \"#utility.yul\":40565:40566   */\n      0x00\n        /* \"#utility.yul\":40554:40563   */\n      dup4\n        /* \"#utility.yul\":40550:40567   */\n      add\n        /* \"#utility.yul\":40543:40590   */\n      mstore\n        /* \"#utility.yul\":40607:40738   */\n      tag_707\n        /* \"#utility.yul\":40733:40737   */\n      dup2\n        /* \"#utility.yul\":40607:40738   */\n      tag_352\n      jump\t// in\n    tag_707:\n        /* \"#utility.yul\":40599:40738   */\n      swap1\n      pop\n        /* \"#utility.yul\":40326:40745   */\n      swap2\n      swap1\n      pop\n      jump\t// out\n        /* \"#utility.yul\":40751:40976   */\n    tag_353:\n        /* \"#utility.yul\":40891:40925   */\n      0x61646d696e2063616e277420626520726567697374657265642061732063616e\n        /* \"#utility.yul\":40887:40888   */\n      0x00\n        /* \"#utility.yul\":40879:40885   */\n      dup3\n        /* \"#utility.yul\":40875:40889   */\n      add\n        /* \"#utility.yul\":40868:40926   */\n      mstore\n        /* \"#utility.yul\":40960:40968   */\n      0x6469646174650000000000000000000000000000000000000000000000000000\n        /* \"#utility.yul\":40955:40957   */\n      0x20\n        /* \"#utility.yul\":40947:40953   */\n      dup3\n        /* \"#utility.yul\":40943:40958   */\n      add\n        /* \"#utility.yul\":40936:40969   */\n      mstore\n        /* \"#utility.yul\":40751:40976   */\n      pop\n      jump\t// out\n        /* \"#utility.yul\":40982:41348   */\n    tag_354:\n        /* \"#utility.yul\":41124:41127   */\n      0x00\n        /* \"#utility.yul\":41145:41212   */\n      tag_710\n        /* \"#utility.yul\":41209:41211   */\n      0x26\n        /* \"#utility.yul\":41204:41207   */\n      dup4\n        /* \"#utility.yul\":41145:41212   */\n      tag_269\n      jump\t// in\n    tag_710:\n        /* \"#utility.yul\":41138:41212   */\n      swap2\n      pop\n        /* \"#utility.yul\":41221:41314   */\n      tag_711\n        /* \"#utility.yul\":41310:41313   */\n      dup3\n        /* \"#utility.yul\":41221:41314   */\n      tag_353\n      jump\t// in\n    tag_711:\n        /* \"#utility.yul\":41339:41341   */\n      0x40\n        /* \"#utility.yul\":41334:41337   */\n      dup3\n        /* \"#utility.yul\":41330:41342   */\n      add\n        /* \"#utility.yul\":41323:41342   */\n      swap1\n      pop\n        /* \"#utility.yul\":40982:41348   */\n      swap2\n      swap1\n      pop\n      jump\t// out\n        /* \"#utility.yul\":41354:41773   */\n    tag_240:\n        /* \"#utility.yul\":41520:41524   */\n      0x00\n        /* \"#utility.yul\":41558:41560   */\n      0x20\n        /* \"#utility.yul\":41547:41556   */\n      dup3\n        /* \"#utility.yul\":41543:41561   */\n      add\n        /* \"#utility.yul\":41535:41561   */\n      swap1\n      pop\n        /* \"#utility.yul\":41607:41616   */\n      dup2\n        /* \"#utility.yul\":41601:41605   */\n      dup2\n        /* \"#utility.yul\":41597:41617   */\n      sub\n        /* \"#utility.yul\":41593:41594   */\n      0x00\n        /* \"#utility.yul\":41582:41591   */\n      dup4\n        /* \"#utility.yul\":41578:41595   */\n      add\n        /* \"#utility.yul\":41571:41618   */\n      mstore\n        /* \"#utility.yul\":41635:41766   */\n      tag_713\n        /* \"#utility.yul\":41761:41765   */\n      dup2\n        /* \"#utility.yul\":41635:41766   */\n      tag_354\n      jump\t// in\n    tag_713:\n        /* \"#utility.yul\":41627:41766   */\n      swap1\n      pop\n        /* \"#utility.yul\":41354:41773   */\n      swap2\n      swap1\n      pop\n      jump\t// out\n\n    auxdata: 0xa2646970667358221220eda1f1a2d2afead7f4e2b5d261214e4998ff71c9c6cdc9026e26df57071be96764736f6c63430008150033\n}\n",
				"bytecode": {
					"linkReferences": {},
					"object": "608060405234801562000010575f80fd5b50335f806101000a81548173ffffffffffffffffffffffffffffffffffffffff021916908373ffffffffffffffffffffffffffffffffffffffff1602179055505f8060146101000a81548160ff0219169083151502179055505f6001819055506040518060400160405280600b81526020017f4e6f74205374617274656400000000000000000000000000000000000000000081525060039081620000b6919062000362565b505f6002819055505f6004819055505f6006819055505f60075f6101000a81548160ff02191690836002811115620000f357620000f262000446565b5b021790555062000473565b5f81519050919050565b7f4e487b71000000000000000000000000000000000000000000000000000000005f52604160045260245ffd5b7f4e487b71000000000000000000000000000000000000000000000000000000005f52602260045260245ffd5b5f60028204905060018216806200017a57607f821691505b60208210810362000190576200018f62000135565b5b50919050565b5f819050815f5260205f209050919050565b5f6020601f8301049050919050565b5f82821b905092915050565b5f60088302620001f47fffffffffffffffffffffffffffffffffffffffffffffffffffffffffffffffff82620001b7565b620002008683620001b7565b95508019841693508086168417925050509392505050565b5f819050919050565b5f819050919050565b5f6200024a620002446200023e8462000218565b62000221565b62000218565b9050919050565b5f819050919050565b62000265836200022a565b6200027d620002748262000251565b848454620001c3565b825550505050565b5f90565b6200029362000285565b620002a08184846200025a565b505050565b5b81811015620002c757620002bb5f8262000289565b600181019050620002a6565b5050565b601f8211156200031657620002e08162000196565b620002eb84620001a8565b81016020851015620002fb578190505b620003136200030a85620001a8565b830182620002a5565b50505b505050565b5f82821c905092915050565b5f620003385f19846008026200031b565b1980831691505092915050565b5f62000352838362000327565b9150826002028217905092915050565b6200036d82620000fe565b67ffffffffffffffff81111562000389576200038862000108565b5b62000395825462000162565b620003a2828285620002cb565b5f60209050601f831160018114620003d8575f8415620003c3578287015190505b620003cf858262000345565b8655506200043e565b601f198416620003e88662000196565b5f5b828110156200041157848901518255600182019150602085019450602081019050620003ea565b868310156200043157848901516200042d601f89168262000327565b8355505b6001600288020188555050505b505050505050565b7f4e487b71000000000000000000000000000000000000000000000000000000005f52602160045260245ffd5b61337580620004815f395ff3fe608060405234801561000f575f80fd5b50600436106100b1575f3560e01c806381c407151161006f57806381c407151461017d578063b31e1d4d1461019b578063c3403ddf146101b7578063d1e05abb146101c1578063f9e7284f146101df578063fcab6679146101fd576100b1565b806298a51a146100b55780630a03fff1146100e957806319f41a401461011d5780631ec6b60a1461013b578063233b672d1461014557806338db6dd314610161575b5f80fd5b6100cf60048036038101906100ca9190611f3d565b610219565b6040516100e0959493929190611fa9565b60405180910390f35b61010360048036038101906100fe9190611f3d565b610282565b604051610114959493929190612084565b60405180910390f35b6101256103eb565b60405161013291906120e3565b60405180910390f35b61014361047b565b005b61015f600480360381019061015a919061212d565b610586565b005b61017b60048036038101906101769190611f3d565b610ad5565b005b610185610e84565b6040516101929190612315565b60405180910390f35b6101b560048036038101906101b09190611f3d565b611078565b005b6101bf6116ed565b005b6101c96117e7565b6040516101d691906120e3565b60405180910390f35b6101e7611978565b6040516101f49190612443565b60405180910390f35b6102176004803603810190610212919061258f565b611a70565b005b600a602052805f5260405f205f91509050805f015f9054906101000a900473ffffffffffffffffffffffffffffffffffffffff1690805f0160149054906101000a900460ff1690805f0160159054906101000a900460ff16908060010154908060020154905085565b6008602052805f5260405f205f91509050805f015f9054906101000a900473ffffffffffffffffffffffffffffffffffffffff16908060010180546102c690612644565b80601f01602080910402602001604051908101604052809291908181526020018280546102f290612644565b801561033d5780601f106103145761010080835404028352916020019161033d565b820191905f5260205f20905b81548152906001019060200180831161032057829003601f168201915b50505050509080600201805461035290612644565b80601f016020809104026020016040519081016040528092919081815260200182805461037e90612644565b80156103c95780601f106103a0576101008083540402835291602001916103c9565b820191905f5260205f20905b8154815290600101906020018083116103ac57829003601f168201915b505050505090806003015f9054906101000a900460ff16908060040154905085565b6060600380546103fa90612644565b80601f016020809104026020016040519081016040528092919081815260200182805461042690612644565b80156104715780601f1061044857610100808354040283529160200191610471565b820191905f5260205f20905b81548152906001019060200180831161045457829003601f168201915b5050505050905090565b3373ffffffffffffffffffffffffffffffffffffffff165f8054906101000a900473ffffffffffffffffffffffffffffffffffffffff1673ffffffffffffffffffffffffffffffffffffffff161480156104d657505f600254145b80156104f357505f15155f60149054906101000a900460ff161515145b6104fb575f80fd5b60015f60146101000a81548160ff021916908315150217905550600160075f6101000a81548160ff0219169083600281111561053a57610539612674565b5b02179055506040518060400160405280600881526020017f4f6e20476f696e6700000000000000000000000000000000000000000000000081525060039081610583919061283e565b50565b6001151561059333611e21565b1515146105d5576040517f08c379a00000000000000000000000000000000000000000000000000000000081526004016105cc90612957565b60405180910390fd5b5f1515600a5f3373ffffffffffffffffffffffffffffffffffffffff1673ffffffffffffffffffffffffffffffffffffffff1681526020019081526020015f205f0160159054906101000a900460ff161515148061067357505f600a5f3373ffffffffffffffffffffffffffffffffffffffff1673ffffffffffffffffffffffffffffffffffffffff1681526020019081526020015f206001015414155b6106b2576040517f08c379a00000000000000000000000000000000000000000000000000000000081526004016106a9906129bf565b60405180910390fd5b600115155f60149054906101000a900460ff16151514610707576040517f08c379a00000000000000000000000000000000000000000000000000000000081526004016106fe90612a27565b60405180910390fd5b5f600a5f3373ffffffffffffffffffffffffffffffffffffffff1673ffffffffffffffffffffffffffffffffffffffff1681526020019081526020015f2060020154905060085f8373ffffffffffffffffffffffffffffffffffffffff1673ffffffffffffffffffffffffffffffffffffffff1681526020019081526020015f206004015f81548092919061079b90612a72565b919050555060085f8373ffffffffffffffffffffffffffffffffffffffff1673ffffffffffffffffffffffffffffffffffffffff1681526020019081526020015f20600984815481106107f1576107f0612ab9565b5b905f5260205f2090600502015f82015f9054906101000a900473ffffffffffffffffffffffffffffffffffffffff16815f015f6101000a81548173ffffffffffffffffffffffffffffffffffffffff021916908373ffffffffffffffffffffffffffffffffffffffff160217905550600182018160010190816108749190612afb565b50600282018160020190816108899190612afb565b50600382015f9054906101000a900460ff16816003015f6101000a81548160ff0219169083151502179055506004820154816004015590505060045f8154809291906108d490612a72565b9190505550600983815481106108ed576108ec612ab9565b5b905f5260205f209060050201600401546006541015610963576009838154811061091a57610919612ab9565b5b905f5260205f209060050201600401546006819055506009838154811061094457610943612ab9565b5b905f5260205f209060050201600101600590816109619190612c07565b505b5f600a5f3373ffffffffffffffffffffffffffffffffffffffff1673ffffffffffffffffffffffffffffffffffffffff1681526020019081526020015f206001015414610a3c57600a5f3373ffffffffffffffffffffffffffffffffffffffff1673ffffffffffffffffffffffffffffffffffffffff1681526020019081526020015f206001015f8154809291906109fa90612cec565b9190505550600b8181548110610a1357610a12612ab9565b5b905f5260205f2090600302016001015f815480929190610a3290612cec565b9190505550610ad0565b6001600a5f3373ffffffffffffffffffffffffffffffffffffffff1673ffffffffffffffffffffffffffffffffffffffff1681526020019081526020015f205f0160156101000a81548160ff0219169083151502179055506001600b8281548110610aaa57610aa9612ab9565b5b905f5260205f2090600302015f0160156101000a81548160ff0219169083151502179055505b505050565b5f15155f60149054906101000a900460ff16151514610af2575f80fd5b3373ffffffffffffffffffffffffffffffffffffffff165f8054906101000a900473ffffffffffffffffffffffffffffffffffffffff1673ffffffffffffffffffffffffffffffffffffffff1614610b7f576040517f08c379a0000000000000000000000000000000000000000000000000000000008152600401610b7690612d5d565b60405180910390fd5b5f8054906101000a900473ffffffffffffffffffffffffffffffffffffffff1673ffffffffffffffffffffffffffffffffffffffff168173ffffffffffffffffffffffffffffffffffffffff1603610c0c576040517f08c379a0000000000000000000000000000000000000000000000000000000008152600401610c0390612dc5565b60405180910390fd5b5f1515600a5f8373ffffffffffffffffffffffffffffffffffffffff1673ffffffffffffffffffffffffffffffffffffffff1681526020019081526020015f205f0160149054906101000a900460ff16151514610c9e576040517f08c379a0000000000000000000000000000000000000000000000000000000008152600401610c9590612e2d565b60405180910390fd5b5f6040518060a001604052808373ffffffffffffffffffffffffffffffffffffffff1681526020016001151581526020015f151581526020015f8152602001600b80549050815250905080600a5f8473ffffffffffffffffffffffffffffffffffffffff1673ffffffffffffffffffffffffffffffffffffffff1681526020019081526020015f205f820151815f015f6101000a81548173ffffffffffffffffffffffffffffffffffffffff021916908373ffffffffffffffffffffffffffffffffffffffff1602179055506020820151815f0160146101000a81548160ff0219169083151502179055506040820151815f0160156101000a81548160ff0219169083151502179055506060820151816001015560808201518160020155905050600b81908060018154018082558091505060019003905f5260205f2090600302015f909190919091505f820151815f015f6101000a81548173ffffffffffffffffffffffffffffffffffffffff021916908373ffffffffffffffffffffffffffffffffffffffff1602179055506020820151815f0160146101000a81548160ff0219169083151502179055506040820151815f0160156101000a81548160ff021916908315150217905550606082015181600101556080820151816002015550505050565b60606009805480602002602001604051908101604052809291908181526020015f905b8282101561106f578382905f5260205f2090600502016040518060a00160405290815f82015f9054906101000a900473ffffffffffffffffffffffffffffffffffffffff1673ffffffffffffffffffffffffffffffffffffffff1673ffffffffffffffffffffffffffffffffffffffff168152602001600182018054610f2c90612644565b80601f0160208091040260200160405190810160405280929190818152602001828054610f5890612644565b8015610fa35780601f10610f7a57610100808354040283529160200191610fa3565b820191905f5260205f20905b815481529060010190602001808311610f8657829003601f168201915b50505050508152602001600282018054610fbc90612644565b80601f0160208091040260200160405190810160405280929190818152602001828054610fe890612644565b80156110335780601f1061100a57610100808354040283529160200191611033565b820191905f5260205f20905b81548152906001019060200180831161101657829003601f168201915b50505050508152602001600382015f9054906101000a900460ff1615151515815260200160048201548152505081526020019060010190610ea7565b50505050905090565b5f600a5f3373ffffffffffffffffffffffffffffffffffffffff1673ffffffffffffffffffffffffffffffffffffffff1681526020019081526020015f206002015490505f600a5f8473ffffffffffffffffffffffffffffffffffffffff1673ffffffffffffffffffffffffffffffffffffffff1681526020019081526020015f206002015490506001600281111561111457611113612674565b5b60075f9054906101000a900460ff16600281111561113557611134612674565b5b14611175576040517f08c379a000000000000000000000000000000000000000000000000000000000815260040161116c90612ebb565b60405180910390fd5b3373ffffffffffffffffffffffffffffffffffffffff16600b83815481106111a05761119f612ab9565b5b905f5260205f2090600302015f015f9054906101000a900473ffffffffffffffffffffffffffffffffffffffff1673ffffffffffffffffffffffffffffffffffffffff16146111ed575f80fd5b5f1515600a5f3373ffffffffffffffffffffffffffffffffffffffff1673ffffffffffffffffffffffffffffffffffffffff1681526020019081526020015f205f0160159054906101000a900460ff161515148061128b57505f600a5f3373ffffffffffffffffffffffffffffffffffffffff1673ffffffffffffffffffffffffffffffffffffffff1681526020019081526020015f206001015414155b6112ca576040517f08c379a00000000000000000000000000000000000000000000000000000000081526004016112c190612f49565b60405180910390fd5b3373ffffffffffffffffffffffffffffffffffffffff165f8054906101000a900473ffffffffffffffffffffffffffffffffffffffff1673ffffffffffffffffffffffffffffffffffffffff1603611357576040517f08c379a000000000000000000000000000000000000000000000000000000000815260040161134e90612fb1565b60405180910390fd5b8273ffffffffffffffffffffffffffffffffffffffff163373ffffffffffffffffffffffffffffffffffffffff16036113c5576040517f08c379a00000000000000000000000000000000000000000000000000000000081526004016113bc90613019565b60405180910390fd5b6001151560085f3373ffffffffffffffffffffffffffffffffffffffff1673ffffffffffffffffffffffffffffffffffffffff1681526020019081526020015f206003015f9054906101000a900460ff1615151415801561147757506001151560085f8573ffffffffffffffffffffffffffffffffffffffff1673ffffffffffffffffffffffffffffffffffffffff1681526020019081526020015f206003015f9054906101000a900460ff16151514155b6114b6576040517f08c379a00000000000000000000000000000000000000000000000000000000081526004016114ad906130a7565b60405180910390fd5b600a5f8473ffffffffffffffffffffffffffffffffffffffff1673ffffffffffffffffffffffffffffffffffffffff1681526020019081526020015f206001015f81548092919061150690612a72565b91905055505f600a5f3373ffffffffffffffffffffffffffffffffffffffff1673ffffffffffffffffffffffffffffffffffffffff1681526020019081526020015f206001015403611622576001600a5f3373ffffffffffffffffffffffffffffffffffffffff1673ffffffffffffffffffffffffffffffffffffffff1681526020019081526020015f205f0160156101000a81548160ff0219169083151502179055506001600b83815481106115c0576115bf612ab9565b5b905f5260205f2090600302015f0160156101000a81548160ff021916908315150217905550600b81815481106115f9576115f8612ab9565b5b905f5260205f2090600302016001015f81548092919061161890612a72565b91905055506116e8565b600a5f3373ffffffffffffffffffffffffffffffffffffffff1673ffffffffffffffffffffffffffffffffffffffff1681526020019081526020015f206001015f81548092919061167290612cec565b9190505550600b828154811061168b5761168a612ab9565b5b905f5260205f2090600302016001015f8154809291906116aa90612cec565b9190505550600b81815481106116c3576116c2612ab9565b5b905f5260205f2090600302016001015f8154809291906116e290612a72565b91905055505b505050565b3373ffffffffffffffffffffffffffffffffffffffff165f8054906101000a900473ffffffffffffffffffffffffffffffffffffffff1673ffffffffffffffffffffffffffffffffffffffff161480156117595750600115155f60149054906101000a900460ff161515145b801561176657505f600254145b61176e575f80fd5b6001600281905550600260075f6101000a81548160ff0219169083600281111561179b5761179a612674565b5b02179055506040518060400160405280600c81526020017f566f74696e6720456e6465640000000000000000000000000000000000000000815250600390816117e4919061283e565b50565b60603373ffffffffffffffffffffffffffffffffffffffff165f8054906101000a900473ffffffffffffffffffffffffffffffffffffffff1673ffffffffffffffffffffffffffffffffffffffff1614611876576040517f08c379a000000000000000000000000000000000000000000000000000000000815260040161186d9061310f565b60405180910390fd5b60028081111561188957611888612674565b5b60075f9054906101000a900460ff1660028111156118aa576118a9612674565b5b146118ea576040517f08c379a00000000000000000000000000000000000000000000000000000000081526004016118e19061319d565b60405180910390fd5b600580546118f790612644565b80601f016020809104026020016040519081016040528092919081815260200182805461192390612644565b801561196e5780601f106119455761010080835404028352916020019161196e565b820191905f5260205f20905b81548152906001019060200180831161195157829003601f168201915b5050505050905090565b6060600b805480602002602001604051908101604052809291908181526020015f905b82821015611a67578382905f5260205f2090600302016040518060a00160405290815f82015f9054906101000a900473ffffffffffffffffffffffffffffffffffffffff1673ffffffffffffffffffffffffffffffffffffffff1673ffffffffffffffffffffffffffffffffffffffff1681526020015f820160149054906101000a900460ff161515151581526020015f820160159054906101000a900460ff16151515158152602001600182015481526020016002820154815250508152602001906001019061199b565b50505050905090565b5f15155f60149054906101000a900460ff16151514611a8d575f80fd5b3373ffffffffffffffffffffffffffffffffffffffff165f8054906101000a900473ffffffffffffffffffffffffffffffffffffffff1673ffffffffffffffffffffffffffffffffffffffff1614611b1a576040517f08c379a0000000000000000000000000000000000000000000000000000000008152600401611b119061322b565b60405180910390fd5b6001151560085f8373ffffffffffffffffffffffffffffffffffffffff1673ffffffffffffffffffffffffffffffffffffffff1681526020019081526020015f206003015f9054906101000a900460ff16151503611bad576040517f08c379a0000000000000000000000000000000000000000000000000000000008152600401611ba490613293565b60405180910390fd5b5f8054906101000a900473ffffffffffffffffffffffffffffffffffffffff1673ffffffffffffffffffffffffffffffffffffffff168173ffffffffffffffffffffffffffffffffffffffff1603611c3a576040517f08c379a0000000000000000000000000000000000000000000000000000000008152600401611c3190613321565b60405180910390fd5b5f6040518060a001604052808373ffffffffffffffffffffffffffffffffffffffff1681526020018581526020018481526020016001151581526020015f81525090508060085f8473ffffffffffffffffffffffffffffffffffffffff1673ffffffffffffffffffffffffffffffffffffffff1681526020019081526020015f205f820151815f015f6101000a81548173ffffffffffffffffffffffffffffffffffffffff021916908373ffffffffffffffffffffffffffffffffffffffff1602179055506020820151816001019081611d14919061283e565b506040820151816002019081611d2a919061283e565b506060820151816003015f6101000a81548160ff02191690831515021790555060808201518160040155905050600981908060018154018082558091505060019003905f5260205f2090600502015f909190919091505f820151815f015f6101000a81548173ffffffffffffffffffffffffffffffffffffffff021916908373ffffffffffffffffffffffffffffffffffffffff1602179055506020820151816001019081611dd9919061283e565b506040820151816002019081611def919061283e565b506060820151816003015f6101000a81548160ff02191690831515021790555060808201518160040155505050505050565b5f805f90505f5b600b80549050811015611ec8578373ffffffffffffffffffffffffffffffffffffffff16600b8281548110611e6057611e5f612ab9565b5b905f5260205f2090600302015f015f9054906101000a900473ffffffffffffffffffffffffffffffffffffffff1673ffffffffffffffffffffffffffffffffffffffff1603611eb25760019150611ec8565b5f91508080611ec090612a72565b915050611e28565b5080915050919050565b5f604051905090565b5f80fd5b5f80fd5b5f73ffffffffffffffffffffffffffffffffffffffff82169050919050565b5f611f0c82611ee3565b9050919050565b611f1c81611f02565b8114611f26575f80fd5b50565b5f81359050611f3781611f13565b92915050565b5f60208284031215611f5257611f51611edb565b5b5f611f5f84828501611f29565b91505092915050565b611f7181611f02565b82525050565b5f8115159050919050565b611f8b81611f77565b82525050565b5f819050919050565b611fa381611f91565b82525050565b5f60a082019050611fbc5f830188611f68565b611fc96020830187611f82565b611fd66040830186611f82565b611fe36060830185611f9a565b611ff06080830184611f9a565b9695505050505050565b5f81519050919050565b5f82825260208201905092915050565b5f5b83811015612031578082015181840152602081019050612016565b5f8484015250505050565b5f601f19601f8301169050919050565b5f61205682611ffa565b6120608185612004565b9350612070818560208601612014565b6120798161203c565b840191505092915050565b5f60a0820190506120975f830188611f68565b81810360208301526120a9818761204c565b905081810360408301526120bd818661204c565b90506120cc6060830185611f82565b6120d96080830184611f9a565b9695505050505050565b5f6020820190508181035f8301526120fb818461204c565b905092915050565b61210c81611f91565b8114612116575f80fd5b50565b5f8135905061212781612103565b92915050565b5f806040838503121561214357612142611edb565b5b5f61215085828601612119565b925050602061216185828601611f29565b9150509250929050565b5f81519050919050565b5f82825260208201905092915050565b5f819050602082019050919050565b61219d81611f02565b82525050565b5f82825260208201905092915050565b5f6121bd82611ffa565b6121c781856121a3565b93506121d7818560208601612014565b6121e08161203c565b840191505092915050565b6121f481611f77565b82525050565b61220381611f91565b82525050565b5f60a083015f83015161221e5f860182612194565b506020830151848203602086015261223682826121b3565b9150506040830151848203604086015261225082826121b3565b915050606083015161226560608601826121eb565b50608083015161227860808601826121fa565b508091505092915050565b5f61228e8383612209565b905092915050565b5f602082019050919050565b5f6122ac8261216b565b6122b68185612175565b9350836020820285016122c885612185565b805f5b8581101561230357848403895281516122e48582612283565b94506122ef83612296565b925060208a019950506001810190506122cb565b50829750879550505050505092915050565b5f6020820190508181035f83015261232d81846122a2565b905092915050565b5f81519050919050565b5f82825260208201905092915050565b5f819050602082019050919050565b60a082015f8201516123725f850182612194565b50602082015161238560208501826121eb565b50604082015161239860408501826121eb565b5060608201516123ab60608501826121fa565b5060808201516123be60808501826121fa565b50505050565b5f6123cf838361235e565b60a08301905092915050565b5f602082019050919050565b5f6123f182612335565b6123fb818561233f565b93506124068361234f565b805f5b8381101561243657815161241d88826123c4565b9750612428836123db565b925050600181019050612409565b5085935050505092915050565b5f6020820190508181035f83015261245b81846123e7565b905092915050565b5f80fd5b5f80fd5b7f4e487b71000000000000000000000000000000000000000000000000000000005f52604160045260245ffd5b6124a18261203c565b810181811067ffffffffffffffff821117156124c0576124bf61246b565b5b80604052505050565b5f6124d2611ed2565b90506124de8282612498565b919050565b5f67ffffffffffffffff8211156124fd576124fc61246b565b5b6125068261203c565b9050602081019050919050565b828183375f83830152505050565b5f61253361252e846124e3565b6124c9565b90508281526020810184848401111561254f5761254e612467565b5b61255a848285612513565b509392505050565b5f82601f83011261257657612575612463565b5b8135612586848260208601612521565b91505092915050565b5f805f606084860312156125a6576125a5611edb565b5b5f84013567ffffffffffffffff8111156125c3576125c2611edf565b5b6125cf86828701612562565b935050602084013567ffffffffffffffff8111156125f0576125ef611edf565b5b6125fc86828701612562565b925050604061260d86828701611f29565b9150509250925092565b7f4e487b71000000000000000000000000000000000000000000000000000000005f52602260045260245ffd5b5f600282049050600182168061265b57607f821691505b60208210810361266e5761266d612617565b5b50919050565b7f4e487b71000000000000000000000000000000000000000000000000000000005f52602160045260245ffd5b5f819050815f5260205f209050919050565b5f6020601f8301049050919050565b5f82821b905092915050565b5f600883026126fd7fffffffffffffffffffffffffffffffffffffffffffffffffffffffffffffffff826126c2565b61270786836126c2565b95508019841693508086168417925050509392505050565b5f819050919050565b5f61274261273d61273884611f91565b61271f565b611f91565b9050919050565b5f819050919050565b61275b83612728565b61276f61276782612749565b8484546126ce565b825550505050565b5f90565b612783612777565b61278e818484612752565b505050565b5b818110156127b1576127a65f8261277b565b600181019050612794565b5050565b601f8211156127f6576127c7816126a1565b6127d0846126b3565b810160208510156127df578190505b6127f36127eb856126b3565b830182612793565b50505b505050565b5f82821c905092915050565b5f6128165f19846008026127fb565b1980831691505092915050565b5f61282e8383612807565b9150826002028217905092915050565b61284782611ffa565b67ffffffffffffffff8111156128605761285f61246b565b5b61286a8254612644565b6128758282856127b5565b5f60209050601f8311600181146128a6575f8415612894578287015190505b61289e8582612823565b865550612905565b601f1984166128b4866126a1565b5f5b828110156128db578489015182556001820191506020850194506020810190506128b6565b868310156128f857848901516128f4601f891682612807565b8355505b6001600288020188555050505b505050505050565b7f766f74657220646f6573206e6f742065786973740000000000000000000000005f82015250565b5f612941601483612004565b915061294c8261290d565b602082019050919050565b5f6020820190508181035f83015261296e81612935565b9050919050565b7f616c726561647920766f746564000000000000000000000000000000000000005f82015250565b5f6129a9600d83612004565b91506129b482612975565b602082019050919050565b5f6020820190508181035f8301526129d68161299d565b9050919050565b7f766f74696e67206e6f74207374617274656400000000000000000000000000005f82015250565b5f612a11601283612004565b9150612a1c826129dd565b602082019050919050565b5f6020820190508181035f830152612a3e81612a05565b9050919050565b7f4e487b71000000000000000000000000000000000000000000000000000000005f52601160045260245ffd5b5f612a7c82611f91565b91507fffffffffffffffffffffffffffffffffffffffffffffffffffffffffffffffff8203612aae57612aad612a45565b5b600182019050919050565b7f4e487b71000000000000000000000000000000000000000000000000000000005f52603260045260245ffd5b5f81549050612af481612644565b9050919050565b818103612b09575050612bde565b612b1282612ae6565b67ffffffffffffffff811115612b2b57612b2a61246b565b5b612b358254612644565b612b408282856127b5565b5f601f831160018114612b6d575f8415612b5b578287015490505b612b658582612823565b865550612bd7565b601f198416612b7b876126a1565b9650612b86866126a1565b5f5b82811015612bad57848901548255600182019150600185019450602081019050612b88565b86831015612bca5784890154612bc6601f891682612807565b8355505b6001600288020188555050505b5050505050505b565b5f81549050612bee81612644565b9050919050565b5f819050815f5260205f209050919050565b818103612c15575050612cea565b612c1e82612be0565b67ffffffffffffffff811115612c3757612c3661246b565b5b612c418254612644565b612c4c8282856127b5565b5f601f831160018114612c79575f8415612c67578287015490505b612c718582612823565b865550612ce3565b601f198416612c8787612bf5565b9650612c92866126a1565b5f5b82811015612cb957848901548255600182019150600185019450602081019050612c94565b86831015612cd65784890154612cd2601f891682612807565b8355505b6001600288020188555050505b5050505050505b565b5f612cf682611f91565b91505f8203612d0857612d07612a45565b5b600182039050919050565b7f6f6e6c792061646d696e2063616e20726567697374657220766f7465720000005f82015250565b5f612d47601d83612004565b9150612d5282612d13565b602082019050919050565b5f6020820190508181035f830152612d7481612d3b565b9050919050565b7f61646d696e2063616e6e6f7420726567697374657220666f7220766f746500005f82015250565b5f612daf601e83612004565b9150612dba82612d7b565b602082019050919050565b5f6020820190508181035f830152612ddc81612da3565b9050919050565b7f766f74657220616c7265616479207265676973746572656400000000000000005f82015250565b5f612e17601883612004565b9150612e2282612de3565b602082019050919050565b5f6020820190508181035f830152612e4481612e0b565b9050919050565b7f766f74696e67206d757374206265206f6e676f696e6720746f2064656c6567615f8201527f746520766f746500000000000000000000000000000000000000000000000000602082015250565b5f612ea5602783612004565b9150612eb082612e4b565b604082019050919050565b5f6020820190508181035f830152612ed281612e99565b9050919050565b7f6f6e6c792074686f73652063616e2064656c656761746520766f74652077686f5f8201527f2068617665206e6f7420766f7465642079657400000000000000000000000000602082015250565b5f612f33603383612004565b9150612f3e82612ed9565b604082019050919050565b5f6020820190508181035f830152612f6081612f27565b9050919050565b7f61646d696e2063616e6e6f742064656c656761746520766f74650000000000005f82015250565b5f612f9b601a83612004565b9150612fa682612f67565b602082019050919050565b5f6020820190508181035f830152612fc881612f8f565b9050919050565b7f43616e6e6f742064656c656761746520766f746520746f2073656c66000000005f82015250565b5f613003601c83612004565b915061300e82612fcf565b602082019050919050565b5f6020820190508181035f83015261303081612ff7565b9050919050565b7f43616e6469646174652063616e6e6f742061636365707420616e64207472616e5f8201527f7366657220766f74657300000000000000000000000000000000000000000000602082015250565b5f613091602a83612004565b915061309c82613037565b604082019050919050565b5f6020820190508181035f8301526130be81613085565b9050919050565b7f6f6e6c792061646d696e2063616e206465636c6172652077696e6e65720000005f82015250565b5f6130f9601d83612004565b9150613104826130c5565b602082019050919050565b5f6020820190508181035f830152613126816130ed565b9050919050565b7f57494e4e45522057494c4c204f4e4c59204245204445434c41524544204f4e435f8201527f452054484520454c4354494f4e20454e44530000000000000000000000000000602082015250565b5f613187603283612004565b91506131928261312d565b604082019050919050565b5f6020820190508181035f8301526131b48161317b565b9050919050565b7f6f6e6c792061646d696e2063616e2072656769737465722063616e64696461745f8201527f6500000000000000000000000000000000000000000000000000000000000000602082015250565b5f613215602183612004565b9150613220826131bb565b604082019050919050565b5f6020820190508181035f83015261324281613209565b9050919050565b7f63616e64696461746520616c72656164792065786973740000000000000000005f82015250565b5f61327d601783612004565b915061328882613249565b602082019050919050565b5f6020820190508181035f8301526132aa81613271565b9050919050565b7f61646d696e2063616e277420626520726567697374657265642061732063616e5f8201527f6469646174650000000000000000000000000000000000000000000000000000602082015250565b5f61330b602683612004565b9150613316826132b1565b604082019050919050565b5f6020820190508181035f830152613338816132ff565b905091905056fea2646970667358221220eda1f1a2d2afead7f4e2b5d261214e4998ff71c9c6cdc9026e26df57071be96764736f6c63430008150033",
					"opcodes": "PUSH1 0x80 PUSH1 0x40 MSTORE CALLVALUE DUP1 ISZERO PUSH3 0x10 JUMPI PUSH0 DUP1 REVERT JUMPDEST POP CALLER PUSH0 DUP1 PUSH2 0x100 EXP DUP2 SLOAD DUP2 PUSH20 0xFFFFFFFFFFFFFFFFFFFFFFFFFFFFFFFFFFFFFFFF MUL NOT AND SWAP1 DUP4 PUSH20 0xFFFFFFFFFFFFFFFFFFFFFFFFFFFFFFFFFFFFFFFF AND MUL OR SWAP1 SSTORE POP PUSH0 DUP1 PUSH1 0x14 PUSH2 0x100 EXP DUP2 SLOAD DUP2 PUSH1 0xFF MUL NOT AND SWAP1 DUP4 ISZERO ISZERO MUL OR SWAP1 SSTORE POP PUSH0 PUSH1 0x1 DUP2 SWAP1 SSTORE POP PUSH1 0x40 MLOAD DUP1 PUSH1 0x40 ADD PUSH1 0x40 MSTORE DUP1 PUSH1 0xB DUP2 MSTORE PUSH1 0x20 ADD PUSH32 0x4E6F742053746172746564000000000000000000000000000000000000000000 DUP2 MSTORE POP PUSH1 0x3 SWAP1 DUP2 PUSH3 0xB6 SWAP2 SWAP1 PUSH3 0x362 JUMP JUMPDEST POP PUSH0 PUSH1 0x2 DUP2 SWAP1 SSTORE POP PUSH0 PUSH1 0x4 DUP2 SWAP1 SSTORE POP PUSH0 PUSH1 0x6 DUP2 SWAP1 SSTORE POP PUSH0 PUSH1 0x7 PUSH0 PUSH2 0x100 EXP DUP2 SLOAD DUP2 PUSH1 0xFF MUL NOT AND SWAP1 DUP4 PUSH1 0x2 DUP2 GT ISZERO PUSH3 0xF3 JUMPI PUSH3 0xF2 PUSH3 0x446 JUMP JUMPDEST JUMPDEST MUL OR SWAP1 SSTORE POP PUSH3 0x473 JUMP JUMPDEST PUSH0 DUP2 MLOAD SWAP1 POP SWAP2 SWAP1 POP JUMP JUMPDEST PUSH32 0x4E487B7100000000000000000000000000000000000000000000000000000000 PUSH0 MSTORE PUSH1 0x41 PUSH1 0x4 MSTORE PUSH1 0x24 PUSH0 REVERT JUMPDEST PUSH32 0x4E487B7100000000000000000000000000000000000000000000000000000000 PUSH0 MSTORE PUSH1 0x22 PUSH1 0x4 MSTORE PUSH1 0x24 PUSH0 REVERT JUMPDEST PUSH0 PUSH1 0x2 DUP3 DIV SWAP1 POP PUSH1 0x1 DUP3 AND DUP1 PUSH3 0x17A JUMPI PUSH1 0x7F DUP3 AND SWAP2 POP JUMPDEST PUSH1 0x20 DUP3 LT DUP2 SUB PUSH3 0x190 JUMPI PUSH3 0x18F PUSH3 0x135 JUMP JUMPDEST JUMPDEST POP SWAP2 SWAP1 POP JUMP JUMPDEST PUSH0 DUP2 SWAP1 POP DUP2 PUSH0 MSTORE PUSH1 0x20 PUSH0 KECCAK256 SWAP1 POP SWAP2 SWAP1 POP JUMP JUMPDEST PUSH0 PUSH1 0x20 PUSH1 0x1F DUP4 ADD DIV SWAP1 POP SWAP2 SWAP1 POP JUMP JUMPDEST PUSH0 DUP3 DUP3 SHL SWAP1 POP SWAP3 SWAP2 POP POP JUMP JUMPDEST PUSH0 PUSH1 0x8 DUP4 MUL PUSH3 0x1F4 PUSH32 0xFFFFFFFFFFFFFFFFFFFFFFFFFFFFFFFFFFFFFFFFFFFFFFFFFFFFFFFFFFFFFFFF DUP3 PUSH3 0x1B7 JUMP JUMPDEST PUSH3 0x200 DUP7 DUP4 PUSH3 0x1B7 JUMP JUMPDEST SWAP6 POP DUP1 NOT DUP5 AND SWAP4 POP DUP1 DUP7 AND DUP5 OR SWAP3 POP POP POP SWAP4 SWAP3 POP POP POP JUMP JUMPDEST PUSH0 DUP2 SWAP1 POP SWAP2 SWAP1 POP JUMP JUMPDEST PUSH0 DUP2 SWAP1 POP SWAP2 SWAP1 POP JUMP JUMPDEST PUSH0 PUSH3 0x24A PUSH3 0x244 PUSH3 0x23E DUP5 PUSH3 0x218 JUMP JUMPDEST PUSH3 0x221 JUMP JUMPDEST PUSH3 0x218 JUMP JUMPDEST SWAP1 POP SWAP2 SWAP1 POP JUMP JUMPDEST PUSH0 DUP2 SWAP1 POP SWAP2 SWAP1 POP JUMP JUMPDEST PUSH3 0x265 DUP4 PUSH3 0x22A JUMP JUMPDEST PUSH3 0x27D PUSH3 0x274 DUP3 PUSH3 0x251 JUMP JUMPDEST DUP5 DUP5 SLOAD PUSH3 0x1C3 JUMP JUMPDEST DUP3 SSTORE POP POP POP POP JUMP JUMPDEST PUSH0 SWAP1 JUMP JUMPDEST PUSH3 0x293 PUSH3 0x285 JUMP JUMPDEST PUSH3 0x2A0 DUP2 DUP5 DUP5 PUSH3 0x25A JUMP JUMPDEST POP POP POP JUMP JUMPDEST JUMPDEST DUP2 DUP2 LT ISZERO PUSH3 0x2C7 JUMPI PUSH3 0x2BB PUSH0 DUP3 PUSH3 0x289 JUMP JUMPDEST PUSH1 0x1 DUP2 ADD SWAP1 POP PUSH3 0x2A6 JUMP JUMPDEST POP POP JUMP JUMPDEST PUSH1 0x1F DUP3 GT ISZERO PUSH3 0x316 JUMPI PUSH3 0x2E0 DUP2 PUSH3 0x196 JUMP JUMPDEST PUSH3 0x2EB DUP5 PUSH3 0x1A8 JUMP JUMPDEST DUP2 ADD PUSH1 0x20 DUP6 LT ISZERO PUSH3 0x2FB JUMPI DUP2 SWAP1 POP JUMPDEST PUSH3 0x313 PUSH3 0x30A DUP6 PUSH3 0x1A8 JUMP JUMPDEST DUP4 ADD DUP3 PUSH3 0x2A5 JUMP JUMPDEST POP POP JUMPDEST POP POP POP JUMP JUMPDEST PUSH0 DUP3 DUP3 SHR SWAP1 POP SWAP3 SWAP2 POP POP JUMP JUMPDEST PUSH0 PUSH3 0x338 PUSH0 NOT DUP5 PUSH1 0x8 MUL PUSH3 0x31B JUMP JUMPDEST NOT DUP1 DUP4 AND SWAP2 POP POP SWAP3 SWAP2 POP POP JUMP JUMPDEST PUSH0 PUSH3 0x352 DUP4 DUP4 PUSH3 0x327 JUMP JUMPDEST SWAP2 POP DUP3 PUSH1 0x2 MUL DUP3 OR SWAP1 POP SWAP3 SWAP2 POP POP JUMP JUMPDEST PUSH3 0x36D DUP3 PUSH3 0xFE JUMP JUMPDEST PUSH8 0xFFFFFFFFFFFFFFFF DUP2 GT ISZERO PUSH3 0x389 JUMPI PUSH3 0x388 PUSH3 0x108 JUMP JUMPDEST JUMPDEST PUSH3 0x395 DUP3 SLOAD PUSH3 0x162 JUMP JUMPDEST PUSH3 0x3A2 DUP3 DUP3 DUP6 PUSH3 0x2CB JUMP JUMPDEST PUSH0 PUSH1 0x20 SWAP1 POP PUSH1 0x1F DUP4 GT PUSH1 0x1 DUP2 EQ PUSH3 0x3D8 JUMPI PUSH0 DUP5 ISZERO PUSH3 0x3C3 JUMPI DUP3 DUP8 ADD MLOAD SWAP1 POP JUMPDEST PUSH3 0x3CF DUP6 DUP3 PUSH3 0x345 JUMP JUMPDEST DUP7 SSTORE POP PUSH3 0x43E JUMP JUMPDEST PUSH1 0x1F NOT DUP5 AND PUSH3 0x3E8 DUP7 PUSH3 0x196 JUMP JUMPDEST PUSH0 JUMPDEST DUP3 DUP2 LT ISZERO PUSH3 0x411 JUMPI DUP5 DUP10 ADD MLOAD DUP3 SSTORE PUSH1 0x1 DUP3 ADD SWAP2 POP PUSH1 0x20 DUP6 ADD SWAP5 POP PUSH1 0x20 DUP2 ADD SWAP1 POP PUSH3 0x3EA JUMP JUMPDEST DUP7 DUP4 LT ISZERO PUSH3 0x431 JUMPI DUP5 DUP10 ADD MLOAD PUSH3 0x42D PUSH1 0x1F DUP10 AND DUP3 PUSH3 0x327 JUMP JUMPDEST DUP4 SSTORE POP JUMPDEST PUSH1 0x1 PUSH1 0x2 DUP9 MUL ADD DUP9 SSTORE POP POP POP JUMPDEST POP POP POP POP POP POP JUMP JUMPDEST PUSH32 0x4E487B7100000000000000000000000000000000000000000000000000000000 PUSH0 MSTORE PUSH1 0x21 PUSH1 0x4 MSTORE PUSH1 0x24 PUSH0 REVERT JUMPDEST PUSH2 0x3375 DUP1 PUSH3 0x481 PUSH0 CODECOPY PUSH0 RETURN INVALID PUSH1 0x80 PUSH1 0x40 MSTORE CALLVALUE DUP1 ISZERO PUSH2 0xF JUMPI PUSH0 DUP1 REVERT JUMPDEST POP PUSH1 0x4 CALLDATASIZE LT PUSH2 0xB1 JUMPI PUSH0 CALLDATALOAD PUSH1 0xE0 SHR DUP1 PUSH4 0x81C40715 GT PUSH2 0x6F JUMPI DUP1 PUSH4 0x81C40715 EQ PUSH2 0x17D JUMPI DUP1 PUSH4 0xB31E1D4D EQ PUSH2 0x19B JUMPI DUP1 PUSH4 0xC3403DDF EQ PUSH2 0x1B7 JUMPI DUP1 PUSH4 0xD1E05ABB EQ PUSH2 0x1C1 JUMPI DUP1 PUSH4 0xF9E7284F EQ PUSH2 0x1DF JUMPI DUP1 PUSH4 0xFCAB6679 EQ PUSH2 0x1FD JUMPI PUSH2 0xB1 JUMP JUMPDEST DUP1 PUSH3 0x98A51A EQ PUSH2 0xB5 JUMPI DUP1 PUSH4 0xA03FFF1 EQ PUSH2 0xE9 JUMPI DUP1 PUSH4 0x19F41A40 EQ PUSH2 0x11D JUMPI DUP1 PUSH4 0x1EC6B60A EQ PUSH2 0x13B JUMPI DUP1 PUSH4 0x233B672D EQ PUSH2 0x145 JUMPI DUP1 PUSH4 0x38DB6DD3 EQ PUSH2 0x161 JUMPI JUMPDEST PUSH0 DUP1 REVERT JUMPDEST PUSH2 0xCF PUSH1 0x4 DUP1 CALLDATASIZE SUB DUP2 ADD SWAP1 PUSH2 0xCA SWAP2 SWAP1 PUSH2 0x1F3D JUMP JUMPDEST PUSH2 0x219 JUMP JUMPDEST PUSH1 0x40 MLOAD PUSH2 0xE0 SWAP6 SWAP5 SWAP4 SWAP3 SWAP2 SWAP1 PUSH2 0x1FA9 JUMP JUMPDEST PUSH1 0x40 MLOAD DUP1 SWAP2 SUB SWAP1 RETURN JUMPDEST PUSH2 0x103 PUSH1 0x4 DUP1 CALLDATASIZE SUB DUP2 ADD SWAP1 PUSH2 0xFE SWAP2 SWAP1 PUSH2 0x1F3D JUMP JUMPDEST PUSH2 0x282 JUMP JUMPDEST PUSH1 0x40 MLOAD PUSH2 0x114 SWAP6 SWAP5 SWAP4 SWAP3 SWAP2 SWAP1 PUSH2 0x2084 JUMP JUMPDEST PUSH1 0x40 MLOAD DUP1 SWAP2 SUB SWAP1 RETURN JUMPDEST PUSH2 0x125 PUSH2 0x3EB JUMP JUMPDEST PUSH1 0x40 MLOAD PUSH2 0x132 SWAP2 SWAP1 PUSH2 0x20E3 JUMP JUMPDEST PUSH1 0x40 MLOAD DUP1 SWAP2 SUB SWAP1 RETURN JUMPDEST PUSH2 0x143 PUSH2 0x47B JUMP JUMPDEST STOP JUMPDEST PUSH2 0x15F PUSH1 0x4 DUP1 CALLDATASIZE SUB DUP2 ADD SWAP1 PUSH2 0x15A SWAP2 SWAP1 PUSH2 0x212D JUMP JUMPDEST PUSH2 0x586 JUMP JUMPDEST STOP JUMPDEST PUSH2 0x17B PUSH1 0x4 DUP1 CALLDATASIZE SUB DUP2 ADD SWAP1 PUSH2 0x176 SWAP2 SWAP1 PUSH2 0x1F3D JUMP JUMPDEST PUSH2 0xAD5 JUMP JUMPDEST STOP JUMPDEST PUSH2 0x185 PUSH2 0xE84 JUMP JUMPDEST PUSH1 0x40 MLOAD PUSH2 0x192 SWAP2 SWAP1 PUSH2 0x2315 JUMP JUMPDEST PUSH1 0x40 MLOAD DUP1 SWAP2 SUB SWAP1 RETURN JUMPDEST PUSH2 0x1B5 PUSH1 0x4 DUP1 CALLDATASIZE SUB DUP2 ADD SWAP1 PUSH2 0x1B0 SWAP2 SWAP1 PUSH2 0x1F3D JUMP JUMPDEST PUSH2 0x1078 JUMP JUMPDEST STOP JUMPDEST PUSH2 0x1BF PUSH2 0x16ED JUMP JUMPDEST STOP JUMPDEST PUSH2 0x1C9 PUSH2 0x17E7 JUMP JUMPDEST PUSH1 0x40 MLOAD PUSH2 0x1D6 SWAP2 SWAP1 PUSH2 0x20E3 JUMP JUMPDEST PUSH1 0x40 MLOAD DUP1 SWAP2 SUB SWAP1 RETURN JUMPDEST PUSH2 0x1E7 PUSH2 0x1978 JUMP JUMPDEST PUSH1 0x40 MLOAD PUSH2 0x1F4 SWAP2 SWAP1 PUSH2 0x2443 JUMP JUMPDEST PUSH1 0x40 MLOAD DUP1 SWAP2 SUB SWAP1 RETURN JUMPDEST PUSH2 0x217 PUSH1 0x4 DUP1 CALLDATASIZE SUB DUP2 ADD SWAP1 PUSH2 0x212 SWAP2 SWAP1 PUSH2 0x258F JUMP JUMPDEST PUSH2 0x1A70 JUMP JUMPDEST STOP JUMPDEST PUSH1 0xA PUSH1 0x20 MSTORE DUP1 PUSH0 MSTORE PUSH1 0x40 PUSH0 KECCAK256 PUSH0 SWAP2 POP SWAP1 POP DUP1 PUSH0 ADD PUSH0 SWAP1 SLOAD SWAP1 PUSH2 0x100 EXP SWAP1 DIV PUSH20 0xFFFFFFFFFFFFFFFFFFFFFFFFFFFFFFFFFFFFFFFF AND SWAP1 DUP1 PUSH0 ADD PUSH1 0x14 SWAP1 SLOAD SWAP1 PUSH2 0x100 EXP SWAP1 DIV PUSH1 0xFF AND SWAP1 DUP1 PUSH0 ADD PUSH1 0x15 SWAP1 SLOAD SWAP1 PUSH2 0x100 EXP SWAP1 DIV PUSH1 0xFF AND SWAP1 DUP1 PUSH1 0x1 ADD SLOAD SWAP1 DUP1 PUSH1 0x2 ADD SLOAD SWAP1 POP DUP6 JUMP JUMPDEST PUSH1 0x8 PUSH1 0x20 MSTORE DUP1 PUSH0 MSTORE PUSH1 0x40 PUSH0 KECCAK256 PUSH0 SWAP2 POP SWAP1 POP DUP1 PUSH0 ADD PUSH0 SWAP1 SLOAD SWAP1 PUSH2 0x100 EXP SWAP1 DIV PUSH20 0xFFFFFFFFFFFFFFFFFFFFFFFFFFFFFFFFFFFFFFFF AND SWAP1 DUP1 PUSH1 0x1 ADD DUP1 SLOAD PUSH2 0x2C6 SWAP1 PUSH2 0x2644 JUMP JUMPDEST DUP1 PUSH1 0x1F ADD PUSH1 0x20 DUP1 SWAP2 DIV MUL PUSH1 0x20 ADD PUSH1 0x40 MLOAD SWAP1 DUP2 ADD PUSH1 0x40 MSTORE DUP1 SWAP3 SWAP2 SWAP1 DUP2 DUP2 MSTORE PUSH1 0x20 ADD DUP3 DUP1 SLOAD PUSH2 0x2F2 SWAP1 PUSH2 0x2644 JUMP JUMPDEST DUP1 ISZERO PUSH2 0x33D JUMPI DUP1 PUSH1 0x1F LT PUSH2 0x314 JUMPI PUSH2 0x100 DUP1 DUP4 SLOAD DIV MUL DUP4 MSTORE SWAP2 PUSH1 0x20 ADD SWAP2 PUSH2 0x33D JUMP JUMPDEST DUP3 ADD SWAP2 SWAP1 PUSH0 MSTORE PUSH1 0x20 PUSH0 KECCAK256 SWAP1 JUMPDEST DUP2 SLOAD DUP2 MSTORE SWAP1 PUSH1 0x1 ADD SWAP1 PUSH1 0x20 ADD DUP1 DUP4 GT PUSH2 0x320 JUMPI DUP3 SWAP1 SUB PUSH1 0x1F AND DUP3 ADD SWAP2 JUMPDEST POP POP POP POP POP SWAP1 DUP1 PUSH1 0x2 ADD DUP1 SLOAD PUSH2 0x352 SWAP1 PUSH2 0x2644 JUMP JUMPDEST DUP1 PUSH1 0x1F ADD PUSH1 0x20 DUP1 SWAP2 DIV MUL PUSH1 0x20 ADD PUSH1 0x40 MLOAD SWAP1 DUP2 ADD PUSH1 0x40 MSTORE DUP1 SWAP3 SWAP2 SWAP1 DUP2 DUP2 MSTORE PUSH1 0x20 ADD DUP3 DUP1 SLOAD PUSH2 0x37E SWAP1 PUSH2 0x2644 JUMP JUMPDEST DUP1 ISZERO PUSH2 0x3C9 JUMPI DUP1 PUSH1 0x1F LT PUSH2 0x3A0 JUMPI PUSH2 0x100 DUP1 DUP4 SLOAD DIV MUL DUP4 MSTORE SWAP2 PUSH1 0x20 ADD SWAP2 PUSH2 0x3C9 JUMP JUMPDEST DUP3 ADD SWAP2 SWAP1 PUSH0 MSTORE PUSH1 0x20 PUSH0 KECCAK256 SWAP1 JUMPDEST DUP2 SLOAD DUP2 MSTORE SWAP1 PUSH1 0x1 ADD SWAP1 PUSH1 0x20 ADD DUP1 DUP4 GT PUSH2 0x3AC JUMPI DUP3 SWAP1 SUB PUSH1 0x1F AND DUP3 ADD SWAP2 JUMPDEST POP POP POP POP POP SWAP1 DUP1 PUSH1 0x3 ADD PUSH0 SWAP1 SLOAD SWAP1 PUSH2 0x100 EXP SWAP1 DIV PUSH1 0xFF AND SWAP1 DUP1 PUSH1 0x4 ADD SLOAD SWAP1 POP DUP6 JUMP JUMPDEST PUSH1 0x60 PUSH1 0x3 DUP1 SLOAD PUSH2 0x3FA SWAP1 PUSH2 0x2644 JUMP JUMPDEST DUP1 PUSH1 0x1F ADD PUSH1 0x20 DUP1 SWAP2 DIV MUL PUSH1 0x20 ADD PUSH1 0x40 MLOAD SWAP1 DUP2 ADD PUSH1 0x40 MSTORE DUP1 SWAP3 SWAP2 SWAP1 DUP2 DUP2 MSTORE PUSH1 0x20 ADD DUP3 DUP1 SLOAD PUSH2 0x426 SWAP1 PUSH2 0x2644 JUMP JUMPDEST DUP1 ISZERO PUSH2 0x471 JUMPI DUP1 PUSH1 0x1F LT PUSH2 0x448 JUMPI PUSH2 0x100 DUP1 DUP4 SLOAD DIV MUL DUP4 MSTORE SWAP2 PUSH1 0x20 ADD SWAP2 PUSH2 0x471 JUMP JUMPDEST DUP3 ADD SWAP2 SWAP1 PUSH0 MSTORE PUSH1 0x20 PUSH0 KECCAK256 SWAP1 JUMPDEST DUP2 SLOAD DUP2 MSTORE SWAP1 PUSH1 0x1 ADD SWAP1 PUSH1 0x20 ADD DUP1 DUP4 GT PUSH2 0x454 JUMPI DUP3 SWAP1 SUB PUSH1 0x1F AND DUP3 ADD SWAP2 JUMPDEST POP POP POP POP POP SWAP1 POP SWAP1 JUMP JUMPDEST CALLER PUSH20 0xFFFFFFFFFFFFFFFFFFFFFFFFFFFFFFFFFFFFFFFF AND PUSH0 DUP1 SLOAD SWAP1 PUSH2 0x100 EXP SWAP1 DIV PUSH20 0xFFFFFFFFFFFFFFFFFFFFFFFFFFFFFFFFFFFFFFFF AND PUSH20 0xFFFFFFFFFFFFFFFFFFFFFFFFFFFFFFFFFFFFFFFF AND EQ DUP1 ISZERO PUSH2 0x4D6 JUMPI POP PUSH0 PUSH1 0x2 SLOAD EQ JUMPDEST DUP1 ISZERO PUSH2 0x4F3 JUMPI POP PUSH0 ISZERO ISZERO PUSH0 PUSH1 0x14 SWAP1 SLOAD SWAP1 PUSH2 0x100 EXP SWAP1 DIV PUSH1 0xFF AND ISZERO ISZERO EQ JUMPDEST PUSH2 0x4FB JUMPI PUSH0 DUP1 REVERT JUMPDEST PUSH1 0x1 PUSH0 PUSH1 0x14 PUSH2 0x100 EXP DUP2 SLOAD DUP2 PUSH1 0xFF MUL NOT AND SWAP1 DUP4 ISZERO ISZERO MUL OR SWAP1 SSTORE POP PUSH1 0x1 PUSH1 0x7 PUSH0 PUSH2 0x100 EXP DUP2 SLOAD DUP2 PUSH1 0xFF MUL NOT AND SWAP1 DUP4 PUSH1 0x2 DUP2 GT ISZERO PUSH2 0x53A JUMPI PUSH2 0x539 PUSH2 0x2674 JUMP JUMPDEST JUMPDEST MUL OR SWAP1 SSTORE POP PUSH1 0x40 MLOAD DUP1 PUSH1 0x40 ADD PUSH1 0x40 MSTORE DUP1 PUSH1 0x8 DUP2 MSTORE PUSH1 0x20 ADD PUSH32 0x4F6E20476F696E67000000000000000000000000000000000000000000000000 DUP2 MSTORE POP PUSH1 0x3 SWAP1 DUP2 PUSH2 0x583 SWAP2 SWAP1 PUSH2 0x283E JUMP JUMPDEST POP JUMP JUMPDEST PUSH1 0x1 ISZERO ISZERO PUSH2 0x593 CALLER PUSH2 0x1E21 JUMP JUMPDEST ISZERO ISZERO EQ PUSH2 0x5D5 JUMPI PUSH1 0x40 MLOAD PUSH32 0x8C379A000000000000000000000000000000000000000000000000000000000 DUP2 MSTORE PUSH1 0x4 ADD PUSH2 0x5CC SWAP1 PUSH2 0x2957 JUMP JUMPDEST PUSH1 0x40 MLOAD DUP1 SWAP2 SUB SWAP1 REVERT JUMPDEST PUSH0 ISZERO ISZERO PUSH1 0xA PUSH0 CALLER PUSH20 0xFFFFFFFFFFFFFFFFFFFFFFFFFFFFFFFFFFFFFFFF AND PUSH20 0xFFFFFFFFFFFFFFFFFFFFFFFFFFFFFFFFFFFFFFFF AND DUP2 MSTORE PUSH1 0x20 ADD SWAP1 DUP2 MSTORE PUSH1 0x20 ADD PUSH0 KECCAK256 PUSH0 ADD PUSH1 0x15 SWAP1 SLOAD SWAP1 PUSH2 0x100 EXP SWAP1 DIV PUSH1 0xFF AND ISZERO ISZERO EQ DUP1 PUSH2 0x673 JUMPI POP PUSH0 PUSH1 0xA PUSH0 CALLER PUSH20 0xFFFFFFFFFFFFFFFFFFFFFFFFFFFFFFFFFFFFFFFF AND PUSH20 0xFFFFFFFFFFFFFFFFFFFFFFFFFFFFFFFFFFFFFFFF AND DUP2 MSTORE PUSH1 0x20 ADD SWAP1 DUP2 MSTORE PUSH1 0x20 ADD PUSH0 KECCAK256 PUSH1 0x1 ADD SLOAD EQ ISZERO JUMPDEST PUSH2 0x6B2 JUMPI PUSH1 0x40 MLOAD PUSH32 0x8C379A000000000000000000000000000000000000000000000000000000000 DUP2 MSTORE PUSH1 0x4 ADD PUSH2 0x6A9 SWAP1 PUSH2 0x29BF JUMP JUMPDEST PUSH1 0x40 MLOAD DUP1 SWAP2 SUB SWAP1 REVERT JUMPDEST PUSH1 0x1 ISZERO ISZERO PUSH0 PUSH1 0x14 SWAP1 SLOAD SWAP1 PUSH2 0x100 EXP SWAP1 DIV PUSH1 0xFF AND ISZERO ISZERO EQ PUSH2 0x707 JUMPI PUSH1 0x40 MLOAD PUSH32 0x8C379A000000000000000000000000000000000000000000000000000000000 DUP2 MSTORE PUSH1 0x4 ADD PUSH2 0x6FE SWAP1 PUSH2 0x2A27 JUMP JUMPDEST PUSH1 0x40 MLOAD DUP1 SWAP2 SUB SWAP1 REVERT JUMPDEST PUSH0 PUSH1 0xA PUSH0 CALLER PUSH20 0xFFFFFFFFFFFFFFFFFFFFFFFFFFFFFFFFFFFFFFFF AND PUSH20 0xFFFFFFFFFFFFFFFFFFFFFFFFFFFFFFFFFFFFFFFF AND DUP2 MSTORE PUSH1 0x20 ADD SWAP1 DUP2 MSTORE PUSH1 0x20 ADD PUSH0 KECCAK256 PUSH1 0x2 ADD SLOAD SWAP1 POP PUSH1 0x8 PUSH0 DUP4 PUSH20 0xFFFFFFFFFFFFFFFFFFFFFFFFFFFFFFFFFFFFFFFF AND PUSH20 0xFFFFFFFFFFFFFFFFFFFFFFFFFFFFFFFFFFFFFFFF AND DUP2 MSTORE PUSH1 0x20 ADD SWAP1 DUP2 MSTORE PUSH1 0x20 ADD PUSH0 KECCAK256 PUSH1 0x4 ADD PUSH0 DUP2 SLOAD DUP1 SWAP3 SWAP2 SWAP1 PUSH2 0x79B SWAP1 PUSH2 0x2A72 JUMP JUMPDEST SWAP2 SWAP1 POP SSTORE POP PUSH1 0x8 PUSH0 DUP4 PUSH20 0xFFFFFFFFFFFFFFFFFFFFFFFFFFFFFFFFFFFFFFFF AND PUSH20 0xFFFFFFFFFFFFFFFFFFFFFFFFFFFFFFFFFFFFFFFF AND DUP2 MSTORE PUSH1 0x20 ADD SWAP1 DUP2 MSTORE PUSH1 0x20 ADD PUSH0 KECCAK256 PUSH1 0x9 DUP5 DUP2 SLOAD DUP2 LT PUSH2 0x7F1 JUMPI PUSH2 0x7F0 PUSH2 0x2AB9 JUMP JUMPDEST JUMPDEST SWAP1 PUSH0 MSTORE PUSH1 0x20 PUSH0 KECCAK256 SWAP1 PUSH1 0x5 MUL ADD PUSH0 DUP3 ADD PUSH0 SWAP1 SLOAD SWAP1 PUSH2 0x100 EXP SWAP1 DIV PUSH20 0xFFFFFFFFFFFFFFFFFFFFFFFFFFFFFFFFFFFFFFFF AND DUP2 PUSH0 ADD PUSH0 PUSH2 0x100 EXP DUP2 SLOAD DUP2 PUSH20 0xFFFFFFFFFFFFFFFFFFFFFFFFFFFFFFFFFFFFFFFF MUL NOT AND SWAP1 DUP4 PUSH20 0xFFFFFFFFFFFFFFFFFFFFFFFFFFFFFFFFFFFFFFFF AND MUL OR SWAP1 SSTORE POP PUSH1 0x1 DUP3 ADD DUP2 PUSH1 0x1 ADD SWAP1 DUP2 PUSH2 0x874 SWAP2 SWAP1 PUSH2 0x2AFB JUMP JUMPDEST POP PUSH1 0x2 DUP3 ADD DUP2 PUSH1 0x2 ADD SWAP1 DUP2 PUSH2 0x889 SWAP2 SWAP1 PUSH2 0x2AFB JUMP JUMPDEST POP PUSH1 0x3 DUP3 ADD PUSH0 SWAP1 SLOAD SWAP1 PUSH2 0x100 EXP SWAP1 DIV PUSH1 0xFF AND DUP2 PUSH1 0x3 ADD PUSH0 PUSH2 0x100 EXP DUP2 SLOAD DUP2 PUSH1 0xFF MUL NOT AND SWAP1 DUP4 ISZERO ISZERO MUL OR SWAP1 SSTORE POP PUSH1 0x4 DUP3 ADD SLOAD DUP2 PUSH1 0x4 ADD SSTORE SWAP1 POP POP PUSH1 0x4 PUSH0 DUP2 SLOAD DUP1 SWAP3 SWAP2 SWAP1 PUSH2 0x8D4 SWAP1 PUSH2 0x2A72 JUMP JUMPDEST SWAP2 SWAP1 POP SSTORE POP PUSH1 0x9 DUP4 DUP2 SLOAD DUP2 LT PUSH2 0x8ED JUMPI PUSH2 0x8EC PUSH2 0x2AB9 JUMP JUMPDEST JUMPDEST SWAP1 PUSH0 MSTORE PUSH1 0x20 PUSH0 KECCAK256 SWAP1 PUSH1 0x5 MUL ADD PUSH1 0x4 ADD SLOAD PUSH1 0x6 SLOAD LT ISZERO PUSH2 0x963 JUMPI PUSH1 0x9 DUP4 DUP2 SLOAD DUP2 LT PUSH2 0x91A JUMPI PUSH2 0x919 PUSH2 0x2AB9 JUMP JUMPDEST JUMPDEST SWAP1 PUSH0 MSTORE PUSH1 0x20 PUSH0 KECCAK256 SWAP1 PUSH1 0x5 MUL ADD PUSH1 0x4 ADD SLOAD PUSH1 0x6 DUP2 SWAP1 SSTORE POP PUSH1 0x9 DUP4 DUP2 SLOAD DUP2 LT PUSH2 0x944 JUMPI PUSH2 0x943 PUSH2 0x2AB9 JUMP JUMPDEST JUMPDEST SWAP1 PUSH0 MSTORE PUSH1 0x20 PUSH0 KECCAK256 SWAP1 PUSH1 0x5 MUL ADD PUSH1 0x1 ADD PUSH1 0x5 SWAP1 DUP2 PUSH2 0x961 SWAP2 SWAP1 PUSH2 0x2C07 JUMP JUMPDEST POP JUMPDEST PUSH0 PUSH1 0xA PUSH0 CALLER PUSH20 0xFFFFFFFFFFFFFFFFFFFFFFFFFFFFFFFFFFFFFFFF AND PUSH20 0xFFFFFFFFFFFFFFFFFFFFFFFFFFFFFFFFFFFFFFFF AND DUP2 MSTORE PUSH1 0x20 ADD SWAP1 DUP2 MSTORE PUSH1 0x20 ADD PUSH0 KECCAK256 PUSH1 0x1 ADD SLOAD EQ PUSH2 0xA3C JUMPI PUSH1 0xA PUSH0 CALLER PUSH20 0xFFFFFFFFFFFFFFFFFFFFFFFFFFFFFFFFFFFFFFFF AND PUSH20 0xFFFFFFFFFFFFFFFFFFFFFFFFFFFFFFFFFFFFFFFF AND DUP2 MSTORE PUSH1 0x20 ADD SWAP1 DUP2 MSTORE PUSH1 0x20 ADD PUSH0 KECCAK256 PUSH1 0x1 ADD PUSH0 DUP2 SLOAD DUP1 SWAP3 SWAP2 SWAP1 PUSH2 0x9FA SWAP1 PUSH2 0x2CEC JUMP JUMPDEST SWAP2 SWAP1 POP SSTORE POP PUSH1 0xB DUP2 DUP2 SLOAD DUP2 LT PUSH2 0xA13 JUMPI PUSH2 0xA12 PUSH2 0x2AB9 JUMP JUMPDEST JUMPDEST SWAP1 PUSH0 MSTORE PUSH1 0x20 PUSH0 KECCAK256 SWAP1 PUSH1 0x3 MUL ADD PUSH1 0x1 ADD PUSH0 DUP2 SLOAD DUP1 SWAP3 SWAP2 SWAP1 PUSH2 0xA32 SWAP1 PUSH2 0x2CEC JUMP JUMPDEST SWAP2 SWAP1 POP SSTORE POP PUSH2 0xAD0 JUMP JUMPDEST PUSH1 0x1 PUSH1 0xA PUSH0 CALLER PUSH20 0xFFFFFFFFFFFFFFFFFFFFFFFFFFFFFFFFFFFFFFFF AND PUSH20 0xFFFFFFFFFFFFFFFFFFFFFFFFFFFFFFFFFFFFFFFF AND DUP2 MSTORE PUSH1 0x20 ADD SWAP1 DUP2 MSTORE PUSH1 0x20 ADD PUSH0 KECCAK256 PUSH0 ADD PUSH1 0x15 PUSH2 0x100 EXP DUP2 SLOAD DUP2 PUSH1 0xFF MUL NOT AND SWAP1 DUP4 ISZERO ISZERO MUL OR SWAP1 SSTORE POP PUSH1 0x1 PUSH1 0xB DUP3 DUP2 SLOAD DUP2 LT PUSH2 0xAAA JUMPI PUSH2 0xAA9 PUSH2 0x2AB9 JUMP JUMPDEST JUMPDEST SWAP1 PUSH0 MSTORE PUSH1 0x20 PUSH0 KECCAK256 SWAP1 PUSH1 0x3 MUL ADD PUSH0 ADD PUSH1 0x15 PUSH2 0x100 EXP DUP2 SLOAD DUP2 PUSH1 0xFF MUL NOT AND SWAP1 DUP4 ISZERO ISZERO MUL OR SWAP1 SSTORE POP JUMPDEST POP POP POP JUMP JUMPDEST PUSH0 ISZERO ISZERO PUSH0 PUSH1 0x14 SWAP1 SLOAD SWAP1 PUSH2 0x100 EXP SWAP1 DIV PUSH1 0xFF AND ISZERO ISZERO EQ PUSH2 0xAF2 JUMPI PUSH0 DUP1 REVERT JUMPDEST CALLER PUSH20 0xFFFFFFFFFFFFFFFFFFFFFFFFFFFFFFFFFFFFFFFF AND PUSH0 DUP1 SLOAD SWAP1 PUSH2 0x100 EXP SWAP1 DIV PUSH20 0xFFFFFFFFFFFFFFFFFFFFFFFFFFFFFFFFFFFFFFFF AND PUSH20 0xFFFFFFFFFFFFFFFFFFFFFFFFFFFFFFFFFFFFFFFF AND EQ PUSH2 0xB7F JUMPI PUSH1 0x40 MLOAD PUSH32 0x8C379A000000000000000000000000000000000000000000000000000000000 DUP2 MSTORE PUSH1 0x4 ADD PUSH2 0xB76 SWAP1 PUSH2 0x2D5D JUMP JUMPDEST PUSH1 0x40 MLOAD DUP1 SWAP2 SUB SWAP1 REVERT JUMPDEST PUSH0 DUP1 SLOAD SWAP1 PUSH2 0x100 EXP SWAP1 DIV PUSH20 0xFFFFFFFFFFFFFFFFFFFFFFFFFFFFFFFFFFFFFFFF AND PUSH20 0xFFFFFFFFFFFFFFFFFFFFFFFFFFFFFFFFFFFFFFFF AND DUP2 PUSH20 0xFFFFFFFFFFFFFFFFFFFFFFFFFFFFFFFFFFFFFFFF AND SUB PUSH2 0xC0C JUMPI PUSH1 0x40 MLOAD PUSH32 0x8C379A000000000000000000000000000000000000000000000000000000000 DUP2 MSTORE PUSH1 0x4 ADD PUSH2 0xC03 SWAP1 PUSH2 0x2DC5 JUMP JUMPDEST PUSH1 0x40 MLOAD DUP1 SWAP2 SUB SWAP1 REVERT JUMPDEST PUSH0 ISZERO ISZERO PUSH1 0xA PUSH0 DUP4 PUSH20 0xFFFFFFFFFFFFFFFFFFFFFFFFFFFFFFFFFFFFFFFF AND PUSH20 0xFFFFFFFFFFFFFFFFFFFFFFFFFFFFFFFFFFFFFFFF AND DUP2 MSTORE PUSH1 0x20 ADD SWAP1 DUP2 MSTORE PUSH1 0x20 ADD PUSH0 KECCAK256 PUSH0 ADD PUSH1 0x14 SWAP1 SLOAD SWAP1 PUSH2 0x100 EXP SWAP1 DIV PUSH1 0xFF AND ISZERO ISZERO EQ PUSH2 0xC9E JUMPI PUSH1 0x40 MLOAD PUSH32 0x8C379A000000000000000000000000000000000000000000000000000000000 DUP2 MSTORE PUSH1 0x4 ADD PUSH2 0xC95 SWAP1 PUSH2 0x2E2D JUMP JUMPDEST PUSH1 0x40 MLOAD DUP1 SWAP2 SUB SWAP1 REVERT JUMPDEST PUSH0 PUSH1 0x40 MLOAD DUP1 PUSH1 0xA0 ADD PUSH1 0x40 MSTORE DUP1 DUP4 PUSH20 0xFFFFFFFFFFFFFFFFFFFFFFFFFFFFFFFFFFFFFFFF AND DUP2 MSTORE PUSH1 0x20 ADD PUSH1 0x1 ISZERO ISZERO DUP2 MSTORE PUSH1 0x20 ADD PUSH0 ISZERO ISZERO DUP2 MSTORE PUSH1 0x20 ADD PUSH0 DUP2 MSTORE PUSH1 0x20 ADD PUSH1 0xB DUP1 SLOAD SWAP1 POP DUP2 MSTORE POP SWAP1 POP DUP1 PUSH1 0xA PUSH0 DUP5 PUSH20 0xFFFFFFFFFFFFFFFFFFFFFFFFFFFFFFFFFFFFFFFF AND PUSH20 0xFFFFFFFFFFFFFFFFFFFFFFFFFFFFFFFFFFFFFFFF AND DUP2 MSTORE PUSH1 0x20 ADD SWAP1 DUP2 MSTORE PUSH1 0x20 ADD PUSH0 KECCAK256 PUSH0 DUP3 ADD MLOAD DUP2 PUSH0 ADD PUSH0 PUSH2 0x100 EXP DUP2 SLOAD DUP2 PUSH20 0xFFFFFFFFFFFFFFFFFFFFFFFFFFFFFFFFFFFFFFFF MUL NOT AND SWAP1 DUP4 PUSH20 0xFFFFFFFFFFFFFFFFFFFFFFFFFFFFFFFFFFFFFFFF AND MUL OR SWAP1 SSTORE POP PUSH1 0x20 DUP3 ADD MLOAD DUP2 PUSH0 ADD PUSH1 0x14 PUSH2 0x100 EXP DUP2 SLOAD DUP2 PUSH1 0xFF MUL NOT AND SWAP1 DUP4 ISZERO ISZERO MUL OR SWAP1 SSTORE POP PUSH1 0x40 DUP3 ADD MLOAD DUP2 PUSH0 ADD PUSH1 0x15 PUSH2 0x100 EXP DUP2 SLOAD DUP2 PUSH1 0xFF MUL NOT AND SWAP1 DUP4 ISZERO ISZERO MUL OR SWAP1 SSTORE POP PUSH1 0x60 DUP3 ADD MLOAD DUP2 PUSH1 0x1 ADD SSTORE PUSH1 0x80 DUP3 ADD MLOAD DUP2 PUSH1 0x2 ADD SSTORE SWAP1 POP POP PUSH1 0xB DUP2 SWAP1 DUP1 PUSH1 0x1 DUP2 SLOAD ADD DUP1 DUP3 SSTORE DUP1 SWAP2 POP POP PUSH1 0x1 SWAP1 SUB SWAP1 PUSH0 MSTORE PUSH1 0x20 PUSH0 KECCAK256 SWAP1 PUSH1 0x3 MUL ADD PUSH0 SWAP1 SWAP2 SWAP1 SWAP2 SWAP1 SWAP2 POP PUSH0 DUP3 ADD MLOAD DUP2 PUSH0 ADD PUSH0 PUSH2 0x100 EXP DUP2 SLOAD DUP2 PUSH20 0xFFFFFFFFFFFFFFFFFFFFFFFFFFFFFFFFFFFFFFFF MUL NOT AND SWAP1 DUP4 PUSH20 0xFFFFFFFFFFFFFFFFFFFFFFFFFFFFFFFFFFFFFFFF AND MUL OR SWAP1 SSTORE POP PUSH1 0x20 DUP3 ADD MLOAD DUP2 PUSH0 ADD PUSH1 0x14 PUSH2 0x100 EXP DUP2 SLOAD DUP2 PUSH1 0xFF MUL NOT AND SWAP1 DUP4 ISZERO ISZERO MUL OR SWAP1 SSTORE POP PUSH1 0x40 DUP3 ADD MLOAD DUP2 PUSH0 ADD PUSH1 0x15 PUSH2 0x100 EXP DUP2 SLOAD DUP2 PUSH1 0xFF MUL NOT AND SWAP1 DUP4 ISZERO ISZERO MUL OR SWAP1 SSTORE POP PUSH1 0x60 DUP3 ADD MLOAD DUP2 PUSH1 0x1 ADD SSTORE PUSH1 0x80 DUP3 ADD MLOAD DUP2 PUSH1 0x2 ADD SSTORE POP POP POP POP JUMP JUMPDEST PUSH1 0x60 PUSH1 0x9 DUP1 SLOAD DUP1 PUSH1 0x20 MUL PUSH1 0x20 ADD PUSH1 0x40 MLOAD SWAP1 DUP2 ADD PUSH1 0x40 MSTORE DUP1 SWAP3 SWAP2 SWAP1 DUP2 DUP2 MSTORE PUSH1 0x20 ADD PUSH0 SWAP1 JUMPDEST DUP3 DUP3 LT ISZERO PUSH2 0x106F JUMPI DUP4 DUP3 SWAP1 PUSH0 MSTORE PUSH1 0x20 PUSH0 KECCAK256 SWAP1 PUSH1 0x5 MUL ADD PUSH1 0x40 MLOAD DUP1 PUSH1 0xA0 ADD PUSH1 0x40 MSTORE SWAP1 DUP2 PUSH0 DUP3 ADD PUSH0 SWAP1 SLOAD SWAP1 PUSH2 0x100 EXP SWAP1 DIV PUSH20 0xFFFFFFFFFFFFFFFFFFFFFFFFFFFFFFFFFFFFFFFF AND PUSH20 0xFFFFFFFFFFFFFFFFFFFFFFFFFFFFFFFFFFFFFFFF AND PUSH20 0xFFFFFFFFFFFFFFFFFFFFFFFFFFFFFFFFFFFFFFFF AND DUP2 MSTORE PUSH1 0x20 ADD PUSH1 0x1 DUP3 ADD DUP1 SLOAD PUSH2 0xF2C SWAP1 PUSH2 0x2644 JUMP JUMPDEST DUP1 PUSH1 0x1F ADD PUSH1 0x20 DUP1 SWAP2 DIV MUL PUSH1 0x20 ADD PUSH1 0x40 MLOAD SWAP1 DUP2 ADD PUSH1 0x40 MSTORE DUP1 SWAP3 SWAP2 SWAP1 DUP2 DUP2 MSTORE PUSH1 0x20 ADD DUP3 DUP1 SLOAD PUSH2 0xF58 SWAP1 PUSH2 0x2644 JUMP JUMPDEST DUP1 ISZERO PUSH2 0xFA3 JUMPI DUP1 PUSH1 0x1F LT PUSH2 0xF7A JUMPI PUSH2 0x100 DUP1 DUP4 SLOAD DIV MUL DUP4 MSTORE SWAP2 PUSH1 0x20 ADD SWAP2 PUSH2 0xFA3 JUMP JUMPDEST DUP3 ADD SWAP2 SWAP1 PUSH0 MSTORE PUSH1 0x20 PUSH0 KECCAK256 SWAP1 JUMPDEST DUP2 SLOAD DUP2 MSTORE SWAP1 PUSH1 0x1 ADD SWAP1 PUSH1 0x20 ADD DUP1 DUP4 GT PUSH2 0xF86 JUMPI DUP3 SWAP1 SUB PUSH1 0x1F AND DUP3 ADD SWAP2 JUMPDEST POP POP POP POP POP DUP2 MSTORE PUSH1 0x20 ADD PUSH1 0x2 DUP3 ADD DUP1 SLOAD PUSH2 0xFBC SWAP1 PUSH2 0x2644 JUMP JUMPDEST DUP1 PUSH1 0x1F ADD PUSH1 0x20 DUP1 SWAP2 DIV MUL PUSH1 0x20 ADD PUSH1 0x40 MLOAD SWAP1 DUP2 ADD PUSH1 0x40 MSTORE DUP1 SWAP3 SWAP2 SWAP1 DUP2 DUP2 MSTORE PUSH1 0x20 ADD DUP3 DUP1 SLOAD PUSH2 0xFE8 SWAP1 PUSH2 0x2644 JUMP JUMPDEST DUP1 ISZERO PUSH2 0x1033 JUMPI DUP1 PUSH1 0x1F LT PUSH2 0x100A JUMPI PUSH2 0x100 DUP1 DUP4 SLOAD DIV MUL DUP4 MSTORE SWAP2 PUSH1 0x20 ADD SWAP2 PUSH2 0x1033 JUMP JUMPDEST DUP3 ADD SWAP2 SWAP1 PUSH0 MSTORE PUSH1 0x20 PUSH0 KECCAK256 SWAP1 JUMPDEST DUP2 SLOAD DUP2 MSTORE SWAP1 PUSH1 0x1 ADD SWAP1 PUSH1 0x20 ADD DUP1 DUP4 GT PUSH2 0x1016 JUMPI DUP3 SWAP1 SUB PUSH1 0x1F AND DUP3 ADD SWAP2 JUMPDEST POP POP POP POP POP DUP2 MSTORE PUSH1 0x20 ADD PUSH1 0x3 DUP3 ADD PUSH0 SWAP1 SLOAD SWAP1 PUSH2 0x100 EXP SWAP1 DIV PUSH1 0xFF AND ISZERO ISZERO ISZERO ISZERO DUP2 MSTORE PUSH1 0x20 ADD PUSH1 0x4 DUP3 ADD SLOAD DUP2 MSTORE POP POP DUP2 MSTORE PUSH1 0x20 ADD SWAP1 PUSH1 0x1 ADD SWAP1 PUSH2 0xEA7 JUMP JUMPDEST POP POP POP POP SWAP1 POP SWAP1 JUMP JUMPDEST PUSH0 PUSH1 0xA PUSH0 CALLER PUSH20 0xFFFFFFFFFFFFFFFFFFFFFFFFFFFFFFFFFFFFFFFF AND PUSH20 0xFFFFFFFFFFFFFFFFFFFFFFFFFFFFFFFFFFFFFFFF AND DUP2 MSTORE PUSH1 0x20 ADD SWAP1 DUP2 MSTORE PUSH1 0x20 ADD PUSH0 KECCAK256 PUSH1 0x2 ADD SLOAD SWAP1 POP PUSH0 PUSH1 0xA PUSH0 DUP5 PUSH20 0xFFFFFFFFFFFFFFFFFFFFFFFFFFFFFFFFFFFFFFFF AND PUSH20 0xFFFFFFFFFFFFFFFFFFFFFFFFFFFFFFFFFFFFFFFF AND DUP2 MSTORE PUSH1 0x20 ADD SWAP1 DUP2 MSTORE PUSH1 0x20 ADD PUSH0 KECCAK256 PUSH1 0x2 ADD SLOAD SWAP1 POP PUSH1 0x1 PUSH1 0x2 DUP2 GT ISZERO PUSH2 0x1114 JUMPI PUSH2 0x1113 PUSH2 0x2674 JUMP JUMPDEST JUMPDEST PUSH1 0x7 PUSH0 SWAP1 SLOAD SWAP1 PUSH2 0x100 EXP SWAP1 DIV PUSH1 0xFF AND PUSH1 0x2 DUP2 GT ISZERO PUSH2 0x1135 JUMPI PUSH2 0x1134 PUSH2 0x2674 JUMP JUMPDEST JUMPDEST EQ PUSH2 0x1175 JUMPI PUSH1 0x40 MLOAD PUSH32 0x8C379A000000000000000000000000000000000000000000000000000000000 DUP2 MSTORE PUSH1 0x4 ADD PUSH2 0x116C SWAP1 PUSH2 0x2EBB JUMP JUMPDEST PUSH1 0x40 MLOAD DUP1 SWAP2 SUB SWAP1 REVERT JUMPDEST CALLER PUSH20 0xFFFFFFFFFFFFFFFFFFFFFFFFFFFFFFFFFFFFFFFF AND PUSH1 0xB DUP4 DUP2 SLOAD DUP2 LT PUSH2 0x11A0 JUMPI PUSH2 0x119F PUSH2 0x2AB9 JUMP JUMPDEST JUMPDEST SWAP1 PUSH0 MSTORE PUSH1 0x20 PUSH0 KECCAK256 SWAP1 PUSH1 0x3 MUL ADD PUSH0 ADD PUSH0 SWAP1 SLOAD SWAP1 PUSH2 0x100 EXP SWAP1 DIV PUSH20 0xFFFFFFFFFFFFFFFFFFFFFFFFFFFFFFFFFFFFFFFF AND PUSH20 0xFFFFFFFFFFFFFFFFFFFFFFFFFFFFFFFFFFFFFFFF AND EQ PUSH2 0x11ED JUMPI PUSH0 DUP1 REVERT JUMPDEST PUSH0 ISZERO ISZERO PUSH1 0xA PUSH0 CALLER PUSH20 0xFFFFFFFFFFFFFFFFFFFFFFFFFFFFFFFFFFFFFFFF AND PUSH20 0xFFFFFFFFFFFFFFFFFFFFFFFFFFFFFFFFFFFFFFFF AND DUP2 MSTORE PUSH1 0x20 ADD SWAP1 DUP2 MSTORE PUSH1 0x20 ADD PUSH0 KECCAK256 PUSH0 ADD PUSH1 0x15 SWAP1 SLOAD SWAP1 PUSH2 0x100 EXP SWAP1 DIV PUSH1 0xFF AND ISZERO ISZERO EQ DUP1 PUSH2 0x128B JUMPI POP PUSH0 PUSH1 0xA PUSH0 CALLER PUSH20 0xFFFFFFFFFFFFFFFFFFFFFFFFFFFFFFFFFFFFFFFF AND PUSH20 0xFFFFFFFFFFFFFFFFFFFFFFFFFFFFFFFFFFFFFFFF AND DUP2 MSTORE PUSH1 0x20 ADD SWAP1 DUP2 MSTORE PUSH1 0x20 ADD PUSH0 KECCAK256 PUSH1 0x1 ADD SLOAD EQ ISZERO JUMPDEST PUSH2 0x12CA JUMPI PUSH1 0x40 MLOAD PUSH32 0x8C379A000000000000000000000000000000000000000000000000000000000 DUP2 MSTORE PUSH1 0x4 ADD PUSH2 0x12C1 SWAP1 PUSH2 0x2F49 JUMP JUMPDEST PUSH1 0x40 MLOAD DUP1 SWAP2 SUB SWAP1 REVERT JUMPDEST CALLER PUSH20 0xFFFFFFFFFFFFFFFFFFFFFFFFFFFFFFFFFFFFFFFF AND PUSH0 DUP1 SLOAD SWAP1 PUSH2 0x100 EXP SWAP1 DIV PUSH20 0xFFFFFFFFFFFFFFFFFFFFFFFFFFFFFFFFFFFFFFFF AND PUSH20 0xFFFFFFFFFFFFFFFFFFFFFFFFFFFFFFFFFFFFFFFF AND SUB PUSH2 0x1357 JUMPI PUSH1 0x40 MLOAD PUSH32 0x8C379A000000000000000000000000000000000000000000000000000000000 DUP2 MSTORE PUSH1 0x4 ADD PUSH2 0x134E SWAP1 PUSH2 0x2FB1 JUMP JUMPDEST PUSH1 0x40 MLOAD DUP1 SWAP2 SUB SWAP1 REVERT JUMPDEST DUP3 PUSH20 0xFFFFFFFFFFFFFFFFFFFFFFFFFFFFFFFFFFFFFFFF AND CALLER PUSH20 0xFFFFFFFFFFFFFFFFFFFFFFFFFFFFFFFFFFFFFFFF AND SUB PUSH2 0x13C5 JUMPI PUSH1 0x40 MLOAD PUSH32 0x8C379A000000000000000000000000000000000000000000000000000000000 DUP2 MSTORE PUSH1 0x4 ADD PUSH2 0x13BC SWAP1 PUSH2 0x3019 JUMP JUMPDEST PUSH1 0x40 MLOAD DUP1 SWAP2 SUB SWAP1 REVERT JUMPDEST PUSH1 0x1 ISZERO ISZERO PUSH1 0x8 PUSH0 CALLER PUSH20 0xFFFFFFFFFFFFFFFFFFFFFFFFFFFFFFFFFFFFFFFF AND PUSH20 0xFFFFFFFFFFFFFFFFFFFFFFFFFFFFFFFFFFFFFFFF AND DUP2 MSTORE PUSH1 0x20 ADD SWAP1 DUP2 MSTORE PUSH1 0x20 ADD PUSH0 KECCAK256 PUSH1 0x3 ADD PUSH0 SWAP1 SLOAD SWAP1 PUSH2 0x100 EXP SWAP1 DIV PUSH1 0xFF AND ISZERO ISZERO EQ ISZERO DUP1 ISZERO PUSH2 0x1477 JUMPI POP PUSH1 0x1 ISZERO ISZERO PUSH1 0x8 PUSH0 DUP6 PUSH20 0xFFFFFFFFFFFFFFFFFFFFFFFFFFFFFFFFFFFFFFFF AND PUSH20 0xFFFFFFFFFFFFFFFFFFFFFFFFFFFFFFFFFFFFFFFF AND DUP2 MSTORE PUSH1 0x20 ADD SWAP1 DUP2 MSTORE PUSH1 0x20 ADD PUSH0 KECCAK256 PUSH1 0x3 ADD PUSH0 SWAP1 SLOAD SWAP1 PUSH2 0x100 EXP SWAP1 DIV PUSH1 0xFF AND ISZERO ISZERO EQ ISZERO JUMPDEST PUSH2 0x14B6 JUMPI PUSH1 0x40 MLOAD PUSH32 0x8C379A000000000000000000000000000000000000000000000000000000000 DUP2 MSTORE PUSH1 0x4 ADD PUSH2 0x14AD SWAP1 PUSH2 0x30A7 JUMP JUMPDEST PUSH1 0x40 MLOAD DUP1 SWAP2 SUB SWAP1 REVERT JUMPDEST PUSH1 0xA PUSH0 DUP5 PUSH20 0xFFFFFFFFFFFFFFFFFFFFFFFFFFFFFFFFFFFFFFFF AND PUSH20 0xFFFFFFFFFFFFFFFFFFFFFFFFFFFFFFFFFFFFFFFF AND DUP2 MSTORE PUSH1 0x20 ADD SWAP1 DUP2 MSTORE PUSH1 0x20 ADD PUSH0 KECCAK256 PUSH1 0x1 ADD PUSH0 DUP2 SLOAD DUP1 SWAP3 SWAP2 SWAP1 PUSH2 0x1506 SWAP1 PUSH2 0x2A72 JUMP JUMPDEST SWAP2 SWAP1 POP SSTORE POP PUSH0 PUSH1 0xA PUSH0 CALLER PUSH20 0xFFFFFFFFFFFFFFFFFFFFFFFFFFFFFFFFFFFFFFFF AND PUSH20 0xFFFFFFFFFFFFFFFFFFFFFFFFFFFFFFFFFFFFFFFF AND DUP2 MSTORE PUSH1 0x20 ADD SWAP1 DUP2 MSTORE PUSH1 0x20 ADD PUSH0 KECCAK256 PUSH1 0x1 ADD SLOAD SUB PUSH2 0x1622 JUMPI PUSH1 0x1 PUSH1 0xA PUSH0 CALLER PUSH20 0xFFFFFFFFFFFFFFFFFFFFFFFFFFFFFFFFFFFFFFFF AND PUSH20 0xFFFFFFFFFFFFFFFFFFFFFFFFFFFFFFFFFFFFFFFF AND DUP2 MSTORE PUSH1 0x20 ADD SWAP1 DUP2 MSTORE PUSH1 0x20 ADD PUSH0 KECCAK256 PUSH0 ADD PUSH1 0x15 PUSH2 0x100 EXP DUP2 SLOAD DUP2 PUSH1 0xFF MUL NOT AND SWAP1 DUP4 ISZERO ISZERO MUL OR SWAP1 SSTORE POP PUSH1 0x1 PUSH1 0xB DUP4 DUP2 SLOAD DUP2 LT PUSH2 0x15C0 JUMPI PUSH2 0x15BF PUSH2 0x2AB9 JUMP JUMPDEST JUMPDEST SWAP1 PUSH0 MSTORE PUSH1 0x20 PUSH0 KECCAK256 SWAP1 PUSH1 0x3 MUL ADD PUSH0 ADD PUSH1 0x15 PUSH2 0x100 EXP DUP2 SLOAD DUP2 PUSH1 0xFF MUL NOT AND SWAP1 DUP4 ISZERO ISZERO MUL OR SWAP1 SSTORE POP PUSH1 0xB DUP2 DUP2 SLOAD DUP2 LT PUSH2 0x15F9 JUMPI PUSH2 0x15F8 PUSH2 0x2AB9 JUMP JUMPDEST JUMPDEST SWAP1 PUSH0 MSTORE PUSH1 0x20 PUSH0 KECCAK256 SWAP1 PUSH1 0x3 MUL ADD PUSH1 0x1 ADD PUSH0 DUP2 SLOAD DUP1 SWAP3 SWAP2 SWAP1 PUSH2 0x1618 SWAP1 PUSH2 0x2A72 JUMP JUMPDEST SWAP2 SWAP1 POP SSTORE POP PUSH2 0x16E8 JUMP JUMPDEST PUSH1 0xA PUSH0 CALLER PUSH20 0xFFFFFFFFFFFFFFFFFFFFFFFFFFFFFFFFFFFFFFFF AND PUSH20 0xFFFFFFFFFFFFFFFFFFFFFFFFFFFFFFFFFFFFFFFF AND DUP2 MSTORE PUSH1 0x20 ADD SWAP1 DUP2 MSTORE PUSH1 0x20 ADD PUSH0 KECCAK256 PUSH1 0x1 ADD PUSH0 DUP2 SLOAD DUP1 SWAP3 SWAP2 SWAP1 PUSH2 0x1672 SWAP1 PUSH2 0x2CEC JUMP JUMPDEST SWAP2 SWAP1 POP SSTORE POP PUSH1 0xB DUP3 DUP2 SLOAD DUP2 LT PUSH2 0x168B JUMPI PUSH2 0x168A PUSH2 0x2AB9 JUMP JUMPDEST JUMPDEST SWAP1 PUSH0 MSTORE PUSH1 0x20 PUSH0 KECCAK256 SWAP1 PUSH1 0x3 MUL ADD PUSH1 0x1 ADD PUSH0 DUP2 SLOAD DUP1 SWAP3 SWAP2 SWAP1 PUSH2 0x16AA SWAP1 PUSH2 0x2CEC JUMP JUMPDEST SWAP2 SWAP1 POP SSTORE POP PUSH1 0xB DUP2 DUP2 SLOAD DUP2 LT PUSH2 0x16C3 JUMPI PUSH2 0x16C2 PUSH2 0x2AB9 JUMP JUMPDEST JUMPDEST SWAP1 PUSH0 MSTORE PUSH1 0x20 PUSH0 KECCAK256 SWAP1 PUSH1 0x3 MUL ADD PUSH1 0x1 ADD PUSH0 DUP2 SLOAD DUP1 SWAP3 SWAP2 SWAP1 PUSH2 0x16E2 SWAP1 PUSH2 0x2A72 JUMP JUMPDEST SWAP2 SWAP1 POP SSTORE POP JUMPDEST POP POP POP JUMP JUMPDEST CALLER PUSH20 0xFFFFFFFFFFFFFFFFFFFFFFFFFFFFFFFFFFFFFFFF AND PUSH0 DUP1 SLOAD SWAP1 PUSH2 0x100 EXP SWAP1 DIV PUSH20 0xFFFFFFFFFFFFFFFFFFFFFFFFFFFFFFFFFFFFFFFF AND PUSH20 0xFFFFFFFFFFFFFFFFFFFFFFFFFFFFFFFFFFFFFFFF AND EQ DUP1 ISZERO PUSH2 0x1759 JUMPI POP PUSH1 0x1 ISZERO ISZERO PUSH0 PUSH1 0x14 SWAP1 SLOAD SWAP1 PUSH2 0x100 EXP SWAP1 DIV PUSH1 0xFF AND ISZERO ISZERO EQ JUMPDEST DUP1 ISZERO PUSH2 0x1766 JUMPI POP PUSH0 PUSH1 0x2 SLOAD EQ JUMPDEST PUSH2 0x176E JUMPI PUSH0 DUP1 REVERT JUMPDEST PUSH1 0x1 PUSH1 0x2 DUP2 SWAP1 SSTORE POP PUSH1 0x2 PUSH1 0x7 PUSH0 PUSH2 0x100 EXP DUP2 SLOAD DUP2 PUSH1 0xFF MUL NOT AND SWAP1 DUP4 PUSH1 0x2 DUP2 GT ISZERO PUSH2 0x179B JUMPI PUSH2 0x179A PUSH2 0x2674 JUMP JUMPDEST JUMPDEST MUL OR SWAP1 SSTORE POP PUSH1 0x40 MLOAD DUP1 PUSH1 0x40 ADD PUSH1 0x40 MSTORE DUP1 PUSH1 0xC DUP2 MSTORE PUSH1 0x20 ADD PUSH32 0x566F74696E6720456E6465640000000000000000000000000000000000000000 DUP2 MSTORE POP PUSH1 0x3 SWAP1 DUP2 PUSH2 0x17E4 SWAP2 SWAP1 PUSH2 0x283E JUMP JUMPDEST POP JUMP JUMPDEST PUSH1 0x60 CALLER PUSH20 0xFFFFFFFFFFFFFFFFFFFFFFFFFFFFFFFFFFFFFFFF AND PUSH0 DUP1 SLOAD SWAP1 PUSH2 0x100 EXP SWAP1 DIV PUSH20 0xFFFFFFFFFFFFFFFFFFFFFFFFFFFFFFFFFFFFFFFF AND PUSH20 0xFFFFFFFFFFFFFFFFFFFFFFFFFFFFFFFFFFFFFFFF AND EQ PUSH2 0x1876 JUMPI PUSH1 0x40 MLOAD PUSH32 0x8C379A000000000000000000000000000000000000000000000000000000000 DUP2 MSTORE PUSH1 0x4 ADD PUSH2 0x186D SWAP1 PUSH2 0x310F JUMP JUMPDEST PUSH1 0x40 MLOAD DUP1 SWAP2 SUB SWAP1 REVERT JUMPDEST PUSH1 0x2 DUP1 DUP2 GT ISZERO PUSH2 0x1889 JUMPI PUSH2 0x1888 PUSH2 0x2674 JUMP JUMPDEST JUMPDEST PUSH1 0x7 PUSH0 SWAP1 SLOAD SWAP1 PUSH2 0x100 EXP SWAP1 DIV PUSH1 0xFF AND PUSH1 0x2 DUP2 GT ISZERO PUSH2 0x18AA JUMPI PUSH2 0x18A9 PUSH2 0x2674 JUMP JUMPDEST JUMPDEST EQ PUSH2 0x18EA JUMPI PUSH1 0x40 MLOAD PUSH32 0x8C379A000000000000000000000000000000000000000000000000000000000 DUP2 MSTORE PUSH1 0x4 ADD PUSH2 0x18E1 SWAP1 PUSH2 0x319D JUMP JUMPDEST PUSH1 0x40 MLOAD DUP1 SWAP2 SUB SWAP1 REVERT JUMPDEST PUSH1 0x5 DUP1 SLOAD PUSH2 0x18F7 SWAP1 PUSH2 0x2644 JUMP JUMPDEST DUP1 PUSH1 0x1F ADD PUSH1 0x20 DUP1 SWAP2 DIV MUL PUSH1 0x20 ADD PUSH1 0x40 MLOAD SWAP1 DUP2 ADD PUSH1 0x40 MSTORE DUP1 SWAP3 SWAP2 SWAP1 DUP2 DUP2 MSTORE PUSH1 0x20 ADD DUP3 DUP1 SLOAD PUSH2 0x1923 SWAP1 PUSH2 0x2644 JUMP JUMPDEST DUP1 ISZERO PUSH2 0x196E JUMPI DUP1 PUSH1 0x1F LT PUSH2 0x1945 JUMPI PUSH2 0x100 DUP1 DUP4 SLOAD DIV MUL DUP4 MSTORE SWAP2 PUSH1 0x20 ADD SWAP2 PUSH2 0x196E JUMP JUMPDEST DUP3 ADD SWAP2 SWAP1 PUSH0 MSTORE PUSH1 0x20 PUSH0 KECCAK256 SWAP1 JUMPDEST DUP2 SLOAD DUP2 MSTORE SWAP1 PUSH1 0x1 ADD SWAP1 PUSH1 0x20 ADD DUP1 DUP4 GT PUSH2 0x1951 JUMPI DUP3 SWAP1 SUB PUSH1 0x1F AND DUP3 ADD SWAP2 JUMPDEST POP POP POP POP POP SWAP1 POP SWAP1 JUMP JUMPDEST PUSH1 0x60 PUSH1 0xB DUP1 SLOAD DUP1 PUSH1 0x20 MUL PUSH1 0x20 ADD PUSH1 0x40 MLOAD SWAP1 DUP2 ADD PUSH1 0x40 MSTORE DUP1 SWAP3 SWAP2 SWAP1 DUP2 DUP2 MSTORE PUSH1 0x20 ADD PUSH0 SWAP1 JUMPDEST DUP3 DUP3 LT ISZERO PUSH2 0x1A67 JUMPI DUP4 DUP3 SWAP1 PUSH0 MSTORE PUSH1 0x20 PUSH0 KECCAK256 SWAP1 PUSH1 0x3 MUL ADD PUSH1 0x40 MLOAD DUP1 PUSH1 0xA0 ADD PUSH1 0x40 MSTORE SWAP1 DUP2 PUSH0 DUP3 ADD PUSH0 SWAP1 SLOAD SWAP1 PUSH2 0x100 EXP SWAP1 DIV PUSH20 0xFFFFFFFFFFFFFFFFFFFFFFFFFFFFFFFFFFFFFFFF AND PUSH20 0xFFFFFFFFFFFFFFFFFFFFFFFFFFFFFFFFFFFFFFFF AND PUSH20 0xFFFFFFFFFFFFFFFFFFFFFFFFFFFFFFFFFFFFFFFF AND DUP2 MSTORE PUSH1 0x20 ADD PUSH0 DUP3 ADD PUSH1 0x14 SWAP1 SLOAD SWAP1 PUSH2 0x100 EXP SWAP1 DIV PUSH1 0xFF AND ISZERO ISZERO ISZERO ISZERO DUP2 MSTORE PUSH1 0x20 ADD PUSH0 DUP3 ADD PUSH1 0x15 SWAP1 SLOAD SWAP1 PUSH2 0x100 EXP SWAP1 DIV PUSH1 0xFF AND ISZERO ISZERO ISZERO ISZERO DUP2 MSTORE PUSH1 0x20 ADD PUSH1 0x1 DUP3 ADD SLOAD DUP2 MSTORE PUSH1 0x20 ADD PUSH1 0x2 DUP3 ADD SLOAD DUP2 MSTORE POP POP DUP2 MSTORE PUSH1 0x20 ADD SWAP1 PUSH1 0x1 ADD SWAP1 PUSH2 0x199B JUMP JUMPDEST POP POP POP POP SWAP1 POP SWAP1 JUMP JUMPDEST PUSH0 ISZERO ISZERO PUSH0 PUSH1 0x14 SWAP1 SLOAD SWAP1 PUSH2 0x100 EXP SWAP1 DIV PUSH1 0xFF AND ISZERO ISZERO EQ PUSH2 0x1A8D JUMPI PUSH0 DUP1 REVERT JUMPDEST CALLER PUSH20 0xFFFFFFFFFFFFFFFFFFFFFFFFFFFFFFFFFFFFFFFF AND PUSH0 DUP1 SLOAD SWAP1 PUSH2 0x100 EXP SWAP1 DIV PUSH20 0xFFFFFFFFFFFFFFFFFFFFFFFFFFFFFFFFFFFFFFFF AND PUSH20 0xFFFFFFFFFFFFFFFFFFFFFFFFFFFFFFFFFFFFFFFF AND EQ PUSH2 0x1B1A JUMPI PUSH1 0x40 MLOAD PUSH32 0x8C379A000000000000000000000000000000000000000000000000000000000 DUP2 MSTORE PUSH1 0x4 ADD PUSH2 0x1B11 SWAP1 PUSH2 0x322B JUMP JUMPDEST PUSH1 0x40 MLOAD DUP1 SWAP2 SUB SWAP1 REVERT JUMPDEST PUSH1 0x1 ISZERO ISZERO PUSH1 0x8 PUSH0 DUP4 PUSH20 0xFFFFFFFFFFFFFFFFFFFFFFFFFFFFFFFFFFFFFFFF AND PUSH20 0xFFFFFFFFFFFFFFFFFFFFFFFFFFFFFFFFFFFFFFFF AND DUP2 MSTORE PUSH1 0x20 ADD SWAP1 DUP2 MSTORE PUSH1 0x20 ADD PUSH0 KECCAK256 PUSH1 0x3 ADD PUSH0 SWAP1 SLOAD SWAP1 PUSH2 0x100 EXP SWAP1 DIV PUSH1 0xFF AND ISZERO ISZERO SUB PUSH2 0x1BAD JUMPI PUSH1 0x40 MLOAD PUSH32 0x8C379A000000000000000000000000000000000000000000000000000000000 DUP2 MSTORE PUSH1 0x4 ADD PUSH2 0x1BA4 SWAP1 PUSH2 0x3293 JUMP JUMPDEST PUSH1 0x40 MLOAD DUP1 SWAP2 SUB SWAP1 REVERT JUMPDEST PUSH0 DUP1 SLOAD SWAP1 PUSH2 0x100 EXP SWAP1 DIV PUSH20 0xFFFFFFFFFFFFFFFFFFFFFFFFFFFFFFFFFFFFFFFF AND PUSH20 0xFFFFFFFFFFFFFFFFFFFFFFFFFFFFFFFFFFFFFFFF AND DUP2 PUSH20 0xFFFFFFFFFFFFFFFFFFFFFFFFFFFFFFFFFFFFFFFF AND SUB PUSH2 0x1C3A JUMPI PUSH1 0x40 MLOAD PUSH32 0x8C379A000000000000000000000000000000000000000000000000000000000 DUP2 MSTORE PUSH1 0x4 ADD PUSH2 0x1C31 SWAP1 PUSH2 0x3321 JUMP JUMPDEST PUSH1 0x40 MLOAD DUP1 SWAP2 SUB SWAP1 REVERT JUMPDEST PUSH0 PUSH1 0x40 MLOAD DUP1 PUSH1 0xA0 ADD PUSH1 0x40 MSTORE DUP1 DUP4 PUSH20 0xFFFFFFFFFFFFFFFFFFFFFFFFFFFFFFFFFFFFFFFF AND DUP2 MSTORE PUSH1 0x20 ADD DUP6 DUP2 MSTORE PUSH1 0x20 ADD DUP5 DUP2 MSTORE PUSH1 0x20 ADD PUSH1 0x1 ISZERO ISZERO DUP2 MSTORE PUSH1 0x20 ADD PUSH0 DUP2 MSTORE POP SWAP1 POP DUP1 PUSH1 0x8 PUSH0 DUP5 PUSH20 0xFFFFFFFFFFFFFFFFFFFFFFFFFFFFFFFFFFFFFFFF AND PUSH20 0xFFFFFFFFFFFFFFFFFFFFFFFFFFFFFFFFFFFFFFFF AND DUP2 MSTORE PUSH1 0x20 ADD SWAP1 DUP2 MSTORE PUSH1 0x20 ADD PUSH0 KECCAK256 PUSH0 DUP3 ADD MLOAD DUP2 PUSH0 ADD PUSH0 PUSH2 0x100 EXP DUP2 SLOAD DUP2 PUSH20 0xFFFFFFFFFFFFFFFFFFFFFFFFFFFFFFFFFFFFFFFF MUL NOT AND SWAP1 DUP4 PUSH20 0xFFFFFFFFFFFFFFFFFFFFFFFFFFFFFFFFFFFFFFFF AND MUL OR SWAP1 SSTORE POP PUSH1 0x20 DUP3 ADD MLOAD DUP2 PUSH1 0x1 ADD SWAP1 DUP2 PUSH2 0x1D14 SWAP2 SWAP1 PUSH2 0x283E JUMP JUMPDEST POP PUSH1 0x40 DUP3 ADD MLOAD DUP2 PUSH1 0x2 ADD SWAP1 DUP2 PUSH2 0x1D2A SWAP2 SWAP1 PUSH2 0x283E JUMP JUMPDEST POP PUSH1 0x60 DUP3 ADD MLOAD DUP2 PUSH1 0x3 ADD PUSH0 PUSH2 0x100 EXP DUP2 SLOAD DUP2 PUSH1 0xFF MUL NOT AND SWAP1 DUP4 ISZERO ISZERO MUL OR SWAP1 SSTORE POP PUSH1 0x80 DUP3 ADD MLOAD DUP2 PUSH1 0x4 ADD SSTORE SWAP1 POP POP PUSH1 0x9 DUP2 SWAP1 DUP1 PUSH1 0x1 DUP2 SLOAD ADD DUP1 DUP3 SSTORE DUP1 SWAP2 POP POP PUSH1 0x1 SWAP1 SUB SWAP1 PUSH0 MSTORE PUSH1 0x20 PUSH0 KECCAK256 SWAP1 PUSH1 0x5 MUL ADD PUSH0 SWAP1 SWAP2 SWAP1 SWAP2 SWAP1 SWAP2 POP PUSH0 DUP3 ADD MLOAD DUP2 PUSH0 ADD PUSH0 PUSH2 0x100 EXP DUP2 SLOAD DUP2 PUSH20 0xFFFFFFFFFFFFFFFFFFFFFFFFFFFFFFFFFFFFFFFF MUL NOT AND SWAP1 DUP4 PUSH20 0xFFFFFFFFFFFFFFFFFFFFFFFFFFFFFFFFFFFFFFFF AND MUL OR SWAP1 SSTORE POP PUSH1 0x20 DUP3 ADD MLOAD DUP2 PUSH1 0x1 ADD SWAP1 DUP2 PUSH2 0x1DD9 SWAP2 SWAP1 PUSH2 0x283E JUMP JUMPDEST POP PUSH1 0x40 DUP3 ADD MLOAD DUP2 PUSH1 0x2 ADD SWAP1 DUP2 PUSH2 0x1DEF SWAP2 SWAP1 PUSH2 0x283E JUMP JUMPDEST POP PUSH1 0x60 DUP3 ADD MLOAD DUP2 PUSH1 0x3 ADD PUSH0 PUSH2 0x100 EXP DUP2 SLOAD DUP2 PUSH1 0xFF MUL NOT AND SWAP1 DUP4 ISZERO ISZERO MUL OR SWAP1 SSTORE POP PUSH1 0x80 DUP3 ADD MLOAD DUP2 PUSH1 0x4 ADD SSTORE POP POP POP POP POP POP JUMP JUMPDEST PUSH0 DUP1 PUSH0 SWAP1 POP PUSH0 JUMPDEST PUSH1 0xB DUP1 SLOAD SWAP1 POP DUP2 LT ISZERO PUSH2 0x1EC8 JUMPI DUP4 PUSH20 0xFFFFFFFFFFFFFFFFFFFFFFFFFFFFFFFFFFFFFFFF AND PUSH1 0xB DUP3 DUP2 SLOAD DUP2 LT PUSH2 0x1E60 JUMPI PUSH2 0x1E5F PUSH2 0x2AB9 JUMP JUMPDEST JUMPDEST SWAP1 PUSH0 MSTORE PUSH1 0x20 PUSH0 KECCAK256 SWAP1 PUSH1 0x3 MUL ADD PUSH0 ADD PUSH0 SWAP1 SLOAD SWAP1 PUSH2 0x100 EXP SWAP1 DIV PUSH20 0xFFFFFFFFFFFFFFFFFFFFFFFFFFFFFFFFFFFFFFFF AND PUSH20 0xFFFFFFFFFFFFFFFFFFFFFFFFFFFFFFFFFFFFFFFF AND SUB PUSH2 0x1EB2 JUMPI PUSH1 0x1 SWAP2 POP PUSH2 0x1EC8 JUMP JUMPDEST PUSH0 SWAP2 POP DUP1 DUP1 PUSH2 0x1EC0 SWAP1 PUSH2 0x2A72 JUMP JUMPDEST SWAP2 POP POP PUSH2 0x1E28 JUMP JUMPDEST POP DUP1 SWAP2 POP POP SWAP2 SWAP1 POP JUMP JUMPDEST PUSH0 PUSH1 0x40 MLOAD SWAP1 POP SWAP1 JUMP JUMPDEST PUSH0 DUP1 REVERT JUMPDEST PUSH0 DUP1 REVERT JUMPDEST PUSH0 PUSH20 0xFFFFFFFFFFFFFFFFFFFFFFFFFFFFFFFFFFFFFFFF DUP3 AND SWAP1 POP SWAP2 SWAP1 POP JUMP JUMPDEST PUSH0 PUSH2 0x1F0C DUP3 PUSH2 0x1EE3 JUMP JUMPDEST SWAP1 POP SWAP2 SWAP1 POP JUMP JUMPDEST PUSH2 0x1F1C DUP2 PUSH2 0x1F02 JUMP JUMPDEST DUP2 EQ PUSH2 0x1F26 JUMPI PUSH0 DUP1 REVERT JUMPDEST POP JUMP JUMPDEST PUSH0 DUP2 CALLDATALOAD SWAP1 POP PUSH2 0x1F37 DUP2 PUSH2 0x1F13 JUMP JUMPDEST SWAP3 SWAP2 POP POP JUMP JUMPDEST PUSH0 PUSH1 0x20 DUP3 DUP5 SUB SLT ISZERO PUSH2 0x1F52 JUMPI PUSH2 0x1F51 PUSH2 0x1EDB JUMP JUMPDEST JUMPDEST PUSH0 PUSH2 0x1F5F DUP5 DUP3 DUP6 ADD PUSH2 0x1F29 JUMP JUMPDEST SWAP2 POP POP SWAP3 SWAP2 POP POP JUMP JUMPDEST PUSH2 0x1F71 DUP2 PUSH2 0x1F02 JUMP JUMPDEST DUP3 MSTORE POP POP JUMP JUMPDEST PUSH0 DUP2 ISZERO ISZERO SWAP1 POP SWAP2 SWAP1 POP JUMP JUMPDEST PUSH2 0x1F8B DUP2 PUSH2 0x1F77 JUMP JUMPDEST DUP3 MSTORE POP POP JUMP JUMPDEST PUSH0 DUP2 SWAP1 POP SWAP2 SWAP1 POP JUMP JUMPDEST PUSH2 0x1FA3 DUP2 PUSH2 0x1F91 JUMP JUMPDEST DUP3 MSTORE POP POP JUMP JUMPDEST PUSH0 PUSH1 0xA0 DUP3 ADD SWAP1 POP PUSH2 0x1FBC PUSH0 DUP4 ADD DUP9 PUSH2 0x1F68 JUMP JUMPDEST PUSH2 0x1FC9 PUSH1 0x20 DUP4 ADD DUP8 PUSH2 0x1F82 JUMP JUMPDEST PUSH2 0x1FD6 PUSH1 0x40 DUP4 ADD DUP7 PUSH2 0x1F82 JUMP JUMPDEST PUSH2 0x1FE3 PUSH1 0x60 DUP4 ADD DUP6 PUSH2 0x1F9A JUMP JUMPDEST PUSH2 0x1FF0 PUSH1 0x80 DUP4 ADD DUP5 PUSH2 0x1F9A JUMP JUMPDEST SWAP7 SWAP6 POP POP POP POP POP POP JUMP JUMPDEST PUSH0 DUP2 MLOAD SWAP1 POP SWAP2 SWAP1 POP JUMP JUMPDEST PUSH0 DUP3 DUP3 MSTORE PUSH1 0x20 DUP3 ADD SWAP1 POP SWAP3 SWAP2 POP POP JUMP JUMPDEST PUSH0 JUMPDEST DUP4 DUP2 LT ISZERO PUSH2 0x2031 JUMPI DUP1 DUP3 ADD MLOAD DUP2 DUP5 ADD MSTORE PUSH1 0x20 DUP2 ADD SWAP1 POP PUSH2 0x2016 JUMP JUMPDEST PUSH0 DUP5 DUP5 ADD MSTORE POP POP POP POP JUMP JUMPDEST PUSH0 PUSH1 0x1F NOT PUSH1 0x1F DUP4 ADD AND SWAP1 POP SWAP2 SWAP1 POP JUMP JUMPDEST PUSH0 PUSH2 0x2056 DUP3 PUSH2 0x1FFA JUMP JUMPDEST PUSH2 0x2060 DUP2 DUP6 PUSH2 0x2004 JUMP JUMPDEST SWAP4 POP PUSH2 0x2070 DUP2 DUP6 PUSH1 0x20 DUP7 ADD PUSH2 0x2014 JUMP JUMPDEST PUSH2 0x2079 DUP2 PUSH2 0x203C JUMP JUMPDEST DUP5 ADD SWAP2 POP POP SWAP3 SWAP2 POP POP JUMP JUMPDEST PUSH0 PUSH1 0xA0 DUP3 ADD SWAP1 POP PUSH2 0x2097 PUSH0 DUP4 ADD DUP9 PUSH2 0x1F68 JUMP JUMPDEST DUP2 DUP2 SUB PUSH1 0x20 DUP4 ADD MSTORE PUSH2 0x20A9 DUP2 DUP8 PUSH2 0x204C JUMP JUMPDEST SWAP1 POP DUP2 DUP2 SUB PUSH1 0x40 DUP4 ADD MSTORE PUSH2 0x20BD DUP2 DUP7 PUSH2 0x204C JUMP JUMPDEST SWAP1 POP PUSH2 0x20CC PUSH1 0x60 DUP4 ADD DUP6 PUSH2 0x1F82 JUMP JUMPDEST PUSH2 0x20D9 PUSH1 0x80 DUP4 ADD DUP5 PUSH2 0x1F9A JUMP JUMPDEST SWAP7 SWAP6 POP POP POP POP POP POP JUMP JUMPDEST PUSH0 PUSH1 0x20 DUP3 ADD SWAP1 POP DUP2 DUP2 SUB PUSH0 DUP4 ADD MSTORE PUSH2 0x20FB DUP2 DUP5 PUSH2 0x204C JUMP JUMPDEST SWAP1 POP SWAP3 SWAP2 POP POP JUMP JUMPDEST PUSH2 0x210C DUP2 PUSH2 0x1F91 JUMP JUMPDEST DUP2 EQ PUSH2 0x2116 JUMPI PUSH0 DUP1 REVERT JUMPDEST POP JUMP JUMPDEST PUSH0 DUP2 CALLDATALOAD SWAP1 POP PUSH2 0x2127 DUP2 PUSH2 0x2103 JUMP JUMPDEST SWAP3 SWAP2 POP POP JUMP JUMPDEST PUSH0 DUP1 PUSH1 0x40 DUP4 DUP6 SUB SLT ISZERO PUSH2 0x2143 JUMPI PUSH2 0x2142 PUSH2 0x1EDB JUMP JUMPDEST JUMPDEST PUSH0 PUSH2 0x2150 DUP6 DUP3 DUP7 ADD PUSH2 0x2119 JUMP JUMPDEST SWAP3 POP POP PUSH1 0x20 PUSH2 0x2161 DUP6 DUP3 DUP7 ADD PUSH2 0x1F29 JUMP JUMPDEST SWAP2 POP POP SWAP3 POP SWAP3 SWAP1 POP JUMP JUMPDEST PUSH0 DUP2 MLOAD SWAP1 POP SWAP2 SWAP1 POP JUMP JUMPDEST PUSH0 DUP3 DUP3 MSTORE PUSH1 0x20 DUP3 ADD SWAP1 POP SWAP3 SWAP2 POP POP JUMP JUMPDEST PUSH0 DUP2 SWAP1 POP PUSH1 0x20 DUP3 ADD SWAP1 POP SWAP2 SWAP1 POP JUMP JUMPDEST PUSH2 0x219D DUP2 PUSH2 0x1F02 JUMP JUMPDEST DUP3 MSTORE POP POP JUMP JUMPDEST PUSH0 DUP3 DUP3 MSTORE PUSH1 0x20 DUP3 ADD SWAP1 POP SWAP3 SWAP2 POP POP JUMP JUMPDEST PUSH0 PUSH2 0x21BD DUP3 PUSH2 0x1FFA JUMP JUMPDEST PUSH2 0x21C7 DUP2 DUP6 PUSH2 0x21A3 JUMP JUMPDEST SWAP4 POP PUSH2 0x21D7 DUP2 DUP6 PUSH1 0x20 DUP7 ADD PUSH2 0x2014 JUMP JUMPDEST PUSH2 0x21E0 DUP2 PUSH2 0x203C JUMP JUMPDEST DUP5 ADD SWAP2 POP POP SWAP3 SWAP2 POP POP JUMP JUMPDEST PUSH2 0x21F4 DUP2 PUSH2 0x1F77 JUMP JUMPDEST DUP3 MSTORE POP POP JUMP JUMPDEST PUSH2 0x2203 DUP2 PUSH2 0x1F91 JUMP JUMPDEST DUP3 MSTORE POP POP JUMP JUMPDEST PUSH0 PUSH1 0xA0 DUP4 ADD PUSH0 DUP4 ADD MLOAD PUSH2 0x221E PUSH0 DUP7 ADD DUP3 PUSH2 0x2194 JUMP JUMPDEST POP PUSH1 0x20 DUP4 ADD MLOAD DUP5 DUP3 SUB PUSH1 0x20 DUP7 ADD MSTORE PUSH2 0x2236 DUP3 DUP3 PUSH2 0x21B3 JUMP JUMPDEST SWAP2 POP POP PUSH1 0x40 DUP4 ADD MLOAD DUP5 DUP3 SUB PUSH1 0x40 DUP7 ADD MSTORE PUSH2 0x2250 DUP3 DUP3 PUSH2 0x21B3 JUMP JUMPDEST SWAP2 POP POP PUSH1 0x60 DUP4 ADD MLOAD PUSH2 0x2265 PUSH1 0x60 DUP7 ADD DUP3 PUSH2 0x21EB JUMP JUMPDEST POP PUSH1 0x80 DUP4 ADD MLOAD PUSH2 0x2278 PUSH1 0x80 DUP7 ADD DUP3 PUSH2 0x21FA JUMP JUMPDEST POP DUP1 SWAP2 POP POP SWAP3 SWAP2 POP POP JUMP JUMPDEST PUSH0 PUSH2 0x228E DUP4 DUP4 PUSH2 0x2209 JUMP JUMPDEST SWAP1 POP SWAP3 SWAP2 POP POP JUMP JUMPDEST PUSH0 PUSH1 0x20 DUP3 ADD SWAP1 POP SWAP2 SWAP1 POP JUMP JUMPDEST PUSH0 PUSH2 0x22AC DUP3 PUSH2 0x216B JUMP JUMPDEST PUSH2 0x22B6 DUP2 DUP6 PUSH2 0x2175 JUMP JUMPDEST SWAP4 POP DUP4 PUSH1 0x20 DUP3 MUL DUP6 ADD PUSH2 0x22C8 DUP6 PUSH2 0x2185 JUMP JUMPDEST DUP1 PUSH0 JUMPDEST DUP6 DUP2 LT ISZERO PUSH2 0x2303 JUMPI DUP5 DUP5 SUB DUP10 MSTORE DUP2 MLOAD PUSH2 0x22E4 DUP6 DUP3 PUSH2 0x2283 JUMP JUMPDEST SWAP5 POP PUSH2 0x22EF DUP4 PUSH2 0x2296 JUMP JUMPDEST SWAP3 POP PUSH1 0x20 DUP11 ADD SWAP10 POP POP PUSH1 0x1 DUP2 ADD SWAP1 POP PUSH2 0x22CB JUMP JUMPDEST POP DUP3 SWAP8 POP DUP8 SWAP6 POP POP POP POP POP POP SWAP3 SWAP2 POP POP JUMP JUMPDEST PUSH0 PUSH1 0x20 DUP3 ADD SWAP1 POP DUP2 DUP2 SUB PUSH0 DUP4 ADD MSTORE PUSH2 0x232D DUP2 DUP5 PUSH2 0x22A2 JUMP JUMPDEST SWAP1 POP SWAP3 SWAP2 POP POP JUMP JUMPDEST PUSH0 DUP2 MLOAD SWAP1 POP SWAP2 SWAP1 POP JUMP JUMPDEST PUSH0 DUP3 DUP3 MSTORE PUSH1 0x20 DUP3 ADD SWAP1 POP SWAP3 SWAP2 POP POP JUMP JUMPDEST PUSH0 DUP2 SWAP1 POP PUSH1 0x20 DUP3 ADD SWAP1 POP SWAP2 SWAP1 POP JUMP JUMPDEST PUSH1 0xA0 DUP3 ADD PUSH0 DUP3 ADD MLOAD PUSH2 0x2372 PUSH0 DUP6 ADD DUP3 PUSH2 0x2194 JUMP JUMPDEST POP PUSH1 0x20 DUP3 ADD MLOAD PUSH2 0x2385 PUSH1 0x20 DUP6 ADD DUP3 PUSH2 0x21EB JUMP JUMPDEST POP PUSH1 0x40 DUP3 ADD MLOAD PUSH2 0x2398 PUSH1 0x40 DUP6 ADD DUP3 PUSH2 0x21EB JUMP JUMPDEST POP PUSH1 0x60 DUP3 ADD MLOAD PUSH2 0x23AB PUSH1 0x60 DUP6 ADD DUP3 PUSH2 0x21FA JUMP JUMPDEST POP PUSH1 0x80 DUP3 ADD MLOAD PUSH2 0x23BE PUSH1 0x80 DUP6 ADD DUP3 PUSH2 0x21FA JUMP JUMPDEST POP POP POP POP JUMP JUMPDEST PUSH0 PUSH2 0x23CF DUP4 DUP4 PUSH2 0x235E JUMP JUMPDEST PUSH1 0xA0 DUP4 ADD SWAP1 POP SWAP3 SWAP2 POP POP JUMP JUMPDEST PUSH0 PUSH1 0x20 DUP3 ADD SWAP1 POP SWAP2 SWAP1 POP JUMP JUMPDEST PUSH0 PUSH2 0x23F1 DUP3 PUSH2 0x2335 JUMP JUMPDEST PUSH2 0x23FB DUP2 DUP6 PUSH2 0x233F JUMP JUMPDEST SWAP4 POP PUSH2 0x2406 DUP4 PUSH2 0x234F JUMP JUMPDEST DUP1 PUSH0 JUMPDEST DUP4 DUP2 LT ISZERO PUSH2 0x2436 JUMPI DUP2 MLOAD PUSH2 0x241D DUP9 DUP3 PUSH2 0x23C4 JUMP JUMPDEST SWAP8 POP PUSH2 0x2428 DUP4 PUSH2 0x23DB JUMP JUMPDEST SWAP3 POP POP PUSH1 0x1 DUP2 ADD SWAP1 POP PUSH2 0x2409 JUMP JUMPDEST POP DUP6 SWAP4 POP POP POP POP SWAP3 SWAP2 POP POP JUMP JUMPDEST PUSH0 PUSH1 0x20 DUP3 ADD SWAP1 POP DUP2 DUP2 SUB PUSH0 DUP4 ADD MSTORE PUSH2 0x245B DUP2 DUP5 PUSH2 0x23E7 JUMP JUMPDEST SWAP1 POP SWAP3 SWAP2 POP POP JUMP JUMPDEST PUSH0 DUP1 REVERT JUMPDEST PUSH0 DUP1 REVERT JUMPDEST PUSH32 0x4E487B7100000000000000000000000000000000000000000000000000000000 PUSH0 MSTORE PUSH1 0x41 PUSH1 0x4 MSTORE PUSH1 0x24 PUSH0 REVERT JUMPDEST PUSH2 0x24A1 DUP3 PUSH2 0x203C JUMP JUMPDEST DUP2 ADD DUP2 DUP2 LT PUSH8 0xFFFFFFFFFFFFFFFF DUP3 GT OR ISZERO PUSH2 0x24C0 JUMPI PUSH2 0x24BF PUSH2 0x246B JUMP JUMPDEST JUMPDEST DUP1 PUSH1 0x40 MSTORE POP POP POP JUMP JUMPDEST PUSH0 PUSH2 0x24D2 PUSH2 0x1ED2 JUMP JUMPDEST SWAP1 POP PUSH2 0x24DE DUP3 DUP3 PUSH2 0x2498 JUMP JUMPDEST SWAP2 SWAP1 POP JUMP JUMPDEST PUSH0 PUSH8 0xFFFFFFFFFFFFFFFF DUP3 GT ISZERO PUSH2 0x24FD JUMPI PUSH2 0x24FC PUSH2 0x246B JUMP JUMPDEST JUMPDEST PUSH2 0x2506 DUP3 PUSH2 0x203C JUMP JUMPDEST SWAP1 POP PUSH1 0x20 DUP2 ADD SWAP1 POP SWAP2 SWAP1 POP JUMP JUMPDEST DUP3 DUP2 DUP4 CALLDATACOPY PUSH0 DUP4 DUP4 ADD MSTORE POP POP POP JUMP JUMPDEST PUSH0 PUSH2 0x2533 PUSH2 0x252E DUP5 PUSH2 0x24E3 JUMP JUMPDEST PUSH2 0x24C9 JUMP JUMPDEST SWAP1 POP DUP3 DUP2 MSTORE PUSH1 0x20 DUP2 ADD DUP5 DUP5 DUP5 ADD GT ISZERO PUSH2 0x254F JUMPI PUSH2 0x254E PUSH2 0x2467 JUMP JUMPDEST JUMPDEST PUSH2 0x255A DUP5 DUP3 DUP6 PUSH2 0x2513 JUMP JUMPDEST POP SWAP4 SWAP3 POP POP POP JUMP JUMPDEST PUSH0 DUP3 PUSH1 0x1F DUP4 ADD SLT PUSH2 0x2576 JUMPI PUSH2 0x2575 PUSH2 0x2463 JUMP JUMPDEST JUMPDEST DUP2 CALLDATALOAD PUSH2 0x2586 DUP5 DUP3 PUSH1 0x20 DUP7 ADD PUSH2 0x2521 JUMP JUMPDEST SWAP2 POP POP SWAP3 SWAP2 POP POP JUMP JUMPDEST PUSH0 DUP1 PUSH0 PUSH1 0x60 DUP5 DUP7 SUB SLT ISZERO PUSH2 0x25A6 JUMPI PUSH2 0x25A5 PUSH2 0x1EDB JUMP JUMPDEST JUMPDEST PUSH0 DUP5 ADD CALLDATALOAD PUSH8 0xFFFFFFFFFFFFFFFF DUP2 GT ISZERO PUSH2 0x25C3 JUMPI PUSH2 0x25C2 PUSH2 0x1EDF JUMP JUMPDEST JUMPDEST PUSH2 0x25CF DUP7 DUP3 DUP8 ADD PUSH2 0x2562 JUMP JUMPDEST SWAP4 POP POP PUSH1 0x20 DUP5 ADD CALLDATALOAD PUSH8 0xFFFFFFFFFFFFFFFF DUP2 GT ISZERO PUSH2 0x25F0 JUMPI PUSH2 0x25EF PUSH2 0x1EDF JUMP JUMPDEST JUMPDEST PUSH2 0x25FC DUP7 DUP3 DUP8 ADD PUSH2 0x2562 JUMP JUMPDEST SWAP3 POP POP PUSH1 0x40 PUSH2 0x260D DUP7 DUP3 DUP8 ADD PUSH2 0x1F29 JUMP JUMPDEST SWAP2 POP POP SWAP3 POP SWAP3 POP SWAP3 JUMP JUMPDEST PUSH32 0x4E487B7100000000000000000000000000000000000000000000000000000000 PUSH0 MSTORE PUSH1 0x22 PUSH1 0x4 MSTORE PUSH1 0x24 PUSH0 REVERT JUMPDEST PUSH0 PUSH1 0x2 DUP3 DIV SWAP1 POP PUSH1 0x1 DUP3 AND DUP1 PUSH2 0x265B JUMPI PUSH1 0x7F DUP3 AND SWAP2 POP JUMPDEST PUSH1 0x20 DUP3 LT DUP2 SUB PUSH2 0x266E JUMPI PUSH2 0x266D PUSH2 0x2617 JUMP JUMPDEST JUMPDEST POP SWAP2 SWAP1 POP JUMP JUMPDEST PUSH32 0x4E487B7100000000000000000000000000000000000000000000000000000000 PUSH0 MSTORE PUSH1 0x21 PUSH1 0x4 MSTORE PUSH1 0x24 PUSH0 REVERT JUMPDEST PUSH0 DUP2 SWAP1 POP DUP2 PUSH0 MSTORE PUSH1 0x20 PUSH0 KECCAK256 SWAP1 POP SWAP2 SWAP1 POP JUMP JUMPDEST PUSH0 PUSH1 0x20 PUSH1 0x1F DUP4 ADD DIV SWAP1 POP SWAP2 SWAP1 POP JUMP JUMPDEST PUSH0 DUP3 DUP3 SHL SWAP1 POP SWAP3 SWAP2 POP POP JUMP JUMPDEST PUSH0 PUSH1 0x8 DUP4 MUL PUSH2 0x26FD PUSH32 0xFFFFFFFFFFFFFFFFFFFFFFFFFFFFFFFFFFFFFFFFFFFFFFFFFFFFFFFFFFFFFFFF DUP3 PUSH2 0x26C2 JUMP JUMPDEST PUSH2 0x2707 DUP7 DUP4 PUSH2 0x26C2 JUMP JUMPDEST SWAP6 POP DUP1 NOT DUP5 AND SWAP4 POP DUP1 DUP7 AND DUP5 OR SWAP3 POP POP POP SWAP4 SWAP3 POP POP POP JUMP JUMPDEST PUSH0 DUP2 SWAP1 POP SWAP2 SWAP1 POP JUMP JUMPDEST PUSH0 PUSH2 0x2742 PUSH2 0x273D PUSH2 0x2738 DUP5 PUSH2 0x1F91 JUMP JUMPDEST PUSH2 0x271F JUMP JUMPDEST PUSH2 0x1F91 JUMP JUMPDEST SWAP1 POP SWAP2 SWAP1 POP JUMP JUMPDEST PUSH0 DUP2 SWAP1 POP SWAP2 SWAP1 POP JUMP JUMPDEST PUSH2 0x275B DUP4 PUSH2 0x2728 JUMP JUMPDEST PUSH2 0x276F PUSH2 0x2767 DUP3 PUSH2 0x2749 JUMP JUMPDEST DUP5 DUP5 SLOAD PUSH2 0x26CE JUMP JUMPDEST DUP3 SSTORE POP POP POP POP JUMP JUMPDEST PUSH0 SWAP1 JUMP JUMPDEST PUSH2 0x2783 PUSH2 0x2777 JUMP JUMPDEST PUSH2 0x278E DUP2 DUP5 DUP5 PUSH2 0x2752 JUMP JUMPDEST POP POP POP JUMP JUMPDEST JUMPDEST DUP2 DUP2 LT ISZERO PUSH2 0x27B1 JUMPI PUSH2 0x27A6 PUSH0 DUP3 PUSH2 0x277B JUMP JUMPDEST PUSH1 0x1 DUP2 ADD SWAP1 POP PUSH2 0x2794 JUMP JUMPDEST POP POP JUMP JUMPDEST PUSH1 0x1F DUP3 GT ISZERO PUSH2 0x27F6 JUMPI PUSH2 0x27C7 DUP2 PUSH2 0x26A1 JUMP JUMPDEST PUSH2 0x27D0 DUP5 PUSH2 0x26B3 JUMP JUMPDEST DUP2 ADD PUSH1 0x20 DUP6 LT ISZERO PUSH2 0x27DF JUMPI DUP2 SWAP1 POP JUMPDEST PUSH2 0x27F3 PUSH2 0x27EB DUP6 PUSH2 0x26B3 JUMP JUMPDEST DUP4 ADD DUP3 PUSH2 0x2793 JUMP JUMPDEST POP POP JUMPDEST POP POP POP JUMP JUMPDEST PUSH0 DUP3 DUP3 SHR SWAP1 POP SWAP3 SWAP2 POP POP JUMP JUMPDEST PUSH0 PUSH2 0x2816 PUSH0 NOT DUP5 PUSH1 0x8 MUL PUSH2 0x27FB JUMP JUMPDEST NOT DUP1 DUP4 AND SWAP2 POP POP SWAP3 SWAP2 POP POP JUMP JUMPDEST PUSH0 PUSH2 0x282E DUP4 DUP4 PUSH2 0x2807 JUMP JUMPDEST SWAP2 POP DUP3 PUSH1 0x2 MUL DUP3 OR SWAP1 POP SWAP3 SWAP2 POP POP JUMP JUMPDEST PUSH2 0x2847 DUP3 PUSH2 0x1FFA JUMP JUMPDEST PUSH8 0xFFFFFFFFFFFFFFFF DUP2 GT ISZERO PUSH2 0x2860 JUMPI PUSH2 0x285F PUSH2 0x246B JUMP JUMPDEST JUMPDEST PUSH2 0x286A DUP3 SLOAD PUSH2 0x2644 JUMP JUMPDEST PUSH2 0x2875 DUP3 DUP3 DUP6 PUSH2 0x27B5 JUMP JUMPDEST PUSH0 PUSH1 0x20 SWAP1 POP PUSH1 0x1F DUP4 GT PUSH1 0x1 DUP2 EQ PUSH2 0x28A6 JUMPI PUSH0 DUP5 ISZERO PUSH2 0x2894 JUMPI DUP3 DUP8 ADD MLOAD SWAP1 POP JUMPDEST PUSH2 0x289E DUP6 DUP3 PUSH2 0x2823 JUMP JUMPDEST DUP7 SSTORE POP PUSH2 0x2905 JUMP JUMPDEST PUSH1 0x1F NOT DUP5 AND PUSH2 0x28B4 DUP7 PUSH2 0x26A1 JUMP JUMPDEST PUSH0 JUMPDEST DUP3 DUP2 LT ISZERO PUSH2 0x28DB JUMPI DUP5 DUP10 ADD MLOAD DUP3 SSTORE PUSH1 0x1 DUP3 ADD SWAP2 POP PUSH1 0x20 DUP6 ADD SWAP5 POP PUSH1 0x20 DUP2 ADD SWAP1 POP PUSH2 0x28B6 JUMP JUMPDEST DUP7 DUP4 LT ISZERO PUSH2 0x28F8 JUMPI DUP5 DUP10 ADD MLOAD PUSH2 0x28F4 PUSH1 0x1F DUP10 AND DUP3 PUSH2 0x2807 JUMP JUMPDEST DUP4 SSTORE POP JUMPDEST PUSH1 0x1 PUSH1 0x2 DUP9 MUL ADD DUP9 SSTORE POP POP POP JUMPDEST POP POP POP POP POP POP JUMP JUMPDEST PUSH32 0x766F74657220646F6573206E6F74206578697374000000000000000000000000 PUSH0 DUP3 ADD MSTORE POP JUMP JUMPDEST PUSH0 PUSH2 0x2941 PUSH1 0x14 DUP4 PUSH2 0x2004 JUMP JUMPDEST SWAP2 POP PUSH2 0x294C DUP3 PUSH2 0x290D JUMP JUMPDEST PUSH1 0x20 DUP3 ADD SWAP1 POP SWAP2 SWAP1 POP JUMP JUMPDEST PUSH0 PUSH1 0x20 DUP3 ADD SWAP1 POP DUP2 DUP2 SUB PUSH0 DUP4 ADD MSTORE PUSH2 0x296E DUP2 PUSH2 0x2935 JUMP JUMPDEST SWAP1 POP SWAP2 SWAP1 POP JUMP JUMPDEST PUSH32 0x616C726561647920766F74656400000000000000000000000000000000000000 PUSH0 DUP3 ADD MSTORE POP JUMP JUMPDEST PUSH0 PUSH2 0x29A9 PUSH1 0xD DUP4 PUSH2 0x2004 JUMP JUMPDEST SWAP2 POP PUSH2 0x29B4 DUP3 PUSH2 0x2975 JUMP JUMPDEST PUSH1 0x20 DUP3 ADD SWAP1 POP SWAP2 SWAP1 POP JUMP JUMPDEST PUSH0 PUSH1 0x20 DUP3 ADD SWAP1 POP DUP2 DUP2 SUB PUSH0 DUP4 ADD MSTORE PUSH2 0x29D6 DUP2 PUSH2 0x299D JUMP JUMPDEST SWAP1 POP SWAP2 SWAP1 POP JUMP JUMPDEST PUSH32 0x766F74696E67206E6F7420737461727465640000000000000000000000000000 PUSH0 DUP3 ADD MSTORE POP JUMP JUMPDEST PUSH0 PUSH2 0x2A11 PUSH1 0x12 DUP4 PUSH2 0x2004 JUMP JUMPDEST SWAP2 POP PUSH2 0x2A1C DUP3 PUSH2 0x29DD JUMP JUMPDEST PUSH1 0x20 DUP3 ADD SWAP1 POP SWAP2 SWAP1 POP JUMP JUMPDEST PUSH0 PUSH1 0x20 DUP3 ADD SWAP1 POP DUP2 DUP2 SUB PUSH0 DUP4 ADD MSTORE PUSH2 0x2A3E DUP2 PUSH2 0x2A05 JUMP JUMPDEST SWAP1 POP SWAP2 SWAP1 POP JUMP JUMPDEST PUSH32 0x4E487B7100000000000000000000000000000000000000000000000000000000 PUSH0 MSTORE PUSH1 0x11 PUSH1 0x4 MSTORE PUSH1 0x24 PUSH0 REVERT JUMPDEST PUSH0 PUSH2 0x2A7C DUP3 PUSH2 0x1F91 JUMP JUMPDEST SWAP2 POP PUSH32 0xFFFFFFFFFFFFFFFFFFFFFFFFFFFFFFFFFFFFFFFFFFFFFFFFFFFFFFFFFFFFFFFF DUP3 SUB PUSH2 0x2AAE JUMPI PUSH2 0x2AAD PUSH2 0x2A45 JUMP JUMPDEST JUMPDEST PUSH1 0x1 DUP3 ADD SWAP1 POP SWAP2 SWAP1 POP JUMP JUMPDEST PUSH32 0x4E487B7100000000000000000000000000000000000000000000000000000000 PUSH0 MSTORE PUSH1 0x32 PUSH1 0x4 MSTORE PUSH1 0x24 PUSH0 REVERT JUMPDEST PUSH0 DUP2 SLOAD SWAP1 POP PUSH2 0x2AF4 DUP2 PUSH2 0x2644 JUMP JUMPDEST SWAP1 POP SWAP2 SWAP1 POP JUMP JUMPDEST DUP2 DUP2 SUB PUSH2 0x2B09 JUMPI POP POP PUSH2 0x2BDE JUMP JUMPDEST PUSH2 0x2B12 DUP3 PUSH2 0x2AE6 JUMP JUMPDEST PUSH8 0xFFFFFFFFFFFFFFFF DUP2 GT ISZERO PUSH2 0x2B2B JUMPI PUSH2 0x2B2A PUSH2 0x246B JUMP JUMPDEST JUMPDEST PUSH2 0x2B35 DUP3 SLOAD PUSH2 0x2644 JUMP JUMPDEST PUSH2 0x2B40 DUP3 DUP3 DUP6 PUSH2 0x27B5 JUMP JUMPDEST PUSH0 PUSH1 0x1F DUP4 GT PUSH1 0x1 DUP2 EQ PUSH2 0x2B6D JUMPI PUSH0 DUP5 ISZERO PUSH2 0x2B5B JUMPI DUP3 DUP8 ADD SLOAD SWAP1 POP JUMPDEST PUSH2 0x2B65 DUP6 DUP3 PUSH2 0x2823 JUMP JUMPDEST DUP7 SSTORE POP PUSH2 0x2BD7 JUMP JUMPDEST PUSH1 0x1F NOT DUP5 AND PUSH2 0x2B7B DUP8 PUSH2 0x26A1 JUMP JUMPDEST SWAP7 POP PUSH2 0x2B86 DUP7 PUSH2 0x26A1 JUMP JUMPDEST PUSH0 JUMPDEST DUP3 DUP2 LT ISZERO PUSH2 0x2BAD JUMPI DUP5 DUP10 ADD SLOAD DUP3 SSTORE PUSH1 0x1 DUP3 ADD SWAP2 POP PUSH1 0x1 DUP6 ADD SWAP5 POP PUSH1 0x20 DUP2 ADD SWAP1 POP PUSH2 0x2B88 JUMP JUMPDEST DUP7 DUP4 LT ISZERO PUSH2 0x2BCA JUMPI DUP5 DUP10 ADD SLOAD PUSH2 0x2BC6 PUSH1 0x1F DUP10 AND DUP3 PUSH2 0x2807 JUMP JUMPDEST DUP4 SSTORE POP JUMPDEST PUSH1 0x1 PUSH1 0x2 DUP9 MUL ADD DUP9 SSTORE POP POP POP JUMPDEST POP POP POP POP POP POP JUMPDEST JUMP JUMPDEST PUSH0 DUP2 SLOAD SWAP1 POP PUSH2 0x2BEE DUP2 PUSH2 0x2644 JUMP JUMPDEST SWAP1 POP SWAP2 SWAP1 POP JUMP JUMPDEST PUSH0 DUP2 SWAP1 POP DUP2 PUSH0 MSTORE PUSH1 0x20 PUSH0 KECCAK256 SWAP1 POP SWAP2 SWAP1 POP JUMP JUMPDEST DUP2 DUP2 SUB PUSH2 0x2C15 JUMPI POP POP PUSH2 0x2CEA JUMP JUMPDEST PUSH2 0x2C1E DUP3 PUSH2 0x2BE0 JUMP JUMPDEST PUSH8 0xFFFFFFFFFFFFFFFF DUP2 GT ISZERO PUSH2 0x2C37 JUMPI PUSH2 0x2C36 PUSH2 0x246B JUMP JUMPDEST JUMPDEST PUSH2 0x2C41 DUP3 SLOAD PUSH2 0x2644 JUMP JUMPDEST PUSH2 0x2C4C DUP3 DUP3 DUP6 PUSH2 0x27B5 JUMP JUMPDEST PUSH0 PUSH1 0x1F DUP4 GT PUSH1 0x1 DUP2 EQ PUSH2 0x2C79 JUMPI PUSH0 DUP5 ISZERO PUSH2 0x2C67 JUMPI DUP3 DUP8 ADD SLOAD SWAP1 POP JUMPDEST PUSH2 0x2C71 DUP6 DUP3 PUSH2 0x2823 JUMP JUMPDEST DUP7 SSTORE POP PUSH2 0x2CE3 JUMP JUMPDEST PUSH1 0x1F NOT DUP5 AND PUSH2 0x2C87 DUP8 PUSH2 0x2BF5 JUMP JUMPDEST SWAP7 POP PUSH2 0x2C92 DUP7 PUSH2 0x26A1 JUMP JUMPDEST PUSH0 JUMPDEST DUP3 DUP2 LT ISZERO PUSH2 0x2CB9 JUMPI DUP5 DUP10 ADD SLOAD DUP3 SSTORE PUSH1 0x1 DUP3 ADD SWAP2 POP PUSH1 0x1 DUP6 ADD SWAP5 POP PUSH1 0x20 DUP2 ADD SWAP1 POP PUSH2 0x2C94 JUMP JUMPDEST DUP7 DUP4 LT ISZERO PUSH2 0x2CD6 JUMPI DUP5 DUP10 ADD SLOAD PUSH2 0x2CD2 PUSH1 0x1F DUP10 AND DUP3 PUSH2 0x2807 JUMP JUMPDEST DUP4 SSTORE POP JUMPDEST PUSH1 0x1 PUSH1 0x2 DUP9 MUL ADD DUP9 SSTORE POP POP POP JUMPDEST POP POP POP POP POP POP JUMPDEST JUMP JUMPDEST PUSH0 PUSH2 0x2CF6 DUP3 PUSH2 0x1F91 JUMP JUMPDEST SWAP2 POP PUSH0 DUP3 SUB PUSH2 0x2D08 JUMPI PUSH2 0x2D07 PUSH2 0x2A45 JUMP JUMPDEST JUMPDEST PUSH1 0x1 DUP3 SUB SWAP1 POP SWAP2 SWAP1 POP JUMP JUMPDEST PUSH32 0x6F6E6C792061646D696E2063616E20726567697374657220766F746572000000 PUSH0 DUP3 ADD MSTORE POP JUMP JUMPDEST PUSH0 PUSH2 0x2D47 PUSH1 0x1D DUP4 PUSH2 0x2004 JUMP JUMPDEST SWAP2 POP PUSH2 0x2D52 DUP3 PUSH2 0x2D13 JUMP JUMPDEST PUSH1 0x20 DUP3 ADD SWAP1 POP SWAP2 SWAP1 POP JUMP JUMPDEST PUSH0 PUSH1 0x20 DUP3 ADD SWAP1 POP DUP2 DUP2 SUB PUSH0 DUP4 ADD MSTORE PUSH2 0x2D74 DUP2 PUSH2 0x2D3B JUMP JUMPDEST SWAP1 POP SWAP2 SWAP1 POP JUMP JUMPDEST PUSH32 0x61646D696E2063616E6E6F7420726567697374657220666F7220766F74650000 PUSH0 DUP3 ADD MSTORE POP JUMP JUMPDEST PUSH0 PUSH2 0x2DAF PUSH1 0x1E DUP4 PUSH2 0x2004 JUMP JUMPDEST SWAP2 POP PUSH2 0x2DBA DUP3 PUSH2 0x2D7B JUMP JUMPDEST PUSH1 0x20 DUP3 ADD SWAP1 POP SWAP2 SWAP1 POP JUMP JUMPDEST PUSH0 PUSH1 0x20 DUP3 ADD SWAP1 POP DUP2 DUP2 SUB PUSH0 DUP4 ADD MSTORE PUSH2 0x2DDC DUP2 PUSH2 0x2DA3 JUMP JUMPDEST SWAP1 POP SWAP2 SWAP1 POP JUMP JUMPDEST PUSH32 0x766F74657220616C726561647920726567697374657265640000000000000000 PUSH0 DUP3 ADD MSTORE POP JUMP JUMPDEST PUSH0 PUSH2 0x2E17 PUSH1 0x18 DUP4 PUSH2 0x2004 JUMP JUMPDEST SWAP2 POP PUSH2 0x2E22 DUP3 PUSH2 0x2DE3 JUMP JUMPDEST PUSH1 0x20 DUP3 ADD SWAP1 POP SWAP2 SWAP1 POP JUMP JUMPDEST PUSH0 PUSH1 0x20 DUP3 ADD SWAP1 POP DUP2 DUP2 SUB PUSH0 DUP4 ADD MSTORE PUSH2 0x2E44 DUP2 PUSH2 0x2E0B JUMP JUMPDEST SWAP1 POP SWAP2 SWAP1 POP JUMP JUMPDEST PUSH32 0x766F74696E67206D757374206265206F6E676F696E6720746F2064656C656761 PUSH0 DUP3 ADD MSTORE PUSH32 0x746520766F746500000000000000000000000000000000000000000000000000 PUSH1 0x20 DUP3 ADD MSTORE POP JUMP JUMPDEST PUSH0 PUSH2 0x2EA5 PUSH1 0x27 DUP4 PUSH2 0x2004 JUMP JUMPDEST SWAP2 POP PUSH2 0x2EB0 DUP3 PUSH2 0x2E4B JUMP JUMPDEST PUSH1 0x40 DUP3 ADD SWAP1 POP SWAP2 SWAP1 POP JUMP JUMPDEST PUSH0 PUSH1 0x20 DUP3 ADD SWAP1 POP DUP2 DUP2 SUB PUSH0 DUP4 ADD MSTORE PUSH2 0x2ED2 DUP2 PUSH2 0x2E99 JUMP JUMPDEST SWAP1 POP SWAP2 SWAP1 POP JUMP JUMPDEST PUSH32 0x6F6E6C792074686F73652063616E2064656C656761746520766F74652077686F PUSH0 DUP3 ADD MSTORE PUSH32 0x2068617665206E6F7420766F7465642079657400000000000000000000000000 PUSH1 0x20 DUP3 ADD MSTORE POP JUMP JUMPDEST PUSH0 PUSH2 0x2F33 PUSH1 0x33 DUP4 PUSH2 0x2004 JUMP JUMPDEST SWAP2 POP PUSH2 0x2F3E DUP3 PUSH2 0x2ED9 JUMP JUMPDEST PUSH1 0x40 DUP3 ADD SWAP1 POP SWAP2 SWAP1 POP JUMP JUMPDEST PUSH0 PUSH1 0x20 DUP3 ADD SWAP1 POP DUP2 DUP2 SUB PUSH0 DUP4 ADD MSTORE PUSH2 0x2F60 DUP2 PUSH2 0x2F27 JUMP JUMPDEST SWAP1 POP SWAP2 SWAP1 POP JUMP JUMPDEST PUSH32 0x61646D696E2063616E6E6F742064656C656761746520766F7465000000000000 PUSH0 DUP3 ADD MSTORE POP JUMP JUMPDEST PUSH0 PUSH2 0x2F9B PUSH1 0x1A DUP4 PUSH2 0x2004 JUMP JUMPDEST SWAP2 POP PUSH2 0x2FA6 DUP3 PUSH2 0x2F67 JUMP JUMPDEST PUSH1 0x20 DUP3 ADD SWAP1 POP SWAP2 SWAP1 POP JUMP JUMPDEST PUSH0 PUSH1 0x20 DUP3 ADD SWAP1 POP DUP2 DUP2 SUB PUSH0 DUP4 ADD MSTORE PUSH2 0x2FC8 DUP2 PUSH2 0x2F8F JUMP JUMPDEST SWAP1 POP SWAP2 SWAP1 POP JUMP JUMPDEST PUSH32 0x43616E6E6F742064656C656761746520766F746520746F2073656C6600000000 PUSH0 DUP3 ADD MSTORE POP JUMP JUMPDEST PUSH0 PUSH2 0x3003 PUSH1 0x1C DUP4 PUSH2 0x2004 JUMP JUMPDEST SWAP2 POP PUSH2 0x300E DUP3 PUSH2 0x2FCF JUMP JUMPDEST PUSH1 0x20 DUP3 ADD SWAP1 POP SWAP2 SWAP1 POP JUMP JUMPDEST PUSH0 PUSH1 0x20 DUP3 ADD SWAP1 POP DUP2 DUP2 SUB PUSH0 DUP4 ADD MSTORE PUSH2 0x3030 DUP2 PUSH2 0x2FF7 JUMP JUMPDEST SWAP1 POP SWAP2 SWAP1 POP JUMP JUMPDEST PUSH32 0x43616E6469646174652063616E6E6F742061636365707420616E64207472616E PUSH0 DUP3 ADD MSTORE PUSH32 0x7366657220766F74657300000000000000000000000000000000000000000000 PUSH1 0x20 DUP3 ADD MSTORE POP JUMP JUMPDEST PUSH0 PUSH2 0x3091 PUSH1 0x2A DUP4 PUSH2 0x2004 JUMP JUMPDEST SWAP2 POP PUSH2 0x309C DUP3 PUSH2 0x3037 JUMP JUMPDEST PUSH1 0x40 DUP3 ADD SWAP1 POP SWAP2 SWAP1 POP JUMP JUMPDEST PUSH0 PUSH1 0x20 DUP3 ADD SWAP1 POP DUP2 DUP2 SUB PUSH0 DUP4 ADD MSTORE PUSH2 0x30BE DUP2 PUSH2 0x3085 JUMP JUMPDEST SWAP1 POP SWAP2 SWAP1 POP JUMP JUMPDEST PUSH32 0x6F6E6C792061646D696E2063616E206465636C6172652077696E6E6572000000 PUSH0 DUP3 ADD MSTORE POP JUMP JUMPDEST PUSH0 PUSH2 0x30F9 PUSH1 0x1D DUP4 PUSH2 0x2004 JUMP JUMPDEST SWAP2 POP PUSH2 0x3104 DUP3 PUSH2 0x30C5 JUMP JUMPDEST PUSH1 0x20 DUP3 ADD SWAP1 POP SWAP2 SWAP1 POP JUMP JUMPDEST PUSH0 PUSH1 0x20 DUP3 ADD SWAP1 POP DUP2 DUP2 SUB PUSH0 DUP4 ADD MSTORE PUSH2 0x3126 DUP2 PUSH2 0x30ED JUMP JUMPDEST SWAP1 POP SWAP2 SWAP1 POP JUMP JUMPDEST PUSH32 0x57494E4E45522057494C4C204F4E4C59204245204445434C41524544204F4E43 PUSH0 DUP3 ADD MSTORE PUSH32 0x452054484520454C4354494F4E20454E44530000000000000000000000000000 PUSH1 0x20 DUP3 ADD MSTORE POP JUMP JUMPDEST PUSH0 PUSH2 0x3187 PUSH1 0x32 DUP4 PUSH2 0x2004 JUMP JUMPDEST SWAP2 POP PUSH2 0x3192 DUP3 PUSH2 0x312D JUMP JUMPDEST PUSH1 0x40 DUP3 ADD SWAP1 POP SWAP2 SWAP1 POP JUMP JUMPDEST PUSH0 PUSH1 0x20 DUP3 ADD SWAP1 POP DUP2 DUP2 SUB PUSH0 DUP4 ADD MSTORE PUSH2 0x31B4 DUP2 PUSH2 0x317B JUMP JUMPDEST SWAP1 POP SWAP2 SWAP1 POP JUMP JUMPDEST PUSH32 0x6F6E6C792061646D696E2063616E2072656769737465722063616E6469646174 PUSH0 DUP3 ADD MSTORE PUSH32 0x6500000000000000000000000000000000000000000000000000000000000000 PUSH1 0x20 DUP3 ADD MSTORE POP JUMP JUMPDEST PUSH0 PUSH2 0x3215 PUSH1 0x21 DUP4 PUSH2 0x2004 JUMP JUMPDEST SWAP2 POP PUSH2 0x3220 DUP3 PUSH2 0x31BB JUMP JUMPDEST PUSH1 0x40 DUP3 ADD SWAP1 POP SWAP2 SWAP1 POP JUMP JUMPDEST PUSH0 PUSH1 0x20 DUP3 ADD SWAP1 POP DUP2 DUP2 SUB PUSH0 DUP4 ADD MSTORE PUSH2 0x3242 DUP2 PUSH2 0x3209 JUMP JUMPDEST SWAP1 POP SWAP2 SWAP1 POP JUMP JUMPDEST PUSH32 0x63616E64696461746520616C7265616479206578697374000000000000000000 PUSH0 DUP3 ADD MSTORE POP JUMP JUMPDEST PUSH0 PUSH2 0x327D PUSH1 0x17 DUP4 PUSH2 0x2004 JUMP JUMPDEST SWAP2 POP PUSH2 0x3288 DUP3 PUSH2 0x3249 JUMP JUMPDEST PUSH1 0x20 DUP3 ADD SWAP1 POP SWAP2 SWAP1 POP JUMP JUMPDEST PUSH0 PUSH1 0x20 DUP3 ADD SWAP1 POP DUP2 DUP2 SUB PUSH0 DUP4 ADD MSTORE PUSH2 0x32AA DUP2 PUSH2 0x3271 JUMP JUMPDEST SWAP1 POP SWAP2 SWAP1 POP JUMP JUMPDEST PUSH32 0x61646D696E2063616E277420626520726567697374657265642061732063616E PUSH0 DUP3 ADD MSTORE PUSH32 0x6469646174650000000000000000000000000000000000000000000000000000 PUSH1 0x20 DUP3 ADD MSTORE POP JUMP JUMPDEST PUSH0 PUSH2 0x330B PUSH1 0x26 DUP4 PUSH2 0x2004 JUMP JUMPDEST SWAP2 POP PUSH2 0x3316 DUP3 PUSH2 0x32B1 JUMP JUMPDEST PUSH1 0x40 DUP3 ADD SWAP1 POP SWAP2 SWAP1 POP JUMP JUMPDEST PUSH0 PUSH1 0x20 DUP3 ADD SWAP1 POP DUP2 DUP2 SUB PUSH0 DUP4 ADD MSTORE PUSH2 0x3338 DUP2 PUSH2 0x32FF JUMP JUMPDEST SWAP1 POP SWAP2 SWAP1 POP JUMP INVALID LOG2 PUSH5 0x6970667358 0x22 SLT KECCAK256 0xED LOG1 CALL LOG2 0xD2 0xAF 0xEA 0xD7 DELEGATECALL 0xE2 0xB5 0xD2 PUSH2 0x214E 0x49 SWAP9 SELFDESTRUCT PUSH18 0xC9C6CDC9026E26DF57071BE96764736F6C63 NUMBER STOP ADDMOD ISZERO STOP CALLER "
				},
				"gasEstimates": {
					"creation": {
						"codeDepositCost": "2634600",
						"executionCost": "infinite",
						"totalCost": "infinite"
					},
					"external": {
						"CandidateList(address)": "infinite",
						"CastVote(uint256,address)": "infinite",
						"VoterList(address)": "infinite",
						"allCandidates()": "infinite",
						"allVoters()": "infinite",
						"delegateVote(address)": "infinite",
						"endVoting()": "infinite",
						"registerCandidate(string,string,address)": "infinite",
						"registerVoter(address)": "236273",
						"startVoting()": "infinite",
						"votingStatus()": "infinite",
						"winnerDeclare()": "infinite"
					},
					"internal": {
						"checkVoter(address)": "infinite"
					}
				},
				"methodIdentifiers": {
					"CandidateList(address)": "0a03fff1",
					"CastVote(uint256,address)": "233b672d",
					"VoterList(address)": "0098a51a",
					"allCandidates()": "81c40715",
					"allVoters()": "f9e7284f",
					"delegateVote(address)": "b31e1d4d",
					"endVoting()": "c3403ddf",
					"registerCandidate(string,string,address)": "fcab6679",
					"registerVoter(address)": "38db6dd3",
					"startVoting()": "1ec6b60a",
					"votingStatus()": "19f41a40",
					"winnerDeclare()": "d1e05abb"
				}
			},
			"storageLayout": {
				"storage": [
					{
						"astId": 3,
						"contract": "contracts/temp2.sol:election",
						"label": "votingAdmin",
						"offset": 0,
						"slot": "0",
						"type": "t_address"
					},
					{
						"astId": 5,
						"contract": "contracts/temp2.sol:election",
						"label": "votingStarted",
						"offset": 20,
						"slot": "0",
						"type": "t_bool"
					},
					{
						"astId": 7,
						"contract": "contracts/temp2.sol:election",
						"label": "totalVote",
						"offset": 0,
						"slot": "1",
						"type": "t_uint256"
					},
					{
						"astId": 9,
						"contract": "contracts/temp2.sol:election",
						"label": "endVote",
						"offset": 0,
						"slot": "2",
						"type": "t_uint256"
					},
					{
						"astId": 11,
						"contract": "contracts/temp2.sol:election",
						"label": "status",
						"offset": 0,
						"slot": "3",
						"type": "t_string_storage"
					},
					{
						"astId": 13,
						"contract": "contracts/temp2.sol:election",
						"label": "totalVoter",
						"offset": 0,
						"slot": "4",
						"type": "t_uint256"
					},
					{
						"astId": 15,
						"contract": "contracts/temp2.sol:election",
						"label": "winner",
						"offset": 0,
						"slot": "5",
						"type": "t_string_storage"
					},
					{
						"astId": 17,
						"contract": "contracts/temp2.sol:election",
						"label": "highestVote",
						"offset": 0,
						"slot": "6",
						"type": "t_uint256"
					},
					{
						"astId": 24,
						"contract": "contracts/temp2.sol:election",
						"label": "choice",
						"offset": 0,
						"slot": "7",
						"type": "t_enum(vStatus)21"
					},
					{
						"astId": 89,
						"contract": "contracts/temp2.sol:election",
						"label": "CandidateList",
						"offset": 0,
						"slot": "8",
						"type": "t_mapping(t_address,t_struct(candidates)73_storage)"
					},
					{
						"astId": 93,
						"contract": "contracts/temp2.sol:election",
						"label": "displayCandidates",
						"offset": 0,
						"slot": "9",
						"type": "t_array(t_struct(candidates)73_storage)dyn_storage"
					},
					{
						"astId": 98,
						"contract": "contracts/temp2.sol:election",
						"label": "VoterList",
						"offset": 0,
						"slot": "10",
						"type": "t_mapping(t_address,t_struct(voters)84_storage)"
					},
					{
						"astId": 102,
						"contract": "contracts/temp2.sol:election",
						"label": "displayVoter",
						"offset": 0,
						"slot": "11",
						"type": "t_array(t_struct(voters)84_storage)dyn_storage"
					}
				],
				"types": {
					"t_address": {
						"encoding": "inplace",
						"label": "address",
						"numberOfBytes": "20"
					},
					"t_array(t_struct(candidates)73_storage)dyn_storage": {
						"base": "t_struct(candidates)73_storage",
						"encoding": "dynamic_array",
						"label": "struct election.candidates[]",
						"numberOfBytes": "32"
					},
					"t_array(t_struct(voters)84_storage)dyn_storage": {
						"base": "t_struct(voters)84_storage",
						"encoding": "dynamic_array",
						"label": "struct election.voters[]",
						"numberOfBytes": "32"
					},
					"t_bool": {
						"encoding": "inplace",
						"label": "bool",
						"numberOfBytes": "1"
					},
					"t_enum(vStatus)21": {
						"encoding": "inplace",
						"label": "enum election.vStatus",
						"numberOfBytes": "1"
					},
					"t_mapping(t_address,t_struct(candidates)73_storage)": {
						"encoding": "mapping",
						"key": "t_address",
						"label": "mapping(address => struct election.candidates)",
						"numberOfBytes": "32",
						"value": "t_struct(candidates)73_storage"
					},
					"t_mapping(t_address,t_struct(voters)84_storage)": {
						"encoding": "mapping",
						"key": "t_address",
						"label": "mapping(address => struct election.voters)",
						"numberOfBytes": "32",
						"value": "t_struct(voters)84_storage"
					},
					"t_string_storage": {
						"encoding": "bytes",
						"label": "string",
						"numberOfBytes": "32"
					},
					"t_struct(candidates)73_storage": {
						"encoding": "inplace",
						"label": "struct election.candidates",
						"members": [
							{
								"astId": 64,
								"contract": "contracts/temp2.sol:election",
								"label": "candidateAddress",
								"offset": 0,
								"slot": "0",
								"type": "t_address"
							},
							{
								"astId": 66,
								"contract": "contracts/temp2.sol:election",
								"label": "name",
								"offset": 0,
								"slot": "1",
								"type": "t_string_storage"
							},
							{
								"astId": 68,
								"contract": "contracts/temp2.sol:election",
								"label": "proposal",
								"offset": 0,
								"slot": "2",
								"type": "t_string_storage"
							},
							{
								"astId": 70,
								"contract": "contracts/temp2.sol:election",
								"label": "register",
								"offset": 0,
								"slot": "3",
								"type": "t_bool"
							},
							{
								"astId": 72,
								"contract": "contracts/temp2.sol:election",
								"label": "votes",
								"offset": 0,
								"slot": "4",
								"type": "t_uint256"
							}
						],
						"numberOfBytes": "160"
					},
					"t_struct(voters)84_storage": {
						"encoding": "inplace",
						"label": "struct election.voters",
						"members": [
							{
								"astId": 75,
								"contract": "contracts/temp2.sol:election",
								"label": "voterAddress",
								"offset": 0,
								"slot": "0",
								"type": "t_address"
							},
							{
								"astId": 77,
								"contract": "contracts/temp2.sol:election",
								"label": "register",
								"offset": 20,
								"slot": "0",
								"type": "t_bool"
							},
							{
								"astId": 79,
								"contract": "contracts/temp2.sol:election",
								"label": "voted",
								"offset": 21,
								"slot": "0",
								"type": "t_bool"
							},
							{
								"astId": 81,
								"contract": "contracts/temp2.sol:election",
								"label": "transferedVote",
								"offset": 0,
								"slot": "1",
								"type": "t_uint256"
							},
							{
								"astId": 83,
								"contract": "contracts/temp2.sol:election",
								"label": "id",
								"offset": 0,
								"slot": "2",
								"type": "t_uint256"
							}
						],
						"numberOfBytes": "96"
					},
					"t_uint256": {
						"encoding": "inplace",
						"label": "uint256",
						"numberOfBytes": "32"
					}
				}
			},
			"userdoc": {
				"kind": "user",
				"methods": {},
				"version": 1
			}
		}
	}
}