{
	"contracts/errorHandling.sol": {
		"errorhandlingSample": {
			"abi": [
				{
					"inputs": [
						{
							"internalType": "uint256",
							"name": "_amount",
							"type": "uint256"
						}
					],
					"name": "deductBal",
					"outputs": [
						{
							"internalType": "uint256",
							"name": "",
							"type": "uint256"
						}
					],
					"stateMutability": "nonpayable",
					"type": "function"
				},
				{
					"inputs": [
						{
							"internalType": "uint256",
							"name": "_amount",
							"type": "uint256"
						}
					],
					"name": "deductBal1",
					"outputs": [
						{
							"internalType": "uint256",
							"name": "",
							"type": "uint256"
						}
					],
					"stateMutability": "nonpayable",
					"type": "function"
				},
				{
					"inputs": [
						{
							"internalType": "uint256",
							"name": "_amount",
							"type": "uint256"
						}
					],
					"name": "deductBal2",
					"outputs": [
						{
							"internalType": "uint256",
							"name": "",
							"type": "uint256"
						}
					],
					"stateMutability": "nonpayable",
					"type": "function"
				}
			],
			"devdoc": {
				"kind": "dev",
				"methods": {},
				"version": 1
			},
			"evm": {
				"assembly": "    /* \"contracts/errorHandling.sol\":59:678  contract errorhandlingSample{\r... */\n  mstore(0x40, 0x80)\n    /* \"contracts/errorHandling.sol\":110:113  100 */\n  0x64\n    /* \"contracts/errorHandling.sol\":96:113  uint balance =100 */\n  0x00\n  sstore\n    /* \"contracts/errorHandling.sol\":59:678  contract errorhandlingSample{\r... */\n  callvalue\n  dup1\n  iszero\n  tag_1\n  jumpi\n  0x00\n  dup1\n  revert\ntag_1:\n  pop\n  dataSize(sub_0)\n  dup1\n  dataOffset(sub_0)\n  0x00\n  codecopy\n  0x00\n  return\nstop\n\nsub_0: assembly {\n        /* \"contracts/errorHandling.sol\":59:678  contract errorhandlingSample{\r... */\n      mstore(0x40, 0x80)\n      callvalue\n      dup1\n      iszero\n      tag_1\n      jumpi\n      0x00\n      dup1\n      revert\n    tag_1:\n      pop\n      jumpi(tag_2, lt(calldatasize, 0x04))\n      shr(0xe0, calldataload(0x00))\n      dup1\n      0x75da99fc\n      eq\n      tag_3\n      jumpi\n      dup1\n      0x92f75cd7\n      eq\n      tag_4\n      jumpi\n      dup1\n      0xa39dc6c7\n      eq\n      tag_5\n      jumpi\n    tag_2:\n      0x00\n      dup1\n      revert\n        /* \"contracts/errorHandling.sol\":339:518  function deductBal1(uint _amount) public returns(uint){\r... */\n    tag_3:\n      tag_6\n      0x04\n      dup1\n      calldatasize\n      sub\n      0x20\n      dup2\n      lt\n      iszero\n      tag_7\n      jumpi\n      0x00\n      dup1\n      revert\n    tag_7:\n      dup2\n      add\n      swap1\n      dup1\n      dup1\n      calldataload\n      swap1\n      0x20\n      add\n      swap1\n      swap3\n      swap2\n      swap1\n      pop\n      pop\n      pop\n      tag_8\n      jump\t// in\n    tag_6:\n      mload(0x40)\n      dup1\n      dup3\n      dup2\n      mstore\n      0x20\n      add\n      swap2\n      pop\n      pop\n      mload(0x40)\n      dup1\n      swap2\n      sub\n      swap1\n      return\n        /* \"contracts/errorHandling.sol\":526:675  function deductBal2(uint _amount) public returns(uint){\r... */\n    tag_4:\n      tag_9\n      0x04\n      dup1\n      calldatasize\n      sub\n      0x20\n      dup2\n      lt\n      iszero\n      tag_10\n      jumpi\n      0x00\n      dup1\n      revert\n    tag_10:\n      dup2\n      add\n      swap1\n      dup1\n      dup1\n      calldataload\n      swap1\n      0x20\n      add\n      swap1\n      swap3\n      swap2\n      swap1\n      pop\n      pop\n      pop\n      tag_11\n      jump\t// in\n    tag_9:\n      mload(0x40)\n      dup1\n      dup3\n      dup2\n      mstore\n      0x20\n      add\n      swap2\n      pop\n      pop\n      mload(0x40)\n      dup1\n      swap2\n      sub\n      swap1\n      return\n        /* \"contracts/errorHandling.sol\":122:331  function deductBal(uint _amount) public returns(uint){\r... */\n    tag_5:\n      tag_12\n      0x04\n      dup1\n      calldatasize\n      sub\n      0x20\n      dup2\n      lt\n      iszero\n      tag_13\n      jumpi\n      0x00\n      dup1\n      revert\n    tag_13:\n      dup2\n      add\n      swap1\n      dup1\n      dup1\n      calldataload\n      swap1\n      0x20\n      add\n      swap1\n      swap3\n      swap2\n      swap1\n      pop\n      pop\n      pop\n      tag_14\n      jump\t// in\n    tag_12:\n      mload(0x40)\n      dup1\n      dup3\n      dup2\n      mstore\n      0x20\n      add\n      swap2\n      pop\n      pop\n      mload(0x40)\n      dup1\n      swap2\n      sub\n      swap1\n      return\n        /* \"contracts/errorHandling.sol\":339:518  function deductBal1(uint _amount) public returns(uint){\r... */\n    tag_8:\n        /* \"contracts/errorHandling.sol\":388:392  uint */\n      0x00\n        /* \"contracts/errorHandling.sol\":420:421  1 */\n      0x01\n        /* \"contracts/errorHandling.sol\":412:419  _amount */\n      dup3\n        /* \"contracts/errorHandling.sol\":412:421  _amount>1 */\n      gt\n        /* \"contracts/errorHandling.sol\":404:451  require(_amount>1, \"Input amount is not valid\") */\n      tag_16\n      jumpi\n      mload(0x40)\n      0x08c379a000000000000000000000000000000000000000000000000000000000\n      dup2\n      mstore\n      0x04\n      add\n      dup1\n      dup1\n      0x20\n      add\n      dup3\n      dup2\n      sub\n      dup3\n      mstore\n      0x19\n      dup2\n      mstore\n      0x20\n      add\n      dup1\n      0x496e70757420616d6f756e74206973206e6f742076616c696400000000000000\n      dup2\n      mstore\n      pop\n      0x20\n      add\n      swap2\n      pop\n      pop\n      mload(0x40)\n      dup1\n      swap2\n      sub\n      swap1\n      revert\n    tag_16:\n        /* \"contracts/errorHandling.sol\":478:485  _amount */\n      dup2\n        /* \"contracts/errorHandling.sol\":470:477  balance */\n      sload(0x00)\n        /* \"contracts/errorHandling.sol\":470:485  balance-_amount */\n      sub\n        /* \"contracts/errorHandling.sol\":462:469  balance */\n      0x00\n        /* \"contracts/errorHandling.sol\":462:485  balance=balance-_amount */\n      dup2\n      swap1\n      sstore\n      pop\n        /* \"contracts/errorHandling.sol\":503:510  balance */\n      sload(0x00)\n        /* \"contracts/errorHandling.sol\":496:510  return balance */\n      swap1\n      pop\n        /* \"contracts/errorHandling.sol\":339:518  function deductBal1(uint _amount) public returns(uint){\r... */\n      swap2\n      swap1\n      pop\n      jump\t// out\n        /* \"contracts/errorHandling.sol\":526:675  function deductBal2(uint _amount) public returns(uint){\r... */\n    tag_11:\n        /* \"contracts/errorHandling.sol\":575:579  uint */\n      0x00\n        /* \"contracts/errorHandling.sol\":606:607  1 */\n      0x01\n        /* \"contracts/errorHandling.sol\":598:605  _amount */\n      dup3\n        /* \"contracts/errorHandling.sol\":598:607  _amount>1 */\n      gt\n        /* \"contracts/errorHandling.sol\":591:608  assert(_amount>1) */\n      tag_18\n      jumpi\n      invalid\n    tag_18:\n        /* \"contracts/errorHandling.sol\":635:642  _amount */\n      dup2\n        /* \"contracts/errorHandling.sol\":627:634  balance */\n      sload(0x00)\n        /* \"contracts/errorHandling.sol\":627:642  balance-_amount */\n      sub\n        /* \"contracts/errorHandling.sol\":619:626  balance */\n      0x00\n        /* \"contracts/errorHandling.sol\":619:642  balance=balance-_amount */\n      dup2\n      swap1\n      sstore\n      pop\n        /* \"contracts/errorHandling.sol\":660:667  balance */\n      sload(0x00)\n        /* \"contracts/errorHandling.sol\":653:667  return balance */\n      swap1\n      pop\n        /* \"contracts/errorHandling.sol\":526:675  function deductBal2(uint _amount) public returns(uint){\r... */\n      swap2\n      swap1\n      pop\n      jump\t// out\n        /* \"contracts/errorHandling.sol\":122:331  function deductBal(uint _amount) public returns(uint){\r... */\n    tag_14:\n        /* \"contracts/errorHandling.sol\":170:174  uint */\n      0x00\n        /* \"contracts/errorHandling.sol\":198:199  2 */\n      0x02\n        /* \"contracts/errorHandling.sol\":189:196  _amount */\n      dup3\n        /* \"contracts/errorHandling.sol\":189:199  _amount <2 */\n      lt\n        /* \"contracts/errorHandling.sol\":186:262  if(_amount <2){\r... */\n      iszero\n      tag_20\n      jumpi\n        /* \"contracts/errorHandling.sol\":215:250  revert(\"Input amount is not valid\") */\n      mload(0x40)\n      0x08c379a000000000000000000000000000000000000000000000000000000000\n      dup2\n      mstore\n      0x04\n      add\n      dup1\n      dup1\n      0x20\n      add\n      dup3\n      dup2\n      sub\n      dup3\n      mstore\n      0x19\n      dup2\n      mstore\n      0x20\n      add\n      dup1\n      0x496e70757420616d6f756e74206973206e6f742076616c696400000000000000\n      dup2\n      mstore\n      pop\n      0x20\n      add\n      swap2\n      pop\n      pop\n      mload(0x40)\n      dup1\n      swap2\n      sub\n      swap1\n      revert\n        /* \"contracts/errorHandling.sol\":186:262  if(_amount <2){\r... */\n    tag_20:\n        /* \"contracts/errorHandling.sol\":291:298  _amount */\n      dup2\n        /* \"contracts/errorHandling.sol\":281:288  balance */\n      sload(0x00)\n        /* \"contracts/errorHandling.sol\":281:298  balance - _amount */\n      sub\n        /* \"contracts/errorHandling.sol\":272:279  balance */\n      0x00\n        /* \"contracts/errorHandling.sol\":272:298  balance= balance - _amount */\n      dup2\n      swap1\n      sstore\n      pop\n        /* \"contracts/errorHandling.sol\":316:323  balance */\n      sload(0x00)\n        /* \"contracts/errorHandling.sol\":309:323  return balance */\n      swap1\n      pop\n        /* \"contracts/errorHandling.sol\":122:331  function deductBal(uint _amount) public returns(uint){\r... */\n      swap2\n      swap1\n      pop\n      jump\t// out\n\n    auxdata: 0xa2646970667358221220be3780f9d5364abdbfc13f89da0728c15073e572afbddaeed79f4e05c5738bec64736f6c634300060c0033\n}\n",
				"bytecode": {
					"linkReferences": {},
					"object": "6080604052606460005534801561001557600080fd5b5061027e806100256000396000f3fe608060405234801561001057600080fd5b50600436106100415760003560e01c806375da99fc1461004657806392f75cd714610088578063a39dc6c7146100ca575b600080fd5b6100726004803603602081101561005c57600080fd5b810190808035906020019092919050505061010c565b6040518082815260200191505060405180910390f35b6100b46004803603602081101561009e57600080fd5b8101908080359060200190929190505050610199565b6040518082815260200191505060405180910390f35b6100f6600480360360208110156100e057600080fd5b81019080803590602001909291905050506101ba565b6040518082815260200191505060405180910390f35b600060018211610184576040517f08c379a00000000000000000000000000000000000000000000000000000000081526004018080602001828103825260198152602001807f496e70757420616d6f756e74206973206e6f742076616c69640000000000000081525060200191505060405180910390fd5b81600054036000819055506000549050919050565b6000600182116101a557fe5b81600054036000819055506000549050919050565b60006002821015610233576040517f08c379a00000000000000000000000000000000000000000000000000000000081526004018080602001828103825260198152602001807f496e70757420616d6f756e74206973206e6f742076616c69640000000000000081525060200191505060405180910390fd5b8160005403600081905550600054905091905056fea2646970667358221220be3780f9d5364abdbfc13f89da0728c15073e572afbddaeed79f4e05c5738bec64736f6c634300060c0033",
					"opcodes": "PUSH1 0x80 PUSH1 0x40 MSTORE PUSH1 0x64 PUSH1 0x0 SSTORE CALLVALUE DUP1 ISZERO PUSH2 0x15 JUMPI PUSH1 0x0 DUP1 REVERT JUMPDEST POP PUSH2 0x27E DUP1 PUSH2 0x25 PUSH1 0x0 CODECOPY PUSH1 0x0 RETURN INVALID PUSH1 0x80 PUSH1 0x40 MSTORE CALLVALUE DUP1 ISZERO PUSH2 0x10 JUMPI PUSH1 0x0 DUP1 REVERT JUMPDEST POP PUSH1 0x4 CALLDATASIZE LT PUSH2 0x41 JUMPI PUSH1 0x0 CALLDATALOAD PUSH1 0xE0 SHR DUP1 PUSH4 0x75DA99FC EQ PUSH2 0x46 JUMPI DUP1 PUSH4 0x92F75CD7 EQ PUSH2 0x88 JUMPI DUP1 PUSH4 0xA39DC6C7 EQ PUSH2 0xCA JUMPI JUMPDEST PUSH1 0x0 DUP1 REVERT JUMPDEST PUSH2 0x72 PUSH1 0x4 DUP1 CALLDATASIZE SUB PUSH1 0x20 DUP2 LT ISZERO PUSH2 0x5C JUMPI PUSH1 0x0 DUP1 REVERT JUMPDEST DUP2 ADD SWAP1 DUP1 DUP1 CALLDATALOAD SWAP1 PUSH1 0x20 ADD SWAP1 SWAP3 SWAP2 SWAP1 POP POP POP PUSH2 0x10C JUMP JUMPDEST PUSH1 0x40 MLOAD DUP1 DUP3 DUP2 MSTORE PUSH1 0x20 ADD SWAP2 POP POP PUSH1 0x40 MLOAD DUP1 SWAP2 SUB SWAP1 RETURN JUMPDEST PUSH2 0xB4 PUSH1 0x4 DUP1 CALLDATASIZE SUB PUSH1 0x20 DUP2 LT ISZERO PUSH2 0x9E JUMPI PUSH1 0x0 DUP1 REVERT JUMPDEST DUP2 ADD SWAP1 DUP1 DUP1 CALLDATALOAD SWAP1 PUSH1 0x20 ADD SWAP1 SWAP3 SWAP2 SWAP1 POP POP POP PUSH2 0x199 JUMP JUMPDEST PUSH1 0x40 MLOAD DUP1 DUP3 DUP2 MSTORE PUSH1 0x20 ADD SWAP2 POP POP PUSH1 0x40 MLOAD DUP1 SWAP2 SUB SWAP1 RETURN JUMPDEST PUSH2 0xF6 PUSH1 0x4 DUP1 CALLDATASIZE SUB PUSH1 0x20 DUP2 LT ISZERO PUSH2 0xE0 JUMPI PUSH1 0x0 DUP1 REVERT JUMPDEST DUP2 ADD SWAP1 DUP1 DUP1 CALLDATALOAD SWAP1 PUSH1 0x20 ADD SWAP1 SWAP3 SWAP2 SWAP1 POP POP POP PUSH2 0x1BA JUMP JUMPDEST PUSH1 0x40 MLOAD DUP1 DUP3 DUP2 MSTORE PUSH1 0x20 ADD SWAP2 POP POP PUSH1 0x40 MLOAD DUP1 SWAP2 SUB SWAP1 RETURN JUMPDEST PUSH1 0x0 PUSH1 0x1 DUP3 GT PUSH2 0x184 JUMPI PUSH1 0x40 MLOAD PUSH32 0x8C379A000000000000000000000000000000000000000000000000000000000 DUP2 MSTORE PUSH1 0x4 ADD DUP1 DUP1 PUSH1 0x20 ADD DUP3 DUP2 SUB DUP3 MSTORE PUSH1 0x19 DUP2 MSTORE PUSH1 0x20 ADD DUP1 PUSH32 0x496E70757420616D6F756E74206973206E6F742076616C696400000000000000 DUP2 MSTORE POP PUSH1 0x20 ADD SWAP2 POP POP PUSH1 0x40 MLOAD DUP1 SWAP2 SUB SWAP1 REVERT JUMPDEST DUP2 PUSH1 0x0 SLOAD SUB PUSH1 0x0 DUP2 SWAP1 SSTORE POP PUSH1 0x0 SLOAD SWAP1 POP SWAP2 SWAP1 POP JUMP JUMPDEST PUSH1 0x0 PUSH1 0x1 DUP3 GT PUSH2 0x1A5 JUMPI INVALID JUMPDEST DUP2 PUSH1 0x0 SLOAD SUB PUSH1 0x0 DUP2 SWAP1 SSTORE POP PUSH1 0x0 SLOAD SWAP1 POP SWAP2 SWAP1 POP JUMP JUMPDEST PUSH1 0x0 PUSH1 0x2 DUP3 LT ISZERO PUSH2 0x233 JUMPI PUSH1 0x40 MLOAD PUSH32 0x8C379A000000000000000000000000000000000000000000000000000000000 DUP2 MSTORE PUSH1 0x4 ADD DUP1 DUP1 PUSH1 0x20 ADD DUP3 DUP2 SUB DUP3 MSTORE PUSH1 0x19 DUP2 MSTORE PUSH1 0x20 ADD DUP1 PUSH32 0x496E70757420616D6F756E74206973206E6F742076616C696400000000000000 DUP2 MSTORE POP PUSH1 0x20 ADD SWAP2 POP POP PUSH1 0x40 MLOAD DUP1 SWAP2 SUB SWAP1 REVERT JUMPDEST DUP2 PUSH1 0x0 SLOAD SUB PUSH1 0x0 DUP2 SWAP1 SSTORE POP PUSH1 0x0 SLOAD SWAP1 POP SWAP2 SWAP1 POP JUMP INVALID LOG2 PUSH5 0x6970667358 0x22 SLT KECCAK256 0xBE CALLDATACOPY DUP1 0xF9 0xD5 CALLDATASIZE 0x4A 0xBD 0xBF 0xC1 EXTCODEHASH DUP10 0xDA SMOD 0x28 0xC1 POP PUSH20 0xE572AFBDDAEED79F4E05C5738BEC64736F6C6343 STOP MOD 0xC STOP CALLER "
				},
				"gasEstimates": {
					"creation": {
						"codeDepositCost": "127600",
						"executionCost": "20177",
						"totalCost": "147777"
					},
					"external": {
						"deductBal(uint256)": "21968",
						"deductBal1(uint256)": "21921",
						"deductBal2(uint256)": "21943"
					}
				},
				"methodIdentifiers": {
					"deductBal(uint256)": "a39dc6c7",
					"deductBal1(uint256)": "75da99fc",
					"deductBal2(uint256)": "92f75cd7"
				}
			},
			"storageLayout": {
				"storage": [
					{
						"astId": 4,
						"contract": "contracts/errorHandling.sol:errorhandlingSample",
						"label": "balance",
						"offset": 0,
						"slot": "0",
						"type": "t_uint256"
					}
				],
				"types": {
					"t_uint256": {
						"encoding": "inplace",
						"label": "uint256",
						"numberOfBytes": "32"
					}
				}
			},
			"userdoc": {
				"kind": "user",
				"methods": {},
				"version": 1
			}
		}
	}
}